:100000000C94460018950000189500001895000003
:10001000189500001895000018950000189500002C
:10002000189500001895000018950000189500001C
:100030001895000018950000189500000C945901BF
:1000400018950000189500000C949D01189500006B
:100050000C94B70018950000189500001895000042
:1000600018950000189500001895000018950000DC
:100070000C943B0F1895000018950000189500008F
:100080001895000018950000189500008FEF8DBF9F
:10009000C0E8E8E94E2E80E48EBFD0E4FFE35F2E97
:1000A000A89584B7082E882784BF88E19927809374
:1000B000600090936000EEEFFFE3A0E0B1E08827DE
:1000C0008D933197E9F787E68093C40080E08093B1
:1000D000C50088E18093C10080E08093CD0087E671
:1000E0008093CC0088E18093C9006624209A399AD5
:1000F0004198219A85E085BD80E084BD70916E00B5
:10010000716070936E0085E085BD86E08093CA00C3
:1001100088E18093C9007091C90070687093C9002C
:1001200080E08093800084E0809381008BEE809358
:1001300085008AE88093840070916F0071607093ED
:100140006F0084E080938100229A2A987091C10008
:1001500070687093C1007091C90070687093C90095
:10016000A0E1B1E00E946D0F78940C94060D0F92FF
:100170001F922F923F924F925F927F92AF92BF92C7
:100180000F931F932F933F934F935F936F937F939F
:100190008F939F93AF93BF93CF93DF93EF93FF938F
:1001A0008FB78F938BB78F9388278BBFA4EBB5E066
:1001B0008091C6008C9384E2482F0091B405041707
:1001C00011F00C94EE0070911D01716070931D018F
:1001D000A3E1B5E088278C930C9430010D3011F029
:1001E0000C941801ADE1B1E08C9180FB16F00C94F9
:1001F000160170911D017E7F70931D0180E0A3E1C7
:10020000B5E00E94410E8D9388278C93E3E1F5E0E1
:10021000A5EBB5E00E9452107091B1037068709325
:10022000B10370916E00716070936E000C94300198
:100230000F3118F011F00C941F010C943001ADE156
:10024000B1E08C9180FB16F00C943001A4EBB5E08A
:100250008C91A3E1B5E00E94410E8D9388278C9389
:100260008F918BBF8F918FBFFF91EF91DF91CF91D6
:10027000BF91AF919F918F917F916F915F914F91BE
:100280003F912F911F910F91BF90AF907F905F9002
:100290004F903F902F901F900F90189508958BEEE0
:1002A000809385008AE88093840084E080938100B5
:1002B00008950F921F922F923F924F925F927F92DA
:1002C000AF92BF920F931F932F933F934F935F93E0
:1002D0006F937F938F939F93AF93BF93CF93DF934E
:1002E000EF93FF938FB78F938BB78F9388278BBF35
:1002F00080918100887F809381000E9459038F91B3
:100300008BBF8F918FBFFF91EF91DF91CF91BF9105
:10031000AF919F918F917F916F915F914F913F919D
:100320002F911F910F91BF90AF907F905F904F9052
:100330003F902F901F900F9018950F921F922F9221
:100340003F924F925F927F92AF92BF920F931F9313
:100350002F933F934F935F936F937F938F939F93CD
:10036000AF93BF93CF93DF93EF93FF938FB78F93A9
:100370008BB78F9388278BBF74E676BDAEE3B2E070
:100380008C918F5F8C93AEE3B2E00C9148E00E94B9
:1003900078108C9300913E02003011F00C94100202
:1003A000AFE3B2E00C9140E20E9478108C93E8EC4D
:1003B000F9E10E94350FA4E4B2E08C919927A0E402
:1003C000B2E00E94F70E80913F02A0E4B2E00E94EA
:1003D000240F0E941A0F0C900822689409F4E894E4
:1003E000ADE1B1E08C9185F98C93ADE1B1E08C91F8
:1003F00085FB882780F9809580FBADE1B1E08C9189
:1004000085F98C93ADE1B1E08C9185FBA5E2B0E07C
:100410008C9180F98C93AFE3B2E08C918F5F8C93D9
:10042000ADE1B1E08C9182FB16F00C943202A6E4AF
:10043000B2E00E943A0EA8E4B2E04D915C91A6E4CD
:10044000B2E00D911C910417150711F00C943202C3
:1004500070911D01726070931D0170911D017B7F71
:1004600070931D018F918BBF8F918FBFFF91EF9183
:10047000DF91CF91BF91AF919F918F917F916F91BC
:100480005F914F913F912F911F910F91BF90AF902E
:100490007F905F904F903F902F901F900F901895F6
:1004A00078EB76BDADE1B1E08C9182FB16F00C9457
:1004B0007402A6E4B2E00E943A0EA8E4B2E04D91C4
:1004C0005C91A6E4B2E00D911C910417150711F0A0
:1004D0000C94740270911D01726070931D017091F3
:1004E0001D017B7F70931D010895289881E0809302
:1004F0002201E6E9F1E20E94350F0E94500E0E94AF
:10050000570EA0E8BFE3EEEAF1E20E94350F0E9429
:10051000CB0E0E94480E0E94570EA0E8BFE3E2EC0B
:10052000F1E20E94350F0E94CB0E0E94480E0E94FD
:10053000570EA0E8BFE3EAECF1E20E94350F0E94FB
:10054000CB0E0E94480E0E94570E81E08093440219
:1005500081E080933D0280E08093CE0280E0809332
:10056000CF0280E08093D00280E08093D10280E0CF
:100570008093D20281E08093AD030091AD030032FD
:1005800018F011F00C94EC02ADEAB3E08C91ADEAF6
:10059000B3E0AD90BB24A7EDB2E0AA0CBB1CAA0D42
:1005A000BB1D8D9388278C93ADEAB3E08C91ADEAA7
:1005B000B3E0AD90BB24ABE6B3E0AA0CBB1CAA0D24
:1005C000BB1D8D9388278C93ADEAB3E08C918F5F30
:1005D0008C9310F40C94BD02E0E0F0E0A0EBB3E0EB
:1005E0000E946E10E6EDF1E20E94350F0E94500E5F
:1005F000E0EBF3E0A0E8BFE30E94990F0E94480EF1
:100600000E94570E0895A881B9818D919C91A8E40C
:10061000B2E08D939C9380E090E0A6E4B2E08D93ED
:100620009C9370911D017D7F70931D0170911D0140
:10063000746070931D01ADE1B1E08C9181FB16F403
:100640000C942503A8950C941B03089582E00E9446
:10065000C50EABE4B2E08C9180588C9383E08A9312
:10066000AAE4B2E00E94A60EA881B9810D931C9362
:10067000A881B9818C91ADE4B2E08C93A881B98155
:1006800011968C91AEE4B2E08C932A9A35E0AAE4FC
:10069000B2E00E94910E7091C80076FFFCCF7064AA
:1006A0007093C8002A9882E0481A80E0580A22967F
:1006B000089581E00E94C50E81E00E94C50E81E090
:1006C0000E94C50E81E00E94C50E81E00E94C50E09
:1006D00082E00E94C50E82E00E94C50E82E00E9468
:1006E000C50E81E00E94C50E81E00E94C50E81E02A
:1006F0000E94C50E82E00E94C50E80E0AE89BF89CF
:100700008C930E94660E082F013011F00C94A00308
:10071000AE89BF898C918F5F8C9331E0A889B989AC
:100720000E94610EA889B9898C91AE89BF89AD906C
:10073000BB24A9E4B2E0AA0DBB1D8C930C948103E9
:10074000AE89BF890C91003080E010F009F081E0A3
:100750008F934091B00300914A02041781E009F0A1
:1007600080E09F918923882311F40C948D08AE8931
:10077000BF890C9141E0041BA889B9890C93AE890B
:10078000BF89AD90BB24A9E4B2E0AA0DBB1D9C912A
:10079000A889B989AD90BB24A9E4B2E0AA0DBB1D1C
:1007A0008C91AA85BB858D939C93A889B9890E9459
:1007B000360EA889B9898C918A93AAE4B2E00E9486
:1007C000A60E402F512FAA85BB850D911C910417B1
:1007D000150711F00C948D0890914C0280914D02F8
:1007E000AAECB2E08D939C9390914E0280914F02BF
:1007F000ACECB2E08D939C93AAECB2E00D911C910D
:10080000ACECB2E04D915C91040F151FA885B98541
:100810000D931C9380E0AA89BB898C9300914B02B5
:10082000013011F00C942A04A885B9850D911C9112
:10083000023050E0150718F011F00C9421040C94CC
:10084000280482E080934C0281E0AA89BB898C93C2
:100850000C94E704023011F00C944404A885B98587
:100860000D911C91003150E0150718F011F00C9417
:100870003B040C94420482E080934C0281E0AA89FC
:10088000BB898C930C94E704033011F00C945E0444
:10089000AAECB2E00D911C910B3450E0150718F052
:1008A00011F00C9455040C945C0482E080934C028B
:1008B00081E0AA89BB898C930C94E704043011F081
:1008C0000C947804AAECB2E00D911C91073150E031
:1008D000150718F011F00C946F040C94760482E064
:1008E00080934C0281E0AA89BB898C930C94E70425
:1008F000053011F00C949204AAECB2E00D911C9119
:10090000023050E0150718F011F00C9489040C9493
:10091000900482E080934C0281E0AA89BB898C9389
:100920000C94E7040F3011F00C94AC04A885B98541
:100930000D911C91023050E0150718F011F00C9445
:10094000A3040C94AA0482E080934C0281E0AA895B
:10095000BB898C930C94E704063011F00C94C60408
:10096000AAECB2E00D911C910B3450E0150718F081
:1009700011F00C94BD040C94C40482E080934C02EA
:1009800081E0AA89BB898C930C94E704013411F0AF
:100990000C94E004AAECB2E00D911C91073050E0F9
:1009A000150718F011F00C94D7040C94DE0482E0C3
:1009B00080934C0281E0AA89BB898C930C94E70454
:1009C00081E080934C0281E0AA89BB898C93AA893B
:1009D000BB890C91013011F00C94F3040E942603A2
:1009E00080E080934B0200914B02013081E008F4DB
:1009F00080E08F9300914B02023081E010F009F00B
:100A000080E09F918923882311F40C941E060091A5
:100A10004B02023011F00C940F050E9493080091D4
:100A2000CC0248E00E947810AE81BF810C93009107
:100A3000CC0248E00E947810A889B9898C93A889D3
:100A4000B9890C91003018F011F00C9429050C9420
:100A50002E05AE81BF818C918F5F8C9380E0AE8933
:100A6000BF898C93AAECB2E08D919C91AC85BD8539
:100A70008D939C93A885B9854D915C91AC85BD857E
:100A80000D911C910417150718F011F00C94B50581
:100A9000AE89BF898C918F5F8C93AE81BF814C9161
:100AA000AE89BF890C91041718F011F00C945A0507
:100AB0000C94600580E0AA81BB818C930C949C050A
:100AC00000914B02013011F00C948005AA81BB818A
:100AD000BA93AA93AE85BF858D919C91D2018D93D7
:100AE0009C9382E00E94C50EAEECB2E0BA93AA934A
:100AF0000E94D508269682E00E94C10E0C949C05A7
:100B0000023011F00C949C05AA81BB81BA93AA9380
:100B1000AE85BF858D919C91D2018D939C9382E08F
:100B20000E94C50EA3EDB2E0BA93AA930E94D50825
:100B3000269682E00E94C10EAA81BB818C91AE896B
:100B4000BF89AD90BB24ACE4B2E0AA0DBB1D8C9371
:100B5000AC85BD850D911C91085F1F4FAC85BD858F
:100B60000D931C9310F40C943A05AE81BF818C91C7
:100B700080934C0203E0AE81BF814C91040FAE899B
:100B8000BF890C93AE89BF898C918A93AAE4B2E0A5
:100B90000E94A60EAA85BB850D931C93AE89BF89C2
:100BA0008C918F5F8C93AA85BB858C91AE89BF8910
:100BB000AD90BB24A9E4B2E0AA0DBB1D8C93AE8915
:100BC000BF898C918F5F8C93AA85BB8511968C9180
:100BD000AE89BF89AD90BB24A9E4B2E0AA0DBB1DCC
:100BE0008C9381E0A889B9898C93AE89BF894C9197
:100BF000A889B9890C91041718F011F00C941C06FF
:100C00002A9A31E0A889B989AD90BB24A9E4B2E061
:100C1000AA0DBB1D0E94910E7091C80076FFFCCFFB
:100C200070647093C8002A98A889B9898C918F5FE5
:100C30008C9310F40C94F5050C948D0800914B02E4
:100C4000033081E008F480E08F9300914B02043080
:100C500081E010F009F080E09F918923882311F44E
:100C60000C9436078091CC02AC81BD818C9380E0DE
:100C7000AC89BD898C93AAECB2E00E943A0EA8859B
:100C8000B9850E943A0EAAECB2E08D919C91AC8598
:100C9000BD858D939C93A885B9854D915C91AC855C
:100CA000BD850D911C910417150718F011F00C94D7
:100CB000C506AC89BD898C918F5F8C93AC81BD8159
:100CC0004C91AC89BD890C91041718F011F00C946B
:100CD0006B060C94730680E090E0A881B9818D9337
:100CE0009C930C949F0600914B02033011F00C94DE
:100CF0008B06AC85BD85AD90BD90A7EDB2E0AA0C8A
:100D0000BB1CAA0DBB1D8D919C91A881B9818D93AF
:100D10009C930C949F06043011F00C949F06AC85B4
:100D2000BD85AD90BD90ABE6B3E0AA0CBB1CAA0D8F
:100D3000BB1D8D919C91A881B9818D939C93A881B5
:100D4000B98111968C91A889B9898C93A881B981B0
:100D50008C91AE85BF858C93AE85BF859C91A8890B
:100D6000B9898C91AC89BD89AD90BB24ABE4B2E06C
:100D7000AA0CBB1CAA0DBB1D8D939C93AC85BD8595
:100D80000E943A0E10F40C944B06AC81BD810C917C
:100D900042E0049FACE4B2E00C9280914C02AE8938
:100DA000BF898C9303E0AE89BF894C91040FAE8953
:100DB000BF890C93AE89BF898C918A93AAE4B2E073
:100DC0000E94A60EAA85BB850D931C93AE89BF8990
:100DD0008C918F5F8C93AA85BB858C91AE89BF89DE
:100DE000AD90BB24A9E4B2E0AA0DBB1D8C93AE89E3
:100DF000BF898C918F5F8C93AA85BB8511968C914E
:100E0000AE89BF89AD90BB24A9E4B2E0AA0DBB1D99
:100E10008C9381E0A889B9898C93AE89BF894C9164
:100E2000A889B9890C91041718F011F00C943407B3
:100E30002A9A31E0A889B989AD90BB24A9E4B2E02F
:100E4000AA0DBB1D0E94910E7091C80076FFFCCFC9
:100E500070647093C8002A98A889B9898C918F5FB3
:100E60008C9310F40C940D070C948D08053011F040
:100E70000C94990700914E020F3F11F00C946607F5
:100E8000AAECB2E08D919C91D2018D939C9382E06B
:100E90000E94C50E81E0D2018C9381E00E94C50EB4
:100EA0000E94B808249683E00E94C10E2A9A38E076
:100EB000AAE4B2E00E94910E7091C80076FFFCCFC8
:100EC00070647093C8002A980C94970700914E02A2
:100ED000003011F00C949207AAECB2E08D919C9135
:100EE000D2018D939C9382E00E94C50E80E0D201D6
:100EF0008C9381E00E94C50E0E94B808249683E07E
:100F00000E94C10E2A9A38E0AAE4B2E00E94910E33
:100F10007091C80076FFFCCF70647093C8002A9867
:100F20000C94970783E080934C020E9426030C9454
:100F30008D080F3011F00C943608AAECB2E08D91B8
:100F40009C91AC85BD858D939C9381E0AE89BF89D2
:100F50008C9340915002AE89BF890C91041718F010
:100F600011F00C940F0880E0A889B9898C93A889A6
:100F7000B9890C91073018F011F00C940708A88576
:100F8000B9854D915C91AC85BD850D911C9104177F
:100F9000150710F00C94FD07AC85BD858D919C91D3
:100FA000D2018D939C9382E00E94C50EAA89BB89D1
:100FB0008C91A88DB98DAD90BB24A0E5B2E0AA0DAF
:100FC000BB1D0E94240F0E941A0F0C9008226894E7
:100FD00009F4E894D201882780F98C9381E00E947B
:100FE000C50E0E94B808249683E00E94C10EAC850D
:100FF000BD850E943A0E0C94FF070C940708A8893F
:10100000B9898C918F5F8C9310F40C94B707AE89DB
:10101000BF898C918F5F8C9310F40C94A90786E0A4
:101020008A93AAE4B2E00E94A60EAA85BB850D931E
:101030001C93AA85BB858C91A0E5B2E08C93AA8510
:10104000BB8511968C91A1E5B2E08C932A9A38E089
:10105000AAE4B2E00E94910E7091C80076FFFCCF26
:1010600070647093C8002A980C948D08063011F0B3
:101070000C945E08AAECB2E00E943A0E90914E02E7
:1010800080914F02AAECB2E0AD90BD90A7EDB2E026
:10109000AA0CBB1CAA0DBB1D8D939C932A9A38E009
:1010A000AAE4B2E00E94910E7091C80076FFFCCFD6
:1010B00070647093C8002A980C948D08013411F064
:1010C0000C948D0880E080934C0280E080934D0268
:1010D00084E08A93AAE4B2E00E94A60EAA85BB85AA
:1010E0000D931C93AA85BB858C91AEE4B2E08C93E2
:1010F000AA85BB8511968C91AFE4B2E08C932A9AB5
:1011000036E0AAE4B2E00E94910E7091C80076FF2A
:10111000FCCF70647093C8002A9880E1481A80E080
:10112000580A68960895A9E2B0E08C9184FBA3ED7B
:10113000B2E08C9180F98C93A9E2B0E08C9185FBB0
:10114000A3EDB2E08C9181F98C93A9E2B0E08C918F
:1011500086FBA3EDB2E08C9182F98C93A9E2B0E01A
:101160008C9187FBA3EDB2E08C9183F98C93089569
:10117000AA81BB810D911C91003050E0150711F040
:101180000C94D408A881B9818C9180FBA5E2B0E0D1
:101190008C9181F98C93A881B9818C9180FBAEEC04
:1011A000B2E08C9180F98C93089581E00E94C50E85
:1011B00081E00E94C50E81E00E94C50E81E00E9480
:1011C000C50E80E0AE81BF818C9380E0AC81BD8193
:1011D0008C9380E0AA81BB818C9380E0A881B98147
:1011E0008C93AA85BB850C9148E00E947810AC8155
:1011F000BD818C93AA85BB850C9148E00E94781034
:10120000A881B9810C93A881B9818C918F5F8C934F
:10121000A881B981AD90BB24A885B985AA0DBB1D55
:1012200011978C91AA81BB818C93AC81BD819C91DB
:10123000AA81BB810E94D10EA881B9818C918F5F58
:101240008C93A881B981AD90BB24A885B985AA0DDE
:10125000BB1D11978C91AE81BF818C9308E0AC814E
:10126000BD814C91041BAC81BD810C93AC81BD81CF
:101270009C91AE81BF810E94D90EAA81BB810C9145
:10128000AE81BF814C91042BAC85BD850C9384E06D
:10129000481A80E0580A28960895E5EBF5E09CE2AC
:1012A0000AE030E2A3EBB3E00E94A410A2EBB3E0AB
:1012B0002C93A3EBB3E00E948810082F063011F0A6
:1012C0000C94560CE3EBF3E0A0E3B1E00E94521063
:1012D000E0E3F1E0A0E3B1E00E940E0F8FEF809316
:1012E000D801A0E3B1E0E2EEF1E20E94350F0E94E6
:1012F0008E1011F00C94BD0980E08093D801A7E313
:10130000B1E0EAEEF1E20E94350F0E94CB0EAAEEA8
:10131000B1E0EEEAF1E20E94350F0E94CB0EEAEE58
:10132000F1E0A7E3B1E00E94410E0E945210A7E352
:10133000B1E00E94410EEEEFF1E20E94350F0E94F3
:10134000CB0EAAEEB1E0EAECF1E20E94350F0E946A
:10135000CB0EEAEEF1E0A7E3B1E00E94410E0E945D
:101360005210A7E3B1E00E94410EECE0F2E20E94CD
:10137000350F0E94CB0E0C94540CEEE0F2E20E946A
:10138000350F0E948E1011F00C94FC090091B203ED
:10139000023011F00C94F709AEEBB3E00E94DE0FBF
:1013A000A4E1B1E00C9300911401013110F00C9410
:1013B000F20980E08093D801A7E3B1E0E6E1F2E230
:1013C0000E94350F0E94CB0EE4E1F1E0A7E3B1E00B
:1013D0000E94410E0E94990F809114018093440253
:1013E0000C94F50985E08093D8010C94FA0984E007
:1013F0008093D8010C94540CEEE2F2E20E94350F77
:101400000E948E1011F00C944D0A0091B20302302C
:1014100011F00C94480A80E08093D801AEEBB3E061
:101420000E94DE0FA4E2B1E00D931C93A7E3B1E0AC
:10143000E6E3F2E20E94350F0E94CB0EE4E2F1E017
:10144000A7E3B1E00E94410E0E94890FE4E4F2E2BA
:101450000E94350F0E94500E0E94570EA4E2B1E088
:101460008D919C91D2018D939C9382E00E94C50E38
:101470000E940303229682E00E94C10EE8E4F2E299
:101480000E94350F0E94500E0E94570E0C944B0A7A
:1014900084E08093D8010C94540CECE4F2E20E94B6
:1014A000350F0E948E1011F00C94680A80E0809332
:1014B000D80170911D01786070931D01A7E3B1E020
:1014C000E4E5F2E20E94350F0E94CB0E0C94540C1E
:1014D000E8E6F2E20E94350F0E948E1011F00C94A3
:1014E000A30A0091B203023011F00C949E0AAEEBF5
:1014F000B3E00E94DE0FA4E1B1E00C9380E08093A2
:10150000D801809114018093B003E0E0F0E0A0EBFB
:10151000B3E07BE70E945D10A7E3B1E0E0E7F2E211
:101520000E94350F0E94CB0EE0EBF3E0A7E3B1E0A1
:101530000E94410E0E94990F0C94A10A84E08093AE
:10154000D8010C94540CE6E9F2E20E94350F0E9497
:101550008E1011F00C94C10A80E08093D801A7E3AB
:10156000B1E0EEE9F2E20E94350F0E94CB0EE0EB13
:10157000F3E0A7E3B1E00E94410E0E94990F0C94A2
:10158000540CE8EBF2E20E94350F0E948E1011F02D
:101590000C941F0B0091B203023011F00C941A0B43
:1015A000AEEBB3E00E94DE0FA4E1B1E00C9300913A
:1015B0001401083418F011F00C94150B80E080939E
:1015C000D801A4E1B1E0AD90BB24A7EDB2E0AA0C34
:1015D000BB1CAA0DBB1D8D919C91A4E2B1E08D9323
:1015E0009C93A7E3B1E0E0ECF2E20E94350F0E9489
:1015F000CB0EE4E1F1E0A7E3B1E00E94410E0E94CE
:10160000990FA7E3B1E00E94410EE4ECF2E20E94E0
:10161000350F0E94CB0EE4E2F1E0A7E3B1E00E94B7
:10162000410E0E940F100C94180B85E08093D80196
:101630000C941D0B84E08093D8010C94540CE6ECC0
:10164000F2E20E94350F0E948E1011F00C94880B6C
:1016500080E08093D8010091B203033011F00C9424
:10166000830BAEEBB3E00E94DE0FA4E1B1E00C937C
:1016700000911401083418F011F00C947E0B80E0F6
:101680008093D801A9ECB3E00E943810A4E2B1E045
:101690000D931C93A4E2B1E08D919C91A4E1B1E083
:1016A000AD90BB24A7EDB2E0AA0CBB1CAA0DBB1DDC
:1016B0008D939C93A7E3B1E0E0ECF2E20E94350F3A
:1016C0000E94CB0EE4E1F1E0A7E3B1E00E94410EFD
:1016D0000E94990FA7E3B1E00E94410EE4ECF2E210
:1016E0000E94350F0E94CB0EE4E2F1E0A7E3B1E0E7
:1016F0000E94410E0E940F100C94810B85E0809394
:10170000D8010C94860B84E08093D8010C94540C7F
:10171000EEECF2E20E94350F0E948E1011F00C9454
:10172000F10B80E08093D8010091B203033011F0F7
:101730000C94EC0BAEEBB3E00E94DE0FA4E1B1E041
:101740000C9300911401003218F011F00C94E70B87
:1017500080E08093D801A9ECB3E00E943810A4E2A5
:10176000B1E00D931C93A4E2B1E08D919C91A4E1B2
:10177000B1E0AD90BB24ABE6B3E0AA0CBB1CAA0D54
:10178000BB1D8D939C93A7E3B1E0E6EDF2E20E94CE
:10179000350F0E94CB0EE4E1F1E0A7E3B1E00E9437
:1017A000410E0E94990FA7E3B1E00E94410EE4ECC4
:1017B000F2E20E94350F0E94CB0EE4E2F1E0A7E3D3
:1017C000B1E00E94410E0E940F100C94EA0B85E0DC
:1017D0008093D8010C94EF0B84E08093D8010C9493
:1017E000540CEAEDF2E20E94350F0E948E1011F0C7
:1017F0000C940C0C80E08093D80170911D017068EE
:1018000070931D01A7E3B1E0E2EEF2E20E94350F12
:101810000E94CB0E0C94540CECEEF2E20E94350FB9
:101820000E948E1011F00C94510C0091B203023002
:1018300011F00C944C0CAEEBB3E00E94DE0FA4E16F
:10184000B1E00C9300911401023010F00C94470C9D
:1018500080E08093D80100911401013011F00C94C4
:10186000340C419A0C94350C4198A7E3B1E0E4EFB5
:10187000F2E20E94350F0E94CB0EE4E1F1E0A7E313
:10188000B1E00E94410E0E94990F0C944A0C85E031
:101890008093D8010C944F0C84E08093D8010C9471
:1018A000540C81E08093D8010C94590C82E0809311
:1018B000D8010091D801003018F011F00C94620C9E
:1018C0000C94700CEEEEF8E10E94350FA8EDB1E03B
:1018D0008C9199270E94060FA7E3B1E00E94CB0EDE
:1018E000A7E3B1E00E944A0E0E94570E08954F4BA5
:1018F00000436F6D616E646F206E6F207265636F61
:101900006E6F6369646F004C6F6E676974756420F5
:10191000636F6D616E646F206E6F2076616C6964B9
:1019200061004E756D65726F206465207573756119
:1019300072696F206E6F2076616C69646F004E75FE
:101940006D65726F20646520706172616D6574727F
:101950006F7320696E76616C69646F004572726F97
:1019600072206C6F6E676974756420706172616D4E
:101970006574726F2031004572726F72206C6F6EE9
:10198000676974756420706172616D6574726F202F
:101990003200506172616D6574726F206E6F2076D7
:1019A000616C69646F004552524F52380045525283
:1019B0004F522053442E20496E74656E7465206426
:1019C00065206E7565766F00000000000300000062
:1019D00033000000330300003333000033330300CF
:1019E00033C00C00FF0FFF0F5555555533333333BC
:1019F000777777770000FFFFCC00FCFFCC0CFCFF73
:101A0000CCCCFCFF0C00FCFFF0FFFFFF0E94750236
:101A1000A1EBB3E08C9187FB16F00C94160D70913E
:101A2000B1037F777093B1030E944D09ADE1B1E03E
:101A30008C9187FB16F00C94540D70911D017F77EB
:101A400070931D0181E080932301009123010A34EA
:101A500018F011F00C94540DE3E2F1E0A0E8BFE3BC
:101A60000E94990F0E94480EECEFF2E20E94350F9F
:101A70000E94500EE3E2F1E0A190BB24E7EDF2E01A
:101A8000AA0CBB1CEA0DFB1DA0E8BFE30E940F10CF
:101A90000E94480E0E94570EA3E2B1E08C918F5F26
:101AA0008C9310F40C94250DAEEAB3E04D915C914B
:101AB000ABE6B3E00D911C910417150711F40C94DB
:101AC000340EEEEFF2E20E94350F0E94500E0E949B
:101AD000570EABE6B3E08D919C91A6E2B1E08D93F9
:101AE0009C93D201E6E2F1E00E942610D2010E940E
:101AF0004A0E0E94570E81E080932301009123013A
:101B0000003118F011F00C942C0E0091230141E0EB
:101B1000041BA5E1B1E00C9380911501A6E2B1E0B0
:101B20000E94240F0E941A0F0C900822689409F456
:101B3000E894002700F980911501AEEAB3E00E9415
:101B4000240F0E941A0F0C900822689409F4E8945C
:101B5000442740F9041711F40C94240E80911501C8
:101B6000A6E2B1E00E94240F0E941A0F0C900822F6
:101B7000689409F4E89416F00C94F20DEEE0F3E2A8
:101B80000E94350F0E94500EE3E2F1E0A0E8BFE3AF
:101B90000E94990F0E94480E0E94570EE0E2F3E265
:101BA0000E94350F0E94500EE3E2F1E0A0E8BFE38F
:101BB0000E94990F0E94480EECEFF2E20E94350F4E
:101BC0000E94500EEAE2F3E20E94350F0E94500E8E
:101BD000ECE2F3E20E94350F0E94500E0E94570E75
:101BE0000C94240EE0E3F3E20E94350F0E94500EA5
:101BF000E3E2F1E0A0E8BFE30E94990F0E94480EE3
:101C00000E94570EE0E2F3E20E94350F0E94500E50
:101C1000E3E2F1E0A0E8BFE30E94990F0E94480EC2
:101C2000ECEFF2E20E94350F0E94500EE4E4F3E282
:101C30000E94350F0E94500EECE2F3E20E94350F35
:101C40000E94500E0E94570EA3E2B1E08C918F5F6C
:101C50008C9310F40C947E0DABE6B3E08D919C91C7
:101C6000AEEAB3E08D939C930C94080D8C91815057
:101C70008C930895ED91FC91EF5FFF4FFC93EE93F1
:101C800008958F938D918823E9F711978F91089587
:101C9000A0E8BFE38D91882311F00CD0FBCF08950D
:101CA0000E94E10E802D11F005D0FACF08958DE04D
:101CB00001D08AE00090C00005FEFCCF8093C600F2
:101CC00008950AD08D933A95E1F708958091120115
:101CD000882309F081E008957F937FB77F939F93D6
:101CE000AF93BF93809112018823E1F3F894809120
:101CF00012018A958093120190911001A0E0B1E049
:101D0000A90F7727B71F8C919395903109F49927E4
:101D100090931001BF91AF919F917F917FBF7F9171
:101D200008958D9103D03A95E1F708950090C80089
:101D300005FEFCCF8093CE0008953197F1F708950A
:101D4000689462F80895E89462F8089539910FEF65
:101D50001FEF80EA91E00D90002528E08894179508
:101D6000079510F4182709272A95C1F73A9599F78E
:101D7000089501911191219130810895481A590ACD
:101D80000895481A8827580A089599275A924A921E
:101D9000480E591E08950E94E10E0D920020D9F7B9
:101DA0000895903029F08C91880F9A95E9F78C93DB
:101DB0000895903029F08C9186959A95E9F78C9347
:101DC0000895D895319628F48F938BB783958BBF60
:101DD0008F910020089591E005C092E003C094E047
:101DE00001C098E0EEDF0D929A95E1F70895880F13
:101DF000991F880F991FE80FF91F01D0F0CF28F421
:101E00008F938BB783958BBF8F9108950196019720
:101E100021F00E94E10EE9F7FACF0895819104D0F4
:101E20008D938823D9F70895813618F08B3708F4FD
:101E30008F7D089591E0882321F08894991F8A95D9
:101E4000E9F7892F90950895883018F011968850F9
:101E5000FBCF08950F9200240BBE0F9008950F93AF
:101E600001E00BBF0F91889408950F930027F9CFDD
:101E70000F9302E0F6CF7F930F93AF93BF938F93AF
:101E80009F938FB78F93E8948091120100E1081B14
:101E900029F49091CE000E94A00E14C0009111016F
:101EA000A0E0B1E077279091CE00A00FB71F9C93E0
:101EB00068948395809312010395003109F40027FB
:101EC000009311010E944F018F918FBF9F918F91BD
:101ED000BF91AF910F917F9118956FB7F8948827B4
:101EE00093E08D939A95E9F76FBF0895040F151F3E
:101EF000261F371F0895000F111F221F331F08953B
:101F000000951095209530950F5F1F4F2F4F3F4F35
:101F10000895019110810FC00E94B90E0EC00E9459
:101F2000B90E10C00191108117FF05C03FEF2FEFD0
:101F300004C0008111272227332737FF03C0E0DFC9
:101F40008DE28D93CF92DF92EF92AA24BB24CC2412
:101F5000DD24EE2440E2EAE0FF2755E093E38081B0
:101F6000890F87FD9F7083FD907F891B81935A9510
:101F7000A9F7C1DFAA1CBB1CCC1CDD1CEE1C4A95BA
:101F800051F7E894EFE0FF2782910BD0EB30E0F7B8
:101F90001EF068948A2D09D04D93EF90DF90CF907A
:101FA0000895982F829501D0892F8F70805D26F03B
:101FB000803309F4089568948D93089500271127BC
:101FC000222733271DD08A3328F4803318F005D018
:101FD00015D0F9CF0EF494CF089580538F93402FEE
:101FE000512F622F732F87DF86DF80DF84DF8F9191
:101FF0009927080F191F291F391F08958D910895DA
:10200000E894FCDF8032E9F38B32D9F38930C9F3ED
:102010008D3211F46894F2CF089541E003C042E09C
:1020200001C044E0E40F8827F81F8291982F829521
:1020300006D0892F04D04A95C1F70C944F108F70A9
:102040008A3008F0895F805D8D93089542E001C079
:1020500041E0E40F8827F81F829138E098E1880F6B
:10206000991F9D933A95D1F74A95B1F70C944F106B
:1020700000271127222733278D91882379F03BDF12
:102080003ADF39DF38DFD0DE815408F4895F865FBC
:10209000080F8827181F281F381FEECF089588279C
:1020A0008D93089581918D938823E1F70895F9998F
:1020B000FECFE1BDF2BD3196089591E001C092E0FE
:1020C0007B3751F47FB7F894F2DF8D9180BDFA9A97
:1020D000F99A9A95C9F77FBF7727089591E001C0D3
:1020E00092E0E5DFF89A80B58D939A95D1F708953F
:1020F000FF93881BF9E0001FFA9511F4FF910895F2
:10210000881F841B18F4840F8894F5CF0894F3CFAC
:102110008FEF83959D919923E1F70895689401C00D
:10212000E894AF93BF938D9116F0919103C00E94F4
:10213000E10E902D891718F011F48823A1F7BF91B3
:10214000AF910895689401C0E8942227102F2317B7
:1021500009F4089526F40E94E10E802D01C08191BA
:10216000803081F0891741F070E08D931A9591F7D6
:10217000239571E01D93EACF01D0E8CF703011F0C4
:1021800077270895772331F42395882713958D9326
:102190001A95E9F708954D4442475053205254553B
:1021A0002042524944474520323032340000303218
:1021B0002D30372D323032342032313A31343A3307
:1021C0003900302E312E383200004D4442475053F2
:1021D0002E42415300004469725F536C6176653D45
:1021E00000004C4545564657000056657273696FAE
:1021F0006E2046573A204665636861203C003E2CBD
:10220000204172636869766F203C00003E005345B0
:10221000544C45440000536520636F6E66696775D2
:102220007261207365746C656420612000005453F2
:102230005444454C0000546573742044656C6179C6
:1022400020200000494E490046494E00494E49545D
:10225000585000004E756576612074782050657284
:10226000696F64696361000053455444495200003A
:10227000536520636F6E66696775726F206469725B
:10228000656363696F6E206465206573636C617656
:102290006F20612000004C454544495200004469CC
:1022A00072656363696F6E20646520657363616C3A
:1022B000766F2052545520004C454548445200004A
:1022C000484452003D005345544844520000534591
:1022D000544950520000495052004C454552485212
:1022E00000004C6565722048445200005345544735
:1022F00050530000456E616770733D002C004E75B1
:1023000065766120636F6E73756C7461000054654F
:10231000737420656E204573636C61766F200000D6
:10232000245453545354412C000032002C340000E8
:102330004E6F726D616C20656E204573636C6176C3
:062340006F2000003100D7
:00000001FF
