:100000000C94460018950000189500001895000003
:10001000189500001895000018950000189500002C
:10002000189500001895000018950000189500001C
:100030001895000018950000189500000C945901BF
:1000400018950000189500000C949D01189500006B
:100050000C94B70018950000189500001895000042
:1000600018950000189500001895000018950000DC
:100070000C942B101895000018950000189500009E
:100080001895000018950000189500008FEF8DBF9F
:10009000C0E8E8E94E2E80E48EBFD0E4FFE35F2E97
:1000A000A89584B7082E882784BF88E19927809374
:1000B000600090936000EEEFFFE3A0E0B1E08827DE
:1000C0008D933197E9F787E68093C40080E08093B1
:1000D000C50088E18093C10080E08093CD0087E671
:1000E0008093CC0088E18093C9006624209A399AD5
:1000F0004198219A85E085BD80E084BD70916E00B5
:10010000716070936E0085E085BD86E08093CA00C3
:1001100088E18093C9007091C90070687093C9002C
:1001200080E08093800084E0809381008BEE809358
:1001300085008AE88093840070916F0071607093ED
:100140006F0084E080938100229A2A987091C10008
:1001500070687093C1007091C90070687093C90095
:10016000A0E1B1E00E945D1078940C94A70D0F926D
:100170001F922F923F924F925F927F92AF92BF92C7
:100180000F931F932F933F934F935F936F937F939F
:100190008F939F93AF93BF93CF93DF93EF93FF938F
:1001A0008FB78F938BB78F9388278BBFA8EBB5E062
:1001B0008091C6008C9384E2482F0091B805041703
:1001C00011F00C94EE0070911D01716070931D018F
:1001D000A7E1B5E088278C930C9430010D3011F025
:1001E0000C941801ADE1B1E08C9180FB16F00C94F9
:1001F000160170911D017E7F70931D0180E0A7E1C3
:10020000B5E00E94310F8D9388278C93E7E1F5E0EC
:10021000A9EBB5E00E9442117091B503706870932C
:10022000B50370916E00716070936E000C94300194
:100230000F3118F011F00C941F010C943001ADE156
:10024000B1E08C9180FB16F00C943001A8EBB5E086
:100250008C91A7E1B5E00E94310F8D9388278C9394
:100260008F918BBF8F918FBFFF91EF91DF91CF91D6
:10027000BF91AF919F918F917F916F915F914F91BE
:100280003F912F911F910F91BF90AF907F905F9002
:100290004F903F902F901F900F90189508958BEEE0
:1002A000809385008AE88093840084E080938100B5
:1002B00008950F921F922F923F924F925F927F92DA
:1002C000AF92BF920F931F932F933F934F935F93E0
:1002D0006F937F938F939F93AF93BF93CF93DF934E
:1002E000EF93FF938FB78F938BB78F9388278BBF35
:1002F00080918100887F809381000E9491038F917B
:100300008BBF8F918FBFFF91EF91DF91CF91BF9105
:10031000AF919F918F917F916F915F914F913F919D
:100320002F911F910F91BF90AF907F905F904F9052
:100330003F902F901F900F9018950F921F922F9221
:100340003F924F925F927F92AF92BF920F931F9313
:100350002F933F934F935F936F937F938F939F93CD
:10036000AF93BF93CF93DF93EF93FF938FB78F93A9
:100370008BB78F9388278BBF74E676BDAEE3B2E070
:100380008C918F5F8C93AEE3B2E00C9148E00E94B9
:1003900068118C9300913E02003011F00C94100211
:1003A000AFE3B2E00C9140E20E9468118C93EAE066
:1003B000FBE10E942510A4E4B2E08C919927A0E40F
:1003C000B2E00E94E70F80913F02A0E4B2E00E94F9
:1003D00014100E940A100C900822689409F4E89402
:1003E000ADE1B1E08C9185F98C93ADE1B1E08C91F8
:1003F00085FB882780F9809580FBADE1B1E08C9189
:1004000085F98C93ADE1B1E08C9185FBA5E2B0E07C
:100410008C9180F98C93AFE3B2E08C918F5F8C93D9
:10042000ADE1B1E08C9182FB16F00C943202A6E4AF
:10043000B2E00E942A0FA8E4B2E04D915C91A6E4DC
:10044000B2E00D911C910417150711F00C943202C3
:1004500070911D01726070931D0170911D017B7F71
:1004600070931D018F918BBF8F918FBFFF91EF9183
:10047000DF91CF91BF91AF919F918F917F916F91BC
:100480005F914F913F912F911F910F91BF90AF902E
:100490007F905F904F903F902F901F900F901895F6
:1004A00078EB76BDADE1B1E08C9182FB16F00C9457
:1004B0007402A6E4B2E00E942A0FA8E4B2E04D91D3
:1004C0005C91A6E4B2E00D911C910417150711F0A0
:1004D0000C94740270911D01726070931D017091F3
:1004E0001D017B7F70931D010895289881E0809302
:1004F0002201E6E7F3E20E9425100E94400F0E94CD
:10050000470FA0E8BFE3EEE8F3E20E9425100E9447
:10051000BB0F0E94380F0E94470FA0E8BFE3E2EA3A
:10052000F3E20E9425100E94BB0F0E94380F0E9428
:10053000470FA0E8BFE3EAEAF3E20E9425100E9419
:10054000BB0F0E94380F0E94470F81E08093440246
:1005500081E080933D0280E08093CE0280E0809332
:10056000CF0280E08093D00280E08093D10280E0CF
:100570008093D20281E08093AF030091AF030032F9
:1005800018F011F00C94EC02AFEAB3E08C91AFEAF2
:10059000B3E0AD90BB24A7EDB2E0AA0CBB1CAA0D42
:1005A000BB1D8D9388278C93AFEAB3E08C91AFEAA3
:1005B000B3E0AD90BB24ADE6B3E0AA0CBB1CAA0D22
:1005C000BB1D8D9388278C93AFEAB3E08C918F5F2E
:1005D0008C9310F40C94BD02E0E0F0E0A4EBB3E0E7
:1005E0000E945E11E6EBF3E20E9425100E94400F8C
:1005F000E4EBF3E0A0E8BFE30E9489100E94380F0B
:100600000E94470FE1E0F0E0A2EBB3E00E9460112E
:10061000E2ECF3E20E9425100E94400FE2EBF3E0CF
:10062000A0E8BFE30E9479100E94380F0E94470F94
:10063000A2EBB3E00D911C910E3150E0150718F0BC
:1006400011F00C9425030C9432038AE090E0A2EBA5
:10065000B3E08D939C93E1E0F0E0A2EBB3E07BE7A5
:100660000E944F11A2EBB3E08D919C91ADE6B3E0F7
:100670008D939C930895A881B9818D919C91A8E454
:10068000B2E08D939C9380E090E0A6E4B2E08D937D
:100690009C9370911D017D7F70931D0170911D01D0
:1006A000746070931D01ADE1B1E08C9181FB16F493
:1006B0000C945D03A8950C945303089582E00E9466
:1006C000B50FABE4B2E08C9180588C9383E08A93B1
:1006D000AAE4B2E00E94960FA881B9810D931C9301
:1006E000A881B9818C91ADE4B2E08C93A881B981E5
:1006F00011968C91AEE4B2E08C932A9A35E0AAE48C
:10070000B2E00E94810F7091C80076FFFCCF706448
:100710007093C8002A9882E0481A80E0580A22960E
:10072000089581E00E94B50F81E00E94B50F81E03D
:100730000E94B50F81E00E94B50F81E00E94B50FC5
:1007400082E00E94B50F82E00E94B50F82E00E9415
:10075000B50F81E00E94B50F81E00E94B50F81E0E6
:100760000E94B50F82E00E94B50F80E0AE89BF897C
:100770008C930E94560F082F013011F00C94D8036F
:10078000AE89BF898C918F5F8C9331E0A889B9893C
:100790000E94510FA889B9898C91AE89BF89AD900B
:1007A000BB24A9E4B2E0AA0DBB1D8C930C94B90341
:1007B000AE89BF890C91003080E010F009F081E033
:1007C0008F934091B40300914A02041781E009F02D
:1007D00080E09F918923882311F40C94C508AE8989
:1007E000BF890C9141E0041BA889B9890C93AE899B
:1007F000BF89AD90BB24A9E4B2E0AA0DBB1D9C91BA
:10080000A889B989AD90BB24A9E4B2E0AA0DBB1DAB
:100810008C91AA85BB858D939C93A889B9890E94E8
:10082000260FA889B9898C918A93AAE4B2E00E9424
:10083000960F402F512FAA85BB850D911C9104174F
:10084000150711F00C94C50890914C0280914D024F
:10085000AAECB2E08D939C9390914E0280914F024E
:10086000ACECB2E08D939C93AAECB2E00D911C919C
:10087000ACECB2E04D915C91040F151FA885B985D1
:100880000D931C9380E0AA89BB898C9300914B0245
:10089000013011F00C946204A885B9850D911C916A
:1008A000023050E0150718F011F00C9459040C9424
:1008B000600482E080934C0281E0AA89BB898C931A
:1008C0000C941F05023011F00C947C04A885B985A6
:1008D0000D911C91003150E0150718F011F00C94A7
:1008E00073040C947A0482E080934C0281E0AA891C
:1008F000BB898C930C941F05033011F00C94960463
:10090000AAECB2E00D911C910C3450E0150718F0E0
:1009100011F00C948D040C94940482E080934C02AA
:1009200081E0AA89BB898C930C941F05043011F0D7
:100930000C94B004AAECB2E00D911C91073150E088
:10094000150718F011F00C94A7040C94AE0482E083
:1009500080934C0281E0AA89BB898C930C941F057B
:10096000053011F00C94CA04AAECB2E00D911C9170
:10097000023050E0150718F011F00C94C1040C94EB
:10098000C80482E080934C0281E0AA89BB898C93E1
:100990000C941F050F3011F00C94E404A885B98560
:1009A0000D911C91023050E0150718F011F00C94D5
:1009B000DB040C94E20482E080934C0281E0AA897B
:1009C000BB898C930C941F05063011F00C94FE0427
:1009D000AAECB2E00D911C910C3450E0150718F010
:1009E00011F00C94F5040C94FC0482E080934C020A
:1009F00081E0AA89BB898C930C941F05013411F006
:100A00000C941805AAECB2E00D911C91073050E04F
:100A1000150718F011F00C940F050C94160582E0E0
:100A200080934C0281E0AA89BB898C930C941F05AA
:100A300081E080934C0281E0AA89BB898C93AA89CA
:100A4000BB890C91013011F00C942B050E945E03C0
:100A500080E080934B0200914B02013081E008F46A
:100A600080E08F9300914B02023081E010F009F09A
:100A700080E09F918923882311F40C9456060091FD
:100A80004B02023011F00C9447050E94CB080091F4
:100A9000CC0248E00E946811AE81BF810C930091A6
:100AA000CC0248E00E946811A889B9898C93A88972
:100AB000B9890C91003018F011F00C9461050C9478
:100AC0006605AE81BF818C918F5F8C9380E0AE898B
:100AD000BF898C93AAECB2E08D919C91AC85BD85C9
:100AE0008D939C93A885B9854D915C91AC85BD850E
:100AF0000D911C910417150718F011F00C94ED05D9
:100B0000AE89BF898C918F5F8C93AE81BF814C91F0
:100B1000AE89BF890C91041718F011F00C9492055E
:100B20000C94980580E0AA81BB818C930C94D40529
:100B300000914B02013011F00C94B805AA81BB81E1
:100B4000BA93AA93AE85BF858D919C91D2018D9366
:100B50009C9382E00E94B50FAEECB2E0BA93AA93E8
:100B60000E940D09269682E00E94B10F0C94D405D4
:100B7000023011F00C94D405AA81BB81BA93AA93D8
:100B8000AE85BF858D919C91D2018D939C9382E01F
:100B90000E94B50FA3EDB2E0BA93AA930E940D098B
:100BA000269682E00E94B10FAA81BB818C91AE890A
:100BB000BF89AD90BB24ACE4B2E0AA0DBB1D8C9301
:100BC000AC85BD850D911C91085F1F4FAC85BD851F
:100BD0000D931C9310F40C947205AE81BF818C911F
:100BE00080934C0203E0AE81BF814C91040FAE892B
:100BF000BF890C93AE89BF898C918A93AAE4B2E035
:100C00000E94960FAA85BB850D931C93AE89BF8960
:100C10008C918F5F8C93AA85BB858C91AE89BF899F
:100C2000AD90BB24A9E4B2E0AA0DBB1D8C93AE89A4
:100C3000BF898C918F5F8C93AA85BB8511968C910F
:100C4000AE89BF89AD90BB24A9E4B2E0AA0DBB1D5B
:100C50008C9381E0A889B9898C93AE89BF894C9126
:100C6000A889B9890C91041718F011F00C94540656
:100C70002A9A31E0A889B989AD90BB24A9E4B2E0F1
:100C8000AA0DBB1D0E94810F7091C80076FFFCCF9A
:100C900070647093C8002A98A889B9898C918F5F75
:100CA0008C9310F40C942D060C94C50800914B0203
:100CB000033081E008F480E08F9300914B02043010
:100CC00081E010F009F080E09F918923882311F4DE
:100CD0000C946E078091CC02AC81BD818C9380E036
:100CE000AC89BD898C93AAECB2E00E942A0FA8853A
:100CF000B9850E942A0FAAECB2E08D919C91AC8537
:100D0000BD858D939C93A885B9854D915C91AC85EB
:100D1000BD850D911C910417150718F011F00C9466
:100D2000FD06AC89BD898C918F5F8C93AC81BD81B0
:100D30004C91AC89BD890C91041718F011F00C94FA
:100D4000A3060C94AB0680E090E0A881B9818D9356
:100D50009C930C94D70600914B02033011F00C9435
:100D6000C306AC85BD85AD90BD90A7EDB2E0AA0CE1
:100D7000BB1CAA0DBB1D8D919C91A881B9818D933F
:100D80009C930C94D706043011F00C94D706AC85D4
:100D9000BD85AD90BD90ADE6B3E0AA0CBB1CAA0D1D
:100DA000BB1D8D919C91A881B9818D939C93A88145
:100DB000B98111968C91A889B9898C93A881B98140
:100DC0008C91AE85BF858C93AE85BF859C91A8899B
:100DD000B9898C91AC89BD89AD90BB24ABE4B2E0FC
:100DE000AA0CBB1CAA0DBB1D8D939C93AC85BD8525
:100DF0000E942A0F10F40C948306AC81BD810C91E3
:100E000042E0049FACE4B2E00C9280914C02AE89C7
:100E1000BF898C9303E0AE89BF894C91040FAE89E2
:100E2000BF890C93AE89BF898C918A93AAE4B2E002
:100E30000E94960FAA85BB850D931C93AE89BF892E
:100E40008C918F5F8C93AA85BB858C91AE89BF896D
:100E5000AD90BB24A9E4B2E0AA0DBB1D8C93AE8972
:100E6000BF898C918F5F8C93AA85BB8511968C91DD
:100E7000AE89BF89AD90BB24A9E4B2E0AA0DBB1D29
:100E80008C9381E0A889B9898C93AE89BF894C91F4
:100E9000A889B9890C91041718F011F00C946C070B
:100EA0002A9A31E0A889B989AD90BB24A9E4B2E0BF
:100EB000AA0DBB1D0E94810F7091C80076FFFCCF68
:100EC00070647093C8002A98A889B9898C918F5F43
:100ED0008C9310F40C9445070C94C508053011F060
:100EE0000C94D10700914E020F3F11F00C949E0715
:100EF000AAECB2E08D919C91D2018D939C9382E0FB
:100F00000E94B50F81E0D2018C9381E00E94B50F61
:100F10000E94F008249683E00E94B10F2A9A38E0DC
:100F2000AAE4B2E00E94810F7091C80076FFFCCF66
:100F300070647093C8002A980C94CF0700914E02F9
:100F4000003011F00C94CA07AAECB2E08D919C918C
:100F5000D2018D939C9382E00E94B50F80E0D20174
:100F60008C9381E00E94B50F0E94F008249683E0E4
:100F70000E94B10F2A9A38E0AAE4B2E00E94810FE1
:100F80007091C80076FFFCCF70647093C8002A98F7
:100F90000C94CF0783E080934C020E945E030C9474
:100FA000C5080F3011F00C946E08AAECB2E08D91D8
:100FB0009C91AC85BD858D939C9381E0AE89BF8962
:100FC0008C9340915002AE89BF890C91041718F0A0
:100FD00011F00C94470880E0A889B9898C93A889FE
:100FE000B9890C91073018F011F00C943F08A885CE
:100FF000B9854D915C91AC85BD850D911C9104170F
:10100000150710F00C943508AC85BD858D919C9129
:10101000D2018D939C9382E00E94B50FAA89BB896F
:101020008C91A88DB98DAD90BB24A0E5B2E0AA0D3E
:10103000BB1D0E9414100E940A100C900822689494
:1010400009F4E894D201882780F98C9381E00E940A
:10105000B50F0E94F008249683E00E94B10FAC8582
:10106000BD850E942A0F0C9437080C943F08A8896C
:10107000B9898C918F5F8C9310F40C94EF07AE8933
:10108000BF898C918F5F8C9310F40C94E10786E0FC
:101090008A93AAE4B2E00E94960FAA85BB850D93BD
:1010A0001C93AA85BB858C91A0E5B2E08C93AA85A0
:1010B000BB8511968C91A1E5B2E08C932A9A38E019
:1010C000AAE4B2E00E94810F7091C80076FFFCCFC5
:1010D00070647093C8002A980C94C508063011F00B
:1010E0000C949608AAECB2E00E942A0F90914E024E
:1010F00080914F02AAECB2E0AD90BD90A7EDB2E0B6
:10110000AA0CBB1CAA0DBB1D8D939C932A9A38E098
:10111000AAE4B2E00E94810F7091C80076FFFCCF74
:1011200070647093C8002A980C94C508013411F0BB
:101130000C94C50880E080934C0280E080934D02BF
:1011400084E08A93AAE4B2E00E94960FAA85BB8548
:101150000D931C93AA85BB858C91AEE4B2E08C9371
:10116000AA85BB8511968C91AFE4B2E08C932A9A44
:1011700036E0AAE4B2E00E94810F7091C80076FFC9
:10118000FCCF70647093C8002A9880E1481A80E010
:10119000580A68960895A9E2B0E08C9184FBA3ED0B
:1011A000B2E08C9180F98C93A9E2B0E08C9185FB40
:1011B000A3EDB2E08C9181F98C93A9E2B0E08C911F
:1011C00086FBA3EDB2E08C9182F98C93A9E2B0E0AA
:1011D0008C9187FBA3EDB2E08C9183F98C930895F9
:1011E000AA81BB810D911C91003050E0150711F0D0
:1011F0000C940C09A881B9818C9180FBA5E2B0E028
:101200008C9181F98C93A881B9818C9180FBAEEC93
:10121000B2E08C9180F98C93089581E00E94B50F23
:1012200081E00E94B50F81E00E94B50F81E00E942D
:10123000B50F80E0AE81BF818C9380E0AC81BD8131
:101240008C9380E0AA81BB818C9380E0A881B981D6
:101250008C93AA85BB850C9148E00E946811AC81F3
:10126000BD818C93AA85BB850C9148E00E946811D2
:10127000A881B9810C93A881B9818C918F5F8C93DF
:10128000A881B981AD90BB24A885B985AA0DBB1DE5
:1012900011978C91AA81BB818C93AC81BD819C916B
:1012A000AA81BB810E94C10FA881B9818C918F5FF7
:1012B0008C93A881B981AD90BB24A885B985AA0D6E
:1012C000BB1D11978C91AE81BF818C9308E0AC81DE
:1012D000BD814C91041BAC81BD810C93AC81BD815F
:1012E0009C91AE81BF810E94C90FAA81BB810C91E4
:1012F000AE81BF814C91042BAC85BD850C9384E0FD
:10130000481A80E0580A28960895E9EBF5E09CE237
:101310000AE030E2A7EBB3E00E949411A6EBB3E041
:101320002C93A7EBB3E00E947811082F063011F040
:101330000C94F70CE7EBF3E0A0E3B1E00E9442115C
:10134000E0E3F1E0A0E3B1E00E94FE0F8FEF8093B5
:10135000D801A0E3B1E0ECECF3E20E9425100E947A
:101360007E1111F00C94F50980E08093D801A7E379
:10137000B1E0E4EDF3E20E9425100E94BB0FAAEE5B
:10138000B1E0E8EEF3E20E9425100E94BB0FEAEE06
:10139000F1E0A7E3B1E00E94310F0E944211A7E300
:1013A000B1E00E94310FECEFF3E20E9425100E94A1
:1013B000BB0FAAEEB1E0EAEAF3E20E9425100E9418
:1013C000BB0FEAEEF1E0A7E3B1E00E94310F0E940B
:1013D0004211A7E3B1E00E94310FEAE0F4E20E947B
:1013E00025100E94BB0F0C94F50CECE0F4E20E9477
:1013F00025100E947E1111F00C94340A0091B6035E
:10140000023011F00C942F0AA2ECB3E00E94CE102F
:10141000A4E1B1E00C9300911401013110F00C949F
:101420002A0A80E08093D801A7E3B1E0E4E1F4E286
:101430000E9425100E94BB0FE4E1F1E0A7E3B1E0B8
:101440000E94310F0E948910809114018093440200
:101450000C942D0A85E08093D8010C94320A84E024
:101460008093D8010C94F50CECE2F4E20E94251074
:101470000E947E1111F00C94850A0091B60302308F
:1014800011F00C94800A80E08093D801A2ECB3E0C4
:101490000E94CE10A4E2B1E00D931C93A7E3B1E04B
:1014A000E4E3F4E20E9425100E94BB0FE4E2F1E0C5
:1014B000A7E3B1E00E94310F0E947910E2E4F4E268
:1014C0000E9425100E94400F0E94470FA4E2B1E045
:1014D0008D919C91D2018D939C9382E00E94B50FD7
:1014E0000E943B03229682E00E94B10FE6E4F4E200
:1014F0000E9425100E94400F0E94470F0C94830AFF
:1015000084E08093D8010C94F50CEAE4F4E20E94A4
:1015100025100E947E1111F00C94A00A80E08093A7
:10152000D80170911D01786070931D01A7E3B1E0AF
:10153000E2E5F4E20E9425100E94BB0F0C94F50C2A
:10154000E6E6F4E20E9425100E947E1111F00C9450
:10155000DB0A0091B603023011F00C94D60AA2EC1B
:10156000B3E00E94CE10A4E1B1E00C9380E0809340
:10157000D801809114018093B403E0E0F0E0A4EB83
:10158000B3E07BE70E944D11A7E3B1E0EEE6F4E2A1
:101590000E9425100E94BB0FE4EBF3E0A7E3B1E04B
:1015A0000E94310F0E9489100C94D90A84E0809324
:1015B000D8010C94F50CE4E9F4E20E9425100E9495
:1015C0007E1111F00C94F90A80E08093D801A7E312
:1015D000B1E0ECE9F4E20E9425100E94BB0FE4EBBD
:1015E000F3E0A7E3B1E00E94310F0E9489100C9450
:1015F000F50CE6EBF4E20E9425100E947E1111F03A
:101600000C94570B0091B603023011F00C94520B5E
:10161000A2ECB3E00E94CE10A4E1B1E00C930091E3
:101620001401083418F011F00C944D0B80E08093F5
:10163000D801A4E1B1E0AD90BB24A7EDB2E0AA0CC3
:10164000BB1CAA0DBB1D8D919C91A4E2B1E08D93B2
:101650009C93A7E3B1E0EEEBF4E20E9425100E9418
:10166000BB0FE4E1F1E0A7E3B1E00E94310F0E947B
:101670008910A7E3B1E00E94310FE2ECF4E20E948E
:1016800025100E94BB0FE4E2F1E0A7E3B1E00E9465
:10169000310F0E94FF100C94500B85E08093D8010D
:1016A0000C94550B84E08093D8010C94F50CE4EC79
:1016B000F4E20E9425100E947E1111F00C94C00BE0
:1016C00080E08093D8010091B603033011F00C94B0
:1016D000BB0BA2ECB3E00E94CE10A4E1B1E00C93EE
:1016E00000911401083418F011F00C94B60B80E04E
:1016F0008093D801ADECB3E00E942811A4E2B1E0E0
:101700000D931C93A4E2B1E08D919C91A4E1B1E012
:10171000AD90BB24A7EDB2E0AA0CBB1CAA0DBB1D6B
:101720008D939C93A7E3B1E0EEEBF4E20E942510C9
:101730000E94BB0FE4E1F1E0A7E3B1E00E94310FAA
:101740000E948910A7E3B1E00E94310FE2ECF4E2BD
:101750000E9425100E94BB0FE4E2F1E0A7E3B1E094
:101760000E94310F0E94FF100C94B90B85E080930A
:10177000D8010C94BE0B84E08093D8010C94F50C36
:10178000ECECF4E20E9425100E947E1111F00C9402
:10179000290C80E08093D8010091B603033011F04A
:1017A0000C94240CA2ECB3E00E94CE10A4E1B1E0B2
:1017B0000C9300911401003218F011F00C941F0CDE
:1017C00080E08093D801ADECB3E00E942811A4E240
:1017D000B1E00D931C93A4E2B1E08D919C91A4E142
:1017E000B1E0AD90BB24ADE6B3E0AA0CBB1CAA0DE2
:1017F000BB1D8D939C93A7E3B1E0E4EDF4E20E945E
:1018000025100E94BB0FE4E1F1E0A7E3B1E00E94E4
:10181000310F0E948910A7E3B1E00E94310FE2EC82
:10182000F4E20E9425100E94BB0FE4E2F1E0A7E37E
:10183000B1E00E94310F0E94FF100C94220C85E051
:101840008093D8010C94270C84E08093D8010C94E9
:10185000F50CE8EDF4E20E9425100E947E1111F0D3
:101860000C94440C80E08093D80170911D01706845
:1018700070931D01A7E3B1E0E0EEF4E20E942510B1
:101880000E94BB0F0C94F50CEAEEF4E20E942510C6
:101890000E947E1111F00C94890C0091B603023065
:1018A00011F00C94840CA2ECB3E00E94CE10A4E1E1
:1018B000B1E00C9300911401023010F00C947F0CF5
:1018C00080E08093D80100911401013011F00C9454
:1018D0006C0C419A0C946D0C4198A7E3B1E0E2EFD7
:1018E000F4E20E9425100E94BB0FE4E1F1E0A7E3BF
:1018F000B1E00E94310F0E9489100C94820C85E0A7
:101900008093D8010C94870C84E08093D8010C94C8
:10191000F50CEAEFF4E20E9425100E947E1111F00E
:101920000C94A70C80E08093D801A7E3B1E0E2EC2F
:10193000F3E20E9425100E94BB0FE2EBF3E0A7E365
:10194000B1E00E94310F0E9479100C94F50CE2E096
:10195000F5E20E9425100E947E1111F00C94F20C09
:101960000091B603023011F00C94ED0C80E08093EE
:10197000D801A2ECB3E00E94CE10A2EBB3E00D932D
:101980001C93A2EBB3E00D911C910E3150E01507B2
:1019900018F011F00C94CE0C0C94D40C8DE190E066
:1019A000A2EBB3E08D939C93E1E0F0E0A2EBB3E017
:1019B0007BE70E944F11A7E3B1E0EAE0F5E20E9465
:1019C00025100E94BB0FE2EBF3E0A7E3B1E00E9419
:1019D000310F0E9479100C94F00C84E08093D801B0
:1019E0000C94F50C81E08093D8010C94FA0C82E001
:1019F0008093D8010091D801003018F011F00C94B8
:101A0000030D0C94110DE0E3FAE10E942510A8EDFE
:101A1000B1E08C9199270E94F60FA7E3B1E00E94F4
:101A2000BB0FA7E3B1E00E943A0F0E94470F089551
:101A30004F4B00436F6D616E646F206E6F20726557
:101A4000636F6E6F6369646F004C6F6E6769747566
:101A50006420636F6D616E646F206E6F2076616CC1
:101A6000696461004E756D65726F206465207573E1
:101A7000756172696F206E6F2076616C69646F00AA
:101A80004E756D65726F20646520706172616D6561
:101A900074726F7320696E76616C69646F00457251
:101AA000726F72206C6F6E676974756420706172FA
:101AB000616D6574726F2031004572726F72206CB7
:101AC0006F6E676974756420706172616D657472A0
:101AD0006F203200506172616D6574726F206E6F9D
:101AE0002076616C69646F004552524F5238004550
:101AF00052524F522053442E20496E74656E7465C5
:101B0000206465206E7565766F000000000003009C
:101B10000000330000003303000033330000333390
:101B2000030033C00C00FF0FFF0F555555553333DD
:101B30003333777777770000FFFFCC00FCFFCC0CC6
:101B4000FCFFCCCCFCFF0C00FCFFF0FFFFFF0E9471
:101B50007502A5EBB3E08C9187FB16F00C94B70DE2
:101B60007091B5037F777093B5030E948509ADE14D
:101B7000B1E08C9187FB16F00C94F50D70911D016E
:101B80007F7770931D0181E08093230100912301F1
:101B90000B3418F011F00C94F50DE3E2F1E0A0E83D
:101BA000BFE30E9489100E94380FEAE1F5E20E942B
:101BB00025100E94400FE3E2F1E0A190BB24E7ED85
:101BC000F2E0AA0CBB1CEA0DFB1DA0E8BFE30E94DB
:101BD000FF100E94380F0E94470FA3E2B1E08C91E2
:101BE0008F5F8C9310F40C94C60DA0EBB3E04D9175
:101BF0005C91ABE6B3E00D911C910417150711F44D
:101C00000C94E50EECE1F5E20E9425100E94400FD5
:101C10000E94470FABE6B3E08D919C91A6E2B1E044
:101C20008D939C93D201E6E2F1E00E941611D2015D
:101C30000E943A0F0E94470F81E080932301009198
:101C40002301003118F011F00C94DD0E00912301F6
:101C500041E0041BA5E1B1E00C9380911501A6E2DF
:101C6000B1E00E9414100E940A100C90082268949F
:101C700009F4E894002700F980911501A0EBB3E086
:101C80000E9414100E940A100C900822689409F413
:101C9000E894442740F9041711F40C94D50E809170
:101CA0001501A6E2B1E00E9414100E940A100C90E7
:101CB0000822689409F4E89416F00C949B0EECE268
:101CC000F5E20E9425100E94400FE3E2F1E0A0E857
:101CD000BFE30E9489100E94380F0E94470FEEE375
:101CE000F5E20E9425100E94400FE3E2F1E0A0E837
:101CF000BFE30E9489100E94380FEAE1F5E20E94DA
:101D000025100E94400FE8E4F5E20E9425100E9491
:101D1000400FEAE1F5E20E9425100E94400FE2EB3D
:101D2000F3E0A0E8BFE30E9479100E94380F0E9400
:101D3000470F0C94D50EEAE4F5E20E9425100E94AC
:101D4000400FE3E2F1E0A0E8BFE30E9489100E94A7
:101D5000380F0E94470FEEE3F5E20E9425100E9423
:101D6000400FE3E2F1E0A0E8BFE30E9489100E9487
:101D7000380FEAE1F5E20E9425100E94400FEEE5DF
:101D8000F5E20E9425100E94400FEAE1F5E20E9470
:101D900025100E94400FE2EBF3E0A0E8BFE30E94B1
:101DA00079100E94380F0E94470FA3E2B1E08C9196
:101DB0008F5F8C9310F40C941F0EABE6B3E08D9103
:101DC0009C91A0EBB3E08D939C93A2EBB3E04D917B
:101DD0005C91ADE6B3E00D911C910417150711F469
:101DE0000C94240FADE6B3E08D919C91A2EBB3E08F
:101DF0008D939C93E0E6F5E20E9425100E94400F2F
:101E0000E2EBF3E0A0E8BFE30E9479100E94380FF4
:101E10000E94470FA2EBB3E00D911C910E3150E0F0
:101E2000150718F011F00C94170F0C941D0F8DE18D
:101E300090E0A2EBB3E08D939C93E1E0F0E0A2EBA5
:101E4000B3E07BE70E944F110C94A90D8C91815057
:101E50008C930895ED91FC91EF5FFF4FFC93EE930F
:101E600008958F938D918823E9F711978F910895A5
:101E7000A0E8BFE38D91882311F00CD0FBCF08952B
:101E80000E94D10F802D11F005D0FACF08958DE07A
:101E900001D08AE00090C00005FEFCCF8093C60010
:101EA00008950AD08D933A95E1F708958091120133
:101EB000882309F081E008957F937FB77F939F93F4
:101EC000AF93BF93809112018823E1F3F89480913E
:101ED00012018A958093120190911001A0E0B1E067
:101EE000A90F7727B71F8C919395903109F4992703
:101EF00090931001BF91AF919F917F917FBF7F9190
:101F000008958D9103D03A95E1F708950090C800A7
:101F100005FEFCCF8093CE0008953197F1F7089528
:101F2000689462F80895E89462F8089539910FEF83
:101F30001FEF80EA91E00D90002528E08894179526
:101F4000079510F4182709272A95C1F73A9599F7AC
:101F5000089501911191219130810895481A590AEB
:101F60000895481A8827580A089599275A924A923C
:101F7000480E591E08950E94D10F0D920020D9F7E6
:101F80000895903029F08C91880F9A95E9F78C93F9
:101F90000895903029F08C9186959A95E9F78C9365
:101FA0000895D895319628F48F938BB783958BBF7E
:101FB0008F910020089591E005C092E003C094E065
:101FC00001C098E0EEDF0D929A95E1F70895880F31
:101FD000991F880F991FE80FF91F01D0F0CF28F43F
:101FE0008F938BB783958BBF8F910895019601973F
:101FF00021F00E94D10FE9F7FACF0895819104D022
:102000008D938823D9F70895813618F08B3708F41B
:102010008F7D089591E0882321F08894991F8A95F7
:10202000E9F7892F90950895883018F01196885017
:10203000FBCF08950F9200240BBE0F9008950F93CD
:1020400001E00BBF0F91889408950F930027F9CFFB
:102050000F9302E0F6CF7F930F93AF93BF938F93CD
:102060009F938FB78F93E8948091120100E1081B32
:1020700029F49091CE000E94900F14C0009111019C
:10208000A0E0B1E077279091CE00A00FB71F9C93FE
:1020900068948395809312010395003109F4002719
:1020A000009311010E944F018F918FBF9F918F91DB
:1020B000BF91AF910F917F9118956FB7F8948827D2
:1020C00093E08D939A95E9F76FBF0895040F151F5C
:1020D000261F371F0895000F111F221F331F089559
:1020E00000951095209530950F5F1F4F2F4F3F4F54
:1020F0000895019110810FC00E94A90F0EC00E9487
:10210000A90F10C00191108117FF05C03FEF2FEFFD
:1021100004C0008111272227332737FF03C0E0DFE7
:102120008DE28D93CF92DF92EF92AA24BB24CC2430
:10213000DD24EE2440E2EAE0FF2755E093E38081CE
:10214000890F87FD9F7083FD907F891B81935A952E
:10215000A9F7C1DFAA1CBB1CCC1CDD1CEE1C4A95D8
:1021600051F7E894EFE0FF2782910BD0EB30E0F7D6
:102170001EF068948A2D09D04D93EF90DF90CF9098
:102180000895982F829501D0892F8F70805D26F059
:10219000803309F4089568948D93089500271127DA
:1021A000222733271DD08A3328F4803318F005D036
:1021B00015D0F9CF0EF494CF089580538F93402F0C
:1021C000512F622F732F87DF86DF80DF84DF8F91AF
:1021D0009927080F191F291F391F08958D910895F8
:1021E000E894FCDF8032E9F38B32D9F38930C9F30C
:1021F0008D3211F46894F2CF089541E003C042E0BB
:1022000001C044E0E40F8827F81F8291982F82953F
:1022100006D0892F04D04A95C1F70C943F118F70D6
:102220008A3008F0895F805D8D93089542E001C097
:1022300041E0E40F8827F81F829138E098E1880F89
:10224000991F9D933A95D1F74A95B1F70C943F1198
:1022500000271127222733278D91882379F03BDF30
:102260003ADF39DF38DFD0DE815408F4895F865FDA
:10227000080F8827181F281F381FEECF08958827BA
:102280008D93089581918D938823E1F70895F999AD
:10229000FECFE1BDF2BD3196089591E001C092E01C
:1022A0007B3751F47FB7F894F2DF8D9180BDFA9AB5
:1022B000F99A9A95C9F77FBF7727089591E001C0F1
:1022C00092E0E5DFF89A80B58D939A95D1F708955D
:1022D000FF93881BF9E0001FFA9511F4FF91089510
:1022E000881F841B18F4840F8894F5CF0894F3CFCB
:1022F0008FEF83959D919923E1F70895689401C02C
:10230000E894AF93BF938D9116F0919103C00E9412
:10231000D10F902D891718F011F48823A1F7BF91E0
:10232000AF910895689401C0E8942227102F2317D5
:1023300009F4089526F40E94D10F802D01C08191E7
:10234000803081F0891741F070E08D931A9591F7F4
:10235000239571E01D93EACF01D0E8CF703011F0E2
:1023600077270895772331F42395882713958D9344
:102370001A95E9F708954D44424750532052545559
:102380002042524944474520323032340000323432
:102390002D30372D323032342031353A30303A302A
:1023A0003500302E312E393100004D444247505314
:1023B0002E42415300004469725F536C6176653D63
:1023C0000000566F6C756D656E3D00004C454556BE
:1023D0004657000056657273696F6E2046573A2063
:1023E0004665636861203C0032342D30372D323031
:1023F00032342031353A30303A3036003E2C2041EC
:1024000072636869766F203C00003E005345544C6F
:1024100045440000536520636F6E6669677572619D
:10242000207365746C65642061200000545354442B
:10243000454C0000546573742044656C617920201C
:102440000000494E490046494E00494E49545850F3
:1024500000004E7565766120747820506572696F52
:102460006469636100005345544449520000536558
:1024700020636F6E66696775726F20646972656349
:1024800063696F6E206465206573636C61766F208D
:10249000612000004C454544495200004469726582
:1024A0006363696F6E20646520657363616C766F2A
:1024B0002052545520004C454548445200004844A1
:1024C00052003D005345544844520000534554497E
:1024D00050520000495052004C45455248520000AD
:1024E0004C65657220484452000053455447505390
:1024F0000000456E616770733D004C4545564F4C7A
:102500000000534554564F4C0000536520636F6ED6
:1025100066696720564F4C3D00002C004E7565766D
:102520006120636F6E73756C746100005465737421
:1025300020656E204573636C61766F200000245423
:1025400053545354412C000032004E6F726D616C35
:1025500020656E204573636C61766F20000031004A
:0E2560004E7565766F20566F6C756D656E005A
:00000001FF
