:100000000C94460018950000189500001895000003
:10001000189500001895000018950000189500002C
:100020001895000018950000189500000C94713781
:10003000189500001895000018950000189500000C
:1000400018950000189500000C94280218950000DF
:100050000C94D30018950000189500001895000026
:1000600018950000189500001895000018950000DC
:100070000C946F0118950000189500001895000069
:100080001895000018950000189500008FEF8DBF9F
:10009000C0E8E8E94E2E80E48EBFD0E4FFE35F2E97
:1000A000A89584B7082E882784BF88E19927809374
:1000B000600090936000EEEFFFE3A0E0B1E08827DE
:1000C0008D933197E9F787E78093C40080E08093B0
:1000D000C50088E18093C10080E08093CD0087E770
:1000E0008093CC0088E18093C9000E945A2766243F
:1000F0003B9A54985598569857985C9A5D9A5E9A90
:100100005F9A3A9A209A219A239A229A089A099AEF
:100110000A9A0B9A85E085BD80E084BD70916E00DF
:10012000716070936E0085E085BD80E28093B600BB
:1001300085E08093B10070917000716070937000E1
:1001400070E27093B60070E07093B00075E0709349
:10015000B10070E07093B200A6E0B1E0ECE1F7E727
:100160000E9456370E946F360E944629AFE0B1E0E8
:10017000E6E2F7E70E9456370E946F360E944C294C
:100180007091C10070687093C1007894249A2C9A81
:10019000249A2C9A0E942E280E94F92AAAE1B1E002
:1001A0009C930C9406230F921F922F923F924F9292
:1001B0005F927F92AF92BF920F931F932F933F93C3
:1001C0004F935F936F937F938F939F93AF93BF935F
:1001D000CF93DF93EF93FF938FB78F938BB78F936B
:1001E00088278BBFABE9B2E18091C6008C937091F8
:1001F0006E007E7F70936E0084E2482F00919B1208
:10020000041711F00C940F017091CF0E7860709369
:10021000CF0EABE9B1E188278C930C9451010D30DE
:1002200011F00C943901AFECBEE08C9183FB16F019
:100230000C9437017091CF0E777F7093CF0E80E0D2
:10024000ABE9B1E10E9418278D9388278C93EBE9E5
:10025000F1E1ACE9B2E10E942C397091CF0E7460EB
:100260007093CF0E70916E00716070936E000C945D
:1002700051010F3118F011F00C9440010C94510110
:10028000AFECBEE08C9183FB16F00C945101ABE90E
:10029000B2E18C91ABE9B1E10E9418278D938827D8
:1002A0008C938F918BBF8F918FBFFF91EF91DF91D7
:1002B000CF91BF91AF919F918F917F916F915F91FE
:1002C0004F913F912F911F910F91BF90AF907F90D1
:1002D0005F904F903F902F901F900F9018950F9226
:1002E0001F922F923F924F925F927F92AF92BF9256
:1002F0000F931F932F933F934F935F936F937F932E
:100300008F939F93AF93BF93CF93DF93EF93FF931D
:100310008FB78F938BB78F9388278BBFA5E6B4E1F8
:100320008091CE008C9384E2482F009165140417CD
:1003300011F00C94A6017091CF0E72607093CF0EE5
:10034000ACE9B3E188278C930C940A020D3011F0CC
:100350000C94F201AFECBEE08C9181FB16F00C9492
:10036000F0017091CF0E7D7F7093CF0E80E0ACE9ED
:10037000B3E10E9418278D9388278C93ECE9F3E171
:10038000A6E6B4E10E942C39ACE9B3E188278C934E
:100390008AEC0E943C3681E0E6E6F4E105E00A934F
:1003A000A981BA810E943E39A881B981E0E3F7E7CB
:1003B0000E9456370E9490390FB68AEC481A80E0A6
:1003C000580A22960FBE11F00C94F0017091CF0ED6
:1003D00071607093CF0E7091C9007F777093C900E0
:1003E0000C940A020F3118F011F00C94F9010C94DE
:1003F0000A02AFECBEE08C9181FB16F00C940A026D
:10040000A5E6B4E18C91ACE9B3E10E9418278D9385
:1004100088278C938F918BBF8F918FBFFF91EF9126
:10042000DF91CF91BF91AF919F918F917F916F910C
:100430005F914F913F912F911F910F91BF90AF907E
:100440007F905F904F903F902F901F900F90189546
:100450000F921F922F923F924F925F927F92AF9294
:10046000BF920F931F932F933F934F935F936F937D
:100470007F938F939F93AF93BF93CF93DF93EF932C
:10048000FF938FB78F938BB78F9388278BBF75EBB5
:1004900076BD00913C0D003011F00C945302289869
:1004A00029980C946902013011F00C945B02289A8F
:1004B00029980C946902023011F00C946302289878
:1004C000299A0C946902033011F00C946902289A5D
:1004D000299AACE3BDE08C918F5F8C9313981298AE
:1004E00081E080933D0D00913D0D003618F011F034
:1004F0000C94CD02E8E6F0E30E945637ADE3BDE090
:100500008C919927AEE3BDE00E948B36AEE3BDE04F
:100510000D911C91ACE3BDE04D915527040F151FC3
:10052000AEE3BDE00D931C93AEE3BDE0AD90BD9096
:10053000AAE3BAE0AA0DBB1D8C9180933A0AAAE304
:10054000BAE08C918C939FEF89278C93229A239AFF
:100550002B98AAE3BAE0119698E08E91983018F49F
:10056000392F992702C038E09850881F2A9808F43C
:100570002A9A000000002B9A000000002B9800002F
:1005800000003A9591F7992341F7ADE3BDE08C91D6
:100590008F5F8C9310F40C947302119A119881E080
:1005A00080933D0D00913D0D003618F011F00C9434
:1005B0002C03EAE2F1E30E945637ADE3BDE08C91F3
:1005C0009927AEE3BDE00E948B36AEE3BDE00D910E
:1005D0001C91ACE3BDE04D915527040F151FAEE310
:1005E000BDE00D931C93AEE3BDE0AD90BD90AAE3DA
:1005F000BAE0AA0DBB1D8C9180933A0AAAE3BAE037
:100600008C918C939FEF89278C93229A239A2B9815
:10061000AAE3BAE0119698E08E91983018F4392F39
:10062000992702C038E09850881F2A9808F42A9A1F
:10063000000000002B9A000000002B980000000032
:100640003A9591F7992341F7ADE3BDE08C918F5F27
:100650008C9310F40C94D202109A1098139A129A58
:10066000ACE3BDE00C9144E00E947A398C938F9109
:100670008BBF8F918FBFFF91EF91DF91CF91BF9192
:10068000AF919F918F917F916F915F914F913F912A
:100690002F911F910F91BF90AF907F905F904F90DF
:1006A0003F902F901F900F9018957091F3097160F3
:1006B0007093F309A1E4BDE08C918F5F8C93A3EF5D
:1006C000B9E08C9182FB16F00C947E03A3EFB9E0A5
:1006D0008C9181FB882780F9809580FBA3EFB9E09E
:1006E0008C9181F98C93A3EFB9E08C9181FBA8E206
:1006F000B0E08C9182F98C930C947F034298A8E22D
:10070000BAE08C918F5F8C93A8E2BAE00C9143E041
:100710000E947A398C930091280A003011F00C94D1
:1007200096037091F30978607093F30908954398E4
:10073000E6E3F7E70E9456370E9427270E942E27FC
:10074000A0E8BFE3E2E7F7E70E9456370E946F3662
:100750000E941F270E942E27A0E8BFE3E6E8F7E7E4
:100760000E9456370E946F360E941F270E942E2734
:10077000E8E9F7E70E9456370E942727E4EAF7E7FF
:100780000E9456370E9427270E942E27E8EAF7E7A3
:100790000E9456370E942727E2EBF7E70E94563760
:1007A0000E9427270E942E27E6EBF7E70E94563784
:1007B0000E942727E0ECF7E70E9456370E94272780
:1007C0000E942E27E4ECF7E70E9456370E94272765
:1007D000E6EDF7E70E9456370E9427270E942E2752
:1007E000EAEDF7E70E9456370E942727ECEEF7E77D
:1007F0000E9456370E9427270E942E27E0EFF7E736
:100800000E9456370E942727EAEFF7E70E945637E3
:100810000E9427270E942E2781E090E0A5EDB9E0F5
:100820008D939C93A5EDB9E00D911C91003053E0A0
:10083000150718F011F00C942E0480E0A5EDB9E036
:10084000AD90BD90AAE3BAE0AA0DBB1D8C93A5EDB7
:10085000B9E00E94D12610F40C9412048EE7809324
:100860007A0C8EE78093FB0A8EE78093EB0A8EE783
:1008700080938A0C82E08093460DE0E0F0E0A2E0F5
:10088000BAE094E00E947339EEEFF7E70E94563722
:100890000E942727E2E0FAE0A0E8BFE30E94962A40
:1008A0000E941F27ECE0F8E70E9456370E94272796
:1008B000E2E0FAE0A0E8BFE30E948E2A0E941F2730
:1008C0000E942E27E2E0FAE0AFE6BEE00E948E2A08
:1008D000EFE6FEE0AFE0B1E00E942C390E944C2927
:1008E000EEE0F8E70E9456370E942727AFE6BEE009
:1008F0000E942127E2E1F8E70E9456370E9427274D
:100900000E943D29AFE0B1E00E9421270E942E27DE
:10091000E2E0FAE0AFE6BEE00E94962AEFE6FEE0F3
:10092000A6E0B1E00E942C390E944629E6E1F8E7F2
:100930000E9456370E942727AFE6BEE00E9421277B
:10094000EAE1F8E70E9456370E9427270E943D29D6
:10095000A6E0B1E00E9421270E942E27EEE1F8E7F1
:100960000E9456370E9427270E943D29AFE0B1E040
:100970000E942127EAE1F8E70E9456370E942727C4
:100980000E943D29A6E0B1E00E9421270E942E2767
:10099000E0E0F1E00E94552AA9E4BDE00D931D932B
:1009A0002D933D9383E68093E10981E08093AD0927
:1009B0000091AD09063018F011F00C94F10483E6B3
:1009C000ADEAB9E0AD90BB24ABEFB9E0AA0DBB1D19
:1009D0008C93ADEAB9E08C918F5F8C9310F40C94FA
:1009E000D804A8E1BAE0E2E2F8E70E9456370E9494
:1009F0006F36ADE1BAE0E6E2F8E70E9456370E94B2
:100A00006F3608950E94640562FA16F00C94220570
:100A1000E8E2F8E70E9456370E9427270E942E2717
:100A2000A7E2BAE08C918F5F8C930091270A053082
:100A300011F00C9420057091F30970617093F30923
:100A40000C9463050091060A003011F00C945B05CC
:100A5000A0E8BFE3AF93BF93E7E0FAE00E94F43968
:100A60000E94502811E001E0BF91AF910E94103820
:100A7000E0E8FFE3A8E1BAE00E942C39A8E1BAE07F
:100A80000E94CA38AFE1BAE00C93EEE2F8E70E94A8
:100A900056370E942727A8E1BAE00E9421270E942A
:100AA0002E277091F3097F7E7093F30980E0809385
:100AB000270A0C946305E2E3F8E70E9456370E9488
:100AC00027270E942E27089584E0E6E20E94D6366A
:100AD0005CEC84E0E6E20E94FE3654E484E0E6E268
:100AE0000E94FE3680E293E00E94412884E0E6E224
:100AF0000E94D6365CEC84E0E6E20E94FE365EEBB5
:100B000084E0E6E20E94FE3681E080930D0A0091C7
:100B10000D0A093018F011F00C94A705BB27A6E1C7
:100B200084E0E6E221E02A930E942637ADE0BAE0B5
:100B3000AD90BB24AEE0BAE0AA0DBB1D5C93ADE066
:100B4000BAE08C918F5F8C9310F40C94870584E04D
:100B5000E6E20E94D63680E08093060A81E0809328
:100B60000E0A00910E0A093018F011F00C94DB0502
:100B70000091060AAEE0BAE0AD90BB24AEE0BAE068
:100B8000AA0DBB1D4C910427ADE0BAE00C93E4E143
:100B9000FFE20E945637ADE0BAE08C919927A6E0BB
:100BA000BAE00E949136AEE0BAE08C918F5F8C93F0
:100BB00010F40C94B1050091060A003011F00C9469
:100BC00043069091100A80910F0AABE0BAE08D9332
:100BD0009C93A0E1BAE00C9103FB16F40C9413066D
:100BE000E4E1F7E70E9456370E94AC3AEBE0FAE006
:100BF000D190E0808FEFE7FE8827F82E082F0E9423
:100C00001E3A0E94563AEDE0F0E0A7E0BAE00E94FA
:100C10003139ADE1BAE0E8E3F8E70E9456370E94C7
:100C20006F360C944306ABE0BAE042E00E94BC266B
:100C3000ABE0BAE00D911C910F5F1F4FABE0BAE043
:100C40000D931C93E4E1F7E70E9456370E94AC3AFB
:100C5000EBE0FAE0D190E0808FEFE7FE8827F82EF6
:100C6000082F0E941E3A0E94563AEDE0F0E0A7E0FD
:100C7000BAE00E943139ADE1BAE0E6E2F8E70E945D
:100C800056370E946F360895A0ECB9E00D911D9182
:100C90002D913C91689483E0ABE3BDE00E945A2E15
:100CA00083E09FEFABE6BDE00E942C2E83E0A0EC3A
:100CB000B9E00E94202E82E0EBE6FDE002E00A931C
:100CC000AFE6BEE00E943E39AFE6BEE00E94CA3801
:100CD000A0EDBEE00C930091D00E003018F011F0A2
:100CE0000C9474060C94C006E4E1F0E30E945637BD
:100CF000A0EDBEE08C919927A3EDB9E00E948B3660
:100D000081E08093C9090091C909003218F011F0FF
:100D10000C94BE06E6E4F0E30E945637A9ECB9E075
:100D20008C919927ABECB9E00E9491368091CB0968
:100D3000EBE6FDE002E00A93AFE6BEE00E943E393A
:100D4000AFE6BEE00E941239AFEAB9E00C93A3ED22
:100D5000B9E00E94D1268091AF09A3EDB9E0AD9032
:100D6000BD90AAE3BAE0AA0DBB1D8C93A9ECB9E033
:100D70008C918F5F8C9310F40C9483060C94E60690
:100D8000A0ECB9E04D915D916D917C91A4ECB9E03E
:100D90000D911D912D913C910E9462381CF011F033
:100DA0000C94E60601E010E020E030E0A0ECB9E0B1
:100DB0000D931D932D933C9301E010E020E030E073
:100DC000689483E0ABE3BDE00E945A2E089580E072
:100DD0008093CE0EA9E2B0E08C9184FBAEECBEE035
:100DE0008C9180F98C93A9E2B0E08C9185FBAEECFC
:100DF000BEE08C9181F98C93A9E2B0E08C9186FBE6
:100E0000AEECBEE08C9182F98C93A9E2B0E08C91BB
:100E100087FBAEECBEE08C9183F98C934091E109A5
:100E20000091CE0E041711F40C940B0AEAE3F8E7D4
:100E30000E9456370E942727EEECFEE0A0E8BFE3B1
:100E40000E9485380E941F270E942E278091CE0E77
:100E50008093E1090091CE0E003011F00C94490707
:100E6000ACEBBEE0E2E4F8E70E9456370E946F3632
:100E70007091CF0E70687093CF0E7091CF0E7F7D02
:100E80007093CF0E7091CF0E7F7B7093CF0E0C942A
:100E9000FA08013011F00C946607ACEBBEE0ECE40C
:100EA000F8E70E9456370E946F367091CF0E706837
:100EB0007093CF0E7091CF0E7F7D7093CF0E709197
:100EC000CF0E7F7B7093CF0E0C94FA08023011F096
:100ED0000C948307ACEBBEE0E6E5F8E70E945637DA
:100EE0000E946F367091CF0E70687093CF0E709124
:100EF000CF0E7F7D7093CF0E7091CF0E7F7B70935E
:100F0000CF0E0C94FA08033011F00C94A007ACEB50
:100F1000BEE0E0E6F8E70E9456370E946F36709117
:100F2000CF0E70687093CF0E7091CF0E7F7D70934F
:100F3000CF0E7091CF0E7F7B7093CF0E0C94FA087A
:100F4000043011F00C94BD07EAE6F8E70E9456372A
:100F50000E9427270E942E277091CF0E7F777093D3
:100F6000CF0E7091CF0E70627093CF0E7091CF0E36
:100F70007F7B7093CF0E0C94FA08053011F00C941F
:100F8000DA07ACEBBEE0EEE7F8E70E9456370E94C6
:100F90006F367091CF0E70687093CF0E7091CF0E38
:100FA0007F7D7093CF0E7091CF0E7F7B7093CF0EAD
:100FB0000C94FA08063011F00C94F707E8E8F8E70B
:100FC0000E9456370E9427270E942E277091CF0E2D
:100FD0007F777093CF0E7091CF0E7F7D7093CF0E81
:100FE0007091CF0E70647093CF0E0C94FA08073096
:100FF00011F00C941408E6E9F8E70E9456370E94B5
:1010000027270E942E277091CF0E7F777093CF0EE7
:101010007091CF0E7F7D7093CF0E7091CF0E7F7B3E
:101020007093CF0E0C94FA08083011F00C9431082C
:10103000ACEBBEE0E2EAF8E70E9456370E946F365A
:101040007091CF0E70687093CF0E7091CF0E7F7D30
:101050007093CF0E7091CF0E7F7B7093CF0E0C9458
:10106000FA08093011F00C944E08ACEBBEE0ECEA43
:10107000F8E70E9456370E946F367091CF0E706865
:101080007093CF0E7091CF0E7F7D7093CF0E7091C5
:10109000CF0E7F7B7093CF0E0C94FA080A3011F0BC
:1010A0000C946B08ACEBBEE0E6EBF8E70E94563719
:1010B0000E946F367091CF0E70687093CF0E709152
:1010C000CF0E7F7D7093CF0E7091CF0E7F7B70938C
:1010D000CF0E0C94FA080B3011F00C948808E6E956
:1010E000F8E70E9456370E9427270E942E2770910A
:1010F000CF0E7F777093CF0E7091CF0E7F7D709360
:10110000CF0E7091CF0E7F7B7093CF0E0C94FA08A8
:101110000C3011F00C94A508ACEBBEE0E0ECF8E765
:101120000E9456370E946F367091CF0E7068709390
:10113000CF0E7091CF0E7F7D7093CF0E7091CF0E3A
:101140007F7B7093CF0E0C94FA080D3011F00C9445
:10115000C208ACEBBEE0EAECF8E70E9456370E940A
:101160006F367091CF0E70687093CF0E7091CF0E66
:101170007F7D7093CF0E7091CF0E7F7B7093CF0EDB
:101180000C94FA080E3011F00C94DF08ACEBBEE0C2
:10119000E4EDF8E70E9456370E946F367091CF0E4B
:1011A00070687093CF0E7091CF0E7F7D7093CF0ECD
:1011B0007091CF0E7F7B7093CF0E0C94FA080F3096
:1011C00011F00C94FA08E6E9F8E70E9456370E94FD
:1011D00027270E942E277091CF0E7F777093CF0E16
:1011E0007091CF0E7F7D7093CF0E7091CF0E7F7B6D
:1011F0007093CF0E83E00E944B2EAFECBEE08C913B
:1012000087FB81E00EF480E08F93AFECBEE08C9121
:1012100085FB81E00EF480E09F9189238F93AFECF2
:10122000BEE08C9186FB81E00EF480E09F918923E3
:10123000882311F40C942F0970916E007E7F7093B7
:101240006E007091C90070687093C9007091CF0EE4
:1012500070617093CF0E139812980C943E097091A0
:101260006E00716070936E007091C9007F7770930B
:10127000C9007091CF0E7F7E7093CF0EAFECBEE0B1
:101280008C9187FB16F00C94A5097091C9007F77AB
:101290007093C90083E0ACEBBEE00E940A2E83E0AD
:1012A000A4ECB9E00E94262EEEEDF8E70E94563736
:1012B0000E942727E4ECF9E0A0E8BFE30E94783819
:1012C0000E941F270E942E27EEEDF8E70E94563756
:1012D0000E942727ACEBBEE00E9421270E942E2708
:1012E00083E0ADEDB9E00E94262EE2EEF8E70E9421
:1012F00056370E942727EDEDF9E0A0E8BFE30E94F2
:1013000078380E941F270E942E2701E010E020E07D
:1013100030E0A0ECB9E00D931D932D933C9380E059
:1013200090E0A0EFB9E08D939C93E8EEF8E70E947F
:1013300056370E9427270E942E27EEEEF8E70E94DC
:1013400056370E9427270E942E2781E090E0A6EEC4
:10135000B9E08D939C93A6EEB9E00D911C910030FD
:1013600053E0150718F011F00C94C70980E0A6EEC1
:10137000B9E0AD90BD90AAE3BAE0AA0DBB1D8C9375
:10138000A6EEB9E00E94D12610F40C94AB0981E0DE
:1013900090E0A6EEB9E08D939C93A6EEB9E00D9196
:1013A0001C9101305EE1150718F011F00C94E90969
:1013B00080E0A6EEB9E0AD90BD90A1E3B5E1AA0D45
:1013C000BB1D8C93A6EEB9E00E94D12610F40C94BC
:1013D000CD0981E08093AD090091AD09063018F088
:1013E00011F00C94050A83E6ADEAB9E0AD90BB2498
:1013F000ABEFB9E0AA0DBB1D8C93ADEAB9E08C91BF
:101400008F5F8C9310F40C94EC0980E090E0A4EFD3
:10141000B9E08D939C93089583E00E944B2E83E066
:10142000ACEBBEE00E940A2E83E0A4ECB9E00E947F
:10143000262E83E0ADEDB9E00E94262E01E010E0FB
:1014400020E030E0A0ECB9E00D931D932D933C9388
:1014500080E090E0A3EDB9E08D939C9380E08093D1
:10146000AD09A0ECB9E00D911D912D913C916894CE
:1014700083E0ABE3BDE00E945A2E83E09FEFABE632
:10148000BDE00E942C2E83E0A0ECB9E00E94202E4B
:1014900082E0EBE6FDE002E00A93AFE6BEE00E94E8
:1014A0003E39AFE6BEE00E94CA38A0EDBEE00C9324
:1014B0000091D00E003018F011F00C94610A0C94D9
:1014C000960A81E08093C9090091C909003218F099
:1014D00011F00C94940AE6E4F0E30E945637A9EC6C
:1014E000B9E08C919927ABECB9E00E9491368091DC
:1014F000CB09EBE6FDE002E00A93AFE6BEE00E9416
:101500003E39AFE6BEE00E941239AFEAB9E00C9373
:10151000A3EDB9E00E94D126A9ECB9E08C918F5FD0
:101520008C9310F40C94640A0C94BF0AA0ECB9E0FC
:101530004D915D916D917C91A4ECB9E00D911D915F
:101540002D913C910E9462381CF011F00C94BF0A5E
:1015500001E010E020E030E0A0ECB9E00D931D9335
:101560002D933C9381E08093AD0901E010E020E0F1
:1015700030E0689483E0ABE3BDE00E945A2E009116
:10158000AD09013081E009F080E08F93A3EDB9E06F
:101590000D911C91003058E1150780E010F009F022
:1015A00081E09F91892B882311F40C94310A0895CE
:1015B000A0ECB9E00D911D912D913C91689483E0D0
:1015C000ABE3BDE00E945A2E83E09FEFABE6BDE0A7
:1015D0000E942C2E83E0A0ECB9E00E94202EA0EC0B
:1015E000B9E04D915D916D917C91A4ECB9E00D91C4
:1015F0001D912D913C910E9462381CF011F00C94C9
:10160000180B01E010E020E030E0A0ECB9E00D9311
:101610001D932D933C9381E08093AD0901E010E090
:1016200020E030E0689483E0ABE3BDE00E945A2EF6
:1016300082E0EBE6FDE002E00A93AFE6BEE00E9446
:101640003E39AFE6BEE00E94CA38A0EDBEE00C9382
:101650000091D00E003018F011F00C94310B0C9466
:10166000A80B85E08093CB0981E08093C9090091A4
:10167000C909003218F011F00C94750B8091CB0958
:10168000EBE6FDE002E00A93AFE6BEE00E943E39E1
:10169000ABECB9E08C918D5F8C93AFE6BEE00E941D
:1016A0001239AFEAB9E00C93A0EFB9E00D911C91AB
:1016B000A9ECB9E04D915527040F151FA3EDB9E032
:1016C0000D931C938091AF09A3EDB9E0AD90BD904F
:1016D000A1E3B5E1AA0DBB1D8C93A9ECB9E08C91F7
:1016E0008F5F8C9310F40C94370BA3EDB9E08D91C0
:1016F0009C91A0EFB9E08D939C93A3EDB9E00D917F
:101700001C9140E053E00E94FE26AAEEB9E00D9342
:101710001C93AAEEB9E00D911C91003050E0150722
:1017200011F00C94980B7091F30970687093F309A1
:10173000A0EFB9E00D911C91003057E2150711F0B0
:101740000C94A80B80E090E0A0EFB9E08D939C93FF
:101750000895A1E3B5E10D91112740E053E00E9407
:101760004236AFE2B5E10D931C9381E090E0AFEC1F
:10177000B9E08D939C93AFECB9E00D911C910030D2
:1017800053E0150718F011F00C94D10BAFE2B5E15E
:101790000E94D126AFECB9E00E94D12610F40C943F
:1017A000BB0BA1E3B5E18C918F5F8C93A1E3B5E115
:1017B0000C9148E00E947A398C93089581E00E9450
:1017C0003C36AC81BD810D91112740E650E00E946E
:1017D0004236A2EEB9E00D931C93AA81BB818C9195
:1017E00081508C93AA81BB810D91112740E650E076
:1017F0000E944236A4EEB9E00D931C9381E0A881CB
:10180000B9818C93A881B9810C91003618F011F040
:101810000C94590CA881B9810C9141E0041BA9ECEE
:10182000B9E00C93A9ECB9E00D911127A4EEB9E051
:101830004D915C91040F151FA3EDB9E00D931C931E
:10184000ECEEF1E30E945637A3EDB9E08D919C9147
:10185000AFECB9E00E948B36A2EEB9E00D911C917D
:10186000A9ECB9E04D915527040F151FA1EDB9E082
:101870000D931C93ECE6FBE30E945637A1EDB9E013
:101880008D919C91AEEAB9E00E9491368091AE09AB
:10189000AFECB9E0AD90BD90AAE3BAE0AA0DBB1DD4
:1018A0008C93A881B9818C918F5F8C9310F40C94E8
:1018B000020C81E0481A80E0580A2296089581E0DF
:1018C0000E943C36AC81BD810D91112740E650E06D
:1018D0000E944236A2EEB9E00D931C93AA81BB810F
:1018E0008C9181508C93AA81BB810D91112740E688
:1018F00050E00E944236A4EEB9E00D931C9381E0C3
:10190000A881B9818C93A881B9810C91003618F017
:1019100011F00C94DA0CA881B9810C9141E0041B00
:10192000A9ECB9E00C93A9ECB9E00D911127A4EE54
:10193000B9E04D915C91040F151FA3EDB9E00D9333
:101940001C93ECEEF6E30E945637A3EDB9E08D91BF
:101950009C91AFECB9E00E948B36A2EEB9E00D91FC
:101960001C91A9ECB9E04D915527040F151FA1ED6D
:10197000B9E00D931C93ECE0F0E40E945637A1ED22
:10198000B9E08D919C91AEEAB9E00E9491368091C8
:10199000AE09AFECB9E0AD90BD90AAE3BAE0AA0DF4
:1019A000BB1D8C93A881B9818C918F5F8C9310F4AF
:1019B0000C94830C81E0481A80E0580A229608951E
:1019C00081E00E943C36AA81BB818C9181508C932E
:1019D000AA81BB810D91112740E250E00E9442365E
:1019E000A4EEB9E00D931C9381E0A881B9818C939A
:1019F000A881B9810C91003218F011F00C94410DBE
:101A0000A881B9810C9141E0041BA9ECB9E00C93C9
:101A1000A9ECB9E00D911127A4EEB9E04D915C91CC
:101A2000040F151FA3EDB9E00D931C93ECE6F6E34C
:101A30000E945637A3EDB9E08D919C91AFECB9E0CF
:101A40000E948B36ECEEFFE30E945637A9ECB9E01A
:101A50008C919927AEEAB9E00E9491368091AE0947
:101A6000AFECB9E0AD90BD90AAE3BAE0AA0DBB1D02
:101A70008C93A881B9818C918F5F8C9310F40C9416
:101A8000F80C81E0481A80E0580A2296089581E017
:101A90000E943C36AA81BB818C9181508C93AA8193
:101AA000BB810D91112740E250E00E944236A4EE26
:101AB000B9E00D931C9381E0A881B9818C93A88132
:101AC000B9810C91003218F011F00C94A80DA88186
:101AD000B9810C9141E0041BA9ECB9E00C93A9EC8D
:101AE000B9E00D911127A4EEB9E04D915C91040F7E
:101AF000151FA3EDB9E00D931C93ECECF5E40E94E7
:101B00005637A3EDB9E08D919C91AFECB9E00E94FE
:101B10008B36ECEAF5E40E945637A9ECB9E08C91DB
:101B20009927AEEAB9E00E9491368091AE09AFECF8
:101B3000B9E0AD90BD90AAE3BAE0AA0DBB1D8C93AD
:101B4000A881B9818C918F5F8C9310F40C945F0DF8
:101B500081E0481A80E0580A2296089581E00E94A8
:101B60003C36AA81BB818C9181508C93AA81BB8128
:101B70000D91112740E250E00E944236A4EEB9E0F8
:101B80000D931C9381E0A881B9818C93A881B981C0
:101B90000C91003218F011F00C940F0EA881B9814D
:101BA0000C9141E0041BA9ECB9E00C93A9ECB9E05D
:101BB0000D911127A4EEB9E04D915C91040F151F12
:101BC000A3EDB9E00D931C93ECE6F5E40E945637C3
:101BD000A3EDB9E08D919C91AFECB9E00E948B36FA
:101BE000ECE4F5E40E945637A9ECB9E08C91992712
:101BF000AEEAB9E00E9491368091AE09AFECB9E04F
:101C0000AD90BD90AAE3BAE0AA0DBB1D8C93A8814C
:101C1000B9818C918F5F8C9310F40C94C60D81E088
:101C2000481A80E0580A22960895AA81BB810D9136
:101C30001C9101501040A7EDB9E00D931C93A7ED46
:101C4000B9E00D911C9148E050E00E94FE26A7EDFE
:101C5000B9E00D931C93AA81BB810D911C91015099
:101C60001040AAEDB9E00D931C9381E08093D9094F
:101C70000091D909003118F011F00C94BA0EAAEDB8
:101C8000B9E00D911C9148E050E00E94FE26A1EDC4
:101C9000B9E04D935C93A1EDB9E00D911C9140E149
:101CA00050E00E944236A1EDB9E00D931C93A1EDE6
:101CB000B9E00D911C910F5E1F4FA1EDB9E00D939E
:101CC0001C93A1EDB9E00D911C91A9EDB9E04D91E6
:101CD0005527041B150BA1EDB9E00D931C93009142
:101CE000D90941E0041BACEDB9E00C938091DC090B
:101CF000A881B9810E94C1360E94B7360C90082293
:101D0000689409F4E89416F00C949D0E6894809100
:101D1000D709A1EDB9E0AD90BD90AAE3BAE0AA0D54
:101D2000BB1D0E94C1360E94B7360C9016F00922E6
:101D300001C0082A0C920C94B20EE8948091D70945
:101D4000A1EDB9E0AD90BD90AAE3BAE0AA0DBB1D2C
:101D50000E94C1360E94B7360C9016F0092201C0CD
:101D6000082A0C92A9EDB9E08C918F5F8C9310F446
:101D70000C94380E0895089581E00E943C3600913D
:101D8000B50E013011F00C94CD0EE4EFF8E70E948F
:101D900056370E9427270E942E270E94F92AAAE17F
:101DA000B1E09C9300911A01003011F00C94D70F10
:101DB0000091B50E013011F00C94E60EECEFF8E74F
:101DC0000E9456370E9427270E942E2781E00E94FA
:101DD000132DA881B9819C93A881B9810C91003001
:101DE00011F40C94180FECE0F9E70E9456370E94AA
:101DF0002727E881F981A0E8BFE30E9485380E9487
:101E00001F27E4E1F9E70E9456370E9427270E9426
:101E10002E27E4E3F9E70E9456370E9427270E9405
:101E20002E277091F3097B7F7093F3090C94D50FE3
:101E30000091B50E013011F00C94C80FE4E5F9E7FC
:101E40000E9456370E942727E2E2F1E0A0E8BFE3B4
:101E50000E9485380E941F270E942E27E6E6F9E798
:101E60000E9456370E942727E4E2F1E0A0E8BFE392
:101E70000E9478380E941F270E942E27EAE7F9E780
:101E80000E9456370E942727EDE2F1E0A0E8BFE369
:101E90000E9478380E941F270E942E27EEE8F9E75B
:101EA0000E9456370E942727E3E3F1E0A0E8BFE352
:101EB0000E9478380E941F270E942E27E2EAF9E745
:101EC0000E9456370E942727E8E3F1E0A0E8BFE32D
:101ED0000E9478380E941F270E942E27EAEBF9E71C
:101EE0000E9456370E942727E7E3F1E0A0E8BFE30E
:101EF0000E9485380E941F270E942E27E0EDF9E7F7
:101F00000E9456370E942727E1E3F1E0A0E8BFE3F3
:101F10000E9475380E941F270E942E27E0EEF9E7E5
:101F20000E9456370E942727E9E2F1E0A0E8BFE3CC
:101F30000E9478380E941F270E942E27E2EFF9E7BF
:101F40000E9456370E942727E8E2F1E0A0E8BFE3AD
:101F50000E9485380E941F270E942E27E4E0FAE79E
:101F60000E9456370E9427270E94F835E0E1F0E0F2
:101F7000A0E8BFE30E9478380E941F27E0E1FAE75B
:101F80000E9456370E9427270E942E270C94D00FBC
:101F9000E4E1FAE70E9456370E9427270E942E2785
:101FA0007091F30974607093F3090C94F40FEAE1F3
:101FB000FAE70E9456370E942727EAE1F1E0A0E8FD
:101FC000BFE30E9485380E941F270E942E27E4E36A
:101FD000F9E70E9456370E9427270E942E2770910A
:101FE000F3097B7F7093F309E0E3FAE70E94563729
:101FF0000E9427270E942E2781E0481A80E0580A75
:1020000022960895E2E3FAE70E9456370E942727B6
:10201000ACE9B2E10E9421270E942E278FE71AE047
:102020000E944A2781E0ECE9F2E106E00A93A0E889
:10203000BEE00E943E3983E00E94A227A0E8BEE0F5
:102040000E943A27ECE9F2E19CE204E132E2A1EDE0
:10205000BEE00E94A639A0EDBEE02C930091D00E08
:10206000003018F011F00C9437100C94691081E0D6
:102070008093AD094091D00E0091AD09041718F07E
:1020800011F00C946910EDEAF9E0A0E8BFE30E94BA
:1020900085380E941F27E4E3FAE70E9456370E9422
:1020A0002727ADEAB9E00D91112745E150E00E94E4
:1020B0004236ACEBBEE0A00FB11F0E9421270E9468
:1020C0002E27ADEAB9E08C918F5F8C9310F40C94BD
:1020D0003A10A1EDBEE00E948A39082F063011F0B7
:1020E0000C94DD16E1EDFEE0A4E6BDE00E942C3983
:1020F000E4E6FDE0A4E6BDE00E94AB368FEF8093FE
:102100006B0EA4E6BDE0E6E3FAE70E9456370E94B4
:10211000903911F00C94CD10ABE6BDE0EEE3FAE798
:102120000E9456370E946F36A0E8BEE0E2E7F7E76C
:102130000E9456370E946F36E0E8FEE0ABE6BDE055
:102140000E9418270E942C39ABE6BDE00E94182798
:10215000E2E5FAE70E9456370E946F36A0E8BEE03B
:10216000E6E8F7E70E9456370E946F36E0E8FEE0A7
:10217000ABE6BDE00E9418270E942C39ABE6BDE01B
:102180000E941827E0E6FAE70E9456370E946F3651
:1021900080E080936B0E0C94DB16E2E6FAE70E9477
:1021A00056370E94903911F00C94881180E080938A
:1021B0006B0E0E94BC0EA3EFB9E08C9182FB16F06F
:1021C0000C948311ABE6BDE0EAE6FAE70E945637CD
:1021D0000E946F36E0E8FEE0ABE6BDE00E94182703
:1021E0000E942C39ABE6BDE00E941827E0E6FAE732
:1021F0000E9456370E946F36A0E8BFE3E0E8FAE796
:102200000E9456370E946F36A0E8BFE30E94C12D9E
:10221000A0E8BEE00E948A39082F003018F011F0C3
:102220000C9414110C941811A0E8BEE00E94C12D6A
:10223000A0E8BFE3E2E8FAE70E9456370E946F3653
:10224000A0E8BFE3E9E2FAE00E947F2EA9E2BAE04B
:102250000E948A39082F003018F011F00C943211C6
:102260000C948111A9E2BAE00E948A39082F00304B
:1022700018F011F00C943E110C948111A9E2BAE00F
:102280000E942127ECE0F8E70E9456370E9427279A
:10229000E6E8FAE70E9456370E942727A9E2BAE04B
:1022A000E0E1F0E00E94AB2EE0E1F0E0A0E8BFE367
:1022B0000E9478380E941F27ECE0F8E70E9456370A
:1022C0000E942727A9E2BAE0E0E8FFE30E94B92EC6
:1022D0000E941F27ECE0F8E70E9456370E9427274C
:1022E000A9E2BAE0E0E8FFE30E94CD2E0E941F279A
:1022F0000E942E27A895E9E2FAE00E94A72E0C94EE
:1023000032110C94861189E080936B0E0C94DB16CD
:10231000ECE8FAE70E9456370E94903911F00C94CD
:1023200036120091D00E023011F00C94311280E080
:1023300080936B0EE4E9FAE70E9456370E94272744
:102340000E943D29A6E0B1E00E942127ECE0F8E7D9
:102350000E9456370E9427270E943D29AFE0B1E036
:102360000E9421270E942E277091C1007F777093D1
:10237000C1000E94BC0EA3EFB9E08C9182FB16F065
:102380000C942C12ABE6BDE0ECE9FAE70E9456375C
:102390000E946F36E6EEFEE0AFE6BEE00E942C390A
:1023A00083E0AFE6BEE00E940A2E83E0A8EBB9E02E
:1023B0000E94262EE6E8FAE70E9456370E94272759
:1023C000E8EBF9E0A0E8BFE30E9478380E941F27FD
:1023D0000E942E27ABE6BDE0E8EAFAE70E945637F6
:1023E0000E946F3601E010E020E030E0ACEBB9E095
:1023F0000D931D932D933C93A8EBB9E04D915D9106
:102400006D917C91ACEBB9E00D911D912D913C91BA
:102410000E9462381CF011F00C942012E89483E0C2
:10242000ADEAB9E00E945A2EADEAB9E08C910E9463
:102430003127A895ACEBB9E00E94C4260C94FC119E
:102440000E942E2783E00E944B2E7091C10070687D
:102450007093C1000C942F1289E080936B0E0C9442
:10246000341284E080936B0E0C94DB16E2EBFAE7F7
:102470000E9456370E94903911F00C94741200910A
:10248000D00E023011F00C946F1280E080936B0E2E
:10249000ABE6BDE0EAEBFAE70E9456370E946F36E2
:1024A000E6EEFEE0AFE6BEE00E942C3983E0AFE648
:1024B000BEE00E940A2EA89583E0A8EBB9E00E9436
:1024C000262E83E00E944B2EAFE6BEE00E94DF3155
:1024D0000E94603383E00E94742E0C94721284E098
:1024E00080936B0E0C94DB16ECECFAE70E945637E7
:1024F0000E94903911F00C948D1280E080936B0E45
:10250000ABE6BDE0E4EDFAE70E9456370E946F3675
:1025100081E08093B50E0C94DB16EAEEFAE70E9498
:1025200056370E94903911F00C94A61280E08093E7
:102530006B0EABE6BDE0E2EFFAE70E9456370E9471
:102540006F3680E08093B50E0C94DB16ECE0FBE771
:102550000E9456370E94903911F00C945F1300913D
:10256000D00E023011F00C945A1380E080936B0E61
:1025700087E0E6EEFEE002E00A93AFE6BEE00E94EE
:102580003E39AFE6BEE00E941827E4E1FBE70E9477
:1025900056370E946F3689E0E6EEFEE002E00A93CD
:1025A000AFE6BEE00E9418270E943E39AFE6BEE0CB
:1025B0000E941827E4E1FBE70E9456370E946F361D
:1025C0008BE0E6EEFEE002E00A93AFE6BEE00E949A
:1025D00018270E943E39EFE6FEE0AFE0B1E00E942E
:1025E0002C390E944C2981E0E6EEFEE002E00A93DD
:1025F000AFE6BEE00E943E39AFE6BEE00E9418277B
:10260000E4E3FAE70E9456370E946F3683E0E6EE75
:10261000FEE002E00A93AFE6BEE00E9418270E94A7
:102620003E39AFE6BEE00E941827E4E3FAE70E94D5
:1026300056370E946F3685E0E6EEFEE002E00A9330
:10264000AFE6BEE00E9418270E943E39EFE6FEE0AA
:10265000A6E0B1E00E942C390E944629AFE6BEE018
:1026600088278C93ABE6BDE0E6E1FBE70E94563796
:102670000E946F360E943D29E6E0F1E0ABE6BDE046
:102680000E9418270E942C39ABE6BDE00E94182753
:10269000E0E4FBE70E9456370E946F360E943D2916
:1026A000EFE0F1E0ABE6BDE00E9418270E942C3974
:1026B0000C945D1384E080936B0E0C94DB16E4E4C1
:1026C000FBE70E9456370E94903911F00C949F133B
:1026D00080E080936B0E0E943D29EFE0F1E0AFE6D1
:1026E000BEE00E942C39ABE6BDE0ECE4FBE70E94C3
:1026F00056370E946F36EFE6FEE0ABE6BDE00E9483
:1027000018270E942C390E943D29E6E0F1E0AFE64F
:10271000BEE00E942C39ABE6BDE00E941827E2E63D
:10272000FBE70E9456370E946F36EFE6FEE0ABE60D
:10273000BDE00E9418270E942C390C94DB16E8E6B5
:10274000FBE70E9456370E94903911F00C94B713A2
:1027500080E080936B0EABE6BDE0E0E7FBE70E9414
:1027600056370E946F360E94BC0E0C94DB16E8E8C8
:10277000FBE70E9456370E94903911F00C94021426
:102780000091D00E023011F00C94FD13A6EEBEE0C5
:102790000E94CA3848EE53E060E070E00E94623860
:1027A0000CF402C00C94F81380E080936B0EA6EE3C
:1027B000BEE00E94CA38AAEBBEE00D931C93E8E08D
:1027C000F0E0AAEBBEE07BE70E945639ABE6BDE045
:1027D000E0E9FBE70E9456370E946F36EAEBFEE025
:1027E000ABE6BDE00E9418270E9475380C94FB13DD
:1027F00085E080936B0E0C94001484E080936B0E44
:102800000C94DB16E8EBFBE70E9456370E949039E8
:1028100011F00C94201480E080936B0EABE6BDE0C9
:10282000E0ECFBE70E9456370E946F36EAEBFEE0D1
:10283000ABE6BDE00E9418270E9475380C94DB16A9
:10284000EAEDFBE70E9456370E94903911F00C9494
:102850006D140091D00E023011F00C946814A6EEA5
:10286000BEE00E94CA3840E050E060E070E00E94A4
:1028700062381CF011F00C943F140C94631480E047
:1028800080936B0EA6EEBEE00E94CA38A8EBBEE0B5
:102890000D931C93E6E0F0E0A8EBBEE07BE70E941E
:1028A0005639ABE6BDE0E2EEFBE70E9456370E94E8
:1028B0006F36E8EBFEE0ABE6BDE00E9418270E9411
:1028C00075380C94661485E080936B0E0C946B1431
:1028D00084E080936B0E0C94DB16E4E0FCE70E942E
:1028E00056370E94903911F00C948B1480E080933D
:1028F0006B0EABE6BDE0ECE0FCE70E9456370E94B1
:102900006F36E8EBFEE0ABE6BDE00E9418270E94C0
:1029100075380C94DB16E0E2FCE70E9456370E9403
:10292000903911F00C94FB1480E080936B0E88EECC
:1029300093E0AAEBBEE08D939C93E8E0F0E0AAEB75
:10294000BEE07BE70E94563981E090E0A8EBBEE054
:102950008D939C93E6E0F0E0A8EBBEE07BE70E945D
:102960005639ABE6BDE0E8E2FCE70E9456370E942C
:102970006F36EAEBFEE0ABE6BDE00E9418270E944E
:102980007538ABE6BDE00E941827E6E4FCE70E943C
:1029900056370E946F36E8EBFEE0ABE6BDE00E94E2
:1029A00018270E94753880E090E0A6EBBEE08D937A
:1029B0009C93E4E0F0E0A6EBBEE07BE70E94563992
:1029C000ACEBBEE0E2E5FCE70E9456370E946F36B2
:1029D000EAE0F0E0ACEBBEE07BE70E94653981E025
:1029E0008093CD0EEBE1F0E0ADECBEE07BE70E9422
:1029F00054390C94DB16EAE5FCE70E9456370E9436
:102A0000903911F00C94571580E080936B0EA6EE70
:102A1000BEE00E94CA38AFECB9E00D931C93AFEC56
:102A2000B9E00D911C91013053E0150710F00C94A2
:102A3000521580E080936B0EABEFBEE00E9412391E
:102A4000ADEAB9E00C938091AD09AFECB9E0AD907F
:102A5000BD90AAE3BAE0AA0DBB1D8C93ABE6BDE026
:102A6000E2E6FCE70E9456370E946F36EFECF9E091
:102A7000ABE6BDE00E9418270E947538ABE6BDE0CA
:102A80000E941827ECE6FCE70E9456370E946F363A
:102A9000EDEAF9E0ABE6BDE00E9418270E94F938A4
:102AA0000C94551585E080936B0E0C94DB16E4E7CF
:102AB000FCE70E9456370E94903911F00C948F1554
:102AC00080E080936B0EABE6BDE0ECE7FCE70E9494
:102AD00056370E946F3681E090E0A5EDB9E08D9306
:102AE0009C93A5EDB9E00D911C91003053E01507C2
:102AF00018F011F00C948D1580E0A5EDB9E0AD90C3
:102B0000BD90AAE3BAE0AA0DBB1D8C93A5EDB9E078
:102B10000E94D12610F40C9471150C94DB16ECE88D
:102B2000FCE70E9456370E94903911F00C94B815BA
:102B300080E080936B0EA6EEBEE00E94CA38ADEA3C
:102B4000B9E00C938091AD098093460DABE6BDE0F2
:102B5000E4E9FCE70E9456370E946F36EDEAF9E09F
:102B6000ABE6BDE00E9418270E9485380C94DB1666
:102B7000EEEAFCE70E9456370E94903911F00C945F
:102B800003160091D00E033011F00C94FE1580E076
:102B900080936B0EA6EEBEE00E94CA38ADEAB9E0A3
:102BA0000C93ABEFBEE00E94CA38AEEAB9E00C93DA
:102BB000ABE6BDE0E6EBFCE70E9456370E946F36BD
:102BC000EDEAF9E0ABE6BDE00E9418270E948538E7
:102BD0008091AD09D2018C9381E00E943C368091B6
:102BE000AE09D2018C9381E00E943C360E94DE0B3C
:102BF000249682E00E9438360C94011685E080937A
:102C00006B0E0C94DB16E4ECFCE70E9456370E9436
:102C1000903911F00C94351680E080936B0EA6EE7F
:102C2000BEE00E94CA38ADEAB9E00C93ABE6BDE065
:102C3000ECECFCE70E9456370E946F36EDEAF9E0B3
:102C4000ABE6BDE00E9418270E9485388091AD094F
:102C5000D2018C9381E00E943C360E94E00C2296C7
:102C600081E00E9438360C94DB16E6EEFCE70E9409
:102C700056370E94903911F00C94501680E08093E2
:102C80006B0EABE6BDE0EEEEFCE70E9456370E940D
:102C90006F367091C90070687093C9000C94DB1690
:102CA000EAE0FDE70E9456370E94903911F00C943B
:102CB0006B1680E080936B0EABE6BDE0E2E1FDE7D2
:102CC0000E9456370E946F367091C9007F777093CB
:102CD000C9000C94DB16E2E3FDE70E9456370E9420
:102CE000903911F00C94D8160091D00E023011F0EA
:102CF0000C94D31680E080936B0EA6EEBEE00E948B
:102D0000B93AEDE0F0E0ACEEB9E00E943139ECEE1A
:102D1000F9E00E94F439E8E1F7E70E9456370E9493
:102D2000AC3A0E94DB3918F011F00C9499160C940F
:102D3000A316ADE1BAE0E8E3F8E70E9456370E9437
:102D40006F360C94AB16ADE1BAE0E6E2F8E70E940C
:102D500056370E946F36A0E8BFE3AF93BF93ECEE07
:102D6000F9E00E94F4390E94502811E001E0BF917F
:102D7000AF910E941038E0E8FFE3A8E1BAE00E94BA
:102D80002C39ABE6BDE0EAE3FDE70E9456370E942E
:102D90006F36E8E1FAE0ABE6BDE00E9418270E943A
:102DA0002C390C94D61685E080936B0E0C94DB16B0
:102DB00081E080936B0E0C94E01682E080936B0EA2
:102DC00000916B0E003018F011F00C94E9160C9481
:102DD000F716EAE3FEE20E945637ABE6BEE08C91BE
:102DE00099270E94A336ABE6BDE00E946F36ABE6A2
:102DF000BDE00E9421270E942E2708950004080CA0
:102E00001014181C2024282C3034383C40000000BA
:102E10000000010000000500000015000000550042
:102E200000005501000055050000551500005555DE
:102E3000000055550100777707004F4B00436F6D39
:102E4000616E646F206E6F207265636F6E6F636971
:102E5000646F004C6F6E676974756420636F6D6199
:102E60006E646F206E6F2076616C696461004E75D0
:102E70006D65726F206465207573756172696F206E
:102E80006E6F2076616C69646F004E756D65726F50
:102E900020646520706172616D6574726F73206962
:102EA0006E76616C69646F004572726F72206C6F30
:102EB0006E676974756420706172616D6574726F9C
:102EC0002031004572726F72206C6F6E6769747585
:102ED0006420706172616D6574726F2032005061A0
:102EE00072616D6574726F206E6F2076616C6964BB
:102EF0006F004552524F5238004552524F522053A4
:102F0000442E20496E74656E7465206465206E756C
:102F100065766F00005EBCE2613FDD83C29C7E206F
:102F2000A3FD1F419DC3217FFCA2401E5F01E3BDA5
:102F30003E6082DC237D9FC1421CFEA0E1BF5D0399
:102F400080DE3C62BEE0025CDF81633D7C22C09E8D
:102F50001D43A1FF4618FAA427799BC584DA386679
:102F6000E5BB5907DB856739BAE406581947A5FB65
:102F70007826C49A653BD987045AB8E6A7F91B4559
:102F8000C6987A24F8A6441A99C7257B3A6486D84D
:102F90005B05E7B98CD2306EEDB3510F4E10F2AC39
:102FA0002F7193CD114FADF3702ECC92D38D6F3125
:102FB000B2EC0E50AFF1134DCE90722C6D33D18F19
:102FC0000C52B0EE326C8ED0530DEFB1F0AE4C120D
:102FD00091CF2D73CA947628ABF517490856B4EAF9
:102FE0006937D58B5709EBB536688AD495CB2977E5
:102FF000F4AA4816E9B7550B88D6346A2B7597C9D9
:103000004A14F6A8742AC896154BA9F7B6E80A54CC
:10301000D7896B3500000000200040006000800070
:10302000A000C000E000000120014001600180011B
:10303000A001C001E0010002200240026002800203
:10304000A002C002E0020005080B0E1114171A1DA1
:10305000202326292C2F3235383B3E4144474A4D08
:10306000505356595C5F620000007C017801740186
:1030700070016C016801640160015C015801540138
:1030800050014C014801440140013C013801340128
:1030900030012C012801240120011C011801140118
:1030A00010010C01080104010001FC00F800F4000B
:1030B000F000EC00E800E400E000DC00D800D40000
:1030C000D000CC00C800C400C000BC00B800B400F0
:1030D000B000AC00A800A400A0009C0098009400E0
:1030E00090008C008800840080007C0078007400D0
:1030F00070006C006800640060005C0058005400C0
:1031000050004C004800440040003C0038003400AF
:1031100030002C002800240020001C00180014009F
:1031200010000C000800040000000000FC02F8027F
:10313000F402F002EC02E802E402E002DC02D8024F
:10314000D402D002CC02C802C402C002BC02B8023F
:10315000B402B002AC02A802A402A0029C0298022F
:10316000940290028C028802840280027C0278021F
:10317000740270026C026802640260025C0258020F
:10318000540250024C024802440240023C023802FF
:10319000340230022C022802240220021C021802EF
:1031A000140210020C02080204020002FC01F801E1
:1031B000F401F001EC01E801E401E001DC01D801D7
:1031C000D401D001CC01C801C401C001BC01B801C7
:1031D000B401B001AC01A801A401A0019C019801B7
:1031E000940190018C01880184018001E102D102E7
:1031F000C102E202D202C202E302D302C302E4022B
:10320000D402C402E502D502C502E602D602C60215
:10321000E702D702C702E802D802C802E902D902CF
:10322000C902EA02DA02CA02EB02DB02CB02EC02BA
:10323000DC02CC02ED02DD02CD02EE02DE02CE02A5
:10324000EF02DF02CF02F002E002D0026101510181
:1032500041016201520142016301530143016401D2
:1032600054014401650155014501660156014601BD
:103270006701570147016801580148016901590177
:1032800049016A015A014A016B015B014B016C0162
:103290005C014C016D015D014D016E015E014E014D
:1032A0006F015F014F01700160015001B102A10285
:1032B0009102B202A2029202B302A3029302B402EA
:1032C000A4029402B502A5029502B602A6029602D5
:1032D000B702A7029702B802A8029802B902A9028F
:1032E0009902BA02AA029A02BB02AB029B02BC027A
:1032F000AC029C02BD02AD029D02BE02AE029E0265
:10330000BF02AF029F02C002B002A0023101210140
:103310001101320122011201330123011301340191
:10332000240114013501250115013601260116017C
:103330003701270117013801280118013901290136
:1033400019013A012A011A013B012B011B013C0121
:103350002C011C013D012D011D013E012E011E010C
:103360003F012F011F014001300120016102510284
:1033700041026202520242026302530243026402A9
:103380005402440265025502450266025602460294
:10339000670257024702680258024802690259024E
:1033A00049026A025A024A026B025B024B026C0239
:1033B0005C024C026D025D024D026E025E024E0224
:1033C0006F025F024F02700260025002E100D10002
:1033D000C100E200D200C200E300D300C300E40059
:1033E000D400C400E500D500C500E600D600C60044
:1033F000E700D700C700E800D800C800E900D900FE
:10340000C900EA00DA00CA00EB00DB00CB00EC00E8
:10341000DC00CC00ED00DD00CD00EE00DE00CE00D3
:10342000EF00DF00CF00F000E000D0003102210209
:103430001102320222021202330223021302340268
:103440002402140235022502150236022602160253
:10345000370227021702380228021802390229020D
:1034600019023A022A021A023B022B021B023C02F8
:103470002C021C023D022D021D023E022E021E02E3
:103480003F022F021F02400230022002B100A100C1
:103490009100B200A2009200B300A3009300B40018
:1034A000A4009400B500A5009500B600A600960003
:1034B000B700A7009700B800A8009800B900A900BD
:1034C0009900BA00AA009A00BB00AB009B00BC00A8
:1034D000AC009C00BD00AD009D00BE00AE009E0093
:1034E000BF00AF009F00C000B000A000E101D1010B
:1034F000C101E201D201C201E301D301C301E40130
:10350000D401C401E501D501C501E601D601C6011A
:10351000E701D701C701E801D801C801E901D901D4
:10352000C901EA01DA01CA01EB01DB01CB01EC01BF
:10353000DC01CC01ED01DD01CD01EE01DE01CE01AA
:10354000EF01DF01CF01F001E001D0016100510086
:1035500041006200520042006300530043006400D7
:1035600054004400650055004500660056004600C2
:10357000670057004700680058004800690059007C
:1035800049006A005A004A006B005B004B006C0067
:103590005C004C006D005D004D006E005E004E0052
:1035A0006F005F004F00700060005000B101A1018A
:1035B0009101B201A2019201B301A3019301B401EF
:1035C000A4019401B501A5019501B601A6019601DA
:1035D000B701A7019701B801A8019801B901A90194
:1035E0009901BA01AA019A01BB01AB019B01BC017F
:1035F000AC019C01BD01AD019D01BE01AE019E016A
:10360000BF01AF019F01C001B001A0013100210045
:103610001100320022001200330023001300340096
:103620002400140035002500150036002600160081
:10363000370027001700380028001800390029003B
:1036400019003A002A001A003B002B001B003C0026
:103650002C001C003D002D001D003E002E001E0011
:103660003F002F001F004000300020000102020236
:1036700003020402050206020702080209020A0206
:103680000B020C020D020E020F02100281008200DA
:1036900083008400850086008700880089008A00F6
:1036A0008B008C008D008E008F00900081028202C2
:1036B00083028402850286028702880289028A02C6
:1036C0008B028C028D028E028F0290020101020198
:1036D00003010401050106010701080109010A01AE
:1036E0000B010C010D010E010F011001C102B1020D
:1036F000A102C202B202A202C302B302A302C40226
:10370000B402A402C502B502A502C602B602A60210
:10371000C702B702A702C802B802A802C902B902CA
:10372000A902CA02BA02AA02CB02BB02AB02CC02B5
:10373000BC02AC02CD02BD02AD02CE02BE02AE02A0
:10374000CF02BF02AF02D002C002B002410131017C
:1037500021014201320122014301330123014401CD
:1037600034012401450135012501460136012601B8
:103770004701370127014801380128014901390172
:1037800029014A013A012A014B013B012B014C015D
:103790003C012C014D013D012D014E013E012E0148
:1037A0004F013F012F015001400130019102810280
:1037B00071029202820272029302830273029402E5
:1037C00084027402950285027502960286027602D0
:1037D000970287027702980288027802990289028A
:1037E00079029A028A027A029B028B027B029C0275
:1037F0008C027C029D028D027D029E028E027E0260
:103800009F028F027F02A00290028002110101013B
:10381000F10012010201F20013010301F30014018F
:103820000401F40015010501F50016010601F6007A
:1038300017010701F70018010801F8001901090133
:10384000F9001A010A01FA001B010B01FB001C011F
:103850000C01FC001D010D01FD001E010E01FE000A
:103860001F010F01FF002001100100016102510240
:1038700041026202520242026302530243026402A4
:10388000540244026502550245026602560246028F
:103890006702570247026802580248026902590249
:1038A00049026A025A024A026B025B024B026C0234
:1038B0005C024C026D025D024D026E025E024E021F
:1038C0006F025F024F02700260025002E100D100FD
:1038D000C100E200D200C200E300D300C300E40054
:1038E000D400C400E500D500C500E600D600C6003F
:1038F000E700D700C700E800D800C800E900D900F9
:10390000C900EA00DA00CA00EB00DB00CB00EC00E3
:10391000DC00CC00ED00DD00CD00EE00DE00CE00CE
:10392000EF00DF00CF00F000E000D0002102110224
:1039300001022202120202022302130203022402E3
:1039400014020402250215020502260216020602CE
:103950002702170207022802180208022902190288
:1039600009022A021A020A022B021B020B022C0273
:103970001C020C022D021D020D022E021E020E025E
:103980002F021F020F02300220021002A10091003C
:103990008100A20092008200A30093008300A40093
:1039A00094008400A50095008500A600960086007E
:1039B000A70097008700A80098008800A900990038
:1039C0008900AA009A008A00AB009B008B00AC0023
:1039D0009C008C00AD009D008D00AE009E008E000E
:1039E000AF009F008F00B000A0009000D101C10186
:1039F000B101D201C201B201D301C301B301D401AB
:103A0000C401B401D501C501B501D601C601B60195
:103A1000D701C701B701D801C801B801D901C9014F
:103A2000B901DA01CA01BA01DB01CB01BB01DC013A
:103A3000CC01BC01DD01CD01BD01DE01CE01BE0125
:103A4000DF01CF01BF01E001D001C0015100410001
:103A50003100520042003200530043003300540052
:103A6000440034005500450035005600460036003D
:103A700057004700370058004800380059004900F7
:103A800039005A004A003A005B004B003B005C00E2
:103A90004C003C005D004D003D005E004E003E00CD
:103AA0005F004F003F00600050004000D101C101A5
:103AB000B101D201C201B201D301C301B301D401EA
:103AC000C401B401D501C501B501D601C601B601D5
:103AD000D701C701B701D801C801B801D901C9018F
:103AE000B901DA01CA01BA01DB01CB01BB01DC017A
:103AF000CC01BC01DD01CD01BD01DE01CE01BE0165
:103B0000DF01CF01BF01E001D001C0015100410040
:103B10003100520042003200530043003300540091
:103B2000440034005500450035005600460036007C
:103B30005700470037005800480038005900490036
:103B400039005A004A003A005B004B003B005C0021
:103B50004C003C005D004D003D005E004E003E000C
:103B60005F004F003F006000500040000000000078
:103B70003F8000FFE001FFE003C1F00780F00F008D
:103B8000780E00781E00781E00783C00783C0078A3
:103B90003C00787800787800F87800F07800F078C9
:103BA00000F0F000F0F001E0F001E0F001E0F003DF
:103BB000C0F003C0F00380F00780780F007C1E0087
:103BC0003FFC003FF8000FE0000000000000000094
:103BD0000000000380000780000F80001F8003FFAB
:103BE0000003FF0003FF00001F00001E00001E0076
:103BF000001E00001E00003C00003C00003C0000D5
:103C00003C0000780000780000780000780000F0A8
:103C10000000F00000F00000F00001E00001E00012
:103C20007FFF80FFFF80FFFF00000000000000001A
:103C30003FC001FFF003FFF807C0F807007C040055
:103C40003C00003C00003C00003C00003C000078D0
:103C50000000780000F00001F00003E00007C00061
:103C60000F80001F00003E00007C0000F80001E013
:103C70000007C0000F80001F00003C00007800001B
:103C80007FFFE0FFFFE0FFFFC0000000000000003A
:103C90001FE000FFF801FFFC03E07E03803E02000E
:103CA0001E00001E00001E00001C00003C000078EA
:103CB0000001F0003FC0007F00007FC00003F00063
:103CC00000F0000078000078000078000078000024
:103CD000780000F00000F04001E06003E0FC0FC05D
:103CE000FFFF807FFE000FF00000000000000000DA
:103CF000000000001E00007E0000FC0001FC00032C
:103D0000FC0007FC000F7C001E78003C78007878EF
:103D100000F0F801E0F007C0F00F80F01F01F03E66
:103D200001E07C01E07001E07FFFFEFFFFFEFFFF8E
:103D3000FC0003C00003C00007800007800007806C
:103D4000000780000F00000F0000000000000000CE
:103D5000000001FFFF01FFFF03FFFE03C00003C0DF
:103D60000003C00003C00007C000078000078000F8
:103D700007800007FE000FFF800FFFC00C07E00068
:103D800001F00000F00000F00000F00000F0000082
:103D9000F00001E00001E04003C0E007C0F81F8030
:103DA000FFFF007FFC000FF000000000000000009B
:103DB00007F0003FF000FFF001F82003E00007806B
:103DC000000F00001E00001E00003C00003C000030
:103DD00038FE007BFF007FFF807E07C0F803C0F045
:103DE00003E0F001E0F001E0F001E0F001E0F001BB
:103DF000E0F001E0F003C0F803C07807807C0780A2
:103E00003E1F003FFE001FFC0007F0000000000006
:103E100000000FFFFF1FFFFF1FFFFE00001E00003E
:103E20003E00007C0000780000F80001F00003E094
:103E30000003C00007C0000F80001F00001E00002C
:103E40003E00007C0000F80000F80001F00003E0F4
:103E50000003C00007C0000F80001F00001F00000B
:103E60003E00007C0000F8000000000000000000A0
:103E70003F8000FFF003FFF807C0F80F807C0F00C1
:103E80003C1E003C1E003C1E003C1E00781F0078BB
:103E90000FC0F007F1E003FF8007FF000F3FC01CD9
:103EA00007E03803E07801F07000F0F000F0F00077
:103EB000F0F000F0F001E0F801E0F803C07E0F80C0
:103EC0003FFF001FFE0007F00000000000000000A0
:103ED0007F0001FFC007FFE00F83E01F01F01E001D
:103EE000F03C00783C0078780078780078780078AA
:103EF0007800787800787800783C00F83F03F01F6D
:103F0000FFF00FFEF003F8F00001E00001E0000315
:103F1000C0000780000780001F00003E0040FC003A
:103F2000FFF000FFE000FF000000000000000000C4
:103F30000000000000000000000000000000000081
:103F40000000000000000000000000000000000071
:103F50000000000000000000000000000000000061
:103F60000000000000000000000000000000000051
:103F70000000000000000000000000000000000041
:103F80000000000000000000000000000000000031
:103F90000000000000000000000000000000000021
:103FA0000000000000000000000000000000000011
:103FB0000000000000000000000000000000000001
:103FC00000000000000000000000000000000000F1
:103FD00000000000000000000000000000000000E1
:103FE00000000000F00000F00000000000000000F1
:103FF000000000001F1F1E1E3E3E000000000000CB
:10400000000000007C7C7878F8F8000001F80007D8
:104010000E000E07001C03801801803801C0380113
:10402000C07801E07000E07000E0F000F0F000F017
:10403000F000F0F000F0F000F0F000F0F000F0F030
:1040400000F0F000F0F000F0F000F0F000F0700090
:10405000E07000E07801E03801C03801C01801804C
:104060001C03800E0700070E0001F8000018000076
:10407000180000380001F8000FF800007800007800
:1040800000007800007800007800007800007800D8
:1040900000780000780000780000780000780000C8
:1040A0007800007800007800007800007800007840
:1040B00000007800007800007800007800007800A8
:1040C00000780000F8000FFFC00FFFC001F80006E5
:1040D0000E000807801003C02001C02001E060012D
:1040E000E07801E07E01E07E01E07E03E03E03C077
:1040F0001C03C0000780000F00000F00001E00001E
:104100003C0000780000E00000C0000180000300D7
:10411000200600200C00601800601C00E03FFFE05B
:104120007FFFE0FFFFE0FFFFE000000003F8000C6E
:104130001E00100F002007806003807003C078030A
:10414000C07803C07803C03003C00003C000038000
:10415000000700000E00001C000FF000000E000021
:1041600007000003800003C00001C07001E0F801F7
:10417000E0F801E0F801E0F001E0E001C04003C038
:10418000400380200700181E0007F800000300000D
:104190000700000700000F00001F00001F00003F85
:1041A00000006F00006F0000CF00018F00018F0042
:1041B000030F00060F00060F000C0F00180F001869
:1041C0000F00300F00600F00600F00C00F00FFFFF6
:1041D000F8000F00000F00000F00000F00000F009C
:1041E000000F00001F8000FFF00000001C01801F76
:1041F000FF801FFF001FFE0013F8001000001000DA
:104200000010000010000020000020000023F0003B
:104210003C1C00300F006007806003806003C0001A
:1042200001C00001E00001E07001E0F801E0F801E8
:10423000E0F801E0F801E0F001C0C003C0400380F5
:10424000600700200E00181C0007F000007E00012F
:10425000C3800301C00601C00C03E01C03E01C0383
:10426000E03803E03801C078000070000070000002
:10427000F00000F00000F0FE00F30780F403C0F847
:1042800001E0F801E0F000F0F000F0F000F0700064
:10429000F07000F07000F03000E03000E01801E055
:1042A0001801C00C038007070001FC000000007F1C
:1042B000FFF07FFFF07FFFE07FFFE0600040C00085
:1042C00080C00080C0010080010080030000060063
:1042D000000600000C00000C00001C00001800008C
:1042E000180000380000380000780000700000F06E
:1042F0000000F00000F00000F00001F00001F0000C
:1043000001F00001F00001F00000E00001FC0007F6
:104310000F000C03801C03C03801C03801E0780195
:10432000E07801E07801E07C01C07C03C03E0380BE
:104330003FC7001FFE000FFE0003FF0003FF800EBB
:104340003FC03C07E07803E07801F0F000F0F000B7
:10435000F0F000F0F000F0F000F0F000E07801E0A4
:104360003801C03C03800E0F0003FC0001F8000779
:104370000E001C07003803807801C07001C0700077
:10438000E0F000E0F000E0F000F0F000F0F000F00D
:10439000F000F07801F07801F03C03F00E0CF0032F
:1043A000F0F00000F00000F00000E00000E000008D
:1043B000E03800E07C01C07C01C07C03807C03808D
:1043C000780700380E001C180007E000000000000D
:1043D00000000000000000000000000000000000DD
:1043E00000000000000000000000000000000000CD
:1043F00000000000000000000000000000000000BD
:1044000000000000000000000000000000000000AC
:10441000000000000000000000000000000000009C
:10442000000000000000000000000000000000008C
:10443000000000000000000000000000000000304C
:10444000000030000030000030000030000030007C
:10445000003000003000003000003000FFFFFCFFA3
:10446000FFFC003000003000003000003000003061
:10447000000030000030000030000030000030004C
:10448000000000000000000000000000000000002C
:10449000000000000000000000000000000000001C
:1044A000000000000000000000000000000000000C
:1044B000000000000000000000000000FFFFFCFF03
:1044C000FFFC0000000000000000000000000000F1
:1044D00000000000000000000000000000000000DC
:1044E00000000000000000000000000000000000CC
:1044F0000000000000007F0401C1C403007C06002E
:104500003C0C001C1C000C38000E3800067800061D
:10451000700006700002F00002F00000F00000F0F1
:104520000000F00000F00000F00000F0000070005B
:10453000017800017800023800021C00021C00040F
:104540000E000807001001C060003F80000000005E
:10455000000000000000000000000000000000005B
:104560000000000000000060F0F0F0603102320254
:1045700033023402350236023702380239023A0277
:104580003B023C023D023E023F024002B100B2004B
:10459000B300B400B500B600B700B800B900BA0067
:1045A000BB00BC00BD00BE00BF00C000003C42C359
:1045B000C3C3C3623C000000000000000000000014
:1045C000000000000000000000000000E101E20126
:1045D000E301E401E501E601E701E801E901EA019F
:1045E000EB01EC01ED01EE01EF01F0016100620071
:1045F00063006400650066006700680069006A0087
:104600006B006C006D006E006F0070000E949703DD
:1046100080E08093AD090E94BC0EA3EFB9E08C91BD
:1046200082FB16F40C943723ADEAB9E08C918F5FCE
:104630008C93E4E5FDE70E9456370E942727EDEAB8
:10464000F9E0A0E8BFE30E9485380E941F270E947E
:104650002E2784E690E0D2018D939C9382E00E9405
:104660003C360E94BB0E229682E00E943836A3EFB1
:10467000B9E08C9182FB16F00C940B230E94E706A4
:10468000AFECBEE08C9182FB16F00C945F2370912E
:10469000CF0E7B7F7093CF0EEAE5FDE70E94563781
:1046A0000E942727ACE9B2E10E9421270E942E2711
:1046B0000E94021070916E00716070936E00AFECFA
:1046C000BEE08C9187FB16F00C9468230E94D80AF8
:1046D000AFECBEE08C9186FB16F00C945024A3EF57
:1046E000B9E08C9180FB16F00C9450247091F30982
:1046F0007E7F7093F3090E943D29EFE0F1E0AFE681
:10470000BEE00E942C3981E0EFE6FEE001E00A9372
:10471000ACE6BEE00E943E39ACE6BEE00E94CA387C
:10472000A6EFB9E00C9382E0EFE6FEE001E00A9329
:10473000ACE6BEE00E943E39ACE6BEE00E94CA385C
:10474000A7EFB9E00C9384E0EFE6FEE001E00A9306
:10475000ACE6BEE00E943E39ACE6BEE00E94CA383C
:10476000A8EFB9E00C9385E0EFE6FEE001E00A93E4
:10477000ACE6BEE00E943E39ACE6BEE00E94CA381C
:10478000A9EFB9E00C9387E0EFE6FEE001E00A93C1
:10479000ACE6BEE00E943E39ACE6BEE00E94CA38FC
:1047A000AAEFB9E00C9388E0EFE6FEE001E00A939F
:1047B000ACE6BEE00E943E39ACE6BEE00E94CA38DC
:1047C000ABEFB9E00C9381E08093AD090091AD09A6
:1047D000063018F011F00C943824ADEAB9E0AD9031
:1047E000BB24ABEFB9E0AA0DBB1D4C91ADEAB9E01B
:1047F000AD90BB24A5EFB9E0AA0DBB1D0C91041729
:1048000011F40C943024ADEAB9E0AD90BB24A5EFCF
:10481000B9E0AA0DBB1D8C91ADEAB9E0AD90BB2407
:10482000ABEFB9E0AA0DBB1D8C93ADEAB9E0AD903A
:10483000BB24A5EFB9E0AA0DBB1D8C91D2018C93CE
:1048400081E00E943C368091AD09D2018C9381E0D9
:104850000E943C360E94DE0B249682E00E9438368D
:10486000ADEAB9E08C918F5F8C9310F40C94E62341
:1048700082E0D2018C9381E00E943C360E94E00CE1
:10488000229681E00E94383681E0D2018C9381E04B
:104890000E943C360E94E00C229681E00E9438364D
:1048A000AFECBEE08C9185FB16F00C945025A3EF85
:1048B000B9E08C9180FB16F00C945025A8E1BAE089
:1048C0000E948A39082F043011F00C94BB24ADE10A
:1048D000BAE0E8E3F8E70E9456370E94903911F0F9
:1048E0000C9477248BE08093200A0C948824E6E2D1
:1048F000F8E70E9456370E94903911F00C948524F5
:104900008CE08093200A0C9488248AE08093200A0B
:1049100081E0E8E1FAE001E00A93A5EBB9E00E944A
:104920003E39A5EBB9E00E94CA38A1E2BAE00C9387
:1049300082E0E8E1FAE001E00A93A5EBB9E00E9429
:104940003E39A5EBB9E00E94CA38A2E2BAE00C9366
:1049500084E0E8E1FAE001E00A93A5EBB9E00E9407
:104960003E39A5EBB9E00E94CA38A3E2BAE00C9345
:104970008DE08093240AA8E1BAE00E948A39082FCA
:10498000033011F00C940B258AE08093200AADE1EE
:10499000BAE0E8E3F8E70E9456370E94903911F038
:1049A0000C94D7248BE08093210A0C94E824E6E24F
:1049B000F8E70E9456370E94903911F00C94E524D4
:1049C0008CE08093210A0C94E8248AE08093210AE9
:1049D00081E0E8E1FAE001E00A93A5EBB9E00E948A
:1049E0003E39A5EBB9E00E94CA38A2E2BAE00C93C6
:1049F00082E0E8E1FAE001E00A93A5EBB9E00E9469
:104A00003E39A5EBB9E00E94CA38A3E2BAE00C93A4
:104A10008DE08093240A81E08093CA090091CA093D
:104A2000053018F011F00C943825AAECB9E0AD90DF
:104A3000BB24AFE1BAE0AA0DBB1D8C91D2018C93CF
:104A400081E00E943C368091CA09D2018C9381E0BA
:104A50000E943C360E945F0C249682E00E94383609
:104A6000AAECB9E08C918F5F8C9310F40C940E2516
:104A700081E0D2018C9381E00E943C360E94AE0D11
:104A8000229681E00E94383681E0D2018C9381E049
:104A90000E943C360E94470D229681E00E943836E3
:104AA000AFECBEE08C9184FB16F00C946525A3EF6F
:104AB000B9E08C9183FB16F00C9465257091F30995
:104AC000777F7093F3090E940205AFECBEE08C91F2
:104AD00080FB16F00C9460267091CF0E7E7F709351
:104AE000CF0EE6E6F4E19CE204E132E2A1EDBEE0A5
:104AF0000E94A639A0EDBEE02C930091D00E0030AC
:104B000018F011F00C9486250C945B26ABEFBEE0F8
:104B1000E0E6FDE70E9456370E94903911F00C94B0
:104B2000392681E0E6EEFEE002E00A93AEE4BDE065
:104B30000E943E39AEE4BDE00E941827E4E3FAE7A4
:104B40000E9456370E946F3683E0E6EEFEE002E0F8
:104B50000A93AEE4BDE00E9418270E943E39AEE4FD
:104B6000BDE00E941827E4E3FAE70E9456370E944E
:104B70006F3685E0E6EEFEE002E00A93AEE4BDE0CB
:104B80000E9418270E943E3981E0EEE8FFE002E033
:104B90000A93A9E5BDE00E943E39A9E5BDE00E9467
:104BA0001827E4E1FBE70E9456370E946F3683E046
:104BB000EEE8FFE002E00A93A9E5BDE00E941827B5
:104BC0000E943E39A9E5BDE00E941827E4E1FBE719
:104BD0000E9456370E946F3685E0EEE8FFE002E063
:104BE0000A93A9E5BDE00E9418270E943E39E9E535
:104BF000FDE0FA93EA93EEE4FDE00E949E2AA0EB2A
:104C0000B9E00D931D932D933D93A0EBB9E00D9169
:104C10001D912D913C9140E556E460E070E00E94CA
:104C20005D38A0EBB9E00D931D932D933D93E0EB20
:104C3000F9E0AFE0B1E00E948E2A0E944C29E0EB3F
:104C4000F9E0A6E0B1E00E94962A0E9446290E945F
:104C50003D29AFE0B1E00E9421270E942E270E944B
:104C60003D29A6E0B1E00E9421270E942E270C9446
:104C70005B26A4EBB9E08C918F5F8C93A4EBB9E039
:104C80000C914CE30E947A398C930091B409003066
:104C900011F00C945B26A6EEBEE00E942127E2E60E
:104CA000FDE70E9456370E942727AEE8BFE00E942A
:104CB00021270E942E277091C90070687093C90047
:104CC0000E94E706A3EFB9E08C9187FB16F00C94E5
:104CD000BA267091F3097F777093F30981E090E031
:104CE000A6EEB9E08D939C93A6EEB9E00D911C91D0
:104CF000003053E0150718F011F00C94A626A4EF2D
:104D0000B9E00D911C91A6EEB9E04D915C91040FB4
:104D1000151FA8EEB9E00D931C93A8EEB9E0AD9075
:104D2000BD90A1E3B5E1AA0DBB1D8C91A6EEB9E043
:104D3000AD90BD90AAE3BAE0AA0DBB1D8C93A6EE80
:104D4000B9E00E94D12610F40C947426A8EEB9E0C4
:104D50008D919C91A4EFB9E08D939C93A4EFB9E061
:104D60000D911C9140E057E20E94FE26A4EFB9E0AD
:104D70000D931C930C944023EA2FFB2F8D9180956B
:104D800081934A95D9F708950D911D912D913C91EC
:104D90000F5F1F4F2F4F3F4F3C932E931E930E9349
:104DA0000895ED91FC91EF5FFF4FFC93EE93089512
:104DB00009D00E94423600FC10D0089503D01ED0C6
:104DC00001F8F9CF0024E89457FF02C009D0689495
:104DD00000F80BD010F80124089502D009D00895EE
:104DE000509540954F5F5F4F0895E89417FF0895E1
:104DF000009510950F5F1F4F68940895352F242F4D
:104E0000E894452B11F468940895512F402F002702
:104E1000112780E1440F551F001F111F021B130BA8
:104E2000416018F4020F131F4E7F8A9599F7089579
:104E30008F938D918823E9F711978F910895A0E8BA
:104E4000BFE38D91882311F00CD0FBCF08950E9411
:104E50007536802D11F005D0FACF08958DE001D080
:104E60008AE00090C00005FEFCCF8093C600089544
:104E7000A0E8BFE38D91882311F064D0FBCF0895A3
:104E80008FE7213039F08FEB223021F083E9233096
:104E900009F083ED810F87FF08C083FF06C0804CB7
:104EA000282F20442093333C03C020482093333CD8
:104EB0000C94B3278AEF90E00E944128279A269A03
:104EC000259A249A239A229A2A9885E090E00E94B3
:104ED00041282B982F982E982D9A2C9A2B9AEF9345
:104EE000FF93E9ECF1E00E942B28FF91EF912B98C2
:104EF000C5D02B9AEF93FF93E9ECF1E00E942B28A9
:104F0000FF91EF912B98BAD02B9AEF93FF93E9EC96
:104F1000F1E00E942B28FF91EF912B98AFD02C98B5
:104F20002B9AEF93FF93E9ECF1E00E942B28FF917D
:104F3000EF912B98A3D088E216D08EE014D086E0B3
:104F400012D008959091333C93959093333C9930CF
:104F500021F48F9380EC07D08F912A9A829505D007
:104F600004D08CD008952A98F9CF859510F42C9A06
:104F700001C02C98859510F42D9A01C02D98859527
:104F800010F42E9A01C02E98859510F42F9A01C026
:104F90002F982B9AEF93FF93E9ECF1E00E942B28D6
:104FA000FF91EF912B98089500FC05D0089530D023
:104FB00005D001F8F9CF37D03FD00895842F952F31
:104FC000A62FB72FE894452B462B472B11F4689456
:104FD0000895402F512F622F732F0027112722276A
:104FE0003327F0E2440F551F661F771F001F111F64
:104FF000221F331F081B190B2A0B3B0B416028F49F
:10500000080F191F2A1F3B1F4E7FFA9559F7089565
:105010000024E89477FF02C006D0689400F809D015
:1050200010F80124089512D04F5F5F4F6F4F7F4FEC
:105030000895E89437FF08950095109520953095D0
:105040000F5F1F4F2F4F3F4F689408954095509525
:105050006095709508953197F1F70895279A2698ED
:105060002E9A259A249A8CE58CBD0895089508956A
:10507000689462F80895E89462F8089581E090E0F9
:1050800000C0EF93FF93EE27E82BE92B31F0E0E02F
:10509000F2E13197F1F70197D1F7FF91EF91089580
:1050A0008DE207FD8D938F2D881F802F881F8F57CE
:1050B000082F6894F7F8802F87FF17C08095839595
:1050C000082F80E38D938EE28D93802F815238F0EC
:1050D00080E38D9399279C930E944B370895442732
:1050E0000A95802F09F19ED01FC0805230F09EE4B7
:1050F0009D9381E48D939D93EDCF4427DF92EF92B2
:10510000FF920F938FE1801B11F0082F8BD091D06D
:105110009EE29D930F91FF90EF90DF9044270395BF
:10512000003209F4D5CF33D03F93E4ECF1E50E948F
:10513000563738E12F2D1E2D0D2DFF24EE24DD24B2
:105140004427000F111F221FB8F42F923F920E9494
:105150007536102C0E947536202C0E947536302C26
:105160000E94753631970E949C36410DD21CE31C7B
:10517000F01C3F902F9003C033960E9495363196D5
:105180000E9495363A95E9F63F9107D0A5CFDD0C00
:10519000EE1CFF1C0A95D9F70895002719E058D096
:1051A0008F93802B11F0039501C08F911A95B9F759
:1051B000802F882309F48CCF8F91805D8D930A9581
:1051C000D9F788CF0065CD1D80B2E60E4059730730
:1051D000A0ACB90350D6DC01286BEE009435770003
:1051E000CA9A3B0065CD1D00B2E60E005973070058
:1051F000ACB90300D6DC01006BEE0000357700008F
:105200009A3B0000CD1D0000E60E00007307000071
:10521000B9030000DC010000EE0000007700000090
:105220003B000000F694E794D79447950A95D1F790
:10523000089500270DD08F9303958F2D8E298D29EA
:10524000842BC1F78F91805D8D930A95D9F742CF5A
:105250001F930F93002710E2440FDD1CEE1CFF1C70
:10526000001F802F9AE0890B10F0082F43951A95A4
:1052700099F7802F0F911F910895A6E0B1E0E3E028
:10528000F1E00E948A2933970C946629E6E0F1E068
:10529000A3E0B1E00C947829EFE0F1E0A0E0B1E008
:1052A0000C945429ADE0BB27868197810E94673713
:1052B0000D93838194810E9467370D938081918142
:1052C0000E9467370D930895EDE0FF2782810E94C9
:1052D0005C378AE38D9381810E945C378AE38D93EA
:1052E00080810E945C3788278C930895ADE0BB27AE
:1052F000808191810E9467370D93838194810E9400
:1053000067370D93868197810E9467370D930895C3
:10531000EDE0FF2780810E945C378FE28D938181D1
:105320000E945C378FE28D9382810E945C378827D0
:105330008D93089593E0ADE002C096E0AAE0B0E05E
:105340008FB7F89401910D939A95E1F78FBF089567
:105350000191119145EB55E00E94DE26440F440F68
:10536000F42E0F31150728F481E0E82E0395D02E96
:1053700024C00C33150728F482E0E82E0E51D02EFD
:105380001CC00150150B4DE651E00E94FE26F40EA4
:105390007CE07A95872F9927ECEBF3E50E9456374E
:1053A000A2E1BB270E948B360217130790F3739577
:1053B000E72E021B130B0395D02E089500001F004B
:1053C0003B005A0078009700B500D400F3001101AB
:1053D00030014E01019111912191308140E851E558
:1053E00061E070E00E94D727042F152F0C94AA29A2
:1053F000A1DF0E2D0A95802F0295003220F01F2D7F
:10540000137009F40395DA940D0D11279927E4E23E
:10541000F4E50E945637A8E1BB270E949136080F99
:10542000111F0895000F1B2A384755647381909E01
:1054300081DF0F2D11274CE355270E94D8265527D1
:105440000E0D151F4CE322273327662777270E946E
:105450004C360D0D131F231F08956CDFDF92EF9262
:10546000FF920F2D1127222733274DE651E060E0F0
:1054700070E00E944C36FF904F2D4D5F469546954B
:105480005527662777270E945838EF90DF900F93B3
:105490001F932F933F930E94F929222733277F914F
:1054A0006F915F914F910C94583847DFAF92BF9244
:1054B000CF920E942E2A40E851E561E070E00E9400
:1054C0004C36FF90EF90DF900F931F932F933F93F5
:1054D0000E94192A7F916F915F914F910C945838D7
:1054E000019111912191308140E851E561E070E036
:1054F0000E94D7270C94802A01911191219130812B
:1055000040E15EE060E070E00E94D727F42E4CE3BB
:1055100050E00E94DE26E42ED02E0895AF93BF9374
:105520000E94702ABF91AF910C946429AF93BF93EE
:105530000E94EA29BF91AF910C948829AAE0BB2769
:105540000E945429E991F9910E9476290C94562AD7
:10555000689401C0E8948F939F939FEA0000000035
:105560009A95E1F798948091363C9091373C1EF4DF
:10557000019708F401968093363C9093373C59F09C
:105580008091343C9091353C019708F401968093CA
:10559000343C9093353C9F918F91089500E440E016
:1055A00050E060E070E088C008E44AEA51E0F9CFDA
:1055B00009E482C00AE480C000E540E052E0F1CF97
:1055C00001E57AC008E578C00AE7E9CF0DECE7CF3E
:1055D00009EEE5CF09EE40E050E060E070E46CC019
:1055E000C0D0702FBED0602FBCD0502FBAD0402F6B
:1055F000B8C00E942E2800240ED100270093190164
:10560000AED088EE93E0A6DF11F499EE16C10197B3
:10561000D1F70AE00F93A5D00F910A95D9F7BEDF15
:10562000013069F000E4A0D000279ED000279CD074
:1056300000279AD0002798D005E996D0DECFB4DFB6
:10564000013009F01FC0CCDF513011F44A3A11F09B
:105650009AEEF3C0BFDF003021F07CDFD9F79BEE7C
:10566000ECC0B2DF003021F075DFD9F79CEEE5C069
:10567000B7DF84E08093190176FF1DC08CE0809332
:10568000190119C0A5DF023028F081E080931901CB
:1056900001E404C082E08093190109EE0F937FDFDB
:1056A00000230F9121F056DFC9F79DEEC6C084DFBD
:1056B000002309F0A2CFBAC011E0003409F415E9C3
:1056C000083409F417E807FF14C00F931F934F9392
:1056D0005F936F937F9307E762DF7F916F915F9195
:1056E0004F911F91802F0F910F77823010F0082F6C
:1056F0001EC035D02FDF31D01DD011F008EE17C0FD
:1057000033D0072F31D0062F2FD0052F2DD0042FC7
:105710002BD0012F29D02F9324E623D0189407FFF4
:1057200005C018DF11F02A95C1F798942F910093C6
:105730001B0108950F938F939F9380E197E28093CD
:10574000363C9093373C0DD00F3F19F001DFD9F76D
:1057500098949F918F910F9108952C9808952C9A69
:1057600008950FEF01C000270EBD0DB5001FE8F72B
:105770000EB5089568D031F04ED03CD021DF002323
:1057800011F091EF5AC0EDDF0E3F21F0E3DED9F7C3
:1057900092EF53C092E08827E4DF01930197E1F78D
:1057A000E0DFDFDF43C04FD031F035D023D00ADF58
:1057B000002311F095EF41C0BDDF11F096EF3DC021
:1057C0000EEFD2DF0D3F11F497EF37C092E088273C
:1057D0000191CADF0197E1F7C4DFC3DFC2DF0F71B8
:1057E00000931C01053029F000931B010695086FFA
:1057F00024C01CC04091190143FD08C044275D919D
:105800006D917D91550F661F771F08954D915D91A4
:105810006D917D9108958F939F9380E29EE4809394
:10582000343C9093353C9F918F91089598DF99DF98
:105830009927889490931A0108959F9390DF91DFA0
:105840009F910894F7CF90911901992392EE0895B2
:10585000EDCF91EEF2CF992788940895F4DF29F0E7
:10586000DADFA6DE002319F096EE0C941D2CE0E89A
:10587000FFE377DF0E3F29F06DDEC9F797EE0C945A
:105880001D2C90E080E16DDF01930197E1F769DF66
:1058900068DFCCDFE0E8FFE390911901913081F0FF
:1058A0008081807C803461F437813F73208511854D
:1058B00000271F5F2F4F3F4F110F221F331F1AC0AA
:1058C00033272681237017810085007C005C1F4FE1
:1058D0002F4F818583709285990F881F11F011D009
:1058E000F1F785818F7086500CD0F1F7012F122FC0
:1058F000232F3327E881F981019311932193319369
:105900000895000F111F221F331F8A9508959BDFF2
:1059100029F081DF4DDE002319F096EE0C941D2C4A
:10592000E881F9811EDF0E3F29F014DEC9F797EEFA
:105930000C941D2C90E080E114DF01930197E1F7B6
:1059400010DF0FDF73CF7FDF29F065DF33DE002349
:1059500019F096EE0C941D2CE881F98102DF0E3FC0
:1059600029F0F8DDC9F797EE0C941D2C90E080E14A
:10597000F8DE01930197E1F7F4DEF3DE57CF63DF42
:1059800029F049DF21DE002319F096EE0C941D2C3E
:1059900027DEE881F981719361935193419346CF5A
:1059A00052DF29F038DF12DE002319F096EE0C9456
:1059B0001D2CE881F981D5DED4DE0E3F29F0CADD49
:1059C000C1F797EE0C941D2C90E080E4CADE0193A1
:1059D0000197E1F7C6DEC5DE29CFE1E2F1E0ABE8F1
:1059E000B8E0992791931197E9F70895E8948430E6
:1059F00059F0863049F08E3039F068948B3021F0C0
:105A00008C3011F093E15FC30090230100F8009205
:105A1000230188940895E1E7F3E0D9D245555A4A25
:105A200009F4089550C38A93D8DF8AD3C0F091E176
:105A3000F2DFA8F088818823F9F0E1E3F3E08A95AA
:105A400011F07096FCCF80818F7721F4349680819D
:105A5000CDDF38F48881823078F093E134C3219629
:105A600032C3809322013496AEE6B1E0CDD268D342
:105A700088F392E1D0DF98F38991EEE7F1E0A7D2C5
:105A80004050524094E1F9F4A1E8B1E09DD2AEE675
:105A9000B1E070D266D2A4E2B1E080D2A9E8B1E070
:105AA00091D24050504019F4A7E9B1E06DD2E9E23B
:105AB000F1E07ED2809183018093280196E18823D2
:105AC00011F0833008F0FFC24ED281FD4CD2ADE21E
:105AD000B1E064D2A4E8B1E077D2A1E3B1E07AD238
