:100000000C94460018950000189500001895000003
:1000100018950000189500000C94F2021895000045
:10002000189500001895000018950000189500001C
:10003000189500001895000018950000189500000C
:1000400018950000189500000C94E8011895000020
:100050000C94C30018950000189500001895000036
:1000600018950000189500001895000018950000DC
:100070000C94560118950000189500001895000082
:100080001895000018950000189500008FEF8DBF9F
:10009000C0E8E8E94E2E80E48EBFD0E4FFE35F2E97
:1000A000A89584B7082E882784BF88E19927809374
:1000B000600090936000EEEFFFE3A0E0B1E08827DE
:1000C0008D933197E9F78FE28093C40080E08093AD
:1000D000C50088E18093C10080E08093CD008FE26D
:1000E0008093CC0088E18093C9006624389A269AD0
:1000F000279A3B9A249A209A219A229A239A5498D2
:100100005598569857983C985C9A5D9A5E9A5F9A73
:100110003D983E983F98459A469A479A0C9A0D9A70
:100120000E9A0F9A3A9A85E085BD80E084BD709161
:100130006E00716070936E0085E085BD7091C100A6
:1001400070687093C1007091C90070687093C900A5
:1001500086E880937A0080E080937C0070917A003A
:10016000786070937A0070917A00706870937A006A
:1001700070E170936D007091680074607093680016
:1001800078940C944A190F921F922F923F924F929B
:100190005F927F92AF92BF920F931F932F933F93E3
:1001A0004F935F936F937F938F939F93AF93BF937F
:1001B000CF93DF93EF93FF939FB79F939BB79F934B
:1001C00099279BBFAEE7B6E08091C6008C9384E28E
:1001D000482F00917E06041711F00C94FA007091DC
:1001E0009C02706270939C02A5EBB5E088278C930B
:1001F0000C9437010D3011F00C941F01ACE9B2E002
:100200008C9185FB16F00C941D0170919C027F7DF2
:1002100070939C0280E0A5EBB5E00E94C51B8D9316
:1002200088278C93E5EBF5E0AFE7B6E00E94EC1E83
:1002300070919C02706170939C020C9437010F3195
:1002400018F011F00C9426010C943701ACE9B2E0DF
:100250008C9185FB16F00C943701AEE7B6E08C91DB
:10026000A5EBB5E00E94C51B8D9388278C939F91C9
:100270009BBF9F919FBFFF91EF91DF91CF91BF9166
:10028000AF919F918F917F916F915F914F913F912E
:100290002F911F910F91BF90AF907F905F904F90E3
:1002A0003F902F901F900F90189508950F921F92D6
:1002B0002F923F924F925F927F92AF92BF920F9395
:1002C0001F932F933F934F935F936F937F938F93DE
:1002D0009F93AF93BF93CF93DF93EF93FF939FB71A
:1002E0009F939BB79F9399279BBFAEE7B6E0809102
:1002F000CE008C9384E2482F00917E06041711F003
:100300000C948D0170919C02706270939C02A5EB1D
:10031000B5E088278C930C94CA010D3011F00C9431
:10032000B201ACE9B2E08C9185FB16F00C94B001FF
:1003300070919C027F7D70939C0280E0A5EBB5E0FC
:100340000E94C51B8D9388278C93E5EBF5E0AFE702
:10035000B6E00E94EC1E70919C02706170939C024A
:100360000C94CA010F3118F011F00C94B9010C94DF
:10037000CA01ACE9B2E08C9185FB16F00C94CA017D
:10038000AEE7B6E08C91A5EBB5E00E94C51B8D935E
:1003900088278C939F919BBF9F919FBFFF91EF9167
:1003A000DF91CF91BF91AF919F918F917F916F918D
:1003B0005F914F913F912F911F910F91BF90AF90FF
:1003C0007F905F904F903F902F901F900F901895C7
:1003D0000F921F922F923F924F925F927F92AF9215
:1003E000BF920F931F932F933F934F935F936F93FE
:1003F0007F938F939F93AF93BF93CF93DF93EF93AD
:10040000FF939FB79F939BB79F9399279BBF78EBD1
:1004100076BDA0E9B2E08C918F5F8C93A0E9B2E049
:100420000C9148E00E94281F8C93009190020030AC
:1004300011F00C945402A1E9B2E00C9140E20E9448
:10044000281F8C93EAE8F1E30E94B71DA6E9B2E009
:100450008C919927A2E9B2E00E946E1D80919102D1
:10046000A2E9B2E00E94A21D0E94981D0C900822F1
:10047000689409F4E894A2E3B2E08C9183F98C9338
:10048000A2E3B2E08C9198E089278C93A2E3B2E0DA
:100490008C9183FBA8E2B0E08C9180F98C93A1E968
:1004A000B2E08C918F5F8C93A7E9B2E08C918F5F63
:1004B0008C93A7E9B2E00C9144E60E94281F8C932C
:1004C00000919702003011F00C94890270919C0207
:1004D000706470939C0270910901706470930901BB
:1004E000ACE1B2E08C918F5F8C9300911C02409143
:1004F0001D020E94281FACE1B2E08C9300911C0207
:10050000003011F00C9489027091090171607093B0
:100510000901A2E3B2E08C9180FB16F00C94AB02CF
:10052000AAE9B2E00E947E1BADE9B2E04D915C9178
:10053000AAE9B2E00D911C910417150711F00C9473
:10054000AB0270919C02706870939C0270913202B1
:100550007E7F70933202A9E0B1E08C9185FB16F0AA
:100560000C94D402A2E1B1E00E947E1BA2E1B1E0B2
:100570000D911C9144EF51E00E94AB1BA2E1B1E050
:100580000D931C93A2E1B1E00D911C91003050E05D
:10059000150711F00C94D40280E080936B027091E7
:1005A00009017F7D709309019F919BBF9F919FBF20
:1005B000FF91EF91DF91CF91BF91AF919F918F917B
:1005C0007F916F915F914F913F912F911F910F916B
:1005D000BF90AF907F905F904F903F902F901F9073
:1005E0000F9018950F921F922F923F924F925F9209
:1005F0007F92AF92BF920F931F932F933F934F938E
:100600005F936F937F938F939F93AF93BF93CF939A
:10061000DF93EF93FF939FB79F939BB79F93992788
:100620009BBFAEE8B2E08C918F5F8C93349B0C94AF
:100630001C032F9A0C941D032F98A6E2B0E00C9196
:1006400004FB81E00EF080E08F93AEE8B2E00C9105
:1006500000FB81E00EF080E09F918923882311F454
:100660000C947603AAE6B2E089B18C9394E0AAE6F2
:10067000B2E00E944C1DABE6B2E08C918F5F8C9390
:1006800080916A02ABE6B2E0AD90BB24ABE6B2E08B
:10069000AA0DBB1D8C93ABE6B2E00C9144E10E9425
:1006A000281F8C9300916B02013011F00C945D03B4
:1006B0007091090170627093090100916B02003022
:1006C00011F00C94680370913202706270933202E0
:1006D00000916B020E3018F011F00C9471030C9421
:1006E0007603709132027062709332029F919BBFC9
:1006F0009F919FBFFF91EF91DF91CF91BF91AF91FC
:100700009F918F917F916F915F914F913F912F9129
:100710001F910F91BF90AF907F905F904F903F904F
:100720002F901F900F901895409842982C9AEAEDC0
:10073000F3E40E94B71D0E94D41B0E94DB1BA0E8BB
:10074000BFE3E0E0F4E40E94B71D0E94271D0E9471
:10075000CC1B0E94DB1BA0E8BFE3E4E1F4E40E94B1
:10076000B71D0E94271D0E94CC1B0E94DB1BA0E826
:10077000BFE3ECE1F4E40E94B71D0E94271D0E9434
:10078000CC1B0E94DB1B81E08093960281E080936A
:1007900029028CE291E0AEE1B2E08D939C9381E07E
:1007A00080932B0281E080932C02E4E0F0E0A2E24F
:1007B000B2E00E941E1FE8E2F4E40E94B71D0E940E
:1007C000D41BE2E2F2E0A0E8BFE30E94351E0E94E3
:1007D000CC1B0E94DB1B81E08093BA020091BA021D
:1007E000033018F011F00C944204AAEBB2E0AD9083
:1007F000BB24A8EBB2E0AA0CBB1CAA0CBB1CAA0D24
:10080000BB1DEAEBF2E0A190BB24E5E0F0E0AA0C0E
:10081000BB1CAA0CBB1CEA0DFB1D94E00E94211F0F
:10082000E6E3F4E40E94B71D0E94D41BEAEBF2E079
:10083000A0E8BFE30E94351E0E94CC1BECE3F4E469
:100840000E94B71D0E94D41BEAEBF2E0A190BB24EA
:10085000E8EBF2E0AA0CBB1CAA0CBB1CEA0DFB1DCA
:10086000A0E8BFE30E94AB1F0E941C1C0E94CC1B8F
:100870000E94DB1BAAEBB2E08C918F5F8C9310F48B
:100880000C94EE03A3E2B2E0E5E0F0E094E00E9415
:10089000211FE0E4F4E40E94B71D0E94D41BE3E2B0
:1008A000F2E0A0E8BFE30E94AB1F0E941C1C0E9464
:1008B000CC1B0E94DB1B709109017F7770930901AB
:1008C0008AE080931D02ECE5F4E40E94B71D0E94CB
:1008D000D41BEDE1F2E0A0E8BFE30E94351E0E94C8
:1008E000CC1B0E94DB1BE5E1F0E0A0EEB2E00E9431
:1008F000201FE2E6F4E40E94B71D0E94D41BE0EE44
:10090000F2E0A0E8BFE30E94251E0E94CC1B0E94DB
:10091000DB1BE7E1F0E0A2EEB2E00E94201FEEE672
:10092000F4E40E94B71D0E94D41BE2EEF2E0A0E8BE
:10093000BFE30E94251E0E94CC1B0E94DB1B84E1AA
:1009400080933302EAE7F4E40E94B71D0E94D41BAF
:10095000E3E3F2E0A0E8BFE30E94351E0E94CC1B57
:100960000E94DB1B81E080930001009100010430B4
:1009700018F011F00C94FA04E0E0F1E0A190BB242F
:10098000E8E1F0E0EA0DFB1DA0E0B1E0AD90BB2492
:10099000A3EEB2E0AA0DBB1D0E941E1FE0E8F4E426
:1009A0000E94B71D0E94D41BE0E0F1E0A0E8BFE385
:1009B0000E94351E0E94CC1BE8E8F4E40E94B71D9B
:1009C0000E94D41BE0E0F1E0A190BB24E3EEF2E052
:1009D000EA0DFB1DA0E8BFE30E94351E0E94CC1B60
:1009E0000E94DB1BA0E0B1E08C918F5F8C9310F430
:1009F0000C94B5040895EAECF3E40E94B71D0E943C
:100A0000FA20E9E0F0E0ADE0BB2794E07BE70E944C
:100A1000101FEAECF3E40E94B71D0E94FA20EDE0FB
:100A2000F0E0ADE0BB2794E07BE70E94101FEAEC0A
:100A3000F3E40E94B71D0E94FA20E1E1F0E0ADE08E
:100A4000BB2794E07BE70E94101FE4E0F0E0A0E108
:100A5000BB278EE08C937BE70E940D1FEEECF3E446
:100A60000E94B71D0E94FA20E5E0F0E0ADE0BB2750
:100A700094E07BE70E94101FE5E1F0E000E010E069
:100A8000A0E1BB277BE70E940F1FE7E1F0E000E059
:100A900010E0A0E1BB277BE70E940F1FE9E1F0E037
:100AA000A0E1BB2780E88C937BE70E940D1FEAE161
:100AB000F0E0A0E1BB2780E88C937BE70E940D1F4C
:100AC000EBE1F0E0A0E1BB2780E88C937BE70E949C
:100AD0000D1FECE1F0E0A0E1BB2780E88C937BE701
:100AE0000E940D1F0895A881B9818D919C91ADE957
:100AF000B2E08D939C9380E090E0AAE9B2E08D9300
:100B00009C9370919C027F7770939C02709132024B
:100B1000716070933202ACE9B2E08C9187FB16F4FD
:100B20000C949505A8950C948B05089581E080930D
:100B3000000100910001043018F011F00C94DD0563
:100B40000091000141E0041BA2E0B1E00C93A0E0A1
:100B5000B1E0AD90BB24A3EEB2E0AA0DBB1D4C9159
:100B6000A0E0B1E0AD90BB24A5E3B2E0AA0DBB1DAF
:100B70000C91041710F00C94CA0580910201A8EEA4
:100B8000B2E00E94A21D0E94981D8C9189238C9333
:100B90000C94D50580910201A8EEB2E00E94A21D3E
:100BA0000E94981D9C91982B9C93A0E0B1E08C91A1
:100BB0008F5F8C9310F40C949905D201E8EEF2E06B
:100BC0000E94C21ED2010E94CE1B0E94DB1B089510
:100BD000EAE8F4E40E94B71D0E94D41B0E94DB1BCC
:100BE000A2E2B2E08C9180FBAAE3B2E08C9180F9A2
:100BF0008C93A2E2B2E08C9181FBAAE3B2E08C91EB
:100C000081F98C93A2E2B2E08C9182FBAAE3B2E07C
:100C10008C9182F98C93A2E2B2E08C9183FBAAE3DF
:100C2000B2E08C9183F98C93A9E2B2E08C9180FBC5
:100C3000AAE3B2E08C9184F98C93A9E2B2E08C91A2
:100C400081FBAAE3B2E08C9185F98C93A9E2B2E032
:100C50008C9182FBAAE3B2E08C9186F98C93A9E295
:100C6000B2E08C9183FBAAE3B2E08C9187F98C937C
:100C7000E3E2F2E0A5E0B1E00E94F11E80910501FF
:100C800080933B028091060180933C028091070192
:100C900080933D028091080180933E02ACE2B2E075
:100CA0008C9180FBAFE3B2E08C9180F98C93ACE245
:100CB000B2E08C9181FBAFE3B2E08C9181F98C932F
:100CC000ACE2B2E08C9182FBAFE3B2E08C9182F9AE
:100CD0008C93ACE2B2E08C9183FBAFE3B2E08C91F9
:100CE00083F98C930E949605A8EEB2E08C9180FB6C
:100CF000AFE3B2E08C9184F98C93A8EEB2E08C91D2
:100D000081FBAFE3B2E08C9185F98C93A8EEB2E061
:100D10008C9182FBAFE3B2E08C9186F98C93A8EEC4
:100D2000B2E08C9183FBAFE3B2E08C9187F98C93B6
:100D30008091D402809340028091D5028093410239
:100D40008091D602809342028091D7028093430221
:100D50008091D802809344028091D9028093450209
:100D60008091DA02809346028091DB0280934702F1
:100D7000EAE3F2E08EE00E94521FA0E0B1E00C93A3
:100D800080910001809348028091220280934A0260
:100D90008091290280934B0283E08093040181E0DB
:100DA00080930001009100010E3018F011F00C94B6
:100DB0001A070091000141E0040FA2E0B1E00C939A
:100DC000A2E0B1E0AD90BB24A9E3B2E0AA0DBB1D47
:100DD0008C9180930301009103014FE00423A4E070
:100DE000B1E0AD90BB24A9E4B2E0AA0DBB1D0C9309
:100DF000A4E0B1E08C918F5F8C9394E0A3E0B1E02C
:100E00000E944C1D80910301A4E0B1E0AD90BB2491
:100E1000A9E4B2E0AA0DBB1D8C93A4E0B1E08C91D3
:100E20008F5F8C93A0E0B1E08C918F5F8C9310F476
:100E30000C94D2060895439A84E690E0D2018D93F3
:100E40009C9382E00E94151D0E947305229682E009
:100E50000E94111D81E080930A0100910A010E3168
:100E600018F011F00C949807AAE0B1E0AD90BB2403
:100E7000A9E4B2E0AA0DBB1D8C9180FBA5E2B0E015
:100E80008C9180F98C93AAE0B1E0AD90BB24A9E4E9
:100E9000B2E0AA0DBB1D8C9181FBA5E2B0E08C9164
:100EA00081F98C93AAE0B1E0AD90BB24A9E4B2E053
:100EB000AA0DBB1D8C9182FBA5E2B0E08C9182F95A
:100EC0008C93AAE0B1E0AD90BB24A9E4B2E0AA0DF6
:100ED000BB1D8C9183FBA5E2B0E08C9183F98C93D0
:100EE0002E9A2C9888E090E0D2018D939C9382E01A
:100EF0000E94151D0E947305229682E00E94111D1A
:100F00002C9A2E9884E090E0D2018D939C9382E0FD
:100F10000E94151D0E947305229682E00E94111DF9
:100F2000AAE0B1E08C918F5F8C9310F40C942D07A4
:100F300043980895349B0C940B08AAE6B2E089B15B
:100F40008C9394E0AAE6B2E00E944C1DE8E9F4E438
:100F50000E94B71D0E94D41BEAE6F2E0A0E8BFE3BE
:100F60000E94A91E0E94CC1B0E94DB1BABE6B2E0D4
:100F70008C918F5F8C9380916A02ABE6B2E0AD906A
:100F8000BB24ABE6B2E0AA0DBB1D8C93ABE6B2E08E
:100F90000C914CE00E94281F8C9300916B02003052
:100FA00011F00C940B08ECE9F4E40E94B71D0E94C8
:100FB000D41B0E94DB1B81E080930A0100910A018F
:100FC0000C3018F011F00C940B08EAE0F1E0A0E806
:100FD000BFE30E94351E0E94CC1BE0EAF4E40E94AD
:100FE000B71D0E94D41BEAE0F1E0A190BB24EBE620
:100FF000F2E0EA0DFB1DA0E8BFE30E94A91E0E94DB
:10100000CC1B0E94DB1BAAE0B1E08C918F5F8C931C
:1010100010F40C94DE07089500912B02013011F0BA
:101020000C943C0980E080938F02A6E2B0E08C91A2
:1010300085FBAFE8B2E08C9180F98C93A6E2B0E03A
:101040008C9186FBAFE8B2E08C9181F98C93009192
:101050002902013011F00C948E08A2E3B2E08C91C9
:1010600087FB16F40C94390881E0809396020C9467
:101070003C088BE08093960200918F02023011F0C1
:101080000C945B08E2EAF4E40E94B71D0E94D41BB2
:101090000E94DB1B82E080932902709109017F7717
:1010A0007093090182E0809396028EE190E0AEE1B8
:1010B000B2E08D939C9300918F02003081E009F0A3
:1010C00080E08F9300918F02013081E009F080E091
:1010D0009F91892B882311F40C948C08E2EBF4E4A3
:1010E0000E94B71D0E94D41B0E94DB1B83E08093EB
:1010F000290283E080939602709109017F777093B3
:101100000901709132027061709332028EE190E0B9
:10111000AEE1B2E08D939C930C94EA08023011F09A
:101120000C94BD0800918F02033011F00C94BB08A1
:10113000ECECF4E40E94B71D0E94D41B0E94DB1B60
:1011400081E08093290281E08093960270910901E9
:101150007F77709309018CE390E0AEE1B2E08D936C
:101160009C93A2E3B2E08C9187FB16F00C94BB0831
:101170008BE0809396020C94EA08033011F00C94F3
:10118000EA0800918F02033011F00C94EA08E0EFB6
:10119000F4E40E94B71D0E94D41B0E94DB1B81E077
:1011A0008093290281E080939602709109017F77F4
:1011B000709309018CE390E0AEE1B2E08D939C93D3
:1011C000A2E3B2E08C9187FB16F00C94EA088BE066
:1011D0008093960240912A0200912902041711F48B
:1011E0000C943A09709109017F777093090170910D
:1011F00032027064709332028091290280932A0235
:10120000E6E1F5E40E94B71D0E94D41BE9E2F2E09A
:10121000A0E8BFE30E94351E0E94CC1B0E94DB1B8E
:1012200000912902013011F00C941E098CE390E02A
:10123000AEE1B2E08D939C930C943409023011F02E
:101240000C942A098EE190E0AEE1B2E08D939C937C
:101250000C943409033011F00C9434098EE190E0C1
:10126000AEE1B2E08D939C9380E090E0AFE2B2E01B
:101270008D939C930C94AB0980912B02809329024F
:10128000809129028093960200912902013081E029
:1012900009F080E08F93A2E3B2E08C9187FB81E0BC
:1012A0000EF080E09F918923882311F40C945B0950
:1012B0008BE08093960240912A0200912902041744
:1012C00011F40C94AB09709109017F7770930901B7
:1012D0008091290280932A02E8E2F5E40E94B71D7A
:1012E0000E94D41BE9E2F2E0A0E8BFE30E94351EB1
:1012F0000E94CC1B0E94DB1B7091320270647093C1
:10130000320200912902013011F00C948F0988E516
:1013100092E0AEE1B2E08D939C930C94A50902306B
:1013200011F00C949B098EE190E0AEE1B2E08D9358
:101330009C930C94A509033011F00C94A5098EE13F
:1013400090E0AEE1B2E08D939C9380E090E0AFE25C
:10135000B2E08D939C9300912902013011F00C941E
:10136000B209429800912902023011F00C94B90997
:10137000429A00912902033011F00C94C009429A5C
:1013800000912902003011F00C94C7094298009195
:101390002902033018F011F00C94D0090C94D109F3
:1013A00042980895A881B9818C9180FBA2E2B0E0B7
:1013B0008C9184F98C93A881B9818C9181FBA2E2F4
:1013C000B0E08C9185F98C93A881B9818C9182FBD6
:1013D000A2E2B0E08C9186F98C93A881B9818C91BE
:1013E00083FBA2E2B0E08C9187F98C93089581E0B1
:1013F0008093BA020091BA02033018F011F00C94F5
:101400004F0AEEECF1E30E94B71DAAEBB2E08C911B
:101410009927ABEBB2E00E946A1D00917C00007E30
:101420008091BB0290E0890F082700937C000E9406
:101430002D1DA8EBB2E08D939C93E8EBF2E0D190E8
:10144000E080FF2400270E94DF1F0E94B51FEAEB07
:10145000F2E0A190BB24EBE9F2E0AA0CBB1CAA0CC1
:10146000BB1CEA0DFB1D0E94AB1F0E94AC20EDE0EF
:10147000F0E0AAEBB2E0AD90BB24ABE9B2E0AA0C7D
:10148000BB1CAA0CBB1CAA0DBB1D0E94F11EAAEB23
:10149000B2E08C918F5F8C9310F40C94FA09ABEA54
:1014A000B2E08C918F5F8C93ABEAB2E00C9148E094
:1014B0000E94281F8C930091AB02003011F00C9415
:1014C000290B81E08093BA020091BA02033018F030
:1014D00011F00C94170BE2EDF3E40E94B71D0E948B
:1014E0000721EAEBF2E0A190BB24EBE9F2E0AA0CC1
:1014F000BB1CAA0CBB1CEA0DFB1D0E94AB1F0E946B
:101500000C20EDE0F0E0AAEBB2E0AD90BB24A8EA3D
:10151000B2E0AA0CBB1CAA0CBB1CAA0DBB1D0E94EE
:10152000F11EAAEBB2E0AD90BB24ABE9B2E0AA0C8D
:10153000BB1CAA0CBB1CAA0DBB1DEEECF3E40E9465
:10154000B71D0E94621DEAEBF2E0A190BB24E8EB1C
:10155000F2E0AA0CBB1CAA0CBB1CEA0DFB1D0E94EE
:10156000B01FEAEBF2E0A190BB24E8EAF2E0AA0C9B
:10157000BB1CAA0CBB1CEA0DFB1D0E94AB1F0E94EA
:101580006520EDE0F0E0AAEBB2E0AD90BB24A4EC66
:10159000B2E0AA0CBB1CAA0CBB1CAA0DBB1D0E946E
:1015A000F11E00911101013011F00C940F0BEAE4CF
:1015B000F5E40E94B71D0E94D41BEAEBF2E0A0E81C
:1015C000BFE30E94351E0E94CC1BE8E8F4E40E94B1
:1015D000B71D0E94D41BEAEBF2E0A190BB24E4EC1F
:1015E000F2E0AA0CBB1CAA0CBB1CEA0DFB1D0E945E
:1015F000AB1FA0E8BFE3AF93BF930E941C1C11E098
:1016000001E0BF91AF910E94CA1DE0E8FFE3A0E8AE
:10161000BFE30E94EC1E0E94CC1B0E94DB1BAAEBC6
:10162000B2E08C918F5F8C9310F40C94640AE8EC18
:10163000F2E0A4EDB2E00E94F11EECECF2E0A8EDC5
:10164000B2E00E94F11EE0EDF2E0ACEDB2E00E94EB
:10165000F11E0895AFE7B6E00E94CE1B0E94DB1B8F
:1016600081E0EFE7F6E006E00A93A5EEB1E00E9424
:10167000F71EEFE7F6E09CE204E132E2ABEEB2E007
:101680000E94761FAAEEB2E02C93ABEEB2E00E946D
:10169000381F082F063011F00C943015EBEEF2E0F5
:1016A000A4E1B1E00E94EC1EE4E1F1E0A4E1B1E0CC
:1016B0000E948C1D8FEF8093E401A4E1B1E0EEE481
:1016C000F5E40E94B71D0E943E1F11F00C94A90B77
:1016D00080E08093E401ABE1B1E0E6E5F5E40E944F
:1016E000B71D0E94271DA5EEB1E0EAE6F5E40E94D1
:1016F000B71D0E94271DE5EEF1E0ABE1B1E00E94CD
:10170000C51B0E94EC1EABE1B1E00E94C51BEEE7D9
:10171000F5E40E94B71D0E94271DA5EEB1E0ECE1A3
:10172000F4E40E94B71D0E94271DE5EEF1E0ABE155
:10173000B1E00E94C51B0E94EC1EABE1B1E00E942B
:10174000C51BECE8F5E40E94B71D0E94271D0C9410
:101750002E15EEE8F5E40E94B71D0E943E1F11F021
:101760000C94E80B0091EA02023011F00C94E30BA8
:10177000A0E0B3E00E947A1EA0E0B1E00C930091DB
:101780000001013110F00C94DE0B80E08093E40145
:10179000ABE1B1E0E6E9F5E40E94B71D0E94271D28
:1017A000E0E0F1E0ABE1B1E00E94C51B0E94351E14
:1017B00080910001809396020C94E10B85E0809368
:1017C000E4010C94E60B84E08093E4010C942E1564
:1017D000EEEAF5E40E94B71D0E943E1F11F00C9442
:1017E000060C80E08093E401ABE1B1E0E6EBF5E4C8
:1017F0000E94B71D0E94271DE6E9F2E0ABE1B1E0CF
:101800000E94C51B0E94351E0C942E15E2ECF5E4D7
:101810000E94B71D0E943E1F11F00C94500C0091C5
:10182000EA02023011F00C944B0C80E08093E4014A
:10183000A0E0B3E00E947A1EACE0B1E00D931C93EF
:10184000ACE0B1E08D919C91A0E2B2E08D939C93CD
:10185000E2E0F0E0ACE0B1E07BE70E940F1FABE11B
:10186000B1E0EAECF5E40E94B71D0E94271DE0E21A
:10187000F2E0ABE1B1E00E94C51B0E94251EABE186
:10188000B1E00E94C51BE2EFF5E40E94B71D0E9483
:10189000271D0C944E0C84E08093E4010C942E15CB
:1018A000E6EFF5E40E94B71D0E943E1F11F00C9474
:1018B0009A0C0091EA02023011F00C94950C80E031
:1018C0008093E401A0E0B3E00E947A1EACE0B1E0B6
:1018D0000D931C93ACE0B1E08D919C91AAE1B2E034
:1018E0008D939C93E0E0F0E0ACE0B1E07BE70E94F8
:1018F0000F1FABE1B1E0EEEFF5E40E94B71D0E94CF
:10190000271DEAE1F2E0ABE1B1E00E94C51B0E94B5
:10191000251EABE1B1E00E94C51BE2EFF5E40E9499
:10192000B71D0E94271D0C94980C84E08093E4015D
:101930000C942E15ECE2F6E40E94B71D0E943E1FA7
:1019400011F00C94DD0C0091EA02023011F00C94BD
:10195000D80C80E08093E401A0E0B3E00E94142161
:10196000EDE0F0E0A5E0B1E00E94F11EE5E0F1E07D
:10197000A3E2B2E00E94F11EE5E0F0E0A5E0B1E0F4
:1019800094E07BE70E94101FABE1B1E0E4E3F6E4F2
:101990000E94B71D0E94271DE3E2F2E0ABE1B1E037
:1019A0000E94C51B0E94AB1F0E941C1C0C94DB0CE8
:1019B00084E08093E4010C942E15EEE4F6E40E949A
:1019C000B71D0E943E1F11F00C94050D80E080931E
:1019D000E401ABE1B1E0E6E5F6E40E94B71D0E9448
:1019E000271DE0E2F2E0ABE1B1E00E94C51B0E94DE
:1019F000251EABE1B1E00E94C51BE2EFF5E40E94B9
:101A0000B71D0E94271D0C942E15E0E7F6E40E94F6
:101A1000B71D0E943E1F11F00C942D0D80E08093A5
:101A2000E401ABE1B1E0E8E7F6E40E94B71D0E94F3
:101A3000271DEAE1F2E0ABE1B1E00E94C51B0E9484
:101A4000251EABE1B1E00E94C51BE2EFF5E40E9468
:101A5000B71D0E94271D0C942E15E8E9F6E40E949C
:101A6000B71D0E943E1F11F00C944D0D80E0809335
:101A7000E401ABE1B1E0E0EAF6E40E94B71D0E94A8
:101A8000271DE3E2F2E0ABE1B1E00E94C51B0E943A
:101A9000AB1F0E941C1C0C942E15E0EBF6E40E9478
:101AA000B71D0E943E1F11F00C949E0D0091EA029A
:101AB000023011F00C94990D80E08093E401A0E0D5
:101AC000B3E00E947A1EACE0B1E00D931C93ABE151
:101AD000B1E0E8EBF6E40E94B71D0E94271DECE0A0
:101AE000F1E0ABE1B1E00E94C51B0E94251EE6ECCF
:101AF000F6E40E94B71D0E94D41B0E94DB1BACE0E1
:101B0000B1E08D919C91D2018D939C9382E00E94D3
:101B1000151D0E947305229682E00E94111DEAECB9
:101B2000F6E40E94B71D0E94D41B0E94DB1B0C949C
:101B30009C0D84E08093E4010C942E15EEECF6E409
:101B40000E94B71D0E943E1F11F00C94B90D80E059
:101B50008093E40170913202726070933202ABE1C3
:101B6000B1E0E6EDF6E40E94B71D0E94271D0C943B
:101B70002E15EAEEF6E40E94B71D0E943E1F11F0FA
:101B80000C94F00D0091EA02023011F00C94EB0D70
:101B900080E08093E401A0E0B3E00E947A1EA2E21C
:101BA000B2E00C93E4E0F0E0A2E2B2E07BE70E9456
:101BB0000D1FABE1B1E0E2EFF6E40E94B71D0E9419
:101BC000271DE2E2F2E0ABE1B1E00E94C51B0E94FA
:101BD000351E0C94EE0D84E08093E4010C942E15D8
:101BE000E4E1F7E40E94B71D0E943E1F11F00C943F
:101BF0000E0E80E08093E401ABE1B1E0ECE1F7E4AC
:101C00000E94B71D0E94271DE2E2F2E0ABE1B1E0C5
:101C10000E94C51B0E94351E0C942E15E2E3F7E4CA
:101C20000E94B71D0E943E1F11F00C948A0E009175
:101C3000EA02053111F00C94850E80E08093E401F6
:101C4000ABE1B1E0EAE3F7E40E94B71D0E94271D73
:101C5000E6E5F7E40E94B71D0E94D41BE6E9F2E036
:101C6000A0E8BFE30E94351E0E94CC1B0E94DB1B34
:101C700080E08093000182E080930A0100910A01D4
:101C8000053118F011F00C946E0EA0E0B1E08C91CB
:101C90008F5F8C93AAE0B1E00D91112745E150E0F0
:101CA0000E941D1DA6EDB2E0A00FB11F0E94D21E22
:101CB000A2E0B1E00C9380910201A0E0B1E0AD9010
:101CC000BB24ABE6B2E0AA0DBB1D8C93AAE0B1E049
:101CD0008C918F5F8C9310F40C943E0E70913202B5
:101CE000706270933202E4E6F7E40E94B71D0E942E
:101CF000D41BE6E9F2E0A0E8BFE30E94351E0E9493
:101D0000CC1B0E94DB1B0C94880E84E08093E401C2
:101D10000C942E15E2E7F7E40E94B71D0E943E1FC7
:101D200011F00C94100F0091EA02033011F00C94A2
:101D30000B0FA0E0B3E00E947A1EA0E0B1E00C938C
:101D400000910001033018F011F00C94060F80E0B0
:101D50008093E401A5E1B3E00E941421EDE0F0E0FE
:101D6000A5E0B1E00E94F11EE5E0F1E0A0E0B1E005
:101D7000AD90BB24A8EBB2E0AA0CBB1CAA0CBB1C08
:101D8000AA0DBB1D0E94F11EE0E0F1E0A190BB2472
:101D9000E5E0F0E0AA0CBB1CAA0CBB1CEA0DFB1D85
:101DA000A5E0B1E094E07BE70E94101FABE1B1E059
:101DB000EAE7F7E40E94B71D0E94271DE0E0F1E08A
:101DC000ABE1B1E00E94C51B0E94351EABE1B1E062
:101DD0000E94C51BE8E8F4E40E94B71D0E94271D7D
:101DE000E0E0F1E0A190BB24E8EBF2E0AA0CBB1C20
:101DF000AA0CBB1CEA0DFB1DABE1B1E00E94C51BA8
:101E00000E94AB1F0E941C1C0C94090F85E080935C
:101E1000E4010C940E0F84E08093E4010C942E15E1
:101E2000ECE8F7E40E94B71D0E943E1F11F00C94ED
:101E3000680F80E08093E401ABE1B1E0E4E9F7E40E
:101E40000E94B71D0E94271D81E080930B01009125
:101E50000B01033018F011F00C94660FEBE0F1E089
:101E6000ABE1B1E00E94C51B0E94351EABE1B1E0C1
:101E70000E94C51BE8E8F4E40E94B71D0E94271DDC
:101E8000EBE0F1E0A190BB24E8EBF2E0AA0CBB1C74
:101E9000AA0CBB1CEA0DFB1DABE1B1E00E94C51B07
:101EA0000E94AB1F0E941C1CABE1B1E00E94C51B4D
:101EB000E0EAF4E40E94B71D0E94271DABE0B1E008
:101EC0008C918F5F8C9310F40C94270F0C942E152B
:101ED000E2EAF7E40E94B71D0E943E1F11F00C9445
:101EE000810F80E08093E401ABE1B1E0EAEAF7E43E
:101EF0000E94B71D0E94271D81E0809311010C9460
:101F00002E15E4ECF7E40E94B71D0E943E1F11F06D
:101F10000C94E50F0091EA02023011F00C94AD0F21
:101F200080E08093E401ABE1B1E0ECECF7E40E94E7
:101F3000B71D0E94271DE0E0F3E0ABE1B1E00E9495
:101F4000C51B0E94EC1E7091090170687093090115
:101F500080E080932C020C94E30F033011F00C947A
:101F6000E00F80E08093E401ABE1B1E0ECECF7E45A
:101F70000E94B71D0E94271DE0E0F3E0ABE1B1E055
:101F80000E94C51B0E94EC1EABE1B1E00E94C51B84
:101F9000E0EAF4E40E94B71D0E94271DE5E1F3E0AA
:101FA000ABE1B1E00E94C51B0E94EC1E70910901DB
:101FB00070687093090180E080932C020C94E30F09
:101FC00084E08093E4010C942E15E2EEF7E40E9485
:101FD000B71D0E943E1F11F00C9415100091EA02EB
:101FE000023011F00C94101080E08093E401A0E026
:101FF000B3E00E947A1EADE1B2E00C93ABE1B1E038
:10200000EAEEF7E40E94B71D0E94271DEDE1F2E021
:10201000ABE1B1E00E94C51B0E94351E0C94131069
:1020200084E08093E4010C942E15EEEFF7E40E9417
:10203000B71D0E943E1F11F00C94331080E0809376
:10204000E401ABE1B1E0ECE5F4E40E94B71D0E94CD
:10205000271DEDE1F2E0ABE1B1E00E94C51B0E945B
:10206000351E0C942E15E6E0F8E40E94B71D0E9480
:102070003E1F11F00C9464100091EA02023011F03E
:102080000C945F1080E08093E401A0E0B3E00E9434
:102090007A1EAFE2B2E00D931C93ABE1B1E0EEE04B
:1020A000F8E40E94B71D0E94271DEFE2F2E0ABE1C9
:1020B000B1E00E94C51B0E94251E0C94621084E0B2
:1020C0008093E4010C942E15E4E2F8E40E94B71D1D
:1020D0000E943E1F11F00C949C100091EA02023005
:1020E00011F00C94971080E08093E401A0E0B3E03D
:1020F0000E947A1EA0EEB2E00D931C93E5E1F0E0A1
:10210000A0EEB2E07BE70E940F1FABE1B1E0ECE292
:10211000F8E40E94B71D0E94271DE0EEF2E0ABE15B
:10212000B1E00E94C51B0E94251E0C949A1084E009
:102130008093E4010C942E15E4E4F8E40E94B71DAA
:102140000E943E1F11F00C94D4100091EA0202305C
:1021500011F00C94CF1080E08093E401A0E0B3E094
:102160000E947A1EA2EEB2E00D931C93E7E1F0E02C
:10217000A2EEB2E07BE70E940F1FABE1B1E0ECE41E
:10218000F8E40E94B71D0E94271DE2EEF2E0ABE1E9
:10219000B1E00E94C51B0E94251E0C94D21084E061
:1021A0008093E4010C942E15E6E6F8E40E94B71D36
:1021B0000E943E1F11F00C94041180E08093E40112
:1021C000ABE1B1E0EEE6F8E40E94B71D0E94271DE6
:1021D000E0EEF2E0ABE1B1E00E94C51B0E94251EDB
:1021E000ABE1B1E00E94C51BE6E7F8E40E94B71D31
:1021F0000E94271DE2EEF2E0ABE1B1E00E94C51BB8
:102200000E94251E0C942E15E2E8F8E40E94B71DEA
:102210000E943E1F11F00C94541180E08093E40161
:10222000ABE1B1E0EAE8F8E40E94B71D0E94271D87
:10223000E4EDF2E00E94AB1FA0E8BFE3AF93BF93D1
:102240000E941C1C11E002E0BF91AF910E94CA1DC8
:10225000E0E8FFE3ABE1B1E00E94C51B0E94EC1E89
:10226000ABE1B1E00E94C51BE0E9F8E40E94B71DB4
:102270000E94271DE8EDF2E00E94AB1FA0E8BFE33B
:10228000AF93BF930E941C1C11E002E0BF91AF917D
:102290000E94CA1DE0E8FFE3ABE1B1E00E94C51B6C
:1022A0000E94EC1E0C942E15E8E9F8E40E94B71D7C
:1022B0000E943E1F11F00C94711180E08093E401A4
:1022C0000E94FB04ABE1B1E0E0EAF8E40E94B71D34
:1022D0000E94271D709109017860709309010C9488
:1022E0002E15E0ECF8E40E94B71D0E943E1F11F08D
:1022F0000C948C1180E08093E40170910901786066
:1023000070930901ABE1B1E0E8ECF8E40E94B71D7D
:102310000E94271D0C942E15EEEDF8E40E94B71DC7
:102320000E943E1F11F00C94F3110091EA0202305A
:1023300011F00C94EE11A0E0B3E00E947A1EA0E030
:10234000B1E00C9300910001023010F00C94E911FF
:1023500080E08093E40100910001013011F00C94C1
:10236000CD1170913202706870933202ABE1B1E02E
:10237000E6EEF8E40E94B71D0E94271DA2E3B2E03A
:102380008C9187FBABE1B1E00E94C51B0E94A81DA8
:102390008D9388278C930C94E711709132027F778C
:1023A00070933202ABE1B1E0E6EEF8E40E94B71DB3
:1023B0000E94271DA2E3B2E08C9187FBABE1B1E064
:1023C0000E94C51B0E94A81D8D9388278C930C9496
:1023D000EC1185E08093E4010C94F11184E080938A
:1023E000E4010C942E15EEEFF8E40E94B71D0E9454
:1023F0003E1F11F00C94161280E08093E401ABE1D3
:10240000B1E0E6E0F9E40E94B71D0E94271DA2E3B7
:10241000B2E08C9187FBABE1B1E00E94C51B0E944A
:10242000A81D8D9388278C930C942E15E0E1F9E478
:102430000E94B71D0E943E1F11F00C945312009190
:10244000EA02023011F00C944E12A0E0B3E00E94B8
:102450007A1EA0E0B1E00C9380910001D2018C9330
:1024600081E00E94151D0E94D209229681E00E94FF
:10247000111DABE1B1E0E8E1F9E40E94B71D0E9453
:10248000271DE0E0F1E0ABE1B1E00E94C51B0E9436
:10249000351E80E08093E4010C94511284E0809317
:1024A000E4010C942E15ECE3F9E40E94B71D0E94A0
:1024B0003E1F11F00C94A4120091EA02023011F0B8
:1024C0000C949F1280E08093E401A0E0B3E00E94AE
:1024D0007A1EA0E0B1E00C9300910001023010F0F0
:1024E0000C949A1200910001013011F00C947B12AF
:1024F000429A0C947C124298ABE1B1E0E4E4F9E436
:102500000E94B71D0E94271DE0E0F1E0ABE1B1E0C1
:102510000E94C51B0E94351EE3E0F0E00E94FE1BF6
:10252000EAE4F9E40E94B71D0E94D41B0E94DB1B61
:102530000C949D1285E08093E4010C94A21284E037
:102540008093E4010C942E15E2E5F9E40E94B71D96
:102550000E943E1F11F00C94D4120091EA02023046
:1025600011F00C94CF1280E08093E401A0E0B3E07E
:102570000E947A1EA0E1B1E00C93ABE1B1E0EAE584
:10258000F9E40E94B71D0E94271DE0E1F1E0ABE1F4
:10259000B1E00E94C51B0E94351E0C94D21284E04B
:1025A0008093E4010C942E15ECE6F9E40E94B71D2B
:1025B0000E943E1F11F00C94F21280E08093E4011F
:1025C000ABE1B1E0E4E7F9E40E94B71D0E94271DEA
:1025D000E0E1F1E0ABE1B1E00E94C51B0E94351ED5
:1025E0000C942E15ECE7F9E40E94B71D0E943E1FE3
:1025F00011F00C94641380E08093E401ABE1B1E04E
:10260000E4E8F9E40E94B71D0E94271DE4EDF2E022
:102610000E94AB1FA0E8BFE3AF93BF930E941C1CB6
:1026200011E001E0BF91AF910E94CA1DE0E8FFE315
:10263000ABE1B1E00E94C51B0E94EC1EABE1B1E032
:102640000E94C51BEAE8F9E40E94B71D0E94271DFD
:10265000E8EDF2E00E94AB1FA0E8BFE3AF93BF93A9
:102660000E941C1C11E001E0BF91AF910E94CA1DA5
:10267000E0E8FFE3ABE1B1E00E94C51B0E94EC1E65
:10268000ABE1B1E00E94C51BE2E9F9E40E94B71D8D
:102690000E94271DECEDF2E00E94AB1FA0E8BFE313
:1026A000AF93BF930E941C1C11E001E0BF91AF915A
:1026B0000E94CA1DE0E8FFE3ABE1B1E00E94C51B48
:1026C0000E94EC1E0C942E15EAE9F9E40E94B71D55
:1026D0000E943E1F11F00C94D1130091EA020330C6
:1026E00011F00C94CC13A0E0B3E00E947A1EA0E09D
:1026F000B1E00C9300910001003080E010F009F08F
:1027000081E08F9300910001053081E008F080E0C6
:102710009F918923882311F40C94C713A5E1B3E09A
:102720000E947A1EA2E0B1E00C9380910201A0E029
:10273000B1E0AD90BB24A5E3B2E0AA0DBB1D8C9324
:10274000ABE1B1E0E2EAF9E40E94B71D0E94271D67
:10275000E0E0F1E0ABE1B1E00E94C51B0E94351E54
:10276000ABE1B1E00E94C51BE8E8F4E40E94B71DAC
:102770000E94271DE2E0F1E0ABE1B1E00E94C51B41
:102780000E94351E80E08093E4010C94CA1385E01A
:102790008093E4010C94CF1384E08093E4010C94C3
:1027A0002E15EEEAF9E40E94B71D0E943E1F11F0BB
:1027B0000C9432140091EA02023011F00C942D14A2
:1027C000A0E0B3E00E947A1EA0E0B1E00C9300917B
:1027D0000001003080E010F009F081E08F9300915B
:1027E0000001053081E008F080E09F918923882373
:1027F00011F40C94281480E08093E401ABE1B1E083
:10280000E6EBF9E40E94B71D0E94271DE0E0F1E02D
:10281000ABE1B1E00E94C51B0E94351EABE1B1E007
:102820000E94C51BE8E8F4E40E94B71D0E94271D22
:10283000E0E0F1E0A190BB24E5E3F2E0EA0DFB1D4E
:10284000ABE1B1E00E94C51B0E94351E0C942B1415
:1028500085E08093E4010C94301484E08093E401DB
:102860000C942E15EEEBF9E40E94B71D0E943E1F5A
:1028700011F00C94B3140091EA02033011F00C949F
:10288000AE14A0E0B3E00E947A1EA0E0B1E00C9389
:1028900000910001003080E010F009F081E08F939A
:1028A00000910001053081E008F080E09F918923CC
:1028B000882311F40C94A91480E08093E401A5E12D
:1028C000B3E00E947A1EA0E0B1E0AD90BB24A3EE7D
:1028D000B2E0AA0DBB1D0C93E0E0F1E0A190BB2497
:1028E000E8E1F0E0EA0DFB1DA0E0B1E0AD90BB2413
:1028F000A3EEB2E0AA0DBB1D7BE70E940D1FABE16A
:10290000B1E0E6ECF9E40E94B71D0E94271DE0E06B
:10291000F1E0ABE1B1E00E94C51B0E94351EABE1C6
:10292000B1E00E94C51BECEDF9E40E94B71D0E94C6
:10293000271DE0E0F1E0A190BB24E3EEF2E0EA0D18
:10294000FB1DABE1B1E00E94C51B0E94351E0C943B
:10295000AC1485E08093E4010C94B11484E080937E
:10296000E4010C942E15E0EEF9E40E94B71D0E94DC
:102970003E1F11F00C940D150091EA02023011F087
:102980000C94081500910001003080E010F009F06F
:1029900081E08F9300910001053081E008F080E034
:1029A0009F918923882311F40C94031580E0809370
:1029B000E401ABE1B1E0E8EEF9E40E94B71D0E944A
:1029C000271DE0E0F1E0ABE1B1E00E94C51B0E94F1
:1029D000351EABE1B1E00E94C51BE8E8F4E40E94BB
:1029E000B71D0E94271DE0E0F1E0A190BB24E3EEBB
:1029F000F2E0EA0DFB1DABE1B1E00E94C51B0E94B5
:102A0000351E0C94061585E08093E4010C940B159B
:102A100084E08093E4010C942E15E4EFF9E40E9425
:102A2000B71D0E943E1F11F00C942B1580E080937F
:102A3000E401ABE1B1E0ECEFF9E40E94B71D0E94C4
:102A4000271DABE1B1E00E94C51BE8EEF2E00E9459
:102A5000C21E0C942E1581E08093E4010C94331572
:102A600082E08093E4010091E401003018F011F05D
:102A70000C943C150C944A15E0EBF0E30E94B71D52
:102A8000A4EEB1E08C9199270E94841DABE1B1E0E6
:102A90000E94271DABE1B1E00E94CE1B0E94DB1B10
:102AA0000895E4E0FAE40E94B71D0E94D41B0E943E
:102AB000DB1B8091700280932702809171028093CA
:102AC000280280E08093030181E080930A01009155
:102AD0000A01043118F011F00C94C115EAE0F1E09C
:102AE000A190BB24EBE6F2E0EA0DFB1DA0E8BFE3FA
:102AF0000E94A91E0E94CC1BE0EAF4E40E94B71DCC
:102B00000E94D41BAAE0B1E00C9100FB16F00C94DB
:102B10009615AAE0B1E0AD90BB24ABE6B2E0AA0DF9
:102B2000BB1D8C91809300010C94B915AAE0B1E013
:102B3000AD90BB24ABE6B2E0AA0DBB1D8C91809397
:102B4000020194E0A2E0B1E00E94441DA3E0B1E0E4
:102B50008C918F5F8C930091000140910201042BB6
:102B6000A3E0B1E0AD90BB24A1E8B2E0AA0DBB1D8B
:102B70000C93AAE0B1E08C918F5F8C9310F40C94CD
:102B800067150E94DB1BE0E1FAE40E94B71D0E947A
:102B9000D41B0E94DB1B81E080930A0100910A0193
:102BA0000A3018F011F00C94F115EAE0F1E0A19070
:102BB000BB24E1E8F2E0EA0DFB1DA0E8BFE30E94C0
:102BC000A91E0E94CC1BE0EAF4E40E94B71D0E94FB
:102BD000D41BAAE0B1E08C918F5F8C9310F40C941D
:102BE000CE150E94DB1B88E090E0A2E8B2E00E94D4
:102BF000621FACE0B1E00D931C93EAE1FAE40E949D
:102C0000B71D0E94D41BECE0F1E0A0E8BFE30E94F6
:102C1000AB1E0E94CC1B0E94DB1B90918A0280910C
:102C20008B02AEE0B1E08D939C93E0E2FAE40E9467
:102C3000B71D0E94D41BEEE0F1E0A0E8BFE30E94C4
:102C4000AB1E0E94CC1B0E94DB1BAEE0B1E04D919D
:102C50005C91ACE0B1E00D911C910417150711F0E7
:102C60000C943A18E8E2FAE40E94B71D0E94D41BC3
:102C7000A0EEB2E00E947E1BE5E1F0E0A0EEB2E043
:102C80007BE70E940F1FE0EEF2E0A0E8BFE30E94A6
:102C9000251E0E94CC1B0E94DB1B00918202043285
:102CA00081E009F080E08F9300918302053581E097
:102CB00009F080E09F918923882311F40C94301847
:102CC000E0E3FAE40E94B71D0E94D41B0E94DB1BC4
:102CD000EEE3FAE40E94B71D0E94D41BE5E8F2E09F
:102CE000A0E8BFE30E94351E0E94CC1B0E94DB1BA4
:102CF0008091850280933302409127020091220245
:102D0000041711F00C948E17A3E2B2E0E6EDF3E4A1
:102D10000E94B71D0E940721E3E2F2E00E94AB1F70
:102D20000E94AC20EDE0F0E0A3E2B2E00E94F11ED0
:102D3000E5E0F0E0A3E2B2E094E07BE70E94101F40
:102D4000E8E4FAE40E94B71D0E94D41BE3E2F2E03B
:102D5000A0E8BFE30E94AB1F0E941C1C0E94CC1B7A
:102D60000E94DB1B0E94E805E0E5FAE40E94B71D23
:102D70000E94D41B0E94DB1B81E080930A0100911A
:102D80000A010F3018F011F00C94E216EAE0F1E0BD
:102D9000A190BB24E9E3F2E0EA0DFB1DA0E8BFE34C
:102DA0000E94A91E0E94CC1BE0EAF4E40E94B71D19
:102DB0000E94D41BAAE0B1E08C918F5F8C9310F439
:102DC0000C94BF160E94DB1BA8E2B2E00C9103FB3F
:102DD00016F40C940A17709132027F7770933202C6
:102DE000EAE5FAE40E94B71D0E94D41BA2E3B2E018
:102DF0008C9187FBA0E8BFE30E94A81D8D938827D4
:102E00008C930E94CC1B0E94DB1B81E08093960276
:102E10000C94271770913202706870933202E6E6C4
:102E2000FAE40E94B71D0E94D41BA2E3B2E08C9189
:102E300087FBA0E8BFE30E94A81D8D9388278C9391
:102E40000E94CC1B0E94DB1B8BE08093960270914A
:102E50002802777F709328028091280280932B02AA
:102E6000E2E7FAE40E94B71D0E94D41BEBE2F2E015
:102E7000A0E8BFE30E94351E0E94CC1B0E94DB1B12
:102E800080912B02809329020E94DB1BEEE7FAE47B
:102E90000E94B71D0E94D41B0E94DB1BE2E3F7E4F3
:102EA0000E94B71D0E94D41B81E080930A0100910B
:102EB0000A010E3118F011F00C947A17E0EAF4E4EC
:102EC0000E94B71D0E94D41BEAE0F1E0A190BB2450
:102ED000E9E4F2E0EA0DFB1DA0E8BFE30E94A91EB1
:102EE0000E94CC1BAAE0B1E08C918F5F8C9310F410
:102EF0000C9457170E94DB1B88EC90E0D2018D9355
:102F00009C9382E00E94151D0E947305229682E028
:102F10000E94111D0E941B070C942E18009127027D
:102F20000F3011F00C94BC17EAE8FAE40E94B71DC8
:102F30000E94D41B0E94DB1B83E080932B0283E062
:102F40008093290283E080939602E2E7FAE40E94EC
:102F5000B71D0E94D41BEBE2F2E0A0E8BFE30E94A1
:102F6000351E0E94CC1B0E94DB1B709132027F77C2
:102F7000709332020C942E18009127020E3011F03B
:102F80000C94EA17E8E9FAE40E94B71D0E94D41BEA
:102F90000E94DB1B82E080932B0282E08093290257
:102FA00082E080939602709132027F7770933202B2
:102FB000E2E7FAE40E94B71D0E94D41BEBE2F2E0C4
:102FC000A0E8BFE30E94351E0E94CC1B0E94DB1BC1
:102FD0000C942E18009127020D3011F00C94081853
:102FE000E4EAFAE40E94B71D0E94D41B0E94DB1B96
:102FF000709132027F777093320281E080932B02CE
:1030000081E08093290281E0809396020C942E182F
:10301000009127020C3011F00C942618E2EBFAE430
:103020000E94B71D0E94D41B0E94DB1B81E080938D
:103030002B0281E0809329028BE0809396027091AD
:1030400032027068709332020C942E18E4ECFAE4A9
:103050000E94B71D0E94D41B0E94DB1B0C943818E1
:10306000E8EEFAE40E94B71D0E94D41B0E94DB1B0D
:103070000C945518E6EFFAE40E94B71D0E94D41B89
:10308000A2EEB2E00E947E1BE7E1F0E0A2EEB2E029
:103090007BE70E940F1FE2EEF2E0A0E8BFE30E9490
:1030A000251E0E94CC1B0E94DB1B0E94DB1B089587
:1030B0004F4B00436F6D616E646F206E6F207265C1
:1030C000636F6E6F6369646F004C6F6E67697475D0
:1030D0006420636F6D616E646F206E6F2076616C2B
:1030E000696461004E756D65726F2064652075734B
:1030F000756172696F206E6F2076616C69646F0014
:103100004E756D65726F20646520706172616D65CA
:1031100074726F7320696E76616C69646F004572BA
:10312000726F72206C6F6E67697475642070617263
:10313000616D6574726F2031004572726F72206C20
:103140006F6E676974756420706172616D65747209
:103150006F203200506172616D6574726F206E6F06
:103160002076616C69646F004552524F52380045B9
:1031700052524F522053442E20496E74656E74652E
:10318000206465206E7565766F0000000000030006
:1031900000003300000033030000333300003333FA
:1031A000030033C00C00FF0FFF0F55555555333347
:1031B0003333777777770000FFFFCC00FCFFCC0C30
:1031C000FCFFCCCCFCFF0C00FCFFF0FFFFFF00007D
:1031D00001020300000000000101010103040404D6
:1031E00006060606060607000000000101010103AD
:1031F0000404040606060606060700000000010196
:103200000101030404040606060606060404060675
:103210000707070707000606060606060404060653
:103220000606060604040706060606060604040645
:103230000606060606040406060606060604040636
:103240000606060606040407060606060606040425
:103250000606060606060600080808080808080804
:1032600008080808060606080808080808080808E4
:103270000808080606060C0C0C0C0C0C0C0C0C0CAC
:103280000C0C0C0C0C0C0C0C0C0C0C0C0C0C0C0C7E
:103290000C0C0C0C0E949403ACE9B2E08C9184FB02
:1032A00016F00C94661970919C027F7E70939C02BC
:1032B000E0E0FBE40E94B71D0E94D41BAFE7B6E03C
:1032C0000E94CE1B0E94DB1B0E942A0BA2E3B2E0ED
:1032D0008C9185FB16F00C947419709132027F7DED
:1032E000709332020E9451150E940C08A2E3B2E0D2
:1032F0008C9184FB16F00C948A19709132027F7EB7
:1033000070933202E6E0FBE40E94B71D0E94D41BDA
:103310000E94DB1BACE9B2E08C9186FB16F00C94AA
:103320000D1A70919C027F7B70939C020E94F7099A
:10333000A2E3B2E08C9186FB16F00C940D1A00917A
:103340003402043010F00C94CC190091340241E0A6
:10335000040FA9EEB2E00C93E0E1FBE40E94B71D7C
:103360000E94D41BE9EEF2E0A0E8BFE30E94351E04
:103370000E94CC1B0E94DB1BE0E1FBE40E94B71D16
:103380000E94ED1BE9EEF2E0A0E8BFE30E94351ECB
:103390000E94E51B0E94F41BA4E3B2E08C918F5FB6
:1033A0008C93A4E3B2E00C914AE00E94281F8C9316
:1033B00000913402003011F00C940D1AEAE1FBE4A4
:1033C0000E94B71D0E94D41BE5E3F2E0A0E8BFE332
:1033D0000E94351E0E94CC1B0E94DB1BA5E3B2E0BD
:1033E0008C918F5F8C93A5E3B2E00C9143E00E9437
:1033F000281F8C9300913502003011F00C940D1AA7
:10340000709132027F7B70933202E8E2FBE40E940B
:10341000B71D0E94D41B0E94DB1B379B0C94381AEB
:103420000027A9E0B1E08C9184FB00F94427A6E2D3
:10343000B0E08C9187FB40F9041711F40C94361A14
:10344000EAE3FBE40E94B71D0E94D41B0E94DB1B31
:10345000A6E2B0E08C9187FBA9E0B1E08C9184F901
:103460008C93709109017B7F709309010C945E1A13
:103470000027A9E0B1E08C9184FB00F94427A6E283
:10348000B0E08C9187FB40F9041711F40C945E1A9C
:10349000E2E4FBE40E94B71D0E94D41B0E94DB1BE8
:1034A000A6E2B0E08C9187FBA9E0B1E08C9184F9B1
:1034B0008C9370910901746070930901A9E0B1E0E7
:1034C0008C9186FB16F00C94CA1A709109017F7BCF
:1034D00070930901A9E0B1E08C9187FB16F40C947C
:1034E000CA1AEAE4FBE40E94B71D0E94D41BE9E279
:1034F000F2E0A0E8BFE30E94351E0E94CC1BE0EA88
:10350000F4E40E94B71D0E94D41BE3E3F2E0A0E8BC
:10351000BFE30E94351E0E94CC1B0E94DB1BEAE425
:10352000FBE40E94B71D0E94ED1BE9E2F2E0A0E877
:10353000BFE30E94351E0E94E51BE0EAF4E40E940E
:10354000B71D0E94ED1BE3E3F2E0A0E8BFE30E9499
:10355000351E0E94E51B0E94F41BA1E3B2E08C9192
:103560008F5F8C93A1E3B2E00C914AE00E94281F88
:103570008C9300913102003011F00C94CA1AE4E5EA
:10358000FBE40E94B71D0E94D41B0E94DB1B81E05C
:1035900080932C02A9E0B1E08C9180FB16F00C9492
:1035A0006E1B709109017E7F70930901AFE2B2E05A
:1035B0000E947E1BAFE2B2E00D911C91AEE1B2E041
:1035C0004D915C910E94AB1BAFE2B2E00D931C9356
:1035D000A2E3B2E08C9187FB16F40C94271B0091B8
:1035E0002902013011F00C94011BE4EDF1E30E947B
:1035F000B71DAFE2B2E08D919C91AEE2B2E00E94C5
:103600006A1D00912902023011F00C94131BE8E5A9
:10361000F2E30E94B71DAFE2B2E08D919C91AEE261
:10362000B2E00E946A1D00912902033011F00C944F
:10363000251BE6E7F2E30E94B71DAFE2B2E08D91F1
:103640009C91AEE2B2E00E946A1D0C942A1B87E0B6
:1036500080932E0200911001013011F00C94611B37
:10366000EFE2F2E0A0E8BFE30E94251E0E94CC1B1F
:10367000E0EAF4E40E94B71D0E94D41BEEE2F2E0FF
:10368000A0E8BFE30E94351E0E94CC1BE0EAF4E4F0
:103690000E94B71D0E94D41BECE6FBE40E94B71DFC
:1036A0000E94D41BA2E3B2E08C9187FBA0E8BFE3A9
:1036B0000E94A81D8D9388278C930E94CC1B0E948A
:1036C000DB1B80912E02D2018C9381E00E94151D9C
:1036D0000E94D209229681E00E94111DA9E0B1E06A
:1036E0008C9183FB16F00C947C1B70910901777F01
:1036F000709309010E9494030C944C19ED91FC9174
:10370000EF5FFF4FFC93EE93089509D00E941D1DBB
:1037100000FC10D0089503D01ED001F8F9CF00248A
:10372000E89457FF02C009D0689400F80BD010F855
:103730000124089502D009D00895509540954F5F17
:103740005F4F0895E89417FF0895009510950F5F57
:103750001F4F68940895352F242FE894452B11F4BA
:1037600068940895512F402F0027112780E1440FBE
:10377000551F001F111F021B130B416018F4020F8D
:10378000131F4E7F8A9599F708958F938D91882303
:10379000E9F711978F910895A0E8BFE38D918823F1
:1037A00011F00CD0FBCF08950E94541D802D11F014
:1037B00005D0FACF08958DE001D08AE00090C000D6
:1037C00005FEFCCF8093C6000895A0E8BFE38D916D
:1037D000882311F00CD0FBCF08950E94541D802D3A
:1037E00011F005D0FACF08958DE001D08AE0009065
:1037F000C80005FEFCCF8093CE00089588EE93E0CC
:103800000CD03197D9F708953197F1F7089568945E
:1038100062F80895E89462F80895EF93FF93EE2715
:10382000E82BE92B31F0E3E3F7E03197F1F701976B
:10383000D1F7FF91EF9108958DE207FD8D938F2DC4
:10384000881F802F881F8F57082F6894F7F8802FC4
:1038500087FF17C080958395082F80E38D938EE2B4
:103860008D93802F815238F080E38D9399279C931C
:103870000E94AC1D089544270A95802F09F19ED01F
:103880001FC0805230F09EE49D9381E48D939D9300
:10389000EDCF4427DF92EF92FF920F938FE1801BD1
:1038A00011F0082F8BD091D09EE29D930F91FF9045
:1038B000EF90DF9044270395003209F4D5CF33D041
:1038C0003F93ECE5F9E30E94B71D38E12F2D1E2D43
:1038D0000D2DFF24EE24DD244427000F111F221F8D
:1038E000B8F42F923F920E94541D102C0E94541D38
:1038F000202C0E94541D302C0E94541D31970E9490
:103900007D1D410DD21CE31CF01C3F902F9003C085
:1039100033960E94761D31960E94761D3A95E9F6FF
:103920003F9107D0A5CFDD0CEE1CFF1C0A95D9F7FF
:103930000895002719E058D08F93802B11F003953C
:1039400001C08F911A95B9F7802F882309F48CCF85
:103950008F91805D8D930A95D9F788CF0065CD1D35
:1039600080B2E60E40597307A0ACB90350D6DC0113
:10397000286BEE0094357700CA9A3B0065CD1D0098
:10398000B2E60E0059730700ACB90300D6DC0100A3
:103990006BEE0000357700009A3B0000CD1D000063
:1039A000E60E000073070000B9030000DC01000010
:1039B000EE000000770000003B000000F694E79462
:1039C000D79447950A95D1F7089500270DD08F9386
:1039D00003958F2D8E298D29842BC1F78F91805DC2
:1039E0008D930A95D9F742CF1F930F93002710E2CA
:1039F000440FDD1CEE1CFF1C001F802F9AE0890B7A
:103A000010F0082F43951A9599F7802F0F911F9169
:103A1000089501911191219130810895481A590A10
:103A20000895481A8827580A089599275A924A9261
:103A3000480E591E0895015010400F92B801469F3C
:103A40008001479F100D569F100D0F9008950E9402
:103A5000541D0D920020D9F7089570917A0070647A
:103A600070937A0000907A0006FCFCCF70917A0087
:103A7000706470937A0000907A0006FCFCCF80910D
:103A80007800909179000895903029F08C91880FFA
:103A90009A95E9F78C930895903029F08C9186954A
:103AA0009A95E9F78C930895D895319628F48F93D9
:103AB0008BB783958BBF8F910020089591E005C04F
:103AC00092E003C094E001C098E0EEDF0D929A9579
:103AD000E1F70895E80FF91F09D0F0CF880F991F7B
:103AE000880F991FE80FF91F01D0ECCF28F48F93AE
:103AF0008BB783958BBF8F91089528F48F938BB7E5
:103B00008A958BBF8F9108950196019721F00E94AD
:103B1000541DE9F7FACF0895819104D08D9388233D
:103B2000D9F70895813618F08B3708F48F7D089502
:103B300091E0882321F08894991F8A95E9F7892FCD
:103B400090950895883018F011968850FBCF08950D
:103B500080E30EF4839508950F9200240BBE0F901E
:103B600008950F9301E00BBF0F91889408950F9370
:103B70000027F9CF0F9302E0F6CF99278D91939507
:103B80008823E1F7939511968C9311978E919A95CE
:103B9000D1F70895EA2FFB2F00244C918D910394C7
:103BA0008E32E1F711248D9113948823E1F71A9452
:103BB000101640F41197202F2119239580E38D933F
:103BC0002A95E9F7113039F59927AE2FBF2FA00DAF
:103BD000B91FA00FB91F8C919C93853308F421C0A5
:103BE00031E08E918E32E9F38D3241F0830F8A33CA
:103BF00019F480E331E001C033278C93AE1789F7C5
:103C0000332341F0AE2FBF2FB8DF81E34D3209F4EB
:103C10003196808308958827E00DF81FE00FF81F84
:103C200080830895040F151F261F371F0895000F66
:103C3000111F221F331F0895009510952095309570
:103C40000F5F1F4F2F4F3F4F0895019110810FC0FD
:103C50000E94091D0EC00E94091D10C00191108113
:103C600017FF05C03FEF2FEF04C000811127222767
:103C7000332737FF03C0E0DF8DE28D93CF92DF92D1
:103C8000EF92AA24BB24CC24DD24EE2440E2EAE017
:103C9000FF2755E093E38081890F87FD9F7083FDA7
:103CA000907F891B81935A95A9F7C1DFAA1CBB1C81
:103CB000CC1CDD1CEE1C4A9551F7E894EFE0FF2781
:103CC00082910BD0EB30E0F71EF068948A2D09D07A
:103CD0004D93EF90DF90CF900895982F829501D06B
:103CE000892F8F70805D26F0803309F408956894E1
:103CF0008D93089500271127222733271DD08A335B
:103D000028F4803318F005D015D0F9CF0EF494CFF5
:103D1000089580538F93402F512F622F732F87DF89
:103D200086DF80DF84DF8F919927080F191F291FF5
:103D3000391F08958D910895E894FCDF8032E9F3EE
:103D40008B32D9F38930C9F38D3211F46894F2CFF4
:103D5000089541E003C042E001C044E0E40F882739
:103D6000F81F8291982F829506D0892F04D04A950A
:103D7000C1F70C94E91E8F708A3008F0895F805D6E
:103D80008D93089541E0E40F8827F81F829138E071
:103D900098E1880F991F9D933A95D1F74A95B1F70D
:103DA0000C94E91E00271127222733278D918823A1
:103DB00079F03DDF3CDF3BDF3ADFB4DE815408F4CD
:103DC000895F865F080F8827181F281F381FEECFCE
:103DD000089588278D93089581918D938823E1F725
:103DE000089594E081918D939A95E1F70895099152
:103DF0009191992359F08A95D9F73197002331F0A1
:103E000081918D930A958823C9F70895E2CFF99996
:103E1000FECFE1BDF2BD3196089591E001C092E080
:103E20007B3751F47FB7F894F2DF8D9180BDFA9A19
:103E3000F99A9A95C9F77FBF7727089591E001C055
:103E400092E0E5DFF89A80B58D939A95D1F70895C1
:103E5000FF93881BF9E0001FFA9511F4FF91089574
:103E6000881F841B18F4840F8894F5CF0894F3CF2F
:103E70008FEF83959D919923E1F70895689401C090
:103E8000E894AF93BF938D9116F0919103C00E9477
:103E9000541D902D891718F011F48823A1F7BF91B4
:103EA000AF91089500276CE8719198E00695779599
:103EB00077FF18F477FD08F006279A95B9F78A95E9
:103EC00099F708950027112730E141E20D90102560
:103ED00028E08894001F111F10F4132704272A9547
:103EE000C1F7019799F70895689401C0E8942227D3
:103EF000102F231709F4089526F40E94541D802DD5
:103F000001C08191803081F0891741F070E08D937C
:103F10001A9591F7239571E01D93EACF01D0E8CF70
:103F2000703011F077270895772331F4239588278F
:103F300013958D931A95E9F70895B7FE089590E8C3
:103F4000B91611F4D0FE08959FEFD91AE90AF90ABB
:103F500009F403950895D190E190F19001910895AD
:103F600021913191419151910895502F2D2D3E2D48
:103F70004F2D612F0895D094E094F09491E0D90EE4
:103F80009927E91EF91E10950895652F90E8440FB2
:103F9000551F5927990F47956078102F90E8FF0C0F
:103FA000001F0927990FF794107800380895FF0C27
:103FB00090E89027110F9795F794092F08951127EE
:103FC000BD2CDE2CEF2CF02E0EE1FF2039F4FE2C60
:103FD000ED2CDB2CBB240850C2F752C032F00A95FE
:103FE000BB0CDD1CEE1CFF1CF9CFA7DFE0CF2DECD6
:103FF0003CEC4CEC5DE366270FC0ADDFB6DFDD24A3
:10400000EE2490E8F92E0FE307C0AADF05C02227AF
:10401000332740E251E46627552351F1002381F113
:10402000B4DF71F11627005850580894050B18F4A6
:1040300007FD03C025C007FD23C04695379527958A
:10404000F694E794D79425D0FF202AF0DD0CEE1CDF
:10405000FF1C015073F09D2D969548F0DD203AF439
:10406000EE202AF491E0D90E9927E91EF91E9FCF80
:1040700007C09FE7092FF92A9FEFD92EE92E08954F
:10408000DD24EE24FF240027112708950FE79FEF7A
:10409000F2CF9F929924AA24BB2488E1D216E3068A
:1040A000F40628F0D21AE30AF40A089401C08894AE
:1040B000991CAA1CBB1CDD0CEE1CFF1C8A9571F719
:1040C000D92CEA2CFB2C9F9008955FDFD9F0503853
:1040D000C9F016270058952F90580894091F12F41C
:1040E00018F40EC008F00EC00FD0FF202AF0BB0C51
:1040F000DD1CEE1CFF1C02C0039513F01EDF57CF22
:104100000C9439200C9440209F92FF92EF928D2DB9
:10411000FF24EE24DD24BB2493E0849F1001829FC2
:10412000B00CD11CE21CF31C839FD00CE11C222498
:10413000F21C9A9531F0BD2CDE2CEF2CFF248F91D0
:10414000ECCF9F9008950AF045D031CF5FE322274E
:104150003327442701C004DF18DF5038B1F300389B
:1041600099F3902F951B8BF312F434D0FACF98313A
:1041700018F0222733274427983028F0232F342F94
:1041800044279850F9CF992329F0469537952795DC
:104190009A95D9F7912F962742F014D0B0F6F7945C
:1041A000E794D7940F5F8BF664CF10D051F008F4EA
:1041B000E2DEFF2052F2DD0CEE1CFF1C0150CBF7BB
:1041C00058CF5ECFD20EE31EF41E0895D21AE30A32
:1041D000F40A0895DF92EF92FF920F931F93D22E6D
:1041E000E32EF42E052F162F6F915F914F913F9183
:1041F0002F9108950E94541DD02C0E94541DE02C34
:104200000E94541DF02C0E94541D002D08950E9400
:10421000541D202D0E94541D302D0E94541D402DF0
:104220000E94541D502D08950E940A1C88278A93CD
:104230008A9326DF11278D918B32E9F38032D9F3EF
:104240001197BBD098F08D3229F4109511968C916E
:10425000B4D060F08E3229F411968C91AED008F46F
:1042600046C022960E94071C81E008958C91A5D03B
:10427000D8F5119646D0D0F703958D919ED0E0F3F6
:104280008E3229F48C9199D010F41196FBCF85349D
:1042900019F0853609F055C011968C918ED060F0DA
:1042A0008D3219F08B3221F0DCCF08800094088227
:1042B00011968C9182D0A8F68053898311968C91A7
:1042C0007CD058F49981990F990F0980900D990F1E
:1042D0008053890F8983873220F6898198819923B9
:1042E0000AF48195080F2DC08E3289F611968C91B3
:1042F00064D068F606D018F011960A95F8CF11969A
:10430000C1CF4F2D3E2D2D2DDD0CEE1CFF1CA8F036
:10431000DD0CEE1CFF1C88F0D20EE31EF41E68F0CC
:10432000DD0CEE1CFF1C48F0805309F06894D80E99
:104330008827E81EF81E08F00895F42EE32ED22EEA
:10434000089534D019F116F5098308E921D00695AE
:10435000882787959F2D9F77980FF92E0150000F82
:10436000110F07958981882379F01AF48195898343
:1043700006C03DDE89818A958983D9F705C047DE6D
:1043800089818A958983D9F72296089579DEFCCFB1
:104390000DD041F0FF2032F00A9531F0DD0CEE1C1B
:1043A000FF1CD2F7889408950894089500240D28DE
:1043B0000E280F28002A00200895803320F08A3329
:1043C00010F40894089588940895FF0D613D00004D
:1043D0000000000000410000803F2A2A2A2A2A2AE1
:1043E0002A2A2A2A2A2A20524144494F4252494421
:1043F0004745202A2A2A2A2A2A2A2A2A2A2A2A0019
:1044000030362D30342D323032362031313A34329C
:104410003A343400302E312E333235005242444784
:10442000564F4C2E424153004E756D657374616357
:10443000696F6E3D00004164636B2800293D0000F8
:10444000436F6E7461646F72206465207472616E74
:10445000736D6973696F6E6573203D0054616E6999
:104460003D00434E54524352434F4B3D0000434E98
:1044700054524352434241443D00566F6C3D00004C
:10448000546F7049324300003D005472616D6120E9
:1044900054582044544D4600543D000072783D006D
:1044A0002C004D6F646F2074657374204C6F6361D2
:1044B0006C004D6F646F20416C65727461204E61B9
:1044C00072616E6A61204C6F63616C0041204D6FB8
:1044D000646F204E6F726D616C206465736465203B
:1044E0004D6F646F2054657374204C6F63616C0072
:1044F00041204D6F646F204E6F726D616C2064655A
:1045000073646520412E204E6172616E6A61204C99
:104510006F63616C000043616D62696F20646520A8
:104520005374617475733D004E7565766F205374D6
:104530006174757320526563696269646F20706F7E
:104540007220526164696F3D0000414443004C4554
:1045500045564657000056657273696F6E20465780
:104560003A204665636861203C0030362D30342D9A
:10457000323032362031313A34323A3435003E2C42
:10458000204172636869766F203C00003E0053450D
:10459000544C45440000536520636F6E666967752F
:1045A0007261207365746C656420612000004C4565
:1045B000454C4544000045737461646F204C45448C
:1045C0003D005345545458500000536520636F6EAE
:1045D00066696775726F207469656D706F206465B8
:1045E00020747820706572696F64696361732061FB
:1045F0002000207300005345545454450000536577
:1046000020636F6E66696775726F207469656D707F
:104610006F20646520747820656E74726520657300
:10462000746163696F6E6573206120005345544364
:1046300054580000536520636F6E66696775726F2A
:1046400020636F6E7461646F722074783D004C4516
:104650004554585000005469656D706F20646520A2
:10466000747820706572696F6469636173203D00BE
:104670004C454554544500005469656D706F206485
:104680006520747820656E7472652065737461634B
:10469000696F6E6573203D004C45454354580000DA
:1046A000436F6E7461646F722064652074783D009E
:1046B00054535444454C0000546573742044656C55
:1046C000617920200000494E490046494E00494E7C
:1046D0004954585000004E7565766120747820501A
:1046E0006572696F646963610000534554535441B6
:1046F0000000536520636F6E66696775726F206E88
:10470000756D65726F206465206573746163696F90
:104710006E203D004C454553544100006E756D655B
:10472000726F206465206573746163696F6E203DEC
:104730000000525844544D46000053696D756C6139
:1047400063696F6E20646520525820746F6E6F73BA
:104750002044544D460045737461646F5F6C65641A
:10476000313D000045737461646F5F6C6564323D78
:1047700000005345544144430000536520636F6E6D
:1047800066696775726F2041444320004C4545417E
:104790004443000056616C6F7265732041444320AE
:1047A000000053455444424700005365206861624D
:1047B000696C69746120646973706C6179206465E7
:1047C000627567004452564155440000526573704B
:1047D00075657374612044525620415544494F3DDC
:1047E0000000534554414E490000536520636F6EED
:1047F0006669677572612054616E693D00004C45C1
:1048000045414E49000053455450545200005365F1
:1048100020636F6E66696775726120507472616E95
:10482000693D0000534554434F4B000053652063DE
:104830006F6E66696775726120434E5452435243EE
:104840004F4B3D00534554424144000053652063A3
:104850006F6E66696775726120434E5452435243CE
:104860004241443D00004C45454352430000435201
:10487000434F4B3D0000202C204352434241443DD6
:1048800000004C45454241540000564241543D0011
:10489000202C205650533D00525354564152000094
:1048A0005265696E6963696F20612076616C6F7211
:1048B000657320706F72206465666563746F0000B5
:1048C000494E495641520000496E696369616C69FD
:1048D0007A61207661726961626C6573000053458C
:1048E000544D4F440000536520636F6E66696775D1
:1048F000726F206D6F646F204F46463D00004C453F
:10490000454D4F4400004D6F646F204F46463D00BB
:104910005345544453500000534520636F6E6669FD
:10492000677572612073616C6964612064656C7382
:1049300020646973706C6179206120005345545282
:10494000454C000072656C653D0046696E207265DD
:104950006C005345544255470000536520636F6E09
:1049600066696720454E414255473D004C454542EA
:1049700055470000454E414255473D004C45455680
:1049800044430000566261743D002C205670733D14
:1049900000002C20566463333D004C4545493243AA
:1049A0000000536520636F6E662049324300564114
:1049B0004C493243000056616C4932432000544F49
:1049C000504932430000536520636F6E666967206B
:1049D000746F70206C696D204932430020612000A3
:1049E0004C4545544F500000546F70206C696D2049
:1049F00049324300544D504932430000546D7049D0
:104A000032433D005258204E45572044544D4600F5
:104A10006865782064746D6600004352433D000071
:104A200043524363616C3D00435243204F4B3D0072
:104A30005472616D612076616C6964610000566F2B
:104A40006C756D656E3D0000436E747274783D0048
:104A50005472616D6120484558004D4F444F4F4698
:104A6000463D302C00004D4F444F4F46463D312CC3
:104A700000005354415455532052583D0000547285
:104A8000616D612044544D4600005472616D612097
:104A9000414C41524D4100005472616D61205445BA
:104AA000535400005472616D61204E4F524D414C81
:104AB00000004D6F646F204F4646206E6F63747523
:104AC000726E6F004E4F2065732054455354206E14
:104AD0006920616C61726D61202E204E6F207265BD
:104AE00073706F6E646500004641494C2049442054
:104AF0005472616D6100435243206661696C3D00F0
:104B0000534552313D00545820414C657274610048
:104B1000244C45454932432C0000436E7472747234
:104B200079693263413D000046494E20636F6E73E0
:104B3000756C746120414443000041424945525420
:104B40004F004345525241444F0024445256415570
:104B5000442C000053696E20726573707565737420
:104B60006120445256415544494F00004F46463D4E
:024B7000000043
:00000001FF
