:100000000C943E001895000018950000189500000B
:1000100018950000189500000C94DD02189500005A
:10002000189500001895000018950000189500001C
:10003000189500001895000018950000189500000C
:1000400018950000189500000C94D4011895000034
:100050000C94BB001895000018950000189500003E
:1000600018950000189500001895000018950000DC
:100070000C94480118950000189500008FEF8DBF73
:10008000C0E8E8E94E2E80E18EBFD0E1FFE05F2EB0
:10009000A89584B7082E882784BF88E19927809384
:1000A000600090936000EEEFFFE0A0E0B1E08827F1
:1000B0008D933197E9F78FE28093C40080E08093BD
:1000C000C50088E18093C10080E08093CD008FE27D
:1000D0008093CC0088E18093C9006624389A269AE0
:1000E000279A3B9A249A209A219A229A239A5498E2
:1000F0005598569857983C985C9A5D9A5E9A5F9A84
:100100003D983E983F98459A469A479A0C9A0D9A80
:100110000E9A0F9A3A9A85E085BD80E084BD709171
:100120006E00716070936E0085E085BD7091C100B6
:1001300070687093C1007091C90070687093C900B5
:1001400086E880937A0080E080937C0070917A004A
:10015000786070937A0070917A00706870937A007A
:1001600070E170936D007091680074607093680026
:1001700078940C94E1170F921F922F923F924F9216
:100180005F927F92AF92BF920F931F932F933F93F3
:100190004F935F936F937F938F939F93AF93BF938F
:1001A000CF93DF93EF93FF938FB78F93ADE7B6E0D5
:1001B0008091C6008C9384E2482F00917D0604173D
:1001C00011F00C94EE0070919B02706270939B0290
:1001D000A4EBB5E088278C930C942B010D3011F023
:1001E0000C941301ABE9B2E08C9185FB16F00C94F2
:1001F000110170919B027F7D70939B0280E0A4EBC4
:10020000B5E00E94361A8D9388278C93E4EBF5E0D5
:10021000AEE7B6E00E942A1D70919B027061709358
:100220009B020C942B010F3118F011F00C941A0161
:100230000C942B01ABE9B2E08C9185FB16F00C9489
:100240002B01ADE7B6E08C91A4EBB5E00E94361A25
:100250008D9388278C938F918FBFFF91EF91DF91C2
:10026000CF91BF91AF919F918F917F916F915F914E
:100270004F913F912F911F910F91BF90AF907F9021
:100280005F904F903F902F901F900F90189508957A
:100290000F921F922F923F924F925F927F92AF9256
:1002A000BF920F931F932F933F934F935F936F933F
:1002B0007F938F939F93AF93BF93CF93DF93EF93EE
:1002C000FF938FB78F93ADE7B6E08091CE008C930C
:1002D00084E2482F00917D06041711F00C947B01F5
:1002E00070919B02706270939B02A4EBB5E088272B
:1002F0008C930C94B8010D3011F00C94A001ABE973
:10030000B2E08C9185FB16F00C949E0170919B02DB
:100310007F7D70939B0280E0A4EBB5E00E94361ACB
:100320008D9388278C93E4EBF5E0AEE7B6E00E946E
:100330002A1D70919B02706170939B020C94B8010E
:100340000F3118F011F00C94A7010C94B801ABE92F
:10035000B2E08C9185FB16F00C94B801ADE7B6E0E5
:100360008C91A4EBB5E00E94361A8D9388278C936C
:100370008F918FBFFF91EF91DF91CF91BF91AF919F
:100380009F918F917F916F915F914F913F912F91AD
:100390001F910F91BF90AF907F905F904F903F90D3
:1003A0002F901F900F9018950F921F922F923F92AF
:1003B0004F925F927F92AF92BF920F931F932F93B2
:1003C0003F934F935F936F937F938F939F93AF93DD
:1003D000BF93CF93DF93EF93FF938FB78F9378EB18
:1003E00076BDAFE8B2E08C918F5F8C93AFE8B2E05E
:1003F0000C9148E00E94661D8C9300918F020030A2
:1004000011F00C944102A0E9B2E00C9140E20E948C
:10041000661D8C93E8EBFEE2A5E9B2E08C9199278A
:10042000A1E9B2E00E94CC1B80919002A1E9B2E068
:100430000E94F11B0E94E71B0C900822689409F4AB
:10044000E894A1E3B2E08C9183F98C93A1E3B2E04C
:100450008C9183FB882780F9809580FBA1E3B2E033
:100460008C9183F98C93A1E3B2E08C9183FBA8E299
:10047000B0E08C9180F98C93A0E9B2E08C918F5F11
:100480008C93A6E9B2E08C918F5F8C93A6E9B2E0E1
:100490000C9144E60E94661D8C93009196020030F8
:1004A00011F00C94760270919B02706470939B0221
:1004B00070910801706470930801ABE1B2E08C9117
:1004C0008F5F8C9300911B0240911C020E94661D5D
:1004D000ABE1B2E08C9300911B02003011F00C9460
:1004E000760270910801716070930801A1E3B2E097
:1004F0008C9180FB16F00C949802A9E9B2E00E945E
:10050000EF19ACE9B2E04D915C91A9E9B2E00D912F
:100510001C910417150711F00C94980270919B021E
:10052000706870939B02709131027E7F70933102EC
:10053000A8E0B1E08C9185FB16F00C94C102A1E11A
:10054000B1E00E94EF19A1E1B1E00D911C9144EFDF
:1005500051E00E941C1AA1E1B1E00D931C93A1E1AE
:10056000B1E00D911C91003050E0150711F00C9492
:10057000C10280E080936A02709108017F7D7093D0
:1005800008018F918FBFFF91EF91DF91CF91BF91C4
:10059000AF919F918F917F916F915F914F913F911B
:1005A0002F911F910F91BF90AF907F905F904F90D0
:1005B0003F902F901F900F9018950F921F922F929F
:1005C0003F924F925F927F92AF92BF920F931F9391
:1005D0002F933F934F935F936F937F938F939F934B
:1005E000AF93BF93CF93DF93EF93FF938FB78F9327
:1005F000ADE8B2E08C918F5F8C93349B0C94030335
:100600002F9A0C9404032F98A6E2B0E00C9104FBFF
:1006100081E00EF080E08F93ADE8B2E00C9100FB3A
:1006200081E00EF080E09F918923882311F40C94DF
:100630005D03A9E6B2E089B18C9394E0A9E6B2E04B
:100640000E94B11BAAE6B2E08C918F5F8C938091DF
:100650006902AAE6B2E0AD90BB24AAE6B2E0AA0D18
:10066000BB1D8C93AAE6B2E00C9144E10E94661D8A
:100670008C9300916A02013011F00C944403709144
:10068000080170627093080100916A02003011F055
:100690000C944F037091310270627093310200919B
:1006A0006A020E3018F011F00C9458030C945D039C
:1006B000709131027062709331028F918FBFFF9100
:1006C000EF91DF91CF91BF91AF919F918F917F91EA
:1006D0006F915F914F913F912F911F910F91BF901B
:1006E000AF907F905F904F903F902F901F900F9012
:1006F0001895409842982C9AE6E5F0E40E94451A35
:100700000E944C1AA0E8BFE0ECE7F0E40E948C1BCA
:100710000E943D1A0E944C1AA0E8BFE0E0E9F0E414
:100720000E948C1B0E943D1A0E944C1AA0E8BFE058
:10073000E8E9F0E40E948C1B0E943D1A0E944C1ACA
:1007400081E08093950281E0809328028CE291E021
:10075000ADE1B2E08D939C9381E080932A0281E029
:1007600080932B02E4E0F0E0A1E2B2E00E945C1D85
:10077000E4EAF0E40E94451AE1E2F2E0A0E8BFE01A
:100780000E94731C0E943D1A0E944C1A81E08093C3
:10079000B9020091B902033018F011F00C94190459
:1007A000A9EBB2E0AD90BB24A7EBB2E0AA0CBB1C56
:1007B000AA0CBB1CAA0DBB1DE9EBF2E0A190BB2467
:1007C000E5E0F0E0AA0CBB1CAA0CBB1CEA0DFB1D6B
:1007D00094E00E945F1DE2EBF0E40E94451AE9EB11
:1007E000F2E0A0E8BFE00E94731C0E943D1AE8EB13
:1007F000F0E40E94451AE9EBF2E0A190BB24E7EB9C
:10080000F2E0AA0CBB1CAA0CBB1CEA0DFB1DA0E865
:10081000BFE00E94E91D0E948D1A0E943D1A0E94AD
:100820004C1AA9EBB2E08C918F5F8C9310F40C946E
:10083000C903A2E2B2E0E5E0F0E094E00E945F1DAF
:10084000ECEBF0E40E94451AE2E2F2E0A0E8BFE03F
:100850000E94E91D0E948D1A0E943D1A0E944C1AA6
:10086000709108017F77709308018AE080931C02E1
:10087000E8EDF0E40E94451AECE1F2E0A0E8BFE008
:100880000E94731C0E943D1A0E944C1AE5E1F0E0A0
:10089000AFEDB2E00E945E1DEEEDF0E40E94451A5D
:1008A000EFEDF2E0A0E8BFE00E94631C0E943D1A59
:1008B0000E944C1AE7E1F0E0A1EEB2E00E945E1D5A
:1008C000EAEEF0E40E94451AE1EEF2E0A0E8BFE0B3
:1008D0000E94631C0E943D1A0E944C1A84E180937E
:1008E0003202E6EFF0E40E94451AE2E3F2E0A0E80B
:1008F000BFE00E94731C0E943D1A0E944C1A81E0C6
:100900008093000100910001043018F011F00C9464
:10091000C304E0E0F1E0A190BB24E8E1F0E0EA0DDF
:10092000FB1DA0E0B1E0AD90BB24A2EEB2E0AA0DA9
:10093000BB1D0E945C1DECEFF0E40E94451AE0E054
:10094000F1E0A0E8BFE00E94731C0E943D1AE4E0C1
:10095000F1E40E94451AE0E0F1E0A190BB24E2EE50
:10096000F2E0EA0DFB1DA0E8BFE00E94731C0E94AC
:100970003D1A0E944C1AA0E0B1E08C918F5F8C93DD
:1009800010F40C9482040895E6E4F0E40E94381F09
:10099000E9E0F0E0ADE0BB2794E07BE70E944E1D6C
:1009A000E6E4F0E40E94381FEDE0F0E0ADE0BB27A4
:1009B00094E07BE70E944E1DE6E4F0E40E94381FBD
:1009C000E1E1F0E0ADE0BB2794E07BE70E944E1D43
:1009D000E4E0F0E0A0E1BB278EE08C937BE70E948F
:1009E0004B1DEAE4F0E40E94381FE5E0F0E0ADE0E2
:1009F000BB2794E07BE70E944E1DE5E1F0E000E0BC
:100A000010E0A0E1BB277BE70E944D1DE7E1F0E08D
:100A100000E010E0A0E1BB277BE70E944D1DE9E16B
:100A2000F0E0A0E1BB2780E88C937BE70E944B1DA0
:100A3000EAE1F0E0A0E1BB2780E88C937BE70E942D
:100A40004B1DEBE1F0E0A0E1BB2780E88C937BE756
:100A50000E944B1DECE1F0E0A0E1BB2780E88C9305
:100A60007BE70E944B1D0895A881B9818D919C91CF
:100A7000ACE9B2E08D939C9380E090E0A9E9B2E00C
:100A80008D939C9370919B027F7770939B027091E2
:100A90003102716070933102ABE9B2E08C9187FB57
:100AA00016F40C945605A8950C944C05089581E015
:100AB0008093000100910001043018F011F00C94B3
:100AC0009E050091000141E0041BA1E0B1E00C9300
:100AD000A0E0B1E0AD90BB24A2EEB2E0AA0DBB1D38
:100AE0004C91A0E0B1E0AD90BB24A4E3B2E0AA0D2C
:100AF000BB1D0C91041710F00C948B058091010123
:100B0000A7EEB2E00E94F11B0E94E71B8C918923A3
:100B10008C930C94960580910101A7EEB2E00E949F
:100B2000F11B0E94E71B9C91982B9C93A0E0B1E0E5
:100B30008C918F5F8C9310F40C945A05D201E7EEE0
:100B4000F2E00E94001DD2010E943F1A0E944C1A3E
:100B50000895E6E0F1E40E94451A0E944C1AA1E2D1
:100B6000B2E08C9180FBA9E3B2E08C9180F98C9388
:100B7000A1E2B2E08C9181FBA9E3B2E08C9181F912
:100B80008C93A1E2B2E08C9182FBA9E3B2E08C915C
:100B900082F98C93A1E2B2E08C9183FBA9E3B2E0ED
:100BA0008C9183F98C93A8E2B2E08C9180FBA9E34D
:100BB000B2E08C9184F98C93A8E2B2E08C9181FB35
:100BC000A9E3B2E08C9185F98C93A8E2B2E08C9114
:100BD00082FBA9E3B2E08C9186F98C93A8E2B2E0A3
:100BE0008C9183FBA9E3B2E08C9187F98C93E2E2CC
:100BF000F2E0A4E0B1E00E942F1D809104018093F7
:100C00003A028091050180933B0280910601809316
:100C10003C028091070180933D02ABE2B2E08C91EF
:100C200080FBAEE3B2E08C9180F98C93ABE2B2E052
:100C30008C9181FBAEE3B2E08C9181F98C93ABE2B5
:100C4000B2E08C9182FBAEE3B2E08C9182F98C939E
:100C5000ABE2B2E08C9183FBAEE3B2E08C9183F91E
:100C60008C930E945705A7EEB2E08C9180FBAEE317
:100C7000B2E08C9184F98C93A7EEB2E08C9181FB69
:100C8000AEE3B2E08C9185F98C93A7EEB2E08C9143
:100C900082FBAEE3B2E08C9186F98C93A7EEB2E0D2
:100CA0008C9183FBAEE3B2E08C9187F98C938091B9
:100CB000D30280933F028091D402809340028091BE
:100CC000D502809341028091D602809342028091A6
:100CD000D702809343028091D8028093440280918E
:100CE000D902809345028091DA0280934602E9E3BB
:100CF000F2E08EE00E94901DA0E0B1E00C938091A4
:100D000000018093470280912102809349028091E3
:100D1000280280934A0283E08093030181E080935C
:100D20000001009100010E3018F011F00C94D9066A
:100D30000091000141E0040FA1E0B1E00C93A1E0BB
:100D4000B1E0AD90BB24A8E3B2E0AA0DBB1D8C912D
:100D500080930201009102014FE00423A3E0B1E07F
:100D6000AD90BB24A8E4B2E0AA0DBB1D0C93A3E098
:100D7000B1E08C918F5F8C9394E0A2E0B1E00E948F
:100D8000B11B80910201A3E0B1E0AD90BB24A8E4C7
:100D9000B2E0AA0DBB1D8C93A3E0B1E08C918F5FF4
:100DA0008C93A0E0B1E08C918F5F8C9310F40C9445
:100DB00091060895439A84E690E0D2018D939C9326
:100DC00082E00E947C1B0E943405229682E00E94F1
:100DD000781B81E080930901009109010E3118F020
:100DE00011F00C945707A9E0B1E0AD90BB24A8E442
:100DF000B2E0AA0DBB1D8C9180FBA5E2B0E08C9106
:100E000080F98C93A9E0B1E0AD90BB24A8E4B2E0F6
:100E1000AA0DBB1D8C9181FBA5E2B0E08C9181F9FC
:100E20008C93A9E0B1E0AD90BB24A8E4B2E0AA0D98
:100E3000BB1D8C9182FBA5E2B0E08C9182F98C9372
:100E4000A9E0B1E0AD90BB24A8E4B2E0AA0DBB1DBF
:100E50008C9183FBA5E2B0E08C9183F98C932E9A60
:100E60002C9888E090E0D2018D939C9382E00E94C0
:100E70007C1B0E943405229682E00E94781B2C9AEB
:100E80002E9884E090E0D2018D939C9382E00E94A2
:100E90007C1B0E943405229682E00E94781BA9E008
:100EA000B1E08C918F5F8C9310F40C94EC06439816
:100EB0000895349B0C94C407A9E6B2E089B18C93E1
:100EC00094E0A9E6B2E00E94B11BE4E1F1E40E94E3
:100ED000451AE9E6F2E0A0E8BFE00E94E71C0E94A4
:100EE0003D1A0E944C1AAAE6B2E08C918F5F8C9357
:100EF00080916902AAE6B2E0AD90BB24AAE6B2E016
:100F0000AA0DBB1D8C93AAE6B2E00C914CE00E94A6
:100F1000661D8C9300916A02003011F00C94C40796
:100F2000E8E1F1E40E94451A0E944C1A81E08093A6
:100F30000901009109010C3018F011F00C94C4075C
:100F4000E9E0F1E0A0E8BFE00E94731C0E943D1AB6
:100F5000ECE1F1E40E94451AE9E0F1E0A190BB2444
:100F6000EAE6F2E0EA0DFB1DA0E8BFE00E94E71C04
:100F70000E943D1A0E944C1AA9E0B1E08C918F5F4B
:100F80008C9310F40C949907089500912A02013073
:100F900011F00C94EB0880E080938E02A6E2B0E0A2
:100FA0008C9185FBAEE8B2E08C9180F98C93A6E23F
:100FB000B0E08C9186FBAEE8B2E08C9181F98C9325
:100FC00000912802013011F00C944308A1E3B2E033
:100FD0008C9187FB16F40C94F20781E080939502C4
:100FE0000C94F5078BE08093950200918E020230FD
:100FF00011F00C941208EEE1F1E40E94451A0E94EF
:101000004C1A82E080932802709108017F777093D8
:10101000080182E0809395028EE190E0ADE1B2E0BC
:101020008D939C9300918E02003081E009F080E066
:101030008F9300918E02013081E009F080E09F9152
:10104000892B882311F40C944108EEE2F1E40E940C
:10105000451A0E944C1A83E08093280283E0809313
:101060009502709108017F777093080170913102A9
:101070007061709331028EE190E0ADE1B2E08D934A
:101080009C930C949B08023011F00C947008009112
:101090008E02033011F00C946E08E8E4F1E40E9433
:1010A000451A0E944C1A81E08093280281E08093C7
:1010B0009502709108017F77709308018CE390E0AE
:1010C000ADE1B2E08D939C93A1E3B2E08C9187FBFC
:1010D00016F00C946E088BE0809395020C949B089C
:1010E000033011F00C949B0800918E02033011F034
:1010F0000C949B08ECE6F1E40E94451A0E944C1AFD
:1011000081E08093280281E080939502709108012C
:101110007F77709308018CE390E0ADE1B2E08D93AE
:101120009C93A1E3B2E08C9187FB16F00C949B0892
:101130008BE08093950240912902009128020417C8
:1011400011F40C94E908709108017F7770930801FD
:101150007091310270647093310280912802809303
:101160002902E2E9F1E40E94451AE8E2F2E0A0E88F
:10117000BFE00E94731C0E943D1A0E944C1A00910D
:101180002802013011F00C94CD088CE390E0ADE121
:10119000B2E08D939C930C94E308023011F00C9410
:1011A000D9088EE190E0ADE1B2E08D939C930C9470
:1011B000E308033011F00C94E3088EE190E0ADE118
:1011C000B2E08D939C9380E090E0AEE2B2E08D932C
:1011D0009C930C94580980912A0280932802809154
:1011E00028028093950200912802013081E009F0E5
:1011F00080E08F93A1E3B2E08C9187FB81E00EF059
:1012000080E09F918923882311F40C940A098BE0D4
:10121000809395024091290200912802041711F44D
:101220000C945809709108017F77709308018091A0
:10123000280280932902E4EAF1E40E94451AE8E2D8
:10124000F2E0A0E8BFE00E94731C0E943D1A0E94D9
:101250004C1A70913102706470933102009128022F
:10126000013011F00C943C0988E592E0ADE1B2E068
:101270008D939C930C945209023011F00C94480900
:101280008EE190E0ADE1B2E08D939C930C94520915
:10129000033011F00C9452098EE190E0ADE1B2E020
:1012A0008D939C9380E090E0AEE2B2E08D939C93AE
:1012B00000912802013011F00C945F0942980091CE
:1012C0002802023011F00C946609429A009128021B
:1012D000033011F00C946D09429A009128020030FD
:1012E00011F00C947409429800912802033018F010
:1012F00011F00C947D090C947E0942980895A88100
:10130000B9818C9180FBA2E2B0E08C9184F98C933E
:10131000A881B9818C9181FBA2E2B0E08C9185F922
:101320008C93A881B9818C9182FBA2E2B0E08C9170
:1013300086F98C93A881B9818C9183FBA2E2B0E0FD
:101340008C9187F98C93089581E08093B902009184
:10135000B902033018F011F00C94FA09ECEFFEE238
:10136000A9EBB2E08C919927AAEBB2E00E94C91BCD
:1013700000917C00007E8091BA0290E0890F0827DE
:1013800000937C000E94921BA7EBB2E08D939C938C
:10139000E7EBF2E0D190E080FF2400270E941D1EC1
:1013A0000E94F31DE9EBF2E0A190BB24EAE9F2E030
:1013B000AA0CBB1CAA0CBB1CEA0DFB1D0E94E91D5C
:1013C0000E94EA1EEDE0F0E0A9EBB2E0AD90BB2494
:1013D000AAE9B2E0AA0CBB1CAA0CBB1CAA0DBB1D3F
:1013E0000E942F1DA9EBB2E08C918F5F8C9310F4BB
:1013F0000C94A709AAEAB2E08C918F5F8C93AAEAB9
:10140000B2E00C9148E00E94661D8C930091AA0204
:10141000003011F00C94CC0A81E08093B902009165
:10142000B902033018F011F00C94BA0AEEE4F0E4BB
:101430000E94451FE9EBF2E0A190BB24EAE9F2E04B
:10144000AA0CBB1CAA0CBB1CEA0DFB1D0E94E91DCB
:101450000E944A1EEDE0F0E0A9EBB2E0AD90BB24A3
:10146000A7EAB2E0AA0CBB1CAA0CBB1CAA0DBB1DB0
:101470000E942F1DA9EBB2E0AD90BB24AAE9B2E017
:10148000AA0CBB1CAA0CBB1CAA0DBB1DEAE4F0E411
:101490000E94C11BE9EBF2E0A190BB24E7EBF2E074
:1014A000AA0CBB1CAA0CBB1CEA0DFB1D0E94EE1D66
:1014B000E9EBF2E0A190BB24E7EAF2E0AA0CBB1C46
:1014C000AA0CBB1CEA0DFB1D0E94E91D0E94A31E75
:1014D000EDE0F0E0A9EBB2E0AD90BB24A3ECB2E00C
:1014E000AA0CBB1CAA0CBB1CAA0DBB1D0E942F1D65
:1014F00000911001013011F00C94B20AE6ECF1E415
:101500000E94451AE9EBF2E0A0E8BFE00E94731CDC
:101510000E943D1AE4E0F1E40E94451AA0E8BFE011
:10152000AF93BF93E9EBF2E0A190BB24E3ECF2E0D0
:10153000AA0CBB1CAA0CBB1CEA0DFB1D0E94E91DDA
:101540000E948D1A11E001E0BF91AF910E94081C2A
:10155000E0E8FFE0A0E8BFE00E942A1D0E943D1ADB
:101560000E944C1AA9EBB2E08C918F5F8C9310F41F
:101570000C940F0AE7ECF2E0A3EDB2E00E942F1DFD
:10158000EBECF2E0A7EDB2E00E942F1DEFECF2E0F1
:10159000ABEDB2E00E942F1D0895AEE7B6E00E94C9
:1015A0003F1A0E944C1A81E0EEE7F6E006E00A934B
:1015B000A4EEB1E00E94351DEEE7F6E09CE204E106
:1015C00032E2AAEEB2E00E94B41DA9EEB2E02C9382
:1015D000AAEEB2E00E94761D082F063011F00C949E
:1015E0000114EAEEF2E0A3E1B1E00E942A1DE3E17A
:1015F000F1E0A3E1B1E00E94DB1B8FEF8093E301F8
:10160000A3E1B1E0EAECF1E40E947C1D11F00C943E
:10161000400B80E08093E301AAE1B1E0E2EDF1E468
:101620000E948C1BA4EEB1E0ECE7F0E40E948C1B5E
:10163000E4EEF1E0AAE1B1E00E94361A0E942A1D10
:10164000AAE1B1E00E94361AE6EEF1E40E948C1B9A
:10165000A4EEB1E0E8E9F0E40E948C1BE4EEF1E0D6
:10166000AAE1B1E00E94361A0E942A1DAAE1B1E067
:101670000E94361AE4EFF1E40E948C1B0C94FF13D5
:10168000E6EFF1E40E947C1D11F00C947B0B0091BD
:10169000E902023011F00C94760BAFEFB2E00E9439
:1016A000B81CA0E0B1E00C9300910001013110F0F2
:1016B0000C94710B80E08093E301AAE1B1E0EEEFBE
:1016C000F1E40E948C1BE0E0F1E0AAE1B1E00E94AD
:1016D000361A0E94731C80910001809395020C942D
:1016E000740B85E08093E3010C94790B84E0809384
:1016F000E3010C94FF13E6E1F2E40E947C1D11F07B
:101700000C94950B80E08093E301AAE1B1E0EEE157
:10171000F2E40E948C1BE5E9F2E0AAE1B1E00E944C
:10172000361A0E94731C0C94FF13EAE2F2E40E9442
:101730007C1D11F00C94D90B0091E902023011F0DC
:101740000C94D40B80E08093E301AFEFB2E00E94F1
:10175000B81CABE0B1E00D931C93ABE0B1E08D9110
:101760009C91AFE1B2E08D939C93E2E0F0E0ABE0BE
:10177000B1E07BE70E944D1DAAE1B1E0E2E3F2E4B3
:101780000E948C1BEFE1F2E0AAE1B1E00E94361A60
:101790000E94631CAAE1B1E00E94361AEAE5F2E475
:1017A0000E948C1B0C94D70B84E08093E3010C9473
:1017B000FF13EEE5F2E40E947C1D11F00C941D0C69
:1017C0000091E902023011F00C94180C80E0809333
:1017D000E301AFEFB2E00E94B81CABE0B1E00D93C3
:1017E0001C93ABE0B1E08D919C91A9E1B2E08D93A7
:1017F0009C93E0E0F0E0ABE0B1E07BE70E944D1DA0
:10180000AAE1B1E0E6E6F2E40E948C1BE9E1F2E035
:10181000AAE1B1E00E94361A0E94631CAAE1B1E07D
:101820000E94361AEAE5F2E40E948C1B0C941B0C11
:1018300084E08093E3010C94FF13E4E9F2E40E9456
:101840007C1D11F00C945C0C0091E902023011F047
:101850000C94570C80E08093E301AFEFB2E00E945C
:10186000521FEDE0F0E0A4E0B1E00E942F1DE4E0A3
:10187000F1E0A2E2B2E00E942F1DE5E0F0E0A4E07A
:10188000B1E094E07BE70E944E1DAAE1B1E0ECE9F3
:10189000F2E40E948C1BE2E2F2E0AAE1B1E00E94D5
:1018A000361A0E94E91D0E948D1A0C945A0C84E08D
:1018B0008093E3010C94FF13E6EBF2E40E947C1D9D
:1018C00011F00C947E0C80E08093E301AAE1B1E07A
:1018D000EEEBF2E40E948C1BEFE1F2E0AAE1B1E052
:1018E0000E94361A0E94631CAAE1B1E00E94361AD7
:1018F000EAE5F2E40E948C1B0C94FF13E8EDF2E49D
:101900000E947C1D11F00C94A00C80E08093E301F8
:10191000AAE1B1E0E0EEF2E40E948C1BE9E1F2E022
:10192000AAE1B1E00E94361A0E94631CAAE1B1E06C
:101930000E94361AEAE5F2E40E948C1B0C94FF1315
:10194000E0E0F3E40E947C1D11F00C94BC0C80E0FC
:101950008093E301AAE1B1E0E8E0F3E40E948C1B8C
:10196000E2E2F2E0AAE1B1E00E94361A0E94E91D2B
:101970000E948D1A0C94FF13E8E1F3E40E947C1D91
:1019800011F00C94050D0091E902023011F00C9455
:10199000000D80E08093E301AFEFB2E00E94B81C3D
:1019A000ABE0B1E00D931C93AAE1B1E0E0E2F3E417
:1019B0000E948C1BEBE0F1E0AAE1B1E00E94361A34
:1019C0000E94631CEEE2F3E40E94451A0E944C1A46
:1019D000ABE0B1E08D919C91D2018D939C9382E01C
:1019E0000E947C1B0E943405229682E00E94781B94
:1019F000E2E3F3E40E94451A0E944C1A0C94030D92
:101A000084E08093E3010C94FF13E6E3F3E40E9487
:101A10007C1D11F00C941C0D80E08093E30170910B
:101A20003102726070933102AAE1B1E0EEE3F3E4B7
:101A30000E948C1B0C94FF13E2E5F3E40E947C1DD2
:101A400011F00C944F0D0091E902023011F00C944A
:101A50004A0D80E08093E301AFEFB2E00E94B81C32
:101A6000A1E2B2E00C93E4E0F0E0A1E2B2E07BE7B7
:101A70000E944B1DAAE1B1E0EAE5F3E40E948C1B51
:101A8000E1E2F2E0AAE1B1E00E94361A0E94731C82
:101A90000C944D0D84E08093E3010C94FF13ECE76C
:101AA000F3E40E947C1D11F00C94690D80E080939A
:101AB000E301AAE1B1E0E4E8F3E40E948C1BE1E277
:101AC000F2E0AAE1B1E00E94361A0E94731C0C9465
:101AD000FF13EAE9F3E40E947C1D11F00C94DD0D84
:101AE0000091E902053111F00C94D80D80E080934B
:101AF000E301AAE1B1E0E2EAF3E40E948C1BEEEB21
:101B0000F3E40E94451AE5E9F2E0A0E8BFE00E9494
:101B1000731C0E943D1A0E944C1A80E080930001C1
:101B200082E08093090100910901053118F011F05C
:101B30000C94C30DA0E0B1E08C918F5F8C93A9E071
:101B4000B1E00D91112745E150E00E94821BA5ED07
:101B5000B2E0A00FB11F0E94101DA1E0B1E00C93F4
:101B600080910101A0E0B1E0AD90BB24AAE6B2E013
:101B7000AA0DBB1D8C93A9E0B1E08C918F5F8C9373
:101B800010F40C94930D70913102706270933102D5
:101B9000ECECF3E40E94451AE5E9F2E0A0E8BFE0CE
:101BA0000E94731C0E943D1A0E944C1A0C94DB0D7B
:101BB00084E08093E3010C94FF13EAEDF3E40E94C8
:101BC0007C1D11F00C945D0E0091E902033011F0C0
:101BD0000C94580EAFEFB2E00E94B81CA0E0B1E048
:101BE0000C9300910001033018F011F00C94530E87
:101BF00080E08093E301A4E1B3E00E94521FEDE096
:101C0000F0E0A4E0B1E00E942F1DE4E0F1E0A0E0EC
:101C1000B1E0AD90BB24A7EBB2E0AA0CBB1CAA0CB0
:101C2000BB1CAA0DBB1D0E942F1DE0E0F1E0A1909E
:101C3000BB24E5E0F0E0AA0CBB1CAA0CBB1CEA0D1F
:101C4000FB1DA4E0B1E094E07BE70E944E1DAAE1F9
:101C5000B1E0E2EEF3E40E948C1BE0E0F1E0AAE1E7
:101C6000B1E00E94361A0E94731CAAE1B1E00E9402
:101C7000361AE4E0F1E40E948C1BE0E0F1E0A19070
:101C8000BB24E7EBF2E0AA0CBB1CAA0CBB1CEA0DC0
:101C9000FB1DAAE1B1E00E94361A0E94E91D0E94D4
:101CA0008D1A0C94560E85E08093E3010C945B0E24
:101CB00084E08093E3010C94FF13E4EFF3E40E94CB
:101CC0007C1D11F00C94AD0E80E08093E301AAE13D
:101CD000B1E0ECEFF3E40E948C1B81E080930A01F9
:101CE00000910A01033018F011F00C94AB0EEAE0F9
:101CF000F1E0AAE1B1E00E94361A0E94731CAAE149
:101D0000B1E00E94361AE4E0F1E40E948C1BEAE0A4
:101D1000F1E0A190BB24E7EBF2E0AA0CBB1CAA0CFB
:101D2000BB1CEA0DFB1DAAE1B1E00E94361A0E941D
:101D3000E91D0E948D1AAAE1B1E00E94361AECE179
:101D4000F1E40E948C1BAAE0B1E08C918F5F8C9330
:101D500010F40C94700E0C94FF13EAE0F4E40E946B
:101D60007C1D11F00C94C20E80E08093E301AAE187
:101D7000B1E0E2E1F4E40E948C1B81E08093100169
:101D80000C94FF13ECE2F4E40E947C1D11F00C941F
:101D90001E0F0091E902023011F00C94EA0E80E06F
:101DA0008093E301AAE1B1E0E4E3F4E40E948C1B38
:101DB000EFEFF2E0AAE1B1E00E94361A0E942A1D7C
:101DC0007091080170687093080180E080932B0285
:101DD0000C941C0F033011F00C94190F80E08093C9
:101DE000E301AAE1B1E0E4E3F4E40E948C1BEFEF2D
:101DF000F2E0AAE1B1E00E94361A0E942A1DAAE18F
:101E0000B1E00E94361AECE1F1E40E948C1BE4E19F
:101E1000F3E0AAE1B1E00E94361A0E942A1D7091F7
:101E2000080170687093080180E080932B020C9485
:101E30001C0F84E08093E3010C94FF13EAE4F4E4C4
:101E40000E947C1D11F00C944A0F0091E9020230AF
:101E500011F00C94450F80E08093E301AFEFB2E006
:101E60000E94B81CACE1B2E00C93AAE1B1E0E2E55B
:101E7000F4E40E948C1BECE1F2E0AAE1B1E00E94E4
:101E8000361A0E94731C0C94480F84E08093E3017F
:101E90000C94FF13E6E6F4E40E947C1D11F00C9410
:101EA000640F80E08093E301AAE1B1E0E8EDF0E4A3
:101EB0000E948C1BECE1F2E0AAE1B1E00E94361A2C
:101EC0000E94731C0C94FF13EEE6F4E40E947C1D48
:101ED00011F00C94910F0091E902023011F00C9472
:101EE0008C0F80E08093E301AFEFB2E00E94B81C5A
:101EF000AEE2B2E00D931C93AAE1B1E0E6E7F4E4B0
:101F00000E948C1BEEE2F2E0AAE1B1E00E94361AD8
:101F10000E94631C0C948F0F84E08093E3010C9467
:101F2000FF13ECE8F4E40E947C1D11F00C94C50F43
:101F30000091E902023011F00C94C00F80E0809310
:101F4000E301AFEFB2E00E94B81CAFEDB2E00D9339
:101F50001C93E5E1F0E0AFEDB2E07BE70E944D1DA0
:101F6000AAE1B1E0E4E9F4E40E948C1BEFEDF2E0B9
:101F7000AAE1B1E00E94361A0E94631C0C94C30FC0
:101F800084E08093E3010C94FF13ECEAF4E40E94F4
:101F90007C1D11F00C94F90F0091E902023011F050
:101FA0000C94F40F80E08093E301AFEFB2E00E9465
:101FB000B81CA1EEB2E00D931C93E7E1F0E0A1EEB6
:101FC000B2E07BE70E944D1DAAE1B1E0E4EBF4E44E
:101FD0000E948C1BE1EEF2E0AAE1B1E00E94361A09
:101FE0000E94631C0C94F70F84E08093E3010C942F
:101FF000FF13EEECF4E40E947C1D11F00C9423100E
:1020000080E08093E301AAE1B1E0E6EDF4E40E9410
:102010008C1BEFEDF2E0AAE1B1E00E94361A0E94BB
:10202000631CAAE1B1E00E94361AEEEDF4E40E94CE
:102030008C1BE1EEF2E0AAE1B1E00E94361A0E94A8
:10204000631C0C94FF13EAEEF4E40E947C1D11F073
:102050000C946D1080E08093E301AAE1B1E0E2EF1F
:10206000F4E40E948C1BA0E8BFE0AF93BF93E3EDC4
:10207000F2E00E94E91D0E948D1A11E002E0BF917A
:10208000AF910E94081CE0E8FFE0AAE1B1E00E94E5
:10209000361A0E942A1DAAE1B1E00E94361AE8EF22
:1020A000F4E40E948C1BA0E8BFE0AF93BF93E7ED80
:1020B000F2E00E94E91D0E948D1A11E002E0BF913A
:1020C000AF910E94081CE0E8FFE0AAE1B1E00E94A5
:1020D000361A0E942A1D0C94FF13E0E0F5E40E94DA
:1020E0007C1D11F00C94861080E08093E3010E9427
:1020F000C404AAE1B1E0E8E0F5E40E948C1B709111
:1021000008017860709308010C94FF13E8E2F5E48D
:102110000E947C1D11F00C949D1080E08093E301DF
:1021200070910801786070930801AAE1B1E0E0E3E2
:10213000F5E40E948C1B0C94FF13E6E4F5E40E9486
:102140007C1D11F00C94FE100091E902023011F098
:102150000C94F910AFEFB2E00E94B81CA0E0B1E01F
:102160000C9300910001023010F00C94F41080E008
:102170008093E30100910001013011F00C94DA101A
:1021800070913102706870933102AAE1B1E0EEE41F
:10219000F5E40E948C1BA1E3B2E08C9187FBAAE1DD
:1021A000B1E00E94361A0E94F71B8D9388278C930A
:1021B0000C94F210709131027F7770933102AAE192
:1021C000B1E0EEE4F5E40E948C1BA1E3B2E08C9157
:1021D00087FBAAE1B1E00E94361A0E94F71B8D939B
:1021E00088278C930C94F71085E08093E3010C947E
:1021F000FC1084E08093E3010C94FF13E6E6F5E421
:102200000E947C1D11F00C941D1180E08093E3016D
:10221000AAE1B1E0EEE6F5E40E948C1BA1E3B2E096
:102220008C9187FBAAE1B1E00E94361A0E94F71B4D
:102230008D9388278C930C94FF13E8E7F5E40E94B4
:102240007C1D11F00C9456110091E902023011F03E
:102250000C945111AFEFB2E00E94B81CA0E0B1E0C5
:102260000C9380910001D2018C9381E00E947C1B31
:102270000E947F09229681E00E94781BAAE1B1E0CA
:10228000E0E8F5E40E948C1BE0E0F1E0AAE1B1E0B7
:102290000E94361A0E94731C80E08093E3010C9424
:1022A000541184E08093E3010C94FF13E4EAF5E415
:1022B0000E947C1D11F00C94A1110091E9020230E2
:1022C00011F00C949C1180E08093E301AFEFB2E039
:1022D0000E94B81CA0E0B1E00C9300910001023014
:1022E00010F00C94971100910001013011F00C9442
:1022F0007C11429A0C947D114298AAE1B1E0ECEA7B
:10230000F5E40E948C1BE0E0F1E0AAE1B1E00E945C
:10231000361A0E94731CE3E0F0E00E946F1AE2EBB1
:10232000F5E40E94451A0E944C1A0C949A1185E01B
:102330008093E3010C949F1184E08093E3010C945B
:10234000FF13EAEBF5E40E947C1D11F00C94CD1113
:102350000091E902023011F00C94C81180E08093E2
:10236000E301AFEFB2E00E94B81CAFE0B1E00C9324
:10237000AAE1B1E0E2ECF5E40E948C1BEFE0F1E0B1
:10238000AAE1B1E00E94361A0E94731C0C94CB1192
:1023900084E08093E3010C94FF13E4EDF5E40E94E4
:1023A0007C1D11F00C94E71180E08093E301AAE119
:1023B000B1E0ECEDF5E40E948C1BEFE0F1E0AAE166
:1023C000B1E00E94361A0E94731C0C94FF13E4EED5
:1023D000F5E40E947C1D11F00C94511280E0809372
:1023E000E301AAE1B1E0ECEEF5E40E948C1BA0E869
:1023F000BFE0AF93BF93E3EDF2E00E94E91D0E94BE
:102400008D1A11E001E0BF91AF910E94081CE0E835
:10241000FFE0AAE1B1E00E94361A0E942A1DAAE15B
:10242000B1E00E94361AE2EFF5E40E948C1BA0E8AE
:10243000BFE0AF93BF93E7EDF2E00E94E91D0E9479
:102440008D1A11E001E0BF91AF910E94081CE0E8F5
:10245000FFE0AAE1B1E00E94361A0E942A1DAAE11B
:10246000B1E00E94361AEAEFF5E40E948C1BA0E866
:10247000BFE0AF93BF93EBEDF2E00E94E91D0E9435
:102480008D1A11E001E0BF91AF910E94081CE0E8B5
:10249000FFE0AAE1B1E00E94361A0E942A1D0C94C6
:1024A000FF13E2E0F6E40E947C1D11F00C94B812D8
:1024B0000091E902033011F00C94B312AFEFB2E0D7
:1024C0000E94B81CA0E0B1E00C9300910001003024
:1024D00080E010F009F081E08F9300910001053059
:1024E00081E008F080E09F918923882311F40C9407
:1024F000AE12A4E1B3E00E94B81CA1E0B1E00C93DD
:1025000080910101A0E0B1E0AD90BB24A4E3B2E072
:10251000AA0DBB1D8C93AAE1B1E0EAE0F6E40E94AB
:102520008C1BE0E0F1E0AAE1B1E00E94361A0E94C3
:10253000731CAAE1B1E00E94361AE4E0F1E40E94C3
:102540008C1BE1E0F1E0AAE1B1E00E94361A0E94A2
:10255000731C80E08093E3010C94B11285E08093BA
:10256000E3010C94B61284E08093E3010C94FF1312
:10257000E6E1F6E40E947C1D11F00C941313009127
:10258000E902023011F00C940E13AFEFB2E00E949A
:10259000B81CA0E0B1E00C9300910001003080E095
:1025A00010F009F081E08F9300910001053081E087
:1025B00008F080E09F918923882311F40C9409137B
:1025C00080E08093E301AAE1B1E0EEE1F6E40E944D
:1025D0008C1BE0E0F1E0AAE1B1E00E94361A0E9413
:1025E000731CAAE1B1E00E94361AE4E0F1E40E9413
:1025F0008C1BE0E0F1E0A190BB24E4E3F2E0EA0D03
:10260000FB1DAAE1B1E00E94361A0E94731C0C94D3
:102610000C1385E08093E3010C94111384E0809304
:10262000E3010C94FF13E6E2F6E40E947C1D11F036
:102630000C948E130091E902033011F00C9489136D
:10264000AFEFB2E00E94B81CA0E0B1E00C930091A3
:102650000001003080E010F009F081E08F930091DC
:102660000001053081E008F080E09F9189238823F4
:1026700011F40C94841380E08093E301A4E1B3E0AF
:102680000E94B81CA0E0B1E0AD90BB24A2EEB2E085
:10269000AA0DBB1D0C93E0E0F1E0A190BB24E8E1A2
:1026A000F0E0EA0DFB1DA0E0B1E0AD90BB24A2EE8E
:1026B000B2E0AA0DBB1D7BE70E944B1DAAE1B1E071
:1026C000EEE2F6E40E948C1BE0E0F1E0AAE1B1E06A
:1026D0000E94361A0E94731CAAE1B1E00E94361AC9
:1026E000E4E4F6E40E948C1BE0E0F1E0A190BB245E
:1026F000E2EEF2E0EA0DFB1DAAE1B1E00E94361A1B
:102700000E94731C0C94871385E08093E3010C9462
:102710008C1384E08093E3010C94FF13E8E4F6E467
:102720000E947C1D11F00C94E2130091E90202302A
:1027300011F00C94DD1300910001003080E010F0E6
:1027400009F081E08F9300910001053081E008F0ED
:1027500080E09F918923882311F40C94D81380E0A2
:102760008093E301AAE1B1E0E0E5F6E40E948C1B6E
:10277000E0E0F1E0AAE1B1E00E94361A0E94731C89
:10278000AAE1B1E00E94361AE4E0F1E40E948C1B59
:10279000E0E0F1E0A190BB24E2EEF2E0EA0DFB1DE7
:1027A000AAE1B1E00E94361A0E94731C0C94DB135C
:1027B00085E08093E3010C94E01384E08093E301CF
:1027C0000C94FF13ECE5F6E40E947C1D11F00C94D0
:1027D000FC1380E08093E301AAE1B1E0E4E6F6E4D3
:1027E0000E948C1BAAE1B1E00E94361AE7EEF2E0EB
:1027F0000E94001D0C94FF1381E08093E3010C9470
:10280000041482E08093E3010091E301003018F0AA
:1028100011F00C940D140C941914EEEDFDE2A3EEDE
:10282000B1E08C9199270E94D31BAAE1B1E00E94EC
:102830008C1BAAE1B1E00E943F1A0E944C1A089535
:10284000ECE6F6E40E94451A0E944C1A80916F0251
:1028500080932602809170028093270280E080930B
:10286000020181E08093090100910901043118F00F
:1028700011F00C948C14E9E0F1E0A190BB24EAE69D
:10288000F2E0EA0DFB1DA0E8BFE00E94E71C0E94F9
:102890003D1AECE1F1E40E94451AA9E0B1E00C9187
:1028A00000FB16F00C946114A9E0B1E0AD90BB24DC
:1028B000AAE6B2E0AA0DBB1D8C91809300010C9496
:1028C0008414A9E0B1E0AD90BB24AAE6B2E0AA0D61
:1028D000BB1D8C918093010194E0A1E0B1E00E94C6
:1028E000A91BA2E0B1E08C918F5F8C930091000155
:1028F00040910101042BA2E0B1E0AD90BB24A0E81F
:10290000B2E0AA0DBB1D0C93A9E0B1E08C918F5FE2
:102910008C9310F40C9434140E944C1AE8E7F6E4FB
:102920000E94451A0E944C1A81E08093090100918F
:1029300009010A3018F011F00C94B814E9E0F1E044
:10294000A190BB24E0E8F2E0EA0DFB1DA0E8BFE0A7
:102950000E94E71C0E943D1AECE1F1E40E94451A36
:10296000A9E0B1E08C918F5F8C9310F40C949714D4
:102970000E944C1A88E090E0A1E8B2E00E94A01DFD
:10298000ABE0B1E00D931C93E2E8F6E40E94451A37
:10299000EBE0F1E0A0E8BFE00E94E91C0E943D1AD4
:1029A0000E944C1A9091890280918A02ADE0B1E0B8
:1029B0008D939C93E8E8F6E40E94451AEDE0F1E07F
:1029C000A0E8BFE00E94E91C0E943D1A0E944C1A38
:1029D000ADE0B1E04D915C91ABE0B1E00D911C91A7
:1029E0000417150711F00C94D316E0E9F6E40E94E1
:1029F000451AAFEDB2E00E94EF19E5E1F0E0AFED6E
:102A0000B2E07BE70E944D1DEFEDF2E0A0E8BFE0F1
:102A10000E94631C0E943D1A0E944C1A0091810280
:102A2000043281E009F080E08F9300918202053545
:102A300081E009F080E09F918923882311F40C94B0
:102A4000CB16E8E9F6E40E94451A0E944C1AE6EA21
:102A5000F6E40E94451AE4E8F2E0A0E8BFE00E9434
:102A6000731C0E943D1A0E944C1A8091840280932C
:102A700032024091260200912102041711F00C94B9
:102A80003716A2E2B2E0E2E5F0E40E94451FE2E27E
:102A9000F2E00E94E91D0E94EA1EEDE0F0E0A2E2F1
:102AA000B2E00E942F1DE5E0F0E0A2E2B2E094E087
:102AB0007BE70E944E1DE0EBF6E40E94451AE2E23D
:102AC000F2E0A0E8BFE00E94E91D0E948D1A0E947A
:102AD0003D1A0E944C1A0E94A905E8EBF6E40E94F8
:102AE000451A0E944C1A81E0809309010091090166
:102AF0000F3018F011F00C949715E9E0F1E0A19077
:102B0000BB24E8E3F2E0EA0DFB1DA0E8BFE00E9471
:102B1000E71C0E943D1AECE1F1E40E94451AA9E08D
:102B2000B1E08C918F5F8C9310F40C9476150E9419
:102B30004C1AA7E2B2E00C9103FB16F40C94BD15FD
:102B4000709131027F7770933102E2ECF6E40E94DB
:102B5000451AA1E3B2E08C9187FBA0E8BFE00E9498
:102B6000F71B8D9388278C930E943D1A0E944C1A64
:102B700081E0809395020C94D815709131027068B1
:102B800070933102EEECF6E40E94451AA1E3B2E044
:102B90008C9187FBA0E8BFE00E94F71B8D938827EC
:102BA0008C930E943D1A0E944C1A8BE080939502F0
:102BB00070912702777F709327028091270280937C
:102BC0002A02EAEDF6E40E94451AEAE2F2E0A0E801
:102BD000BFE00E94731C0E943D1A0E944C1A809113
:102BE0002A02809328020E944C1AE6EEF6E40E9424
:102BF000451A0E944C1AEAE9F3E40E94451A81E062
:102C000080930901009109010E3118F011F00C9424
:102C10002316ECE1F1E40E94451AE9E0F1E0A1900D
:102C2000BB24E8E4F2E0EA0DFB1DA0E8BFE00E944F
:102C3000E71C0E943D1AA9E0B1E08C918F5F8C9354
:102C400010F40C9402160E944C1A88EC90E0D20109
:102C50008D939C9382E00E947C1B0E9434052296F7
:102C600082E00E94781B0E94DA060C94C91600913B
:102C700026020F3011F00C946116E2EFF6E40E9488
:102C8000451A0E944C1A83E080932A0283E08093C5
:102C9000280283E080939502EAEDF6E40E94451A4B
:102CA000EAE2F2E0A0E8BFE00E94731C0E943D1A35
:102CB0000E944C1A709131027F77709331020C940C
:102CC000C916009126020E3011F00C948B16E0E02C
:102CD000F7E40E94451A0E944C1A82E080932A026F
:102CE00082E08093280282E0809395027091310205
:102CF0007F7770933102EAEDF6E40E94451AEAE22A
:102D0000F2E0A0E8BFE00E94731C0E943D1A0E94FE
:102D10004C1A0C94C916009126020D3011F00C9437
:102D2000A716ECE0F7E40E94451A0E944C1A709135
:102D300031027F777093310281E080932A0281E033
:102D40008093280281E0809395020C94C91600912B
:102D500026020C3011F00C94C316EAE1F7E40E944D
:102D6000451A0E944C1A81E080932A0281E08093E8
:102D700028028BE080939502709131027068709305
:102D800031020C94C916ECE2F7E40E94451A0E9445
:102D90004C1A0C94D116E0E5F7E40E94451A0E9403
:102DA0004C1A0C94EC16EEE5F7E40E94451AA1EEDD
:102DB000B2E00E94EF19E7E1F0E0A1EEB2E07BE7BC
:102DC0000E944D1DE1EEF2E0A0E8BFE00E94631C0E
:102DD0000E943D1A0E944C1A0E944C1A08954F4BB3
:102DE00000436F6D616E646F206E6F207265636F5C
:102DF0006E6F6369646F004C6F6E676974756420F1
:102E0000636F6D616E646F206E6F2076616C6964B4
:102E100061004E756D65726F206465207573756114
:102E200072696F206E6F2076616C69646F004E75F9
:102E30006D65726F20646520706172616D6574727A
:102E40006F7320696E76616C69646F004572726F92
:102E500072206C6F6E676974756420706172616D49
:102E60006574726F2031004572726F72206C6F6EE4
:102E7000676974756420706172616D6574726F202A
:102E80003200506172616D6574726F206E6F2076D2
:102E9000616C69646F004552524F5238004552527E
:102EA0004F522053442E20496E74656E7465206421
:102EB00065206E7565766F0000000000030000005D
:102EC00033000000330300003333000033330300CA
:102ED00033C00C00FF0FFF0F5555555533333333B7
:102EE000777777770000FFFFCC00FCFFCC0CFCFF6E
:102EF000CCCCFCFF0C00FCFFF0FFFFFF0000010248
:102F0000030000000000010101010304040406069F
:102F10000606060607000000000101010103040483
:102F2000040606060606060700000000010101016E
:102F3000030404040606060606060404060607073C
:102F40000707070006060606060604040606060628
:102F50000606040407060606060606040406060618
:102F60000606060404060606060606040406060609
:102F700006060604040706060606060604040606F8
:102F800006060606060008080808080808080808D3
:102F900008080606060808080808080808080808B7
:102FA000080606060C0C0C0C0C0C0C0C0C0C0C0C77
:102FB0000C0C0C0C0C0C0C0C0C0C0C0C0C0C0C0C51
:102FC0000C0C0E947903ABE9B2E08C9184FB16F003
:102FD0000C94FB1770919B027F7E70939B02E8E636
:102FE000F7E40E94451AAEE7B6E00E943F1A0E943D
:102FF0004C1A0E94CD0AA1E3B2E08C9185FB16F039
:103000000C940918709131027F7D709331020E94F7
:1030100020140E94C507A1E3B2E08C9184FB16F056
:103020000C941D18709131027F7E70933102EEE690
:10303000F7E40E94451A0E944C1AABE9B2E08C9169
:1030400086FB16F00C94981870919B027F7B70930E
:103050009B020E94A409A1E3B2E08C9186FB16F0CA
:103060000C94981800913302043010F00C945B1803
:103070000091330241E0040FA8EEB2E00C93E8E7C0
:10308000F7E40E94451AE8EEF2E0A0E8BFE00E94F3
:10309000731C0E943D1A0E944C1AE8E7F7E40E9454
:1030A0005E1AE8EEF2E0A0E8BFE00E94731C0E9406
:1030B000561A0E94651AA3E3B2E08C918F5F8C933D
:1030C000A3E3B2E00C914AE00E94661D8C9300914C
:1030D0003302003011F00C949818E2E8F7E40E94F3
:1030E000451AE4E3F2E0A0E8BFE00E94731C0E94EE
:1030F0003D1A0E944C1AA4E3B2E08C918F5F8C932E
:10310000A4E3B2E00C9143E00E94661D8C93009111
:103110003402003011F00C949818709131027F7BCA
:1031200070933102E0E9F7E40E94451A0E944C1ABC
:10313000379B0C94C1180027A8E0B1E08C9184FB68
:1031400000F94427A6E2B0E08C9187FB40F9041710
:1031500011F40C94BF18E2EAF7E40E94451A0E94A9
:103160004C1AA6E2B0E08C9187FBA8E0B1E08C910C
:1031700084F98C93709108017B7F709308010C9403
:10318000E5180027A8E0B1E08C9184FB00F9442702
:10319000A6E2B0E08C9187FB40F9041711F40C947F
:1031A000E518EAEAF7E40E94451A0E944C1AA6E2E2
:1031B000B0E08C9187FBA8E0B1E08C9184F98C930E
:1031C00070910801746070930801A8E0B1E08C91DF
:1031D00086FB16F00C944719709108017F7B709361
:1031E0000801A8E0B1E08C9187FB16F40C94471914
:1031F000E2EBF7E40E94451AE8E2F2E0A0E8BFE063
:103200000E94731C0E943D1AECE1F1E40E94451AF1
:10321000E2E3F2E0A0E8BFE00E94731C0E943D1AC6
:103220000E944C1AE2EBF7E40E945E1AE8E2F2E038
:10323000A0E8BFE00E94731C0E94561AECE1F1E482
:103240000E945E1AE2E3F2E0A0E8BFE00E94731C75
:103250000E94561A0E94651AA0E3B2E08C918F5F1B
:103260008C93A0E3B2E00C914AE00E94661D8C931F
:1032700000913002003011F00C944719ECEBF7E4A8
:103280000E94451A0E944C1A81E080932B02A8E00C
:10329000B1E08C9180FB16F00C94DF19709108015D
:1032A0007E7F70930801AEE2B2E00E94EF19AEE2B9
:1032B000B2E00D911C91ADE1B2E04D915C910E94A4
:1032C0001C1AAEE2B2E00D931C93A1E3B2E08C9124
:1032D00087FB16F40C949E1900912802013011F01E
:1032E0000C947C19E2E0FFE2AEE2B2E08D919C9199
:1032F000ADE2B2E00E94C91B00912802023011F039
:103300000C948C19E6E8FFE2AEE2B2E08D919C915C
:10331000ADE2B2E00E94C91B00912802033011F017
:103320000C949C19E4EAFFE2AEE2B2E08D919C912C
:10333000ADE2B2E00E94C91B0C94A11987E0809312
:103340002D0200910F01013011F00C94D219EEE220
:10335000F2E0A0E8BFE00E94631C0E943D1AECE18D
:10336000F1E40E94451AEDE2F2E0A0E8BFE00E941D
:10337000731C0E943D1AECE1F1E40E94451AE4ED51
:10338000F7E40E94451AA1E3B2E08C9187FBA0E824
:10339000BFE00E94F71B8D9388278C930E943D1AF3
:1033A0000E944C1A80912D02D2018C9381E00E94E0
:1033B0007C1B0E947F09229681E00E94781BA8E076
:1033C000B1E08C9183FB16F00C94ED19709108011B
:1033D000777F709308010E9479030C94E317ED91B5
:1033E000FC91EF5FFF4FFC93EE93089509D00E948C
:1033F000821B00FC10D0089503D01ED001F8F9CF35
:103400000024E89457FF02C009D0689400F80BD05C
:1034100010F80124089502D009D0089550954095E0
:103420004F5F5F4F0895E89417FF0895009510953A
:103430000F5F1F4F68940895352F242FE894452B74
:1034400011F468940895512F402F0027112780E12F
:10345000440F551F001F111F021B130B416018F46E
:10346000020F131F4E7F8A9599F708958F938D91C0
:103470008823E9F711978F910895A0E8BFE08D9117
:10348000882311F00CD0FBCF08950E94B91B802D2A
:1034900011F005D0FACF08958DE001D08AE00090B8
:1034A000C00005FEFCCF8093C6000895A0E8BFE0F1
:1034B0008D91882311F00CD0FBCF08950E94B91B89
:1034C000802D11F005D0FACF08958DE001D08AE06B
:1034D0000090C80005FEFCCF8093CE00089588EED2
:1034E00093E00CD03197D9F708953197F1F708950B
:1034F000689462F80895E89462F80895EF93FF9352
:10350000EE27E82BE92B31F0E3E3F7E03197F1F711
:103510000197D1F7FF91EF9108958DE207FD8D930B
:103520008F2D881F802F881F8F57082F6894F7F8DA
:10353000802F87FF15C080958395082F80E38D939A
:103540008EE28D93802F815228F080E38D9399270E
:103550009C93089544270A95802F09F196D01FC0A7
:10356000805230F09EE49D9381E48D939D93EFCF44
:103570004427DF92EF92FF920F938FE1801B11F0AF
:10358000082F83D089D09EE29D930F91FF90EF90FA
:10359000DF9044270395003209F4D7CF2BD03F9317
:1035A000EAE2F6E338E12F2D1E2D0D2DFF24EE2447
:1035B000DD244427000F111F221FA8F42F923F92F1
:1035C0000E94B91B102C0E94B91B202C0E94B91B11
:1035D000302C0E94B91B3197410DD21CE31CF01C0A
:1035E0003F902F9001C0339631963A9519F73F914D
:1035F00007D0AFCFDD0CEE1CFF1C0A95D9F708955C
:10360000002719E058D08F93802B11F0039501C04B
:103610008F911A95B9F7802F882309F496CF8F914F
:10362000805D8D930A95D9F792CF0065CD1D80B24C
:10363000E60E40597307A0ACB90350D6DC01286BE5
:10364000EE0094357700CA9A3B0065CD1D00B2E6C6
:103650000E0059730700ACB90300D6DC01006BEE15
:103660000000357700009A3B0000CD1D0000E60EFB
:10367000000073070000B9030000DC010000EE0049
:103680000000770000003B000000F694E794D79418
:1036900047950A95D1F7089500270DD08F9303958C
:1036A0008F2D8E298D29842BC1F78F91805D8D936D
:1036B0000A95D9F74CCF1F930F93002710E2440FC0
:1036C000DD1CEE1CFF1C001F802F9AE0890B10F000
:1036D000082F43951A9599F7802F0F911F91089500
:1036E00001911191219130810895481A590A089544
:1036F000481A8827580A089599275A924A92480EDC
:10370000591E08950F92B801469F8001479F100DE2
:10371000569F100D0F9008950E94B91B0D92002026
:10372000D9F7089570917A00706470937A000090D0
:103730007A0006FCFCCF70917A00706470937A0076
:1037400000907A0006FCFCCF80917800909179007F
:103750000895903029F08C91880F9A95E9F78C9311
:103760000895903029F08C9186959A95E9F78C937D
:103770000895C89531960020089591E005C092E023
:1037800003C094E001C098E0F4DF0D929A95E1F750
:103790000895E80FF91FF1CF880F991F880F991F1F
:1037A000E80FF91FEECF0196019721F00E94B91B97
:1037B000E9F7FACF0895819104D08D938823D9F742
:1037C0000895813618F08B3708F48F7D089591E0C5
:1037D000882321F08894991F8A95E9F7892F90957D
:1037E0000895883018F011968850FBCF089580E333
:1037F0000EF48395089599278D9193958823E1F789
:10380000939511968C9311978E919A95D1F708956F
:10381000EA2FFB2F00244C918D9103948E32E1F717
:1038200011248D9113948823E1F71A94101640F413
:103830001197202F2119239580E38D932A95E9F77D
:10384000113039F59927AE2FBF2FA00DB91FA00F4A
:10385000B91F8C919C93853308F421C031E08E917F
:103860008E32E9F38D3241F0830F8A3319F480E30D
:1038700031E001C033278C93AE1789F7332341F031
:10388000AE2FBF2FB8DF81E34D3209F4319680832C
:1038900008958827E00DF81FE00FF81F8083089532
:1038A000040F151F261F371F0895000F111F221F19
:1038B000331F089500951095209530950F5F1F4F89
:1038C0002F4F3F4F0895019110810FC00E94701B30
:1038D0000EC00E94701B10C00191108117FF05C01F
:1038E0003FEF2FEF04C0008111272227332737FF36
:1038F00003C0E0DF8DE28D93CF92DF92EF92AA2496
:10390000BB24CC24DD24EE2440E2EAE0FF2755E08E
:1039100093E38081890F87FD9F7083FD907F891BD2
:1039200081935A95A9F7C1DFAA1CBB1CCC1CDD1CD6
:10393000EE1C4A9551F7E894EFE0FF2782910BD0F7
:10394000EB30E0F71EF068948A2D09D04D93EF908C
:10395000DF90CF900895982F829501D0892F8F7096
:10396000805D26F0803309F4089568948D9308955E
:1039700000271127222733271DD08A3328F48033CC
:1039800018F005D015D0F9CF0EF494CF08958053D8
:103990008F93402F512F622F732F87DF86DF80DFB9
:1039A00084DF8F919927080F191F291F391F089548
:1039B0008D910895E894FCDF8032E9F38B32D9F3DE
:1039C0008930C9F38D3211F46894F2CF089541E043
:1039D00003C042E001C044E0E40F8827F81F829151
:1039E000982F829506D0892F04D04A95C1F70C9460
:1039F000271D8F708A3008F0895F805D8D93089550
:103A000041E0E40F8827F81F829138E098E1880FA1
:103A1000991F9D933A95D1F74A95B1F70C94271DBC
:103A200000271127222733278D91882379F03DDF46
:103A30003CDF3BDF3ADFC5DE815408F4895F865FF7
:103A4000080F8827181F281F381FEECF08958827D2
:103A50008D93089581918D938823E1F7089594E0E3
:103A600081918D939A95E1F7089509919191992308
:103A700059F08A95D9F73197002331F081918D93D0
:103A80000A958823C9F70895E2CFF999FECFE1BDE1
:103A9000F2BD3196089591E001C092E07B3751F478
:103AA0007FB7F894F2DF8D9180BDFA9AF99A9A95D2
:103AB000C9F77FBF7727089591E001C092E0E5DF65
:103AC000F89A80B58D939A95D1F70895FF93881B46
:103AD000F9E0001FFA9511F4FF910895881F841BE7
:103AE00018F4840F8894F5CF0894F3CF8FEF839563
:103AF0009D919923E1F70895689401C0E894AF93EC
:103B0000BF938D9116F0919103C00E94B91B902D27
:103B1000891718F011F48823A1F7BF91AF91089588
:103B200000276CE8719198E00695779577FF18F477
:103B300077FD08F006279A95B9F78A9599F70895C1
:103B40000027112730E141E20D90102528E08894EC
:103B5000001F111F10F4132704272A95C1F701979E
:103B600099F70895689401C0E8942227102F23172D
:103B700009F4089526F40E94B91B802D01C081919B
:103B8000803081F0891741F070E08D931A9591F79C
:103B9000239571E01D93EACF01D0E8CF703011F08A
:103BA00077270895772331F42395882713958D93EC
:103BB0001A95E9F70895B7FE089590E8B91611F43B
:103BC000D0FE08959FEFD91AE90AF90A09F403957E
:103BD0000895D190E190F190019108952191319152
:103BE000419151910895502F2D2D3E2D4F2D612F34
:103BF0000895D094E094F09491E0D90E9927E91EAD
:103C0000F91E10950895652F90E8440F551F592708
:103C1000990F47956078102F90E8FF0C001F092737
:103C2000990FF794107800380895FF0C90E89027CA
:103C3000110F9795F794092F08951127BD2CDE2CAD
:103C4000EF2CF02E0EE1FF2039F4FE2CED2CDB2CB6
:103C5000BB240850C2F752C032F00A95BB0CDD1CE1
:103C6000EE1CFF1CF9CFA7DFE0CF2DEC3CEC4CECB9
:103C70005DE366270FC0ADDFB6DFDD24EE2490E8FC
:103C8000F92E0FE307C0AADF05C02227332740E241
:103C900051E46627552351F1002381F1B4DF71F11E
:103CA0001627005850580894050B18F407FD03C058
:103CB00025C007FD23C0469537952795F694E794D0
:103CC000D79425D0FF202AF0DD0CEE1CFF1C0150FC
:103CD00073F09D2D969548F0DD203AF4EE202AF4FD
:103CE00091E0D90E9927E91EF91E9FCF07C09FE7E3
:103CF000092FF92A9FEFD92EE92E0895DD24EE240D
:103D0000FF240027112708950FE79FEFF2CF9F921E
:103D10009924AA24BB2488E1D216E306F40628F0ED
:103D2000D21AE30AF40A089401C08894991CAA1CC8
:103D3000BB1CDD0CEE1CFF1C8A9571F7D92CEA2CFC
:103D4000FB2C9F9008955FDFD9F05038C9F01627FB
:103D50000058952F90580894091F12F418F40EC0BB
:103D600008F00EC00FD0FF202AF0BB0CDD1CEE1CAB
:103D7000FF1C02C0039513F01EDF57CF0C94771E73
:103D80000C947E1E9F92FF92EF928D2DFF24EE24C5
:103D9000DD24BB2493E0849F1001829FB00CD11CD2
:103DA000E21CF31C839FD00CE11C2224F21C9A9588
:103DB00031F0BD2CDE2CEF2CFF248F91ECCF9F90A7
:103DC00008950AF045D031CF5FE3222733274427F7
:103DD00001C004DF18DF5038B1F3003899F3902F99
:103DE000951B8BF312F434D0FACF983118F02227B8
:103DF00033274427983028F0232F342F4427985016
:103E0000F9CF992329F04695379527959A95D9F7B3
:103E1000912F962742F014D0B0F6F794E794D794F8
:103E20000F5F8BF664CF10D051F008F4E2DEFF2074
:103E300052F2DD0CEE1CFF1C0150CBF758CF5ECFC9
:103E4000D20EE31EF41E0895D21AE30AF40A08956E
:103E5000DF92EF92FF920F931F93D22EE32EF42E58
:103E6000052F162F6F915F914F913F912F910895DC
:103E70000E94B91BD02C0E94B91BE02C0E94B91BD8
:103E8000F02C0E94B91B002D08950E94B91B202D13
:103E90000E94B91B302D0E94B91B402D0E94B91BF6
:103EA000502D08950E947B1A88278A938A9326DFD3
:103EB00011278D918B32E9F38032D9F31197BBD062
:103EC00098F08D3229F4109511968C91B4D060F051
:103ED0008E3229F411968C91AED008F446C0229609
:103EE0000E94781A81E008958C91A5D0D8F511969A
:103EF00046D0D0F703958D919ED0E0F38E3229F411
:103F00008C9199D010F41196FBCF853419F0853639
:103F100009F055C011968C918ED060F08D3219F059
:103F20008B3221F0DCCF08800094088211968C91AE
:103F300082D0A8F68053898311968C917CD058F456
:103F40009981990F990F0980900D990F8053890FCE
:103F50008983873220F68981988199230AF4819593
:103F6000080F2DC08E3289F611968C9164D068F6B8
:103F700006D018F011960A95F8CF1196C1CF4F2DA3
:103F80003E2D2D2DDD0CEE1CFF1CA8F0DD0CEE1CD3
:103F9000FF1C88F0D20EE31EF41E68F0DD0CEE1C50
:103FA000FF1C48F0805309F06894D80E8827E81E5B
:103FB000F81E08F00895F42EE32ED22E089534D082
:103FC00019F116F5098308E921D006958827879508
:103FD0009F2D9F77980FF92E0150000F110F079515
:103FE0008981882379F01AF48195898306C03DDEA2
:103FF00089818A958983D9F705C047DE89818A95A9
:104000008983D9F72296089579DEFCCF0DD041F04F
:10401000FF2032F00A9531F0DD0CEE1CFF1CD2F7C8
:10402000889408950894089500240D280E280F28D8
:10403000002A00200895803320F08A3310F4089479
:10404000089588940895FF0D613D00000000000070
:1040500000410000803F2A2A2A2A2A2A2A2A2A2ABC
:104060002A2A20524144494F425249444745202A76
:104070002A2A2A2A2A2A2A2A2A2A2A0031352D30AF
:10408000372D323032342031343A33333A3434003D
:10409000302E312E3332340052424447564F4C2E8C
:1040A000424153004E756D6573746163696F6E3D77
:1040B00000004164636B2800293D0000436F6E746B
:1040C00061646F72206465207472616E736D6973D0
:1040D000696F6E6573203D0054616E693D00434E0B
:1040E00054524352434F4B3D0000434E54524352AF
:1040F000434241443D00566F6C3D0000546F70498F
:10410000324300003D005472616D612054582044D8
:10411000544D4600543D000072783D002C004D6F18
:10412000646F2074657374204C6F63616C004D6F15
:10413000646F20416C65727461204E6172616E6AB9
:1041400061204C6F63616C0041204D6F646F204EA5
:104150006F726D616C206465736465204D6F646F70
:104160002054657374204C6F63616C0041204D6F67
:10417000646F204E6F726D616C206465736465209E
:10418000412E204E6172616E6A61204C6F63616CDA
:10419000000043616D62696F20646520537461742F
:1041A00075733D004E7565766F2053746174757339
:1041B00020526563696269646F20706F722052617A
:1041C00064696F3D0000414443004C4545564657E5
:1041D000000056657273696F6E2046573A20466537
:1041E000636861203C003E2C204172636869766FF1
:1041F000203C00003E005345544C454400005365AC
:1042000020636F6E666967757261207365746C6593
:104210006420612000004C45454C45440000457336
:104220007461646F204C45443D00534554545850CC
:104230000000536520636F6E66696775726F207446
:1042400069656D706F20646520747820706572698F
:104250006F6469636173206120002073000053451F
:10426000545454450000536520636F6E666967754A
:10427000726F207469656D706F206465207478209A
:10428000656E747265206573746163696F6E6573C2
:104290002061200053455443545800005365206367
:1042A0006F6E66696775726F20636F6E7461646F9D
:1042B000722074783D004C454554585000005469B4
:1042C000656D706F20646520747820706572696F09
:1042D0006469636173203D004C45455454450000BA
:1042E0005469656D706F20646520747820656E7404
:1042F0007265206573746163696F6E6573203D003C
:104300004C45454354580000436F6E7461646F72AE
:104310002064652074783D0054535444454C00009B
:10432000546573742044656C617920200000494E07
:10433000490046494E00494E4954585000004E75B8
:1043400065766120747820506572696F6469636175
:1043500000005345545354410000536520636F6E71
:1043600066696775726F206E756D65726F20646522
:10437000206573746163696F6E203D004C45455341
:10438000544100006E756D65726F20646520657321
:10439000746163696F6E203D0000525844544D466D
:1043A000000053696D756C6163696F6E20646520F0
:1043B000525820746F6E6F732044544D46004573FD
:1043C0007461646F5F6C6564313D000045737461B6
:1043D000646F5F6C6564323D000053455441444353
:1043E0000000536520636F6E66696775726F2041C8
:1043F000444320004C4545414443000056616C6FE6
:1044000072657320414443200000534554444247A1
:104410000000536520686162696C69746120646999
:1044200073706C617920646562756700445256410F
:104430005544000052657370756573746120445271
:104440005620415544494F3D0000534554414E4983
:104450000000536520636F6E666967757261205452
:10446000616E693D00004C4545414E490000534591
:10447000545054520000536520636F6E666967752F
:10448000726120507472616E693D0000534554435F
:104490004F4B0000536520636F6E666967757261EC
:1044A00020434E54524352434F4B3D0053455442D8
:1044B00041440000536520636F6E666967757261E1
:1044C00020434E54524352434241443D00004C4528
:1044D0004543524300004352434F4B3D0000202CC4
:1044E000204352434241443D00004C454542415423
:1044F0000000564241543D00202C205650533D00B0
:1045000052535456415200005265696E6963696F97
:1045100020612076616C6F72657320706F72206409
:1045200065666563746F0000494E4956415200004C
:10453000496E696369616C697A612076617269614B
:10454000626C657300005345544D4F440000536541
:1045500020636F6E66696775726F206D6F646F2080
:104560004F46463D00004C45454D4F4400004D6FC1
:10457000646F204F46463D0053455444535000005D
:10458000534520636F6E6669677572612073616C55
:104590006964612064656C7320646973706C61790F
:1045A0002061200053455452454C000072656C65F3
:1045B0003D0046696E2072656C0053455442554774
:1045C0000000536520636F6E66696720454E414267
:1045D00055473D004C45454255470000454E414238
:1045E00055473D004C4545564443000056626174B2
:1045F0003D002C205670733D00002C205664633320
:104600003D004C45454932430000536520636F6EC1
:1046100066204932430056414C49324300005661FE
:104620006C4932432000544F5049324300005365D7
:1046300020636F6E66696720746F70206C696D20EF
:1046400049324300206120004C4545544F50000042
:10465000546F70206C696D2049324300544D5049AD
:1046600032430000546D704932433D005258204E91
:1046700045572044544D46006865782064746D6643
:1046800000004352433D000043524363616C3D00D0
:10469000435243204F4B3D005472616D612076615F
:1046A0006C6964610000566F6C756D656E3D00004D
:1046B000436E747274783D005472616D6120484598
:1046C00058004D4F444F4F46463D302C00004D4F53
:1046D000444F4F46463D312C0000535441545553EE
:1046E0002052583D00005472616D612044544D4683
:1046F00000005472616D6120414C41524D410000F7
:104700005472616D61205445535400005472616DC0
:1047100061204E4F524D414C00004D6F646F204F51
:104720004646206E6F637475726E6F004E4F206543
:10473000732054455354206E6920616C61726D6121
:10474000202E204E6F20726573706F6E64650000BE
:104750004641494C204944205472616D61004352E6
:1047600043206661696C3D00534552313D00545809
:1047700020414C6572746100244C45454932432CFC
:104780000000436E7472747279693263413D0000B7
:1047900046494E20636F6E73756C746120414443CB
:1047A00000004142494552544F0043455252414452
:1047B0004F00244452564155442C000053696E204A
:1047C0007265737075657374612044525641554427
:0A47D000494F00004F46463D00002F
:00000001FF
