:100000000C945A00189500001895000018950000EF
:10001000189500001895000018950000189500002C
:10002000189500001895000018950000189500001C
:10003000189500001895000018950000189500000C
:100040000C94DB01189500000C94B000189500008A
:1000500018950000189500001895000018950000EC
:1000600018950000189500001895000018950000DC
:100070000C94420118950000189500001895000096
:1000800018950000189500001895000018950000BC
:1000900018950000189500001895000018950000AC
:1000A000189500001895000018950000189500009C
:1000B000189500008FEF8DBFC0E8E8E94E2E88E06C
:1000C0008EBFD8E0F7E05F2EA89584B7082E88276A
:1000D00084BF88E199278093600090936000EEEFE1
:1000E000F7E0A0E0B1E088278D933197E9F787E644
:1000F0008093C40080E08093C50088E18093C100B4
:1001000080E08093CD0087E68093CC0088E18093E7
:10011000C9006624229A209A539A549A52985A9A5D
:1001200070E07093B90078E47093B8000E94701288
:1001300085E085BD80E084BD70916E007160709334
:100140006E0085E085BD7091C10070687093C1003C
:100150007091C90070687093C90078940C94F60F80
:100160000F921F922F923F924F925F927F92AF9287
:10017000BF920F931F932F933F934F935F936F9370
:100180007F938F939F93AF93BF93CF93DF93EF931F
:10019000FF939FB79F93ADEFB5E08091C6008C931E
:1001A00084E2482F0091FD05041711F00C94E30040
:1001B00070914402716070934402A4E3B5E0882713
:1001C0008C930C9425010D3011F00C940D01A4E4D6
:1001D000B2E08C9180FB16F00C940B0170914402FC
:1001E0007E7F7093440280E0A4E3B5E00E94491151
:1001F0008D9388278C93E4E3F5E0AEEFB5E00E94A1
:10020000E1137091680270687093680270916E00DB
:10021000716070936E000C9425010F3118F011F08D
:100220000C9414010C942501A4E4B2E08C9180FBA1
:1002300016F00C942501ADEFB5E08C91A4E3B5E088
:100240000E9449118D9388278C939F919FBFFF91A6
:10025000EF91DF91CF91BF91AF919F918F917F915E
:100260006F915F914F913F912F911F910F91BF908F
:10027000AF907F905F904F903F902F901F900F9086
:10028000189508950F921F922F923F924F925F926E
:100290007F92AF92BF920F931F932F933F934F93F1
:1002A0005F936F937F938F939F93AF93BF93CF93FE
:1002B000DF93EF93FF939FB79F93A3E5B2E0809105
:1002C000CE008C93009153020E3711F00C948201F2
:1002D0007091440274607093440280E080935402F1
:1002E000A4E5B2E08C918F5F8C9380915302A4E5DA
:1002F000B2E0AD90BB24A4E5B2E0AA0DBB1D8C9387
:100300000C94BF010F3E11F00C94A101A4E5B2E0E2
:100310008C918F5F8C9380915302A4E5B2E0AD90F5
:10032000BB24A4E5B2E0AA0DBB1D8C9370914402DE
:1003300072607093440280915402809365020C9421
:10034000BF01A4E4B2E08C9182FB16F00C94BF01D3
:10035000A4E5B2E08C918F5F8C9380915302A4E569
:10036000B2E0AD90BB24A4E5B2E0AA0DBB1D8C9316
:10037000A4E5B2E00C9140E10E941D148C939F9182
:100380009FBFFF91EF91DF91CF91BF91AF919F916F
:100390008F917F916F915F914F913F912F911F911D
:1003A0000F91BF90AF907F905F904F903F902F90B4
:1003B0001F900F9018950F921F922F923F924F927D
:1003C0005F927F92AF92BF920F931F932F933F93B1
:1003D0004F935F936F937F938F939F93AF93BF934D
:1003E000CF93DF93EF93FF939FB79F9374E676BD10
:1003F000A7E3B2E08C918F5F8C93A7E3B2E00C91FE
:1004000048E00E941D148C9300913702003011F0D7
:100410000C943B02A8E3B2E00C9140E20E941D1450
:100420008C93ECE7FFE1ADE3B2E08C919927A9E36F
:10043000B2E00E94EC1280913802A9E3B2E00E947F
:1004400011130E9407130C900822689409F4E89491
:10045000A7E2B2E08C9182F98C93A7E2B2E08C9192
:1004600082FBA5E2B0E08C9182F98C93A8E3B2E024
:100470008C918F5F8C93A7E2B2E08C9181FB16F098
:100480000C945D02AEE3B2E00E940511A0E4B2E07C
:100490004D915C91AEE3B2E00D911C9104171507EC
:1004A00011F00C945D027091270271607093270225
:1004B000709127027D7F70932702A4E4B2E08C91B3
:1004C00086FB16F00C947C02A2E4B2E00E940511B7
:1004D000A5E4B2E04D915C91A2E4B2E00D911C91D3
:1004E0000417150711F00C947A0270914402706899
:1004F000709344020C94820280E090E0A2E4B2E0A7
:100500008D939C939F919FBFFF91EF91DF91CF912E
:10051000BF91AF919F918F917F916F915F914F911B
:100520003F912F911F910F91BF90AF907F905F905F
:100530004F903F902F901F900F901895289A2A98CF
:100540005B985C98E0E1FBE20E9458110E945F1109
:10055000A0E8B7E0E8E3FBE20E94D6120E94501147
:100560000E945F11A0E8B7E0ECE4FBE20E94D61223
:100570000E9450110E945F11A0E8B7E0E4E5FBE2A1
:100580000E94D6120E9450110E945F118EE7809344
:100590002B028FEF80932C0281E080933D02E0E0FC
:1005A000F0E0A4E2B2E00E94131481E08093240200
:1005B000E8E6FBE20E945811E4E2F2E0A0E8B7E0CE
:1005C0000E943A130E9450110E945F110895E0E7C3
:1005D000FBE20E945811E881F981A0E8B7E00E948F
:1005E0003A130E9450110E945F110E9487121CE969
:1005F0000E949B1210E40E949B12A881B9811C9159
:100600000E949B120E949312089584E690E00E943B
:100610007E110E9487121CE90E949B12A881B98159
:100620001C910E949B120E9487121DE90E949B123E
:100630000E94BA12A1E5B2E01C930E94B812A1E593
:10064000B2E01C930E949312E8E0FBE20E9477154F
:10065000E1E5F2E0D080EE24FF2400270E94A814F8
:100660000E943915EDE0F0E0A4E0B1E00E94E6134D
:10067000ECE0FBE20E947715E4E0F1E00E947E14DA
:100680000E94E014EDE0F0E0A4E0B1E00E94E61387
:10069000E4E0F1E0A0E8B7E00E947E140E948D1132
:1006A0000E9450110E945F11EAE7FBE20E9458117C
:1006B000E881F981A0E8B7E00E943A130E94501146
:1006C000E4E8FBE20E945811E1E5F2E0A0E8B7E0BF
:1006D0000E943A130E9450110E945F110895E6E8AB
:1006E000FBE20E9458110E945F1128985B9A88ECE7
:1006F00090E0A5E4B2E08D939C93709144027F77E3
:100700007093440280E090E0A2E4B2E08D939C9369
:1007100070914402706470934402A4E4B2E08C913E
:1007200081FB81E00EF080E08F93A4E4B2E08C9135
:1007300087FB81E00EF080E09F91892B882311F4E4
:100740000C948D030E943009709144027D7F709358
:100750004402009158020F3311F00C94D305EEE8D7
:10076000FBE20E9458110E945F1100915B0202306F
:1007700011F00C94BF058FEFD2018C9381E00E94A1
:10078000D0120E94E702229681E00E94CC12E8E992
:10079000FBE20E9458110E945F11EEE9FBE20E9409
:1007A00058110E945F11EEE9FBE20E9458110E946D
:1007B0005F11E8EAFBE20E9458110E945F1188EC89
:1007C00090E0D2018D939C9382E00E94D0120E940F
:1007D0007408229682E00E94CC12E0EBFBE20E94B9
:1007E00058110E945F11E4EBFBE20E945811E7E60A
:1007F000F2E0A0E8B7E00E943A130E9450110E9474
:100800005F1186E0D2018C9381E00E94D012A7E6AE
:10081000B2E08C91D2018D9388278C9382E00E9464
:10082000D0120E949708249683E00E94CC128FE099
:10083000D2018C9381E00E94D01286E091E0D20137
:100840008D939C9382E00E94D0120E949708249678
:1008500083E00E94CC12EAEBFBE20E9458110E9456
:100860005F1180ED97E0A5E4B2E08D939C937091C9
:1008700044027F777093440280E090E0A2E4B2E00B
:100880008D939C93709144027064709344028091A4
:10089000580280930801A8E6B2E08C9187FB16F01D
:1008A0000C946304709168027F7770936802EAEC9D
:1008B000FBE20E945811AEEFB5E00E9452110E9477
:1008C0005F110E945F09A4E4B2E08C9183FB16F0F3
:1008D0000C947C0470914402777F70934402E0EDA5
:1008E000FBE20E9458110E945F11A2E5B2E0BA93A8
:1008F000AA930E9405032296A2E4B2E00D911C91F6
:1009000044E650E00E942F11A9E0B1E00D931C9342
:10091000A9E0B1E00D911C91003050E0150711F0F5
:100920000C94A004EAEDFBE20E945811E2E4F2E02C
:10093000A0E8B7E00E942A130E9450110E945F11A4
:10094000009108010D3381E009F080E08F93A4E469
:10095000B2E08C9187FB81E00EF080E09F91892BC3
:100960008F9300912402013081E009F080E09F9193
:10097000892B882311F40C944704E2EEFBE20E94D9
:1009800058110E945F110E943009E0EFFBE20E94C3
:1009900058110E945F118FE0D2018C9381E00E9478
:1009A000D01286E091E0D2018D939C9382E00E9468
:1009B000D0120E949708249683E00E94CC1284E60D
:1009C00090E0D2018D939C9382E00E94D0120E940D
:1009D0007408229682E00E94CC120E94300988E0BE
:1009E000D2018C9381E00E94D01280E090E0D2018D
:1009F0008D939C9382E00E94D0120E9497082496C7
:100A000083E00E94CC1288EB9BE0A5E4B2E08D93DA
:100A10009C93709144027F777093440280E090E051
:100A2000A2E4B2E08D939C93709144027064709341
:100A30004402A8E6B2E08C9187FB16F00C943105D5
:100A4000709168027F7770936802EAECFBE20E9483
:100A50005811AEEFB5E00E9452110E945F110E9442
:100A60005F09A4E4B2E08C9181FB16F00C943F0581
:100A7000709144027D7F709344020E943009A4E487
:100A8000B2E08C9183FB16F00C94580570914402EF
:100A9000777F70934402E0EDFBE20E9458110E94C0
:100AA0005F11A2E5B2E0BA93AA930E9405032296D1
:100AB000A2E4B2E00D911C9144E650E00E942F1197
:100AC000A9E0B1E00D931C93A9E0B1E00D911C9158
:100AD000003050E0150711F00C947C05EAEDFBE2C4
:100AE0000E945811E2E4F2E0A0E8B7E00E942A1365
:100AF0000E9450110E945F11A4E4B2E08C9187FB28
:100B000081E00EF080E08F9300912402013081E0BB
:100B100009F080E09F91892B882311F40C9419052A
:100B2000EAEFFBE20E9458110E945F118EE0D201B1
:100B30008C9381E00E94D01280E090E0D2018D93EE
:100B40009C9382E00E94D0120E949708249683E032
:100B50000E94CC1284E690E0D2018D939C9382E0B7
:100B60000E94D0120E947408229682E00E94CC1249
:100B70000E94300981E0809324020C94D105E4E0C6
:100B8000FCE20E9458110E945F11EAE0FCE20E9420
:100B900058110E945F11EAE0FCE20E9458110E9485
:100BA0005F110C94F105E4E1FCE20E9458110E94EF
:100BB0005F115B985C9880E0D2018C9381E00E9489
:100BC000D0120E94E702229681E00E94CC12289A5D
:100BD00084E690E00E947E11709127027068709305
:100BE00027020895E8E2FCE20E9458110E945F117A
:100BF00028985B9A88EC90E0A5E4B2E08D939C93F2
:100C0000709144027F777093440280E090E0A2E408
:100C1000B2E08D939C93709144027064709344028F
:100C2000A4E4B2E08C9181FB81E00EF080E08F9330
:100C3000A4E4B2E08C9187FB81E00EF080E09F910C
:100C4000892B882311F40C9410060E9430097091AE
:100C500044027D7F70934402009158020F3311F0DB
:100C60000C944708EEE8FBE20E9458110E945F11C5
:100C700000915B02023011F00C9433088FEFD20127
:100C80008C9381E00E94D0120E94E702229681E0BC
:100C90000E94CC12E8E9FBE20E9458110E945F1109
:100CA000E8E3FCE20E9458110E945F11E8E3FCE2D5
:100CB0000E9458110E945F11E4EBFBE20E94581160
:100CC000E7E6F2E0A0E8B7E00E943A130E94501174
:100CD0000E945F1186E0D2018C9381E00E94D012C5
:100CE000A7E6B2E08C91D2018D9388278C9382E0A5
:100CF0000E94D0120E949708249683E00E94CC1292
:100D00008FE0D2018C9381E00E94D01286E091E0C6
:100D1000D2018D939C9382E00E94D0120E9497088A
:100D2000249683E00E94CC128FE0D2018C9381E064
:100D30000E94D01288E091E0D2018D939C9382E0D2
:100D40000E94D0120E949708249683E00E94CC1241
:100D5000E2E4FCE20E9458110E945F1180ED97E0EE
:100D6000A5E4B2E08D939C93709144027F777093D9
:100D7000440280E090E0A2E4B2E08D939C937091F5
:100D80004402706470934402809158028093080179
:100D9000A8E6B2E08C9187FB16F00C94E006709107
:100DA00068027F7770936802EAECFBE20E945811B8
:100DB000AEEFB5E00E9452110E945F110E945F09E0
:100DC000A2E4B2E00D911C9144E650E00E942F1184
:100DD000A9E0B1E00D931C93A9E0B1E00D911C9145
:100DE000003050E0150711F00C940407EAEDFBE227
:100DF0000E945811E2E4F2E0A0E8B7E00E942A1352
:100E00000E9450110E945F11009108010D3381E092
:100E100009F080E08F93A4E4B2E08C9187FB81E03D
:100E20000EF080E09F91892B8F9300912402013076
:100E300081E009F080E09F91892B882311F40C94C4
:100E4000C406E4E5FCE20E9458110E945F110E9472
:100E50003009E4E6FCE20E9458110E945F118FE025
:100E6000D2018C9381E00E94D01288E091E0D201FF
:100E70008D939C9382E00E94D0120E949708249642
:100E800083E00E94CC1284E690E0D2018D939C9383
:100E900082E00E94D0120E947408229682E00E9492
:100EA000CC120E94300988E0D2018C9381E00E942C
:100EB000D01280E090E0D2018D939C9382E00E945A
:100EC000D0120E949708249683E00E94CC1280E002
:100ED0008093280280E797E1A5E4B2E08D939C938C
:100EE000709144027F777093440280E090E0A2E426
:100EF000B2E08D939C9370914402706470934402AD
:100F0000A8E2B2E08C918F5F8C93A8E6B2E08C915E
:100F100087FB16F00C949D07709168027F777093A1
:100F20006802EAECFBE20E945811AEEFB5E00E94C5
:100F300052110E945F110E945F09A4E4B2E08C91FB
:100F400081FB16F00C94AB07709144027D7F709387
:100F500044020E943009A2E4B2E00D911C9144E6E3
:100F600050E00E942F11A9E0B1E00D931C93A9E07D
:100F7000B1E00D911C91003050E0150711F00C9478
:100F8000CF07EAEDFBE20E945811E2E4F2E0A0E8AC
:100F9000B7E00E942A130E9450110E945F11A4E43E
:100FA000B2E08C9187FB81E00EF080E08F9300919E
:100FB0002402013081E009F080E09F91892B882391
:100FC00011F40C948507E0E7FCE20E945811E8E276
:100FD000F2E0A0E8B7E00E943A130E9450110E948C
:100FE0005F11009128020E3181E009F080E08F93BB
:100FF00000912402013081E009F080E09F91892B6B
:10100000882311F40C946A07EAE7FCE20E94581165
:101010000E945F118EE0D2018C9381E00E94D01279
:1010200080E090E0D2018D939C9382E00E94D012E8
:101030000E949708249683E00E94CC1284E690E0F8
:10104000D2018D939C9382E00E94D0120E9474087A
:10105000229682E00E94CC120E94300981E08093A7
:1010600024020C944508E4E0FCE20E9458110E941E
:101070005F11E6E8FCE20E9458110E945F11E6E869
:10108000FCE20E9458110E945F110C947308E4E185
:10109000FCE20E9458110E945F115B985C9880E00E
:1010A000D2018C9381E00E94D0120E94E702229626
:1010B00081E00E94CC12289A84E690E00E947E1182
:1010C00084E690E0D2018D939C9382E00E94D0123E
:1010D0000E947408229682E00E94CC12709127022E
:1010E0007064709327020895A881B9818D919C91B5
:1010F000A0E4B2E08D939C9380E090E0AEE3B2E098
:101100008D939C93709127027E7F7093270270913C
:101110002702726070932702A7E2B2E08C9180FBF5
:1011200016F40C949608A8950C948C080895A4E1E4
:10113000B1E0E0E9FCE20E94D612EA81FB81A4E181
:10114000B1E00E9449110E94AE13A4E1B1E00E94F7
:101150004911E6EAFCE20E94D612E881F981A4E195
:10116000B1E00E9449110E94B01386E080932D02E5
:10117000AA81BB818C9180932E0281E080932F0203
:10118000A4E1B1E00E9452110E945F11A881B981CF
:1011900011968C91A2E0B1E08C93E2E0F1E0A0E83E
:1011A000B7E00E94AE130E9450110E945F1180911F
:1011B000020180933002A881B9818C91A2E0B1E054
:1011C0008C93E2E0F1E0A0E8B7E00E94AE130E9449
:1011D00050110E945F1180910201809331028FEEC5
:1011E000809334028AE0809366020E947A0E81E046
:1011F000809303014091660200910301041718F0E7
:1012000011F00C942D09E3E0F1E0A190BB24EAE297
:10121000F2E0EA0DFB1DA0E8B7E00E94AE130E94C9
:101220005011EEEAFCE20E945811A3E0B1E0AD904B
:10123000BB24AAE2B2E0AA0DBB1D8C9180930001F1
:1012400031E0A0E0B1E00E946911A3E0B1E08C912F
:101250008F5F8C9310F40C94FA080E945F1108952C
:10126000E0EBFCE20E9458110E945F1181E0809344
:1012700000014091650200910001041718F011F07F
:101280000C945C09E0E0F1E0A190BB24E4E5F2E01D
:10129000EA0DFB1DA0E8B7E00E94AE130E945011BA
:1012A000E4E8FBE20E945811A0E0B1E08C918F5F6E
:1012B0008C9310F40C9439090E945F11089581E019
:1012C000EEEFF5E006E00A93AFEEB1E00E94EC131A
:1012D000EEEFF5E09CE204E132E2AAE6B2E00E9421
:1012E0004914A9E6B2E02C93AAE6B2E00E942D14BC
:1012F000082F063011F00C94F00DEAE6F2E0ADE0B4
:10130000B1E00E94E113EDE0F1E0ADE0B1E00E9458
:10131000FB128FEF8093DD01ADE0B1E0E0ECFCE289
:101320000E94331411F00C94CC0980E08093DD010D
:10133000A4E1B1E0E8ECFCE20E94D612AFEEB1E02D
:10134000ECEDFCE20E94D612EFEEF1E0A4E1B1E098
:101350000E9449110E94E113A4E1B1E00E944911E9
:10136000E0EFFCE20E94D612AFEEB1E0E4E5FBE272
:101370000E94D612EFEEF1E0A4E1B1E00E94491123
:101380000E94E113A4E1B1E00E944911EEEFFCE2FA
:101390000E94D6120C94EE0DE0E0FDE20E943314A0
:1013A00011F00C94070A00916902023011F00C94BC
:1013B000020AAFE7B2E00E947F13A0E0B1E00C9315
:1013C00000910001013110F00C94FD0980E0809340
:1013D000DD01A4E1B1E0E8E0FDE20E94D612E0E028
:1013E000F1E0A4E1B1E00E9449110E943A1380911A
:1013F000000180933D020C94000A85E08093DD019A
:101400000C94050A84E08093DD010C94EE0DE0E27B
:10141000FDE20E94331411F00C94260A0091690237
:10142000013011F00C94210A80E08093DD015B9A79
:101430005C98A4E1B1E0E8E2FDE20E94D6120C94CF
:10144000240A84E08093DD010C94EE0DEAE4FDE2D1
:101450000E94331411F00C94450A00916902013086
:1014600011F00C94400A80E08093DD015C9A5B9857
:10147000A4E1B1E0E2E5FDE20E94D6120C94430A39
:1014800084E08093DD010C94EE0DE4E7FDE20E9420
:10149000331411F00C94630A00916902013011F0C9
:1014A0000C945E0A80E08093DD015B98A4E1B1E0DA
:1014B000ECE7FDE20E94D6120C94610A84E080936E
:1014C000DD010C94EE0DE0E9FDE20E94331411F011
:1014D0000C94810A00916902013011F00C947C0A8D
:1014E00080E08093DD015C98A4E1B1E0E8E9FDE2F1
:1014F0000E94D6120C947F0A84E08093DD010C9444
:10150000EE0DECEAFDE20E94331411F00C94A50BF1
:1015100000916902023011F00C94F00A80E080938F
:10152000DD01AFE7B2E00E94C713A1E0B1E00C9388
:10153000A4E1B1E0E0E9FCE20E94D612EFE7F2E0BC
:10154000A4E1B1E00E9449110E94E11384E080937C
:101550002D028091010180932E0280E080932F0262
:101560008FEE8093320288E0809366020E947A0EAA
:1015700081E080930301409166020091030104170A
:1015800018F011F00C94EE0AE3E0F1E0A190BB2416
:10159000EAE2F2E0EA0DFB1DA0E8B7E00E94AE131C
:1015A0000E945011EEEAFCE20E945811A3E0B1E063
:1015B000AD90BB24AAE2B2E0AA0DBB1D8C91809332
:1015C000000131E0A0E0B1E00E946911A3E0B1E0C8
:1015D0008C918F5F8C9310F40C94BB0A0E945F1166
:1015E00000916902033011F00C94A30B80E080930A
:1015F000DD01AFE7B2E00E94C713A1E0B1E00C93B8
:10160000A4E9B2E00E94C713A9E0B1E00D931C93D6
:10161000A4E1B1E0E0E9FCE20E94D612EFE7F2E0DB
:10162000A4E1B1E00E9449110E94E113A4E1B1E0FC
:101630000E944911E6EAFCE20E94D612E4E9F2E0D7
:10164000A4E1B1E00E9449110E94E11386E0809379
:101650002D028091010180932E0281E080932F0260
:10166000E9E0F1E0A0E8B7E00E94B0130E94501159
:101670000E945F11A9E0B1E011968C91A2E0B1E067
:101680008C93E2E0F1E0A0E8B7E00E94AE130E9484
:1016900050110E945F118091020180933002A9E0F5
:1016A000B1E08C91A2E0B1E08C93E2E0F1E0A0E83F
:1016B000B7E00E94AE130E9450110E945F1180910A
:1016C0000201809331028FEE809334028AE080938E
:1016D00066020E947A0E81E08093030140916602C7
:1016E00000910301041718F011F00C94A10BE3E032
:1016F000F1E0A190BB24EAE2F2E0EA0DFB1DA0E8D4
:10170000B7E00E94AE130E945011EEEAFCE20E9484
:101710005811A3E0B1E0AD90BB24AAE2B2E0AA0D5B
:10172000BB1D8C918093000131E0A0E0B1E00E94EC
:101730006911A3E0B1E08C918F5F8C9310F40C944D
:101740006E0B0E945F110C94EE0DE4EBFDE20E9423
:10175000331411F00C94D60B00916902023011F091
:101760000C94D10B80E08093DD01AFE7B2E00E94E2
:10177000C713A0E5B2E00C93A4E1B1E0ECEBFDE20D
:101780000E94D612E0E5F2E0A4E1B1E00E94491126
:101790000E94AE13709144027061709344020C94E5
:1017A000D40B84E08093DD010C94EE0DEAECFDE2B5
:1017B0000E94331411F00C94370C0091690202302E
:1017C00011F00C94320CAFE7B2E00E947F13A0E05E
:1017D000B1E00C9300910001003080E010F009F0BE
:1017E00081E08F9300910001053081E008F080E0F6
:1017F0009F918923882311F40C942D0C709144023D
:1018000078607093440280E08093DD0100910001D4
:1018100041E0041BA2E5B2E00C93A4E1B1E0E2EDEB
:10182000FDE20E94D612E0E0F1E0A4E1B1E00E9406
:1018300049110E943A13A4E1B1E00E944911E0EE7F
:10184000FDE20E94D612E2E5F2E0A4E1B1E00E94DE
:1018500049110E943A130C94300C85E08093DD010D
:101860000C94350C84E08093DD010C94EE0DECEECD
:10187000FDE20E94331411F00C94870C0091690270
:10188000023011F00C94820C80E08093DD01AFE710
:10189000B2E00E947F13A0E0B1E00C930091000140
:1018A000043081E008F080E08F9300910001003067
:1018B00080E010F009F081E09F918923882311F4E2
:1018C0000C947D0C8091000180932402E0E0F0E014
:1018D000A0E0B1E07BE70E940214A4E1B1E0E4EFF4
:1018E000FDE20E94D612E4E2F2E0A4E1B1E00E943F
:1018F00049110E943A130C94800C85E08093DD011D
:101900000C94850C84E08093DD010C94EE0DECE0EA
:10191000FEE20E94331411F00C949A0C80E0809344
:10192000DD01A4E1B1E0E4E1FEE20E94D6122898D4
:101930000C94EE0DE4E2FEE20E94331411F00C94DC
:10194000B10C80E08093DD01A4E1B1E0ECE2FEE2C5
:101950000E94D612289A84E690E00E947E110C9490
:10196000EE0DECE3FEE20E94331411F00C94C80C6F
:1019700080E08093DD01A4E1B1E0E4E4FEE20E94B6
:10198000D612709127027061709327020C94EE0DAD
:10199000E6E5FEE20E94331411F00C94DF0C80E0C7
:1019A0008093DD01A4E1B1E0EEE5FEE20E94D612F3
:1019B000709127027F7E709327020C94EE0DE0E772
:1019C000FEE20E94331411F00C94A50D00916902FF
:1019D000023011F00C94420D80E08093DD01AFE7FE
:1019E000B2E00E947F13A0E0B1E00C9384E1809309
:1019F000670200910001043081E008F080E08F93DD
:101A000000910001003080E010F009F081E09F912A
:101A10008923882311F40C943D0D8091000180935B
:101A20002402E0E0F0E0A0E0B1E07BE70E940214D5
:101A3000A4E1B1E0E8E7FEE20E94D612E4E2F2E0BF
:101A4000A4E1B1E00E9449110E943A13A4E1B1E07F
:101A50000E944911E6E9FEE20E94D612E7E6F2E0B2
:101A6000A4E1B1E00E9449110E943A13709127024B
:101A70007860709327020C94400D85E08093DD011F
:101A80000C94A30D033011F00C94A00D80E0809312
:101A9000DD01AFE7B2E00E947F13A0E0B1E00C935C
:101AA000A4E9B2E00E947F13A7E6B2E00C93009194
:101AB0000001043081E008F080E08F930091000184
:101AC000003080E010F009F081E09F9189238823A5
:101AD00011F40C949B0D8091000180932402E0E0AE
:101AE000F0E0A0E0B1E07BE70E940214A4E1B1E0E5
:101AF000E8E7FEE20E94D612E4E2F2E0A4E1B1E0FF
:101B00000E9449110E943A13A4E1B1E00E944911D8
:101B1000E6E9FEE20E94D612E7E6F2E0A4E1B1E0D7
:101B20000E9449110E943A137091270278607093C5
:101B300027020C949E0D85E08093DD010C94A30D8B
:101B400084E08093DD010C94EE0DE0EAFEE20E9459
:101B5000331411F00C94D10D00916902023011F090
:101B60000C94CC0D80E08093DD01AFE7B2E00E94E1
:101B70007F13A8E2B2E00C93A4E1B1E0E8EAFEE250
:101B80000E94D612E8E2F2E0A4E1B1E00E9449111D
:101B90000E943A130C94CF0D84E08093DD010C94E5
:101BA000EE0DEEEBFEE20E94331411F00C94EB0DFF
:101BB00080E08093DD01A4E1B1E0E6ECFEE20E946A
:101BC000D612E8E2F2E0A4E1B1E00E9449110E94DD
:101BD0003A130C94EE0D81E08093DD010C94F30D2B
:101BE00082E08093DD010091DD01003018F011F0FA
:101BF0000C94FC0D0C94080EE2EAFEE1ADEDB1E0B0
:101C00008C9199270E94F312A4E1B1E00E94D612B0
:101C1000A4E1B1E00E9452110E945F110895409129
:101C2000250200912402041711F40C94790EE0EDC2
:101C3000FEE20E945811E4E2F2E0A0E8B7E00E9460
:101C40003A130E9450110E945F11809124028093E8
:101C5000250200912402013011F00C94430E81E022
:101C600080933D02709127027F77709327027091D5
:101C700027027F7B70932702709127027062709316
:101C800027020C94790E023011F00C945B0E82E066
:101C900080933D02709127027068709327027091C3
:101CA00027027F7B70932702709127027F7D7093BC
:101CB00027020C94790E033011F00C94730E83E01C
:101CC00080933D02709127027F7770932702709175
:101CD0002702706470932702709127027F7D7093B2
:101CE00027020C94790EE8EDFEE20E9458110E9442
:101CF0005F11089500916602083011F00C94D70E20
:101D000080E090E0A9E2B2E08D939C93A9E2B2E07A
:101D10000D911C91ACE2B2E04D915527040F151FB7
:101D2000A9E2B2E00D931C93A9E2B2E00D911C91DF
:101D3000ADE2B2E04D915527040F151FA9E2B2E0C4
:101D40000D931C93A9E2B2E00D911C91AEE2B2E0BA
:101D50004D915527040F151FA9E2B2E00D931C9376
:101D6000A9E2B2E00D911C91AFE2B2E04D9155278E
:101D7000040F151FA9E2B2E00D931C9300E010E0E0
:101D8000A9E2B2E04D915C91041B150BA9E2B2E00F
:101D90000D931C93A9E2B2E011968C91A0E3B2E0FE
:101DA0008C93A9E2B2E08C91A1E3B2E08C93009114
:101DB00066020A3011F00C94500F80E090E0A9E226
:101DC000B2E08D939C93A9E2B2E00D911C91ACE23C
:101DD000B2E04D915527040F151FA9E2B2E00D9313
:101DE0001C93A9E2B2E00D911C91ADE2B2E04D91DD
:101DF0005527040F151FA9E2B2E00D931C93A9E229
:101E0000B2E00D911C91AEE2B2E04D915527040F66
:101E1000151FA9E2B2E00D931C93A9E2B2E00D9167
:101E20001C91AFE2B2E04D915527040F151FA9E2B6
:101E3000B2E00D931C93A9E2B2E00D911C91A0E3D6
:101E4000B2E04D915527040F151FA9E2B2E00D93A2
:101E50001C93A9E2B2E00D911C91A1E3B2E04D9177
:101E60005527040F151FA9E2B2E00D931C9300E063
:101E700010E0A9E2B2E04D915C91041B150BA9E2C0
:101E8000B2E00D931C93A9E2B2E011968C91A2E30B
:101E9000B2E08C93A9E2B2E08C91A3E3B2E08C9320
:101EA00008954F4B00436F6D616E646F206E6F201D
:101EB0007265636F6E6F6369646F004C6F6E676904
:101EC00074756420636F6D616E646F206E6F207631
:101ED000616C696461004E756D65726F2064652088
:101EE0007573756172696F206E6F2076616C6964BD
:101EF0006F004E756D65726F206465207061726150
:101F00006D6574726F7320696E76616C69646F00C1
:101F10004572726F72206C6F6E67697475642070A1
:101F20006172616D6574726F2031004572726F72FB
:101F3000206C6F6E676974756420706172616D6585
:101F400074726F203200506172616D6574726F201F
:101F50006E6F2076616C69646F004552524F523843
:101F6000004552524F522053442E20496E74656EE4
:101F70007465206465206E7565766F000000000052
:101F8000030000003300000033030000333300007F
:101F900033330300333333003333B3013333B319F3
:101FA00033333333777777770C00FCFFCC00FCFFBB
:101FB000CC0CFCFFCCCCFCFF0C00FCFFF0FFFFFFC7
:101FC00000000000010000000500000015000000F6
:101FD0005500000055010000550500005515000092
:101FE0005555000055550100777707000E949E0265
:101FF000A8E6B2E08C9187FB16F00C94101070915B
:1020000068027F7770936802EAECFBE20E94581145
:10201000AEEFB5E00E9452110E945F110E945F096D
:10202000A4E4B2E08C9181FB16F00C941E10709128
:1020300044027D7F709344020E943009A4E4B2E020
:102040008C9184FB16F00C943D10709144027F7EBD
:1020500070934402ECEEFEE20E9458110E945F1160
:1020600080915002D2018C9381E00E94D0120E9494
:10207000E702229681E00E94CC12A4E4B2E08C91A7
:1020800083FB16F00C94561070914402777F709386
:102090004402E6EFFEE20E9458110E945F11A2E5A1
:1020A000B2E0BA93AA930E9405032296A7E2B2E097
:1020B0008C9185FB16F00C948710709127027F7D20
:1020C00070932702E4E0FFE20E9458110E945F1122
:1020D000ECE0FFE20E9458110E945F11ECE0FFE289
:1020E0000E9458110E945F115B985C9880E0D201B9
:1020F0008C9381E00E94D0120E94E702229681E038
:102100000E94CC12289A84E690E00E947E11A7E2F9
:10211000B2E08C9183FB16F00C94AD107091270205
:10212000777F70932702E6E1FFE20E945811E4E214
:10213000F2E0A0E8B7E00E943A130E945011E4E8F0
:10214000FBE20E945811E7E6F2E0A0E8B7E00E9447
:102150003A130E9450110E945F11A7E2B2E08C91E5
:1021600087FB16F00C94BE10709127027F77709356
:10217000270284E1809367020E946F03A7E2B2E026
:102180008C9186FB16F00C94CC10709127027F7B0B
:10219000709327020E94F2054A990C940111E0E223
:1021A000FFE20E9458110E945F11709127027F7D0B
:1021B000709327025B985C9880E0D2018C9381E059
:1021C0000E94D0120E94E702229681E00E94CC1267
:1021D000289A84E690E00E947E11A6E2B2E08C91FB
:1021E0008F5F8C93A6E2B2E00C9100FB16F00C948A
:1021F000FE1082E0809324020C94011181E0809310
:1022000024020E940F0E0C94F80FED91FC91EF5FE9
:10221000FF4FFC93EE93089500FC10D0089503D077
:102220001ED001F8F9CF0024E89457FF02C009D06E
:10223000689400F80BD010F80124089502D009D05A
:102240000895509540954F5F5F4F0895E89417FFAC
:102250000895009510950F5F1F4F68940895352FCE
:10226000242FE894452B11F468940895512F402FA2
:102270000027112780E1440F551F001F111F021B6B
:10228000130B416018F4020F131F4E7F8A9599F7C4
:1022900008958F938D918823E9F711978F91089571
:1022A000A0E8B7E08D91882311F00CD0FBCF089502
:1022B0000E94DC12802D11F005D0FACF08958DE038
:1022C00001D08AE00090C00005FEFCCF8093C600DC
:1022D00008958D9103D03A95E1F708950090C800D4
:1022E00005FEFCCF8093CE0008953197F1F7089555
:1022F000689462F80895E89462F80895EF93FF9364
:10230000EE27E82BE92B31F0E0EAFFE03197F1F717
:102310000197D1F7FF91EF9108958DE207FD8D931D
:102320008F2D881F802F881F8F57082F6894F7F8EC
:10233000802F87FF15C080958395082F80E38D93AC
:102340008EE28D93802F815228F080E38D93992720
:102350009C93089544270A95802F09F196D01FC0B9
:10236000805230F09EE49D9381E48D939D93EFCF56
:102370004427DF92EF92FF920F938FE1801B11F0C1
:10238000082F83D089D09EE29D930F91FF90EF900C
:10239000DF9044270395003209F4D7CF2BD03F9329
:1023A000EAE2F4E238E12F2D1E2D0D2DFF24EE245C
:1023B000DD244427000F111F221FA8F42F923F9203
:1023C0000E94DC12102C0E94DC12202C0E94DC12D5
:1023D000302C0E94DC123197410DD21CE31CF01C02
:1023E0003F902F9001C0339631963A9519F73F915F
:1023F00007D0AFCFDD0CEE1CFF1C0A95D9F708956E
:10240000002719E058D08F93802B11F0039501C05D
:102410008F911A95B9F7802F882309F496CF8F9161
:10242000805D8D930A95D9F792CF0065CD1D80B25E
:10243000E60E40597307A0ACB90350D6DC01286BF7
:10244000EE0094357700CA9A3B0065CD1D00B2E6D8
:102450000E0059730700ACB90300D6DC01006BEE27
:102460000000357700009A3B0000CD1D0000E60E0D
:10247000000073070000B9030000DC010000EE005B
:102480000000770000003B000000F694E794D7942A
:1024900047950A95D1F7089500270DD08F9303959E
:1024A0008F2D8E298D29842BC1F78F91805D8D937F
:1024B0000A95D9F74CCF1F930F93002710E2440FD2
:1024C000DD1CEE1CFF1C001F802F9AE0890B10F012
:1024D000082F43951A9599F7802F0F911F91089512
:1024E0003C983D98449A459A089568944093BC005E
:1024F0008F939F9388279927019629F04091BC00DC
:1025000047FFFACFE8949F918F9162F8089544EACB
:10251000ECDF4091B900487F483019F0403109F0B4
:10252000689462F8089544E94093BC004091BC006F
:1025300044FDFCCF08951093BB0044E8D6DF8F9391
:102540009F9388279927019671F04091B900487FA1
:10255000483FC9F3E894483139F0483229F0403413
:1025600019F0403509F068949F918F9162F80895B1
:1025700044E801C044ECB9DF1091BB004091B900C0
:10258000487F483FD9F308950191119121913081FD
:102590000895481A590A0895481A8827580A08952C
:1025A00099275A924A92480E591E08950E94DC12A9
:1025B0000D920020D9F70895C8953196002008950E
:1025C00091E005C092E003C094E001C098E0F4DF20
:1025D0000D929A95E1F70895880F991F880F991F1A
:1025E000E80FF91FF1CF0196019721F00E94DC124C
:1025F000E9F7FACF0895819104D08D938823D9F714
:102600000895813618F08B3708F48F7D089591E096
:10261000882321F08894991F8A95E9F7892F90954E
:102620000895883018F011968850FBCF0895040F54
:10263000151F261F371F0895000F111F221F331F5C
:10264000089500951095209530950F5F1F4F2F4FDF
:102650003F4F0895019110810FC00E94C4120EC017
:102660000E94C41210C00191108117FF05C03FEFF6
:102670002FEF04C0008111272227332737FF03C023
:10268000E0DF8DE28D93CF92DF92EF92AA24BB24FC
:10269000CC24DD24EE2440E2EAE0FF2755E093E37A
:1026A0008081890F87FD9F7083FD907F891B8193B7
:1026B0005A95A9F7C1DFAA1CBB1CCC1CDD1CEE1C63
:1026C0004A9551F7E894EFE0FF2782910BD0EB3069
:1026D000E0F71EF068948A2D09D04D93EF90DF90BB
:1026E000CF900895982F829501D0892F8F70805DAB
:1026F00026F0803309F4089568948D930895002797
:102700001127222733271DD08A3328F4803318F06D
:1027100005D015D0F9CF0EF494CF089580538F9340
:10272000402F512F622F732F87DF86DF80DF84DFFA
:102730008F919927080F191F291F391F08958D910F
:102740000895E894FCDF8032E9F38B32D9F38930C5
:10275000C9F38D3211F46894F2CF089541E003C0BB
:1027600042E001C044E0E40F8827F81F8291982FCF
:10277000829506D0892F04D04A95C1F70C94DE13B8
:102780008F708A3008F0895F805D8D9308950027EF
:102790001127222733278D91882379F04DDF4CDFD5
:1027A0004BDF4ADF2EDF815408F4895F865F080F14
:1027B0008827181F281F381FEECF089588278D936C
:1027C000089581918D938823E1F7089594E0819194
:1027D0008D939A95E1F7089509919191992359F074
:1027E0008A95D9F73197002331F081918D930A951D
:1027F0008823C9F70895E2CFF999FECFE1BDF2BD74
:102800003196089591E001C092E07B3751F47FB793
:10281000F894F2DF8D9180BDFA9AF99A9A95C9F7EA
:102820007FBF7727089591E001C092E0E5DFF89A35
:1028300080B58D939A95D1F70895FF93881BF9E0A1
:10284000001FFA9511F4FF910895881F841B18F456
:10285000840F8894F5CF0894F3CF8FEF83959D91E3
:102860009923E1F70895689401C0E894AF93BF936A
:102870008D9116F0919103C00E94DC12902D891762
:1028800018F011F48823A1F7BF91AF9108956894CF
:1028900001C0E8942227102F231709F4089526F485
:1028A0000E94DC12802D01C08191803081F0891757
:1028B00041F070E08D931A9591F7239571E01D9387
:1028C000EACF01D0E8CF703011F077270895772351
:1028D00031F42395882713958D931A95E9F7089578
:1028E000B7FE089590E8B91611F4D0FE08959FEF51
:1028F000D91AE90AF90A09F403950895D190E190EB
:10290000F190019108952191319141915191089552
:10291000502F2D2D3E2D4F2D612F0895652F90E8BE
:10292000440F551F5927990F47956078102F90E84D
:10293000FF0C001F0927990FF794107800380895AD
:10294000FF0C90E89027110F9795F794092F0895A1
:10295000102FBD2CDE2CEF2CF02E11234AF4B09456
:10296000D094E094F0949FEFB91AD90AE90AF90AD1
:102970000EE1FF2039F4FE2CED2CDB2CBB2408509B
:10298000C2F752C032F00A95BB0CDD1CEE1CFF1CD6
:10299000F9CFA6DFD5CF2DEC3CEC4CEC5DE3662700
:1029A0000FC0ACDFB5DFDD24EE2490E8F92E0FE395
:1029B00007C0A9DF05C02227332740E251E466277C
:1029C000552351F1002381F1A9DF71F11627005839
:1029D00050580894050B18F407FD03C025C007FDE7
:1029E00023C0469537952795F694E794D79425D03C
:1029F000FF202AF0DD0CEE1CFF1C015073F09D2D12
:102A0000969548F0DD203AF4EE202AF491E0D90EB4
:102A10009927E91EF91E94CF07C09FE7092FF92ACD
:102A20009FEFD92EE92E0895DD24EE24FF24002700
:102A3000112708950FE79FEFF2CF9F929924AA24C0
:102A4000BB2488E1D216E306F40628F0D21AE30A82
:102A5000F40A089401C08894991CAA1CBB1CDD0CC4
:102A6000EE1CFF1C8A9571F7D92CEA2CFB2C9F9049
:102A7000089554DFD9F05038C9F016270058952F23
:102A800090580894091F12F418F40EC008F00EC0F4
:102A90000FD0FF202AF0BB0CDD1CEE1CFF1C02C077
:102AA000039513F01DDF4CCF0C940D150C941415E9
:102AB0009F92FF92EF928D2DFF24EE24DD24BB2404
:102AC00093E0849F1001829FB00CD11CE21CF31C88
:102AD000839FD00CE11C2224F21C9A9531F0BD2C6E
:102AE000DE2CEF2CFF248F91ECCF9F9008950E9455
:102AF000DC12202D0E94DC12302D0E94DC12402DB1
:102B00000E94DC12502D08950000F04100007F4328
:102B10002A2A2A2A2A2A2A2A2A2A2A2A20445249BE
:102B200056455220415544494F202A2A2A2A2A2A0A
:102B30002A2A2A2A2A2A000032382D30352D32300E
:102B400032362031353A35393A333200302E312E93
:102B500031363800445256415544494F5F4D333267
:102B60003850422E4241530045737461646F3D00FA
:102B70007772206461632C200000244C4545493263
:102B8000432C00002C00494E4954455354004D6FCE
:102B900064756C6F204F4E005344204F4B0024440B
:102BA00052564155442C320057616974203200005E
:102BB00046494E00566F6C3D0000546F6E6F2049C1
:102BC0006E666F20544553540000534552313D000A
:102BD000524541442041444300005430434E545236
:102BE0003D0046696E20746F6E6F205465737400EB
:102BF000546F6E6F20544553540046494E2054453F
:102C0000535400004E4F2053440024445256415523
:102C1000442C34004D6F64756C6F204E4F20507201
:102C20006573656E74650000414C45525441204EF9
:102C30004152414E4A410000244452564155442CD1
:102C40003300546F6E6F20496E666F20414C4152C5
:102C50004D41000046696E20746F6E6F20414C41FB
:102C6000524D4100546F6E6F20414C41524D410016
:102C7000436E74726D696E3D000046494E20414CB2
:102C800041524D410000244452564155442C3500D8
:102C9000436F6D616E646F2061204446506C6170BB
:102CA0007965723D00002C205041523D00003B00F0
:102CB000526573702E204446506C617965723A00FB
:102CC0004C4545564657000056657273696F6E2035
:102CD00046573A204665636861203C0032382D3003
:102CE000352D323032362031353A35393A333300EA
:102CF0003E2C204172636869766F203C00003E00E4
:102D00005345544C45440000536520636F6E66691B
:102D100067757261207365746C65642061200000C2
:102D2000454E41494E310000536520686162696C2F
:102D300069746F20494E312079206465736861623F
:102D4000696C69746F20494E3200454E41494E32DC
:102D50000000536520686162696C69746F20494E98
:102D600032207920646573686162696C69746F20D0
:102D7000494E3100444953494E31000053652064A7
:102D80006573686162696C69746F20494E31000037
:102D9000444953494E3200005365206465736861AD
:102DA00062696C69746F20494E3200005345544487
:102DB0004650000053455449324300002053616C93
:102DC00069646120444143203D004C4545493243FC
:102DD00000004C656374757261204144432000001B
:102DE00020454E2043414E414C2000005345545352
:102DF00054410000536520636F6E66696775726F9A
:102E00002065737461646F20612000005345544D48
:102E1000503300004D6F64756C6F20204458502073
:102E20004F4E00005253544D503300004D6F6475A7
:102E30006C6F2020445850204F4646005345545351
:102E4000454E000054657374204F6E646120353028
:102E50003020487A000052535453454E00005265CA
:102E6000736574204F6E64612035303020487A00DD
:102E70004452564155440000536520636F6E6669A5
:102E80006775726F2065737461646F204452564198
:102E900055442061200020636F6E20564F4C3D004A
:102EA0005345544D494E0000536520636F6E66696B
:102EB0006775726F20636E74726D696E20004C4589
:102EC000454D494E0000436E74726D696E200000DE
:102ED0005354415455533D0045737461646F206EE3
:102EE0006F20646566696E69646F000057524954CB
:102EF000452044414300524541442049324320414A
:102F0000444300004E4F524D414C00002444525661
:102F10004155442C3100244452564155442C000064
:102F20005445535420706F722069627574746F6ECB
:022F300000009F
:00000001FF
