:100000000C945A00189500001895000018950000EF
:10001000189500001895000018950000189500002C
:10002000189500001895000018950000189500001C
:10003000189500001895000018950000189500000C
:100040000C94DB01189500000C94B000189500008A
:1000500018950000189500001895000018950000EC
:1000600018950000189500001895000018950000DC
:100070000C94420118950000189500001895000096
:1000800018950000189500001895000018950000BC
:1000900018950000189500001895000018950000AC
:1000A000189500001895000018950000189500009C
:1000B000189500008FEF8DBFC0E8E8E94E2E88E06C
:1000C0008EBFD8E0F7E05F2EA89584B7082E88276A
:1000D00084BF88E199278093600090936000EEEFE1
:1000E000F7E0A0E0B1E088278D933197E9F787E644
:1000F0008093C40080E08093C50088E18093C100B4
:1001000080E08093CD0087E68093CC0088E18093E7
:10011000C9006624229A209A539A549A52985A9A5D
:1001200070E07093B90078E47093B8000E948D1568
:1001300085E085BD80E084BD70916E007160709334
:100140006E0085E085BD7091C10070687093C1003C
:100150007091C90070687093C90078940C9408136A
:100160000F921F922F923F924F925F927F92AF9287
:10017000BF920F931F932F933F934F935F936F9370
:100180007F938F939F93AF93BF93CF93DF93EF931F
:10019000FF939FB79F93A2E0B6E08091C6008C9337
:1001A00084E2482F00910206041711F00C94E3003A
:1001B00070914402716070934402A9E3B5E088270E
:1001C0008C930C9425010D3011F00C940D01A4E4D6
:1001D000B2E08C9180FB16F00C940B0170914402FC
:1001E0007E7F7093440280E0A9E3B5E00E9466142C
:1001F0008D9388278C93E9E3F5E0A3E0B6E00E94B5
:10020000FE1670916D02706870936D0270916E00B1
:10021000716070936E000C9425010F3118F011F08D
:100220000C9414010C942501A4E4B2E08C9180FBA1
:1002300016F00C942501A2E0B6E08C91A9E3B5E09C
:100240000E9466148D9388278C939F919FBFFF9186
:10025000EF91DF91CF91BF91AF919F918F917F915E
:100260006F915F914F913F912F911F910F91BF908F
:10027000AF907F905F904F903F902F901F900F9086
:10028000189508950F921F922F923F924F925F926E
:100290007F92AF92BF920F931F932F933F934F93F1
:1002A0005F936F937F938F939F93AF93BF93CF93FE
:1002B000DF93EF93FF939FB79F93A3E5B2E0809105
:1002C000CE008C93009153020E3711F00C948201F2
:1002D0007091440274607093440280E080935402F1
:1002E000A4E5B2E08C918F5F8C9380915302A4E5DA
:1002F000B2E0AD90BB24A4E5B2E0AA0DBB1D8C9387
:100300000C94BF010F3E11F00C94A101A4E5B2E0E2
:100310008C918F5F8C9380915302A4E5B2E0AD90F5
:10032000BB24A4E5B2E0AA0DBB1D8C9370914402DE
:1003300072607093440280915402809365020C9421
:10034000BF01A4E4B2E08C9182FB16F00C94BF01D3
:10035000A4E5B2E08C918F5F8C9380915302A4E569
:10036000B2E0AD90BB24A4E5B2E0AA0DBB1D8C9316
:10037000A4E5B2E00C9140E10E943A178C939F9162
:100380009FBFFF91EF91DF91CF91BF91AF919F916F
:100390008F917F916F915F914F913F912F911F911D
:1003A0000F91BF90AF907F905F904F903F902F90B4
:1003B0001F900F9018950F921F922F923F924F927D
:1003C0005F927F92AF92BF920F931F932F933F93B1
:1003D0004F935F936F937F938F939F93AF93BF934D
:1003E000CF93DF93EF93FF939FB79F9374E676BD10
:1003F000A7E3B2E08C918F5F8C93A7E3B2E00C91FE
:1004000048E00E943A178C9300913702003011F0B7
:100410000C943B02A8E3B2E00C9140E20E943A1730
:100420008C93E0EAF5E2ADE3B2E08C919927A9E381
:10043000B2E00E94091680913802A9E3B2E00E945E
:100440002E160E9424160C900822689409F4E89451
:10045000A7E2B2E08C9182F98C93A7E2B2E08C9192
:1004600082FBA5E2B0E08C9182F98C93A8E3B2E024
:100470008C918F5F8C93A7E2B2E08C9181FB16F098
:100480000C945D02AEE3B2E00E942214A0E4B2E05C
:100490004D915C91AEE3B2E00D911C9104171507EC
:1004A00011F00C945D027091270271607093270225
:1004B000709127027D7F70932702A4E4B2E08C91B3
:1004C00086FB16F00C947C02A2E4B2E00E94221497
:1004D000A5E4B2E04D915C91A2E4B2E00D911C91D3
:1004E0000417150711F00C947A0270914402706899
:1004F000709344020C94820280E090E0A2E4B2E0A7
:100500008D939C939F919FBFFF91EF91DF91CF912E
:10051000BF91AF919F918F917F916F915F914F911B
:100520003F912F911F910F91BF90AF907F905F905F
:100530004F903F902F901F900F901895289A2A98CF
:100540005B985C98EAE4F1E30E9475140E947C14C5
:10055000A0E8B7E0E2E7F1E30E94F3150E946D1412
:100560000E947C14A0E8B7E0E6E8F1E30E94F315EE
:100570000E946D140E947C14A0E8B7E0EEE8F1E35D
:100580000E94F3150E946D140E947C148EE78093E4
:100590002B028FEF80932C0281E080933D02E0E0FC
:1005A000F0E0A4E2B2E00E94301781E080932402E0
:1005B000EEE9F1E30E947514E4E2F2E0A0E8B7E0AE
:1005C0000E9457160E946D140E947C14E1E0F0E036
:1005D000A8E6B2E00E943017009168020E3118F0D0
:1005E00011F00C94F5020C94F8028EE180936802ED
:1005F000E6EAF1E30E947514E8E6F2E0A0E8B7E06D
:100600000E9457160E946D140E947C140895EEEA11
:10061000F1E30E947514E881F981A0E8B7E00E9437
:1006200057160E946D140E947C140E94A4151CE9A8
:100630000E94B81510E40E94B815A881B9811C91D8
:100640000E94B8150E94B015089584E690E00E94BB
:100650009B140E94A4151CE90E94B815A881B981B9
:100660001C910E94B8150E94A4151DE90E94B8159E
:100670000E94D715A1E5B2E01C930E94D515A1E513
:10068000B2E01C930E94B015E2E4F1E30E949418DA
:10069000E1E5F2E0D080EE24FF2400270E94C51798
:1006A0000E945618EDE0F0E0A4E0B1E00E940317CC
:1006B000E6E4F1E30E949418E4E0F1E00E949B1765
:1006C0000E94FD17EDE0F0E0A4E0B1E00E94031706
:1006D000E4E0F1E0A0E8B7E00E949B170E94AA14B2
:1006E0000E946D140E947C14E8EBF1E30E947514E3
:1006F000E881F981A0E8B7E00E9457160E946D14C6
:10070000E2ECF1E30E947514E1E5F2E0A0E8B7E065
:100710000E9457160E946D140E947C140895E4EC08
:10072000F1E30E9475140E947C1428985B9A88EC6F
:1007300090E0A5E4B2E08D939C93709144027F77A2
:100740007093440280E090E0A2E4B2E08D939C9329
:1007500070914402706470934402A4E4B2E08C91FE
:1007600081FB81E00EF080E08F93A4E4B2E08C91F5
:1007700087FB81E00EF080E09F91892B882311F4A4
:100780000C94AD030E94C80B709144027D7F70935E
:100790004402009158020F3311F00C94F305ECEC75
:1007A000F1E30E9475140E947C1400915B020230F8
:1007B00011F00C94DF058FEFD2018C9381E00E9441
:1007C000ED150E940703229681E00E94E915E6EDEF
:1007D000F1E30E9475140E947C14ECEDF1E30E9499
:1007E00075140E947C14ECEDF1E30E9475140E94D4
:1007F0007C14E6EEF1E30E9475140E947C1488ECF0
:1008000090E0D2018D939C9382E00E94ED150E94AE
:100810008608229682E00E94E915EEEEF1E30E943E
:1008200075140E947C14E2EFF1E30E947514E7E670
:10083000F2E0A0E8B7E00E9457160E946D140E94F3
:100840007C1486E0D2018C9381E00E94ED15A7E62E
:10085000B2E08C91D2018D9388278C9382E00E9424
:10086000ED150E94A908249683E00E94E9158FE007
:10087000D2018C9381E00E94ED1586E091E0D201D7
:100880008D939C9382E00E94ED150E94A908249606
:1008900083E00E94E915E8EFF1E30E9475140E94DD
:1008A0007C1480ED97E0A5E4B2E08D939C93709169
:1008B00044027F777093440280E090E0A2E4B2E0CB
:1008C0008D939C9370914402706470934402809164
:1008D000580280930801ADE6B2E08C9187FB16F0D8
:1008E0000C94830470916D027F7770936D02E8E041
:1008F000F2E30E947514A3E0B6E00E946F140E9418
:100900007C140E94F70BA4E4B2E08C9183FB16F0F8
:100910000C949C0470914402777F70934402EEE043
:10092000F2E30E9475140E947C14A2E5B2E0BA932F
:10093000AA930E9425032296A2E4B2E00D911C9195
:1009400044E650E00E944C14A9E0B1E00D931C93E2
:10095000A9E0B1E00D911C91003050E0150711F0B5
:100960000C94C004E8E1F2E30E947514E2E4F2E0C2
:10097000A0E8B7E00E9447160E946D140E947C1404
:10098000009108010D3381E009F080E08F93A4E429
:10099000B2E08C9187FB81E00EF080E09F91892B83
:1009A0008F9300912402013081E009F080E09F9153
:1009B000892B882311F40C946704E0E2F2E30E948F
:1009C00075140E947C140E94C80BEEE2F2E30E94B0
:1009D00075140E947C148FE0D2018C9381E00E94F8
:1009E000ED1586E091E0D2018D939C9382E00E9408
:1009F000ED150E94A908249683E00E94E91584E67B
:100A000090E0D2018D939C9382E00E94ED150E94AC
:100A10008608229682E00E94E9150E94C80B88E0B1
:100A2000D2018C9381E00E94ED1580E090E0D2012C
:100A30008D939C9382E00E94ED150E94A908249654
:100A400083E00E94E91588EB9BE0A5E4B2E08D937A
:100A50009C93709144027F777093440280E090E011
:100A6000A2E4B2E08D939C93709144027064709301
:100A70004402ADE6B2E08C9187FB16F00C94510570
:100A800070916D027F7770936D02E8E0F2E30E944F
:100A90007514A3E0B6E00E946F140E947C140E94BB
:100AA000F70BA4E4B2E08C9181FB16F00C945F0587
:100AB000709144027D7F709344020E94C80BA4E4AD
:100AC000B2E08C9183FB16F00C947805709144028F
:100AD000777F70934402EEE0F2E30E9475140E9467
:100AE0007C14A2E5B2E0BA93AA930E942503229651
:100AF000A2E4B2E00D911C9144E650E00E944C1437
:100B0000A9E0B1E00D931C93A9E0B1E00D911C9117
:100B1000003050E0150711F00C949C05E8E1F2E379
:100B20000E947514E2E4F2E0A0E8B7E00E944716E4
:100B30000E946D140E947C14A4E4B2E08C9187FBA7
:100B400081E00EF080E08F9300912402013081E07B
:100B500009F080E09F91892B882311F40C943905CA
:100B6000E8E3F2E30E9475140E947C148EE0D20147
:100B70008C9381E00E94ED1580E090E0D2018D938E
:100B80009C9382E00E94ED150E94A908249683E0C0
:100B90000E94E91584E690E0D2018D939C9382E057
:100BA0000E94ED150E948608229682E00E94E915B7
:100BB0000E94C80B81E0809324020C94F105E2E4CA
:100BC000F2E30E9475140E947C14E8E4F2E30E94B0
:100BD00075140E947C14E8E4F2E30E9475140E94EC
:100BE0007C140C940D06E2E5F2E30E9475140E9459
:100BF0007C145B985C9880E0D2018C9381E00E9429
:100C0000ED150E940703229681E00E94E915289ABB
:100C1000709127027068709327020895E6E6F2E368
:100C20000E9475140E947C1428985B9A88EC90E0CE
:100C3000A5E4B2E08D939C93709144027F7770930A
:100C4000440280E090E0A2E4B2E08D939C93709126
:100C50004402706470934402A4E4B2E08C9181FB7E
:100C600081E00EF080E08F93A4E4B2E08C9187FBEA
:100C700081E00EF080E09F91892B882311F40C9481
:100C80002C060E94C80B709144027D7F7093440231
:100C9000009158020F3311F00C945D08ECECF1E375
:100CA0000E9475140E947C1400915B02023011F0C6
:100CB0000C9449088FEFD2018C9381E00E94ED15CE
:100CC0000E940703229681E00E94E915E6EDF1E318
:100CD0000E9475140E947C14E6E7F2E30E947514EA
:100CE0000E947C14E6E7F2E30E9475140E947C14D3
:100CF0008FE0D2018C9381E00E94ED1588E091E0B5
:100D0000D2018D939C9382E00E94ED150E94A90868
:100D1000249683E00E94E915E0E8F2E30E9475144E
:100D20000E947C1480ED97E0A5E4B2E08D939C9343
:100D3000709144027F777093440280E090E0A2E4D7
:100D4000B2E08D939C93709144027064709344025E
:100D50008091580280930801ADE6B2E08C9187FB48
:100D600016F00C94C40670916D027F7770936D023B
:100D7000E8E0F2E30E947514A3E0B6E00E946F146D
:100D80000E947C140E94F70BA4E4B2E08C9183FBD8
:100D900016F00C94DD0670914402777F7093440244
:100DA000EEE0F2E30E9475140E947C14A2E5B2E02A
:100DB000BA93AA930E9425032296A2E4B2E00D9171
:100DC0001C9144E650E00E944C14A9E0B1E00D9360
:100DD0001C93A9E0B1E00D911C91003050E0150783
:100DE00011F00C940107E8E1F2E30E947514E2E4CB
:100DF000F2E0A0E8B7E00E9447160E946D140E943E
:100E00007C14009108010D3381E009F080E08F939C
:100E1000A4E4B2E08C9187FB81E00EF080E09F912A
:100E2000892B8F9300912402013081E009F080E04A
:100E30009F91892B882311F40C94A806E2E9F2E330
:100E40000E9475140E947C140E94C80BE2EAF2E32F
:100E50000E9475140E947C148FE0D2018C9381E073
:100E60000E94ED1588E091E0D2018D939C9382E081
:100E70000E94ED150E94A908249683E00E94E915BE
:100E800084E690E0D2018D939C9382E00E94ED1560
:100E90000E948608229682E00E94E9150E94C80BF3
:100EA00088E0D2018C9381E00E94ED1580E090E013
:100EB000D2018D939C9382E00E94ED150E94A908B7
:100EC000249683E00E94E91580E08093280280E761
:100ED00097E1A5E4B2E08D939C93709144027F77F3
:100EE0007093440280E090E0A2E4B2E08D939C9382
:100EF00070914402706470934402A8E2B2E08C9155
:100F00008F5F8C93ADE6B2E08C9187FB16F00C946A
:100F10009A0770916D027F7770936D02E8E0F2E3BB
:100F20000E947514A3E0B6E00E946F140E947C1426
:100F30000E94F70BA4E4B2E08C9181FB16F00C94B4
:100F4000A807709144027D7F709344020E94C80BF1
:100F5000A4E4B2E08C9183FB16F00C94C10770916D
:100F60004402777F70934402EEE0F2E30E9475142E
:100F70000E947C14A2E5B2E0BA93AA930E942503D2
:100F80002296A2E4B2E00D911C9144E650E00E944A
:100F90004C14A9E0B1E00D931C93A9E0B1E00D91D0
:100FA0001C91003050E0150711F00C94E507E8E1C2
:100FB000F2E30E947514E2E4F2E0A0E8B7E00E94D8
:100FC00047160E946D140E947C14A4E4B2E08C9138
:100FD00087FB81E00EF080E08F93009124020130C6
:100FE00081E009F080E09F91892B882311F40C9413
:100FF0008207EEEAF2E30E947514E8E2F2E0A0E86C
:10100000B7E00E9457160E946D140E947C14009154
:1010100028020E3181E009F080E08F9300912402D4
:10102000013081E009F080E09F91892B882311F441
:101030000C946707E8EBF2E30E9475140E947C149D
:101040008EE0D2018C9381E00E94ED1580E090E06B
:10105000D2018D939C9382E00E94ED150E94A90815
:10106000249683E00E94E91584E690E0D2018D93F6
:101070009C9382E00E94ED150E948608229682E0F1
:101080000E94E9150E94C80B81E0809324020C9411
:101090005B08E2E4F2E30E9475140E947C14E4EC25
:1010A000F2E30E9475140E947C14E4ECF2E30E94C7
:1010B00075140E947C140C948508E2E5F2E30E940A
:1010C00075140E947C145B985C9880E0D2018C932C
:1010D00081E00E94ED150E940703229681E00E94A4
:1010E000E915289A84E690E0D2018D939C9382E0E2
:1010F0000E94ED150E948608229682E00E94E91562
:10110000709127027064709327020895A881B981B5
:101110008D919C91A0E4B2E08D939C9380E090E04F
:10112000AEE3B2E08D939C93709127027E7F709323
:10113000270270912702726070932702A7E2B2E043
:101140008C9180FB16F40C94A808A8950C949E082A
:101150000895A4E1B1E0EEECF2E30E94F315EA8118
:10116000FB81A4E1B1E00E9466140E94CB16A4E1C9
:10117000B1E00E946614E4EEF2E30E94F315E88108
:10118000F981A4E1B1E00E9466140E94CD1686E0C8
:1011900080932D02AA81BB818C9180932E0281E0E5
:1011A00080932F02A4E1B1E00E946F140E947C148E
:1011B000A881B98111968C91A2E0B1E08C93E2E014
:1011C000F1E0A0E8B7E00E94CB160E946D140E94E7
:1011D0007C148091020180933002A881B9818C91A6
:1011E000A2E0B1E08C93E2E0F1E0A0E8B7E00E9479
:1011F000CB160E946D140E947C1480910201809392
:1012000031028FEE809334028AE0809366020E945E
:101210008C1181E0809303014091660200910301EB
:10122000041718F011F00C943F09E3E0F1E0A190ED
:10123000BB24EAE2F2E0EA0DFB1DA0E8B7E00E9461
:10124000CB160E946D14ECEEF2E30E947514A3E03D
:10125000B1E0AD90BB24AAE2B2E0AA0DBB1D8C9117
:101260008093000131E0A0E0B1E00E948614A3E089
:10127000B1E08C918F5F8C9310F40C940C090E9458
:101280007C140895EEEEF2E30E9475140E947C1423
:1012900028985B9A88EC90E0A5E4B2E08D939C934B
:1012A000709144027F777093440280E090E0A2E462
:1012B000B2E08D939C9370914402706470934402E9
:1012C000A4E4B2E08C9181FB81E00EF080E08F938A
:1012D000A4E4B2E08C9187FB81E00EF080E09F9166
:1012E000892B882311F40C9460090E94C80B70911B
:1012F00044027D7F70934402009158020F3311F035
:101300000C94A40BECECF1E30E9475140E947C1485
:1013100000915B02023011F00C949C0B8FEFD20114
:101320008C9381E00E94ED150E940703229681E0D4
:101330000E94E915E6EDF1E30E9475140E947C1409
:10134000EAEFF2E30E947514EAE6F2E0A0E8B7E003
:101350000E9457160E946D140E947C14E2EFF1E384
:101360000E947514E7E6F2E0A0E8B7E00E94571685
:101370000E946D140E947C1486E0D2018C9381E05F
:101380000E94ED15A7E6B2E08C91D2018D938827DB
:101390008C9382E00E94ED150E94A908249683E0B8
:1013A0000E94E91500E012E0AAE6B2E04D9155274F
:1013B000040F151FABE6B2E00D931C93E4E0F3E3DA
:1013C0000E947514EBE6F2E0A0E8B7E00E94CD16AB
:1013D0000E946D140E947C148FE0D2018C9381E0F6
:1013E0000E94ED15ABE6B2E08D919C91D2018D93F8
:1013F0009C9382E00E94ED150E94A908249683E048
:101400000E94E915ECE0F3E30E947514EAE6F2E0CD
:10141000A0E8B7E00E9457160E946D140E947C1449
:1014200080ED97E0A5E4B2E08D939C937091440227
:101430007F777093440280E090E0A2E4B2E08D9365
:101440009C9370914402706470934402809158029E
:1014500080930801ADE6B2E08C9187FB16F00C9406
:10146000420A70916D027F7770936D02E8E0F2E3BB
:101470000E947514A3E0B6E00E946F140E947C14D1
:101480000E94F70BA4E4B2E08C9183FB16F00C945D
:101490005B0A70914402777F70934402EEE0F2E3BE
:1014A0000E9475140E947C14A2E5B2E0BA93AA933C
:1014B0000E9425032296A2E4B2E00D911C9144E61D
:1014C00050E00E944C14A9E0B1E00D931C93A9E0F8
:1014D000B1E00D911C91003050E0150711F00C9413
:1014E0007F0AE8E1F2E30E947514E2E4F2E0A0E88A
:1014F000B7E00E9447160E946D140E947C14009170
:1015000008010D3381E009F080E08F93A4E4B2E09C
:101510008C9187FB81E00EF080E09F91892B8823DE
:1015200011F40C94260AE2E1F3E30E9475140E9480
:101530007C140E94C80BEAE1F3E30E9475140E9438
:101540007C1400E012E0AAE6B2E04D915527040FAA
:10155000151FABE6B2E00D931C938FE0D2018C9384
:1015600081E00E94ED15ABE6B2E08D919C91D20135
:101570008D939C9382E00E94ED150E94A908249609
:1015800083E00E94E91584E690E0D2018D939C935C
:1015900082E00E94ED150E948608229682E00E9459
:1015A000E9150E94C80B88E0D2018C9381E00E946B
:1015B000ED1580E090E0D2018D939C9382E00E9433
:1015C000ED150E94A908249683E00E94E91580E0A9
:1015D0008093280288E592E0A5E4B2E08D939C9385
:1015E000709144027F777093440280E090E0A2E41F
:1015F000B2E08D939C9370914402706470934402A6
:10160000A8E2B2E08C918F5F8C93ADE6B2E08C9152
:1016100087FB16F00C941D0B70916D027F77709311
:101620006D02E8E0F2E30E947514A3E0B6E00E94C8
:101630006F140E947C140E94F70BA4E4B2E08C911A
:1016400081FB16F00C942B0B709144027D7F7093FC
:1016500044020E94C80BA4E4B2E08C9183FB16F014
:101660000C94440B70914402777F70934402EEE037
:10167000F2E30E9475140E947C14A2E5B2E0BA93D2
:10168000AA930E9425032296A2E4B2E00D911C9138
:1016900044E650E00E944C14A9E0B1E00D931C9385
:1016A000A9E0B1E00D911C91003050E0150711F058
:1016B0000C94680BE8E1F2E30E947514E2E4F2E0B6
:1016C000A0E8B7E00E9447160E946D140E947C14A7
:1016D000A4E4B2E08C9187FB16F00C94050B8EE02D
:1016E000D2018C9381E00E94ED1580E090E0D20160
:1016F0008D939C9382E00E94ED150E94A908249688
:1017000083E00E94E91584E690E0D2018D939C93DA
:1017100082E00E94ED150E948608229682E00E94D7
:10172000E9150E94C80BE2E2F3E30E9475140E94DF
:101730007C14289A0C94A20BE2E4F2E30E94751444
:101740000E947C140C94C70BE2E5F2E30E9475142E
:101750000E947C145B985C9880E0D2018C9381E0BD
:101760000E94ED150E940703229681E00E94E91570
:10177000289A84E690E0D2018D939C9382E00E94A7
:10178000ED150E948608229682E00E94E9150895D0
:10179000EAE2F3E30E9475140E947C1481E08093D6
:1017A00000014091650200910001041718F011F04A
:1017B0000C94F40BE0E0F1E0A190BB24E4E5F2E04E
:1017C000EA0DFB1DA0E8B7E00E94CB160E946D1445
:1017D000E2ECF1E30E947514A0E0B1E08C918F5F20
:1017E0008C9310F40C94D10B0E947C14089581E02A
:1017F000E3E0F6E006E00A93AFEEB1E00E940917DD
:10180000E3E0F6E09CE204E132E2AFE6B2E00E94FF
:101810006617AEE6B2E02C93AFE6B2E00E944A173C
:10182000082F063011F00C940211EFE6F2E0ADE063
:10183000B1E00E94FE16EDE0F1E0ADE0B1E00E9403
:1018400018168FEF8093DD01ADE0B1E0EAE3F3E33A
:101850000E94501711F00C94640C80E08093DD011D
:10186000A4E1B1E0E2E4F3E30E94F315AFEEB1E0EE
:10187000E2E7F1E30E94F315EFEEF1E0A4E1B1E05D
:101880000E9466140E94FE16A4E1B1E00E94661454
:10189000E6E5F3E30E94F315AFEEB1E0EEE8F1E325
:1018A0000E94F315EFEEF1E0A4E1B1E00E946614AE
:1018B0000E94FE16A4E1B1E00E946614E4E6F3E3A0
:1018C0000E94F3150C940011E6E6F3E30E94501712
:1018D00011F00C949F0C00916E02023011F00C94E8
:1018E0009A0CA4E8B2E00E949C16A0E0B1E00C9330
:1018F00000910001013110F00C94950C80E0809370
:10190000DD01A4E1B1E0EEE6F3E30E94F315E0E0CF
:10191000F1E0A4E1B1E00E9466140E9457168091A4
:10192000000180933D020C94980C85E08093DD01CA
:101930000C949D0C84E08093DD010C940011E6E88A
:10194000F3E30E94501711F00C94BE0C00916E024C
:10195000013011F00C94B90C80E08093DD015B9AAA
:101960005C98A4E1B1E0EEE8F3E30E94F3150C9477
:10197000BC0C84E08093DD010C940011E0EBF3E3F8
:101980000E94501711F00C94DD0C00916E02013092
:1019900011F00C94D80C80E08093DD015C9A5B9888
:1019A000A4E1B1E0E8EBF3E30E94F3150C94DB0C47
:1019B00084E08093DD010C940011EAEDF3E30E94D2
:1019C000501711F00C94FB0C00916E02013011F0D5
:1019D0000C94F60C80E08093DD015B98A4E1B1E00B
:1019E000E2EEF3E30E94F3150C94F90C84E080938B
:1019F000DD010C940011E6EFF3E30E94501711F0A3
:101A00000C94190D00916E02013011F00C94140D1C
:101A100080E08093DD015C98A4E1B1E0EEEFF3E3B8
:101A20000E94F3150C94170D84E08093DD010C9453
:101A30000011E2E1F4E30E94501711F00C943D0E06
:101A400000916E02023011F00C94880D80E08093BA
:101A5000DD01A4E8B2E00E94E416A1E0B1E00C933D
:101A6000A4E1B1E0EEECF2E30E94F315E4E8F2E069
:101A7000A4E1B1E00E9466140E94FE1684E0809307
:101A80002D028091010180932E0280E080932F022D
:101A90008FEE8093320288E0809366020E948C1160
:101AA00081E08093030140916602009103010417D5
:101AB00018F011F00C94860DE3E0F1E0A190BB2446
:101AC000EAE2F2E0EA0DFB1DA0E8B7E00E94CB16C7
:101AD0000E946D14ECEEF2E30E947514A3E0B1E0F5
:101AE000AD90BB24AAE2B2E0AA0DBB1D8C918093FD
:101AF000000131E0A0E0B1E00E948614A3E0B1E073
:101B00008C918F5F8C9310F40C94530D0E947C1475
:101B100000916E02033011F00C943B0E80E0809334
:101B2000DD01A4E8B2E00E94E416A1E0B1E00C936C
:101B3000A9E9B2E00E94E416A9E0B1E00D931C937C
:101B4000A4E1B1E0EEECF2E30E94F315E4E8F2E088
:101B5000A4E1B1E00E9466140E94FE16A4E1B1E087
:101B60000E946614E4EEF2E30E94F315E9E9F2E064
:101B7000A4E1B1E00E9466140E94FE1686E0809304
:101B80002D028091010180932E0281E080932F022B
:101B9000E9E0F1E0A0E8B7E00E94CD160E946D14E4
:101BA0000E947C14A9E0B1E011968C91A2E0B1E012
:101BB0008C93E2E0F1E0A0E8B7E00E94CB160E942F
:101BC0006D140E947C148091020180933002A9E080
:101BD000B1E08C91A2E0B1E08C93E2E0F1E0A0E80A
:101BE000B7E00E94CB160E946D140E947C14809175
:101BF0000201809331028FEE809334028AE0809359
:101C000066020E948C1181E080930301409166027C
:101C100000910301041718F011F00C94390EE3E061
:101C2000F1E0A190BB24EAE2F2E0EA0DFB1DA0E89E
:101C3000B7E00E94CB160E946D14ECEEF2E30E9416
:101C40007514A3E0B1E0AD90BB24AAE2B2E0AA0D06
:101C5000BB1D8C918093000131E0A0E0B1E00E94B7
:101C60008614A3E0B1E08C918F5F8C9310F40C94F8
:101C7000060E0E947C140C940011EAE1F4E30E9429
:101C8000501711F00C946E0E00916E02023011F09C
:101C90000C94690E80E08093DD01A4E8B2E00E941C
:101CA000E416A0E5B2E00C93A4E1B1E0E2E2F4E3D3
:101CB0000E94F315E0E5F2E0A4E1B1E00E946614B1
:101CC0000E94CB16709144027061709344020C9490
:101CD0006C0E84E08093DD010C940011E0E3F4E3EA
:101CE0000E94501711F00C94CF0E00916E0202303A
:101CF00011F00C94CA0EA4E8B2E00E949C16A0E079
:101D0000B1E00C9300910001003080E010F009F088
:101D100081E08F9300910001053081E008F080E0C0
:101D20009F918923882311F40C94C50E709144026D
:101D300078607093440280E08093DD01009100019F
:101D400041E0041BA2E5B2E00C93A4E1B1E0E8E3BA
:101D5000F4E30E94F315E0E0F1E0A4E1B1E00E94B9
:101D600066140E945716A4E1B1E00E946614E6E4EE
:101D7000F4E30E94F315E2E5F2E0A4E1B1E00E9491
:101D800066140E9457160C94C80E85E08093DD01FE
:101D90000C94CD0E84E08093DD010C940011E2E5FB
:101DA000F4E30E94501711F00C941F0F00916E0283
:101DB000023011F00C941A0F80E08093DD01A4E84A
:101DC000B2E00E949C16A0E0B1E00C9300910001EB
:101DD000043081E008F080E08F9300910001003032
:101DE00080E010F009F081E09F918923882311F4AD
:101DF0000C94150F8091000180932402E0E0F0E044
:101E0000A0E0B1E07BE70E941F17A4E1B1E0EAE5A2
:101E1000F4E30E94F315E4E2F2E0A4E1B1E00E94F1
:101E200066140E9457160C94180F85E08093DD010C
:101E30000C941D0F84E08093DD010C940011E2E707
:101E4000F4E30E94501711F00C94320F80E080935D
:101E5000DD01A4E1B1E0EAE7F4E30E94F31528987C
:101E60000C940011EAE8F4E30E94501711F00C946E
:101E7000450F80E08093DD01A4E1B1E0E2E9F4E305
:101E80000E94F315289A0C940011E2EAF4E30E94F0
:101E9000501711F00C940B1000916E02023011F0EB
:101EA0000C94A80F80E08093DD01A4E8B2E00E94CA
:101EB0009C16A0E0B1E00C9384E18093670200914E
:101EC0000001043081E008F080E08F930091000170
:101ED000003080E010F009F081E09F918923882391
:101EE00011F40C94A30F8091000180932402E0E090
:101EF000F0E0A0E0B1E07BE70E941F17A4E1B1E0B1
:101F0000EAEAF4E30E94F315E4E2F2E0A4E1B1E0CE
:101F10000E9466140E945716A4E1B1E00E94661464
:101F2000E8ECF4E30E94F315E7E6F2E0A4E1B1E0A7
:101F30000E9466140E945716709127027860709371
:101F400027020C94A60F85E08093DD010C94091004
:101F5000033011F00C94061080E08093DD01A4E8BA
:101F6000B2E00E949C16A0E0B1E00C93A9E9B2E0B7
:101F70000E949C16A7E6B2E00C9300910001043089
:101F800081E008F080E08F9300910001003080E054
:101F900010F009F081E09F918923882311F40C94BB
:101FA00001108091000180932402E0E0F0E0A0E0C5
:101FB000B1E07BE70E941F17A4E1B1E0EAEAF4E395
:101FC0000E94F315E4E2F2E0A4E1B1E00E9466149D
:101FD0000E945716A4E1B1E00E946614E8ECF4E315
:101FE0000E94F315E7E6F2E0A4E1B1E00E94661476
:101FF0000E945716709127027860709327020C9404
:10200000041085E08093DD010C94091084E0809336
:10201000DD010C940011E2EDF4E30E94501711F081
:102020000C94371000916E02023011F00C943210B3
:1020300080E08093DD01A4E8B2E00E949C16A8E253
:10204000B2E00C93A4E1B1E0EAEDF4E30E94F315F1
:10205000E8E2F2E0A4E1B1E00E9466140E945716A3
:102060000C94351084E08093DD010C940011E0EFB6
:10207000F4E30E94501711F00C94511080E080930B
:10208000DD01A4E1B1E0E8EFF4E30E94F315E8E23A
:10209000F2E0A4E1B1E00E9466140E9457160C948D
:1020A0000011E2E0F5E30E94501711F00C9490103B
:1020B00000916E02023011F00C948B1080E080933E
:1020C000DD01A4E8B2E00E949C16A8E6B2E00C9301
:1020D000009168020E3118F011F00C9471100C94FC
:1020E00074108EE180936802E1E0F0E0A8E6B2E0CF
:1020F0007BE70E941F17A4E1B1E0EAE0F5E30E944C
:10210000F315E8E6F2E0A4E1B1E00E9466140E9453
:1021100057160C948E1084E08093DD010C9400110E
:10212000E8E1F5E30E94501711F00C94AA1080E04A
:102130008093DD01A4E1B1E0E0E2F5E30E94F31554
:10214000E7E6F2E0A4E1B1E00E9466140E945716AF
:102150000C940011E6E2F5E30E94501711F00C9484
:10216000FD1000916E02033011F00C94F810A4E8F9
:10217000B2E00E949C16AAE6B2E00C9300916A02BB
:102180000C3010F00C94F31080E08093DD01A9E98D
:10219000B2E00E949C16A7E6B2E00C93709169022F
:1021A000716070936902A4E1B1E0EEE2F5E30E9490
:1021B000F315EAE6F2E0A4E1B1E00E9466140E94A1
:1021C0005716A4E1B1E00E946614E8E3F5E30E942B
:1021D000F315E7E6F2E0A4E1B1E00E9466140E9484
:1021E00057160C94F61085E08093DD010C94FB10DB
:1021F00084E08093DD010C94001181E08093DD0187
:102200000C94051182E08093DD010091DD01003026
:1022100018F011F00C940E110C941A11E6ECF4E283
:10222000ADEDB1E08C9199270E941016A4E1B1E0C8
:102230000E94F315A4E1B1E00E946F140E947C1487
:1022400008954091250200912402041711F40C9482
:102250008B11E2E4F5E30E947514E4E2F2E0A0E8F9
:10226000B7E00E9457160E946D140E947C14809162
:1022700024028093250200912402013011F00C9475
:10228000551181E080933D02709127027F77709312
:102290002702709127027F7B70932702709127029B
:1022A0007062709327020C948B11023011F00C9421
:1022B0006D1182E080933D027091270270687093E7
:1022C0002702709127027F7B70932702709127026B
:1022D0007F7D709327020C948B11033011F00C94C6
:1022E000851183E080933D02709127027F77709380
:1022F0002702709127027064709327027091270261
:102300007F7D709327020C948B11EAE4F5E30E9421
:1023100075140E947C14089500916602083011F033
:102320000C94E91180E090E0A9E2B2E08D939C93D7
:10233000A9E2B2E00D911C91ACE2B2E04D915527BB
:10234000040F151FA9E2B2E00D931C93A9E2B2E0BD
:102350000D911C91ADE2B2E04D915527040F151F70
:10236000A9E2B2E00D931C93A9E2B2E00D911C9199
:10237000AEE2B2E04D915527040F151FA9E2B2E07D
:102380000D931C93A9E2B2E00D911C91AFE2B2E073
:102390004D915527040F151FA9E2B2E00D931C9330
:1023A00000E010E0A9E2B2E04D915C91041B150B36
:1023B000A9E2B2E00D931C93A9E2B2E011968C91D0
:1023C000A0E3B2E08C93A9E2B2E08C91A1E3B2E089
:1023D0008C93009166020A3011F00C94621280E036
:1023E00090E0A9E2B2E08D939C93A9E2B2E00D9156
:1023F0001C91ACE2B2E04D915527040F151FA9E2E4
:10240000B2E00D931C93A9E2B2E00D911C91ADE2F4
:10241000B2E04D915527040F151FA9E2B2E00D93CC
:102420001C93A9E2B2E00D911C91AEE2B2E04D9195
:102430005527040F151FA9E2B2E00D931C93A9E2E2
:10244000B2E00D911C91AFE2B2E04D915527040F1F
:10245000151FA9E2B2E00D931C93A9E2B2E00D9121
:102460001C91A0E3B2E04D915527040F151FA9E27E
:10247000B2E00D931C93A9E2B2E00D911C91A1E38F
:10248000B2E04D915527040F151FA9E2B2E00D935C
:102490001C9300E010E0A9E2B2E04D915C91041BB6
:1024A000150BA9E2B2E00D931C93A9E2B2E01196DC
:1024B0008C91A2E3B2E08C93A9E2B2E08C91A3E309
:1024C000B2E08C9308954F4B00436F6D616E646F63
:1024D000206E6F207265636F6E6F6369646F004C6E
:1024E0006F6E676974756420636F6D616E646F20D1
:1024F0006E6F2076616C696461004E756D65726FF8
:10250000206465207573756172696F206E6F207627
:10251000616C69646F004E756D65726F2064652033
:10252000706172616D6574726F7320696E76616C33
:1025300069646F004572726F72206C6F6E676974A8
:10254000756420706172616D6574726F2031004531
:1025500072726F72206C6F6E67697475642070613F
:1025600072616D6574726F203200506172616D65C9
:1025700074726F206E6F2076616C69646F004552D3
:10258000524F5238004552524F522053442E204948
:102590006E74656E7465206465206E7565766F0077
:1025A00000000000030000003300000033030000BF
:1025B0003333000033330300333333003333B30199
:1025C0003333B31933333333777777770C00FCFF2A
:1025D000CC00FCFFCC0CFCFFCCCCFCFF0C00FCFFC7
:1025E000F0FFFFFF000000000100000005000000F8
:1025F00015000000550000005501000055050000C1
:102600005515000055550000555501007777070016
:102610000E949E02ADE6B2E08C9187FB16F00C940E
:10262000221370916D027F7770936D02E8E0F2E300
:102630000E947514A3E0B6E00E946F140E947C14FF
:102640000E94F70BA4E4B2E08C9181FB16F00C948D
:102650003013709144027D7F709344020E94C80B36
:10266000A4E4B2E08C9184FB16F00C944F137091AB
:1026700044027F7E70934402EEE5F5E30E947514F8
:102680000E947C1480915002D2018C9381E00E94C0
:10269000ED150E940703229681E00E94E915A4E44B
:1026A000B2E08C9183FB16F00C9468137091440295
:1026B000777F70934402E8E6F5E30E9475140E9468
:1026C0007C14A2E5B2E0BA93AA930E942503229655
:1026D000A7E2B2E08C9185FB16F00C9495137091F3
:1026E00027027F7D70932702E6E7F5E30E947514C9
:1026F0000E947C14EEE7F5E30E9475140E947C149E
:10270000EEE7F5E30E9475140E947C145B985C98D8
:1027100080E0D2018C9381E00E94ED150E940703B6
:10272000229681E00E94E915289AA7E2B2E08C91F6
:1027300083FB16F00C94BB1370912702777F709384
:102740002702E8E8F5E30E947514E4E2F2E0A0E86D
:10275000B7E00E9457160E946D14E2ECF1E30E946C
:102760007514E7E6F2E0A0E8B7E00E9457160E9471
:102770006D140E947C14A7E2B2E08C9187FB16F0E6
:102780000C94C913709127027F77709327020E94DF
:102790008F03A7E2B2E08C9186FB16F00C94D7135E
:1027A000709127027F7B709327020E940E064A9940
:1027B0000C94E813E2E9F5E30E9475140E947C147E
:1027C000709169027160709369028AE080936A0275
:1027D00000916902013011F00C941E14709169028D
:1027E0007E7F70936902E4EAF5E30E947514EAE6DD
:1027F000F2E0A0E8B7E00E9457160E946D14E8E3EB
:10280000F5E30E947514E7E6F2E0A0E8B7E00E9465
:1028100057160E946D140E947C140E9442095B9816
:102820005C9880E0D2018C9381E00E94ED150E94BB
:102830000703229681E00E94E915289A0E9421113F
:102840000C940A13ED91FC91EF5FFF4FFC93EE9314
:10285000089500FC10D0089503D01ED001F8F9CFE0
:102860000024E89457FF02C009D0689400F80BD008
:1028700010F80124089502D009D00895509540958C
:102880004F5F5F4F0895E89417FF089500951095E6
:102890000F5F1F4F68940895352F242FE894452B20
:1028A00011F468940895512F402F0027112780E1DB
:1028B000440F551F001F111F021B130B416018F41A
:1028C000020F131F4E7F8A9599F708958F938D916C
:1028D0008823E9F711978F910895A0E8B7E08D91CB
:1028E000882311F00CD0FBCF08950E94F915802D9C
:1028F00011F005D0FACF08958DE001D08AE0009064
:10290000C00005FEFCCF8093C60008958D9103D0D2
:102910003A95E1F708950090C80005FEFCCF80933A
:10292000CE0008953197F1F70895689462F80895FC
:10293000E89462F80895EF93FF93EE27E82BE92BD4
:1029400031F0E0EAFFE03197F1F70197D1F7FF911D
:10295000EF9108958DE207FD8D938F2D881F802FB5
:10296000881F8F57082F6894F7F8802F87FF15C0AE
:1029700080958395082F80E38D938EE28D93802F31
:10298000815228F080E38D9399279C9308954427E2
:102990000A95802F09F196D01FC0805230F09EE436
:1029A0009D9381E48D939D93EFCF4427DF92EF9227
:1029B000FF920F938FE1801B11F0082F83D089D0F5
:1029C0009EE29D930F91FF90EF90DF904427039537
:1029D000003209F4D7CF2BD03F93E4E6FAE238E196
:1029E0002F2D1E2D0D2DFF24EE24DD244427000F56
:1029F000111F221FA8F42F923F920E94F915102C4C
:102A00000E94F915202C0E94F915302C0E94F9150E
:102A10003197410DD21CE31CF01C3F902F9001C058
:102A2000339631963A9519F73F9107D0AFCFDD0C29
:102A3000EE1CFF1C0A95D9F70895002719E058D01D
:102A40008F93802B11F0039501C08F911A95B9F7E0
:102A5000802F882309F496CF8F91805D8D930A95FE
:102A6000D9F792CF0065CD1D80B2E60E40597307AD
:102A7000A0ACB90350D6DC01286BEE00943577008A
:102A8000CA9A3B0065CD1D00B2E60E0059730700DF
:102A9000ACB90300D6DC01006BEE00003577000016
:102AA0009A3B0000CD1D0000E60E000073070000F9
:102AB000B9030000DC010000EE0000007700000018
:102AC0003B000000F694E794D79447950A95D1F718
:102AD000089500270DD08F9303958F2D8E298D2972
:102AE000842BC1F78F91805D8D930A95D9F74CCFD8
:102AF0001F930F93002710E2440FDD1CEE1CFF1CF8
:102B0000001F802F9AE0890B10F0082F43951A952B
:102B100099F7802F0F911F9108953C983D98449A02
:102B2000459A089568944093BC008F939F9388279B
:102B30009927019629F04091BC0047FFFACFE8940D
:102B40009F918F9162F8089544EAECDF4091B900BB
:102B5000487F483019F0403109F0689462F80895D0
:102B600044E94093BC004091BC0044FDFCCF089573
:102B70001093BB0044E8D6DF8F939F938827992753
:102B8000019671F04091B900487F483FC9F3E8943D
:102B9000483139F0483229F0403419F0403509F015
:102BA00068949F918F9162F8089544E801C044ECC5
:102BB000B9DF1091BB004091B900487F483FD9F37D
:102BC000089501911191219130810895481A590A6F
:102BD0000895481A8827580A089599275A924A92C0
:102BE000480E591E08950E94F9150D920020D9F73C
:102BF0000895C89531960020089591E005C092E0AF
:102C000003C094E001C098E0F4DF0D929A95E1F7DB
:102C10000895880F991F880F991FE80FF91FF1CFAA
:102C20000196019721F00E94F915E9F7FACF08956E
:102C3000819104D08D938823D9F70895813618F0B7
:102C40008B3708F48F7D089591E0882321F08894D4
:102C5000991F8A95E9F7892F90950895883018F083
:102C600011968850FBCF0895040F151F261F371F9C
:102C70000895000F111F221F331F0895009510950E
:102C8000209530950F5F1F4F2F4F3F4F08950191B3
:102C900010810FC00E94E1150EC00E94E11510C006
:102CA0000191108117FF05C03FEF2FEF04C0008195
:102CB00011272227332737FF03C0E0DF8DE28D93F2
:102CC000CF92DF92EF92AA24BB24CC24DD24EE2401
:102CD00040E2EAE0FF2755E093E38081890F87FD1A
:102CE0009F7083FD907F891B81935A95A9F7C1DF5F
:102CF000AA1CBB1CCC1CDD1CEE1C4A9551F7E894A9
:102D0000EFE0FF2782910BD0EB30E0F71EF06894E4
:102D10008A2D09D04D93EF90DF90CF900895982F92
:102D2000829501D0892F8F70805D26F0803309F461
:102D3000089568948D93089500271127222733273B
:102D40001DD08A3328F4803318F005D015D0F9CF80
:102D50000EF494CF089580538F93402F512F622FFC
:102D6000732F87DF86DF80DF84DF8F919927080F3D
:102D7000191F291F391F08958D910895E894FCDFCC
:102D80008032E9F38B32D9F38930C9F38D3211F4F3
:102D90006894F2CF089541E003C042E001C044E0EE
:102DA000E40F8827F81F8291982F829506D0892FEB
:102DB00004D04A95C1F70C94FB168F708A3008F046
:102DC000895F805D8D93089500271127222733277F
:102DD0008D91882379F04DDF4CDF4BDF4ADF2EDF0A
:102DE000815408F4895F865F080F8827181F281F01
:102DF000381FEECF089588278D93089581918D9384
:102E00008823E1F7089594E081918D939A95E1F7F5
:102E1000089509919191992359F08A95D9F731979D
:102E2000002331F081918D930A958823C9F7089585
:102E3000E2CFF999FECFE1BDF2BD3196089591E060
:102E400001C092E07B3751F47FB7F894F2DF8D91A7
:102E500080BDFA9AF99A9A95C9F77FBF77270895A6
:102E600091E001C092E0E5DFF89A80B58D939A95E4
:102E7000D1F70895FF93881BF9E0001FFA9511F42C
:102E8000FF910895881F841B18F4840F8894F5CF50
:102E90000894F3CF8FEF83959D919923E1F70895DF
:102EA000689401C0E894AF93BF938D9116F091910F
:102EB00003C00E94F915902D891718F011F488238A
:102EC000A1F7BF91AF910895689401C0E8942227BB
:102ED000102F231709F4089526F40E94F915802D68
:102EE00001C08191803081F0891741F070E08D93AD
:102EF0001A9591F7239571E01D93EACF01D0E8CFA1
:102F0000703011F077270895772331F423958827BF
:102F100013958D931A95E9F70895B7FE089590E8F3
:102F2000B91611F4D0FE08959FEFD91AE90AF90AEB
:102F300009F403950895D190E190F19001910895DD
:102F400021913191419151910895502F2D2D3E2D78
:102F50004F2D612F0895652F90E8440F551F592775
:102F6000990F47956078102F90E8FF0C001F0927F4
:102F7000990FF794107800380895FF0C90E8902787
:102F8000110F9795F794092F0895102FBD2CDE2C63
:102F9000EF2CF02E11234AF4B094D094E094F094E6
:102FA0009FEFB91AD90AE90AF90A0EE1FF2039F4AC
:102FB000FE2CED2CDB2CBB240850C2F752C032F0A3
:102FC0000A95BB0CDD1CEE1CFF1CF9CFA6DFD5CF8C
:102FD0002DEC3CEC4CEC5DE366270FC0ACDFB5DFBD
:102FE000DD24EE2490E8F92E0FE307C0A9DF05C029
:102FF0002227332740E251E46627552351F100236D
:1030000081F1A9DF71F11627005850580894050B7B
:1030100018F407FD03C025C007FD23C0469537956A
:103020002795F694E794D79425D0FF202AF0DD0C5D
:10303000EE1CFF1C015073F09D2D969548F0DD208D
:103040003AF4EE202AF491E0D90E9927E91EF91EF0
:1030500094CF07C09FE7092FF92A9FEFD92EE92EB9
:103060000895DD24EE24FF240027112708950FE79B
:103070009FEFF2CF9F929924AA24BB2488E1D21615
:10308000E306F40628F0D21AE30AF40A089401C011
:103090008894991CAA1CBB1CDD0CEE1CFF1C8A9595
:1030A00071F7D92CEA2CFB2C9F90089554DFD9F0AE
:1030B0005038C9F016270058952F90580894091FCA
:1030C00012F418F40EC008F00EC00FD0FF202AF042
:1030D000BB0CDD1CEE1CFF1C02C0039513F01DDFB2
:1030E0004CCF0C942A180C9431189F92FF92EF92B7
:1030F0008D2DFF24EE24DD24BB2493E0849F10015A
:10310000829FB00CD11CE21CF31C839FD00CE11CED
:103110002224F21C9A9531F0BD2CDE2CEF2CFF24DA
:103120008F91ECCF9F9008950E94F915202D0E9459
:10313000F915302D0E94F915402D0E94F915502DDA
:1031400008950000F04100007F432A2A2A2A2A2AF3
:103150002A2A2A2A2A2A20445249564552204155D1
:1031600044494F202A2A2A2A2A2A2A2A2A2A2A2A6B
:10317000000032382D30352D323032362031373A9A
:1031800034363A333400302E312E31383300445245
:1031900056415544494F4D53472E424153004573C4
:1031A0007461646F3D00564F4C7473743D007772C8
:1031B000206461632C200000244C45454932432C97
:1031C00000002C00494E4954455354004D6F64751E
:1031D0006C6F204F4E005344204F4B0024445256F6
:1031E0004155442C32005761697420320000464931
:1031F0004E00566F6C3D0000546F6E6F20496E6636
:103200006F20544553540000534552313D00524500
:1032100041442041444300005430434E54523D0049
:1032200046696E20746F6E6F205465737400546F1E
:103230006E6F20544553540046494E205445535414
:1032400000004E4F20534400244452564155442C14
:1032500034004D6F64756C6F204E4F205072657353
:10326000656E74650000414C45525441204E4152F8
:10327000414E4A410000244452564155442C3300EB
:10328000546F6E6F20496E666F20414C41524D4124
:10329000000046696E20746F6E6F20414C41524DA4
:1032A0004100546F6E6F20414C41524D4100436EBE
:1032B00074726D696E3D000046494E20414C41528A
:1032C0004D410000244452564155442C3500436F73
:1032D0006D616E646F2061204446506C6170796549
:1032E000723D00002C205041523D00003B005245F1
:1032F00050204D454E53414A4500245345544D53AB
:10330000472C0000436D644D73673D004D534720CB
:10331000000046696E204D534700524550204D53E2
:10332000470046494E206D736700526573702E202A
:103330004446506C617965723A004C454556465793
:10334000000056657273696F6E2046573A204665D5
:10335000636861203C003E2C204172636869766F8F
:10336000203C00003E005345544C4544000053654A
:1033700020636F6E666967757261207365746C6532
:10338000642061200000454E41494E3100005365E4
:1033900020686162696C69746F20494E3120792020
:1033A000646573686162696C69746F20494E3200AC
:1033B000454E41494E320000536520686162696C98
:1033C00069746F20494E32207920646573686162A8
:1033D000696C69746F20494E3100444953494E313C
:1033E0000000536520646573686162696C69746F7D
:1033F00020494E310000444953494E320000536584
:1034000020646573686162696C69746F20494E322B
:10341000000053455444465000005345544932433C
:1034200000002053616C69646120444143203D00E9
:103430004C454549324300004C6563747572612008
:1034400041444320000020454E2043414E414C2042
:1034500000005345545354410000536520636F6E80
:1034600066696775726F2065737461646F2061208F
:1034700000005345544D503300004D6F64756C6F20
:103480002020445850204F4E00005253544D50338A
:1034900000004D6F64756C6F2020445850204F46DB
:1034A00046004452564155440000536520636F6EF8
:1034B00066696775726F2065737461646F2044522A
:1034C000564155442061200020636F6E20564F4CBA
:1034D0003D005345544D494E0000536520636F6EC7
:1034E00066696775726F20636E74726D696E200015
:1034F0004C45454D494E0000436E74726D696E2017
:103500000000534554564F4C0000536520636F6EC6
:103510006620564F4C3D00004C4545564F4C000030
:10352000564F4C3D00005345544D534700005265E3
:10353000702E204D5347200020636F6E20566F6C15
:1035400020005354415455533D0045737461646FDA
:10355000206E6F20646566696E69646F0000575263
:103560004954452044414300524541442049324397
:103570002041444300004E4F524D414C0000244432
:1035800052564155442C3100244452564155442C46
:1035900000005445535420706F7220696275747432
:1035A0006F6E00004E7565766F204D53472000000A
:00000001FF
