:100000000C945A00189500001895000018950000EF
:10001000189500001895000018950000189500002C
:10002000189500001895000018950000189500001C
:10003000189500001895000018950000189500000C
:100040000C94DC01189500000C94B1001895000088
:1000500018950000189500001895000018950000EC
:1000600018950000189500001895000018950000DC
:100070000C94430118950000189500001895000095
:1000800018950000189500001895000018950000BC
:1000900018950000189500001895000018950000AC
:1000A000189500001895000018950000189500009C
:1000B000189500008FEF8DBFC0E8E8E94E2E88E06C
:1000C0008EBFD8E0F7E05F2EA89584B7082E88276A
:1000D00084BF88E199278093600090936000EEEFE1
:1000E000F7E0A0E0B1E088278D933197E9F787E644
:1000F0008093C40080E08093C50088E18093C100B4
:1001000080E08093CD0087E68093CC0088E18093E7
:10011000C9006624229A209A539A549A559A529862
:100120005A9A70E07093B90078E47093B8000E9416
:10013000781285E085BD80E084BD70916E007160AD
:1001400070936E0085E085BD7091C10070687093FA
:10015000C1007091C90070687093C90078940C94C4
:10016000FD0F0F921F922F923F924F925F927F92BC
:10017000AF92BF920F931F932F933F934F935F9331
:100180006F937F938F939F93AF93BF93CF93DF939F
:10019000EF93FF938FB78F93ADEFB5E08091C600DB
:1001A0008C9384E2482F0091FD05041711F00C9404
:1001B000E40070914402716070934402A4E3B5E0DE
:1001C00088278C930C9426010D3011F00C940E01AD
:1001D000A4E4B2E08C9180FB16F00C940C017091B9
:1001E00044027E7F7093440280E0A4E3B5E00E9465
:1001F00051118D9388278C93E4E3F5E0AEEFB5E0E1
:100200000E94E9137091680270687093680270919F
:100210006E00716070936E000C9426010F3118F01F
:1002200011F00C9415010C942601A4E4B2E08C9119
:1002300080FB16F00C942601ADEFB5E08C91A4E3A1
:10024000B5E00E9451118D9388278C938F918FBFB9
:10025000FF91EF91DF91CF91BF91AF919F918F91DE
:100260007F916F915F914F913F912F911F910F91CE
:10027000BF90AF907F905F904F903F902F901F90D6
:100280000F90189508950F921F922F923F924F92C0
:100290005F927F92AF92BF920F931F932F933F93E2
:1002A0004F935F936F937F938F939F93AF93BF937E
:1002B000CF93DF93EF93FF938FB78F93A3E5B2E0D4
:1002C0008091CE008C93009153020E3711F00C9464
:1002D00083017091440274607093440280E08093C3
:1002E0005402A4E5B2E08C918F5F8C93809153020D
:1002F000A4E5B2E0AD90BB24A4E5B2E0AA0DBB1D1D
:100300008C930C94C0010F3E11F00C94A201A4E553
:10031000B2E08C918F5F8C9380915302A4E5B2E0A0
:10032000AD90BB24A4E5B2E0AA0DBB1D8C937091E7
:10033000440272607093440280915402809365027B
:100340000C94C001A4E4B2E08C9182FB16F00C94F2
:10035000C001A4E5B2E08C918F5F8C938091530231
:10036000A4E5B2E0AD90BB24A4E5B2E0AA0DBB1DAC
:100370008C93A4E5B2E00C9140E10E9425148C938B
:100380008F918FBFFF91EF91DF91CF91BF91AF918F
:100390009F918F917F916F915F914F913F912F919D
:1003A0001F910F91BF90AF907F905F904F903F90C3
:1003B0002F901F900F9018950F921F922F923F929F
:1003C0004F925F927F92AF92BF920F931F932F93A2
:1003D0003F934F935F936F937F938F939F93AF93CD
:1003E000BF93CF93DF93EF93FF938FB78F9374E611
:1003F00076BDA7E3B2E08C918F5F8C93A7E3B2E068
:100400000C9148E00E9425148C9300913702003033
:1004100011F00C943C02A8E3B2E00C9140E20E947F
:1004200025148C93EAE8FFE1ADE3B2E08C919927C3
:10043000A9E3B2E00E94F41280913802A9E3B2E08D
:100440000E9419130E940F130C900822689409F45B
:10045000E894A7E2B2E08C9182F98C93A7E2B2E033
:100460008C9182FBA5E2B0E08C9182F98C93A8E399
:10047000B2E08C918F5F8C93A7E2B2E08C9181FB0C
:1004800016F00C945E02AEE3B2E00E940D11A0E4FF
:10049000B2E04D915C91AEE3B2E00D911C91041776
:1004A000150711F00C945E02709127027160709331
:1004B0002702709127027D7F70932702A4E4B2E0A7
:1004C0008C9186FB16F00C947D02A2E4B2E00E94AF
:1004D0000D11A5E4B2E04D915C91A2E4B2E00D9162
:1004E0001C910417150711F00C947B0270914402C3
:1004F0007068709344020C94830280E090E0A2E460
:10050000B2E08D939C938F918FBFFF91EF91DF911C
:10051000CF91BF91AF919F918F917F916F915F919B
:100520004F913F912F911F910F91BF90AF907F906E
:100530005F904F903F902F901F900F901895289AA2
:100540002A985B985C98E0E2FBE20E9460110E94AE
:100550006711A0E8B7E0E8E4FBE20E94DE120E9427
:1005600058110E946711A0E8B7E0ECE5FBE20E9499
:10057000DE120E9458110E946711A0E8B7E0E4E67D
:10058000FBE20E94DE120E9458110E9467118EE762
:1005900080932B028FEF80932C0281E080933D02A9
:1005A000E0E0F0E0A4E2B2E00E941B1481E080935E
:1005B0002402E8E7FBE20E946011E4E2F2E0A0E836
:1005C000B7E00E9442130E9458110E9467110895DB
:1005D000E0E8FBE20E946011E881F981A0E8B7E061
:1005E0000E9442130E9458110E9467110E948F12AC
:1005F0001CE90E94A31210E40E94A312A881B981F1
:100600001C910E94A3120E949B12089584E690E020
:100610000E9486110E948F121CE90E94A312A881D9
:10062000B9811C910E94A3120E948F121DE90E94A1
:10063000A3120E94C212A1E5B2E01C930E94C01254
:10064000A1E5B2E01C930E949B12E8E1FBE20E944C
:100650007F15E1E5F2E0D080EE24FF2400270E9420
:10066000B0140E944115EDE0F0E0A4E0B1E00E947A
:10067000EE13ECE1FBE20E947F15E4E0F1E00E9462
:1006800086140E94E814EDE0F0E0A4E0B1E00E94DE
:10069000EE13E4E0F1E0A0E8B7E00E9486140E94C7
:1006A00095110E9458110E946711EAE8FBE20E942E
:1006B0006011E881F981A0E8B7E00E9442130E942E
:1006C0005811E4E9FBE20E946011E1E5F2E0A0E8E4
:1006D000B7E00E9442130E9458110E9467110895CA
:1006E000E6E9FBE20E9460110E94671128985B9A7C
:1006F00088EC90E0A5E4B2E08D939C937091440265
:100700007F777093440280E090E0A2E4B2E08D93A2
:100710009C9370914402706470934402A4E4B2E02C
:100720008C9181FB81E00EF080E08F93A4E4B2E035
:100730008C9187FB81E00EF080E09F91892B8823CC
:1007400011F40C948E030E943509709144027D7F50
:1007500070934402009158020F3311F00C94D405A9
:10076000EEE9FBE20E9460110E94671100915B02BA
:10077000023011F00C94C0058FEFD2018C9381E010
:100780000E94D8120E94E802229681E00E94D412B0
:10079000E8EAFBE20E9460110E946711EEEAFBE2C8
:1007A0000E9460110E946711EEEAFBE20E94601154
:1007B0000E946711E8EBFBE20E9460110E94671142
:1007C00088EC90E0D2018D939C9382E00E94D81235
:1007D0000E947908229682E00E94D412E0ECFBE2AB
:1007E0000E9460110E946711E4ECFBE20E9460111C
:1007F000E7E6F2E0A0E8B7E00E9442130E94581139
:100800000E94671186E0D2018C9381E00E94D81289
:10081000A7E6B2E08C91D2018D9388278C9382E079
:100820000E94D8120E949C08249683E00E94D41251
:100830008FE0D2018C9381E00E94D81286E091E093
:10084000D2018D939C9382E00E94D8120E949C0852
:10085000249683E00E94D412EAECFBE20E9460112D
:100860000E94671180ED97E0A5E4B2E08D939C9320
:10087000709144027F777093440280E090E0A2E49C
:10088000B2E08D939C937091440270647093440223
:100890008091580280930801A8E6B2E08C9187FB12
:1008A00016F00C946404709168027F77709368026C
:1008B000EAEDFBE20E946011AEEFB5E00E945A1132
:1008C0000E9467110E946409A4E4B2E08C9183FB4A
:1008D00016F00C947D0470914402777F709344026B
:1008E000E0EEFBE20E9460110E946711A2E5B2E017
:1008F000BA93AA930E9406032296A2E4B2E00D9155
:100900001C9144E650E00E943711A9E0B1E00D933C
:100910001C93A9E0B1E00D911C91003050E0150747
:1009200011F00C94A104EAEEFBE20E946011E2E4F3
:10093000F2E0A0E8B7E00E9432130E9458110E9432
:100940006711009108010D3381E009F080E08F9379
:10095000A4E4B2E08C9187FB81E00EF080E09F91EF
:10096000892B8F9300912402013081E009F080E00F
:100970009F91892B882311F40C944804E2EFFBE249
:100980000E9460110E9467110E943509E0E0FCE2BC
:100990000E9460110E9467118FE0D2018C9381E068
:1009A0000E94D81286E091E0D2018D939C9382E060
:1009B0000E94D8120E949C08249683E00E94D412C0
:1009C00084E690E0D2018D939C9382E00E94D8123D
:1009D0000E947908229682E00E94D4120E94350972
:1009E00088E0D2018C9381E00E94D81280E090E0F0
:1009F000D2018D939C9382E00E94D8120E949C08A1
:100A0000249683E00E94D41288EB9BE0A5E4B2E038
:100A10008D939C93709144027F777093440280E0A1
:100A200090E0A2E4B2E08D939C93709144027064D4
:100A300070934402A8E6B2E08C9187FB16F00C9408
:100A40003205709168027F7770936802EAEDFBE2ED
:100A50000E946011AEEFB5E00E945A110E9467112A
:100A60000E946409A4E4B2E08C9181FB16F00C941E
:100A70004005709144027D7F709344020E943509C5
:100A8000A4E4B2E08C9183FB16F00C9459057091AC
:100A90004402777F70934402E0EEFBE20E94601113
:100AA0000E946711A2E5B2E0BA93AA930E940603DE
:100AB0002296A2E4B2E00D911C9144E650E00E941F
:100AC0003711A9E0B1E00D931C93A9E0B1E00D91BD
:100AD0001C91003050E0150711F00C947D05EAEEF2
:100AE000FBE20E946011E2E4F2E0A0E8B7E00E94BD
:100AF00032130E9458110E946711A4E4B2E08C9155
:100B000087FB81E00EF080E08F930091240201309A
:100B100081E009F080E09F91892B882311F40C94E7
:100B20001A05EAE0FCE20E9460110E9467118EE063
:100B3000D2018C9381E00E94D81280E090E0D20133
:100B40008D939C9382E00E94D8120E949C08249668
:100B500083E00E94D41284E690E0D2018D939C93AE
:100B600082E00E94D8120E947908229682E00E94B8
:100B7000D4120E94350981E0809324020C94D2059E
:100B8000E4E1FCE20E9460110E946711EAE1FCE2EC
:100B90000E9460110E946711EAE1FCE20E9460116C
:100BA0000E9467110C94F405E4E2FCE20E946011DB
:100BB0000E9467115B985C9880E0D2018C9381E081
:100BC0000E94D8120E94E802229681E00E94D4126C
:100BD000289A5D9A84E690E00E9486115D98709153
:100BE00027027068709327020895E8E3FCE20E94F0
:100BF00060110E94671128985B9A88EC90E0A5E448
:100C0000B2E08D939C93709144027F77709344027D
:100C100080E090E0A2E4B2E08D939C937091440256
:100C2000706470934402A4E4B2E08C9181FB81E093
:100C30000EF080E08F93A4E4B2E08C9187FB81E01A
:100C40000EF080E09F91892B882311F40C941306F9
:100C50000E943509709144027D7F70934402009197
:100C600058020F3311F00C944A08EEE9FBE20E949F
:100C700060110E94671100915B02023011F00C9428
:100C800036088FEFD2018C9381E00E94D8120E9427
:100C9000E802229681E00E94D412E8EAFBE20E9478
:100CA00060110E946711E8E4FCE20E9460110E945A
:100CB0006711E8E4FCE20E9460110E946711E4EC15
:100CC000FBE20E946011E7E6F2E0A0E8B7E00E94D4
:100CD00042130E9458110E94671186E0D2018C9342
:100CE00081E00E94D812A7E6B2E08C91D2018D93E8
:100CF00088278C9382E00E94D8120E949C08249638
:100D000083E00E94D4128FE0D2018C9381E00E9494
:100D1000D81286E091E0D2018D939C9382E00E94EC
:100D2000D8120E949C08249683E00E94D4128FE07F
:100D3000D2018C9381E00E94D81288E091E0D20128
:100D40008D939C9382E00E94D8120E949C08249666
:100D500083E00E94D412E2E5FCE20E9460110E944E
:100D6000671180ED97E0A5E4B2E08D939C937091BC
:100D700044027F777093440280E090E0A2E4B2E006
:100D80008D939C937091440270647093440280919F
:100D9000580280930801A8E6B2E08C9187FB16F018
:100DA0000C94E306709168027F7770936802EAED15
:100DB000FBE20E946011AEEFB5E00E945A110E9462
:100DC00067110E946409A2E4B2E00D911C9144E60F
:100DD00050E00E943711A9E0B1E00D931C93A9E007
:100DE000B1E00D911C91003050E0150711F00C940A
:100DF0000707EAEEFBE20E946011E2E4F2E0A0E8FD
:100E0000B7E00E9432130E9458110E9467110091AE
:100E100008010D3381E009F080E08F93A4E4B2E093
:100E20008C9187FB81E00EF080E09F91892B8F935E
:100E300000912402013081E009F080E09F91892B2C
:100E4000882311F40C94C706E4E6FCE20E946011CA
:100E50000E9467110E943509E4E7FCE20E946011DC
:100E60000E9467118FE0D2018C9381E00E94D8121A
:100E700088E091E0D2018D939C9382E00E94D81289
:100E80000E949C08249683E00E94D41284E690E09D
:100E9000D2018D939C9382E00E94D8120E9479081F
:100EA000229682E00E94D4120E94350988E0D20185
:100EB0008C9381E00E94D81280E090E0D2018D9363
:100EC0009C9382E00E94D8120E949C08249683E0A2
:100ED0000E94D41280E08093280280E797E1A5E485
:100EE000B2E08D939C93709144027F77709344029B
:100EF00080E090E0A2E4B2E08D939C937091440274
:100F0000706470934402A8E2B2E08C918F5F8C937E
:100F1000A8E6B2E08C9187FB16F00C94A0077091C4
:100F200068027F7770936802EAEDFBE20E9460112D
:100F3000AEEFB5E00E945A110E9467110E94640949
:100F4000A4E4B2E08C9181FB16F00C94AE07709192
:100F500044027D7F709344020E943509A2E4B2E00E
:100F60000D911C9144E650E00E943711A9E0B1E0D8
:100F70000D931C93A9E0B1E00D911C91003050E05D
:100F8000150711F00C94D207EAEEFBE20E94601103
:100F9000E2E4F2E0A0E8B7E00E9432130E945811A8
:100FA0000E946711A4E4B2E08C9187FB81E00EF00F
:100FB00080E08F9300912402013081E009F080E00D
:100FC0009F91892B882311F40C948807E0E8FCE2B8
:100FD0000E946011E8E2F2E0A0E8B7E00E9442134C
:100FE0000E9458110E946711009128020E3181E081
:100FF00009F080E08F9300912402013081E009F034
:1010000080E09F91892B882311F40C946D07EAE806
:10101000FCE20E9460110E9467118EE0D2018C9365
:1010200081E00E94D81280E090E0D2018D939C93E1
:1010300082E00E94D8120E949C08249683E00E94BD
:10104000D41284E690E0D2018D939C9382E00E94BA
:10105000D8120E947908229682E00E94D4120E943F
:10106000350981E0809324020C944808E4E1FCE215
:101070000E9460110E946711E6E9FCE20E94601183
:101080000E946711E6E9FCE20E9460110E9467116C
:101090000C947808E4E2FCE20E9460110E9467115F
:1010A0005B985C9880E0D2018C9381E00E94D8121A
:1010B0000E94E802229681E00E94D412289A5D9A4A
:1010C00084E690E00E9486115D9884E690E0D2016B
:1010D0008D939C9382E00E94D8120E9479082296F8
:1010E00082E00E94D41270912702706470932702EC
:1010F0000895A881B9818D919C91A0E4B2E08D936F
:101100009C9380E090E0AEE3B2E08D939C9370916D
:1011100027027E7F7093270270912702726070937E
:101120002702A7E2B2E08C9180FB16F40C949B0896
:10113000A8950C9491080895A4E1B1E0E0EAFCE2DE
:101140000E94DE12EA81FB81A4E1B1E00E9451110C
:101150000E94B613A4E1B1E00E945111E6EBFCE25B
:101160000E94DE12E881F981A4E1B1E00E945111F0
:101170000E94B81386E080932D02AA81BB818C91D6
:1011800080932E0281E080932F02A4E1B1E00E94BF
:101190005A110E946711A881B98111968C91A2E021
:1011A000B1E08C93E2E0F1E0A0E8B7E00E94B61372
:1011B0000E9458110E9467118091020180933002B1
:1011C000A881B9818C91A2E0B1E08C93E2E0F1E0DA
:1011D000A0E8B7E00E94B6130E9458110E94671160
:1011E00080910201809331028FEE809334028AE075
:1011F000809366020E94810E81E0809303014091FA
:10120000660200910301041718F011F00C943209E2
:10121000E3E0F1E0A190BB24EAE2F2E0EA0DFB1D7D
:10122000A0E8B7E00E94B6130E945811EEEBFCE272
:101230000E946011A3E0B1E0AD90BB24AAE2B2E04D
:10124000AA0DBB1D8C918093000131E0A0E0B1E0BC
:101250000E947111A3E0B1E08C918F5F8C9310F428
:101260000C94FF080E9467110895E0ECFCE20E94D4
:1012700060110E94671181E0809300014091650236
:1012800000910001041718F011F00C946109E0E0DE
:10129000F1E0A190BB24E4E5F2E0EA0DFB1DA0E83B
:1012A000B7E00E94B6130E945811E4E9FBE20E94E5
:1012B0006011A0E0B1E08C918F5F8C9310F40C94DE
:1012C0003E090E946711089581E0EEEFF5E006E027
:1012D0000A93AFEEB1E00E94F413EEEFF5E09CE26A
:1012E00004E132E2AAE6B2E00E945114A9E6B2E0BB
:1012F0002C93AAE6B2E00E943514082F063011F0B4
:101300000C94F70DEAE6F2E0ADE0B1E00E94E913DB
:10131000EDE0F1E0ADE0B1E00E9403138FEF8093C8
:10132000DD01ADE0B1E0E0EDFCE20E943B1411F024
:101330000C94D10980E08093DD01A4E1B1E0E8EDF7
:10134000FCE20E94DE12AFEEB1E0E8E4FBE20E94B4
:10135000DE12EFEEF1E0A4E1B1E00E9451110E9433
:10136000E913A4E1B1E00E945111ECEEFCE20E940D
:10137000DE12AFEEB1E0E4E6FBE20E94DE12EFEE39
:10138000F1E0A4E1B1E00E9451110E94E913A4E14F
:10139000B1E00E945111EAEFFCE20E94DE120C94CF
:1013A000F50DECEFFCE20E943B1411F00C940C0ADA
:1013B00000916902023011F00C94070AAFE7B2E025
:1013C0000E948713A0E0B1E00C930091000101316D
:1013D00010F00C94020A80E08093DD01A4E1B1E0FA
:1013E000E4E0FDE20E94DE12E0E0F1E0A4E1B1E021
:1013F0000E9451110E9442138091000180933D028E
:101400000C94050A85E08093DD010C940A0A84E0BF
:101410008093DD010C94F50DECE1FDE20E943B149C
:1014200011F00C942B0A00916902013011F00C9418
:10143000260A80E08093DD015B9A5C98A4E1B1E02C
:10144000E4E2FDE20E94DE120C94290A84E080931B
:10145000DD010C94F50DE6E4FDE20E943B1411F071
:101460000C944A0A00916902013011F00C94450A6B
:1014700080E08093DD015C9A5B98A4E1B1E0EEE44A
:10148000FDE20E94DE120C94480A84E08093DD01A4
:101490000C94F50DE0E7FDE20E943B1411F00C9472
:1014A000680A00916902013011F00C94630A80E02F
:1014B0008093DD015B98A4E1B1E0E8E7FDE20E94E2
:1014C000DE120C94660A84E08093DD010C94F50D25
:1014D000ECE8FDE20E943B1411F00C94860A0091A6
:1014E0006902013011F00C94810A80E08093DD01E3
:1014F0005C98A4E1B1E0E4E9FDE20E94DE120C9404
:10150000840A84E08093DD010C94F50DE8EAFDE2A5
:101510000E943B1411F00C94AA0B00916902023056
:1015200011F00C94F50A80E08093DD01AFE7B2E0A2
:101530000E94CF13A1E0B1E00C93A4E1B1E0E0EA96
:10154000FCE20E94DE12EFE7F2E0A4E1B1E00E94CB
:1015500051110E94E91384E080932D0280910101D2
:1015600080932E0280E080932F028FEE80933202D0
:1015700088E0809366020E94810E81E080930301DF
:101580004091660200910301041718F011F00C94C9
:10159000F30AE3E0F1E0A190BB24EAE2F2E0EA0D15
:1015A000FB1DA0E8B7E00E94B6130E945811EEEBB5
:1015B000FCE20E946011A3E0B1E0AD90BB24AAE27E
:1015C000B2E0AA0DBB1D8C918093000131E0A0E038
:1015D000B1E00E947111A3E0B1E08C918F5F8C9318
:1015E00010F40C94C00A0E94671100916902033044
:1015F00011F00C94A80B80E08093DD01AFE7B2E01E
:101600000E94CF13A1E0B1E00C93A4E9B2E00E94E4
:10161000CF13A9E0B1E00D931C93A4E1B1E0E0EA9F
:10162000FCE20E94DE12EFE7F2E0A4E1B1E00E94EA
:1016300051110E94E913A4E1B1E00E945111E6EBBF
:10164000FCE20E94DE12E4E9F2E0A4E1B1E00E94D3
:1016500051110E94E91386E080932D0280910101CF
:1016600080932E0281E080932F02E9E0F1E0A0E870
:10167000B7E00E94B8130E9458110E946711A9E0B8
:10168000B1E011968C91A2E0B1E08C93E2E0F1E040
:10169000A0E8B7E00E94B6130E9458110E9467119B
:1016A0008091020180933002A9E0B1E08C91A2E028
:1016B000B1E08C93E2E0F1E0A0E8B7E00E94B6135D
:1016C0000E9458110E94671180910201809331029B
:1016D0008FEE809334028AE0809366020E94810E2E
:1016E00081E0809303014091660200910301041799
:1016F00018F011F00C94A60BE3E0F1E0A190BB24EC
:10170000EAE2F2E0EA0DFB1DA0E8B7E00E94B613A2
:101710000E945811EEEBFCE20E946011A3E0B1E0E0
:10172000AD90BB24AAE2B2E0AA0DBB1D8C918093C0
:10173000000131E0A0E0B1E00E947111A3E0B1E04E
:101740008C918F5F8C9310F40C94730B0E94671133
:101750000C94F50DE0EBFDE20E943B1411F00C94AB
:10176000DB0B00916902023011F00C94D60B80E083
:101770008093DD01AFE7B2E00E94CF13A0E5B2E0B5
:101780000C93A4E1B1E0E8EBFDE20E94DE12E0E59B
:10179000F2E0A4E1B1E00E9451110E94B6137091F1
:1017A00044027061709344020C94D90B84E08093DE
:1017B000DD010C94F50DE6ECFDE20E943B1411F006
:1017C0000C943C0C00916902023011F00C94370C1F
:1017D000AFE7B2E00E948713A0E0B1E00C93009164
:1017E0000001003080E010F009F081E08F9300915B
:1017F0000001053081E008F080E09F918923882373
:1018000011F40C94320C709144027860709344028D
:1018100080E08093DD010091000141E0041BA2E51E
:10182000B2E00C93A4E1B1E0EEECFDE20E94DE1226
:10183000E0E0F1E0A4E1B1E00E9451110E94421306
:10184000A4E1B1E00E945111ECEDFDE20E94DE1234
:10185000E2E5F2E0A4E1B1E00E9451110E944213DE
:101860000C94350C85E08093DD010C943A0C84E0F7
:101870008093DD010C94F50DE8EEFDE20E943B142F
:1018800011F00C948C0C00916902023011F00C9450
:10189000870C80E08093DD01AFE7B2E00E94871300
:1018A000A0E0B1E00C9300910001043081E008F069
:1018B00080E08F9300910001003080E010F009F08B
:1018C00081E09F918923882311F40C94820C8091EC
:1018D000000180932402E0E0F0E0A0E0B1E07BE7CB
:1018E0000E940A14A4E1B1E0E0EFFDE20E94DE12E2
:1018F000E4E2F2E0A4E1B1E00E9451110E9442133F
:101900000C94850C85E08093DD010C948A0C84E0B6
:101910008093DD010C94F50DE8E0FEE20E943B149B
:1019200011F00C949F0C80E08093DD01A4E1B1E004
:10193000E0E1FEE20E94DE1228980C94F50DE0E250
:10194000FEE20E943B1411F00C94B80C80E08093EE
:10195000DD01A4E1B1E0E8E2FEE20E94DE12289A95
:101960005D9A84E690E00E9486115D980C94F50DD6
:10197000E8E3FEE20E943B1411F00C94CF0C80E0EF
:101980008093DD01A4E1B1E0E0E4FEE20E94DE121A
:10199000709127027061709327020C94F50DE2E5B7
:1019A000FEE20E943B1411F00C94E60C80E0809360
:1019B000DD01A4E1B1E0EAE5FEE20E94DE127091F1
:1019C00027027F7E709327020C94F50DECE6FEE271
:1019D0000E943B1411F00C94AC0D0091690202308E
:1019E00011F00C94490D80E08093DD01AFE7B2E087
:1019F0000E948713A0E0B1E00C9384E1809367021A
:101A000000910001043081E008F080E08F930091A4
:101A10000001003080E010F009F081E09F918923FF
:101A2000882311F40C94440D8091000180932402CA
:101A3000E0E0F0E0A0E0B1E07BE70E940A14A4E15E
:101A4000B1E0E4E7FEE20E94DE12E4E2F2E0A4E1AB
:101A5000B1E00E9451110E944213A4E1B1E00E9442
:101A60005111E2E9FEE20E94DE12E7E6F2E0A4E1B3
:101A7000B1E00E9451110E944213709127027860D8
:101A8000709327020C94470D85E08093DD010C9440
:101A9000AA0D033011F00C94A70D80E08093DD01B6
:101AA000AFE7B2E00E948713A0E0B1E00C93A4E995
:101AB000B2E00E948713A7E6B2E00C930091000108
:101AC000043081E008F080E08F9300910001003045
:101AD00080E010F009F081E09F918923882311F4C0
:101AE0000C94A20D8091000180932402E0E0F0E0CC
:101AF000A0E0B1E07BE70E940A14A4E1B1E0E4E7D2
:101B0000FEE20E94DE12E4E2F2E0A4E1B1E00E9413
:101B100051110E944213A4E1B1E00E945111E2E987
:101B2000FEE20E94DE12E7E6F2E0A4E1B1E00E94EC
:101B300051110E944213709127027860709327021E
:101B40000C94A50D85E08093DD010C94AA0D84E032
:101B50008093DD010C94F50DECE9FEE20E943B144C
:101B600011F00C94D80D00916902023011F00C9420
:101B7000D30D80E08093DD01AFE7B2E00E948713D0
:101B8000A8E2B2E00C93A4E1B1E0E4EAFEE20E9434
:101B9000DE12E8E2F2E0A4E1B1E00E9451110E94FD
:101BA00042130C94D60D84E08093DD010C94F50D66
:101BB000EAEBFEE20E943B1411F00C94F20D80E07F
:101BC0008093DD01A4E1B1E0E2ECFEE20E94DE12CE
:101BD000E8E2F2E0A4E1B1E00E9451110E94421358
:101BE0000C94F50D81E08093DD010C94FA0D82E0F8
:101BF0008093DD010091DD01003018F011F00C94AC
:101C0000030E0C940F0EE0EBFEE1ADEDB1E08C9114
:101C100099270E94FB12A4E1B1E00E94DE12A4E128
:101C2000B1E00E945A110E94671108954091250267
:101C300000912402041711F40C94800EECECFEE2E7
:101C40000E946011E4E2F2E0A0E8B7E00E944213D3
:101C50000E9458110E9467118091240280932502EE
:101C600000912402013011F00C944A0E81E080931F
:101C70003D02709127027F777093270270912702AF
:101C80007F7B709327027091270270627093270206
:101C90000C94800E023011F00C94620E82E080935E
:101CA0003D0270912702706870932702709127029D
:101CB0007F7B70932702709127027F7D70932702AC
:101CC0000C94800E033011F00C947A0E83E0809314
:101CD0003D02709127027F7770932702709127024F
:101CE000706470932702709127027F7D70932702A2
:101CF0000C94800EE4EDFEE20E9460110E946711D8
:101D0000089500916602083011F00C94DE0E80E018
:101D100090E0A9E2B2E08D939C93A9E2B2E00D912C
:101D20001C91ACE2B2E04D915527040F151FA9E2BA
:101D3000B2E00D931C93A9E2B2E00D911C91ADE2CB
:101D4000B2E04D915527040F151FA9E2B2E00D93A3
:101D50001C93A9E2B2E00D911C91AEE2B2E04D916C
:101D60005527040F151FA9E2B2E00D931C93A9E2B9
:101D7000B2E00D911C91AFE2B2E04D915527040FF6
:101D8000151FA9E2B2E00D931C9300E010E0A9E258
:101D9000B2E04D915C91041B150BA9E2B2E00D93EA
:101DA0001C93A9E2B2E011968C91A0E3B2E08C936F
:101DB000A9E2B2E08C91A1E3B2E08C9300916602BB
:101DC0000A3011F00C94570F80E090E0A9E2B2E0E5
:101DD0008D939C93A9E2B2E00D911C91ACE2B2E02C
:101DE0004D915527040F151FA9E2B2E00D931C93E6
:101DF000A9E2B2E00D911C91ADE2B2E04D91552700
:101E0000040F151FA9E2B2E00D931C93A9E2B2E002
:101E10000D911C91AEE2B2E04D915527040F151FB4
:101E2000A9E2B2E00D931C93A9E2B2E00D911C91DE
:101E3000AFE2B2E04D915527040F151FA9E2B2E0C1
:101E40000D931C93A9E2B2E00D911C91A0E3B2E0C6
:101E50004D915527040F151FA9E2B2E00D931C9375
:101E6000A9E2B2E00D911C91A1E3B2E04D9155279A
:101E7000040F151FA9E2B2E00D931C9300E010E0DF
:101E8000A9E2B2E04D915C91041B150BA9E2B2E00E
:101E90000D931C93A9E2B2E011968C91A2E3B2E0FB
:101EA0008C93A9E2B2E08C91A3E3B2E08C93089505
:101EB0004F4B00436F6D616E646F206E6F207265D3
:101EC000636F6E6F6369646F004C6F6E67697475E2
:101ED0006420636F6D616E646F206E6F2076616C3D
:101EE000696461004E756D65726F2064652075735D
:101EF000756172696F206E6F2076616C69646F0026
:101F00004E756D65726F20646520706172616D65DC
:101F100074726F7320696E76616C69646F004572CC
:101F2000726F72206C6F6E67697475642070617275
:101F3000616D6574726F2031004572726F72206C32
:101F40006F6E676974756420706172616D6574721B
:101F50006F203200506172616D6574726F206E6F18
:101F60002076616C69646F004552524F52380045CB
:101F700052524F522053442E20496E74656E746540
:101F8000206465206E7565766F0000000000030018
:101F9000000033000000330300003333000033330C
:101FA0000300333333003333B3013333B3193333E3
:101FB0003333777777770C00FCFFCC00FCFFCC0C39
:101FC000FCFFCCCCFCFF0C00FCFFF0FFFFFF00008F
:101FD0000000010000000500000015000000550091
:101FE000000055010000550500005515000055552D
:101FF000000055550100777707000E949F02A8E670
:10200000B2E08C9187FB16F00C9417107091680267
:102010007F7770936802EAEDFBE20E946011AEEFF9
:10202000B5E00E945A110E9467110E946409A4E45D
:10203000B2E08C9181FB16F00C9425107091440253
:102040007D7F709344020E943509A4E4B2E08C9134
:1020500084FB16F00C944410709144027F7E7093C0
:102060004402E8EEFEE20E9460110E946711809136
:102070005002D2018C9381E00E94D8120E94E802A3
:10208000229681E00E94D412A4E4B2E08C9183FBFA
:1020900016F00C945D1070914402777F70934402A7
:1020A000E2EFFEE20E9460110E946711A2E5B2E039
:1020B000BA93AA930E9406032296A7E2B2E08C91FB
:1020C00085FB16F00C949010709127027F7D709321
:1020D0002702E0E0FFE20E9460110E946711E8E041
:1020E000FFE20E9460110E946711E8E0FFE20E9497
:1020F00060110E9467115B985C9880E0D2018C931C
:1021000081E00E94D8120E94E802229681E00E949B
:10211000D412289A5D9A84E690E00E9486115D9818
:10212000A7E2B2E08C9183FB16F00C94B61070918C
:102130002702777F70932702E2E1FFE20E9460119D
:10214000E4E2F2E0A0E8B7E00E9442130E945811D6
:10215000E4E9FBE20E946011E7E6F2E0A0E8B7E004
:102160000E9442130E9458110E946711A7E2B2E038
:102170008C9187FB16F00C94C410709127027F7726
:10218000709327020E947003A7E2B2E08C9186FB55
:1021900016F00C94D210709127027F7B7093270267
:1021A0000E94F5054A990C940911ECE1FFE20E94A6
:1021B00060110E946711709127027F7D7093270242
:1021C0005B985C9880E0D2018C9381E00E94D812E9
:1021D0000E94E802229681E00E94D412289A5D9A19
:1021E00084E690E00E9486115D98A6E2B2E08C91B0
:1021F0008F5F8C93A6E2B2E00C9100FB16F00C947A
:10220000061182E0809324020C94091181E08093EE
:1022100024020E94160E0C94FF0FED91FC91EF5FCB
:10222000FF4FFC93EE93089500FC10D0089503D067
:102230001ED001F8F9CF0024E89457FF02C009D05E
:10224000689400F80BD010F80124089502D009D04A
:102250000895509540954F5F5F4F0895E89417FF9C
:102260000895009510950F5F1F4F68940895352FBE
:10227000242FE894452B11F468940895512F402F92
:102280000027112780E1440F551F001F111F021B5B
:10229000130B416018F4020F131F4E7F8A9599F7B4
:1022A00008958F938D918823E9F711978F91089561
:1022B000A0E8B7E08D91882311F00CD0FBCF0895F2
:1022C0000E94E412802D11F005D0FACF08958DE020
:1022D00001D08AE00090C00005FEFCCF8093C600CC
:1022E00008958D9103D03A95E1F708950090C800C4
:1022F00005FEFCCF8093CE0008953197F1F7089545
:10230000689462F80895E89462F80895EF93FF9353
:10231000EE27E82BE92B31F0E0EAFFE03197F1F707
:102320000197D1F7FF91EF9108958DE207FD8D930D
:102330008F2D881F802F881F8F57082F6894F7F8DC
:10234000802F87FF15C080958395082F80E38D939C
:102350008EE28D93802F815228F080E38D93992710
:102360009C93089544270A95802F09F196D01FC0A9
:10237000805230F09EE49D9381E48D939D93EFCF46
:102380004427DF92EF92FF920F938FE1801B11F0B1
:10239000082F83D089D09EE29D930F91FF90EF90FC
:1023A000DF9044270395003209F4D7CF2BD03F9319
:1023B000EAE3F4E238E12F2D1E2D0D2DFF24EE244B
:1023C000DD244427000F111F221FA8F42F923F92F3
:1023D0000E94E412102C0E94E412202C0E94E412AD
:1023E000302C0E94E4123197410DD21CE31CF01CEA
:1023F0003F902F9001C0339631963A9519F73F914F
:1024000007D0AFCFDD0CEE1CFF1C0A95D9F708955D
:10241000002719E058D08F93802B11F0039501C04D
:102420008F911A95B9F7802F882309F496CF8F9151
:10243000805D8D930A95D9F792CF0065CD1D80B24E
:10244000E60E40597307A0ACB90350D6DC01286BE7
:10245000EE0094357700CA9A3B0065CD1D00B2E6C8
:102460000E0059730700ACB90300D6DC01006BEE17
:102470000000357700009A3B0000CD1D0000E60EFD
:10248000000073070000B9030000DC010000EE004B
:102490000000770000003B000000F694E794D7941A
:1024A00047950A95D1F7089500270DD08F9303958E
:1024B0008F2D8E298D29842BC1F78F91805D8D936F
:1024C0000A95D9F74CCF1F930F93002710E2440FC2
:1024D000DD1CEE1CFF1C001F802F9AE0890B10F002
:1024E000082F43951A9599F7802F0F911F91089502
:1024F0003C983D98449A459A089568944093BC004E
:102500008F939F9388279927019629F04091BC00CB
:1025100047FFFACFE8949F918F9162F8089544EABB
:10252000ECDF4091B900487F483019F0403109F0A4
:10253000689462F8089544E94093BC004091BC005F
:1025400044FDFCCF08951093BB0044E8D6DF8F9381
:102550009F9388279927019671F04091B900487F91
:10256000483FC9F3E894483139F0483229F0403403
:1025700019F0403509F068949F918F9162F80895A1
:1025800044E801C044ECB9DF1091BB004091B900B0
:10259000487F483FD9F308950191119121913081ED
:1025A0000895481A590A0895481A8827580A08951C
:1025B00099275A924A92480E591E08950E94E41291
:1025C0000D920020D9F70895C895319600200895FE
:1025D00091E005C092E003C094E001C098E0F4DF10
:1025E0000D929A95E1F70895880F991F880F991F0A
:1025F000E80FF91FF1CF0196019721F00E94E41234
:10260000E9F7FACF0895819104D08D938823D9F703
:102610000895813618F08B3708F48F7D089591E086
:10262000882321F08894991F8A95E9F7892F90953E
:102630000895883018F011968850FBCF0895040F44
:10264000151F261F371F0895000F111F221F331F4C
:10265000089500951095209530950F5F1F4F2F4FCF
:102660003F4F0895019110810FC00E94CC120EC0FF
:102670000E94CC1210C00191108117FF05C03FEFDE
:102680002FEF04C0008111272227332737FF03C013
:10269000E0DF8DE28D93CF92DF92EF92AA24BB24EC
:1026A000CC24DD24EE2440E2EAE0FF2755E093E36A
:1026B0008081890F87FD9F7083FD907F891B8193A7
:1026C0005A95A9F7C1DFAA1CBB1CCC1CDD1CEE1C53
:1026D0004A9551F7E894EFE0FF2782910BD0EB3059
:1026E000E0F71EF068948A2D09D04D93EF90DF90AB
:1026F000CF900895982F829501D0892F8F70805D9B
:1027000026F0803309F4089568948D930895002786
:102710001127222733271DD08A3328F4803318F05D
:1027200005D015D0F9CF0EF494CF089580538F9330
:10273000402F512F622F732F87DF86DF80DF84DFEA
:102740008F919927080F191F291F391F08958D91FF
:102750000895E894FCDF8032E9F38B32D9F38930B5
:10276000C9F38D3211F46894F2CF089541E003C0AB
:1027700042E001C044E0E40F8827F81F8291982FBF
:10278000829506D0892F04D04A95C1F70C94E613A0
:102790008F708A3008F0895F805D8D9308950027DF
:1027A0001127222733278D91882379F04DDF4CDFC5
:1027B0004BDF4ADF2EDF815408F4895F865F080F04
:1027C0008827181F281F381FEECF089588278D935C
:1027D000089581918D938823E1F7089594E0819184
:1027E0008D939A95E1F7089509919191992359F064
:1027F0008A95D9F73197002331F081918D930A950D
:102800008823C9F70895E2CFF999FECFE1BDF2BD63
:102810003196089591E001C092E07B3751F47FB783
:10282000F894F2DF8D9180BDFA9AF99A9A95C9F7DA
:102830007FBF7727089591E001C092E0E5DFF89A25
:1028400080B58D939A95D1F70895FF93881BF9E091
:10285000001FFA9511F4FF910895881F841B18F446
:10286000840F8894F5CF0894F3CF8FEF83959D91D3
:102870009923E1F70895689401C0E894AF93BF935A
:102880008D9116F0919103C00E94E412902D89174A
:1028900018F011F48823A1F7BF91AF9108956894BF
:1028A00001C0E8942227102F231709F4089526F475
:1028B0000E94E412802D01C08191803081F089173F
:1028C00041F070E08D931A9591F7239571E01D9377
:1028D000EACF01D0E8CF703011F077270895772341
:1028E00031F42395882713958D931A95E9F7089568
:1028F000B7FE089590E8B91611F4D0FE08959FEF41
:10290000D91AE90AF90A09F403950895D190E190DA
:10291000F190019108952191319141915191089542
:10292000502F2D2D3E2D4F2D612F0895652F90E8AE
:10293000440F551F5927990F47956078102F90E83D
:10294000FF0C001F0927990FF7941078003808959D
:10295000FF0C90E89027110F9795F794092F089591
:10296000102FBD2CDE2CEF2CF02E11234AF4B09446
:10297000D094E094F0949FEFB91AD90AE90AF90AC1
:102980000EE1FF2039F4FE2CED2CDB2CBB2408508B
:10299000C2F752C032F00A95BB0CDD1CEE1CFF1CC6
:1029A000F9CFA6DFD5CF2DEC3CEC4CEC5DE36627F0
:1029B0000FC0ACDFB5DFDD24EE2490E8F92E0FE385
:1029C00007C0A9DF05C02227332740E251E466276C
:1029D000552351F1002381F1A9DF71F11627005829
:1029E00050580894050B18F407FD03C025C007FDD7
:1029F00023C0469537952795F694E794D79425D02C
:102A0000FF202AF0DD0CEE1CFF1C015073F09D2D01
:102A1000969548F0DD203AF4EE202AF491E0D90EA4
:102A20009927E91EF91E94CF07C09FE7092FF92ABD
:102A30009FEFD92EE92E0895DD24EE24FF240027F0
:102A4000112708950FE79FEFF2CF9F929924AA24B0
:102A5000BB2488E1D216E306F40628F0D21AE30A72
:102A6000F40A089401C08894991CAA1CBB1CDD0CB4
:102A7000EE1CFF1C8A9571F7D92CEA2CFB2C9F9039
:102A8000089554DFD9F05038C9F016270058952F13
:102A900090580894091F12F418F40EC008F00EC0E4
:102AA0000FD0FF202AF0BB0CDD1CEE1CFF1C02C067
:102AB000039513F01DDF4CCF0C9415150C941C15C9
:102AC0009F92FF92EF928D2DFF24EE24DD24BB24F4
:102AD00093E0849F1001829FB00CD11CE21CF31C78
:102AE000839FD00CE11C2224F21C9A9531F0BD2C5E
:102AF000DE2CEF2CFF248F91ECCF9F9008950E9445
:102B0000E412202D0E94E412302D0E94E412402D88
:102B10000E94E412502D08950000F04100007F4310
:102B20002A2A2A2A2A2A2A2A2A2A2A2A20445249AE
:102B300056455220415544494F202A2A2A2A2A2AFA
:102B40002A2A2A2A2A2A000032342D30372D323000
:102B500032342031303A34383A343900302E312E84
:102B600031363600445256415544494F5F4D333259
:102B70003850422E4241530045737461646F3D00EA
:102B80007772206461632C200000244C4545493253
:102B9000432C00002C00494E4954455354004D6FBE
:102BA00064756C6F204F4E005344204F4B002444FB
:102BB00052564155442C320057616974203200004E
:102BC00046494E00566F6C3D0000546F6E6F2049B1
:102BD0006E666F20544553540000534552313D00FA
:102BE000524541442041444300005430434E545226
:102BF0003D0046696E20746F6E6F205465737400DB
:102C0000546F6E6F20544553540046494E2054452E
:102C1000535400004E4F2053440024445256415513
:102C2000442C34004D6F64756C6F204E4F205072F1
:102C30006573656E74650000414C45525441204EE9
:102C40004152414E4A410000244452564155442CC1
:102C50003300546F6E6F20496E666F20414C4152B5
:102C60004D41000046696E20746F6E6F20414C41EB
:102C7000524D4100546F6E6F20414C41524D410006
:102C8000436E74726D696E3D000046494E20414CA2
:102C900041524D410000244452564155442C3500C8
:102CA000436F6D616E646F2061204446506C6170AB
:102CB0007965723D00002C205041523D00003B00E0
:102CC000526573702E204446506C617965723A00EB
:102CD0004C4545564657000056657273696F6E2025
:102CE00046573A204665636861203C003E2C2041EF
:102CF00072636869766F203C00003E005345544C77
:102D000045440000536520636F6E666967757261A4
:102D1000207365746C65642061200000454E414954
:102D20004E310000536520686162696C69746F20E0
:102D3000494E31207920646573686162696C6974F9
:102D40006F20494E3200454E41494E3200005365D6
:102D500020686162696C69746F20494E3220792065
:102D6000646573686162696C69746F20494E3100F3
:102D7000444953494E3100005365206465736861CE
:102D800062696C69746F20494E31000044495349AF
:102D90004E320000536520646573686162696C6936
:102DA000746F20494E320000534554444650000091
:102DB00053455449324300002053616C69646120DB
:102DC000444143203D004C454549324300004C6599
:102DD00063747572612041444320000020454E20F9
:102DE00043414E414C200000534554535441000090
:102DF000536520636F6E66696775726F20657374C3
:102E000061646F20612000005345544D5033000031
:102E10004D6F64756C6F2020445850204F4E000059
:102E20005253544D503300004D6F64756C6F202029
:102E3000445850204F46460053455453454E0000D9
:102E400054657374204F6E64612035303020487AA9
:102E5000000052535453454E000052657365742070
:102E60004F6E64612035303020487A00445256411C
:102E700055440000536520636F6E66696775726F15
:102E80002065737461646F2044525641554420613B
:102E9000200020636F6E20564F4C3D005345544D2B
:102EA000494E0000536520636F6E66696775726FE7
:102EB00020636E74726D696E20004C45454D494E1D
:102EC0000000436E74726D696E20000053544154CB
:102ED00055533D0045737461646F206E6F206465C7
:102EE00066696E69646F0000575249544520444139
:102EF00043005245414420493243204144430000AD
:102F00004E4F524D414C0000244452564155442CE2
:102F10003100244452564155442C0000544553542A
:0E2F200020706F722069627574746F6E00000D
:00000001FF
