:100000000C94460018950000189500001895000003
:10001000189500001895000018950000189500002C
:100020001895000018950000189500000C94BA026D
:10003000189500001895000018950000189500000C
:1000400018950000189500000C94E2011895000026
:100050000C94AB001895000018950000189500004E
:1000600018950000189500001895000018950000DC
:100070000C94430118950000189500001895000095
:100080001895000018950000189500008FEF8DBF9F
:10009000C0E8E8E94E2E80E48EBFD0E4FFE35F2E97
:1000A000A89584B7082E882784BF88E19927809374
:1000B000600090936000EEEFFFE3A0E0B1E08827DE
:1000C0008D933197E9F78FE28093C40080E08093AD
:1000D000C50088E18093C10080E08093CD008FE26D
:1000E0008093CC0088E18093C9006624229A209AEC
:1000F000239A249A579A3C98449A3D98459A3E9858
:10010000469A25982D9A0E947E1685E085BD80E04E
:1001100084BD70916E00716070936E0085E085BD46
:1001200087E08093B10080E08093B0007091700010
:1001300071607093700087E08093B1007091C1008E
:1001400070687093C1007091C90070687093C900A5
:1001500078940C940D110F921F922F923F924F9210
:100160005F927F92AF92BF920F931F932F933F9313
:100170004F935F936F937F938F939F93AF93BF93AF
:10018000CF93DF93EF93FF938FB78F938BB78F93BB
:1001900088278BBFAEEFB5E08091C6008C9384E2D8
:1001A000482F0091FE05041711F00C94E2007091A5
:1001B0004502716070934502A5E3B5E088278C93F2
:1001C0000C9424010D3011F00C940C01A5E4B2E064
:1001D0008C9180FB16F00C940A01709145027E7F91
:1001E0007093450280E0A5E3B5E00E9467128D930D
:1001F00088278C93E5E3F5E0AFEFB5E00E94DB14D0
:100200007091690270687093690270916E007160FC
:1002100070936E000C9424010F3118F011F00C94BF
:1002200013010C942401A5E4B2E08C9180FB16F03C
:100230000C942401AEEFB5E08C91A5E3B5E00E94EB
:1002400067128D9388278C938F918BBF8F918FBF6F
:10025000FF91EF91DF91CF91BF91AF919F918F91DE
:100260007F916F915F914F913F912F911F910F91CE
:10027000BF90AF907F905F904F903F902F901F90D6
:100280000F90189508950F921F922F923F924F92C0
:100290005F927F92AF92BF920F931F932F933F93E2
:1002A0004F935F936F937F938F939F93AF93BF937E
:1002B000CF93DF93EF93FF938FB78F938BB78F938A
:1002C00088278BBFA4E5B2E08091CE008C9300918B
:1002D00054020E3711F00C9487017091450274603E
:1002E0007093450280E080935502A5E5B2E08C91C1
:1002F0008F5F8C9380915402A5E5B2E0AD90BB2452
:10030000A5E5B2E0AA0DBB1D8C930C94C4010F3E71
:1003100011F00C94A601A5E5B2E08C918F5F8C934F
:1003200080915402A5E5B2E0AD90BB24A5E5B2E012
:10033000AA0DBB1D8C9370914502726070934502AB
:1003400080915502809366020C94C401A5E4B2E04A
:100350008C9182FB16F00C94C401A5E5B2E08C915F
:100360008F5F8C9380915402A5E5B2E0AD90BB24E1
:10037000A5E5B2E0AA0DBB1D8C93A5E5B2E00C91FA
:1003800040E10E9417158C938F918BBF8F918FBF87
:10039000FF91EF91DF91CF91BF91AF919F918F919D
:1003A0007F916F915F914F913F912F911F910F918D
:1003B000BF90AF907F905F904F903F902F901F9095
:1003C0000F9018950F921F922F923F924F925F922B
:1003D0007F92AF92BF920F931F932F933F934F93B0
:1003E0005F936F937F938F939F93AF93BF93CF93BD
:1003F000DF93EF93FF938FB78F938BB78F938827FC
:100400008BBF78EB76BDA8E3B2E08C918F5F8C93C5
:10041000A8E3B2E00C9148E00E9417158C9300917C
:100420003802003011F00C945502A9E3B2E00C91AF
:1004300040E20E9417158C93EAEAF1E20E940B1445
:10044000AEE3B2E08C919927AAE3B2E00E94C61312
:1004500080913902AAE3B2E00E94FA130E94F013DD
:100460000C900822689409F4E894A8E2B2E08C9118
:1004700082F98C93A8E2B2E08C9182FB882780F904
:10048000809580FBA8E2B2E08C9182F98C93A8E27F
:10049000B2E08C9182FBA5E2B0E08C9182F98C9362
:1004A000A9E3B2E08C918F5F8C93A8E2B2E08C91CB
:1004B00081FB16F00C947702AFE3B2E00E942312A6
:1004C000A1E4B2E04D915C91AFE3B2E00D911C91DB
:1004D0000417150711F00C947702709128027160CF
:1004E00070932802709128027D7F70932802A5E402
:1004F000B2E08C9186FB16F00C949602A3E4B2E075
:100500000E942312A6E4B2E04D915C91A3E4B2E014
:100510000D911C910417150711F00C949402709121
:1005200045027068709345020C949C0280E090E054
:10053000A3E4B2E08D939C938F918BBF8F918FBF7B
:10054000FF91EF91DF91CF91BF91AF919F918F91EB
:100550007F916F915F914F913F912F911F910F91DB
:10056000BF90AF907F905F904F903F902F901F90E3
:100570000F9018950F921F922F923F924F925F9279
:100580007F92AF92BF920F931F932F933F934F93FE
:100590005F936F937F938F939F93AF93BF93CF930B
:1005A000DF93EF93FF938FB78F938BB78F9388274A
:1005B0008BBF78EB7093B200AAE4B2E08C918F5FAE
:1005C0008C93AAE4B2E00C9144E60E9417158C9338
:1005D00000914A02003011F00C942E03ABE4B2E01B
:1005E0000C9140E20E9417158C93EEEEF1E20E940E
:1005F0000B14A0E5B2E08C919927ACE4B2E00E9424
:10060000C61380914B02ACE4B2E00E94FA130E9440
:10061000F0130C900822689409F4E894A5E4B2E081
:100620008C9185F98C93A5E4B2E08C9185FB8827A9
:1006300080F9809580FBA5E4B2E08C9185F98C93DC
:10064000A5E4B2E08C9185FBABE2B0E08C9187F938
:100650008C93ABE4B2E08C918F5F8C938F918BBFC6
:100660008F918FBFFF91EF91DF91CF91BF91AF91AC
:100670009F918F917F916F915F914F913F912F91BA
:100680001F910F91BF90AF907F905F904F903F90E0
:100690002F901F900F901895289A2A982B982C9895
:1006A000E2EBFDE20E940B140E9476120E947D1282
:1006B000A0E8BFE3EAEDFDE20E940B140E94AA133A
:1006C0000E946E120E947D12A0E8BFE3EEEEFDE2F2
:1006D0000E940B140E94AA130E946E120E947D12A7
:1006E000A0E8BFE3E6EFFDE20E940B140E94AA130C
:1006F0000E946E120E947D128EE780932C028FEF73
:1007000080932D0281E080933E02E0E0F0E0A5E2DC
:10071000B2E00E940D1581E080932502E4E0FEE244
:100720000E940B140E947612E5E2F2E0A0E8BFE31B
:100730000E9434140E946E120E947D120895ECE013
:10074000FEE20E940B140E947612E881F981A0E873
:10075000BFE30E9434140E946E120E947D120E9418
:1007600083161CE90E949B1610E40E949B16A88128
:10077000B9811C910E949B160E949216089584E6EE
:1007800090E00E949C120E9483161CE90E949B1616
:10079000A881B9811C910E949B160E9483161DE9B5
:1007A0000E949B160E94BA16A2E5B2E01C930E941A
:1007B000B816A2E5B2E01C930E949216EAEAFDE2A6
:1007C0000E940B140E947116E2E5F2E0D080EE2444
:1007D000FF2400270E94A2150E943316EDE0F0E0EE
:1007E000A5E0B1E00E94E014EEEAFDE20E940B14E5
:1007F0000E947116E5E0F1E00E9478150E94DA157A
:10080000EDE0F0E0A5E0B1E00E94E014E5E0F1E009
:10081000A0E8BFE30E9478150E94AB120E946E12FE
:100820000E947D12E6E1FEE20E940B140E94761205
:10083000E881F981A0E8BFE30E9434140E946E129F
:10084000E0E2FEE20E940B140E947612E2E5F2E082
:10085000A0E8BFE30E9434140E946E120E947D1231
:100860000895E2E2FEE20E940B140E9476120E94BA
:100870007D1228982B9A88EC90E0A6E4B2E08D9344
:100880009C93709145027F777093450280E090E0E1
:10089000A3E4B2E08D939C937091450270647093D1
:1008A0004502A5E4B2E08C9181FB81E00EF080E08E
:1008B0008F93A5E4B2E08C9187FB81E00EF080E09D
:1008C0009F91892B882311F40C9451040E94080AEB
:1008D000709145027D7F70934502009159020F335C
:1008E00011F00C94BF06EAE2FEE20E940B140E9493
:1008F00076120E947D1200915C02023011F00C947D
:10090000A5068FEFD2018C9381E00E94A4130E9470
:100910009F03229681E00E94A013E4E3FEE20E947E
:100920000B140E9476120E947D12EAE3FEE20E94FE
:100930000B140E9476120E947D12EAE3FEE20E94EE
:100940000B140E9476120E947D12E4E4FEE20E94E3
:100950000B140E9476120E947D1288EC90E0D20166
:100960008D939C9382E00E94A4130E9446092296D4
:1009700082E00E94A013ECE4FEE20E940B140E94AD
:1009800076120E947D12E0E5FEE20E940B140E94A6
:100990007612E8E6F2E0A0E8BFE30E9434140E9479
:1009A0006E120E947D1286E0D2018C9381E00E943B
:1009B000A413A8E6B2E08C91D2018D9388278C9382
:1009C00082E00E94A4130E946909249683E00E9499
:1009D000A0138FE0D2018C9381E00E94A41386E0E3
:1009E00091E0D2018D939C9382E00E94A4130E9417
:1009F0006909249683E00E94A013E6E5FEE20E94C6
:100A00000B140E9476120E947D1280ED97E0A6E4FE
:100A1000B2E08D939C93709145027F77709345026D
:100A200080E090E0A3E4B2E08D939C937091450246
:100A30007064709345028091590280930901A9E680
:100A4000B2E08C9187FB16F00C9439057091690225
:100A50007F7770936902E6E6FEE20E940B140E9423
:100A60007612AFEFB5E00E9470120E947D120E94D4
:100A70003B0AA5E4B2E08C9183FB16F00C9454057C
:100A800070914502777F70934502ECE6FEE20E948A
:100A90000B140E9476120E947D12A3E5B2E0BA9375
:100AA000AA930E94BF032296A3E4B2E00D911C9189
:100AB00044E650E00E944D12AAE0B1E00D931C9371
:100AC000AAE0B1E00D911C91003050E0150711F043
:100AD0000C947A05E6E7FEE20E940B140E9476125F
:100AE000E3E4F2E0A0E8BFE30E9424140E946E1247
:100AF0000E947D12009109010D3381E009F080E030
:100B00008F93A5E4B2E08C9187FB81E00EF080E04A
:100B10009F91892B8F9300912502013081E009F08C
:100B200080E09F91892B882311F40C941B05EEE73C
:100B3000FEE20E940B140E9476120E947D120E9417
:100B4000080AECE8FEE20E940B140E9476120E9452
:100B50007D128FE0D2018C9381E00E94A41386E085
:100B600091E0D2018D939C9382E00E94A4130E9495
:100B70006909249683E00E94A01384E690E0D201E4
:100B80008D939C9382E00E94A4130E9446092296B2
:100B900082E00E94A0130E94080A88E0D2018C9390
:100BA00081E00E94A41380E090E0D2018D939C9399
:100BB00082E00E94A4130E946909249683E00E94A7
:100BC000A01388EB9BE0A6E4B2E08D939C93709118
:100BD00045027F777093450280E090E0A3E4B2E0A5
:100BE0008D939C9370914502706470934502A9E6C1
:100BF000B2E08C9187FB16F00C941106709169029B
:100C00007F7770936902E6E6FEE20E940B140E9471
:100C10007612AFEFB5E00E9470120E947D120E9422
:100C20003B0AA5E4B2E08C9181FB16F00C941F0600
:100C3000709145027D7F709345020E94080AA5E4E9
:100C4000B2E08C9183FB16F00C943A067091450249
:100C5000777F70934502ECE6FEE20E940B140E943F
:100C600076120E947D12A3E5B2E0BA93AA930E9485
:100C7000BF032296A3E4B2E00D911C9144E650E03C
:100C80000E944D12AAE0B1E00D931C93AAE0B1E0DE
:100C90000D911C91003050E0150711F00C94600686
:100CA000E6E7FEE20E940B140E947612E3E4F2E013
:100CB000A0E8BFE30E9424140E946E120E947D12DD
:100CC000A5E4B2E08C9187FB81E00EF080E08F9389
:100CD00000912502013081E009F080E09F91892B8D
:100CE000882311F40C94F705E6E9FEE20E940B1448
:100CF0000E9476120E947D128EE0D2018C9381E0D8
:100D00000E94A41380E090E0D2018D939C9382E036
:100D10000E94A4130E946909249683E00E94A013F4
:100D200084E690E0D2018D939C9382E00E94A4130C
:100D30000E944609229682E00E94A0130E94080A9F
:100D400081E0809325020C94BD06E0EAFEE20E9459
:100D50000B140E9476120E947D12E6EAFEE20E94C7
:100D60000B140E9476120E947D12E6EAFEE20E94B7
:100D70000B140E9476120E947D120C94DB06E0EBAD
:100D8000FEE20E940B140E9476120E947D122B98A4
:100D90002C9880E0D2018C9381E00E94A4130E94E1
:100DA0009F03229681E00E94A013289A7091280246
:100DB0007068709328020895E4ECFEE20E940B1420
:100DC0000E9476120E947D1228982B9A88EC90E05F
:100DD000A6E4B2E08D939C93709145027F77709367
:100DE000450280E090E0A3E4B2E08D939C93709183
:100DF0004502706470934502A5E4B2E08C9181FBDA
:100E000081E00EF080E08F93A5E4B2E08C9187FB47
:100E100081E00EF080E09F91892B882311F40C94DF
:100E2000FC060E94080A709145027D7F709345027E
:100E3000009159020F3311F00C941B09EAE2FEE213
:100E40000E940B140E9476120E947D1200915C0297
:100E5000023011F00C9401098FEFD2018C9381E0E4
:100E60000E94A4130E949F03229681E00E94A01377
:100E7000E4E3FEE20E940B140E9476120E947D12AF
:100E8000E4EDFEE20E940B140E9476120E947D1295
:100E9000E4EDFEE20E940B140E9476120E947D1285
:100EA0008FE0D2018C9381E00E94A41388E091E04E
:100EB000D2018D939C9382E00E94A4130E94690941
:100EC000249683E00E94A013EEEDFEE20E940B1434
:100ED0000E9476120E947D1280ED97E0A6E4B2E0B7
:100EE0008D939C93709145027F777093450280E0CB
:100EF00090E0A3E4B2E08D939C93709145027064FE
:100F0000709345028091590280930901A9E6B2E0ED
:100F10008C9187FB16F00C94A007709169027F7783
:100F200070936902E6E6FEE20E940B140E947612BC
:100F3000AFEFB5E00E9470120E947D120E943B0A42
:100F4000A3E4B2E00D911C9144E650E00E944D12E2
:100F5000AAE0B1E00D931C93AAE0B1E00D911C91C1
:100F6000003050E0150711F00C94C607E6E7FEE2EA
:100F70000E940B140E947612E3E4F2E0A0E8BFE3C3
:100F80000E9424140E946E120E947D120091090199
:100F90000D3381E009F080E08F93A5E4B2E08C91FD
:100FA00087FB81E00EF080E09F91892B8F93009169
:100FB0002502013081E009F080E09F91892B882390
:100FC00011F40C948207E0EFFEE20E940B140E94E1
:100FD00076120E947D120E94080AE0E0FFE20E9461
:100FE0000B140E9476120E947D128FE0D2018C9326
:100FF00081E00E94A41388E091E0D2018D939C933C
:1010000082E00E94A4130E946909249683E00E9452
:10101000A01384E690E0D2018D939C9382E00E941D
:10102000A4130E944609229682E00E94A0130E9407
:10103000080A88E0D2018C9381E00E94A41380E02A
:1010400090E0D2018D939C9382E00E94A4130E94B1
:101050006909249683E00E94A01380E0809329020E
:1010600080E797E1A6E4B2E08D939C9370914502EE
:101070007F777093450280E090E0A3E4B2E08D9327
:101080009C9370914502706470934502A9E2B2E0AE
:101090008C918F5F8C93A9E6B2E08C9187FB16F060
:1010A0000C946508709169027F7770936902E6E697
:1010B000FEE20E940B140E947612AFEFB5E00E9490
:1010C00070120E947D120E943B0AA5E4B2E08C914E
:1010D00081FB16F00C947308709145027D7F70932C
:1010E00045020E94080AA3E4B2E00D911C9144E677
:1010F00050E00E944D12AAE0B1E00D931C93AAE0CB
:10110000B1E00D911C91003050E0150711F00C94E6
:101110009908E6E7FEE20E940B140E947612E3E4CF
:10112000F2E0A0E8BFE30E9424140E946E120E9425
:101130007D12A5E4B2E08C9187FB81E00EF080E0A7
:101140008F9300912502013081E009F080E09F91AA
:10115000892B882311F40C944B08ECE0FFE20E94E9
:101160000B140E947612E9E2F2E0A0E8BFE30E94CD
:1011700034140E946E120E947D12009129020E31D9
:1011800081E009F080E08F9300912502013081E039
:1011900009F080E09F91892B882311F40C9430088A
:1011A000E6E1FFE20E940B140E9476120E947D127B
:1011B0008EE0D2018C9381E00E94A41380E090E045
:1011C000D2018D939C9382E00E94A4130E9469092E
:1011D000249683E00E94A01384E690E0D2018D93D0
:1011E0009C9382E00E94A4130E944609229682E00A
:1011F0000E94A0130E94080A81E0809325020C94AB
:101200001909E0EAFEE20E940B140E9476120E9485
:101210007D12E2E2FFE20E940B140E9476120E940D
:101220007D12E2E2FFE20E940B140E9476120E94FD
:101230007D120C944509E0EBFEE20E940B140E9423
:1012400076120E947D122B982C9880E0D2018C930C
:1012500081E00E94A4130E949F03229681E00E94D5
:10126000A013289A84E690E0D2018D939C9382E0AB
:101270000E94A4130E944609229682E00E94A013B5
:10128000709128027064709328020895A881B98132
:101290008D919C91A1E4B2E08D939C9380E090E0CD
:1012A000AFE3B2E08D939C93709128027E7F7093A0
:1012B000280270912802726070932802A8E2B2E0BE
:1012C0008C9180FB16F40C946809A8950C945E0927
:1012D0000895A5E1B1E0ECE2FFE20E940B140E9448
:1012E000AA13EA81FB81A5E1B1E00E9467120E9486
:1012F000A814A5E1B1E00E946712E2E4FFE20E94B7
:101300000B140E94AA13E881F981A5E1B1E00E94C3
:1013100067120E94AA1486E080932E02AA81BB81E4
:101320008C9180932F0281E080933002A5E1B1E09F
:101330000E9470120E947D12A881B98111968C9131
:10134000A3E0B1E08C93E3E0F1E0A0E8BFE30E940A
:10135000A8140E946E120E947D1280910301809356
:101360003102A881B9818C91A3E0B1E08C93E3E0D4
:10137000F1E0A0E8BFE30E94A8140E946E120E9450
:101380007D1280910301809332028FEE80933502AB
:101390008AE0809367020E94910F81E080930401AC
:1013A0004091670200910401041718F011F00C94A9
:1013B000050AE4E0F1E0A190BB24EBE2F2E0EA0DE3
:1013C000FB1DA0E8BFE30E94A8140E946E12EAE48D
:1013D000FFE20E940B140E947612A4E0B1E0AD90EF
:1013E000BB24ABE2B2E0AA0DBB1D8C91809300013F
:1013F00031E0A0E0B1E00E948712A4E0B1E08C915E
:101400008F5F8C9310F40C94D0090E947D12089584
:10141000ECE4FFE20E940B140E9476120E947D12FF
:1014200081E0809300014091660200910001041761
:1014300018F011F00C94380AE0E0F1E0A190BB2420
:10144000E5E5F2E0EA0DFB1DA0E8BFE30E94A81469
:101450000E946E12E0E2FEE20E940B140E947612DD
:10146000A0E0B1E08C918F5F8C9310F40C94130A80
:101470000E947D12089581E0EFEFF5E006E00A9307
:10148000A0EFB1E00E94E614EFEFF5E09CE204E18A
:1014900032E2ABE6B2E00E944315AAE6B2E02C933A
:1014A000ABE6B2E00E942715082F063011F00C942D
:1014B000010FEBE6F2E0AEE0B1E00E94DB14EEE0FB
:1014C000F1E0AEE0B1E00E94E4138FEF8093DE0123
:1014D000AEE0B1E0ECE5FFE20E940B140E942D1596
:1014E00011F00C94B40A80E08093DE01A5E1B1E034
:1014F000E4E6FFE20E940B140E94AA13A0EFB1E001
:10150000EAEDFDE20E940B140E94AA13E0EFF1E065
:10151000A5E1B1E00E9467120E94DB14A5E1B1E0F1
:101520000E946712E8E7FFE20E940B140E94AA13D0
:10153000A0EFB1E0E6EFFDE20E940B140E94AA13B7
:10154000E0EFF1E0A5E1B1E00E9467120E94DB1438
:10155000A5E1B1E00E946712E6E8FFE20E940B14E9
:101560000E94AA130C94FF0EE8E8FFE20E940B14FD
:101570000E942D1511F00C94F30A00916A020230BA
:1015800011F00C94EE0AA0E8B2E00E947914A0E0F9
:10159000B1E00C9300910001013110F00C94E90AC4
:1015A00080E08093DE01A5E1B1E0E0E9FFE20E9486
:1015B0000B140E94AA13E0E0F1E0A5E1B1E00E9463
:1015C00067120E9434148091000180933E020C94B3
:1015D000EC0A85E08093DE010C94F10A84E08093AC
:1015E000DE010C94FF0EE8EAFFE20E940B140E9459
:1015F0002D1511F00C94160B00916A02013011F0B8
:101600000C94110B80E08093DE012B9A2C98A5E1BD
:10161000B1E0E0EBFFE20E940B140E94AA130C94CD
:10162000140B84E08093DE010C94FF0EE2EDFFE2E8
:101630000E940B140E942D1511F00C94390B00918F
:101640006A02013011F00C94340B80E08093DE01CB
:101650002C9A2B98A5E1B1E0EAEDFFE20E940B1471
:101660000E94AA130C94370B84E08093DE010C9443
:10167000FF0EECEFFFE20E940B140E942D1511F0FB
:101680000C945B0B00916A02013011F00C94560B24
:1016900080E08093DE012B98A5E1B1E0E4E0F0E387
:1016A0000E940B140E94AA130C94590B84E080939F
:1016B000DE010C94FF0EE8E1F0E30E940B140E949F
:1016C0002D1511F00C947D0B00916A02013011F080
:1016D0000C94780B80E08093DE012C98A5E1B1E0BA
:1016E000E0E2F0E30E940B140E94AA130C947B0B1F
:1016F00084E08093DE010C94FF0EE4E3F0E30E94AB
:101700000B140E942D1511F00C94AD0C00916A027F
:10171000023011F00C94F20B80E08093DE01A0E81F
:10172000B2E00E94C114A2E0B1E00C93A5E1B1E0E7
:10173000ECE2FFE20E940B140E94AA13E0E8F2E040
:10174000A5E1B1E00E9467120E94DB1484E080935F
:101750002E028091020180932F0280E0809330025C
:101760008FEE8093330288E0809367020E94910F8E
:1017700081E0809304014091670200910401041705
:1017800018F011F00C94F00BE4E0F1E0A190BB2410
:10179000EBE2F2E0EA0DFB1DA0E8BFE30E94A81413
:1017A0000E946E12EAE4FFE20E940B140E9476127D
:1017B000A4E0B1E0AD90BB24ABE2B2E0AA0DBB1D4A
:1017C0008C918093000131E0A0E0B1E00E9487128B
:1017D000A4E0B1E08C918F5F8C9310F40C94BB0B60
:1017E0000E947D1200916A02033011F00C94AB0C40
:1017F00080E08093DE01A0E8B2E00E94C114A2E084
:10180000B1E00C93A5E9B2E00E94C114AAE0B1E0F6
:101810000D931C93A5E1B1E0ECE2FFE20E940B14F2
:101820000E94AA13E0E8F2E0A5E1B1E00E9467128D
:101830000E94DB14A5E1B1E00E946712E2E4FFE23E
:101840000E940B140E94AA13E5E9F2E0A5E1B1E0C1
:101850000E9467120E94DB1486E080932E02809122
:10186000020180932F0281E080933002EAE0F1E0F0
:10187000A0E8BFE30E94AA140E946E120E947D128B
:10188000AAE0B1E011968C91A3E0B1E08C93E3E083
:10189000F1E0A0E8BFE30E94A8140E946E120E942B
:1018A0007D128091030180933102AAE0B1E08C9116
:1018B000A3E0B1E08C93E3E0F1E0A0E8BFE30E9495
:1018C000A8140E946E120E947D12809103018093E1
:1018D00032028FEE809335028AE0809367020E9485
:1018E000910F81E08093040140916702009104010F
:1018F000041718F011F00C94A90CE4E0F1E0A190A9
:10190000BB24EBE2F2E0EA0DFB1DA0E8BFE30E947E
:10191000A8140E946E12EAE4FFE20E940B140E94D7
:101920007612A4E0B1E0AD90BB24ABE2B2E0AA0D28
:10193000BB1D8C918093000131E0A0E0B1E00E94DA
:101940008712A4E0B1E08C918F5F8C9310F40C941B
:10195000740C0E947D120C94FF0EECE3F0E30E94E5
:101960000B140E942D1511F00C94E20C00916A02E8
:10197000023011F00C94DD0C80E08093DE01A0E8D1
:10198000B2E00E94C114A1E5B2E00C93A5E1B1E080
:10199000E4E4F0E30E940B140E94AA13E1E5F2E0F4
:1019A000A5E1B1E00E9467120E94A814709145025F
:1019B0007061709345020C94E00C84E08093DE012A
:1019C0000C94FF0EE2E5F0E30E940B140E942D152B
:1019D00011F00C94260D00916A02023011F00C9463
:1019E000210DA0E8B2E00E947914A0E0B1E00C93D0
:1019F00000910001043010F00C941C0D7091450210
:101A000078607093450280E08093DE018091000150
:101A100080935302A5E1B1E0EAE5F0E30E940B14E4
:101A20000E94AA13E3E5F2E0A5E1B1E00E9467128B
:101A30000E9434140C941F0D85E08093DE010C94F9
:101A4000240D84E08093DE010C94FF0EE8E6F0E3C1
:101A50000E940B140E942D1511F00C947A0D009128
:101A60006A02023011F00C94750D80E08093DE0163
:101A7000A0E8B2E00E947914A0E0B1E00C930091DC
:101A80000001043081E008F080E08F9300910001B4
:101A9000003080E010F009F081E09F9189238823D5
:101AA00011F40C94700D8091000180932502E0E008
:101AB000F0E0A0E0B1E07BE70E94FC14A5E1B1E01A
:101AC000E0E7F0E30E940B140E94AA13E5E2F2E0C3
:101AD000A5E1B1E00E9467120E9434140C94730DCA
:101AE00085E08093DE010C94780D84E08093DE0124
:101AF0000C94FF0EE8E8F0E30E940B140E942D15F1
:101B000011F00C94910D80E08093DE01A5E1B1E02D
:101B1000E0E9F0E30E940B140E94AA1328980C94A9
:101B2000FF0EE0EAF0E30E940B140E942D1511F065
:101B30000C94A80D80E08093DE01A5E1B1E0E8EA15
:101B4000F0E30E940B140E94AA13289A0C94FF0E33
:101B5000E8EBF0E30E940B140E942D1511F00C9499
:101B6000C30D80E08093DE01A5E1B1E0E0ECF0E39D
:101B70000E940B140E94AA13709128027061709346
:101B800028020C94FF0EE2EDF0E30E940B140E9479
:101B90002D1511F00C94DE0D80E08093DE01A5E19F
:101BA000B1E0EAEDF0E30E940B140E94AA137091D9
:101BB00028027F7E709328020C94FF0EECEEF0E377
:101BC0000E940B140E942D1511F00C94AE0E009182
:101BD0006A02023011F00C94470E80E08093DE011F
:101BE000A0E8B2E00E947914A0E0B1E00C9384E197
:101BF0008093680200910001043081E008F080E0E9
:101C00008F9300910001003080E010F009F081E036
:101C10009F918923882311F40C94420E8091000136
:101C200080932502E0E0F0E0A0E0B1E07BE70E94D5
:101C3000FC14A5E1B1E0E4EFF0E30E940B140E9474
:101C4000AA13E5E2F2E0A5E1B1E00E9467120E946A
:101C50003414A5E1B1E00E946712E2E1F1E30E94D1
:101C60000B140E94AA13E8E6F2E0A5E1B1E00E949D
:101C700067120E94341470912802786070932802D1
:101C80000C94450E85E08093DE010C94AC0E03307D
:101C900011F00C94A90E80E08093DE01A0E8B2E080
:101CA0000E947914A0E0B1E00C93A5E9B2E00E9493
:101CB0007914A8E6B2E00C9300910001043081E0B1
:101CC00008F080E08F9300910001003080E010F078
:101CD00009F081E09F918923882311F40C94A40ECC
:101CE0008091000180932502E0E0F0E0A0E0B1E007
:101CF0007BE70E94FC14A5E1B1E0E4EFF0E30E9471
:101D00000B140E94AA13E5E2F2E0A5E1B1E00E9403
:101D100067120E943414A5E1B1E00E946712E2E16B
:101D2000F1E30E940B140E94AA13E8E6F2E0A5E199
:101D3000B1E00E9467120E9434147091280278600A
:101D4000709328020C94A70E85E08093DE010C941A
:101D5000AC0E84E08093DE010C94FF0EECE1F1E325
:101D60000E940B140E942D1511F00C94DE0E0091B0
:101D70006A02023011F00C94D90E80E08093DE01EB
:101D8000A0E8B2E00E947914A9E2B2E00C93A5E1C8
:101D9000B1E0E4E2F1E30E940B140E94AA13E9E22D
:101DA000F2E0A5E1B1E00E9467120E9434140C94A5
:101DB000DC0E84E08093DE010C94FF0EEAE3F1E395
:101DC0000E940B140E942D1511F00C94FC0E80E063
:101DD0008093DE01A5E1B1E0E2E4F1E30E940B149F
:101DE0000E94AA13E9E2F2E0A5E1B1E00E946712C5
:101DF0000E9434140C94FF0E81E08093DE010C9459
:101E0000040F82E08093DE010091DE01003018F0C3
:101E100011F00C940D0F0C941B0FE0EDF0E20E94FA
:101E20000B14AEEDB1E08C9199270E94DC13A5E173
:101E3000B1E00E94AA13A5E1B1E00E9470120E94D5
:101E40007D1208954091260200912502041711F495
:101E50000C94900FECE4F1E30E940B140E947612B4
:101E6000E5E2F2E0A0E8BFE30E9434140E946E12A3
:101E70000E947D1280912502809326020091250206
:101E8000013011F00C94580F81E080933E02709164
:101E900028027F7770932802709128027F7B7093CD
:101EA0002802709128027062709328020C94900F9F
:101EB000023011F00C94700F82E080933E0270911A
:101EC0002802706870932802709128027F7B7093BB
:101ED0002802709128027F7D709328020C94900F45
:101EE000033011F00C94880F83E080933E027091D0
:101EF00028027F7770932802709128027064709393
:101F00002802709128027F7D709328020C94900F14
:101F1000E4E5F1E30E940B140E9476120E947D1208
:101F2000089500916702083011F00C94EE0F80E0E4
:101F300090E0AAE2B2E08D939C93AAE2B2E00D9108
:101F40001C91ADE2B2E04D915527040F151FAAE296
:101F5000B2E00D931C93AAE2B2E00D911C91AEE2A7
:101F6000B2E04D915527040F151FAAE2B2E00D9380
:101F70001C93AAE2B2E00D911C91AFE2B2E04D9148
:101F80005527040F151FAAE2B2E00D931C93AAE295
:101F9000B2E00D911C91A0E3B2E04D915527040FE2
:101FA000151FAAE2B2E00D931C9300E010E0AAE234
:101FB000B2E04D915C91041B150BAAE2B2E00D93C7
:101FC0001C93AAE2B2E011968C91A1E3B2E08C934B
:101FD000AAE2B2E08C91A2E3B2E08C930091670296
:101FE0000A3011F00C94671080E090E0AAE2B2E0B1
:101FF0008D939C93AAE2B2E00D911C91ADE2B2E008
:102000004D915527040F151FAAE2B2E00D931C93C2
:10201000AAE2B2E00D911C91AEE2B2E04D915527DB
:10202000040F151FAAE2B2E00D931C93AAE2B2E0DE
:102030000D911C91AFE2B2E04D915527040F151F91
:10204000AAE2B2E00D931C93AAE2B2E00D911C91BA
:10205000A0E3B2E04D915527040F151FAAE2B2E0AC
:102060000D931C93AAE2B2E00D911C91A1E3B2E0A2
:102070004D915527040F151FAAE2B2E00D931C9352
:10208000AAE2B2E00D911C91A2E3B2E04D91552776
:10209000040F151FAAE2B2E00D931C9300E010E0BC
:1020A000AAE2B2E04D915C91041B150BAAE2B2E0EA
:1020B0000D931C93AAE2B2E011968C91A3E3B2E0D7
:1020C0008C93AAE2B2E08C91A4E3B2E08C930895E1
:1020D0004F4B00436F6D616E646F206E6F207265B1
:1020E000636F6E6F6369646F004C6F6E67697475C0
:1020F0006420636F6D616E646F206E6F2076616C1B
:10210000696461004E756D65726F2064652075733A
:10211000756172696F206E6F2076616C69646F0003
:102120004E756D65726F20646520706172616D65BA
:1021300074726F7320696E76616C69646F004572AA
:10214000726F72206C6F6E67697475642070617253
:10215000616D6574726F2031004572726F72206C10
:102160006F6E676974756420706172616D657472F9
:102170006F203200506172616D6574726F206E6FF6
:102180002076616C69646F004552524F52380045A9
:1021900052524F522053442E20496E74656E74651E
:1021A000206465206E7565766F00000000000300F6
:1021B00000003300000033030000333300003333EA
:1021C0000300333333003333B3013333B3193333C1
:1021D0003333777777770C00FCFFCC00FCFFCC0C17
:1021E000FCFFCCCCFCFF0C00FCFFF0FFFFFF00006D
:1021F000000001000000050000001500000055006F
:10220000000055010000550500005515000055550A
:10221000000055550100777707000E944C03A9E69E
:10222000B2E08C9187FB16F00C9429117091690231
:102230007F7770936902E6E6FEE20E940B140E942B
:102240007612AFEFB5E00E9470120E947D120E94DC
:102250003B0AA5E4B2E08C9181FB16F00C94371197
:10226000709145027D7F709345020E94080AA5E4A3
:10227000B2E08C9184FB16F00C94581170914502D9
:102280007F7E70934502E8E6F1E30E940B140E9402
:1022900076120E947D1280915102D2018C9381E0CE
:1022A0000E94A4130E949F03229681E00E94A01323
:1022B000A5E4B2E08C9183FB16F00C94731170913D
:1022C0004502777F70934502E2E7F1E30E940B1429
:1022D0000E9476120E947D12A3E5B2E0BA93AA93FF
:1022E0000E94BF032296A8E2B2E08C9185FB16F013
:1022F0000C94A611709128027F7D70932802E0E86B
:10230000F1E30E940B140E9476120E947D12E8E80D
:10231000F1E30E940B140E9476120E947D12E8E8FD
:10232000F1E30E940B140E9476120E947D122B98FA
:102330002C9880E0D2018C9381E00E94A4130E942B
:102340009F03229681E00E94A013289AA8E2B2E09F
:102350008C9183FB16F00C94D01170912802777F3A
:1023600070932802E2E9F1E30E940B140E947612B6
:10237000E5E2F2E0A0E8BFE30E9434140E946E128E
:10238000E0E2FEE20E940B140E947612E8E6F2E020
:10239000A0E8BFE30E9434140E946E120E947D12D6
:1023A000A8E2B2E08C9187FB16F00C94DE117091DC
:1023B00028027F77709328020E943104A8E2B2E0DD
:1023C0008C9186FB16F00C94EC11709128027F7BA7
:1023D000709328020E94DC061D990C941F12ECE9F0
:1023E000F1E30E940B140E9476120E947D127091FC
:1023F00028027F7D709328022B982C9880E0D201D0
:102400008C9381E00E94A4130E949F03229681E096
:102410000E94A013289AA7E2B2E08C918F5F8C9360
:10242000A7E2B2E00C9100FB16F00C941C1282E0C3
:10243000809325020C941F1281E0809325020E9454
:10244000220F0C940F11ED91FC91EF5FFF4FFC9365
:10245000EE93089500FC10D0089503D01ED001F82B
:10246000F9CF0024E89457FF02C009D0689400F81F
:102470000BD010F80124089502D009D0089550958A
:1024800040954F5F5F4F0895E89417FF08950095BA
:1024900010950F5F1F4F68940895352F242FE894EF
:1024A000452B11F468940895512F402F00271127D0
:1024B00080E1440F551F001F111F021B130B4160C9
:1024C00018F4020F131F4E7F8A9599F708958F9382
:1024D0008D918823E9F711978F910895A0E8BFE3C4
:1024E0008D91882311F00CD0FBCF08950E94B0137A
:1024F000802D11F005D0FACF08958DE001D08AE04B
:102500000090C00005FEFCCF8093C60008958D9119
:1025100003D03A95E1F708950090C80005FEFCCF7E
:102520008093CE0008953197F1F70895689462F88A
:102530000895E89462F80895EF93FF93EE27E82B4F
:10254000E92B31F0E3E3F7E03197F1F70197D1F7A9
:10255000FF91EF9108958DE207FD8D938F2D881FD8
:10256000802F881F8F57082F6894F7F8802F87FFD8
:1025700017C080958395082F80E38D938EE28D930D
:10258000802F815238F080E38D9399279C930E948D
:102590000014089544270A95802F09F19ED01FC08A
:1025A000805230F09EE49D9381E48D939D93EDCF16
:1025B0004427DF92EF92FF920F938FE1801B11F07F
:1025C000082F8BD091D09EE29D930F91FF90EF90BA
:1025D000DF9044270395003209F4D5CF33D03F93E1
:1025E000EAE7F6E20E940B1438E12F2D1E2D0D2D87
:1025F000FF24EE24DD244427000F111F221FB8F40E
:102600002F923F920E94B013102C0E94B013202CE6
:102610000E94B013302C0E94B01331970E94D51342
:10262000410DD21CE31CF01C3F902F9003C0339649
:102630000E94CE1331960E94CE133A95E9F63F914F
:1026400007D0A5CFDD0CEE1CFF1C0A95D9F7089525
:10265000002719E058D08F93802B11F0039501C00B
:102660008F911A95B9F7802F882309F48CCF8F9119
:10267000805D8D930A95D9F788CF0065CD1D80B216
:10268000E60E40597307A0ACB90350D6DC01286BA5
:10269000EE0094357700CA9A3B0065CD1D00B2E686
:1026A0000E0059730700ACB90300D6DC01006BEED5
:1026B0000000357700009A3B0000CD1D0000E60EBB
:1026C000000073070000B9030000DC010000EE0009
:1026D0000000770000003B000000F694E794D794D8
:1026E00047950A95D1F7089500270DD08F9303954C
:1026F0008F2D8E298D29842BC1F78F91805D8D932D
:102700000A95D9F742CF1F930F93002710E2440F89
:10271000DD1CEE1CFF1C001F802F9AE0890B10F0BF
:10272000082F43951A9599F7802F0F911F910895BF
:1027300001911191219130810895481A590A089503
:10274000481A8827580A089599275A924A92480E9B
:10275000591E08950E94B0130D920020D9F70895D4
:10276000D895319628F48F938BB783958BBF8F9133
:102770000020089591E005C092E003C094E001C0FC
:1027800098E0EEDF0D929A95E1F70895880F991F72
:10279000880F991FE80FF91F01D0F0CF28F48F930D
:1027A0008BB783958BBF8F91089528F48F938BB748
:1027B0008A958BBF8F9108950196019721F00E9411
:1027C000B013E9F7FACF0895819104D08D9388234F
:1027D000D9F70895813618F08B3708F48F7D089566
:1027E00091E0882321F08894991F8A95E9F7892F31
:1027F00090950895883018F011968850FBCF089571
:102800000F9200240BBE0F9008950F9301E00BBFB1
:102810000F91889408950F930027F9CF0F9302E04A
:10282000F6CF040F151F261F371F0895000F111F25
:10283000221F331F089500951095209530950F5F46
:102840001F4F2F4F3F4F0895019110810FC00E94DD
:1028500098130EC00E94981310C00191108117FFA9
:1028600005C03FEF2FEF04C0008111272227332737
:1028700037FF03C0E0DF8DE28D93CF92DF92EF92BE
:10288000AA24BB24CC24DD24EE2440E2EAE0FF2786
:1028900055E093E38081890F87FD9F7083FD907FD2
:1028A000891B81935A95A9F7C1DFAA1CBB1CCC1CBC
:1028B000DD1CEE1C4A9551F7E894EFE0FF2782916A
:1028C0000BD0EB30E0F71EF068948A2D09D04D93C1
:1028D000EF90DF90CF900895982F829501D0892FA7
:1028E0008F70805D26F0803309F4089568948D938D
:1028F000089500271127222733271DD08A3328F473
:10290000803318F005D015D0F9CF0EF494CF089588
:1029100080538F93402F512F622F732F87DF86DFD5
:1029200080DF84DF8F919927080F191F291F391F16
:1029300008958D910895E894FCDF8032E9F38B329D
:10294000D9F38930C9F38D3211F46894F2CF089528
:1029500041E003C042E001C044E0E40F8827F81FD3
:102960008291982F829506D0892F04D04A95C1F77D
:102970000C94D8148F708A3008F0895F805D8D9335
:10298000089500271127222733278D91882379F076
:102990004DDF4CDF4BDF4ADF1DDF815408F4895FD8
:1029A000865F080F8827181F281F381FEECF08954D
:1029B00088278D93089581918D938823E1F7089559
:1029C00094E081918D939A95E1F708950991919101
:1029D000992359F08A95D9F73197002331F08191E5
:1029E0008D930A958823C9F70895E2CFF999FECF10
:1029F000E1BDF2BD3196089591E001C092E07B37D0
:102A000051F47FB7F894F2DF8D9180BDFA9AF99A6C
:102A10009A95C9F77FBF7727089591E001C092E0AA
:102A2000E5DFF89A80B58D939A95D1F70895FF93D5
:102A3000881BF9E0001FFA9511F4FF910895881F93
:102A4000841B18F4840F8894F5CF0894F3CF8FEF8C
:102A500083959D919923E1F70895689401C0E894C6
:102A6000AF93BF938D9116F0919103C00E94B01364
:102A7000902D891718F011F48823A1F7BF91AF9119
:102A80000895689401C0E8942227102F231709F4B1
:102A9000089526F40E94B013802D01C081918030EA
:102AA00081F0891741F070E08D931A9591F7239585
:102AB00071E01D93EACF01D0E8CF703011F0772795
:102AC0000895772331F42395882713958D931A95CC
:102AD000E9F70895B7FE089590E8B91611F4D0FE0D
:102AE00008959FEFD91AE90AF90A09F403950895A0
:102AF000D190E190F190019108952191319141910E
:102B000051910895502F2D2D3E2D4F2D612F089559
:102B1000652F90E8440F551F5927990F4795607806
:102B2000102F90E8FF0C001F0927990FF7941078D9
:102B300000380895FF0C90E89027110F9795F794AF
:102B4000092F0895102FBD2CDE2CEF2CF02E112311
:102B50004AF4B094D094E094F0949FEFB91AD90A53
:102B6000E90AF90A0EE1FF2039F4FE2CED2CDB2CEA
:102B7000BB240850C2F752C032F00A95BB0CDD1CD2
:102B8000EE1CFF1CF9CFA6DFD5CF2DEC3CEC4CECB6
:102B90005DE366270FC0ACDFB5DFDD24EE2490E8EF
:102BA000F92E0FE307C0A9DF05C02227332740E233
:102BB00051E46627552351F1002381F1A9DF71F11A
:102BC0001627005850580894050B18F407FD03C049
:102BD00025C007FD23C0469537952795F694E794C1
:102BE000D79425D0FF202AF0DD0CEE1CFF1C0150ED
:102BF00073F09D2D969548F0DD203AF4EE202AF4EE
:102C000091E0D90E9927E91EF91E94CF07C09FE7DE
:102C1000092FF92A9FEFD92EE92E0895DD24EE24FD
:102C2000FF240027112708950FE79FEFF2CF9F920F
:102C30009924AA24BB2488E1D216E306F40628F0DE
:102C4000D21AE30AF40A089401C08894991CAA1CB9
:102C5000BB1CDD0CEE1CFF1C8A9571F7D92CEA2CED
:102C6000FB2C9F90089554DFD9F05038C9F01627F7
:102C70000058952F90580894091F12F418F40EC0AC
:102C800008F00EC00FD0FF202AF0BB0CDD1CEE1C9C
:102C9000FF1C02C0039513F01DDF4CCF0C940716E8
:102CA0000C940E169F92FF92EF928D2DFF24EE242E
:102CB000DD24BB2493E0849F1001829FB00CD11CC3
:102CC000E21CF31C839FD00CE11C2224F21C9A9579
:102CD00031F0BD2CDE2CEF2CFF248F91ECCF9F9098
:102CE00008950E94B013202D0E94B013302D0E9431
:102CF000B013402D0E94B013502D08953898399884
:102D0000409841980895399A389803D0399801D05D
:102D1000389AEF93FF93E5E0F0E00E949312FF9161
:102D2000EF910895399A389AF4DF3998319BFECFA4
:102D3000F0DF3898EECF0894111F01C0110F69F031
:102D4000399A18F40000389802C0389A00C0E1DFC0
:102D50003998319BFECFDDDFF1CF399A3898D9DF32
:102D60003998319BFECFE8943099689462F8D1CFBE
:102D7000089401C08894331F11E0399A3898C9DF4C
:102D80003998319BFECFC5DF889430990894111F84
:102D9000A0F7399A379510F4389801C0389AB9DFFE
:102DA0003998319BFECFB5DF08950000F041000057
:102DB0007F432A2A2A2A2A2A2A2A2A2A2A2A2044F5
:102DC000524956455220415544494F202A2A2A2A21
:102DD0002A2A2A2A2A2A2A2A000031312D30362D81
:102DE000323032342031303A35343A303800302EF7
:102DF000312E31353400445256415544494F2E420C
:102E00004153000045737461646F3D007772206424
:102E100061632C200000244C45454932432C0000BE
:102E20002C00494E4954455354004D6F64756C6FE6
:102E3000204F4E005344204F4B00244452564155DE
:102E4000442C3200576169742032000046494E001C
:102E5000566F6C3D0000546F6E6F20496E666F2098
:102E6000544553540000534552313D0052454144AE
:102E70002041444300005430434E54523D004669C3
:102E80006E20746F6E6F205465737400546F6E6F94
:102E900020544553540046494E2054455354000095
:102EA0004E4F20534400244452564155442C340084
:102EB0004D6F64756C6F204E4F2050726573656E58
:102EC00074650000414C45525441204E4152414EE0
:102ED0004A410000244452564155442C3300546F5B
:102EE0006E6F20496E666F20414C41524D4100008B
:102EF00046696E20746F6E6F20414C41524D410007
:102F0000546F6E6F20414C41524D4100436E7472BC
:102F10006D696E3D000046494E20414C41524D4185
:102F20000000244452564155442C3500436F6D61D6
:102F30006E646F2061204446506C61707965723D0B
:102F400000002C205041523D00003B005265737040
:102F50002E204446506C617965723A004C454556C6
:102F60004657000056657273696F6E2046573A20C7
:102F70004665636861203C003E2C204172636869AD
:102F8000766F203C00003E005345544C4544000001
:102F9000536520636F6E666967757261207365742F
:102FA0006C65642061200000454E41494E310000AF
:102FB000536520686162696C69746F20494E3120E5
:102FC0007920646573686162696C69746F20494E29
:102FD0003200454E41494E3200005365206861621F
:102FE000696C69746F20494E32207920646573687A
:102FF0006162696C69746F20494E310044495349DC
:103000004E310000536520646573686162696C69C4
:10301000746F20494E310000444953494E3200003C
:10302000536520646573686162696C69746F2049D7
:103030004E32000053455444465000005345544915
:10304000324300002053616C696461204441432095
:103050003D004C454549324300004C656374757230
:103060006120414443200000534554535441000023
:10307000536520636F6E66696775726F2065737440
:1030800061646F20612000005345544D50330000AF
:103090004D6F64756C6F2020445850204F4E0000D7
:1030A0005253544D503300004D6F64756C6F2020A7
:1030B000445850204F46460053455453454E000057
:1030C00054657374204F6E64612035303020487A27
:1030D000000052535453454E0000526573657420EE
:1030E0004F6E64612035303020487A00445256419A
:1030F00055440000536520636F6E66696775726F93
:103100002065737461646F204452564155442061B8
:10311000200020636F6E20564F4C3D005345544DA8
:10312000494E0000536520636F6E66696775726F64
:1031300020636E74726D696E20004C45454D494E9A
:103140000000436E74726D696E2000005354415448
:1031500055533D0045737461646F206E6F20646544
:1031600066696E69646F00005752495445204441B6
:10317000430052454144204932432041444300002A
:103180004E4F524D414C0000244452564155442C60
:103190003100244452564155442C000054455354A8
:0E31A00020706F722069627574746F6E00008B
:00000001FF
