:100000000C94460018950000189500001895000003
:10001000189500001895000018950000189500002C
:100020001895000018950000189500000C94BA026D
:10003000189500001895000018950000189500000C
:1000400018950000189500000C94E2011895000026
:100050000C94AB001895000018950000189500004E
:1000600018950000189500001895000018950000DC
:100070000C94430118950000189500001895000095
:100080001895000018950000189500008FEF8DBF9F
:10009000C0E8E8E94E2E80E48EBFD0E4FFE35F2E97
:1000A000A89584B7082E882784BF88E19927809374
:1000B000600090936000EEEFFFE3A0E0B1E08827DE
:1000C0008D933197E9F78FE28093C40080E08093AD
:1000D000C50088E18093C10080E08093CD008FE26D
:1000E0008093CC0088E18093C9006624229A209AEC
:1000F000239A249A579A3C98449A3D98459A3E9858
:10010000469A25982D9A0E94731685E085BD80E059
:1001100084BD70916E00716070936E0085E085BD46
:1001200087E08093B10080E08093B0007091700010
:1001300071607093700087E08093B1007091C1008E
:1001400070687093C1007091C90070687093C900A5
:1001500078940C94460C0F921F922F923F924F92DC
:100160005F927F92AF92BF920F931F932F933F9313
:100170004F935F936F937F938F939F93AF93BF93AF
:10018000CF93DF93EF93FF938FB78F938BB78F93BB
:1001900088278BBFADEFB5E08091C6008C9384E2D9
:1001A000482F0091FD05041711F00C94E2007091A6
:1001B0004502726070934502A4E3B5E088278C93F2
:1001C0000C9424010D3011F00C940C01A5E4B2E064
:1001D0008C9181FB16F00C940A01709145027D7F91
:1001E0007093450280E0A4E3B5E00E9452128D9323
:1001F00088278C93E4E3F5E0AEEFB5E00E94D014DD
:100200007091450271607093450270916E0071604B
:1002100070936E000C9424010F3118F011F00C94BF
:1002200013010C942401A5E4B2E08C9181FB16F03B
:100230000C942401ADEFB5E08C91A4E3B5E00E94ED
:1002400052128D9388278C938F918BBF8F918FBF84
:10025000FF91EF91DF91CF91BF91AF919F918F91DE
:100260007F916F915F914F913F912F911F910F91CE
:10027000BF90AF907F905F904F903F902F901F90D6
:100280000F90189508950F921F922F923F924F92C0
:100290005F927F92AF92BF920F931F932F933F93E2
:1002A0004F935F936F937F938F939F93AF93BF937E
:1002B000CF93DF93EF93FF938FB78F938BB78F938A
:1002C00088278BBFA4E5B2E08091CE008C9300918B
:1002D00054020E3711F00C9487017091450278603A
:1002E0007093450280E080935502A5E5B2E08C91C1
:1002F0008F5F8C9380915402A5E5B2E0AD90BB2452
:10030000A5E5B2E0AA0DBB1D8C930C94C4010F3E71
:1003100011F00C94A601A5E5B2E08C918F5F8C934F
:1003200080915402A5E5B2E0AD90BB24A5E5B2E012
:10033000AA0DBB1D8C9370914502746070934502A9
:1003400080915502809366020C94C401A5E4B2E04A
:100350008C9183FB16F00C94C401A5E5B2E08C915E
:100360008F5F8C9380915402A5E5B2E0AD90BB24E1
:10037000A5E5B2E0AA0DBB1D8C93A5E5B2E00C91FA
:1003800040E10E940C158C938F918BBF8F918FBF92
:10039000FF91EF91DF91CF91BF91AF919F918F919D
:1003A0007F916F915F914F913F912F911F910F918D
:1003B000BF90AF907F905F904F903F902F901F9095
:1003C0000F9018950F921F922F923F924F925F922B
:1003D0007F92AF92BF920F931F932F933F934F93B0
:1003E0005F936F937F938F939F93AF93BF93CF93BD
:1003F000DF93EF93FF938FB78F938BB78F938827FC
:100400008BBF78EB76BDA8E3B2E08C918F5F8C93C5
:10041000A8E3B2E00C9148E00E940C158C93009187
:100420003802003011F00C945502A9E3B2E00C91AF
:1004300040E20E940C158C93ECE1F8E10E9400145C
:10044000AEE3B2E08C919927AAE3B2E00E94BB131D
:1004500080913902AAE3B2E00E94EF130E94E513F3
:100460000C900822689409F4E894A8E2B2E08C9118
:1004700083F98C93A8E2B2E08C9183FB882780F902
:10048000809580FBA8E2B2E08C9183F98C93A8E27E
:10049000B2E08C9183FBA5E2B0E08C9182F98C9361
:1004A000A9E3B2E08C918F5F8C93A8E2B2E08C91CB
:1004B00082FB16F00C947702AFE3B2E00E940B12BD
:1004C000A1E4B2E04D915C91AFE3B2E00D911C91DB
:1004D0000417150711F00C947702709128027260CE
:1004E00070932802709128027B7F70932802A5E404
:1004F000B2E08C9187FB16F00C949602A3E4B2E074
:100500000E940B12A6E4B2E04D915C91A3E4B2E02C
:100510000D911C910417150711F00C949402709121
:1005200028027160709328020C949C0280E090E095
:10053000A3E4B2E08D939C938F918BBF8F918FBF7B
:10054000FF91EF91DF91CF91BF91AF919F918F91EB
:100550007F916F915F914F913F912F911F910F91DB
:10056000BF90AF907F905F904F903F902F901F90E3
:100570000F9018950F921F922F923F924F925F9279
:100580007F92AF92BF920F931F932F933F934F93FE
:100590005F936F937F938F939F93AF93BF93CF930B
:1005A000DF93EF93FF938FB78F938BB78F9388274A
:1005B0008BBF78EB7093B200AAE4B2E08C918F5FAE
:1005C0008C93AAE4B2E00C9144E60E940C158C9343
:1005D00000914A02003011F00C942E03ABE4B2E01B
:1005E0000C9140E20E940C158C93E0E6F8E10E9429
:1005F0000014A0E5B2E08C919927ACE4B2E00E942F
:10060000BB1380914B02ACE4B2E00E94EF130E9456
:10061000E5130C900822689409F4E894A5E4B2E08C
:100620008C9186F98C93A5E4B2E08C9186FB8827A7
:1006300080F9809580FBA5E4B2E08C9186F98C93DB
:10064000A5E4B2E08C9186FBABE2B0E08C9187F937
:100650008C93ABE4B2E08C918F5F8C938F918BBFC6
:100660008F918FBFFF91EF91DF91CF91BF91AF91AC
:100670009F918F917F916F915F914F913F912F91BA
:100680001F910F91BF90AF907F905F904F903F90E0
:100690002F901F900F901895289A2A982B982C9895
:1006A000ECE9FDE20E9400140E9461120E946812AF
:1006B000A0E8BFE3E4ECFDE20E9400140E949F1357
:1006C0000E9459120E946812A0E8BFE3E8EDFDE223
:1006D0000E9400140E949F130E9459120E946812E7
:1006E000A0E8BFE3E0EEFDE20E9400140E949F1329
:1006F0000E9459120E9468128EE780932C028FEF9D
:1007000080932D0281E080933E02E0E0F0E0A5E2DC
:10071000B2E00E94021581E080932502EEEEFDE238
:100720000E9400140E946112E5E2F2E0A0E8BFE33B
:100730000E9429140E9459120E9468120895E6EF3F
:10074000FDE20E9400140E9461120E9468120E9441
:1007500078161CE90E94901610E40E949016A88159
:10076000B9811C910E9490160E948716089584E614
:1007700090E00E948712EEEFFDE20E9400140E94BA
:1007800061120E946812E8E0FEE20E9400140E94DA
:100790006112E881F981A0E8BFE30E9429140E9458
:1007A00059120E9468120E947816A881B9811C9182
:1007B0000E9490160E9478161DE90E9490160E94D1
:1007C000AF16A2E5B2E01C930E94AD16A2E5B2E01E
:1007D0001C930E948716E0E1FEE20E9400140E9432
:1007E0006112E881F981A0E8BFE30E9429140E9408
:1007F0005912E4E1FEE20E9400140E946112E2E557
:10080000F2E0A0E8BFE30E949D140E945912E6E1C5
:10081000FEE20E9400140E946112E4E9FDE20E94DF
:1008200000140E946616E2E5F2E0D080EE24FF2478
:1008300000270E9497150E942816EDE0F0E0A5E041
:10084000B1E00E94D514E8E9FDE20E9400140E9484
:100850006616E5E0F1E00E946D150E94CF15EDE00F
:10086000F0E0A5E0B1E00E94D514E5E0F1E0A0E8F9
:10087000BFE30E946D150E9496120E9459120E94B9
:1008800068120895A881B9818D919C91A1E4B2E08C
:100890008D939C9380E090E0AFE3B2E08D939C93C6
:1008A000709128027D7F70932802709128027460F5
:1008B00070932802A8E2B2E08C9181FB16F40C94AC
:1008C0006404A8950C945A040895A5E1B1E0E8E108
:1008D000FEE20E9400140E949F13EA81FB81A5E1C1
:1008E000B1E00E9452120E949D14A5E1B1E00E9465
:1008F0005212EEE2FEE20E9400140E949F13E88171
:10090000F981A5E1B1E00E9452120E949F1486E095
:1009100080932E02AA81BB818C9180932F0281E06B
:1009200080933002A5E1B1E00E945B120E94681240
:10093000A881B98111968C91A3E0B1E08C93E3E09A
:10094000F1E0A0E8BFE30E949D140E9459120E94AA
:1009500068128091030180933102A881B9818C9142
:10096000A3E0B1E08C93E3E0F1E0A0E8BFE30E94F4
:100970009D140E9459120E94681280910301809375
:1009800032028FEE809335028AE0809367020E94E4
:10099000CA0A81E08093040140916702009104013A
:1009A000041718F011F00C940105E4E0F1E0A190B7
:1009B000BB24EBE2F2E0EA0DFB1DA0E8BFE30E94DE
:1009C0009D140E945912E6E3FEE20E9400140E9468
:1009D0006112A4E0B1E0AD90BB24ABE2B2E0AA0D9D
:1009E000BB1D8C918093000131E0A0E0B1E00E943A
:1009F0007212A4E0B1E08C918F5F8C9310F40C9490
:100A0000CC040E9468120895E8E3FEE20E940014FC
:100A10000E9461120E94681281E08093000140915F
:100A2000660200910001041718F011F00C943405CF
:100A3000E0E0F1E0A190BB24E5E5F2E0EA0DFB1D6A
:100A4000A0E8BFE30E949D140E945912E6E1FEE275
:100A50000E9400140E946112A0E0B1E08C918F5FAF
:100A60008C9310F40C940F050E9468120895E8E42A
:100A7000FEE20E9400140E946112AEEFB5E00E94F7
:100A80005B120E94681281E0EEEFF5E006E00A9347
:100A9000A0EFB1E00E94DB14EEEFF5E09CE204E190
:100AA00032E2AAE6B2E00E943815A9E6B2E02C9341
:100AB00000916902003018F011F00C9461050C945B
:100AC000930581E08093000140916902009100014B
:100AD000041718F011F00C949305E0E0F1E0A0E8A1
:100AE000BFE30E9429140E945912EAE4FEE20E9428
:100AF00000140E946112A0E0B1E00D91112745E1C0
:100B000050E00E949513A5E5B2E0A00FB11F0E942E
:100B10005B120E946812A0E0B1E08C918F5F8C9311
:100B200010F40C946405AAE6B2E00E941C15082F8C
:100B3000063011F00C943A0AEAE6F2E0AEE0B1E0D9
:100B40000E94D014EEE0F1E0AEE0B1E00E94D913D3
:100B50008FEF8093DE01AEE0B1E0ECE4FEE20E94B4
:100B600000140E94221511F00C94F70580E0809388
:100B7000DE01A5E1B1E0E4E5FEE20E9400140E947E
:100B80009F13A0EFB1E0E4ECFDE20E9400140E948C
:100B90009F13E0EFF1E0A5E1B1E00E9452120E9444
:100BA000D014A5E1B1E00E945212E8E6FEE20E94F4
:100BB00000140E949F13A0EFB1E0E0EEFDE20E945E
:100BC00000140E949F13E0EFF1E0A5E1B1E00E9464
:100BD00052120E94D014A5E1B1E00E945212E6E741
:100BE000FEE20E9400140E949F130C94380AE8E76A
:100BF000FEE20E9400140E94221511F00C943606A9
:100C000000916902023011F00C943106AFE7B2E0B6
:100C10000E946E14A0E0B1E00C930091000101313C
:100C200010F00C942C0680E08093DE01A5E1B1E089
:100C3000E0E8FEE20E9400140E949F13E0E0F1E071
:100C4000A5E1B1E00E9452120E9429148091000196
:100C500080933E020C942F0685E08093DE010C9475
:100C6000340684E08093DE010C94380AE8E9FEE261
:100C70000E9400140E94221511F00C945906009154
:100C80006902013011F00C94540680E08093DE017B
:100C90002B9A2C98A5E1B1E0E0EAFEE20E94001454
:100CA0000E949F130C94570684E08093DE010C94FD
:100CB000380AE2ECFEE20E9400140E94221511F0B4
:100CC0000C947C0600916902013011F00C947706B7
:100CD00080E08093DE012C9A2B98A5E1B1E0EAEC4C
:100CE000FEE20E9400140E949F130C947A0684E096
:100CF0008093DE010C94380AECEEFEE20E940014B0
:100D00000E94221511F00C949E0600916902013098
:100D100011F00C94990680E08093DE012B98A5E1F8
:100D2000B1E0E4EFFEE20E9400140E949F130C94D5
:100D30009C0684E08093DE010C94380AE8E0FFE230
:100D40000E9400140E94221511F00C94C00600911C
:100D50006902013011F00C94BB0680E08093DE0143
:100D60002C98A5E1B1E0E0E1FFE20E9400140E94AE
:100D70009F130C94BE0684E08093DE010C94380A25
:100D8000E4E2FFE20E9400140E94221511F00C948C
:100D9000F00700916902023011F00C94350780E0F1
:100DA0008093DE01AFE7B2E00E94B614A2E0B1E0AA
:100DB0000C93A5E1B1E0E8E1FEE20E9400140E947C
:100DC0009F13EFE7F2E0A5E1B1E00E9452120E940A
:100DD000D01484E080932E028091020180932F0230
:100DE00080E0809330028FEE8093330288E080931E
:100DF00067020E94CA0A81E0809304014091670261
:100E000000910401041718F011F00C943307E4E08A
:100E1000F1E0A190BB24EBE2F2E0EA0DFB1DA0E8BB
:100E2000BFE30E949D140E945912E6E3FEE20E9475
:100E300000140E946112A4E0B1E0AD90BB24ABE2CB
:100E4000B2E0AA0DBB1D8C918093000131E0A0E0BF
:100E5000B1E00E947212A4E0B1E08C918F5F8C939C
:100E600010F40C94FE060E9468120091690203308F
:100E700011F00C94EE0780E08093DE01AFE7B2E062
:100E80000E94B614A2E0B1E00C93A4E9B2E00E9483
:100E9000B614AAE0B1E00D931C93A5E1B1E0E8E13E
:100EA000FEE20E9400140E949F13EFE7F2E0A5E12A
:100EB000B1E00E9452120E94D014A5E1B1E00E945C
:100EC0005212EEE2FEE20E9400140E949F13E4E937
:100ED000F2E0A5E1B1E00E9452120E94D01486E037
:100EE00080932E028091020180932F0281E08093F3
:100EF0003002EAE0F1E0A0E8BFE30E949F140E9404
:100F000059120E946812AAE0B1E011968C91A3E0F8
:100F1000B1E08C93E3E0F1E0A0E8BFE30E949D1410
:100F20000E9459120E94681280910301809331023D
:100F3000AAE0B1E08C91A3E0B1E08C93E3E0F1E0B2
:100F4000A0E8BFE30E949D140E9459120E946812FB
:100F500080910301809332028FEE809335028AE004
:100F6000809367020E94CA0A81E080930401409145
:100F7000670200910401041718F011F00C94EC07BB
:100F8000E4E0F1E0A190BB24EBE2F2E0EA0DFB1D0E
:100F9000A0E8BFE30E949D140E945912E6E3FEE21E
:100FA0000E9400140E946112A4E0B1E0AD90BB2445
:100FB000ABE2B2E0AA0DBB1D8C918093000131E041
:100FC000A0E0B1E00E947212A4E0B1E08C918F5FCA
:100FD0008C9310F40C94B7070E9468120C94380A92
:100FE000ECE2FFE20E9400140E94221511F00C9422
:100FF000250800916902023011F00C94200880E06D
:101000008093DE01AFE7B2E00E94B614A1E5B2E042
:101010000C93A5E1B1E0E4E3FFE20E9400140E941A
:101020009F13E1E5F2E0A5E1B1E00E9452120E94B7
:101030009D14709145027062709345020C942308D0
:1010400084E08093DE010C94380AE2E4FFE20E941F
:1010500000140E94221511F00C9469080091690295
:10106000023011F00C946408AFE7B2E00E946E14F5
:10107000A0E0B1E00C9300910001043010F00C945A
:101080005F087091450270617093450280E0809323
:10109000DE018091000180935302A5E1B1E0EAE412
:1010A000FFE20E9400140E949F13E3E5F2E0A5E135
:1010B000B1E00E9452120E9429140C94620885E04B
:1010C0008093DE010C94670884E08093DE010C9429
:1010D000380AE8E5FFE20E9400140E94221511F090
:1010E0000C94BD0800916902023011F00C94B8080C
:1010F00080E08093DE01AFE7B2E00E946E14A0E0D2
:10110000B1E00C9300910001043081E008F080E030
:101110008F9300910001003080E010F009F081E031
:101120009F918923882311F40C94B30880910001C6
:1011300080932502E0E0F0E0A0E0B1E07BE70E94D0
:10114000F114A5E1B1E0E0E6FFE20E9400140E9484
:101150009F13E5E2F2E0A5E1B1E00E9452120E9485
:1011600029140C94B60885E08093DE010C94BB082A
:1011700084E08093DE010C94380AE8E7FFE20E94E5
:1011800000140E94221511F00C94D40880E0809382
:10119000DE01A5E1B1E0E0E8FFE20E9400140E9458
:1011A0009F1328980C94380AE0E9FFE20E9400148B
:1011B0000E94221511F00C94EB0880E08093DE0170
:1011C000A5E1B1E0E8E9FFE20E9400140E949F134C
:1011D000289A0C94380AE8EAFFE20E9400140E9460
:1011E000221511F00C94060980E08093DE01A5E140
:1011F000B1E0E0EBFFE20E9400140E949F137091A7
:1012000028027061709328020C94380AE2ECFFE225
:101210000E9400140E94221511F00C94210980E014
:101220008093DE01A5E1B1E0EAECFFE20E94001448
:101230000E949F13709128027F7E709328020C9465
:10124000380AECEDFFE20E9400140E94221511F012
:101250000C94E70900916902023011F00C948509A1
:1012600080E08093DE01AFE7B2E00E946E14A0E060
:10127000B1E00C9384E18093680200910001043096
:1012800081E008F080E08F9300910001003080E061
:1012900010F009F081E09F918923882311F40C94C8
:1012A00080098091000180932502E0E0F0E0A0E059
:1012B000B1E07BE70E94F114A5E1B1E0E4EEFFE2CA
:1012C0000E9400140E949F13E5E2F2E0A5E1B1E064
:1012D0000E9452120E942914A5E1B1E00E9452120C
:1012E000E2E0F0E30E9400140E949F13E8E6F2E0BF
:1012F000A5E1B1E00E9452120E9429140C948309C6
:1013000085E08093DE010C94E509033011F00C9424
:10131000E20980E08093DE01AFE7B2E00E946E1444
:10132000A0E0B1E00C93A4E9B2E00E946E14A8E63C
:10133000B2E00C9300910001043081E008F080E0FD
:101340008F9300910001003080E010F009F081E0FF
:101350009F918923882311F40C94DD098091000169
:1013600080932502E0E0F0E0A0E0B1E07BE70E949E
:10137000F114A5E1B1E0E4EEFFE20E9400140E9446
:101380009F13E5E2F2E0A5E1B1E00E9452120E9453
:101390002914A5E1B1E00E945212E2E0F0E30E94BC
:1013A00000140E949F13E8E6F2E0A5E1B1E00E947C
:1013B00052120E9429140C94E00985E08093DE010A
:1013C0000C94E50984E08093DE010C94380AECE08B
:1013D000F0E30E9400140E94221511F00C94170AE9
:1013E00000916902023011F00C94120A80E080939F
:1013F000DE01AFE7B2E00E946E14A9E2B2E00C9306
:10140000A5E1B1E0E4E1F0E30E9400140E949F1323
:10141000E9E2F2E0A5E1B1E00E9452120E94291433
:101420000C94150A84E08093DE010C94380AEAE2F9
:10143000F0E30E9400140E94221511F00C94350A6A
:1014400080E08093DE01A5E1B1E0E2E3F0E30E94F9
:1014500000140E949F13E9E2F2E0A5E1B1E00E94CE
:1014600052120E9429140C94380A81E08093DE0104
:101470000C943D0A82E08093DE010091DE01003091
:1014800018F011F00C94460A0C94540AE2E4F7E1C7
:101490000E940014AEEDB1E08C9199270E94D11307
:1014A000A5E1B1E00E949F13A5E1B1E00E945B12AB
:1014B0000E946812089540912602009125020417A7
:1014C00011F40C94C90AECE3F0E30E9400140E94AA
:1014D0006112E5E2F2E0A0E8BFE30E9429140E9455
:1014E00059120E9468128091250280932602009171
:1014F0002502013011F00C94910A81E080933E02A4
:10150000709128027F7770932802709128027F7B68
:1015100070932802709128027062709328020C94D4
:10152000C90A023011F00C94A90A82E080933E02AD
:1015300070912802706870932802709128027F7B56
:1015400070932802709128027F7D709328020C947A
:10155000C90A033011F00C94C10A83E080933E0263
:10156000709128027F77709328027091280270642E
:1015700070932802709128027F7D709328020C944A
:10158000C90AE4E4F0E30E9400140E9461120E9480
:101590006812089500916702083011F00C94270B2F
:1015A00080E090E0AAE2B2E08D939C93AAE2B2E0E0
:1015B0000D911C91ADE2B2E04D915527040F151F1E
:1015C000AAE2B2E00D931C93AAE2B2E00D911C9145
:1015D000AEE2B2E04D915527040F151FAAE2B2E02A
:1015E0000D931C93AAE2B2E00D911C91AFE2B2E020
:1015F0004D915527040F151FAAE2B2E00D931C93DD
:10160000AAE2B2E00D911C91A0E3B2E04D91552702
:10161000040F151FAAE2B2E00D931C9300E010E046
:10162000AAE2B2E04D915C91041B150BAAE2B2E074
:101630000D931C93AAE2B2E011968C91A1E3B2E063
:101640008C93AAE2B2E08C91A2E3B2E08C93009179
:1016500067020A3011F00C94A00B80E090E0AAE23F
:10166000B2E08D939C93AAE2B2E00D911C91ADE2A1
:10167000B2E04D915527040F151FAAE2B2E00D9379
:101680001C93AAE2B2E00D911C91AEE2B2E04D9142
:101690005527040F151FAAE2B2E00D931C93AAE28E
:1016A000B2E00D911C91AFE2B2E04D915527040FCD
:1016B000151FAAE2B2E00D931C93AAE2B2E00D91CD
:1016C0001C91A0E3B2E04D915527040F151FAAE22B
:1016D000B2E00D931C93AAE2B2E00D911C91A1E33C
:1016E000B2E04D915527040F151FAAE2B2E00D9309
:1016F0001C93AAE2B2E00D911C91A2E3B2E04D91DD
:101700005527040F151FAAE2B2E00D931C9300E0C9
:1017100010E0AAE2B2E04D915C91041B150BAAE225
:10172000B2E00D931C93AAE2B2E011968C91A3E370
:10173000B2E08C93AAE2B2E08C91A4E3B2E08C9385
:1017400008954F4B00436F6D616E646F206E6F2084
:101750007265636F6E6F6369646F004C6F6E67696B
:1017600074756420636F6D616E646F206E6F207698
:10177000616C696461004E756D65726F20646520EF
:101780007573756172696F206E6F2076616C696424
:101790006F004E756D65726F2064652070617261B7
:1017A0006D6574726F7320696E76616C69646F0029
:1017B0004572726F72206C6F6E6769747564207009
:1017C0006172616D6574726F2031004572726F7263
:1017D000206C6F6E676974756420706172616D65ED
:1017E00074726F203200506172616D6574726F2087
:1017F0006E6F2076616C69646F004552524F5238AB
:10180000004552524F522053442E20496E74656E4B
:101810007465206465206E7565766F0000000000B9
:1018200003000000330000003303000033330000E6
:1018300033330300333333003333B3013333B3195A
:1018400033333333777777770C00FCFFCC00FCFF22
:10185000CC0CFCFFCCCCFCFF0C00FCFFF0FFFFFF2E
:10186000000000000100000005000000150000005D
:1018700055000000550100005505000055150000F9
:101880005555000055550100777707000E944C031D
:10189000A5E4B2E08C9180FB16F00C94620C709180
:1018A00045027E7F70934502E8E5F0E30E94001454
:1018B0000E946112AEEFB5E00E945B120E946812B6
:1018C0000E943705A5E4B2E08C9182FB16F00C94DF
:1018D000700C709145027B7F709345020E94040555
:1018E000A5E4B2E08C9185FB16F00C94910C7091FC
:1018F00045027F7D70934502EEE5F0E30E940014FF
:101900000E9461120E94681280915102D2018C9350
:1019100081E00E948F130E949F03229681E00E9423
:101920008B13A5E4B2E08C9184FB16F00C94AC0C04
:10193000709145027F7E70934502EEEFFDE20E94BA
:1019400000140E9461120E946812A3E5B2E0BA93EB
:10195000AA930E94B7032296A8E2B2E08C9185FB7D
:1019600016F00C94DF0C709128027F7D7093280292
:10197000E8E6F0E30E9400140E9461120E946812DF
:10198000E0E7F0E30E9400140E9461120E946812D6
:10199000E0E7F0E30E9400140E9461120E946812C6
:1019A0002B982C9880E0D2018C9381E00E948F13B9
:1019B0000E949F03229681E00E948B13289AA8E23E
:1019C000B2E08C9187FB16F00C945F0F70912802A7
:1019D0007F7770932802EAE7F0E30E9400140E94E8
:1019E00061120E94681228982B9A8FEFD2018C9373
:1019F00081E00E948F130E949F03229681E00E9443
:101A00008B1388EC90E0A6E4B2E08D939C937091E8
:101A100028027E7F7093280280E090E0A3E4B2E089
:101A20008D939C9370914502706870934502A5E474
:101A3000B2E08C9182FB81E00EF080E08F93A8E20F
:101A4000B2E08C9180FB81E00EF080E09F91892BC9
:101A5000882311F40C94170D0E940405709145021F
:101A60007B7F70934502009159020F3311F00C9463
:101A7000430FE2E8F0E30E9400140E9461120E940A
:101A8000681200915C02023011F00C94290FECE80E
:101A9000F0E30E9400140E9461120E946812E2E9C1
:101AA000F0E30E9400140E9461120E946812E2E9B1
:101AB000F0E30E9400140E9461120E946812ECE997
:101AC000F0E30E9400140E9461120E94681288ECE8
:101AD00090E0D2018D939C9382E00E948F130E942C
:101AE0004204229682E00E948B13E4EAF0E30E9413
:101AF00000140E9461120E946812E8EAF0E30E945A
:101B000000140E946112E8E6F2E0A0E8BFE30E9440
:101B100029140E9459120E94681286E0D2018C9307
:101B200081E00E948F13A8E6B2E08C91D2018D93E0
:101B300088278C9382E00E948F130E94650424966C
:101B400083E00E948B138FE0D2018C9381E00E948E
:101B50008F1386E091E0D2018D939C9382E00E94E6
:101B60008F130E946504249683E00E948B13EEEA93
:101B7000F0E30E9400140E9461120E94681280ED3E
:101B800097E0A6E4B2E08D939C93709128027E7F4B
:101B90007093280280E090E0A3E4B2E08D939C93E0
:101BA000709145027068709345028091590280934C
:101BB0000901A5E4B2E08C9180FB16F00C94F30DC2
:101BC000709145027E7F70934502E8E5F0E30E9444
:101BD00000140E946112AEEFB5E00E945B120E94F9
:101BE00068120E943705A3E4B2E00D911C9144E60F
:101BF00050E00E943812AAE0B1E00D931C93AAE0D5
:101C0000B1E00D911C91003050E0150711F00C94DB
:101C1000190EEEEBF0E30E9400140E946112E3E45F
:101C2000F2E0A0E8BFE30E9419140E9459120E943A
:101C30006812009109010D3381E009F080E08F9373
:101C4000A8E2B2E08C9180FB81E00EF080E09F91F1
:101C5000892B8F9300912502013081E009F080E00B
:101C60009F91892B882311F40C94D50DE6ECF0E3B9
:101C70000E9400140E9461120E9468120E940405D2
:101C8000E4EDF0E30E9400140E9461120E946812C9
:101C90008FE0D2018C9381E00E948F1386E091E067
:101CA000D2018D939C9382E00E948F130E94650461
:101CB000249683E00E948B1384E690E0D2018D93FA
:101CC0009C9382E00E948F130E944204229682E03D
:101CD0000E948B130E94040588E0D2018C9381E05E
:101CE0000E948F1380E090E0D2018D939C9382E05C
:101CF0000E948F130E946504249683E00E948B1338
:101D000088EB9BE0A6E4B2E08D939C93709128024F
:101D10007E7F7093280280E090E0A3E4B2E08D9390
:101D20009C9370914502706870934502A5E4B2E0FF
:101D30008C9180FB16F00C94B00E709145027E7F62
:101D400070934502E8E5F0E30E9400140E946112DE
:101D5000AEEFB5E00E945B120E9468120E94370548
:101D6000A5E4B2E08C9182FB16F00C94BE0E70914B
:101D700045027B7F709345020E940405A3E4B2E014
:101D80000D911C9144E650E00E943812AAE0B1E0A7
:101D90000D931C93AAE0B1E00D911C91003050E02E
:101DA000150711F00C94E40EEEEBF0E30E94001422
:101DB0000E946112E3E4F2E0A0E8BFE30E9419147C
:101DC0000E9459120E946812A8E2B2E08C9180FB36
:101DD00081E00EF080E08F9300912502013081E0D8
:101DE00009F080E09F91892B882311F40C94960EC2
:101DF000EEEDF0E30E9400140E9461120E9468124E
:101E00008EE0D2018C9381E00E948F1380E090E0FD
:101E1000D2018D939C9382E00E948F130E946504EF
:101E2000249683E00E948B1384E690E0D2018D9388
:101E30009C9382E00E948F130E944204229682E0CB
:101E40000E948B130E94040581E0809325020C946C
:101E5000410FE8EEF0E30E9400140E9461120E941C
:101E60006812EEEEF0E30E9400140E9461120E94DC
:101E70006812EEEEF0E30E9400140E9461120E94CC
:101E800068120C945F0FE8EFF0E30E9400140E94C8
:101E900061120E9468122B982C9880E0D2018C93DA
:101EA00081E00E948F130E949F03229681E00E948E
:101EB0008B13289A70912802706870932802A8E208
:101EC000B2E08C9186FB16F00C94D411709128022C
:101ED0007F7B70932802ECE0F1E30E9400140E94E3
:101EE00061120E94681228982B9A8FEFD2018C936E
:101EF00081E00E948F130E949F03229681E00E943E
:101F00008B1388EC90E0A6E4B2E08D939C937091E3
:101F100028027E7F7093280280E090E0A3E4B2E084
:101F20008D939C9370914502706870934502A5E46F
:101F3000B2E08C9182FB81E00EF080E08F93A8E20A
:101F4000B2E08C9180FB81E00EF080E09F91892BC4
:101F5000882311F40C94970F0E9404057091450298
:101F60007B7F70934502009159020F3311F00C945E
:101F7000AA11E2E8F0E30E9400140E9461120E949C
:101F8000681200915C02023011F00C949011ECE8A0
:101F9000F0E30E9400140E9461120E946812ECE1BA
:101FA000F1E30E9400140E9461120E946812ECE1A9
:101FB000F1E30E9400140E9461120E9468128FE0F7
:101FC000D2018C9381E00E948F1388E091E0D201CE
:101FD0008D939C9382E00E948F130E946504249647
:101FE00083E00E948B13E6E2F1E30E9400140E945A
:101FF00061120E94681280ED97E0A6E4B2E08D9332
:102000009C93709128027E7F7093280280E090E07C
:10201000A3E4B2E08D939C93709145027068709335
:1020200045028091590280930901A5E4B2E08C91A8
:1020300080FB16F00C942F10709145027E7F7093F8
:102040004502E8E5F0E30E9400140E946112AEEF41
:10205000B5E00E945B120E9468120E943705A3E45B
:10206000B2E00D911C9144E650E00E943812AAE0C3
:10207000B1E00D931C93AAE0B1E00D911C910030EA
:1020800050E0150711F00C945510EEEBF0E30E94B0
:1020900000140E946112E3E4F2E0A0E8BFE30E94B2
:1020A00019140E9459120E946812009109010D33FF
:1020B00081E009F080E08F93A8E2B2E08C9180FB90
:1020C00081E00EF080E09F91892B8F930091250293
:1020D000013081E009F080E09F91892B882311F481
:1020E0000C941110E8E3F1E30E9400140E946112C5
:1020F0000E9468120E940405E8E4F1E30E940014C3
:102100000E9461120E9468128FE0D2018C9381E0DC
:102110000E948F1388E091E0D2018D939C9382E01E
:102120000E948F130E946504249683E00E948B1303
:1021300084E690E0D2018D939C9382E00E948F13FD
:102140000E944204229682E00E948B130E940405A2
:1021500088E0D2018C9381E00E948F1380E090E0B0
:10216000D2018D939C9382E00E948F130E9465049C
:10217000249683E00E948B1380E08093290280E7FD
:1021800097E1A6E4B2E08D939C93709128027E7F44
:102190007093280280E090E0A3E4B2E08D939C93DA
:1021A00070914502706870934502A9E2B2E08C918B
:1021B0008F5F8C93A5E4B2E08C9180FB16F00C94B9
:1021C000F410709145027E7F70934502E8E5F0E3DC
:1021D0000E9400140E946112AEEFB5E00E945B12F3
:1021E0000E9468120E943705A5E4B2E08C9182FB40
:1021F00016F00C940211709145027B7F709345029A
:102200000E940405A3E4B2E00D911C9144E650E065
:102210000E943812AAE0B1E00D931C93AAE0B1E04D
:102220000D911C91003050E0150711F00C9428110D
:10223000EEEBF0E30E9400140E946112E3E4F2E08E
:10224000A0E8BFE30E9419140E9459120E9468126C
:10225000A8E2B2E08C9180FB81E00EF080E08F93E9
:1022600000912502013081E009F080E09F91892BE7
:10227000882311F40C94DA10E4E5F1E30E940014D1
:102280000E946112E9E2F2E0A0E8BFE30E94291493
:102290000E9459120E946812009129020E3181E0B9
:1022A00009F080E08F9300912502013081E009F070
:1022B00080E09F91892B882311F40C94BF10EEE5E8
:1022C000F1E30E9400140E9461120E9468128EE0E5
:1022D000D2018C9381E00E948F1380E090E0D201C4
:1022E0008D939C9382E00E948F130E946504249634
:1022F00083E00E948B1384E690E0D2018D939C933F
:1023000082E00E948F130E944204229682E00E9483
:102310008B130E94040581E0809325020C94A81180
:10232000E8EEF0E30E9400140E9461120E9468121D
:10233000EAE6F1E30E9400140E9461120E94681212
:10234000EAE6F1E30E9400140E9461120E94681202
:102350000C94D411E8EFF0E30E9400140E94611283
:102360000E9468122B982C9880E0D2018C9381E017
:102370000E948F130E949F03229681E00E948B137C
:10238000289A84E690E0D2018D939C9382E00E948B
:102390008F130E944204229682E00E948B13709158
:1023A00028027064709328021D990C940712E4E7C8
:1023B000F1E30E9400140E9461120E946812709161
:1023C00028027F7D709328022B982C9880E0D20100
:1023D0008C9381E00E948F130E949F03229681E0DC
:1023E0000E948B13289AA7E2B2E08C918F5F8C93A6
:1023F000A7E2B2E00C9100FB16F00C94041282E00C
:10240000809325020C94071281E0809325020E949C
:102410005B0A0C94480CED91FC91EF5FFF4FFC932D
:10242000EE93089509D00E94951300FC10D00895F2
:1024300003D01ED001F8F9CF0024E89457FF02C062
:1024400009D0689400F80BD010F80124089502D048
:1024500009D00895509540954F5F5F4F0895E894D7
:1024600017FF0895009510950F5F1F4F689408950A
:10247000352F242FE894452B11F468940895512F9B
:10248000402F0027112780E1440F551F001F111F07
:10249000021B130B416018F4020F131F4E7F8A9525
:1024A00099F708958F938D918823E9F711978F916C
:1024B0000895A0E8BFE38D91882311F00CD0FBCFE5
:1024C00008950E94A513802D11F005D0FACF08952C
:1024D0008DE001D08AE00090C00005FEFCCF809323
:1024E000C60008958D9103D03A95E1F708950090C4
:1024F000C80005FEFCCF8093CE0008953197F1F718
:102500000895689462F80895E89462F80895EF9346
:10251000FF93EE27E82BE92B31F0E3E3F7E0319767
:10252000F1F70197D1F7FF91EF9108958DE207FD43
:102530008D938F2D881F802F881F8F57082F6894A9
:10254000F7F8802F87FF17C080958395082F80E3C9
:102550008D938EE28D93802F815238F080E38D939E
:1025600099279C930E94F513089544270A95802F7C
:1025700009F19ED01FC0805230F09EE49D9381E40B
:102580008D939D93EDCF4427DF92EF92FF920F93AF
:102590008FE1801B11F0082F8BD091D09EE29D938C
:1025A0000F91FF90EF90DF9044270395003209F4DC
:1025B000D5CF33D03F93E0E5F6E20E94001438E136
:1025C0002F2D1E2D0D2DFF24EE24DD244427000F7A
:1025D000111F221FB8F42F923F920E94A513102CB6
:1025E0000E94A513202C0E94A513302C0E94A51335
:1025F00031970E94CA13410DD21CE31CF01C3F907E
:102600002F9003C033960E94C31331960E94C313C8
:102610003A95E9F63F9107D0A5CFDD0CEE1CFF1CE3
:102620000A95D9F70895002719E058D08F93802B89
:1026300011F0039501C08F911A95B9F7802F882367
:1026400009F48CCF8F91805D8D930A95D9F788CF4F
:102650000065CD1D80B2E60E40597307A0ACB903EA
:1026600050D6DC01286BEE0094357700CA9A3B0007
:1026700065CD1D00B2E60E0059730700ACB903002A
:10268000D6DC01006BEE0000357700009A3B0000BD
:10269000CD1D0000E60E000073070000B903000026
:1026A000DC010000EE000000770000003B000000AD
:1026B000F694E794D79447950A95D1F708950027A3
:1026C0000DD08F9303958F2D8E298D29842BC1F7E3
:1026D0008F91805D8D930A95D9F742CF1F930F9309
:1026E000002710E2440FDD1CEE1CFF1C001F802F92
:1026F0009AE0890B10F0082F43951A9599F7802FCF
:102700000F911F91089501911191219130810895A8
:10271000481A590A0895481A8827580A0895992787
:102720005A924A92480E591E08950F92B801469F38
:102730008001479F100D569F100D0F9008950E9425
:10274000A5130D920020D9F70895D895319628F455
:102750008F938BB783958BBF8F910020089591E065
:1027600005C092E003C094E001C098E0EEDF0D9256
:102770009A95E1F70895880F991F880F991FE80F20
:10278000F91F01D0F0CF28F48F938BB783958BBFBF
:102790008F91089528F48F938BB78A958BBF8F9173
:1027A00008950196019721F00E94A513E9F7FACF49
:1027B0000895819104D08D938823D9F708958136A7
:1027C00018F08B3708F48F7D089591E0882321F06D
:1027D0008894991F8A95E9F7892F909508958830F4
:1027E00018F011968850FBCF08950F9200240BBE6D
:1027F0000F9008950F9301E00BBF0F9188940895F7
:102800000F930027F9CF0F9302E0F6CF040F151FA7
:10281000261F371F0895000F111F221F331F089511
:1028200000951095209530950F5F1F4F2F4F3F4F0C
:102830000895019110810FC00E9483130EC00E9461
:10284000831310C00191108117FF05C03FEF2FEFD8
:1028500004C0008111272227332737FF03C0E0DFA0
:102860008DE28D93CF92DF92EF92AA24BB24CC24E9
:10287000DD24EE2440E2EAE0FF2755E093E3808187
:10288000890F87FD9F7083FD907F891B81935A95E7
:10289000A9F7C1DFAA1CBB1CCC1CDD1CEE1C4A9591
:1028A00051F7E894EFE0FF2782910BD0EB30E0F78F
:1028B0001EF068948A2D09D04D93EF90DF90CF9051
:1028C0000895982F829501D0892F8F70805D26F012
:1028D000803309F4089568948D9308950027112793
:1028E000222733271DD08A3328F4803318F005D0EF
:1028F00015D0F9CF0EF494CF089580538F93402FC5
:10290000512F622F732F87DF86DF80DF84DF8F9167
:102910009927080F191F291F391F08958D910895B0
:10292000E894FCDF8032E9F38B32D9F38930C9F3C4
:102930008D3211F46894F2CF089541E003C042E073
:1029400001C044E0E40F8827F81F8291982F8295F8
:1029500006D0892F04D04A95C1F70C94CD148F70FE
:102960008A3008F0895F805D8D93089500271127D4
:10297000222733278D91882379F04DDF4CDF4BDF01
:102980004ADF1DDF815408F4895F865F080F8827BE
:10299000181F281F381FEECF089588278D9308959C
:1029A00081918D938823E1F7089594E081918D932F
:1029B0009A95E1F7089509919191992359F08A9593
:1029C000D9F73197002331F081918D930A958823AF
:1029D000C9F70895E2CFF999FECFE1BDF2BD319676
:1029E000089591E001C092E07B3751F47FB7F894ED
:1029F000F2DF8D9180BDFA9AF99A9A95C9F77FBF57
:102A00007727089591E001C092E0E5DFF89A80B55C
:102A10008D939A95D1F70895FF93881BF9E0001FD5
:102A2000FA9511F4FF910895881F841B18F4840F00
:102A30008894F5CF0894F3CF8FEF83959D919923D8
:102A4000E1F70895689401C0E894AF93BF938D9126
:102A500016F0919103C00E94A513902D891718F0CC
:102A600011F48823A1F7BF91AF910895689401C034
:102A7000E8942227102F231709F4089526F40E94C2
:102A8000A513802D01C08191803081F0891741F01C
:102A900070E08D931A9591F7239571E01D93EACF1D
:102AA00001D0E8CF703011F077270895772331F403
:102AB0002395882713958D931A95E9F70895B7FE06
:102AC000089590E8B91611F4D0FE08959FEFD91A31
:102AD000E90AF90A09F403950895D190E190F1907B
:102AE0000191089521913191419151910895502F73
:102AF0002D2D3E2D4F2D612F0895652F90E8440F09
:102B0000551F5927990F47956078102F90E8FF0CB3
:102B1000001F0927990FF794107800380895FF0CCB
:102B200090E89027110F9795F794092F0895102F8B
:102B3000BD2CDE2CEF2CF02E11234AF4B094D0944F
:102B4000E094F0949FEFB91AD90AE90AF90A0EE164
:102B5000FF2039F4FE2CED2CDB2CBB240850C2F7EF
:102B600052C032F00A95BB0CDD1CEE1CFF1CF9CFE5
:102B7000A6DFD5CF2DEC3CEC4CEC5DE366270FC017
:102B8000ACDFB5DFDD24EE2490E8F92E0FE307C0BB
:102B9000A9DF05C02227332740E251E466275523E9
:102BA00051F1002381F1A9DF71F116270058505827
:102BB0000894050B18F407FD03C025C007FD23C0CA
:102BC000469537952795F694E794D79425D0FF201E
:102BD0002AF0DD0CEE1CFF1C015073F09D2D969524
:102BE00048F0DD203AF4EE202AF491E0D90E99273E
:102BF000E91EF91E94CF07C09FE7092FF92A9FEF1E
:102C0000D92EE92E0895DD24EE24FF240027112774
:102C100008950FE79FEFF2CF9F929924AA24BB2437
:102C200088E1D216E306F40628F0D21AE30AF40A81
:102C3000089401C08894991CAA1CBB1CDD0CEE1CD6
:102C4000FF1C8A9571F7D92CEA2CFB2C9F900895D4
:102C500054DFD9F05038C9F016270058952F9058F6
:102C60000894091F12F418F40EC008F00EC00FD01B
:102C7000FF202AF0BB0CDD1CEE1CFF1C02C00395DC
:102C800013F01DDF4CCF0C94FC150C9403169F928F
:102C9000FF92EF928D2DFF24EE24DD24BB2493E0E0
:102CA000849F1001829FB00CD11CE21CF31C839FF7
:102CB000D00CE11C2224F21C9A9531F0BD2CDE2CA4
:102CC000EF2CFF248F91ECCF9F9008950E94A513C5
:102CD000202D0E94A513302D0E94A513402D0E9487
:102CE000A513502D08953898399840984198089523
:102CF000399A389803D0399801D0389AEF93FF93D6
:102D0000E5E0F0E00E947E12FF91EF910895399A7C
:102D1000389AF4DF3998319BFECFF0DF3898EECF48
:102D20000894111F01C0110F69F0399A18F40000BE
:102D3000389802C0389A00C0E1DF3998319BFECF45
:102D4000DDDFF1CF399A3898D9DF3998319BFECF42
:102D5000E8943099689462F8D1CF089401C08894BF
:102D6000331F11E0399A3898C9DF3998319BFECF6B
:102D7000C5DF889430990894111FA0F7399A3795C8
:102D800010F4389801C0389AB9DF3998319BFECFDA
:102D9000B5DF08950000F04100007F432A2A2A2A67
:102DA0002A2A2A2A2A2A2A2A2044524956455220C7
:102DB000415544494F202A2A2A2A2A2A2A2A2A2ADD
:102DC0002A2A000032382D30352D3230323420326C
:102DD000303A32363A353100302E312E313335002B
:102DE000445256415544494F2E42415300004573C9
:102DF0007461646F3D007772206461630000524526
:102E0000414420414443000043616E616C3D000039
:102E1000414443003D002C00436F6D616E646F20A0
:102E200061204446506C61707965723D00002C2031
:102E30005041523D00003B00526573702E204446C5
:102E4000506C617965723A0024003A004C45455651
:102E50004657000056657273696F6E2046573A20D8
:102E60004665636861203C003E2C204172636869BE
:102E7000766F203C00003E005345544C4544000012
:102E8000536520636F6E6669677572612073657440
:102E90006C65642061200000454E41494E310000C0
:102EA000536520686162696C69746F20494E3120F6
:102EB0007920646573686162696C69746F20494E3A
:102EC0003200454E41494E32000053652068616230
:102ED000696C69746F20494E32207920646573688B
:102EE0006162696C69746F20494E310044495349ED
:102EF0004E310000536520646573686162696C69D6
:102F0000746F20494E310000444953494E3200004D
:102F1000536520646573686162696C69746F2049E8
:102F20004E32000053455444465000005345544926
:102F3000324300002053616C6964612044414320A6
:102F40003D004C454541444300004C656374757237
:102F50006120414443200000534554535441000034
:102F6000536520636F6E66696775726F2065737451
:102F700061646F20612000005345544D50330000C0
:102F80004D6F64756C6F2020445850204F4E0000E8
:102F90005253544D503300004D6F64756C6F2020B8
:102FA000445850204F46460053455453454E000068
:102FB00054657374204F6E64612035303020487A38
:102FC000000052535453454E0000526573657420FF
:102FD0004F6E64612035303020487A0044525641AB
:102FE00055440000536520636F6E66696775726FA4
:102FF0002065737461646F204452564155442061CA
:10300000200020636F6E20564F4C3D005345544DB9
:10301000494E0000536520636F6E66696775726F75
:1030200020636E74726D696E20004C45454D494EAB
:103030000000436E74726D696E2000005354415459
:1030400055533D0045737461646F206E6F20646555
:1030500066696E69646F0000534552313D005752F6
:1030600049544520444143004E4F524D414C0000CD
:10307000244452564155442C3100494E495445533D
:1030800054004D6F64756C6F204F4E005344204FB9
:103090004B00244452564155442C32005761697408
:1030A0002032000046494E00566F6C3D0000546FC0
:1030B0006E6F20496E666F205445535400005430A3
:1030C000434E54523D0046696E20746F6E6F20541B
:1030D00065737400546F6E6F205445535400464915
:1030E0004E205445535400004E4F20534400244476
:1030F00052564155442C34004D6F64756C6F204E10
:103100004F2050726573656E74650000414C4552E6
:103110005441204E4152414E4A41000024445256EF
:103120004155442C3300546F6E6F20496E666F20FA
:10313000414C41524D41000046696E20746F6E6FE4
:1031400020414C41524D4100546F6E6F20414C4123
:10315000524D4100436E74726D696E3D00004649E8
:103160004E20414C41524D4100002444525641559D
:10317000442C35005445535420706F722069627599
:0631800074746F6E000084
:00000001FF
