:100000000C94460018950000189500001895000003
:10001000189500001895000018950000189500002C
:100020001895000018950000189500000C94BA026D
:10003000189500001895000018950000189500000C
:1000400018950000189500000C94E2011895000026
:100050000C94AB001895000018950000189500004E
:1000600018950000189500001895000018950000DC
:100070000C94430118950000189500001895000095
:100080001895000018950000189500008FEF8DBF9F
:10009000C0E8E8E94E2E80E48EBFD0E4FFE35F2E97
:1000A000A89584B7082E882784BF88E19927809374
:1000B000600090936000EEEFFFE3A0E0B1E08827DE
:1000C0008D933197E9F78FE28093C40080E08093AD
:1000D000C50088E18093C10080E08093CD008FE26D
:1000E0008093CC0088E18093C9006624229A209AEC
:1000F000239A249A579A3C98449A3D98459A3E9858
:10010000469A25982D9A0E94A11685E085BD80E02B
:1001100084BD70916E00716070936E0085E085BD46
:1001200087E08093B10080E08093B0007091700010
:1001300071607093700087E08093B1007091C1008E
:1001400070687093C1007091C90070687093C900A5
:1001500078940C9430110F921F922F923F924F92ED
:100160005F927F92AF92BF920F931F932F933F9313
:100170004F935F936F937F938F939F93AF93BF93AF
:10018000CF93DF93EF93FF938FB78F938BB78F93BB
:1001900088278BBFAEEFB5E08091C6008C9384E2D8
:1001A000482F0091FE05041711F00C94E2007091A5
:1001B0004502716070934502A5E3B5E088278C93F2
:1001C0000C9424010D3011F00C940C01A5E4B2E064
:1001D0008C9180FB16F00C940A01709145027E7F91
:1001E0007093450280E0A5E3B5E00E948A128D93EA
:1001F00088278C93E5E3F5E0AFEFB5E00E94FE14AD
:100200007091690270687093690270916E007160FC
:1002100070936E000C9424010F3118F011F00C94BF
:1002200013010C942401A5E4B2E08C9180FB16F03C
:100230000C942401AEEFB5E08C91A5E3B5E00E94EB
:100240008A128D9388278C938F918BBF8F918FBF4C
:10025000FF91EF91DF91CF91BF91AF919F918F91DE
:100260007F916F915F914F913F912F911F910F91CE
:10027000BF90AF907F905F904F903F902F901F90D6
:100280000F90189508950F921F922F923F924F92C0
:100290005F927F92AF92BF920F931F932F933F93E2
:1002A0004F935F936F937F938F939F93AF93BF937E
:1002B000CF93DF93EF93FF938FB78F938BB78F938A
:1002C00088278BBFA4E5B2E08091CE008C9300918B
:1002D00054020E3711F00C9487017091450274603E
:1002E0007093450280E080935502A5E5B2E08C91C1
:1002F0008F5F8C9380915402A5E5B2E0AD90BB2452
:10030000A5E5B2E0AA0DBB1D8C930C94C4010F3E71
:1003100011F00C94A601A5E5B2E08C918F5F8C934F
:1003200080915402A5E5B2E0AD90BB24A5E5B2E012
:10033000AA0DBB1D8C9370914502726070934502AB
:1003400080915502809366020C94C401A5E4B2E04A
:100350008C9182FB16F00C94C401A5E5B2E08C915F
:100360008F5F8C9380915402A5E5B2E0AD90BB24E1
:10037000A5E5B2E0AA0DBB1D8C93A5E5B2E00C91FA
:1003800040E10E943A158C938F918BBF8F918FBF64
:10039000FF91EF91DF91CF91BF91AF919F918F919D
:1003A0007F916F915F914F913F912F911F910F918D
:1003B000BF90AF907F905F904F903F902F901F9095
:1003C0000F9018950F921F922F923F924F925F922B
:1003D0007F92AF92BF920F931F932F933F934F93B0
:1003E0005F936F937F938F939F93AF93BF93CF93BD
:1003F000DF93EF93FF938FB78F938BB78F938827FC
:100400008BBF78EB76BDA8E3B2E08C918F5F8C93C5
:10041000A8E3B2E00C9148E00E943A158C93009159
:100420003802003011F00C945502A9E3B2E00C91AF
:1004300040E20E943A158C93E0EFF1E20E942E1404
:10044000AEE3B2E08C919927AAE3B2E00E94E913EF
:1004500080913902AAE3B2E00E941D140E94131495
:100460000C900822689409F4E894A8E2B2E08C9118
:1004700082F98C93A8E2B2E08C9182FB882780F904
:10048000809580FBA8E2B2E08C9182F98C93A8E27F
:10049000B2E08C9182FBA5E2B0E08C9182F98C9362
:1004A000A9E3B2E08C918F5F8C93A8E2B2E08C91CB
:1004B00081FB16F00C947702AFE3B2E00E94461283
:1004C000A1E4B2E04D915C91AFE3B2E00D911C91DB
:1004D0000417150711F00C947702709128027160CF
:1004E00070932802709128027D7F70932802A5E402
:1004F000B2E08C9186FB16F00C949602A3E4B2E075
:100500000E944612A6E4B2E04D915C91A3E4B2E0F1
:100510000D911C910417150711F00C949402709121
:1005200045027068709345020C949C0280E090E054
:10053000A3E4B2E08D939C938F918BBF8F918FBF7B
:10054000FF91EF91DF91CF91BF91AF919F918F91EB
:100550007F916F915F914F913F912F911F910F91DB
:10056000BF90AF907F905F904F903F902F901F90E3
:100570000F9018950F921F922F923F924F925F9279
:100580007F92AF92BF920F931F932F933F934F93FE
:100590005F936F937F938F939F93AF93BF93CF930B
:1005A000DF93EF93FF938FB78F938BB78F9388274A
:1005B0008BBF78EB7093B200AAE4B2E08C918F5FAE
:1005C0008C93AAE4B2E00C9144E60E943A158C9315
:1005D00000914A02003011F00C942E03ABE4B2E01B
:1005E0000C9140E20E943A158C93E4E3F2E20E94FF
:1005F0002E14A0E5B2E08C919927ACE4B2E00E9401
:10060000E91380914B02ACE4B2E00E941D140E94F9
:1006100013140C900822689409F4E894A5E4B2E05D
:100620008C9185F98C93A5E4B2E08C9185FB8827A9
:1006300080F9809580FBA5E4B2E08C9185F98C93DC
:10064000A5E4B2E08C9185FBABE2B0E08C9187F938
:100650008C93ABE4B2E08C918F5F8C938F918BBFC6
:100660008F918FBFFF91EF91DF91CF91BF91AF91AC
:100670009F918F917F916F915F914F913F912F91BA
:100680001F910F91BF90AF907F905F904F903F90E0
:100690002F901F900F901895289A2A982B982C9895
:1006A000E8EFFDE20E942E140E9499120E94A0120F
:1006B000A0E8BFE3E0E2FEE20E942E140E94CD1308
:1006C0000E9491120E94A012A0E8BFE3E4E3FEE2C0
:1006D0000E942E140E94CD130E9491120E94A0121B
:1006E000A0E8BFE3ECE3FEE20E942E140E94CD13CB
:1006F0000E9491120E94A0128EE780932C028FEF2D
:1007000080932D0281E080933E02E0E0F0E0A5E2DC
:10071000B2E00E94301581E080932502EAE4FEE217
:100720000E942E140E949912E5E2F2E0A0E8BFE3D5
:100730000E9457140E9491120E94A0120895E2E5AF
:10074000FEE20E942E140E949912E881F981A0E82D
:10075000BFE30E9457140E9491120E94A0120E94AF
:10076000A6161CE90E94BE1610E40E94BE16A881BF
:10077000B9811C910E94BE160E94B516089584E6A8
:1007800090E00E94BF120E94A6161CE90E94BE16AD
:10079000A881B9811C910E94BE160E94A6161DE96F
:1007A0000E94BE160E94DD16A2E5B2E01C930E94D4
:1007B000DB16A2E5B2E01C930E94B516E0EFFDE265
:1007C0000E942E140E949416E2E5F2E0D080EE24FE
:1007D000FF2400270E94C5150E945616EDE0F0E0A8
:1007E000A5E0B1E00E940315E4EFFDE20E942E14A3
:1007F0000E949416E5E0F1E00E949B150E94FD1511
:10080000EDE0F0E0A5E0B1E00E940315E5E0F1E0E5
:10081000A0E8BFE30E949B150E94CE120E94911295
:100820000E94A012ECE5FEE20E942E140E94991292
:10083000E881F981A0E8BFE30E9457140E94911259
:10084000E6E6FEE20E942E140E949912E2E5F2E032
:10085000A0E8BFE30E9457140E9491120E94A012C8
:100860000895E8E6FEE20E942E140E9499120E946A
:10087000A01228982B9A88EC90E0A6E4B2E08D9321
:100880009C93709145027F777093450280E090E0E1
:10089000A3E4B2E08D939C937091450270647093D1
:1008A0004502A5E4B2E08C9181FB81E00EF080E08E
:1008B0008F93A5E4B2E08C9187FB81E00EF080E09D
:1008C0009F91892B882311F40C9451040E94080AEB
:1008D000709145027D7F70934502009159020F335C
:1008E00011F00C94BF06E0E7FEE20E942E140E9475
:1008F00099120E94A01200915C02023011F00C9437
:10090000A5068FEFD2018C9381E00E94C7130E944D
:100910009F03229681E00E94C313EAE7FEE20E9451
:100920002E140E9499120E94A012E0E8FEE20E949A
:100930002E140E9499120E94A012E0E8FEE20E948A
:100940002E140E9499120E94A012EAE8FEE20E9470
:100950002E140E9499120E94A01288EC90E0D201FD
:100960008D939C9382E00E94C7130E9446092296B1
:1009700082E00E94C313E2E9FEE20E942E140E946C
:1009800099120E94A012E6E9FEE20E942E140E9433
:100990009912E8E6F2E0A0E8BFE30E9457140E9433
:1009A00091120E94A01286E0D2018C9381E00E94F5
:1009B000C713A8E6B2E08C91D2018D9388278C935F
:1009C00082E00E94C7130E946909249683E00E9476
:1009D000C3138FE0D2018C9381E00E94C71386E09D
:1009E00091E0D2018D939C9382E00E94C7130E94F4
:1009F0006909249683E00E94C313ECE9FEE20E9499
:100A00002E140E9499120E94A01280ED97E0A6E495
:100A1000B2E08D939C93709145027F77709345026D
:100A200080E090E0A3E4B2E08D939C937091450246
:100A30007064709345028091590280930901A9E680
:100A4000B2E08C9187FB16F00C9439057091690225
:100A50007F7770936902ECEAFEE20E942E140E94F6
:100A60009912AFEFB5E00E9493120E94A0120E946B
:100A70003B0AA5E4B2E08C9183FB16F00C9454057C
:100A800070914502777F70934502E2EBFEE20E948F
:100A90002E140E9499120E94A012A3E5B2E0BA930C
:100AA000AA930E94BF032296A3E4B2E00D911C9189
:100AB00044E650E00E947012AAE0B1E00D931C934E
:100AC000AAE0B1E00D911C91003050E0150711F043
:100AD0000C947A05ECEBFEE20E942E140E9499120F
:100AE000E3E4F2E0A0E8BFE30E9447140E94911201
:100AF0000E94A012009109010D3381E009F080E00D
:100B00008F93A5E4B2E08C9187FB81E00EF080E04A
:100B10009F91892B8F9300912502013081E009F08C
:100B200080E09F91892B882311F40C941B05E4EC41
:100B3000FEE20E942E140E9499120E94A0120E94AE
:100B4000080AE2EDFEE20E942E140E9499120E9411
:100B5000A0128FE0D2018C9381E00E94C71386E03F
:100B600091E0D2018D939C9382E00E94C7130E9472
:100B70006909249683E00E94C31384E690E0D201C1
:100B80008D939C9382E00E94C7130E94460922968F
:100B900082E00E94C3130E94080A88E0D2018C936D
:100BA00081E00E94C71380E090E0D2018D939C9376
:100BB00082E00E94C7130E946909249683E00E9484
:100BC000C31388EB9BE0A6E4B2E08D939C937091F5
:100BD00045027F777093450280E090E0A3E4B2E0A5
:100BE0008D939C9370914502706470934502A9E6C1
:100BF000B2E08C9187FB16F00C941106709169029B
:100C00007F7770936902ECEAFEE20E942E140E9444
:100C10009912AFEFB5E00E9493120E94A0120E94B9
:100C20003B0AA5E4B2E08C9181FB16F00C941F0600
:100C3000709145027D7F709345020E94080AA5E4E9
:100C4000B2E08C9183FB16F00C943A067091450249
:100C5000777F70934502E2EBFEE20E942E140E9421
:100C600099120E94A012A3E5B2E0BA93AA930E943F
:100C7000BF032296A3E4B2E00D911C9144E650E03C
:100C80000E947012AAE0B1E00D931C93AAE0B1E0BB
:100C90000D911C91003050E0150711F00C94600686
:100CA000ECEBFEE20E942E140E949912E3E4F2E0C3
:100CB000A0E8BFE30E9447140E9491120E94A01274
:100CC000A5E4B2E08C9187FB81E00EF080E08F9389
:100CD00000912502013081E009F080E09F91892B8D
:100CE000882311F40C94F705ECEDFEE20E942E141B
:100CF0000E9499120E94A0128EE0D2018C9381E092
:100D00000E94C71380E090E0D2018D939C9382E013
:100D10000E94C7130E946909249683E00E94C313AE
:100D200084E690E0D2018D939C9382E00E94C713E9
:100D30000E944609229682E00E94C3130E94080A7C
:100D400081E0809325020C94BD06E6EEFEE20E944F
:100D50002E140E9499120E94A012ECEEFEE20E9454
:100D60002E140E9499120E94A012ECEEFEE20E9444
:100D70002E140E9499120E94A0120C94DB06E6EF3A
:100D8000FEE20E942E140E9499120E94A0122B983B
:100D90002C9880E0D2018C9381E00E94C7130E94BE
:100DA0009F03229681E00E94C313289A7091280223
:100DB0007068709328020895EAE0FFE20E942E1402
:100DC0000E9499120E94A01228982B9A88EC90E019
:100DD000A6E4B2E08D939C93709145027F77709367
:100DE000450280E090E0A3E4B2E08D939C93709183
:100DF0004502706470934502A5E4B2E08C9181FBDA
:100E000081E00EF080E08F93A5E4B2E08C9187FB47
:100E100081E00EF080E09F91892B882311F40C94DF
:100E2000FC060E94080A709145027D7F709345027E
:100E3000009159020F3311F00C941B09E0E7FEE218
:100E40000E942E140E9499120E94A01200915C022E
:100E5000023011F00C9401098FEFD2018C9381E0E4
:100E60000E94C7130E949F03229681E00E94C31331
:100E7000EAE7FEE20E942E140E9499120E94A0123C
:100E8000EAE1FFE20E942E140E9499120E94A01231
:100E9000EAE1FFE20E942E140E9499120E94A01221
:100EA0008FE0D2018C9381E00E94C71388E091E02B
:100EB000D2018D939C9382E00E94C7130E9469091E
:100EC000249683E00E94C313E4E2FFE20E942E1402
:100ED0000E9499120E94A01280ED97E0A6E4B2E071
:100EE0008D939C93709145027F777093450280E0CB
:100EF00090E0A3E4B2E08D939C93709145027064FE
:100F0000709345028091590280930901A9E6B2E0ED
:100F10008C9187FB16F00C94A007709169027F7783
:100F200070936902ECEAFEE20E942E140E9499126C
:100F3000AFEFB5E00E9493120E94A0120E943B0AFC
:100F4000A3E4B2E00D911C9144E650E00E947012BF
:100F5000AAE0B1E00D931C93AAE0B1E00D911C91C1
:100F6000003050E0150711F00C94C607ECEBFEE2E0
:100F70000E942E140E949912E3E4F2E0A0E8BFE37D
:100F80000E9447140E9491120E94A0120091090130
:100F90000D3381E009F080E08F93A5E4B2E08C91FD
:100FA00087FB81E00EF080E09F91892B8F93009169
:100FB0002502013081E009F080E09F91892B882390
:100FC00011F40C948207E6E3FFE20E942E140E94C3
:100FD00099120E94A0120E94080AE6E4FFE20E9411
:100FE0002E140E9499120E94A0128FE0D2018C93BD
:100FF00081E00E94C71388E091E0D2018D939C9319
:1010000082E00E94C7130E946909249683E00E942F
:10101000C31384E690E0D2018D939C9382E00E94FA
:10102000C7130E944609229682E00E94C3130E94C1
:10103000080A88E0D2018C9381E00E94C71380E007
:1010400090E0D2018D939C9382E00E94C7130E948E
:101050006909249683E00E94C31380E080932902EB
:1010600080E797E1A6E4B2E08D939C9370914502EE
:101070007F777093450280E090E0A3E4B2E08D9327
:101080009C9370914502706470934502A9E2B2E0AE
:101090008C918F5F8C93A9E6B2E08C9187FB16F060
:1010A0000C946508709169027F7770936902ECEA8D
:1010B000FEE20E942E140E949912AFEFB5E00E944A
:1010C00093120E94A0120E943B0AA5E4B2E08C9108
:1010D00081FB16F00C947308709145027D7F70932C
:1010E00045020E94080AA3E4B2E00D911C9144E677
:1010F00050E00E947012AAE0B1E00D931C93AAE0A8
:10110000B1E00D911C91003050E0150711F00C94E6
:101110009908ECEBFEE20E942E140E949912E3E47F
:10112000F2E0A0E8BFE30E9447140E9491120E94DF
:10113000A012A5E4B2E08C9187FB81E00EF080E084
:101140008F9300912502013081E009F080E09F91AA
:10115000892B882311F40C944B08E2E5FFE20E94EE
:101160002E140E949912E9E2F2E0A0E8BFE30E9487
:1011700057140E9491120E94A012009129020E3170
:1011800081E009F080E08F9300912502013081E039
:1011900009F080E09F91892B882311F40C9430088A
:1011A000ECE5FFE20E942E140E9499120E94A01208
:1011B0008EE0D2018C9381E00E94C71380E090E022
:1011C000D2018D939C9382E00E94C7130E9469090B
:1011D000249683E00E94C31384E690E0D2018D93AD
:1011E0009C9382E00E94C7130E944609229682E0E7
:1011F0000E94C3130E94080A81E0809325020C9488
:101200001909E6EEFEE20E942E140E9499120E9435
:10121000A012E8E6FFE20E942E140E9499120E949A
:10122000A012E8E6FFE20E942E140E9499120E948A
:10123000A0120C944509E6EFFEE20E942E140E94D3
:1012400099120E94A0122B982C9880E0D2018C93C6
:1012500081E00E94C7130E949F03229681E00E94B2
:10126000C313289A84E690E0D2018D939C9382E088
:101270000E94C7130E944609229682E00E94C3136F
:10128000709128027064709328020895A881B98132
:101290008D919C91A1E4B2E08D939C9380E090E0CD
:1012A000AFE3B2E08D939C93709128027E7F7093A0
:1012B000280270912802726070932802A8E2B2E0BE
:1012C0008C9180FB16F40C946809A8950C945E0927
:1012D0000895A5E1B1E0E2E7FFE20E942E140E942A
:1012E000CD13EA81FB81A5E1B1E00E948A120E9440
:1012F000CB14A5E1B1E00E948A12E8E8FFE20E9467
:101300002E140E94CD13E881F981A5E1B1E00E947D
:101310008A120E94CD1486E080932E02AA81BB819E
:101320008C9180932F0281E080933002A5E1B1E09F
:101330000E9493120E94A012A881B98111968C91EB
:10134000A3E0B1E08C93E3E0F1E0A0E8BFE30E940A
:10135000CB140E9491120E94A012809103018093ED
:101360003102A881B9818C91A3E0B1E08C93E3E0D4
:10137000F1E0A0E8BFE30E94CB140E9491120E940A
:10138000A01280910301809332028FEE8093350288
:101390008AE0809367020E94B40F81E08093040189
:1013A0004091670200910401041718F011F00C94A9
:1013B000050AE4E0F1E0A190BB24EBE2F2E0EA0DE3
:1013C000FB1DA0E8BFE30E94CB140E949112E0E94C
:1013D000FFE20E942E140E949912A4E0B1E0AD90A9
:1013E000BB24ABE2B2E0AA0DBB1D8C91809300013F
:1013F00031E0A0E0B1E00E94AA12A4E0B1E08C913B
:101400008F5F8C9310F40C94D0090E94A012089561
:10141000E2E9FFE20E942E140E9499120E94A0129B
:1014200081E0809300014091660200910001041761
:1014300018F011F00C94380AE0E0F1E0A190BB2420
:10144000E5E5F2E0EA0DFB1DA0E8BFE30E94CB1446
:101450000E949112E6E6FEE20E942E140E9499126A
:10146000A0E0B1E08C918F5F8C9310F40C94130A80
:101470000E94A012089581E0EFEFF5E006E00A93E4
:10148000A0EFB1E00E940915EFEFF5E09CE204E166
:1014900032E2ABE6B2E00E946615AAE6B2E02C9317
:1014A000ABE6B2E00E944A15082F063011F00C940A
:1014B000240FEBE6F2E0AEE0B1E00E94FE14EEE0B5
:1014C000F1E0AEE0B1E00E9407148FEF8093DE01FF
:1014D000AEE0B1E0E2EAFFE20E942E140E94501555
:1014E00011F00C94B40A80E08093DE01A5E1B1E034
:1014F000EAEAFFE20E942E140E94CD13A0EFB1E0B1
:10150000E0E2FEE20E942E140E94CD13E0EFF1E033
:10151000A5E1B1E00E948A120E94FE14A5E1B1E0AB
:101520000E948A12EEEBFFE20E942E140E94CD135D
:10153000A0EFB1E0ECE3FEE20E942E140E94CD1376
:10154000E0EFF1E0A5E1B1E00E948A120E94FE14F2
:10155000A5E1B1E00E948A12ECECFFE20E942E1499
:101560000E94CD130C94220FEEECFFE20E942E1489
:101570000E94501511F00C94F30A00916A02023097
:1015800011F00C94EE0AA0E8B2E00E949C14A0E0D6
:10159000B1E00C9300910001013110F00C94E90AC4
:1015A00080E08093DE01A5E1B1E0E6EDFFE20E947C
:1015B0002E140E94CD13E0E0F1E0A5E1B1E00E941D
:1015C0008A120E9457148091000180933E020C946D
:1015D000EC0A85E08093DE010C94F10A84E08093AC
:1015E000DE010C94220FEEEEFFE20E942E140E9408
:1015F000501511F00C94160B00916A02013011F095
:101600000C94110B80E08093DE012B9A2C98A5E1BD
:10161000B1E0E6EFFFE20E942E140E94CD130C947D
:10162000140B84E08093DE010C94220FE8E1F0E3D8
:101630000E942E140E94501511F00C94390B009149
:101640006A02013011F00C94340B80E08093DE01CB
:101650002C9A2B98A5E1B1E0E0E2F0E30E942E1471
:101660000E94CD130C94370B84E08093DE010C9420
:10167000220FE2E4F0E30E942E140E94501511F0B4
:101680000C945B0B00916A02013011F00C94560B24
:1016900080E08093DE012B98A5E1B1E0EAE4F0E37D
:1016A0000E942E140E94CD130C94590B84E0809359
:1016B000DE010C94220FEEE5F0E30E942E140E944E
:1016C000501511F00C947D0B00916A02013011F05D
:1016D0000C94780B80E08093DE012C98A5E1B1E0BA
:1016E000E6E6F0E30E942E140E94CD130C947B0BCF
:1016F00084E08093DE010C94220FEAE7F0E30E947D
:101700002E140E94501511F00C94AD0C00916A0239
:10171000023011F00C94F20B80E08093DE01A0E81F
:10172000B2E00E94E414A2E0B1E00C93A5E1B1E0C4
:10173000E2E7FFE20E942E140E94CD13E0E8F2E0FF
:10174000A5E1B1E00E948A120E94FE1484E0809319
:101750002E028091020180932F0280E0809330025C
:101760008FEE8093330288E0809367020E94B40F6B
:1017700081E0809304014091670200910401041705
:1017800018F011F00C94F00BE4E0F1E0A190BB2410
:10179000EBE2F2E0EA0DFB1DA0E8BFE30E94CB14F0
:1017A0000E949112E0E9FFE20E942E140E94991219
:1017B000A4E0B1E0AD90BB24ABE2B2E0AA0DBB1D4A
:1017C0008C918093000131E0A0E0B1E00E94AA1268
:1017D000A4E0B1E08C918F5F8C9310F40C94BB0B60
:1017E0000E94A01200916A02033011F00C94AB0C1D
:1017F00080E08093DE01A0E8B2E00E94E414A2E061
:10180000B1E00C93A5E9B2E00E94E414AAE0B1E0D3
:101810000D931C93A5E1B1E0E2E7FFE20E942E14D4
:101820000E94CD13E0E8F2E0A5E1B1E00E948A1247
:101830000E94FE14A5E1B1E00E948A12E8E8FFE2EE
:101840000E942E140E94CD13E5E9F2E0A5E1B1E07B
:101850000E948A120E94FE1486E080932E028091DC
:10186000020180932F0281E080933002EAE0F1E0F0
:10187000A0E8BFE30E94CD140E9491120E94A01222
:10188000AAE0B1E011968C91A3E0B1E08C93E3E083
:10189000F1E0A0E8BFE30E94CB140E9491120E94E5
:1018A000A0128091030180933102AAE0B1E08C91F3
:1018B000A3E0B1E08C93E3E0F1E0A0E8BFE30E9495
:1018C000CB140E9491120E94A01280910301809378
:1018D00032028FEE809335028AE0809367020E9485
:1018E000B40F81E0809304014091670200910401EC
:1018F000041718F011F00C94A90CE4E0F1E0A190A9
:10190000BB24EBE2F2E0EA0DFB1DA0E8BFE30E947E
:10191000CB140E949112E0E9FFE20E942E140E9473
:101920009912A4E0B1E0AD90BB24ABE2B2E0AA0D05
:10193000BB1D8C918093000131E0A0E0B1E00E94DA
:10194000AA12A4E0B1E08C918F5F8C9310F40C94F8
:10195000740C0E94A0120C94220FE2E8F0E30E94A3
:101960002E140E94501511F00C94E20C00916A02A2
:10197000023011F00C94DD0C80E08093DE01A0E8D1
:10198000B2E00E94E414A1E5B2E00C93A5E1B1E05D
:10199000EAE8F0E30E942E140E94CD13E1E5F2E0A4
:1019A000A5E1B1E00E948A120E94CB147091450219
:1019B0007061709345020C94E00C84E08093DE012A
:1019C0000C94220FE8E9F0E30E942E140E945015B7
:1019D00011F00C94490D00916A02023011F00C9440
:1019E000440DA0E8B2E00E949C14A0E0B1E00C938A
:1019F00000910001003080E010F009F081E08F9349
:101A000000910001053081E008F080E09F9189237A
:101A1000882311F40C943F0D709145027860709307
:101A2000450280E08093DE010091000141E0041B4B
:101A3000A3E5B2E00C93A5E1B1E0E0EAF0E30E9497
:101A40002E140E94CD13E0E0F1E0A5E1B1E00E9488
:101A50008A120E945714A5E1B1E00E948A12EEEAB0
:101A6000F0E30E942E140E94CD13E3E5F2E0A5E11D
:101A7000B1E00E948A120E9457140C94420D85E036
:101A80008093DE010C94470D84E08093DE010C947A
:101A9000220FEAEBF0E30E942E140E94501511F081
:101AA0000C949D0D00916A02023011F00C94980D77
:101AB00080E08093DE01A0E8B2E00E949C14A0E0E8
:101AC000B1E00C9300910001043081E008F080E067
:101AD0008F9300910001003080E010F009F081E068
:101AE0009F918923882311F40C94930D8091000118
:101AF00080932502E0E0F0E0A0E0B1E07BE70E9407
:101B00001F15A5E1B1E0E2ECF0E30E942E140E9463
:101B1000CD13E5E2F2E0A5E1B1E00E948A120E9455
:101B200057140C94960D85E08093DE010C949B0D68
:101B300084E08093DE010C94220FEAEDF0E30E9432
:101B40002E140E94501511F00C94B40D80E0809377
:101B5000DE01A5E1B1E0E2EEF0E30E942E140E9466
:101B6000CD1328980C94220FE2EFF0E30E942E147C
:101B70000E94501511F00C94CB0D80E08093DE0193
:101B8000A5E1B1E0EAEFF0E30E942E140E94CD132C
:101B9000289A0C94220FEAE0F1E30E942E140E948E
:101BA000501511F00C94E60D80E08093DE01A5E164
:101BB000B1E0E2E1F1E30E942E140E94CD13709196
:101BC00028027061709328020C94220FE4E2F1E382
:101BD0000E942E140E94501511F00C94010E80E00A
:101BE0008093DE01A5E1B1E0ECE2F1E30E942E1466
:101BF0000E94CD13709128027F7E709328020C946E
:101C0000220FEEE3F1E30E942E140E94501511F012
:101C10000C94D10E00916A02023011F00C946A0EFD
:101C200080E08093DE01A0E8B2E00E949C14A0E076
:101C3000B1E00C9384E180936802009100010430CC
:101C400081E008F080E08F9300910001003080E097
:101C500010F009F081E09F918923882311F40C94FE
:101C6000650E8091000180932502E0E0F0E0A0E0A5
:101C7000B1E07BE70E941F15A5E1B1E0E6E4F1E3E6
:101C80000E942E140E94CD13E5E2F2E0A5E1B1E03E
:101C90000E948A120E945714A5E1B1E00E948A12A4
:101CA000E4E6F1E30E942E140E94CD13E8E6F2E090
:101CB000A5E1B1E00E948A120E9457147091280297
:101CC0007860709328020C94680E85E08093DE01A2
:101CD0000C94CF0E033011F00C94CC0E80E0809366
:101CE000DE01A0E8B2E00E949C14A0E0B1E00C93F9
:101CF000A5E9B2E00E949C14A8E6B2E00C93009122
:101D00000001043081E008F080E08F930091000131
:101D1000003080E010F009F081E09F918923882352
:101D200011F40C94C70E8091000180932502E0E02D
:101D3000F0E0A0E0B1E07BE70E941F15A5E1B1E073
:101D4000E6E4F1E30E942E140E94CD13E5E2F2E0F6
:101D5000A5E1B1E00E948A120E945714A5E1B1E00A
:101D60000E948A12E4E6F1E30E942E140E94CD1331
:101D7000E8E6F2E0A5E1B1E00E948A120E94571461
:101D8000709128027860709328020C94CA0E85E046
:101D90008093DE010C94CF0E84E08093DE010C94DE
:101DA000220FEEE6F1E30E942E140E94501511F06E
:101DB0000C94010F00916A02023011F00C94FC0E99
:101DC00080E08093DE01A0E8B2E00E949C14A9E2CA
:101DD000B2E00C93A5E1B1E0E6E7F1E30E942E1436
:101DE0000E94CD13E9E2F2E0A5E1B1E00E948A127F
:101DF0000E9457140C94FF0E84E08093DE010C9433
:101E0000220FECE8F1E30E942E140E94501511F00D
:101E10000C941F0F80E08093DE01A5E1B1E0E4E9BE
:101E2000F1E30E942E140E94CD13E9E2F2E0A5E155
:101E3000B1E00E948A120E9457140C94220F81E094
:101E40008093DE010C94270F82E08093DE010091E5
:101E5000DE01003018F011F00C94300F0C943E0F9E
:101E6000E6E1F1E20E942E14AEEDB1E08C919927EB
:101E70000E94FF13A5E1B1E00E94CD13A5E1B1E0FE
:101E80000E9493120E94A012089540912602009190
:101E90002502041711F40C94B30FEEE9F1E30E944C
:101EA0002E140E949912E5E2F2E0A0E8BFE30E943E
:101EB00057140E9491120E94A012809125028093D3
:101EC000260200912502013011F00C947B0F81E075
:101ED00080933E02709128027F7770932802709160
:101EE00028027F7B709328027091280270627093A1
:101EF00028020C94B30F023011F00C94930F82E07F
:101F000080933E027091280270687093280270914D
:101F100028027F7B70932802709128027F7D709346
:101F200028020C94B30F033011F00C94AB0F83E034
:101F300080933E02709128027F77709328027091FF
:101F40002802706470932802709128027F7D70933C
:101F500028020C94B30FE6EAF1E30E942E140E94CB
:101F600099120E94A012089500916702083011F0A2
:101F70000C94111080E090E0AAE2B2E08D939C9363
:101F8000AAE2B2E00D911C91ADE2B2E04D9155276D
:101F9000040F151FAAE2B2E00D931C93AAE2B2E06F
:101FA0000D911C91AEE2B2E04D915527040F151F23
:101FB000AAE2B2E00D931C93AAE2B2E00D911C914B
:101FC000AFE2B2E04D915527040F151FAAE2B2E02F
:101FD0000D931C93AAE2B2E00D911C91A0E3B2E034
:101FE0004D915527040F151FAAE2B2E00D931C93E3
:101FF00000E010E0AAE2B2E04D915C91041B150BE9
:10200000AAE2B2E00D931C93AAE2B2E011968C9181
:10201000A1E3B2E08C93AAE2B2E08C91A2E3B2E039
:102020008C93009167020A3011F00C948A1080E0C2
:1020300090E0AAE2B2E08D939C93AAE2B2E00D9107
:102040001C91ADE2B2E04D915527040F151FAAE295
:10205000B2E00D931C93AAE2B2E00D911C91AEE2A6
:10206000B2E04D915527040F151FAAE2B2E00D937F
:102070001C93AAE2B2E00D911C91AFE2B2E04D9147
:102080005527040F151FAAE2B2E00D931C93AAE294
:10209000B2E00D911C91A0E3B2E04D915527040FE1
:1020A000151FAAE2B2E00D931C93AAE2B2E00D91D3
:1020B0001C91A1E3B2E04D915527040F151FAAE230
:1020C000B2E00D931C93AAE2B2E00D911C91A2E341
:1020D000B2E04D915527040F151FAAE2B2E00D930F
:1020E0001C9300E010E0AAE2B2E04D915C91041B69
:1020F000150BAAE2B2E00D931C93AAE2B2E011968E
:102100008C91A3E3B2E08C93AAE2B2E08C91A4E3B9
:10211000B2E08C9308954F4B00436F6D616E646F16
:10212000206E6F207265636F6E6F6369646F004C21
:102130006F6E676974756420636F6D616E646F2084
:102140006E6F2076616C696461004E756D65726FAB
:10215000206465207573756172696F206E6F2076DB
:10216000616C69646F004E756D65726F20646520E7
:10217000706172616D6574726F7320696E76616CE7
:1021800069646F004572726F72206C6F6E6769745C
:10219000756420706172616D6574726F20310045E5
:1021A00072726F72206C6F6E6769747564207061F3
:1021B00072616D6574726F203200506172616D657D
:1021C00074726F206E6F2076616C69646F00455287
:1021D000524F5238004552524F522053442E2049FC
:1021E0006E74656E7465206465206E7565766F002B
:1021F0000000000003000000330000003303000073
:102200003333000033330300333333003333B3014C
:102210003333B31933333333777777770C00FCFFDD
:10222000CC00FCFFCC0CFCFFCCCCFCFF0C00FCFF7A
:10223000F0FFFFFF000000000100000005000000AB
:102240001500000055000000550100005505000074
:1022500055150000555500005555010077770700CA
:102260000E944C03A9E6B2E08C9187FB16F00C9417
:102270004C11709169027F7770936902ECEAFEE27B
:102280000E942E140E949912AFEFB5E00E949312A3
:102290000E94A0120E943B0AA5E4B2E08C9181FB4F
:1022A00016F00C945A11709145027D7F709345028F
:1022B0000E94080AA5E4B2E08C9184FB16F00C940D
:1022C0007B11709145027F7E70934502EAEBF1E34A
:1022D0000E942E140E9499120E94A0128091510215
:1022E000D2018C9381E00E94C7130E949F03229623
:1022F00081E00E94C313A5E4B2E08C9183FB16F049
:102300000C94961170914502777F70934502E4EC2E
:10231000F1E30E942E140E9499120E94A012A3E5DC
:10232000B2E0BA93AA930E94BF032296A8E2B2E059
:102330008C9185FB16F00C94C911709128027F7D59
:1023400070932802E2EDF1E30E942E140E9499128C
:102350000E94A012EAEDF1E30E942E140E9499124D
:102360000E94A012EAEDF1E30E942E140E9499123D
:102370000E94A0122B982C9880E0D2018C9381E0CF
:102380000E94C7130E949F03229681E00E94C313FC
:10239000289AA8E2B2E08C9183FB16F00C94F3111A
:1023A00070912802777F70932802E4EEF1E30E9497
:1023B0002E140E949912E5E2F2E0A0E8BFE30E9429
:1023C00057140E949112E6E6FEE20E942E140E942B
:1023D0009912E8E6F2E0A0E8BFE30E9457140E94D9
:1023E00091120E94A012A8E2B2E08C9187FB16F035
:1023F0000C940112709128027F77709328020E943A
:102400003104A8E2B2E08C9186FB16F00C940F1216
:10241000709128027F7B709328020E94DC061D9930
:102420000C944212EEEEF1E30E942E140E949912D7
:102430000E94A012709128027F7D709328022B9831
:102440002C9880E0D2018C9381E00E94C7130E94F7
:102450009F03229681E00E94C313289AA7E2B2E06C
:102460008C918F5F8C93A7E2B2E00C9100FB16F089
:102470000C943F1282E0809325020C94421281E07A
:10248000809325020E94450F0C943211ED91FC912E
:10249000EF5FFF4FFC93EE93089500FC10D008957A
:1024A00003D01ED001F8F9CF0024E89457FF02C0F2
:1024B00009D0689400F80BD010F80124089502D0D8
:1024C00009D00895509540954F5F5F4F0895E89467
:1024D00017FF0895009510950F5F1F4F689408959A
:1024E000352F242FE894452B11F468940895512F2B
:1024F000402F0027112780E1440F551F001F111F97
:10250000021B130B416018F4020F131F4E7F8A95B4
:1025100099F708958F938D918823E9F711978F91FB
:102520000895A0E8BFE38D91882311F00CD0FBCF74
:1025300008950E94D313802D11F005D0FACF08958D
:102540008DE001D08AE00090C00005FEFCCF8093B2
:10255000C60008958D9103D03A95E1F70895009053
:10256000C80005FEFCCF8093CE0008953197F1F7A7
:102570000895689462F80895E89462F80895EF93D6
:10258000FF93EE27E82BE92B31F0E3E3F7E03197F7
:10259000F1F70197D1F7FF91EF9108958DE207FDD3
:1025A0008D938F2D881F802F881F8F57082F689439
:1025B000F7F8802F87FF17C080958395082F80E359
:1025C0008D938EE28D93802F815238F080E38D932E
:1025D00099279C930E942314089544270A95802FDD
:1025E00009F19ED01FC0805230F09EE49D9381E49B
:1025F0008D939D93EDCF4427DF92EF92FF920F933F
:102600008FE1801B11F0082F8BD091D09EE29D931B
:102610000F91FF90EF90DF9044270395003209F46B
:10262000D5CF33D03F93E0ECF6E20E942E1438E190
:102630002F2D1E2D0D2DFF24EE24DD244427000F09
:10264000111F221FB8F42F923F920E94D313102C17
:102650000E94D313202C0E94D313302C0E94D3133A
:1026600031970E94F813410DD21CE31CF01C3F90DF
:102670002F9003C033960E94F11331960E94F113FC
:102680003A95E9F63F9107D0A5CFDD0CEE1CFF1C73
:102690000A95D9F70895002719E058D08F93802B19
:1026A00011F0039501C08F911A95B9F7802F8823F7
:1026B00009F48CCF8F91805D8D930A95D9F788CFDF
:1026C0000065CD1D80B2E60E40597307A0ACB9037A
:1026D00050D6DC01286BEE0094357700CA9A3B0097
:1026E00065CD1D00B2E60E0059730700ACB90300BA
:1026F000D6DC01006BEE0000357700009A3B00004D
:10270000CD1D0000E60E000073070000B9030000B5
:10271000DC010000EE000000770000003B0000003C
:10272000F694E794D79447950A95D1F70895002732
:102730000DD08F9303958F2D8E298D29842BC1F772
:102740008F91805D8D930A95D9F742CF1F930F9398
:10275000002710E2440FDD1CEE1CFF1C001F802F21
:102760009AE0890B10F0082F43951A9599F7802F5E
:102770000F911F9108950191119121913081089538
:10278000481A590A0895481A8827580A0895992717
:102790005A924A92480E591E08950E94D3130D92E0
:1027A0000020D9F70895D895319628F48F938BB7E8
:1027B00083958BBF8F910020089591E005C092E032
:1027C00003C094E001C098E0EEDF0D929A95E1F726
:1027D0000895880F991F880F991FE80FF91F01D0DE
:1027E000F0CF28F48F938BB783958BBF8F9108958B
:1027F00028F48F938BB78A958BBF8F91089501969C
:10280000019721F00E94D313E9F7FACF089581913F
:1028100004D08D938823D9F70895813618F08B372B
:1028200008F48F7D089591E0882321F08894991F02
:102830008A95E9F7892F90950895883018F01196B8
:102840008850FBCF08950F9200240BBE0F9008957F
:102850000F9301E00BBF0F91889408950F93002709
:10286000F9CF0F9302E0F6CF040F151F261F371F75
:102870000895000F111F221F331F08950095109512
:10288000209530950F5F1F4F2F4F3F4F08950191B7
:1028900010810FC00E94BB130EC00E94BB1310C05A
:1028A0000191108117FF05C03FEF2FEF04C0008199
:1028B00011272227332737FF03C0E0DF8DE28D93F6
:1028C000CF92DF92EF92AA24BB24CC24DD24EE2405
:1028D00040E2EAE0FF2755E093E38081890F87FD1E
:1028E0009F7083FD907F891B81935A95A9F7C1DF63
:1028F000AA1CBB1CCC1CDD1CEE1C4A9551F7E894AD
:10290000EFE0FF2782910BD0EB30E0F71EF06894E8
:102910008A2D09D04D93EF90DF90CF900895982F96
:10292000829501D0892F8F70805D26F0803309F465
:10293000089568948D93089500271127222733273F
:102940001DD08A3328F4803318F005D015D0F9CF84
:102950000EF494CF089580538F93402F512F622F00
:10296000732F87DF86DF80DF84DF8F919927080F41
:10297000191F291F391F08958D910895E894FCDFD0
:102980008032E9F38B32D9F38930C9F38D3211F4F7
:102990006894F2CF089541E003C042E001C044E0F2
:1029A000E40F8827F81F8291982F829506D0892FEF
:1029B00004D04A95C1F70C94FB148F708A3008F04C
:1029C000895F805D8D930895002711272227332783
:1029D0008D91882379F04DDF4CDF4BDF4ADF1DDF1F
:1029E000815408F4895F865F080F8827181F281F05
:1029F000381FEECF089588278D93089581918D9388
:102A00008823E1F7089594E081918D939A95E1F7F9
:102A1000089509919191992359F08A95D9F73197A1
:102A2000002331F081918D930A958823C9F7089589
:102A3000E2CFF999FECFE1BDF2BD3196089591E064
:102A400001C092E07B3751F47FB7F894F2DF8D91AB
:102A500080BDFA9AF99A9A95C9F77FBF77270895AA
:102A600091E001C092E0E5DFF89A80B58D939A95E8
:102A7000D1F70895FF93881BF9E0001FFA9511F430
:102A8000FF910895881F841B18F4840F8894F5CF54
:102A90000894F3CF8FEF83959D919923E1F70895E3
:102AA000689401C0E894AF93BF938D9116F0919113
:102AB00003C00E94D313902D891718F011F48823B6
:102AC000A1F7BF91AF910895689401C0E8942227BF
:102AD000102F231709F4089526F40E94D313802D94
:102AE00001C08191803081F0891741F070E08D93B1
:102AF0001A9591F7239571E01D93EACF01D0E8CFA5
:102B0000703011F077270895772331F423958827C3
:102B100013958D931A95E9F70895B7FE089590E8F7
:102B2000B91611F4D0FE08959FEFD91AE90AF90AEF
:102B300009F403950895D190E190F19001910895E1
:102B400021913191419151910895502F2D2D3E2D7C
:102B50004F2D612F0895652F90E8440F551F592779
:102B6000990F47956078102F90E8FF0C001F0927F8
:102B7000990FF794107800380895FF0C90E890278B
:102B8000110F9795F794092F0895102FBD2CDE2C67
:102B9000EF2CF02E11234AF4B094D094E094F094EA
:102BA0009FEFB91AD90AE90AF90A0EE1FF2039F4B0
:102BB000FE2CED2CDB2CBB240850C2F752C032F0A7
:102BC0000A95BB0CDD1CEE1CFF1CF9CFA6DFD5CF90
:102BD0002DEC3CEC4CEC5DE366270FC0ACDFB5DFC1
:102BE000DD24EE2490E8F92E0FE307C0A9DF05C02D
:102BF0002227332740E251E46627552351F1002371
:102C000081F1A9DF71F11627005850580894050B7F
:102C100018F407FD03C025C007FD23C0469537956E
:102C20002795F694E794D79425D0FF202AF0DD0C61
:102C3000EE1CFF1C015073F09D2D969548F0DD2091
:102C40003AF4EE202AF491E0D90E9927E91EF91EF4
:102C500094CF07C09FE7092FF92A9FEFD92EE92EBD
:102C60000895DD24EE24FF240027112708950FE79F
:102C70009FEFF2CF9F929924AA24BB2488E1D21619
:102C8000E306F40628F0D21AE30AF40A089401C015
:102C90008894991CAA1CBB1CDD0CEE1CFF1C8A9599
:102CA00071F7D92CEA2CFB2C9F90089554DFD9F0B2
:102CB0005038C9F016270058952F90580894091FCE
:102CC00012F418F40EC008F00EC00FD0FF202AF046
:102CD000BB0CDD1CEE1CFF1C02C0039513F01DDFB6
:102CE0004CCF0C942A160C9431169F92FF92EF92BF
:102CF0008D2DFF24EE24DD24BB2493E0849F10015E
:102D0000829FB00CD11CE21CF31C839FD00CE11CF1
:102D10002224F21C9A9531F0BD2CDE2CEF2CFF24DE
:102D20008F91ECCF9F9008950E94D313202D0E9485
:102D3000D313302D0E94D313402D0E94D313502D56
:102D4000089538983998409841980895399A389854
:102D500003D0399801D0389AEF93FF93E5E0F0E083
:102D60000E94B612FF91EF910895399A389AF4DFD4
:102D70003998319BFECFF0DF3898EECF0894111FC1
:102D800001C0110F69F0399A18F40000389802C098
:102D9000389A00C0E1DF3998319BFECFDDDFF1CFFB
:102DA000399A3898D9DF3998319BFECFE894309919
:102DB000689462F8D1CF089401C08894331F11E061
:102DC000399A3898C9DF3998319BFECFC5DF88948E
:102DD00030990894111FA0F7399A379510F4389854
:102DE00001C0389AB9DF3998319BFECFB5DF08951D
:102DF0000000F04100007F432A2A2A2A2A2A2A2A90
:102E00002A2A2A2A204452495645522041554449EB
:102E10004F202A2A2A2A2A2A2A2A2A2A2A2A00004B
:102E200032352D30362D323032342031353A34328D
:102E30003A343800302E312E313535004452564167
:102E40005544494F2E424153000045737461646FED
:102E50003D007772206461632C200000244C4545BE
:102E60004932432C00002C00494E4954455354002C
:102E70004D6F64756C6F204F4E005344204F4B00D4
:102E8000244452564155442C320057616974203213
:102E9000000046494E00566F6C3D0000546F6E6F47
:102EA00020496E666F2054455354000053455231FB
:102EB0003D00524541442041444300005430434EBC
:102EC00054523D0046696E20746F6E6F20546573D6
:102ED0007400546F6E6F20544553540046494E2081
:102EE0005445535400004E4F20534400244452563E
:102EF0004155442C34004D6F64756C6F204E4F204B
:102F000050726573656E74650000414C45525441C2
:102F1000204E4152414E4A410000244452564155F0
:102F2000442C3300546F6E6F20496E666F20414C05
:102F300041524D41000046696E20746F6E6F204112
:102F40004C41524D4100546F6E6F20414C41524DE7
:102F50004100436E74726D696E3D000046494E201B
:102F6000414C41524D410000244452564155442C9D
:102F70003500436F6D616E646F2061204446506C74
:102F800061707965723D00002C205041523D000077
:102F90003B00526573702E204446506C6179657217
:102FA0003A004C4545564657000056657273696FA6
:102FB0006E2046573A204665636861203C003E2CEF
:102FC000204172636869766F203C00003E005345E3
:102FD000544C45440000536520636F6E6669677505
:102FE0007261207365746C65642061200000454E39
:102FF00041494E310000536520686162696C697413
:103000006F20494E31207920646573686162696C74
:1030100069746F20494E3200454E41494E320000DE
:10302000536520686162696C69746F20494E322073
:103030007920646573686162696C69746F20494EB8
:103040003100444953494E31000053652064657393
:10305000686162696C69746F20494E3100004449AF
:1030600053494E320000536520646573686162699C
:103070006C69746F20494E320000534554444650E9
:10308000000053455449324300002053616C696489
:103090006120444143203D004C45454932430000F6
:1030A0004C656374757261204144432000002045E3
:1030B0004E2043414E414C2000005345545354414F
:1030C0000000536520636F6E66696775726F2065D7
:1030D000737461646F20612000005345544D503378
:1030E00000004D6F64756C6F2020445850204F4E87
:1030F00000005253544D503300004D6F64756C6F97
:103100002020445850204F46460053455453454EC6
:10311000000054657374204F6E6461203530302098
:10312000487A000052535453454E0000526573656F
:1031300074204F6E64612035303020487A0044524C
:10314000564155440000536520636F6E666967758C
:10315000726F2065737461646F2044525641554408
:103160002061200020636F6E20564F4C3D00534578
:10317000544D494E0000536520636F6E6669677554
:10318000726F20636E74726D696E20004C45454D00
:10319000494E0000436E74726D696E2000005354F6
:1031A000415455533D0045737461646F206E6F2028
:1031B000646566696E69646F000057524954452022
:1031C0004441430052454144204932432041444355
:1031D00000004E4F524D414C000024445256415580
:1031E000442C3100244452564155442C000054458F
:1031F000535420706F722069627574746F6E000092
:00000001FF
