:100000000C94460018950000189500001895000003
:10001000189500000C94DB0218950000189500005C
:10002000189500001895000018950000189500001C
:10003000189500001895000018950000189500000C
:100040000C94D501189500000C94B100189500008F
:1000500018950000189500001895000018950000EC
:1000600018950000189500001895000018950000DC
:1000700018950000189500000C9443011895000095
:100080001895000018950000189500008FEF8DBF9F
:10009000C0E8E8E94E2E80E18EBFD0E1FFE05F2EA0
:1000A000A89584B7082E807E84BF88E1992781BDFA
:1000B00091BDEEEFFFE0A0E0B1E088278D9331978E
:1000C000E9F787E689B980E08093900088E18AB9F2
:1000D00080E08093980087E68093990088E1809380
:1000E0009A006624A59AA69AA79A709164007460F3
:1000F00070936400B99ABB9ABC9ABD9ABE9ABF9A93
:100100008C988D988E988F981498949A959A969A20
:10011000979AA098A198A298A89AA99AAA9AD49ACC
:10012000D59AD69AD79AA49A87E083BF77B7716099
:1001300077BF87E083BF579A70919A007068709379
:100140009A0087E886B980E087B9339A379A79B7F9
:10015000706179BF8AB78C7F81608ABF78940C9474
:1001600052170F921F922F923F924F925F927F925F
:10017000AF92BF920F931F932F933F934F935F9331
:100180006F937F938F939F93AF93BF93CF93DF939F
:10019000EF93FF938FB78F938BB78F9388278BBF86
:1001A000A8E7B6E08CB18C9384E2482F00917806E2
:1001B000041711F00C94E70070919C027062709328
:1001C0009C02AFEAB5E088278C930C9424010D3093
:1001D00011F00C940C01ACE9B2E08C9185FB16F0A7
:1001E0000C940A0170919C027F7D70939C0280E0C8
:1001F000AFEAB5E00E94C6198D9388278C93EFEA89
:10020000F5E0A9E7B6E00E94CA1C70919C027061FB
:1002100070939C020C9424010F3118F011F00C948F
:1002200013010C942401ACE9B2E08C9185FB16F02B
:100230000C942401A8E7B6E08C91AFEAB5E00E94E7
:10024000C6198D9388278C938F918BBF8F918FBF09
:10025000FF91EF91DF91CF91BF91AF919F918F91DE
:100260007F916F915F914F913F912F911F910F91CE
:10027000BF90AF907F905F904F903F902F901F90D6
:100280000F90189508950F921F922F923F924F92C0
:100290005F927F92AF92BF920F931F932F933F93E2
:1002A0004F935F936F937F938F939F93AF93BF937E
:1002B000CF93DF93EF93FF938FB78F938BB78F938A
:1002C00088278BBFA8E7B6E080919C008C9384E2DE
:1002D000482F00917806041711F00C947A01709160
:1002E0009C02706270939C02AFEAB5E088278C9301
:1002F0000C94B7010D3011F00C949F01ACE9B2E001
:100300008C9185FB16F00C949D0170919C027F7D71
:1003100070939C0280E0AFEAB5E00E94C6198D930D
:1003200088278C93EFEAF5E0A9E7B6E00E94CA1CA3
:1003300070919C02706170939C020C94B7010F3114
:1003400018F011F00C94A6010C94B701ACE9B2E0DE
:100350008C9185FB16F00C94B701A8E7B6E08C9160
:10036000AFEAB5E00E94C6198D9388278C938F91D0
:100370008BBF8F918FBFFF91EF91DF91CF91BF9195
:10038000AF919F918F917F916F915F914F913F912D
:100390002F911F910F91BF90AF907F905F904F90E2
:1003A0003F902F901F900F9018950F921F922F92B1
:1003B0003F924F925F927F92AF92BF920F931F93A3
:1003C0002F933F934F935F936F937F938F939F935D
:1003D000AF93BF93CF93DF93EF93FF938FB78F9339
:1003E0008BB78F9388278BBF74E672BFA0E9B2E00A
:1003F0008C918F5F8C93A0E9B2E00C9148E00E9451
:10040000061D8C9300919002003011F00C943B0279
:10041000A1E9B2E00C9140E20E94061D8C93EAE94A
:10042000FDE20E94A51BA6E9B2E08C919927A2E902
:10043000B2E00E945C1B80919102A2E9B2E00E94AE
:10044000901B0E94861B0C900822689409F4E89483
:10045000A2E3B2E08C9183F98C93A2E3B2E08C9199
:1004600083FBA5E3B0E08C9185F98C93A1E9B2E020
:100470008C918F5F8C93A7E9B2E08C918F5F8C9306
:10048000A7E9B2E00C9144E60E94061D8C9300910E
:100490009702003011F00C94700270919C0270640D
:1004A00070939C0270910901706470930901ACE132
:1004B000B2E08C918F5F8C9300911C0240911D02E1
:1004C0000E94061DACE1B2E08C9300911C0200304A
:1004D00011F00C9470027091090171607093090120
:1004E000A2E3B2E08C9180FB16F00C949202AAE990
:1004F000B2E00E947F19ADE9B2E04D915C91AAE9AA
:10050000B2E00D911C910417150711F00C949202A2
:1005100070919C02706870939C02709132027E7F91
:1005200070933202A9E0B1E08C9185FB16F00C9437
:10053000BD02C19AA2E1B1E00E947F19A2E1B1E03F
:100540000D911C9144EF51E00E94AC19A2E1B1E081
:100550000D931C93A2E1B1E00D911C91003050E08D
:10056000150711F00C94BD0280E080936B0270912E
:1005700009017F7D70930901C1988F918BBF8F9185
:100580008FBFFF91EF91DF91CF91BF91AF919F917D
:100590008F917F916F915F914F913F912F911F911B
:1005A0000F91BF90AF907F905F904F903F902F90B2
:1005B0001F900F9018950F921F922F923F924F927B
:1005C0005F927F92AF92BF920F931F932F933F93AF
:1005D0004F935F936F937F938F939F93AF93BF934B
:1005E000CF93DF93EF93FF938FB78F938BB78F9357
:1005F00088278BBFAEE8B2E08C918F5F8C930C9B09
:100600000C940503AF9A0C940603AF980C9B0C94C2
:100610004D03AAE6B2E080B38C9394E0AAE6B2E080
:100620000E943A1BABE6B2E08C918F5F8C93809175
:100630006A02ABE6B2E0AD90BB24ABE6B2E0AA0D35
:10064000BB1D8C93ABE6B2E00C9144E10E94061D09
:100650008C9300916B02013011F00C943403709173
:10066000090170627093090100916B02003011F072
:100670000C943F03709132027062709332020091C9
:100680006B020E3018F011F00C9448030C944D03DB
:10069000709132027062709332028F918BBF8F9192
:1006A0008FBFFF91EF91DF91CF91BF91AF919F915C
:1006B0008F917F916F915F914F913F912F911F91FA
:1006C0000F91BF90AF907F905F904F903F902F9091
:1006D0001F900F901895AD98AC98C39AE6E9FFE388
:1006E0000E94A51B0E94D5190E94DC19A0E8BFE05A
:1006F000EEEBFFE30E94A51B0E94231B0E94CD1975
:100700000E94DC19A0E8BFE0E2EDFFE30E94A51B18
:100710000E94231B0E94CD190E94DC19A0E8BFE0B3
:10072000EAEDFFE30E94A51B0E94231B0E94CD1946
:100730000E94DC1981E08093960281E08093290277
:100740008CE291E0AEE1B2E08D939C9381E08093E6
:100750002B0281E080932C02E4E0F0E0A2E2B2E020
:100760000E94FC1CEEEEFFE30E94A51B0E94D5191F
:10077000E2E2F2E0A0E8BFE00E94231C0E94CD1953
:100780000E94DC1981E08093BA020091BA02033022
:1007900018F011F00C941904AAEBB2E0AD90BB2450
:1007A000A8EBB2E0AA0CBB1CAA0CBB1CAA0DBB1D7B
:1007B000EAEBF2E0A190BB24E5E0F0E0AA0CBB1C60
:1007C000AA0CBB1CEA0DFB1D94E00E94FF1CECEF81
:1007D000FFE30E94A51B0E94D519EAEBF2E0A0E816
:1007E000BFE00E94231C0E94CD19E2E0F0E40E94C9
:1007F000A51B0E94D519EAEBF2E0A190BB24E8EB1F
:10080000F2E0AA0CBB1CAA0CBB1CEA0DFB1DA0E865
:10081000BFE00E94891D0E941A1A0E94CD190E94F1
:10082000DC19AAEBB2E08C918F5F8C9310F40C94DE
:10083000C503A3E2B2E0E5E0F0E094E00E94FF1C13
:10084000E6E0F0E40E94A51B0E94D519E3E2F2E085
:10085000A0E8BFE00E94891D0E941A1A0E94CD19CB
:100860000E94DC19709109017F77709309018AE079
:1008700080931D02E2E2F0E40E94A51B0E94D519BC
:10088000EDE1F2E0A0E8BFE00E94231C0E94CD1938
:100890000E94DC19E5E1F0E0A0EEB2E00E94FE1C4F
:1008A000E8E2F0E40E94A51B0E94D519E0EEF2E018
:1008B000A0E8BFE00E94131C0E94CD190E94DC1921
:1008C000E7E1F0E0A2EEB2E00E94FE1CE4E3F0E417
:1008D0000E94A51B0E94D519E2EEF2E0A0E8BFE05D
:1008E0000E94131C0E94CD190E94DC1984E18093A0
:1008F0003302E0E4F0E40E94A51B0E94D519E3E373
:10090000F2E0A0E8BFE00E94231C0E94CD190E94E3
:10091000DC190895A881B9818D919C91ADE9B2E06F
:100920008D939C9380E090E0AAE9B2E08D939C9334
:1009300070919C027F7770939C027091320271607B
:1009400070933202ACE9B2E08C9187FB16F40C9400
:10095000AC04A8950C94A2040895A2E2B2E08C9194
:1009600080FBAAE3B2E08C9180F98C93A2E2B2E022
:100970008C9181FBAAE3B2E08C9181F98C93A2E285
:10098000B2E08C9182FBAAE3B2E08C9182F98C9365
:10099000A2E2B2E08C9183FBAAE3B2E08C9183F9EE
:1009A0008C93A9E2B2E08C9180FBAAE3B2E08C9137
:1009B00084F98C93A9E2B2E08C9181FBAAE3B2E0C6
:1009C0008C9185F98C93A9E2B2E08C9182FBAAE329
:1009D000B2E08C9186F98C93A9E2B2E08C9183FB12
:1009E000AAE3B2E08C9187F98C93E3E2F2E0A5E010
:1009F000B1E00E94CF1C8091050180933B02809161
:100A0000060180933C028091070180933D02809112
:100A1000080180933E02ACE2B2E08C9180FBAFE330
:100A2000B2E08C9180F98C93ACE2B2E08C9181FBC6
:100A3000AFE3B2E08C9181F98C93ACE2B2E08C919F
:100A400082FBAFE3B2E08C9182F98C93ACE2B2E02E
:100A50008C9183FBAFE3B2E08C9183F98C93A9E096
:100A6000B1E08C9182FBAFE3B2E08C9184F98C937E
:100A7000AFE3B2E08C918F7D8C93A9E0B1E08C91D3
:100A800081FBAFE3B2E08C9186F98C93AFE3B2E0E7
:100A90008C918F778C938091D402809340028091C7
:100AA000D502809341028091D602809342028091C8
:100AB000D702809343028091D802809344028091B0
:100AC000D902809345028091DA0280934602809198
:100AD000DB0280934702EAE3F2E08EE00E94301DE1
:100AE000A0E0B1E00C9380910001809348028091D6
:100AF000220280934A028091290280934B0283E074
:100B00008093040181E080930001009100010E3088
:100B100018F011F00C94CD050091000141E0040F94
:100B2000A2E0B1E00C93A2E0B1E0AD90BB24A9E358
:100B3000B2E0AA0DBB1D8C918093030100910301CB
:100B40004FE00423A4E0B1E0AD90BB24A9E4B2E0FF
:100B5000AA0DBB1D0C93A4E0B1E08C918F5F8C9328
:100B600094E0A3E0B1E00E943A1B80910301A4E06D
:100B7000B1E0AD90BB24A9E4B2E0AA0DBB1D8C93FB
:100B8000A4E0B1E08C918F5F8C93A0E0B1E08C91F8
:100B90008F5F8C9310F40C94850508957091650017
:100BA00074607093650084E690E0D2018D939C930D
:100BB00082E00E94131B0E948A04229682E00E9417
:100BC0000F1B81E080930A0100910A010E3118F099
:100BD00011F00C944F06AAE0B1E0AD90BB24A9E45B
:100BE000B2E0AA0DBB1D8C9180FBA8E3B0E08C9114
:100BF00084F98C93AAE0B1E0AD90BB24A9E4B2E003
:100C0000AA0DBB1D8C9181FBA8E3B0E08C9185F906
:100C10008C93AAE0B1E0AD90BB24A9E4B2E0AA0DA8
:100C2000BB1D8C9182FBA8E3B0E08C9186F98C937C
:100C3000AAE0B1E0AD90BB24A9E4B2E0AA0DBB1DCF
:100C40008C9183FBA8E3B0E08C9187F98C93AE9AEA
:100C5000C39888E090E0D2018D939C9382E00E943B
:100C6000131B0E948A04229682E00E940F1BC39AE3
:100C7000AE9884E090E0D2018D939C9382E00E9434
:100C8000131B0E948A04229682E00E940F1BAAE096
:100C9000B1E08C918F5F8C9310F40C94E40570910B
:100CA00065007B7F7093650008950C9B0C94C606CD
:100CB000AAE6B2E080B38C9394E0AAE6B2E00E9488
:100CC0003A1BE6E4F0E40E94A51B0E94D519EAE66F
:100CD000F2E0A0E8BFE00E94971C0E94CD190E949C
:100CE000DC19ABE6B2E08C918F5F8C9380916A0245
:100CF000ABE6B2E0AD90BB24ABE6B2E0AA0DBB1D03
:100D00008C93ABE6B2E00C914CE00E94061D8C93F4
:100D100000916B02003011F00C94C606EAE4F0E496
:100D20000E94A51B0E94D5190E94DC1981E08093C6
:100D30000A0100910A010C3018F011F00C94C6065B
:100D4000EAE0F1E0A0E8BFE00E94231C0E94CD1978
:100D5000EEE4F0E40E94A51B0E94D519EAE0F1E060
:100D6000A190BB24EBE6F2E0EA0DFB1DA0E8BFE09A
:100D70000E94971C0E94CD190E94DC19AAE0B1E0E4
:100D80008C918F5F8C9310F40C94990608950091C8
:100D90002B02013011F00C94F70780E080938F0252
:100DA000A3E3B0E08C9180FBAFE8B2E08C9180F9D6
:100DB0008C93A3E3B0E08C9181FBAFE8B2E08C911F
:100DC00081F98C9300912902013011F00C944907AC
:100DD000A2E3B2E08C9187FB16F40C94F40681E058
:100DE000809396020C94F7068BE080939602009114
:100DF0008F02023011F00C941607E0E5F0E40E9437
:100E0000A51B0E94D5190E94DC1982E0809329025B
:100E1000709109017F777093090182E080939602B7
:100E20008EE190E0AEE1B2E08D939C9300918F0251
:100E3000003081E009F080E08F9300918F02013053
:100E400081E009F080E09F91892B882311F40C94B4
:100E50004707E0E6F0E40E94A51B0E94D5190E9416
:100E6000DC1983E08093290283E0809396027091DD
:100E700009017F777093090170913202706170935C
:100E800032028EE190E0AEE1B2E08D939C930C943F
:100E9000A507023011F00C94780700918F020330FF
:100EA00011F00C947607EAE7F0E40E94A51B0E947B
:100EB000D5190E94DC1981E08093290281E080939A
:100EC0009602709109017F77709309018CE390E09D
:100ED000AEE1B2E08D939C93A2E3B2E08C9187FBEC
:100EE00016F00C9476078BE0809396020C94A5077D
:100EF000033011F00C94A50700918F02033011F01C
:100F00000C94A507EEE9F0E40E94A51B0E94D519F8
:100F10000E94DC1981E08093290281E0809396028F
:100F2000709109017F77709309018CE390E0AEE145
:100F3000B2E08D939C93A2E3B2E08C9187FB16F014
:100F40000C94A5078BE08093960240912A020091B1
:100F50002902041711F40C94F507709109017F77A9
:100F60007093090170913202706470933202809123
:100F7000290280932A02E4ECF0E40E94A51B0E945F
:100F8000D519E9E2F2E0A0E8BFE00E94231C0E942C
:100F9000CD190E94DC1900912902013011F00C9446
:100FA000D9078CE390E0AEE1B2E08D939C930C9472
:100FB000EF07023011F00C94E5078EE190E0AEE10E
:100FC000B2E08D939C930C94EF07033011F00C94D6
:100FD000EF078EE190E0AEE1B2E08D939C9380E06C
:100FE00090E0AFE2B2E08D939C930C946608809100
:100FF0002B0280932902809129028093960200910E
:101000002902013081E009F080E08F93A2E3B2E091
:101010008C9187FB81E00EF080E09F9189238823EB
:1010200011F40C9416088BE08093960240912A02EA
:1010300000912902041711F40C94660870910901BB
:101040007F77709309018091290280932A02E6ED4F
:10105000F0E40E94A51B0E94D519E9E2F2E0A0E8A5
:10106000BFE00E94231C0E94CD190E94DC197091E0
:10107000320270647093320200912902013011F043
:101080000C944A0888E592E0AEE1B2E08D939C931F
:101090000C946008023011F00C9456088EE190E038
:1010A000AEE1B2E08D939C930C946008033011F094
:1010B0000C9460088EE190E0AEE1B2E08D939C93D9
:1010C00080E090E0AFE2B2E08D939C930091290222
:1010D000013011F00C946D08AC9800912902023097
:1010E00011F00C947408AC9A00912902033011F0AD
:1010F0000C947B08AC9A00912902003011F00C94FA
:101100008208AC9800912902033018F011F00C9479
:101110008B080C948C08AC980895A881B9818C91A7
:1011200080FBABE3B0E08C9184F98C93A881B9810A
:101130008C9181FBABE3B0E08C9185F98C93A88115
:10114000B9818C9182FBABE3B0E08C9186F98C93F2
:10115000A881B9818C9183FBABE3B0E08C9187F9D6
:101160008C93089581E08093BA020091BA02033013
:1011700018F011F00C940809EEEDFDE20E94A51B99
:10118000AAEBB2E08C919927ABEBB2E00E94581B1E
:1011900007B1007E8091BB0290E0890F082707B954
:1011A0000E94291BA8EBB2E08D939C93E8EBF2E040
:1011B000D190E080FF2400270E94BD1D0E94931D56
:1011C000EAEBF2E0A190BB24EBE9F2E0AA0CBB1C35
:1011D000AA0CBB1CEA0DFB1D0E94891D0E948A1EE1
:1011E000EDE0F0E0AAEBB2E0AD90BB24ABE9B2E0F9
:1011F000AA0CBB1CAA0CBB1CAA0DBB1D0E94CF1CB9
:10120000AAEBB2E08C918F5F8C9310F40C94B5082C
:10121000ABEAB2E08C918F5F8C93ABEAB2E00C91B9
:1012200048E00E94061D8C930091AB02003011F043
:101230000C94E20981E08093BA020091BA02033073
:1012400018F011F00C94D009E6E8FFE30E94A51B0A
:101250000E94E51EEAEBF2E0A190BB24EBE9F2E08C
:10126000AA0CBB1CAA0CBB1CEA0DFB1D0E94891D0D
:101270000E94EA1DEDE0F0E0AAEBB2E0AD90BB24E5
:10128000A8EAB2E0AA0CBB1CAA0CBB1CAA0DBB1D91
:101290000E94CF1CAAEBB2E0AD90BB24ABE9B2E058
:1012A000AA0CBB1CAA0CBB1CAA0DBB1DEAE8FFE3E1
:1012B0000E94A51B0E94501BEAEBF2E0A190BB2408
:1012C000E8EBF2E0AA0CBB1CAA0CBB1CEA0DFB1D50
:1012D0000E948E1DEAEBF2E0A190BB24E8EAF2E066
:1012E000AA0CBB1CAA0CBB1CEA0DFB1D0E94891D8D
:1012F0000E94431EEDE0F0E0AAEBB2E0AD90BB240B
:10130000A4ECB2E0AA0CBB1CAA0CBB1CAA0DBB1D12
:101310000E94CF1C00911101013011F00C94C809FA
:10132000E8EFF0E40E94A51B0E94D519EAEBF2E079
:10133000A0E8BFE00E94231C0E94CD19ECEFF0E46E
:101340000E94A51B0E94D519A0E8BFE0AF93BF93F0
:10135000EAEBF2E0A190BB24E4ECF2E0AA0CBB1CA7
:10136000AA0CBB1CEA0DFB1D0E94891D0E941A1AC3
:1013700011E001E0BF91AF910E94B81BE0E8FFE0EF
:10138000A0E8BFE00E94CA1C0E94CD190E94DC198F
:10139000AAEBB2E08C918F5F8C9310F40C941D0932
:1013A000E8ECF2E0A4EDB2E00E94CF1CECECF2E03D
:1013B000A8EDB2E00E94CF1CE0EDF2E0ACEDB2E0AF
:1013C0000E94CF1C0895A9E7B6E00E94CF190E94A1
:1013D000DC1981E0E9E7F6E006E00A93A5EEB1E06A
:1013E0000E94D51CE9E7F6E09CE204E132E2A5EEBA
:1013F000B2E00E94541DA4EEB2E02C93A5EEB2E040
:101400000E94161D082F063011F00C943813E5EEDB
:10141000F2E0A4E1B1E00E94CA1CE4E1F1E0A4E141
:10142000B1E00E947A1B8FEF8093E401A4E1B1E068
:10143000EEEFF0E40E94A51B0E941C1D11F00C941D
:10144000620A80E08093E401ABE1B1E0E6E0F1E420
:101450000E94A51B0E94231BA5EEB1E0EAE1F1E486
:101460000E94A51B0E94231BE5EEF1E0ABE1B1E079
:101470000E94C6190E94CA1CABE1B1E00E94C619C5
:10148000EEE2F1E40E94A51B0E94231BA5EEB1E051
:10149000EAEDFFE30E94A51B0E94231BE5EEF1E0AD
:1014A000ABE1B1E00E94C6190E94CA1CABE1B1E0F9
:1014B0000E94C619ECE3F1E40E94A51B0E94231BC5
:1014C0000C943613EEE3F1E40E94A51B0E941C1D50
:1014D00011F00C94A10A0091E402023011F00C9476
:1014E0009C0AAAEFB2E00E94681CA0E0B1E00C9355
:1014F00000910001013110F00C94970A80E0809374
:10150000E401ABE1B1E0E6E4F1E40E94A51B0E9436
:10151000231BE0E0F1E0ABE1B1E00E94C6190E94BC
:10152000231C80910001809396020C949A0A85E016
:101530008093E4010C949F0A84E08093E4010C946E
:101540003613EEE5F1E40E94A51B0E941C1D11F06C
:101550000C94BF0A80E08093E401ABE1B1E0E6E6E1
:10156000F1E40E94A51B0E94231BE6E9F2E0ABE137
:10157000B1E00E94C6190E94231C0C943613E2E7C6
:10158000F1E40E94A51B0E941C1D11F00C94090B94
:101590000091E402023011F00C94040B80E080937F
:1015A000E401AAEFB2E00E94681CACE0B1E00D9348
:1015B0001C93ACE0B1E08D919C91A0E2B2E08D93E0
:1015C0009C93E2E0F0E0ACE0B1E07BE70E94ED1C30
:1015D000ABE1B1E0EAE7F1E40E94A51B0E94231B06
:1015E000E0E2F2E0ABE1B1E00E94C6190E94131CF8
:1015F000ABE1B1E00E94C619E2EAF1E40E94A51B4A
:101600000E94231B0C94070B84E08093E4010C944C
:101610003613E6EAF1E40E94A51B0E941C1D11F09E
:101620000C94530B0091E402023011F00C944E0B19
:1016300080E08093E401AAEFB2E00E94681CACE075
:10164000B1E00D931C93ACE0B1E08D919C91AAE1C7
:10165000B2E08D939C93E0E0F0E0ACE0B1E07BE79A
:101660000E94ED1CABE1B1E0EEEAF1E40E94A51BA3
:101670000E94231BEAE1F2E0ABE1B1E00E94C6194F
:101680000E94131CABE1B1E00E94C619E2EAF1E44A
:101690000E94A51B0E94231B0C94510B84E0809395
:1016A000E4010C943613ECEDF1E40E94A51B0E94BA
:1016B0001C1D11F00C94960B0091E402023011F005
:1016C0000C94910B80E08093E401AAEFB2E00E94B9
:1016D000F21EEDE0F0E0A5E0B1E00E94CF1CE5E0F5
:1016E000F1E0A3E2B2E00E94CF1CE5E0F0E0A5E06B
:1016F000B1E094E07BE70E94EE1CABE1B1E0E4EEE8
:10170000F1E40E94A51B0E94231BE3E2F2E0ABE19F
:10171000B1E00E94C6190E94891D0E941A1A0C94F9
:10172000940B84E08093E4010C943613EEEFF1E423
:101730000E94A51B0E941C1D11F00C94BE0B80E0A2
:101740008093E401ABE1B1E0E6E0F2E40E94A51B86
:101750000E94231BE0E2F2E0ABE1B1E00E94C61977
:101760000E94131CABE1B1E00E94C619E2EAF1E469
:101770000E94A51B0E94231B0C943613E0E2F2E4A6
:101780000E94A51B0E941C1D11F00C94E60B80E02A
:101790008093E401ABE1B1E0E8E2F2E40E94A51B32
:1017A0000E94231BEAE1F2E0ABE1B1E00E94C6191E
:1017B0000E94131CABE1B1E00E94C619E2EAF1E419
:1017C0000E94A51B0E94231B0C943613E8E4F2E44C
:1017D0000E94A51B0E941C1D11F00C94060C80E0B9
:1017E0008093E401ABE1B1E0E0E5F2E40E94A51BE7
:1017F0000E94231BE3E2F2E0ABE1B1E00E94C619D4
:101800000E94891D0E941A1A0C943613E0E6F2E435
:101810000E94A51B0E941C1D11F00C94570C0091F6
:10182000E402023011F00C94520C80E08093E40149
:10183000AAEFB2E00E94681CACE0B1E00D931C93EB
:10184000ABE1B1E0E8E6F2E40E94A51B0E94231B95
:10185000ECE0F1E0ABE1B1E00E94C6190E94131C7C
:10186000E6E7F2E40E94A51B0E94D5190E94DC194C
:10187000ACE0B1E08D919C91D2018D939C9382E07C
:101880000E94131B0E948A04229682E00E940F1B72
:10189000EAE7F2E40E94A51B0E94D5190E94DC1918
:1018A0000C94550C84E08093E4010C943613EEE71D
:1018B000F2E40E94A51B0E941C1D11F00C94720CF6
:1018C00080E08093E4017091320272607093320282
:1018D000ABE1B1E0E6E8F2E40E94A51B0E94231B05
:1018E0000C943613EAE9F2E40E94A51B0E941C1D29
:1018F00011F00C94A90C0091E402023011F00C9448
:10190000A40C80E08093E401AAEFB2E00E94681C7E
:10191000A2E2B2E00C93E4E0F0E0A2E2B2E07BE706
:101920000E94EB1CABE1B1E0E2EAF2E40E94A51BED
:101930000E94231BE2E2F2E0ABE1B1E00E94C61993
:101940000E94231C0C94A70C84E08093E4010C9467
:101950003613E4ECF2E40E94A51B0E941C1D11F05A
:101960000C94C70C80E08093E401ABE1B1E0ECECB7
:10197000F2E40E94A51B0E94231BE2E2F2E0ABE12D
:10198000B1E00E94C6190E94231C0C943613E2EEAB
:10199000F2E40E94A51B0E941C1D11F00C94430D43
:1019A0000091E402053111F00C943E0D80E080932B
:1019B000E401ABE1B1E0EAEEF2E40E94A51B0E9473
:1019C000231BE6E0F3E40E94A51B0E94D519E6E97B
:1019D000F2E0A0E8BFE00E94231C0E94CD190E9403
:1019E000DC1980E08093000182E080930A0100917D
:1019F0000A01053118F011F00C94270DA0E0B1E0B8
:101A00008C918F5F8C93AAE0B1E00D91112745E195
:101A100050E00E94191BA0EDB2E0A00FB11F0E9480
:101A2000B01CA2E0B1E00C9380910201A0E0B1E013
:101A3000AD90BB24ABE6B2E0AA0DBB1D8C93AAE02F
:101A4000B1E08C918F5F8C9310F40C94F70C709133
:101A50003202706270933202E4E1F3E40E94A51B4B
:101A60000E94D519E6E9F2E0A0E8BFE00E94231C3D
:101A70000E94CD190E94DC190C94410D84E08093E2
:101A8000E4010C943613E2E2F3E40E94A51B0E94E9
:101A90001C1D11F00C94C90D0091E402033011F0EB
:101AA0000C94C40DAAEFB2E00E94681CA0E0B1E063
:101AB0000C9300910001033018F011F00C94BF0D4D
:101AC00080E08093E401AFE0B3E00E94F21EEDE01D
:101AD000F0E0A5E0B1E00E94CF1CE5E0F1E0A0E07D
:101AE000B1E0AD90BB24A8EBB2E0AA0CBB1CAA0CE1
:101AF000BB1CAA0DBB1D0E94CF1CE0E0F1E0A19031
:101B0000BB24E5E0F0E0AA0CBB1CAA0CBB1CEA0D50
:101B1000FB1DA5E0B1E094E07BE70E94EE1CABE189
:101B2000B1E0EAE2F3E40E94A51B0E94231BE0E07F
:101B3000F1E0ABE1B1E00E94C6190E94231CABE1C9
:101B4000B1E00E94C619ECEFF0E40E94A51B0E94D0
:101B5000231BE0E0F1E0A190BB24E8EBF2E0AA0C4B
:101B6000BB1CAA0CBB1CEA0DFB1DABE1B1E00E9443
:101B7000C6190E94891D0E941A1A0C94C20D85E094
:101B80008093E4010C94C70D84E08093E4010C94ED
:101B90003613ECE3F3E40E94A51B0E941C1D11F018
:101BA0000C94210E80E08093E401ABE1B1E0E4E429
:101BB000F3E40E94A51B0E94231B81E080930B018C
:101BC00000910B01033018F011F00C941F0EEBE0A4
:101BD000F1E0ABE1B1E00E94C6190E94231CABE129
:101BE000B1E00E94C619ECEFF0E40E94A51B0E9430
:101BF000231BEBE0F1E0A190BB24E8EBF2E0AA0CA0
:101C0000BB1CAA0CBB1CEA0DFB1DABE1B1E00E94A2
:101C1000C6190E94891D0E941A1AABE1B1E00E9408
:101C2000C619EEE4F0E40E94A51B0E94231BABE062
:101C3000B1E08C918F5F8C9310F40C94E00D0C94B8
:101C40003613E2E5F3E40E94A51B0E941C1D11F06F
:101C50000C943A0E80E08093E401ABE1B1E0EAE558
:101C6000F3E40E94A51B0E94231B81E080931101D5
:101C70000C943613E4E7F3E40E94A51B0E941C1D9C
:101C800011F00C949E0E0091E402023011F00C94BD
:101C9000660E80E08093E401ABE1B1E0ECE7F3E4B1
:101CA0000E94A51B0E94231BEAEFF2E0ABE1B1E02A
:101CB0000E94C6190E94CA1C709109017068709335
:101CC000090180E080932C020C949C0E033011F0EB
:101CD0000C94990E80E08093E401ABE1B1E0ECE775
:101CE000F3E40E94A51B0E94231BEAEFF2E0ABE1A4
:101CF000B1E00E94C6190E94CA1CABE1B1E00E948B
:101D0000C619EEE4F0E40E94A51B0E94231BEFE03D
:101D1000F3E0ABE1B1E00E94C6190E94CA1C7091C9
:101D2000090170687093090180E080932C020C9483
:101D30009C0E84E08093E4010C943613E2E9F3E412
:101D40000E94A51B0E941C1D11F00C94CE0E009148
:101D5000E402023011F00C94C90E80E08093E4019B
:101D6000AAEFB2E00E94681CADE1B2E00C93ABE1D7
:101D7000B1E0EAE9F3E40E94A51B0E94231BEDE118
:101D8000F2E0ABE1B1E00E94C6190E94231C0C9462
:101D9000CC0E84E08093E4010C943613EEEAF3E475
:101DA0000E94A51B0E941C1D11F00C94EC0E80E0FB
:101DB0008093E401ABE1B1E0E2E2F0E40E94A51B14
:101DC0000E94231BEDE1F2E0ABE1B1E00E94C619F5
:101DD0000E94231C0C943613E6EBF3E40E94A51B2F
:101DE0000E941C1D11F00C941D0F0091E4020230A2
:101DF00011F00C94180F80E08093E401AAEFB2E098
:101E00000E94681CAFE2B2E00D931C93ABE1B1E01D
:101E1000EEEBF3E40E94A51B0E94231BEFE2F2E02D
:101E2000ABE1B1E00E94C6190E94131C0C941B0F79
:101E300084E08093E4010C943613E4EDF3E40E9413
:101E4000A51B0E941C1D11F00C94550F0091E4027B
:101E5000023011F00C94500F80E08093E401AAEF5F
:101E6000B2E00E94681CA0EEB2E00D931C93E5E185
:101E7000F0E0A0EEB2E07BE70E94ED1CABE1B1E048
:101E8000ECEDF3E40E94A51B0E94231BE0EEF2E0C0
:101E9000ABE1B1E00E94C6190E94131C0C94530FD1
:101EA00084E08093E4010C943613E4EFF3E40E94A1
:101EB000A51B0E941C1D11F00C948D0F0091E402D3
:101EC000023011F00C94880F80E08093E401AAEFB7
:101ED000B2E00E94681CA2EEB2E00D931C93E7E111
:101EE000F0E0A2EEB2E07BE70E94ED1CABE1B1E0D6
:101EF000ECEFF3E40E94A51B0E94231BE2EEF2E04C
:101F0000ABE1B1E00E94C6190E94131C0C948B0F28
:101F100084E08093E4010C943613E6E1F4E40E943B
:101F2000A51B0E941C1D11F00C94BD0F80E0809336
:101F3000E401ABE1B1E0EEE1F4E40E94A51B0E94F4
:101F4000231BE0EEF2E0ABE1B1E00E94C6190E9473
:101F5000131CABE1B1E00E94C619E6E2F4E40E9472
:101F6000A51B0E94231BE2EEF2E0ABE1B1E00E9470
:101F7000C6190E94131C0C943613E2E3F4E40E9489
:101F8000A51B0E941C1D11F00C940D1080E0809385
:101F9000E401ABE1B1E0EAE3F4E40E94A51B0E9496
:101FA000231BA0E8BFE0AF93BF93E4EDF2E00E94F3
:101FB000891D0E941A1A11E002E0BF91AF910E94A0
:101FC000B81BE0E8FFE0ABE1B1E00E94C6190E9457
:101FD000CA1CABE1B1E00E94C619E0E4F4E40E943F
:101FE000A51B0E94231BA0E8BFE0AF93BF93E8EDC1
:101FF000F2E00E94891D0E941A1A11E002E0BF91CE
:10200000AF910E94B81BE0E8FFE0ABE1B1E00E94B5
:10201000C6190E94CA1C0C943613E8E4F4E40E942A
:10202000A51B0E941C1D11F00C947B1080E0809376
:10203000E401EEE8FFE30E94A51B0E94D81EE9E040
:10204000F0E0ADE0BB2794E07BE70E94EE1CEEE8F9
:10205000FFE30E94A51B0E94D81EEDE0F0E0ADE07A
:10206000BB2794E07BE70E94EE1CEEE8FFE30E94B2
:10207000A51B0E94D81EE1E1F0E0ADE0BB2794E093
:102080007BE70E94EE1CE4E0F0E0A0E1BB278EE0DD
:102090008C937BE70E94EB1CEAE8FFE30E94A51B00
:1020A0000E94D81EE5E0F0E0ADE0BB2794E07BE7BE
:1020B0000E94EE1CE5E1F0E000E010E0A0E1BB27AB
:1020C0007BE70E94ED1CE7E1F0E000E010E0A0E11A
:1020D000BB277BE70E94ED1CABE1B1E0E0E5F4E457
:1020E0000E94A51B0E94231B7091090178607093C8
:1020F00009010C943613E0E7F4E40E94A51B0E944A
:102100001C1D11F00C94961080E08093E4017091F6
:102110000901786070930901ABE1B1E0E8E7F4E40C
:102120000E94A51B0E94231B0C943613EEE8F4E4D6
:102130000E94A51B0E941C1D11F00C94FD10009123
:10214000E402023011F00C94F810AAEFB2E00E9401
:10215000681CA0E0B1E00C9300910001023010F087
:102160000C94F31080E08093E401009100010130B1
:1021700011F00C94D7107091320270687093320293
:10218000ABE1B1E0E6E9F4E40E94A51B0E94231B49
:10219000A2E3B2E08C9187FBABE1B1E00E94C619EB
:1021A0000E94961B8D9388278C930C94F11070914C
:1021B00032027F7770933202ABE1B1E0E6E9F4E4FA
:1021C0000E94A51B0E94231BA2E3B2E08C9187FB17
:1021D000ABE1B1E00E94C6190E94961B8D9388273F
:1021E0008C930C94F61085E08093E4010C94FB1022
:1021F00084E08093E4010C943613EEEAF4E40E9448
:10220000A51B0E941C1D11F00C94201180E08093EE
:10221000E401ABE1B1E0E6EBF4E40E94A51B0E940F
:10222000231BA2E3B2E08C9187FBABE1B1E00E94FB
:10223000C6190E94961B8D9388278C930C94361395
:10224000E0ECF4E40E94A51B0E941C1D11F00C940C
:102250005D110091E402023011F00C945811AAEFC4
:10226000B2E00E94681CA0E0B1E00C9380910001F4
:10227000D2018C9381E00E94131B0E948D0822964C
:1022800081E00E940F1BABE1B1E0E8ECF4E40E94B6
:10229000A51B0E94231BE0E0F1E0ABE1B1E00E944E
:1022A000C6190E94231C80E08093E4010C945B110A
:1022B00084E08093E4010C943613ECEEF4E40E9485
:1022C000A51B0E941C1D11F00C94AE110091E4029C
:1022D000023011F00C94A91180E08093E401AAEF80
:1022E000B2E00E94681CA0E0B1E00C9300910001F4
:1022F000023010F00C94A41100910001013011F093
:102300000C948511AC9A0C948611AC98ABE1B1E0B9
:10231000E4EFF4E40E94A51B0E94231BE0E0F1E03F
:10232000ABE1B1E00E94C6190E94231CE3E0F0E09B
:102330000E94FC19EAEFF4E40E94A51B0E94D51943
:102340000E94DC190C94A71185E08093E4010C94A1
:10235000AC1184E08093E4010C943613E2E0F5E4E0
:102360000E94A51B0E941C1D11F00C94DE1100910F
:10237000E402023011F00C94D91180E08093E40162
:10238000AAEFB2E00E94681CA0E1B1E00C93ABE1BF
:10239000B1E0EAE0F5E40E94A51B0E94231BE0E106
:1023A000F1E0ABE1B1E00E94C6190E94231C0C943D
:1023B000DC1184E08093E4010C943613ECE1F5E445
:1023C0000E94A51B0E941C1D11F00C94FC1180E0C2
:1023D0008093E401ABE1B1E0E4E2F5E40E94A51BE7
:1023E0000E94231BE0E1F1E0ABE1B1E00E94C619DD
:1023F0000E94231C0C943613ECE2F5E40E94A51B0A
:102400000E941C1D11F00C946E1280E08093E40178
:10241000ABE1B1E0E4E3F5E40E94A51B0E94231BBD
:10242000A0E8BFE0AF93BF93E4EDF2E00E94891D06
:102430000E941A1A11E001E0BF91AF910E94B81BEF
:10244000E0E8FFE0ABE1B1E00E94C6190E94CA1CBF
:10245000ABE1B1E00E94C619EAE3F5E40E94A51BD6
:102460000E94231BA0E8BFE0AF93BF93E8EDF2E02A
:102470000E94891D0E941A1A11E001E0BF91AF91DC
:102480000E94B81BE0E8FFE0ABE1B1E00E94C61992
:102490000E94CA1CABE1B1E00E94C619E2E4F5E477
:1024A0000E94A51B0E94231BA0E8BFE0AF93BF932F
:1024B000ECEDF2E00E94891D0E941A1A11E001E081
:1024C000BF91AF910E94B81BE0E8FFE0ABE1B1E043
:1024D0000E94C6190E94CA1C0C943613EAE4F5E463
:1024E0000E94A51B0E941C1D11F00C94D212009199
:1024F000E402033011F00C94CD12AAEFB2E00E9476
:10250000681CA0E0B1E00C9300910001043010F0D1
:102510000C94C812AFE0B3E00E94681CA2E0B1E0E6
:102520000C93A0E0B1E08C918F5F8C9380910201BD
:10253000A0E0B1E0AD90BB24A5E3B2E0AA0DBB1DC5
:102540008C93ABE1B1E0E2E5F5E40E94A51B0E94AB
:10255000231BE0E0F1E0ABE1B1E00E94C6190E946C
:10256000231CABE1B1E00E94C619ECEFF0E40E943D
:10257000A51B0E94231BE2E0F1E0ABE1B1E00E9469
:10258000C6190E94231C80E08093E4010C94CB12B6
:1025900085E08093E4010C94D01284E08093E40100
:1025A0000C943613EEE5F5E40E94A51B0E941C1D59
:1025B00011F00C9433130091E402023011F00C94EA
:1025C0002E13AAEFB2E00E94681CA0E0B1E00C93C9
:1025D00000910001003080E010F009F081E08F935D
:1025E00000910001053081E008F080E09F9189238F
:1025F000882311F40C94291380E08093E401ABE16B
:10260000B1E0E6E6F5E40E94A51B0E94231BE0E092
:10261000F1E0ABE1B1E00E94C6190E94231CABE1DE
:10262000B1E00E94C619ECEFF0E40E94A51B0E94E5
:10263000231BE0E0F1E0A190BB24E5E3F2E0EA0D2A
:10264000FB1DABE1B1E00E94C6190E94231C0C9453
:102650002C1385E08093E4010C94311384E0809383
:10266000E4010C94361381E08093E4010C943B1355
:1026700082E08093E4010091E401003018F011F051
:102680000C9444130C945213E0ECFCE20E94A51B42
:10269000A4EEB1E08C9199270E94721BABE1B1E0EE
:1026A0000E94231BABE1B1E00E94CF190E94DC190C
:1026B0000895EEE6F5E40E94A51B0E94D5190E943C
:1026C000DC198091700280932702809171028093BF
:1026D000280280E08093030181E080930A01009149
:1026E0000A01043118F011F00C94C913EAE0F1E08A
:1026F000A190BB24EBE6F2E0EA0DFB1DA0E8BFE0F1
:102700000E94971C0E94CD19EEE4F0E40E94A51BE4
:102710000E94D519AAE0B1E00C9100FB16F00C94D0
:102720009E13AAE0B1E0AD90BB24ABE6B2E0AA0DE7
:10273000BB1D8C91809300010C94C113AAE0B1E001
:10274000AD90BB24ABE6B2E0AA0DBB1D8C9180938B
:10275000020194E0A2E0B1E00E94321BA3E0B1E0EC
:102760008C918F5F8C930091000140910201042BAA
:10277000A3E0B1E0AD90BB24A1E8B2E0AA0DBB1D7F
:102780000C93AAE0B1E08C918F5F8C9310F40C94C1
:102790006F130E94DC19EAE7F5E40E94A51B0E9472
:1027A000D5190E94DC1981E080930A0100910A0189
:1027B0000A3018F011F00C94F913EAE0F1E0A1905E
:1027C000BB24E1E8F2E0EA0DFB1DA0E8BFE00E94B7
:1027D000971C0E94CD19EEE4F0E40E94A51B0E9414
:1027E000D519AAE0B1E08C918F5F8C9310F40C9412
:1027F000D6130E94DC1988E090E0A2E8B2E00E94C3
:10280000401DACE0B1E00D931C93E4E8F5E40E94B8
:10281000A51B0E94D519ECE0F1E0A0E8BFE00E9402
:10282000991C0E94CD190E94DC1990918A02809116
:102830008B02AEE0B1E08D939C93EAE8F5E40E9450
:10284000A51B0E94D519EEE0F1E0A0E8BFE00E94D0
:10285000991C0E94CD190E94DC19AEE0B1E04D91A7
:102860005C91ACE0B1E00D911C910417150711F0DB
:102870000C944216E2E9F5E40E94A51B0E94D519CA
:10288000A0EEB2E00E947F19E5E1F0E0A0EEB2E038
:102890007BE70E94ED1CE0EEF2E0A0E8BFE00E94C2
:1028A000131C0E94CD190E94DC190091820204328F
:1028B00081E009F080E08F9300918302053581E08B
:1028C00009F080E09F918923882311F40C94381635
:1028D000EAE9F5E40E94A51B0E94D5190E94DC19C3
:1028E000E8EAF5E40E94A51B0E94D519E5E8F2E0AC
:1028F000A0E8BFE00E94231C0E94CD190E94DC19B1
:102900008091850280933302409127020091220238
:10291000041711F00C949615A3E2B2E0E2E9FFE38C
:102920000E94A51B0E94E51EE3E2F2E00E94891DC1
:102930000E948A1EEDE0F0E0A3E2B2E00E94CF1C0C
:10294000E5E0F0E0A3E2B2E094E07BE70E94EE1C59
:10295000E2EBF5E40E94A51B0E94D519E3E2F2E048
:10296000A0E8BFE00E94891D0E941A1A0E94CD199A
:102970000E94DC190E94AD04EAEBF5E40E94A51B5D
:102980000E94D5190E94DC1981E080930A01009110
:102990000A010F3018F011F00C94EA14EAE0F1E0AB
:1029A000A190BB24E9E3F2E0EA0DFB1DA0E8BFE043
:1029B0000E94971C0E94CD19EEE4F0E40E94A51B32
:1029C0000E94D519AAE0B1E08C918F5F8C9310F42E
:1029D0000C94C7140E94DC19A8E2B2E00C9103FB2E
:1029E00016F40C941215709132027F7770933202B4
:1029F000E4ECF5E40E94A51B0E94D519A2E3B2E025
:102A00008C9187FBA0E8BFE00E94961B8D938827DE
:102A10008C930E94CD190E94DC1981E0809396026C
:102A20000C942F1570913202706870933202E0EDB1
:102A3000F5E40E94A51B0E94D519A2E3B2E08C9197
:102A400087FBA0E8BFE00E94961B8D9388278C939C
:102A50000E94CD190E94DC198BE080939602709140
:102A60002802777F709328028091280280932B029E
:102A7000ECEDF5E40E94A51B0E94D519EBE2F2E013
:102A8000A0E8BFE00E94231C0E94CD190E94DC191F
:102A900080912B02809329020E94DC19E8EEF5E474
:102AA0000E94A51B0E94D5190E94DC19E2EEF2E4F7
:102AB0000E94A51B0E94D51981E080930A01009114
:102AC0000A010E3118F011F00C948215EEE4F0E4D6
:102AD0000E94A51B0E94D519EAE0F1E0A190BB2459
:102AE000E9E4F2E0EA0DFB1DA0E8BFE00E94971CBC
:102AF0000E94CD19AAE0B1E08C918F5F8C9310F405
:102B00000C945F150E94DC1988EC90E0D2018D9343
:102B10009C9382E00E94131B0E948A04229682E00A
:102B20000E940F1B0E94CE050C94361600912702BE
:102B30000F3011F00C94C415E4EFF5E40E94A51BCE
:102B40000E94D5190E94DC1983E080932B0283E058
:102B50008093290283E080939602ECEDF5E40E94D5
:102B6000A51B0E94D519EBE2F2E0A0E8BFE00E94AD
:102B7000231C0E94CD190E94DC19709132027F77CC
:102B8000709332020C943616009127020E3011F029
:102B90000C94F215E2E0F6E40E94A51B0E94D51900
:102BA0000E94DC1982E080932B0282E0809329024C
:102BB00082E080939602709132027F7770933202A6
:102BC000ECEDF5E40E94A51B0E94D519EBE2F2E0C2
:102BD000A0E8BFE00E94231C0E94CD190E94DC19CE
:102BE0000C943616009127020D3011F00C9410163B
:102BF000EEE0F6E40E94A51B0E94D5190E94DC19A4
:102C0000709132027F777093320281E080932B02C1
:102C100081E08093290281E0809396020C9436161D
:102C2000009127020C3011F00C942E16ECE1F6E422
:102C30000E94A51B0E94D5190E94DC1981E0809397
:102C40002B0281E0809329028BE0809396027091A1
:102C500032027068709332020C943616EEE2F6E49B
:102C60000E94A51B0E94D5190E94DC190C944016E5
:102C7000E2E5F6E40E94A51B0E94D5190E94DC192A
:102C80000C945D16E0E6F6E40E94A51B0E94D5199F
:102C9000A2EEB2E00E947F19E7E1F0E0A2EEB2E01E
:102CA0007BE70E94ED1CE2EEF2E0A0E8BFE00E94AC
:102CB000131C0E94CD190E94DC190E94DC19089592
:102CC0004F4B00436F6D616E646F206E6F207265B5
:102CD000636F6E6F6369646F004C6F6E67697475C4
:102CE0006420636F6D616E646F206E6F2076616C1F
:102CF000696461004E756D65726F2064652075733F
:102D0000756172696F206E6F2076616C69646F0007
:102D10004E756D65726F20646520706172616D65BE
:102D200074726F7320696E76616C69646F004572AE
:102D3000726F72206C6F6E67697475642070617257
:102D4000616D6574726F2031004572726F72206C14
:102D50006F6E676974756420706172616D657472FD
:102D60006F203200506172616D6574726F206E6FFA
:102D70002076616C69646F004552524F52380045AD
:102D800052524F522053442E20496E74656E746522
:102D9000206465206E7565766F00000000000300FA
:102DA00000003300000033030000333300003333EE
:102DB000030033C00C00FF0FFF0F5555555533333B
:102DC0003333777777770000FFFFCC00FCFFCC0C24
:102DD000FCFFCCCCFCFF0C00FCFFF0FFFFFF000071
:102DE00001020300000000000101010103040404CA
:102DF00006060606060607000000000101010103A1
:102E00000404040606060606060700000000010189
:102E10000101030404040606060606060404060669
:102E20000707070707000606060606060404060647
:102E30000606060604040706060606060604040639
:102E4000060606060604040606060606060404062A
:102E50000606060606040407060606060606040419
:102E600006060606060606000808080808080808F8
:102E700008080808060606080808080808080808D8
:102E80000808080606060C0C0C0C0C0C0C0C0C0CA0
:102E90000C0C0C0C0C0C0C0C0C0C0C0C0C0C0C0C72
:102EA0000C0C0C0C0E946B03ACE9B2E08C9184FB1F
:102EB00016F00C946E1770919C027F7E70939C02AA
:102EC000EAE6F6E40E94A51B0E94D519A9E7B6E040
:102ED0000E94CF190E94DC190E94E309A2E3B2E02C
:102EE0008C9185FB16F00C947C17709132027F7DDB
:102EF000709332020E9459130E94C706A2E3B2E007
:102F00008C9184FB16F00C949217709132027F7EA4
:102F100070933202E0E7F6E40E94A51B0E94D519E7
:102F20000E94DC19ACE9B2E08C9186FB16F00C949F
:102F30000E1870919C027F7B70939C020E94B208D5
:102F4000A2E3B2E08C9186FB16F00C940E1800916F
:102F50003402043010F00C94CD17EAE7F6E40E9436
:102F6000A51B0E94D519E4E3F2E0A0E8BFE00E94AF
:102F7000231C0E94CD190E94DC19EAE7F6E40E94A6
:102F8000A51B0E94EB19E4E3F2E0A0E8BFE00E9479
:102F9000231C0E94E3190E94F219A4E3B2E08C9171
:102FA0008F5F8C93A4E3B2E00C914AE00E94061D6F
:102FB0008C9300913402003011F00C940E18E4E868
:102FC000F6E40E94A51B0E94D519E5E3F2E0A0E813
:102FD000BFE00E94231C0E94CD190E94DC19A5E3CA
:102FE000B2E08C918F5F8C93A5E3B2E00C9143E04B
:102FF0000E94061D8C9300913502003011F00C9454
:103000000E18709132027F7B70933202E2E9F6E48F
:103010000E94A51B0E94D5190E94DC199A9B0C9452
:1030200039180027A9E0B1E08C9184FB00F944270E
:10303000A3E3B0E08C9182FB40F9041711F40C94E7
:103040003718E4EAF6E40E94A51B0E94D5190E94F5
:10305000DC19A3E3B0E08C9182FBA9E0B1E08C9194
:1030600084F98C93709109017B7F709309010C9412
:103070005F180027A9E0B1E08C9184FB00F9442798
:10308000A3E3B0E08C9182FB40F9041711F40C9497
:103090005F18ECEAF6E40E94A51B0E94D5190E9475
:1030A000DC19A3E3B0E08C9182FBA9E0B1E08C9144
:1030B00084F98C9370910901746070930901A9E0FF
:1030C000B1E08C9186FB16F00C94CB18709109013D
:1030D0007F7B70930901A9E0B1E08C9187FB16F426
:1030E0000C94CB18E4EBF6E40E94A51B0E94D519C2
:1030F000E9E2F2E0A0E8BFE00E94231C0E94CD19A3
:10310000EEE4F0E40E94A51B0E94D519E3E3F2E08F
:10311000A0E8BFE00E94231C0E94CD190E94DC1988
:10312000E4EBF6E40E94A51B0E94EB19E9E2F2E051
:10313000A0E8BFE00E94231C0E94E319EEE4F0E443
:103140000E94A51B0E94EB19E3E3F2E0A0E8BFE0B8
:103150000E94231C0E94E3190E94F219A1E3B2E02D
:103160008C918F5F8C93A1E3B2E00C914AE00E94B6
:10317000061D8C9300913102003011F00C94CB1895
:10318000EEEBF6E40E94A51B0E94D5190E94DC1903
:1031900081E080932C02A9E0B1E08C9180FB16F0D5
:1031A0000C946F19709109017E7F70930901AFE251
:1031B000B2E00E947F19AFE2B2E00D911C91AEE146
:1031C000B2E04D915C910E94AC19AFE2B2E00D9378
:1031D0001C93A2E3B2E08C9187FB16F40C9428199F
:1031E00000912902013011F00C940219E4EEFDE285
:1031F0000E94A51BAFE2B2E08D919C91AEE2B2E0DD
:103200000E94581B00912902023011F00C941419ED
:10321000E8E6FEE20E94A51BAFE2B2E08D919C9130
:10322000AEE2B2E00E94581B00912902033011F077
:103230000C942619E6E8FEE20E94A51BAFE2B2E07C
:103240008D919C91AEE2B2E00E94581B0C942B1918
:1032500087E080932E0200911001013011F00C9450
:103260006219EFE2F2E0A0E8BFE00E94131C0E94A6
:10327000CD19EEE4F0E40E94A51B0E94D519EEE200
:10328000F2E0A0E8BFE00E94231C0E94CD19EEE40A
:10329000F0E40E94A51B0E94D519E6EDF6E40E9419
:1032A000A51B0E94D519A2E3B2E08C9187FBA0E890
:1032B000BFE00E94961B8D9388278C930E94CD19A6
:1032C0000E94DC1980912E02D2018C9381E00E9431
:1032D000131B0E948D08229681E00E940F1BA9E01B
:1032E000B1E08C9183FB16F00C947D19709109016B
:1032F000777F709309010E946B030C945417ED9132
:10330000FC91EF5FFF4FFC93EE93089509D00E946C
:10331000191B00FC10D0089503D01ED001F8F9CF7E
:103320000024E89457FF02C009D0689400F80BD03D
:1033300010F80124089502D009D0089550954095C1
:103340004F5F5F4F0895E89417FF0895009510951B
:103350000F5F1F4F68940895352F242FE894452B55
:1033600011F468940895512F402F0027112780E110
:10337000440F551F001F111F021B130B416018F44F
:10338000020F131F4E7F8A9599F708958F938D91A1
:103390008823E9F711978F910895A0E8BFE08D91F8
:1033A000882311F00CD0FBCF08950E94421B802D82
:1033B00011F005D0FACF08958DE001D08AE05D9B31
:1033C000FECF8CB90895A0E8BFE08D91882311F05D
:1033D0000CD0FBCF08950E94421B802D11F005D028
:1033E000FACF08958DE001D08AE000909B0005FEA1
:1033F000FCCF80939C00089588EE93E00CD0319729
:10340000D9F708953197F1F70895689462F808950F
:10341000E89462F80895EF93FF93EE27E82BE92BE9
:1034200031F0E0EAFFE03197F1F70197D1F7FF9132
:10343000EF9108958DE207FD8D938F2D881F802FCA
:10344000881F8F57082F6894F7F8802F87FF17C0C1
:1034500080958395082F80E38D938EE28D93802F46
:10346000815238F080E38D9399279C930E949A1B98
:10347000089544270A95802F09F19ED01FC08052DD
:1034800030F09EE49D9381E48D939D93EDCF44278E
:10349000DF92EF92FF920F938FE1801B11F0082FC4
:1034A0008BD091D09EE29D930F91FF90EF90DF9093
:1034B00044270395003209F4D5CF33D03F93E8E594
:1034C000F5E30E94A51B38E12F2D1E2D0D2DFF24A5
:1034D000EE24DD244427000F111F221FB8F42F9281
:1034E0003F920E94421B102C0E94421B202C0E94E3
:1034F000421B302C0E94421B31970E946B1B410DD6
:10350000D21CE31CF01C3F902F9003C033960E9406
:10351000641B31960E94641B3A95E9F63F9107D0EF
:10352000A5CFDD0CEE1CFF1C0A95D9F708950027E6
:1035300019E058D08F93802B11F0039501C08F9123
:103540001A95B9F7802F882309F48CCF8F91805D6D
:103550008D930A95D9F788CF0065CD1D80B2E60E10
:1035600040597307A0ACB90350D6DC01286BEE00BC
:1035700094357700CA9A3B0065CD1D00B2E60E0077
:1035800059730700ACB90300D6DC01006BEE0000F4
:10359000357700009A3B0000CD1D0000E60E0000CC
:1035A00073070000B9030000DC010000EE0000001A
:1035B000770000003B000000F694E794D79447950D
:1035C0000A95D1F7089500270DD08F9303958F2D7D
:1035D0008E298D29842BC1F78F91805D8D930A955B
:1035E000D9F742CF1F930F93002710E2440FDD1C41
:1035F000EE1CFF1C001F802F9AE0890B10F0082F93
:1036000043951A9599F7802F0F911F910895019175
:103610001191219130810895481A590A0895481A44
:103620008827580A089599275A924A92480E591E97
:1036300008950F92B801469F8001479F100D569F35
:10364000100D0F9008950E94421B0D920020D9F793
:103650000895369A3699FECF369A3699FECF84B1C0
:1036600095B10895903029F08C91880F9A95E9F7DB
:103670008C930895903029F08C9186959A95E9F76E
:103680008C930895D895319628F48F938BB78395B2
:103690008BBF8F910020089591E005C092E003C098
:1036A00094E001C098E0EEDF0D929A95E1F708955D
:1036B000E80FF91F09D0F0CF880F991F880F991FC5
:1036C000E80FF91F01D0ECCF28F48F938BB78395C7
:1036D0008BBF8F91089528F48F938BB78A958BBFFA
:1036E0008F9108950196019721F00E94421BE9F7FE
:1036F000FACF0895819104D08D938823D9F7089546
:10370000813618F08B3708F48F7D089591E0882377
:1037100021F08894991F8A95E9F7892F909508954B
:10372000883018F011968850FBCF089580E30EF48E
:10373000839508950F9200240BBE0F9008950F9368
:1037400001E00BBF0F91889408950F930027F9CFE4
:103750000F9302E0F6CF99278D9193958823E1F797
:10376000939511968C9311978E919A95D1F7089510
:10377000EA2FFB2F00244C918D9103948E32E1F7B8
:1037800011248D9113948823E1F71A94101640F4B4
:103790001197202F2119239580E38D932A95E9F71E
:1037A000113039F59927AE2FBF2FA00DB91FA00FEB
:1037B000B91F8C919C93853308F421C031E08E9120
:1037C0008E32E9F38D3241F0830F8A3319F480E3AE
:1037D00031E001C033278C93AE1789F7332341F0D2
:1037E000AE2FBF2FB8DF81E34D3209F431968083CD
:1037F00008958827E00DF81FE00FF81F80830895D3
:10380000040F151F261F371F0895000F111F221FB9
:10381000331F089500951095209530950F5F1F4F29
:103820002F4F3F4F0895019110810FC00E94071B39
:103830000EC00E94071B10C00191108117FF05C028
:103840003FEF2FEF04C0008111272227332737FFD6
:1038500003C0E0DF8DE28D93CF92DF92EF92AA2436
:10386000BB24CC24DD24EE2440E2EAE0FF2755E02F
:1038700093E38081890F87FD9F7083FD907F891B73
:1038800081935A95A9F7C1DFAA1CBB1CCC1CDD1C77
:10389000EE1C4A9551F7E894EFE0FF2782910BD098
:1038A000EB30E0F71EF068948A2D09D04D93EF902D
:1038B000DF90CF900895982F829501D0892F8F7037
:1038C000805D26F0803309F4089568948D930895FF
:1038D00000271127222733271DD08A3328F480336D
:1038E00018F005D015D0F9CF0EF494CF0895805379
:1038F0008F93402F512F622F732F87DF86DF80DF5A
:1039000084DF8F919927080F191F291F391F0895E8
:103910008D910895E894FCDF8032E9F38B32D9F37E
:103920008930C9F38D3211F46894F2CF089541E0E3
:1039300003C042E001C044E0E40F8827F81F8291F1
:10394000982F829506D0892F04D04A95C1F70C9400
:10395000C71C8F708A3008F0895F805D8D93089551
:1039600000271127222733278D91882379F04DDFF7
:103970004CDF4BDF4ADFC4DE815408F4895F865F89
:10398000080F8827181F281F381FEECF0895882793
:103990008D93089581918D938823E1F7089594E0A4
:1039A00081918D939A95E1F70895099191919923C9
:1039B00059F08A95D9F73197002331F081918D9391
:1039C0000A958823C9F70895E2CFE199FECFEEBBAF
:1039D000FFBB3196089591E001C092E07B3751F42E
:1039E0007FB7F894F2DF8D918DBBE29AE19A9A95B8
:1039F000C9F77FBF7727089591E001C092E0E5DF26
:103A0000E09A8DB38D939A95D1F70895FF93881B13
:103A1000F9E0001FFA9511F4FF910895881F841BA7
:103A200018F4840F8894F5CF0894F3CF8FEF839523
:103A30009D919923E1F70895689401C0E894AF93AC
:103A4000BF938D9116F0919103C00E94421B902D5F
:103A5000891718F011F48823A1F7BF91AF91089549
:103A600000276CE8719198E00695779577FF18F438
:103A700077FD08F006279A95B9F78A9599F7089582
:103A80000027112730E141E20D90102528E08894AD
:103A9000001F111F10F4132704272A95C1F701975F
:103AA00099F70895689401C0E8942227102F2317EE
:103AB00009F4089526F40E94421B802D01C08191D3
:103AC000803081F0891741F070E08D931A9591F75D
:103AD000239571E01D93EACF01D0E8CF703011F04B
:103AE00077270895772331F42395882713958D93AD
:103AF0001A95E9F70895B7FE089590E8B91611F4FC
:103B0000D0FE08959FEFD91AE90AF90A09F403953E
:103B10000895D190E190F190019108952191319112
:103B2000419151910895502F2D2D3E2D4F2D612FF4
:103B30000895D094E094F09491E0D90E9927E91E6D
:103B4000F91E10950895652F90E8440F551F5927C9
:103B5000990F47956078102F90E8FF0C001F0927F8
:103B6000990FF794107800380895FF0C90E890278B
:103B7000110F9795F794092F08951127BD2CDE2C6E
:103B8000EF2CF02E0EE1FF2039F4FE2CED2CDB2C77
:103B9000BB240850C2F752C032F00A95BB0CDD1CA2
:103BA000EE1CFF1CF9CFA7DFE0CF2DEC3CEC4CEC7A
:103BB0005DE366270FC0ADDFB6DFDD24EE2490E8BD
:103BC000F92E0FE307C0AADF05C02227332740E202
:103BD00051E46627552351F1002381F1B4DF71F1DF
:103BE0001627005850580894050B18F407FD03C019
:103BF00025C007FD23C0469537952795F694E79491
:103C0000D79425D0FF202AF0DD0CEE1CFF1C0150BC
:103C100073F09D2D969548F0DD203AF4EE202AF4BD
:103C200091E0D90E9927E91EF91E9FCF07C09FE7A3
:103C3000092FF92A9FEFD92EE92E0895DD24EE24CD
:103C4000FF240027112708950FE79FEFF2CF9F92DF
:103C50009924AA24BB2488E1D216E306F40628F0AE
:103C6000D21AE30AF40A089401C08894991CAA1C89
:103C7000BB1CDD0CEE1CFF1C8A9571F7D92CEA2CBD
:103C8000FB2C9F9008955FDFD9F05038C9F01627BC
:103C90000058952F90580894091F12F418F40EC07C
:103CA00008F00EC00FD0FF202AF0BB0CDD1CEE1C6C
:103CB000FF1C02C0039513F01EDF57CF0C94171E94
:103CC0000C941E1E9F92FF92EF928D2DFF24EE24E6
:103CD000DD24BB2493E0849F1001829FB00CD11C93
:103CE000E21CF31C839FD00CE11C2224F21C9A9549
:103CF00031F0BD2CDE2CEF2CFF248F91ECCF9F9068
:103D000008950AF045D031CF5FE3222733274427B7
:103D100001C004DF18DF5038B1F3003899F3902F59
:103D2000951B8BF312F434D0FACF983118F0222778
:103D300033274427983028F0232F342F44279850D6
:103D4000F9CF992329F04695379527959A95D9F774
:103D5000912F962742F014D0B0F6F794E794D794B9
:103D60000F5F8BF664CF10D051F008F4E2DEFF2035
:103D700052F2DD0CEE1CFF1C0150CBF758CF5ECF8A
:103D8000D20EE31EF41E0895D21AE30AF40A08952F
:103D9000DF92EF92FF920F931F93D22EE32EF42E19
:103DA000052F162F6F915F914F913F912F9108959D
:103DB0000E94421BD02C0E94421BE02C0E94421BFE
:103DC000F02C0E94421B002D08950E94421B202DC2
:103DD0000E94421B302D0E94421B402D0E94421B1C
:103DE000502D08950E94081A88278A938A9326DF07
:103DF00011278D918B32E9F38032D9F31197BBD023
:103E000098F08D3229F4109511968C91B4D060F011
:103E10008E3229F411968C91AED008F446C02296C9
:103E20000E94051A81E008958C91A5D0D8F51196CD
:103E300046D0D0F703958D919ED0E0F38E3229F4D1
:103E40008C9199D010F41196FBCF853419F08536FA
:103E500009F055C011968C918ED060F08D3219F01A
:103E60008B3221F0DCCF08800094088211968C916F
:103E700082D0A8F68053898311968C917CD058F417
:103E80009981990F990F0980900D990F8053890F8F
:103E90008983873220F68981988199230AF4819554
:103EA000080F2DC08E3289F611968C9164D068F679
:103EB00006D018F011960A95F8CF1196C1CF4F2D64
:103EC0003E2D2D2DDD0CEE1CFF1CA8F0DD0CEE1C94
:103ED000FF1C88F0D20EE31EF41E68F0DD0CEE1C11
:103EE000FF1C48F0805309F06894D80E8827E81E1C
:103EF000F81E08F00895F42EE32ED22E089534D043
:103F000019F116F5098308E921D0069588278795C8
:103F10009F2D9F77980FF92E0150000F110F0795D5
:103F20008981882379F01AF48195898306C03DDE62
:103F300089818A958983D9F705C047DE89818A9569
:103F40008983D9F72296089579DEFCCF0DD041F010
:103F5000FF2032F00A9531F0DD0CEE1CFF1CD2F789
:103F6000889408950894089500240D280E280F2899
:103F7000002A00200895803320F08A3310F408943A
:103F80000895889408950000004100000000FF0D8E
:103F9000613D0000803F2A2A2A2A2A2A2A2A2A2A20
:103FA0002A2A2044524956455220415544494F201F
:103FB0002A2A2A2A2A2A2A2A2A2A2A2A00003131A7
:103FC0002D30362D323032342031353A35343A33D3
:103FD0003100302E312E33303300524144494F42AC
:103FE00052494447455F564F4C2E424153004E754F
:103FF0006D6573746163696F6E3D00004164636B4E
:104000002800293D0000436F6E7461646F72206464
:1040100065207472616E736D6973696F6E6573206C
:104020003D0054616E693D00434E54524352434F2C
:104030004B3D0000434E54524352434241443D00E5
:10404000566F6C3D0000543D000072783D002C001E
:104050004D6F646F2074657374204C6F63616C00E6
:104060004D6F646F20416C65727461204E617261A6
:104070006E6A61204C6F63616C0041204D6F646F0C
:10408000204E6F726D616C206465736465204D6FA6
:10409000646F2054657374204C6F63616C00412021
:1040A0004D6F646F204E6F726D616C206465736438
:1040B0006520412E204E6172616E6A61204C6F63F3
:1040C000616C000043616D62696F20646520537408
:1040D000617475733D004E7565766F20537461741D
:1040E000757320526563696269646F20706F722016
:1040F000526164696F3D0000414443003D004C45FE
:1041000045564657000056657273696F6E204657D4
:104110003A204665636861203C0031312D30362DF0
:10412000323032342031353A35343A3332003E2C95
:10413000204172636869766F203C00003E00534561
:10414000544C45440000536520636F6E6669677583
:104150007261207365746C656420612000004C45B9
:10416000454C4544000045737461646F204C4544E0
:104170003D005345545458500000536520636F6E02
:1041800066696775726F207469656D706F2064650C
:1041900020747820706572696F646963617320614F
:1041A00020002073000053455454544500005365CB
:1041B00020636F6E66696775726F207469656D70D4
:1041C0006F20646520747820656E74726520657355
:1041D000746163696F6E65732061200053455443B9
:1041E00054580000536520636F6E66696775726F7F
:1041F00020636F6E7461646F722074783D004C456B
:104200004554585000005469656D706F20646520F6
:10421000747820706572696F6469636173203D0012
:104220004C454554544500005469656D706F2064D9
:104230006520747820656E7472652065737461639F
:10424000696F6E6573203D004C454543545800002E
:10425000436F6E7461646F722064652074783D00F2
:1042600054535444454C0000546573742044656CA9
:10427000617920200000494E490046494E00494ED0
:104280004954585000004E7565766120747820506E
:104290006572696F6469636100005345545354410A
:1042A0000000536520636F6E66696775726F206EDC
:1042B000756D65726F206465206573746163696FE5
:1042C0006E203D004C454553544100006E756D65B0
:1042D000726F206465206573746163696F6E203D41
:1042E0000000525844544D46000053696D756C618E
:1042F00063696F6E20646520525820746F6E6F730F
:104300002044544D460045737461646F5F6C65646E
:10431000313D000045737461646F5F6C6564323DCC
:1043200000005345544144430000536520636F6EC1
:1043300066696775726F2041444320004C454541D2
:104340004443000056616C6F726573204144432002
:1043500000005345544442470000536520686162A1
:10436000696C69746120646973706C61792064653B
:10437000627567004452564155440000526573709F
:1043800075657374612044525620415544494F3D30
:104390000000534554414E490000536520636F6E41
:1043A0006669677572612054616E693D00004C4515
:1043B00045414E4900005345545054520000536546
:1043C00020636F6E66696775726120507472616EEA
:1043D000693D0000534554434F4B00005365206333
:1043E0006F6E66696775726120434E545243524343
:1043F0004F4B3D00534554424144000053652063F8
:104400006F6E66696775726120434E545243524322
:104410004241443D00004C45454352430000435255
:10442000434F4B3D0000202C204352434241443D2A
:1044300000004C45454241540000564241543D0065
:10444000202C205650533D005253545641520000E8
:104450005265696E6963696F20612076616C6F7265
:10446000657320706F72206465666563746F000009
:10447000494E495641520000496E696369616C6951
:104480007A61207661726961626C657300005345E0
:10449000544D4F440000536520636F6E6669677525
:1044A000726F206D6F646F204F46463D00004C4593
:1044B000454D4F4400004D6F646F204F46463D0010
:1044C0005345544453500000534520636F6E666952
:1044D000677572612073616C6964612064656C73D7
:1044E00020646973706C61792061200053455452D7
:1044F000454C000072656C653D0046696E20726532
:104500006C005345544255470000536520636F6E5D
:1045100066696720454E414255473D004C4545423E
:1045200055470000454E414255473D004C454556D4
:1045300044430000566261743D002C205670733D68
:1045400000002C20566463333D004C4545493243FE
:104550000000536520636F6E662049324300564168
:104560004C493243000056616C4932432000525896
:10457000204E45572044544D4600686578206474A9
:104580006D6600004352433D000043524363616C3B
:104590003D00435243204F4B3D005472616D6120FA
:1045A00076616C6964610000566F6C756D656E3D77
:1045B0000000436E747274783D005472616D612026
:1045C000484558004D4F444F4F46463D302C000063
:1045D0004D4F444F4F46463D312C000053544154FB
:1045E00055532052583D00005472616D612044546F
:1045F0004D4600005472616D6120414C41524D4165
:1046000000005472616D612054455354000054728F
:10461000616D61204E4F524D414C00004D6F646FF3
:10462000204F4646206E6F637475726E6F004E4F5A
:104630002065732054455354206E6920616C61726B
:104640006D61202E204E6F20726573706F6E6465F1
:1046500000004641494C204944205472616D61007C
:10466000435243206661696C3D00534552313D0021
:10467000545820414C6572746100244C45454932C0
:10468000432C0000436E7472747279693263413D49
:10469000000046494E20636F6E73756C7461204153
:1046A000444300004142494552544F004345525251
:1046B00041444F00244452564155442C0000536954
:1046C0006E20726573707565737461204452564133
:0C46D0005544494F00004F46463D000095
:00000001FF
