:100000000C94460018950000189500001895000003
:10001000189500000C94DB0218950000189500005C
:10002000189500001895000018950000189500001C
:10003000189500001895000018950000189500000C
:100040000C94D501189500000C94B100189500008F
:1000500018950000189500001895000018950000EC
:1000600018950000189500001895000018950000DC
:1000700018950000189500000C9443011895000095
:100080001895000018950000189500008FEF8DBF9F
:10009000C0E8E8E94E2E80E18EBFD0E1FFE05F2EA0
:1000A000A89584B7082E807E84BF88E1992781BDFA
:1000B00091BDEEEFFFE0A0E0B1E088278D9331978E
:1000C000E9F787E689B980E08093900088E18AB9F2
:1000D00080E08093980087E68093990088E1809380
:1000E0009A006624A59AA69AA79A709164007460F3
:1000F00070936400B99ABB9ABC9ABD9ABE9ABF9A93
:100100008C988D988E988F981498949A959A969A20
:10011000979AA098A198A298A89AA99AAA9AD49ACC
:10012000D59AD69AD79AA49A87E083BF77B7716099
:1001300077BF87E083BF579A70919A007068709379
:100140009A0087E886B980E087B9339A379A79B7F9
:10015000706179BF8AB78C7F81608ABF78940C9474
:1001600027190F921F922F923F924F925F927F9288
:10017000AF92BF920F931F932F933F934F935F9331
:100180006F937F938F939F93AF93BF93CF93DF939F
:10019000EF93FF938FB78F938BB78F9388278BBF86
:1001A000AEE7B6E08CB18C9384E2482F00917E06D6
:1001B000041711F00C94E70070919C027062709328
:1001C0009C02A5EBB5E088278C930C9424010D309C
:1001D00011F00C940C01ACE9B2E08C9185FB16F0A7
:1001E0000C940A0170919C027F7D70939C0280E0C8
:1001F000A5EBB5E00E94A21B8D9388278C93E5EBBD
:10020000F5E0AFE7B6E00E94B61E70919C02706107
:1002100070939C020C9424010F3118F011F00C948F
:1002200013010C942401ACE9B2E08C9185FB16F02B
:100230000C942401AEE7B6E08C91A5EBB5E00E94EA
:10024000A21B8D9388278C938F918BBF8F918FBF2B
:10025000FF91EF91DF91CF91BF91AF919F918F91DE
:100260007F916F915F914F913F912F911F910F91CE
:10027000BF90AF907F905F904F903F902F901F90D6
:100280000F90189508950F921F922F923F924F92C0
:100290005F927F92AF92BF920F931F932F933F93E2
:1002A0004F935F936F937F938F939F93AF93BF937E
:1002B000CF93DF93EF93FF938FB78F938BB78F938A
:1002C00088278BBFAEE7B6E080919C008C9384E2D8
:1002D000482F00917E06041711F00C947A0170915A
:1002E0009C02706270939C02A5EBB5E088278C930A
:1002F0000C94B7010D3011F00C949F01ACE9B2E001
:100300008C9185FB16F00C949D0170919C027F7D71
:1003100070939C0280E0A5EBB5E00E94A21B8D9338
:1003200088278C93E5EBF5E0AFE7B6E00E94B61EB8
:1003300070919C02706170939C020C94B7010F3114
:1003400018F011F00C94A6010C94B701ACE9B2E0DE
:100350008C9185FB16F00C94B701AEE7B6E08C915A
:10036000A5EBB5E00E94A21B8D9388278C938F91FB
:100370008BBF8F918FBFFF91EF91DF91CF91BF9195
:10038000AF919F918F917F916F915F914F913F912D
:100390002F911F910F91BF90AF907F905F904F90E2
:1003A0003F902F901F900F9018950F921F922F92B1
:1003B0003F924F925F927F92AF92BF920F931F93A3
:1003C0002F933F934F935F936F937F938F939F935D
:1003D000AF93BF93CF93DF93EF93FF938FB78F9339
:1003E0008BB78F9388278BBF74E672BFA0E9B2E00A
:1003F0008C918F5F8C93A0E9B2E00C9148E00E9451
:10040000F21E8C9300919002003011F00C943B028C
:10041000A1E9B2E00C9140E20E94F21E8C93E4E468
:10042000F1E30E94811DA6E9B2E08C919927A2E92F
:10043000B2E00E94381D80919102A2E9B2E00E94D0
:100440006C1D0E94621D0C900822689409F4E894C7
:10045000A2E3B2E08C9183F98C93A2E3B2E08C9199
:1004600083FBA5E3B0E08C9185F98C93A1E9B2E020
:100470008C918F5F8C93A7E9B2E08C918F5F8C9306
:10048000A7E9B2E00C9144E60E94F21E8C93009121
:100490009702003011F00C94700270919C0270640D
:1004A00070939C0270910901706470930901ACE132
:1004B000B2E08C918F5F8C9300911C0240911D02E1
:1004C0000E94F21EACE1B2E08C9300911C0200305D
:1004D00011F00C9470027091090171607093090120
:1004E000A2E3B2E08C9180FB16F00C949202AAE990
:1004F000B2E00E945B1BADE9B2E04D915C91AAE9CC
:10050000B2E00D911C910417150711F00C949202A2
:1005100070919C02706870939C02709132027E7F91
:1005200070933202A9E0B1E08C9185FB16F00C9437
:10053000BD02C19AA2E1B1E00E945B1BA2E1B1E061
:100540000D911C9144EF51E00E94881BA2E1B1E0A3
:100550000D931C93A2E1B1E00D911C91003050E08D
:10056000150711F00C94BD0280E080936B0270912E
:1005700009017F7D70930901C1988F918BBF8F9185
:100580008FBFFF91EF91DF91CF91BF91AF919F917D
:100590008F917F916F915F914F913F912F911F911B
:1005A0000F91BF90AF907F905F904F903F902F90B2
:1005B0001F900F9018950F921F922F923F924F927B
:1005C0005F927F92AF92BF920F931F932F933F93AF
:1005D0004F935F936F937F938F939F93AF93BF934B
:1005E000CF93DF93EF93FF938FB78F938BB78F9357
:1005F00088278BBFAEE8B2E08C918F5F8C930C9B09
:100600000C940503AF9A0C940603AF980C9B0C94C2
:100610004D03AAE6B2E080B38C9394E0AAE6B2E080
:100620000E94161DABE6B2E08C918F5F8C93809197
:100630006A02ABE6B2E0AD90BB24ABE6B2E0AA0D35
:10064000BB1D8C93ABE6B2E00C9144E10E94F21E1C
:100650008C9300916B02013011F00C943403709173
:10066000090170627093090100916B02003011F072
:100670000C943F03709132027062709332020091C9
:100680006B020E3018F011F00C9448030C944D03DB
:10069000709132027062709332028F918BBF8F9192
:1006A0008FBFFF91EF91DF91CF91BF91AF919F915C
:1006B0008F917F916F915F914F913F912F911F91FA
:1006C0000F91BF90AF907F905F904F903F902F9091
:1006D0001F900F901895AD98AC98C39AEEE6F3E48E
:1006E0000E94811D0E94B11B0E94B81BA0E8BFE0C0
:1006F000E4E9F3E40E94811D0E94FF1C0E94A91BF3
:100700000E94B81BA0E8BFE0E8EAF3E40E94811D64
:100710000E94FF1C0E94A91B0E94B81BA0E8BFE01A
:10072000E0EBF3E40E94811D0E94FF1C0E94A91BC4
:100730000E94B81B81E08093960281E08093290299
:100740008CE291E0AEE1B2E08D939C9381E08093E6
:100750002B0281E080932C02E4E0F0E0A2E2B2E020
:100760000E94E81EE4ECF3E40E94811D0E94B11B8C
:10077000E2E2F2E0A0E8BFE00E94FF1D0E94A91B98
:100780000E94B81B81E08093BA020091BA02033044
:1007900018F011F00C941904AAEBB2E0AD90BB2450
:1007A000A8EBB2E0AA0CBB1CAA0CBB1CAA0DBB1D7B
:1007B000EAEBF2E0A190BB24E5E0F0E0AA0CBB1C60
:1007C000AA0CBB1CEA0DFB1D94E00E94EB1EE2ED9F
:1007D000F3E40E94811D0E94B11BEAEBF2E0A0E865
:1007E000BFE00E94FF1D0E94A91BE8EDF3E40E94F8
:1007F000811D0E94B11BEAEBF2E0A190BB24E8EB63
:10080000F2E0AA0CBB1CAA0CBB1CEA0DFB1DA0E865
:10081000BFE00E94751F0E94F61B0E94A91B0E9448
:10082000B81BAAEBB2E08C918F5F8C9310F40C9400
:10083000C503A3E2B2E0E5E0F0E094E00E94EB1E25
:10084000ECEDF3E40E94811D0E94B11BE3E2F2E0B3
:10085000A0E8BFE00E94751F0E94F61B0E94A91B22
:100860000E94B81B709109017F77709309018AE09B
:1008700080931D02E8EFF3E40E94811D0E94B11BEA
:10088000EDE1F2E0A0E8BFE00E94FF1D0E94A91B7D
:100890000E94B81BE5E1F0E0A0EEB2E00E94EA1E83
:1008A000EEEFF3E40E94811D0E94B11BE0EEF2E046
:1008B000A0E8BFE00E94EF1D0E94A91B0E94B81B88
:1008C000E7E1F0E0A2EEB2E00E94EA1EEAE0F4E422
:1008D0000E94811D0E94B11BE2EEF2E0A0E8BFE0A1
:1008E0000E94EF1D0E94A91B0E94B81B84E1809307
:1008F0003302E6E1F4E40E94811D0E94B11BE3E3B0
:10090000F2E0A0E8BFE00E94FF1D0E94A91B0E9428
:10091000B81B81E08093000100910001043018F0C1
:1009200011F00C94D104E0E0F1E0A190BB24E8E1E7
:10093000F0E0EA0DFB1DA0E0B1E0AD90BB24A3EE1A
:10094000B2E0AA0DBB1D0E94E81EECE1F4E40E9497
:10095000811D0E94B11BE0E0F1E0A0E8BFE00E9431
:10096000FF1D0E94A91BE4E2F4E40E94811D0E9485
:10097000B11BE0E0F1E0A190BB24E3EEF2E0EA0D70
:10098000FB1DA0E8BFE00E94FF1D0E94A91B0E9462
:10099000B81BA0E0B1E08C918F5F8C9310F40C94A5
:1009A0008C040895EEE5F3E40E94811D0E94C420AA
:1009B000E9E0F0E0ADE0BB2794E07BE70E94DA1EBF
:1009C000EEE5F3E40E94811D0E94C420EDE0F0E01A
:1009D000ADE0BB2794E07BE70E94DA1EEEE5F3E48E
:1009E0000E94811D0E94C420E1E1F0E0ADE0BB2740
:1009F00094E07BE70E94DA1EE4E0F0E0A0E1BB2790
:100A00008EE08C937BE70E94D71EE2E6F3E40E941F
:100A1000811D0E94C420E5E0F0E0ADE0BB2794E03A
:100A20007BE70E94DA1EE5E1F0E000E010E0A0E1E3
:100A3000BB277BE70E94D91EE7E1F0E000E010E071
:100A4000A0E1BB277BE70E94D91EE9E1F0E0A0E12D
:100A5000BB2780E88C937BE70E94D71EEAE1F0E099
:100A6000A0E1BB2780E88C937BE70E94D71EEBE1D7
:100A7000F0E0A0E1BB2780E88C937BE70E94D71EC3
:100A8000ECE1F0E0A0E1BB2780E88C937BE70E94DB
:100A9000D71E0895A881B9818D919C91ADE9B2E0EE
:100AA0008D939C9380E090E0AAE9B2E08D939C93B3
:100AB00070919C027F7770939C02709132027160FA
:100AC00070933202ACE9B2E08C9187FB16F40C947F
:100AD0006C05A8950C946205089581E0809300014F
:100AE00000910001043018F011F00C94B40500914D
:100AF000000141E0041BA2E0B1E00C93A0E0B1E0F2
:100B0000AD90BB24A3EEB2E0AA0DBB1D4C91A0E0BA
:100B1000B1E0AD90BB24A5E3B2E0AA0DBB1D0C91E2
:100B2000041710F00C94A10580910201A8EEB2E028
:100B30000E946C1D0E94621D8C9189238C930C94E1
:100B4000AC0580910201A8EEB2E00E946C1D0E94EB
:100B5000621D9C91982B9C93A0E0B1E08C918F5FDB
:100B60008C9310F40C947005D201E8EEF2E00E9430
:100B70008C1ED2010E94AB1B0E94B81B0895E6E2B6
:100B8000F4E40E94811D0E94B11B0E94B81BA2E2E6
:100B9000B2E08C9180FBAAE3B2E08C9180F98C9357
:100BA000A2E2B2E08C9181FBAAE3B2E08C9181F9E0
:100BB0008C93A2E2B2E08C9182FBAAE3B2E08C912A
:100BC00082F98C93A2E2B2E08C9183FBAAE3B2E0BB
:100BD0008C9183F98C93A9E2B2E08C9180FBAAE31B
:100BE000B2E08C9184F98C93A9E2B2E08C9181FB04
:100BF000AAE3B2E08C9185F98C93A9E2B2E08C91E2
:100C000082FBAAE3B2E08C9186F98C93A9E2B2E070
:100C10008C9183FBAAE3B2E08C9187F98C93E3E299
:100C2000F2E0A5E0B1E00E94BB1E80910501809337
:100C30003B028091060180933C02809107018093E2
:100C40003D028091080180933E02ACE2B2E08C91BB
:100C500080FBAFE3B2E08C9180F98C93ACE2B2E020
:100C60008C9181FBAFE3B2E08C9181F98C93ACE283
:100C7000B2E08C9182FBAFE3B2E08C9182F98C936D
:100C8000ACE2B2E08C9183FBAFE3B2E08C9183F9EC
:100C90008C930E946D05A8EEB2E08C9180FBAFE3CF
:100CA000B2E08C9184F98C93A8EEB2E08C9181FB38
:100CB000AFE3B2E08C9185F98C93A8EEB2E08C9111
:100CC00082FBAFE3B2E08C9186F98C93A8EEB2E0A0
:100CD0008C9183FBAFE3B2E08C9187F98C93809188
:100CE000D402809340028091D5028093410280918A
:100CF000D602809342028091D70280934302809172
:100D0000D802809344028091D90280934502809159
:100D1000DA02809346028091DB0280934702EAE385
:100D2000F2E08EE00E941C1FA0E0B1E00C938091E5
:100D30000001809348028091220280934A028091B0
:100D4000290280934B0283E08093040181E0809329
:100D50000001009100010E3018F011F00C94F10622
:100D60000091000141E0040FA2E0B1E00C93A2E089
:100D7000B1E0AD90BB24A9E3B2E0AA0DBB1D8C91FC
:100D800080930301009103014FE00423A4E0B1E04C
:100D9000AD90BB24A9E4B2E0AA0DBB1D0C93A4E066
:100DA000B1E08C918F5F8C9394E0A3E0B1E00E945E
:100DB000161D80910301A4E0B1E0AD90BB24A9E42D
:100DC000B2E0AA0DBB1D8C93A4E0B1E08C918F5FC3
:100DD0008C93A0E0B1E08C918F5F8C9310F40C9415
:100DE000A90608957091650074607093650084E6AB
:100DF00090E0D2018D939C9382E00E94EF1C0E94B0
:100E00004A05229682E00E94EB1C81E080930A0151
:100E100000910A010E3118F011F00C947307AAE04A
:100E2000B1E0AD90BB24A9E4B2E0AA0DBB1D8C914A
:100E300080FBA8E3B0E08C9184F98C93AAE0B1E048
:100E4000AD90BB24A9E4B2E0AA0DBB1D8C9181FB3F
:100E5000A8E3B0E08C9185F98C93AAE0B1E0AD9065
:100E6000BB24A9E4B2E0AA0DBB1D8C9182FBA8E3D0
:100E7000B0E08C9186F98C93AAE0B1E0AD90BB24F0
:100E8000A9E4B2E0AA0DBB1D8C9183FBA8E3B0E0FE
:100E90008C9187F98C93AE9AC39888E090E0D20148
:100EA0008D939C9382E00E94EF1C0E944A0522963B
:100EB00082E00E94EB1CC39AAE9884E090E0D201DD
:100EC0008D939C9382E00E94EF1C0E944A0522961B
:100ED00082E00E94EB1CAAE0B1E08C918F5F8C93C2
:100EE00010F40C940807709165007B7F7093650087
:100EF00008950C9B0C94EA07AAE6B2E080B38C93A9
:100F000094E0AAE6B2E00E94161DE4E3F4E40E9435
:100F1000811D0E94B11BEAE6F2E0A0E8BFE00E945A
:100F2000731E0E94A91B0E94B81BABE6B2E08C9115
:100F30008F5F8C9380916A02ABE6B2E0AD90BB24E8
:100F4000ABE6B2E0AA0DBB1D8C93ABE6B2E00C9110
:100F50004CE00E94F21E8C9300916B02003011F065
:100F60000C94EA07E8E3F4E40E94811D0E94B11B9F
:100F70000E94B81B81E080930A0100910A010C30A5
:100F800018F011F00C94EA07EAE0F1E0A0E8BFE005
:100F90000E94FF1D0E94A91BECE3F4E40E94811D46
:100FA0000E94B11BEAE0F1E0A190BB24EBE6F2E085
:100FB000EA0DFB1DA0E8BFE00E94731E0E94A91B62
:100FC0000E94B81BAAE0B1E08C918F5F8C9310F463
:100FD0000C94BD07089500912B02013011F00C9480
:100FE0001B0980E080938F02A3E3B0E08C9180FB2B
:100FF000AFE8B2E08C9180F98C93A3E3B0E08C91E0
:1010000081FBAFE8B2E08C9181F98C9300912902C9
:10101000013011F00C946D08A2E3B2E08C9187FBD3
:1010200016F40C94180881E0809396020C941B0827
:101030008BE08093960200918F02023011F00C94A5
:101040003A08EEE3F4E40E94811D0E94B11B0E9465
:10105000B81B82E080932902709109017F77709319
:10106000090182E0809396028EE190E0AEE1B2E069
:101070008D939C9300918F02003081E009F080E015
:101080008F9300918F02013081E009F080E09F9101
:10109000892B882311F40C946B08EEE4F4E40E948D
:1010A000811D0E94B11B0E94B81B83E0809329021E
:1010B00083E080939602709109017F777093090114
:1010C000709132027061709332028EE190E0AEE175
:1010D000B2E08D939C930C94C908023011F00C94EB
:1010E0009C0800918F02033011F00C949A08E8E6F6
:1010F000F4E40E94811D0E94B11B0E94B81B81E094
:101100008093290281E080939602709109017F7794
:10111000709309018CE390E0AEE1B2E08D939C9373
:10112000A2E3B2E08C9187FB16F00C949A088BE056
:10113000809396020C94C908033011F00C94C908EE
:1011400000918F02033011F00C94C908ECE8F4E42C
:101150000E94811D0E94B11B0E94B81B81E08093F8
:10116000290281E080939602709109017F77709344
:1011700009018CE390E0AEE1B2E08D939C93A2E391
:10118000B2E08C9187FB16F00C94C9088BE0809339
:10119000960240912A0200912902041711F40C943E
:1011A0001909709109017F777093090170913202DA
:1011B0007064709332028091290280932A02E2EBDC
:1011C000F4E40E94811D0E94B11BE9E2F2E0A0E874
:1011D000BFE00E94FF1D0E94A91B0E94B81B009146
:1011E0002902013011F00C94FD088CE390E0AEE18F
:1011F000B2E08D939C930C941309023011F00C947F
:1012000009098EE190E0AEE1B2E08D939C930C94DD
:101210001309033011F00C9413098EE190E0AEE154
:10122000B2E08D939C9380E090E0AFE2B2E08D93CA
:101230009C930C948A0980912B02809329028091BF
:1012400029028093960200912902013081E009F081
:1012500080E08F93A2E3B2E08C9187FB81E00EF0F7
:1012600080E09F918923882311F40C943A098BE044
:101270008093960240912A0200912902041711F4EA
:101280000C948A09709109017F777093090180910C
:10129000290280932A02E4ECF4E40E94811D0E945A
:1012A000B11BE9E2F2E0A0E8BFE00E94FF1D0E944E
:1012B000A91B0E94B81B70913202706470933202B5
:1012C00000912902013011F00C946E0988E592E03A
:1012D000AEE1B2E08D939C930C948409023011F03E
:1012E0000C947A098EE190E0AEE1B2E08D939C938C
:1012F0000C948409033011F00C9484098EE190E081
:10130000AEE1B2E08D939C9380E090E0AFE2B2E07A
:101310008D939C9300912902013011F00C94910956
:10132000AC9800912902023011F00C949809AC9A03
:1013300000912902033011F00C949F09AC9A00919E
:101340002902003011F00C94A609AC9800912902F2
:10135000033018F011F00C94AF090C94B009AC985C
:101360000895A881B9818C9180FBABE3B0E08C91AA
:1013700084F98C93A881B9818C9181FBABE3B0E0B7
:101380008C9185F98C93A881B9818C9182FBABE318
:10139000B0E08C9186F98C93A881B9818C9183FB04
:1013A000ABE3B0E08C9187F98C93089581E0809352
:1013B000BA020091BA02033018F011F00C942C0A12
:1013C000E8E8F1E30E94811DAAEBB2E08C91992735
:1013D000ABEBB2E00E94341D07B1007E8091BB02EE
:1013E00090E0890F082707B90E94051DA8EBB2E01D
:1013F0008D939C93E8EBF2E0D190E080FF240027EE
:101400000E94A91F0E947F1FEAEBF2E0A190BB247B
:10141000EBE9F2E0AA0CBB1CAA0CBB1CEA0DFB1DFD
:101420000E94751F0E947620EDE0F0E0AAEBB2E08A
:10143000AD90BB24ABE9B2E0AA0CBB1CAA0CBB1C50
:10144000AA0DBB1D0E94BB1EAAEBB2E08C918F5F60
:101450008C9310F40C94D909ABEAB2E08C918F5FB5
:101460008C93ABEAB2E00C9148E00E94F21E8C93A0
:101470000091AB02003011F00C94060B81E08093D8
:10148000BA020091BA02033018F011F00C94F40A79
:10149000E6E6F3E40E94811D0E94D120EAEBF2E02F
:1014A000A190BB24EBE9F2E0AA0CBB1CAA0CBB1C6C
:1014B000EA0DFB1D0E94751F0E94D61FEDE0F0E0B3
:1014C000AAEBB2E0AD90BB24A8EAB2E0AA0CBB1C28
:1014D000AA0CBB1CAA0DBB1D0E94BB1EAAEBB2E04E
:1014E000AD90BB24ABE9B2E0AA0CBB1CAA0CBB1CA0
:1014F000AA0DBB1DE2E6F3E40E94811D0E942C1D93
:10150000EAEBF2E0A190BB24E8EBF2E0AA0CBB1CF2
:10151000AA0CBB1CEA0DFB1D0E947A1FEAEBF2E04D
:10152000A190BB24E8EAF2E0AA0CBB1CAA0CBB1CED
:10153000EA0DFB1D0E94751F0E942F20EDE0F0E0D8
:10154000AAEBB2E0AD90BB24A4ECB2E0AA0CBB1CA9
:10155000AA0CBB1CAA0DBB1D0E94BB1E0091110151
:10156000013011F00C94EC0AE6EEF4E40E94811DC7
:101570000E94B11BEAEBF2E0A0E8BFE00E94FF1D71
:101580000E94A91BE4E2F4E40E94811D0E94B11BA9
:10159000A0E8BFE0AF93BF93EAEBF2E0A190BB24D9
:1015A000E4ECF2E0AA0CBB1CAA0CBB1CEA0DFB1D70
:1015B0000E94751F0E94F61B11E001E0BF91AF91E0
:1015C0000E94941DE0E8FFE0A0E8BFE00E94B61E84
:1015D0000E94A91B0E94B81BAAEBB2E08C918F5FFE
:1015E0008C9310F40C94410AE8ECF2E0A4EDB2E024
:1015F0000E94BB1EECECF2E0A8EDB2E00E94BB1E24
:10160000E0EDF2E0ACEDB2E00E94BB1E0895AFE762
:10161000B6E00E94AB1B0E94B81B81E0EFE7F6E04A
:1016200006E00A93A5EEB1E00E94C11EEFE7F6E0E6
:101630009CE204E132E2ABEEB2E00E94401FAAEE6F
:10164000B2E02C93ABEEB2E00E94021F082F0630EE
:1016500011F00C940D15EBEEF2E0A4E1B1E00E9464
:10166000B61EE4E1F1E0A4E1B1E00E94561D8FEF67
:101670008093E401A4E1B1E0EAEEF4E40E94811D6C
:101680000E94081F11F00C94860B80E08093E40107
:10169000ABE1B1E0E2EFF4E40E94811D0E94FF1C87
:1016A000A5EEB1E0E6E0F5E40E94811D0E94FF1C7A
:1016B000E5EEF1E0ABE1B1E00E94A21B0E94B61E94
:1016C000ABE1B1E00E94A21BEAE1F5E40E94811DBA
:1016D0000E94FF1CA5EEB1E0E0EBF3E40E94811D47
:1016E0000E94FF1CE5EEF1E0ABE1B1E00E94A21B1D
:1016F0000E94B61EABE1B1E00E94A21BE8E2F5E455
:101700000E94811D0E94FF1C0C940B15EAE2F5E477
:101710000E94811D0E94081F11F00C94C50B0091BE
:10172000EA02023011F00C94C00BA0E0B3E00E947A
:10173000441EA0E0B1E00C9300910001013110F0D3
:101740000C94BB0B80E08093E401ABE1B1E0E2E3F9
:10175000F5E40E94811D0E94FF1CE0E0F1E0ABE196
:10176000B1E00E94A21B0E94FF1D809100018093A6
:1017700096020C94BE0B85E08093E4010C94C30B9D
:1017800084E08093E4010C940B15EAE4F5E40E94F4
:10179000811D0E94081F11F00C94E30B80E08093E0
:1017A000E401ABE1B1E0E2E5F5E40E94811D0E94B5
:1017B000FF1CE6E9F2E0ABE1B1E00E94A21B0E944F
:1017C000FF1D0C940B15EEE5F5E40E94811D0E94AF
:1017D000081F11F00C942D0C0091EA02023011F058
:1017E0000C94280C80E08093E401A0E0B3E00E9418
:1017F000441EACE0B1E00D931C93ACE0B1E08D91E0
:101800009C91A0E2B2E08D939C93E2E0F0E0ACE02A
:10181000B1E07BE70E94D91EABE1B1E0E6E6F5E47A
:101820000E94811D0E94FF1CE0E2F2E0ABE1B1E00A
:101830000E94A21B0E94EF1DABE1B1E00E94A21B1F
:10184000EEE8F5E40E94811D0E94FF1C0C942B0C15
:1018500084E08093E4010C940B15E2E9F5E40E9426
:10186000811D0E94081F11F00C94770C0091EA0270
:10187000023011F00C94720C80E08093E401A0E03F
:10188000B3E00E94441EACE0B1E00D931C93ACE0C9
:10189000B1E08D919C91AAE1B2E08D939C93E0E040
:1018A000F0E0ACE0B1E07BE70E94D91EABE1B1E033
:1018B000EAE9F5E40E94811D0E94FF1CEAE1F2E0E2
:1018C000ABE1B1E00E94A21B0E94EF1DABE1B1E0D1
:1018D0000E94A21BEEE8F5E40E94811D0E94FF1CFD
:1018E0000C94750C84E08093E4010C940B15E8ECE7
:1018F000F5E40E94811D0E94081F11F00C94BA0C9F
:101900000091EA02023011F00C94B50C80E0809353
:10191000E401A0E0B3E00E94DE20EDE0F0E0A5E00D
:10192000B1E00E94BB1EE5E0F1E0A3E2B2E00E945C
:10193000BB1EE5E0F0E0A5E0B1E094E07BE70E94AB
:10194000DA1EABE1B1E0E0EDF5E40E94811D0E94FA
:10195000FF1CE3E2F2E0ABE1B1E00E94A21B0E94B7
:10196000751F0E94F61B0C94B80C84E08093E40170
:101970000C940B15EAEEF5E40E94811D0E94081FED
:1019800011F00C94E20C80E08093E401ABE1B1E053
:10199000E2EFF5E40E94811D0E94FF1CE0E2F2E00C
:1019A000ABE1B1E00E94A21B0E94EF1DABE1B1E0F0
:1019B0000E94A21BEEE8F5E40E94811D0E94FF1C1C
:1019C0000C940B15ECE0F6E40E94811D0E94081FA8
:1019D00011F00C940A0D80E08093E401ABE1B1E0DA
:1019E000E4E1F6E40E94811D0E94FF1CEAE1F2E0BE
:1019F000ABE1B1E00E94A21B0E94EF1DABE1B1E0A0
:101A00000E94A21BEEE8F5E40E94811D0E94FF1CCB
:101A10000C940B15E4E3F6E40E94811D0E94081F5C
:101A200011F00C942A0D80E08093E401ABE1B1E069
:101A3000ECE3F6E40E94811D0E94FF1CE3E2F2E069
:101A4000ABE1B1E00E94A21B0E94751F0E94F61B31
:101A50000C940B15ECE4F6E40E94811D0E94081F13
:101A600011F00C947B0D0091EA02023011F00C94FD
:101A7000760D80E08093E401A0E0B3E00E94441E74
:101A8000ACE0B1E00D931C93ABE1B1E0E4E5F6E42A
:101A90000E94811D0E94FF1CECE0F1E0ABE1B1E08F
:101AA0000E94A21B0E94EF1DE2E6F6E40E94811D47
:101AB0000E94B11B0E94B81BACE0B1E08D919C91DB
:101AC000D2018D939C9382E00E94EF1C0E944A05F4
:101AD000229682E00E94EB1CE6E6F6E40E94811D5D
:101AE0000E94B11B0E94B81B0C94790D84E0809376
:101AF000E4010C940B15EAE6F6E40E94811D0E94B5
:101B0000081F11F00C94960D80E08093E401709111
:101B10003202726070933202ABE1B1E0E2E7F6E4C8
:101B20000E94811D0E94FF1C0C940B15E6E8F6E450
:101B30000E94811D0E94081F11F00C94CD0D009190
:101B4000EA02023011F00C94C80D80E08093E401A9
:101B5000A0E0B3E00E94441EA2E2B2E00C93E4E0F5
:101B6000F0E0A2E2B2E07BE70E94D71EABE1B1E079
:101B7000EEE8F6E40E94811D0E94FF1CE2E2F2E022
:101B8000ABE1B1E00E94A21B0E94FF1D0C94CB0DA3
:101B900084E08093E4010C940B15E0EBF6E40E94E2
:101BA000811D0E94081F11F00C94EB0D80E08093C2
:101BB000E401ABE1B1E0E8EBF6E40E94811D0E9494
:101BC000FF1CE2E2F2E0ABE1B1E00E94A21B0E9446
:101BD000FF1D0C940B15EEECF6E40E94811D0E9493
:101BE000081F11F00C94670E0091EA02053111F004
:101BF0000C94620E80E08093E401ABE1B1E0E6ED8D
:101C0000F6E40E94811D0E94FF1CE2EFF6E40E94B0
:101C1000811D0E94B11BE6E9F2E0A0E8BFE00E944E
:101C2000FF1D0E94A91B0E94B81B80E08093000149
:101C300082E080930A0100910A01053118F011F049
:101C40000C944B0EA0E0B1E08C918F5F8C93AAE0D6
:101C5000B1E00D91112745E150E00E94F51CA6ED81
:101C6000B2E0A00FB11F0E949C1EA2E0B1E00C9355
:101C700080910201A0E0B1E0AD90BB24ABE6B2E000
:101C8000AA0DBB1D8C93AAE0B1E08C918F5F8C9361
:101C900010F40C941B0E7091320270627093320239
:101CA000E0E0F7E40E94811D0E94B11BE6E9F2E04A
:101CB000A0E8BFE00E94FF1D0E94A91B0E94B81B64
:101CC0000C94650E84E08093E4010C940B15EEE017
:101CD000F7E40E94811D0E94081F11F00C94ED0E84
:101CE0000091EA02033011F00C94E80EA0E0B3E09A
:101CF0000E94441EA0E0B1E00C930091000103306B
:101D000018F011F00C94E30E80E08093E401A5E15B
:101D1000B3E00E94DE20EDE0F0E0A5E0B1E00E943B
:101D2000BB1EE5E0F1E0A0E0B1E0AD90BB24A8EB84
:101D3000B2E0AA0CBB1CAA0CBB1CAA0DBB1D0E94C6
:101D4000BB1EE0E0F1E0A190BB24E5E0F0E0AA0CCE
:101D5000BB1CAA0CBB1CEA0DFB1DA5E0B1E094E086
:101D60007BE70E94DA1EABE1B1E0E6E1F7E40E9416
:101D7000811D0E94FF1CE0E0F1E0ABE1B1E00E94B8
:101D8000A21B0E94FF1DABE1B1E00E94A21BE4E296
:101D9000F4E40E94811D0E94FF1CE0E0F1E0A190AC
:101DA000BB24E8EBF2E0AA0CBB1CAA0CBB1CEA0D9E
:101DB000FB1DABE1B1E00E94A21B0E94751F0E94B7
:101DC000F61B0C94E60E85E08093E4010C94EB0E78
:101DD00084E08093E4010C940B15E8E2F7E40E94A0
:101DE000811D0E94081F11F00C94450F80E0809324
:101DF000E401ABE1B1E0E0E3F7E40E94811D0E9461
:101E0000FF1C81E080930B0100910B01033018F05F
:101E100011F00C94430FEBE0F1E0ABE1B1E00E9474
:101E2000A21B0E94FF1DABE1B1E00E94A21BE4E2F5
:101E3000F4E40E94811D0E94FF1CEBE0F1E0A19000
:101E4000BB24E8EBF2E0AA0CBB1CAA0CBB1CEA0DFD
:101E5000FB1DABE1B1E00E94A21B0E94751F0E9416
:101E6000F61BABE1B1E00E94A21BECE3F4E40E949C
:101E7000811D0E94FF1CABE0B1E08C918F5F8C93C1
:101E800010F40C94040F0C940B15EEE3F7E40E948D
:101E9000811D0E94081F11F00C945E0F80E080935A
:101EA000E401ABE1B1E0E6E4F7E40E94811D0E94A9
:101EB000FF1C81E0809311010C940B15E0E6F7E420
:101EC0000E94811D0E94081F11F00C94C20F009106
:101ED000EA02023011F00C948A0F80E08093E40152
:101EE000ABE1B1E0E8E6F7E40E94811D0E94FF1C2F
:101EF000E0E0F3E0ABE1B1E00E94A21B0E94B61E5D
:101F00007091090170687093090180E080932C0240
:101F10000C94C00F033011F00C94BD0F80E080933F
:101F2000E401ABE1B1E0E8E6F7E40E94811D0E9424
:101F3000FF1CE0E0F3E0ABE1B1E00E94A21B0E94D5
:101F4000B61EABE1B1E00E94A21BECE3F4E40E94F8
:101F5000811D0E94FF1CE5E1F3E0ABE1B1E00E94CE
:101F6000A21B0E94B61E709109017068709309014E
:101F700080E080932C020C94C00F84E08093E401F5
:101F80000C940B15EEE7F7E40E94811D0E94081FD8
:101F900011F00C94F20F0091EA02023011F00C944F
:101FA000ED0F80E08093E401A0E0B3E00E94441EC6
:101FB000ADE1B2E00C93ABE1B1E0E6E8F7E40E94FA
:101FC000811D0E94FF1CEDE1F2E0ABE1B1E00E9457
:101FD000A21B0E94FF1D0C94F00F84E08093E4018B
:101FE0000C940B15EAE9F7E40E94811D0E94081F7A
:101FF00011F00C94101080E08093E401ABE1B1E0AB
:10200000E8EFF3E40E94811D0E94FF1CEDE1F2E085
:10201000ABE1B1E00E94A21B0E94FF1D0C940B15C6
:10202000E2EAF7E40E94811D0E94081F11F00C945F
:1020300041100091EA02023011F00C943C1080E053
:102040008093E401A0E0B3E00E94441EAFE2B2E05E
:102050000D931C93ABE1B1E0EAEAF7E40E94811D25
:102060000E94FF1CEFE2F2E0ABE1B1E00E94A21B94
:102070000E94EF1D0C943F1084E08093E4010C94C7
:102080000B15E0ECF7E40E94811D0E94081F11F07F
:102090000C9479100091EA02023011F00C94741043
:1020A00080E08093E401A0E0B3E00E94441EA0EE33
:1020B000B2E00D931C93E5E1F0E0A0EEB2E07BE727
:1020C0000E94D91EABE1B1E0E8ECF7E40E94811D6B
:1020D0000E94FF1CE0EEF2E0ABE1B1E00E94A21B27
:1020E0000E94EF1D0C94771084E08093E4010C941F
:1020F0000B15E0EEF7E40E94811D0E94081F11F00D
:102100000C94B1100091EA02023011F00C94AC1062
:1021100080E08093E401A0E0B3E00E94441EA2EEC0
:10212000B2E00D931C93E7E1F0E0A2EEB2E07BE7B2
:102130000E94D91EABE1B1E0E8EEF7E40E94811DF8
:102140000E94FF1CE2EEF2E0ABE1B1E00E94A21BB4
:102150000E94EF1D0C94AF1084E08093E4010C9476
:102160000B15E2E0F8E40E94811D0E94081F11F0A7
:102170000C94E11080E08093E401ABE1B1E0EAE08F
:10218000F8E40E94811D0E94FF1CE0EEF2E0ABE14A
:10219000B1E00E94A21B0E94EF1DABE1B1E00E94E2
:1021A000A21BE2E1F8E40E94811D0E94FF1CE2EE06
:1021B000F2E0ABE1B1E00E94A21B0E94EF1D0C9483
:1021C0000B15EEE1F8E40E94811D0E94081F11F03A
:1021D0000C94311180E08093E401ABE1B1E0E6E2E0
:1021E000F8E40E94811D0E94FF1CA0E8BFE0AF93AD
:1021F000BF93E4EDF2E00E94751F0E94F61B11E010
:1022000002E0BF91AF910E94941DE0E8FFE0ABE1D6
:10221000B1E00E94A21B0E94B61EABE1B1E00E9499
:10222000A21BECE2F8E40E94811D0E94FF1CA0E8C2
:10223000BFE0AF93BF93E8EDF2E00E94751F0E94EC
:10224000F61B11E002E0BF91AF910E94941DE0E8FF
:10225000FFE0ABE1B1E00E94A21B0E94B61E0C940D
:102260000B15E4E3F8E40E94811D0E94081F11F0A1
:102270000C944E1180E08093E4010E94D204ABE103
:10228000B1E0ECE3F8E40E94811D0E94FF1C709114
:1022900009017860709309010C940B15ECE5F8E4E2
:1022A0000E94811D0E94081F11F00C94691180E0AA
:1022B0008093E40170910901786070930901ABE1AA
:1022C000B1E0E4E6F8E40E94811D0E94FF1C0C943A
:1022D0000B15EAE7F8E40E94811D0E94081F11F027
:1022E0000C94D0110091EA02023011F00C94CB1141
:1022F000A0E0B3E00E94441EA0E0B1E00C93009186
:102300000001023010F00C94C61180E08093E401CB
:1023100000910001013011F00C94AA117091320269
:10232000706870933202ABE1B1E0E2E8F8E40E9439
:10233000811D0E94FF1CA2E3B2E08C9187FBABE100
:10234000B1E00E94A21B0E94721D8D9388278C937E
:102350000C94C411709132027F7770933202ABE11A
:10236000B1E0E2E8F8E40E94811D0E94FF1CA2E3B4
:10237000B2E08C9187FBABE1B1E00E94A21B0E940E
:10238000721D8D9388278C930C94C91185E08093DE
:10239000E4010C94CE1184E08093E4010C940B15BD
:1023A000EAE9F8E40E94811D0E94081F11F00C94D4
:1023B000F31180E08093E401ABE1B1E0E2EAF8E4FC
:1023C0000E94811D0E94FF1CA2E3B2E08C9187FB5A
:1023D000ABE1B1E00E94A21B0E94721D8D93882781
:1023E0008C930C940B15ECEAF8E40E94811D0E947A
:1023F000081F11F00C9430120091EA02023011F023
:102400000C942B12A0E0B3E00E94441EA0E0B1E0C7
:102410000C9380910001D2018C9381E00E94EF1C0B
:102420000E94B109229681E00E94EB1CABE1B1E071
:10243000E4EBF8E40E94811D0E94FF1CE0E0F1E063
:10244000ABE1B1E00E94A21B0E94FF1D80E08093DF
:10245000E4010C942E1284E08093E4010C940B159B
:10246000E8EDF8E40E94811D0E94081F11F00C9411
:1024700081120091EA02023011F00C947C1280E08B
:102480008093E401A0E0B3E00E94441EA0E0B1E02C
:102490000C9300910001023010F00C94771200911F
:1024A0000001013011F00C945812AC9A0C9459129E
:1024B000AC98ABE1B1E0E0EEF8E40E94811D0E942F
:1024C000FF1CE0E0F1E0ABE1B1E00E94A21B0E9442
:1024D000FF1DE3E0F0E00E94D81BE6EEF8E40E9466
:1024E000811D0E94B11B0E94B81B0C947A1285E0DA
:1024F0008093E4010C947F1284E08093E4010C94B7
:102500000B15EEEEF8E40E94811D0E94081F11F0E9
:102510000C94B1120091EA02023011F00C94AC124A
:1025200080E08093E401A0E0B3E00E94441EA0E1BB
:10253000B1E00C93ABE1B1E0E6EFF8E40E94811D5D
:102540000E94FF1CE0E1F1E0ABE1B1E00E94A21BC0
:102550000E94FF1D0C94AF1284E08093E4010C9460
:102560000B15E8E0F9E40E94811D0E94081F11F09C
:102570000C94CF1280E08093E401ABE1B1E0E0E1A4
:10258000F9E40E94811D0E94FF1CE0E1F1E0ABE153
:10259000B1E00E94A21B0E94FF1D0C940B15E8E104
:1025A000F9E40E94811D0E94081F11F00C94411350
:1025B00080E08093E401ABE1B1E0E0E2F9E40E9465
:1025C000811D0E94FF1CA0E8BFE0AF93BF93E4ED24
:1025D000F2E00E94751F0E94F61B11E001E0BF911E
:1025E000AF910E94941DE0E8FFE0ABE1B1E00E94F2
:1025F000A21B0E94B61EABE1B1E00E94A21BE6E264
:10260000F9E40E94811D0E94FF1CA0E8BFE0AF9387
:10261000BF93E8EDF2E00E94751F0E94F61B11E0E7
:1026200001E0BF91AF910E94941DE0E8FFE0ABE1B3
:10263000B1E00E94A21B0E94B61EABE1B1E00E9475
:10264000A21BEEE2F9E40E94811D0E94FF1CA0E89B
:10265000BFE0AF93BF93ECEDF2E00E94751F0E94C4
:10266000F61B11E001E0BF91AF910E94941DE0E8DC
:10267000FFE0ABE1B1E00E94A21B0E94B61E0C94E9
:102680000B15E6E3F9E40E94811D0E94081F11F07A
:102690000C94AE130091EA02033011F00C94A913CC
:1026A000A0E0B3E00E94441EA0E0B1E00C930091D2
:1026B0000001003080E010F009F081E08F9300917C
:1026C0000001053081E008F080E09F918923882394
:1026D00011F40C94A413A5E1B3E00E94441EA2E0FF
:1026E000B1E00C9380910201A0E0B1E0AD90BB2479
:1026F000A5E3B2E0AA0DBB1D8C93ABE1B1E0EEE324
:10270000F9E40E94811D0E94FF1CE0E0F1E0ABE1D2
:10271000B1E00E94A21B0E94FF1DABE1B1E00E944C
:10272000A21BE4E2F4E40E94811D0E94FF1CE2E08F
:10273000F1E0ABE1B1E00E94A21B0E94FF1D80E02E
:102740008093E4010C94A71385E08093E4010C943A
:10275000AC1384E08093E4010C940B15EAE4F9E4F3
:102760000E94811D0E94081F11F00C940F1400910B
:10277000EA02023011F00C940A14A0E0B3E00E94C7
:10278000441EA0E0B1E00C9300910001003080E015
:1027900010F009F081E08F9300910001053081E095
:1027A00008F080E09F918923882311F40C9405148C
:1027B00080E08093E401ABE1B1E0E2E5F9E40E945E
:1027C000811D0E94FF1CE0E0F1E0ABE1B1E00E945E
:1027D000A21B0E94FF1DABE1B1E00E94A21BE4E23C
:1027E000F4E40E94811D0E94FF1CE0E0F1E0A19052
:1027F000BB24E5E3F2E0EA0DFB1DABE1B1E00E9492
:10280000A21B0E94FF1D0C94081485E08093E40134
:102810000C940D1484E08093E4010C940B15EAE50C
:10282000F9E40E94811D0E94081F11F00C9490147D
:102830000091EA02033011F00C948B14A0E0B3E095
:102840000E94441EA0E0B1E00C9300910001003012
:1028500080E010F009F081E08F93009100010530D5
:1028600081E008F080E09F918923882311F40C9483
:10287000861480E08093E401A5E1B3E00E94441E49
:10288000A0E0B1E0AD90BB24A3EEB2E0AA0DBB1D69
:102890000C93E0E0F1E0A190BB24E8E1F0E0EA0D68
:1028A000FB1DA0E0B1E0AD90BB24A3EEB2E0AA0D09
:1028B000BB1D7BE70E94D71EABE1B1E0E2E6F9E485
:1028C0000E94811D0E94FF1CE0E0F1E0ABE1B1E05D
:1028D0000E94A21B0E94FF1DABE1B1E00E94A21B5F
:1028E000E8E7F9E40E94811D0E94FF1CE0E0F1E0AE
:1028F000A190BB24E3EEF2E0EA0DFB1DABE1B1E0F9
:102900000E94A21B0E94FF1D0C94891485E08093F5
:10291000E4010C948E1484E08093E4010C940B1574
:10292000ECE7F9E40E94811D0E94081F11F00C944D
:10293000EA140091EA02023011F00C94E5140091BF
:102940000001003080E010F009F081E08F930091E9
:102950000001053081E008F080E09F918923882301
:1029600011F40C94E01480E08093E401ABE1B1E059
:10297000E4E8F9E40E94811D0E94FF1CE0E0F1E020
:10298000ABE1B1E00E94A21B0E94FF1DABE1B1E0F0
:102990000E94A21BE4E2F4E40E94811D0E94FF1C3D
:1029A000E0E0F1E0A190BB24E3EEF2E0EA0DFB1DD4
:1029B000ABE1B1E00E94A21B0E94FF1D0C94E31446
:1029C00085E08093E4010C94E81484E08093E401B2
:1029D0000C940B15E0E9F9E40E94811D0E94081F88
:1029E00011F00C94081580E08093E401ABE1B1E0B4
:1029F000E8E9F9E40E94811D0E94FF1CABE1B1E00F
:102A00000E94A21BE8EEF2E00E948C1E0C940B15B3
:102A100081E08093E4010C94101582E08093E4013E
:102A20000091E401003018F011F00C9419150C9489
:102A30002715EAE6F0E30E94811DA4EEB1E08C9137
:102A400099270E944E1DABE1B1E00E94FF1CABE153
:102A5000B1E00E94AB1B0E94B81B0895E0EAF9E4C4
:102A60000E94811D0E94B11B0E94B81B80917002C0
:102A700080932702809171028093280280E08093E6
:102A8000030181E080930A0100910A01043118F0EA
:102A900011F00C949E15EAE0F1E0A190BB24EBE666
:102AA000F2E0EA0DFB1DA0E8BFE00E94731E0E9449
:102AB000A91BECE3F4E40E94811D0E94B11BAAE073
:102AC000B1E00C9100FB16F00C947315AAE0B1E094
:102AD000AD90BB24ABE6B2E0AA0DBB1D8C918093F8
:102AE00000010C949615AAE0B1E0AD90BB24ABE6D2
:102AF000B2E0AA0DBB1D8C918093020194E0A2E08C
:102B0000B1E00E940E1DA3E0B1E08C918F5F8C9329
:102B10000091000140910201042BA3E0B1E0AD90CF
:102B2000BB24A1E8B2E0AA0DBB1D0C93AAE0B1E062
:102B30008C918F5F8C9310F40C9444150E94B81BF9
:102B4000ECEAF9E40E94811D0E94B11B0E94B81BAF
:102B500081E080930A0100910A010A3018F011F017
:102B60000C94CE15EAE0F1E0A190BB24E1E8F2E09C
:102B7000EA0DFB1DA0E8BFE00E94731E0E94A91B86
:102B8000ECE3F4E40E94811D0E94B11BAAE0B1E0D5
:102B90008C918F5F8C9310F40C94AB150E94B81B32
:102BA00088E090E0A2E8B2E00E942C1FACE0B1E027
:102BB0000D931C93E6EBF9E40E94811D0E94B11B6A
:102BC000ECE0F1E0A0E8BFE00E94751E0E94A91BA6
:102BD0000E94B81B90918A0280918B02AEE0B1E016
:102BE0008D939C93ECEBF9E40E94811D0E94B11B34
:102BF000EEE0F1E0A0E8BFE00E94751E0E94A91B74
:102C00000E94B81BAEE0B1E04D915C91ACE0B1E048
:102C10000D911C910417150711F00C941718E4EC92
:102C2000F9E40E94811D0E94B11BA0EEB2E00E9457
:102C30005B1BE5E1F0E0A0EEB2E07BE70E94D91E6D
:102C4000E0EEF2E0A0E8BFE00E94EF1D0E94A91BA9
:102C50000E94B81B00918202043281E009F080E0FA
:102C60008F9300918302053581E009F080E09F9108
:102C70008923882311F40C940D18ECECF9E40E94DC
:102C8000811D0E94B11B0E94B81BEAEDF9E40E946D
:102C9000811D0E94B11BE5E8F2E0A0E8BFE00E94C0
:102CA000FF1D0E94A91B0E94B81B80918502809382
:102CB00033024091270200912202041711F00C9474
:102CC0006B17A3E2B2E0EAE6F3E40E94811D0E94E2
:102CD000D120E3E2F2E00E94751F0E947620EDE031
:102CE000F0E0A3E2B2E00E94BB1EE5E0F0E0A3E268
:102CF000B2E094E07BE70E94DA1EE4EEF9E40E9481
:102D0000811D0E94B11BE3E2F2E0A0E8BFE00E9457
:102D1000751F0E94F61B0E94A91B0E94B81B0E94EF
:102D2000BF05ECEEF9E40E94811D0E94B11B0E94D8
:102D3000B81B81E080930A0100910A010F3018F05E
:102D400011F00C94BF16EAE0F1E0A190BB24E9E396
:102D5000F2E0EA0DFB1DA0E8BFE00E94731E0E9496
:102D6000A91BECE3F4E40E94811D0E94B11BAAE0C0
:102D7000B1E08C918F5F8C9310F40C949C160E94A0
:102D8000B81BA8E2B2E00C9103FB16F40C94E71612
:102D9000709132027F7770933202E6EFF9E40E947D
:102DA000811D0E94B11BA2E3B2E08C9187FBA0E8D9
:102DB000BFE00E94721D8D9388278C930E94A91BEF
:102DC0000E94B81B81E0809396020C9404177091C6
:102DD0003202706870933202E2E0FAE40E94811DD0
:102DE0000E94B11BA2E3B2E08C9187FBA0E8BFE098
:102DF0000E94721D8D9388278C930E94A91B0E94AC
:102E0000B81B8BE08093960270912802777F7093B5
:102E100028028091280280932B02EEE0FAE40E94BF
:102E2000811D0E94B11BEBE2F2E0A0E8BFE00E942E
:102E3000FF1D0E94A91B0E94B81B80912B0280934A
:102E400029020E94B81BEAE1FAE40E94811D0E9457
:102E5000B11B0E94B81BEEECF6E40E94811D0E949B
:102E6000B11B81E080930A0100910A010E3118F034
:102E700011F00C945717ECE3F4E40E94811D0E94BA
:102E8000B11BEAE0F1E0A190BB24E9E4F2E0EA0D35
:102E9000FB1DA0E8BFE00E94731E0E94A91BAAE0D0
:102EA000B1E08C918F5F8C9310F40C9434170E94D6
:102EB000B81B88EC90E0D2018D939C9382E00E9435
:102EC000EF1C0E944A05229682E00E94EB1C0E94A1
:102ED000F2060C940B18009127020F3011F00C949D
:102EE0009917E6E2FAE40E94811D0E94B11B0E943C
:102EF000B81B83E080932B0283E08093290283E058
:102F000080939602EEE0FAE40E94811D0E94B11BBC
:102F1000EBE2F2E0A0E8BFE00E94FF1D0E94A91BC7
:102F20000E94B81B709132027F77709332020C942A
:102F30000B18009127020E3011F00C94C717E4E330
:102F4000FAE40E94811D0E94B11B0E94B81B82E01E
:102F500080932B0282E08093290282E08093960284
:102F6000709132027F7770933202EEE0FAE40E94B1
:102F7000811D0E94B11BEBE2F2E0A0E8BFE00E94DD
:102F8000FF1D0E94A91B0E94B81B0C940B180091F6
:102F900027020D3011F00C94E517E0E4FAE40E94EA
:102FA000811D0E94B11B0E94B81B709132027F7775
:102FB0007093320281E080932B0281E0809329029A
:102FC00081E0809396020C940B18009127020C303C
:102FD00011F00C940318EEE4FAE40E94811D0E94A3
:102FE000B11B0E94B81B81E080932B0281E080938B
:102FF00029028BE080939602709132027068709380
:1030000032020C940B18E0E6FAE40E94811D0E9443
:10301000B11B0E94B81B0C941518E4E8FAE40E9456
:10302000811D0E94B11B0E94B81B0C943218E2E96A
:10303000FAE40E94811D0E94B11BA2EEB2E00E9440
:103040005B1BE7E1F0E0A2EEB2E07BE70E94D91E55
:10305000E2EEF2E0A0E8BFE00E94EF1D0E94A91B93
:103060000E94B81B0E94B81B08954F4B00436F6D20
:10307000616E646F206E6F207265636F6E6F63693F
:10308000646F004C6F6E676974756420636F6D6167
:103090006E646F206E6F2076616C696461004E759E
:1030A0006D65726F206465207573756172696F203C
:1030B0006E6F2076616C69646F004E756D65726F1E
:1030C00020646520706172616D6574726F73206930
:1030D0006E76616C69646F004572726F72206C6FFE
:1030E0006E676974756420706172616D6574726F6A
:1030F0002031004572726F72206C6F6E6769747553
:103100006420706172616D6574726F20320050616D
:1031100072616D6574726F206E6F2076616C696488
:103120006F004552524F5238004552524F52205371
:10313000442E20496E74656E7465206465206E753A
:1031400065766F00000000000300000033000000FF
:1031500033030000333300003333030033C00C006B
:10316000FF0FFF0F55555555333333337777777747
:103170000000FFFFCC00FCFFCC0CFCFFCCCCFCFF24
:103180000C00FCFFF0FFFFFF000001020300000045
:1031900000000101010103040404060606060606F8
:1031A00007000000000101010103040404060606F3
:1031B00006060607000000000101010103040404E3
:1031C00006060606060604040606070707070700A4
:1031D0000606060606060404060606060606040497
:1031E0000706060606060604040606060606060484
:1031F0000406060606060604040606060606060477
:103200000407060606060606040406060606060663
:10321000060008080808080808080808080806063C
:103220000608080808080808080808080806060626
:103230000C0C0C0C0C0C0C0C0C0C0C0C0C0C0C0CCE
:103240000C0C0C0C0C0C0C0C0C0C0C0C0C0C0E9434
:103250006B03ACE9B2E08C9184FB16F00C9443193B
:1032600070919C027F7E70939C02ECE9FAE40E94CC
:10327000811D0E94B11BAFE7B6E00E94AB1B0E940C
:10328000B81B0E94070BA2E3B2E08C9185FB16F0FD
:103290000C945119709132027F7D709332020E941A
:1032A0002E150E94EB07A2E3B2E08C9184FB16F08E
:1032B0000C946719709132027F7E70933202E2EAB9
:1032C000FAE40E94811D0E94B11B0E94B81BACE968
:1032D000B2E08C9186FB16F00C94EA1970919C0276
:1032E0007F7B70939C020E94D609A2E3B2E08C918E
:1032F00086FB16F00C94EA1900913402043010F0A9
:103300000C94A9190091340241E0040FA9EEB2E037
:103310000C93ECEAFAE40E94811D0E94B11BE9EED5
:10332000F2E0A0E8BFE00E94FF1D0E94A91B0E94DE
:10333000B81BECEAFAE40E94811D0E94C71BE9EE6B
:10334000F2E0A0E8BFE00E94FF1D0E94BF1B0E94A8
:10335000CE1BA4E3B2E08C918F5F8C93A4E3B2E028
:103360000C914AE00E94F21E8C93009134020030CE
:1033700011F00C94EA19E6EBFAE40E94811D0E9418
:10338000B11BE5E3F2E0A0E8BFE00E94FF1D0E9450
:10339000A91B0E94B81BA5E3B2E08C918F5F8C93B0
:1033A000A5E3B2E00C9143E00E94F21E8C930091E1
:1033B0003502003011F00C94EA19709132027F7BD3
:1033C00070933202E4ECFAE40E94811D0E94B11B6A
:1033D0000E94B81B9A9B0C94151A0027A9E0B1E033
:1033E0008C9184FB00F94427A3E3B0E08C9182FB2D
:1033F00040F9041711F40C94131AE6EDFAE40E9454
:10340000811D0E94B11B0E94B81BA3E3B0E08C9108
:1034100082FBA9E0B1E08C9184F98C937091090151
:103420007B7F709309010C943B1A0027A9E0B1E05F
:103430008C9184FB00F94427A3E3B0E08C9182FBDC
:1034400040F9041711F40C943B1AEEEDFAE40E94D3
:10345000811D0E94B11B0E94B81BA3E3B0E08C91B8
:1034600082FBA9E0B1E08C9184F98C937091090101
:10347000746070930901A9E0B1E08C9186FB16F0AD
:103480000C94A71A709109017F7B70930901A9E040
:10349000B1E08C9187FB16F40C94A71AE6EEFAE4DF
:1034A0000E94811D0E94B11BE9E2F2E0A0E8BFE0AA
:1034B0000E94FF1D0E94A91BECE3F4E40E94811D01
:1034C0000E94B11BE3E3F2E0A0E8BFE00E94FF1D11
:1034D0000E94A91B0E94B81BE6EEFAE40E94811D1F
:1034E0000E94C71BE9E2F2E0A0E8BFE00E94FF1DD6
:1034F0000E94BF1BECE3F4E40E94811D0E94C71BE5
:10350000E3E3F2E0A0E8BFE00E94FF1D0E94BF1BC2
:103510000E94CE1BA1E3B2E08C918F5F8C93A1E35C
:10352000B2E00C914AE00E94F21E8C9300913102AD
:10353000003011F00C94A71AE0EFFAE40E94811D0C
:103540000E94B11B0E94B81B81E080932C02A9E06D
:10355000B1E08C9180FB16F00C944B1B709109012B
:103560007E7F70930901AFE2B2E00E945B1BAFE285
:10357000B2E00D911C91AEE1B2E04D915C910E94E0
:10358000881BAFE2B2E00D931C93A2E3B2E08C91F2
:1035900087FB16F40C94041B00912902013011F0F2
:1035A0000C94DE1AEEE8F1E30E94811DAFE2B2E076
:1035B0008D919C91AEE2B2E00E94341D00912902EF
:1035C000023011F00C94F01AE2E1F2E30E94811D46
:1035D000AFE2B2E08D919C91AEE2B2E00E94341D68
:1035E00000912902033011F00C94021BE0E3F2E396
:1035F0000E94811DAFE2B2E08D919C91AEE2B2E0FB
:103600000E94341D0C94071B87E080932E020091CA
:103610001001013011F00C943E1BEFE2F2E0A0E843
:10362000BFE00E94EF1D0E94A91BECE3F4E40E949E
:10363000811D0E94B11BEEE2F2E0A0E8BFE00E9413
:10364000FF1D0E94A91BECE3F4E40E94811D0E946F
:10365000B11BE8E0FBE40E94811D0E94B11BA2E3C4
:10366000B2E08C9187FBA0E8BFE00E94721D8D93B1
:1036700088278C930E94A91B0E94B81B80912E0260
:10368000D2018C9381E00E94EF1C0E94B109229626
:1036900081E00E94EB1CA9E0B1E08C9183FB16F065
:1036A0000C94591B70910901777F709309010E9456
:1036B0006B030C942919ED91FC91EF5FFF4FFC9384
:1036C000EE93089509D00E94F51C00FC10D00895D7
:1036D00003D01ED001F8F9CF0024E89457FF02C0B0
:1036E00009D0689400F80BD010F80124089502D096
:1036F00009D00895509540954F5F5F4F0895E89425
:1037000017FF0895009510950F5F1F4F6894089557
:10371000352F242FE894452B11F468940895512FE8
:10372000402F0027112780E1440F551F001F111F54
:10373000021B130B416018F4020F131F4E7F8A9572
:1037400099F708958F938D918823E9F711978F91B9
:103750000895A0E8BFE08D91882311F00CD0FBCF35
:1037600008950E941E1D802D11F005D0FACF0895F6
:103770008DE001D08AE05D9BFECF8CB90895A0E872
:10378000BFE08D91882311F00CD0FBCF08950E94EB
:103790001E1D802D11F005D0FACF08958DE001D0C7
:1037A0008AE000909B0005FEFCCF80939C0008956A
:1037B00088EE93E00CD03197D9F708953197F1F75F
:1037C0000895689462F80895E89462F80895EF9374
:1037D000FF93EE27E82BE92B31F0E0EAFFE0319789
:1037E000F1F70197D1F7FF91EF9108958DE207FD71
:1037F0008D938F2D881F802F881F8F57082F6894D7
:10380000F7F8802F87FF17C080958395082F80E3F6
:103810008D938EE28D93802F815238F080E38D93CB
:1038200099279C930E94761D089544270A95802F1E
:1038300009F19ED01FC0805230F09EE49D9381E438
:103840008D939D93EDCF4427DF92EF92FF920F93DC
:103850008FE1801B11F0082F8BD091D09EE29D93B9
:103860000F91FF90EF90DF9044270395003209F409
:10387000D5CF33D03F93E0E1F9E30E94811D38E1D9
:103880002F2D1E2D0D2DFF24EE24DD244427000FA7
:10389000111F221FB8F42F923F920E941E1D102C60
:1038A0000E941E1D202C0E941E1D302C0E941E1DD9
:1038B00031970E94471D410DD21CE31CF01C3F9024
:1038C0002F9003C033960E94401D31960E94401DE8
:1038D0003A95E9F63F9107D0A5CFDD0CEE1CFF1C11
:1038E0000A95D9F70895002719E058D08F93802BB7
:1038F00011F0039501C08F911A95B9F7802F882395
:1039000009F48CCF8F91805D8D930A95D9F788CF7C
:103910000065CD1D80B2E60E40597307A0ACB90317
:1039200050D6DC01286BEE0094357700CA9A3B0034
:1039300065CD1D00B2E60E0059730700ACB9030057
:10394000D6DC01006BEE0000357700009A3B0000EA
:10395000CD1D0000E60E000073070000B903000053
:10396000DC010000EE000000770000003B000000DA
:10397000F694E794D79447950A95D1F708950027D0
:103980000DD08F9303958F2D8E298D29842BC1F710
:103990008F91805D8D930A95D9F742CF1F930F9336
:1039A000002710E2440FDD1CEE1CFF1C001F802FBF
:1039B0009AE0890B10F0082F43951A9599F7802FFC
:1039C0000F911F91089501911191219130810895D6
:1039D000481A590A0895481A8827580A08959927B5
:1039E0005A924A92480E591E08950F92B801469F66
:1039F0008001479F100D569F100D0F9008950E9453
:103A00001E1D0D920020D9F70895369A3699FECFE3
:103A1000369A3699FECF84B195B10895903029F049
:103A20008C91880F9A95E9F78C930895903029F03E
:103A30008C9186959A95E9F78C930895D89531964F
:103A400028F48F938BB783958BBF8F9100200895B7
:103A500091E005C092E003C094E001C098E0EEDF81
:103A60000D929A95E1F70895E80FF91F09D0F0CF6C
:103A7000880F991F880F991FE80FF91F01D0ECCF0D
:103A800028F48F938BB783958BBF8F91089528F47B
:103A90008F938BB78A958BBF8F910895019601976D
:103AA00021F00E941E1DE9F7FACF0895819104D0FC
:103AB0008D938823D9F70895813618F08B3708F451
:103AC0008F7D089591E0882321F08894991F8A952D
:103AD000E9F7892F90950895883018F0119688504D
:103AE000FBCF089580E30EF4839508950F92002490
:103AF0000BBE0F9008950F9301E00BBF0F918894B8
:103B000008950F930027F9CF0F9302E0F6CF99277E
:103B10008D9193958823E1F7939511968C93119746
:103B20008E919A95D1F70895EA2FFB2F00244C919E
:103B30008D9103948E32E1F711248D911394882393
:103B4000E1F71A94101640F41197202F21192395AC
:103B500080E38D932A95E9F7113039F59927AE2F37
:103B6000BF2FA00DB91FA00FB91F8C919C93853357
:103B700008F421C031E08E918E32E9F38D3241F0AC
:103B8000830F8A3319F480E331E001C033278C932B
:103B9000AE1789F7332341F0AE2FBF2FB8DF81E393
:103BA0004D3209F43196808308958827E00DF81F7F
:103BB000E00FF81F80830895040F151F261F371F7D
:103BC0000895000F111F221F331F089500951095AF
:103BD000209530950F5F1F4F2F4F3F4F0895019154
:103BE00010810FC00E94E31C0EC00E94E31C10C095
:103BF0000191108117FF05C03FEF2FEF04C0008136
:103C000011272227332737FF03C0E0DF8DE28D9392
:103C1000CF92DF92EF92AA24BB24CC24DD24EE24A1
:103C200040E2EAE0FF2755E093E38081890F87FDBA
:103C30009F7083FD907F891B81935A95A9F7C1DFFF
:103C4000AA1CBB1CCC1CDD1CEE1C4A9551F7E89449
:103C5000EFE0FF2782910BD0EB30E0F71EF0689485
:103C60008A2D09D04D93EF90DF90CF900895982F33
:103C7000829501D0892F8F70805D26F0803309F402
:103C8000089568948D9308950027112722273327DC
:103C90001DD08A3328F4803318F005D015D0F9CF21
:103CA0000EF494CF089580538F93402F512F622F9D
:103CB000732F87DF86DF80DF84DF8F919927080FDE
:103CC000191F291F391F08958D910895E894FCDF6D
:103CD0008032E9F38B32D9F38930C9F38D3211F494
:103CE0006894F2CF089541E003C042E001C044E08F
:103CF000E40F8827F81F8291982F829506D0892F8C
:103D000004D04A95C1F70C94B31E8F708A3008F026
:103D1000895F805D8D93089541E0E40F8827F81F47
:103D2000829138E098E1880F991F9D933A95D1F7D9
:103D30004A95B1F70C94B31E002711272227332789
:103D40008D91882379F03DDF3CDF3BDF3ADFB4DE45
:103D5000815408F4895F865F080F8827181F281F81
:103D6000381FEECF089588278D93089581918D9304
:103D70008823E1F7089594E081918D939A95E1F776
:103D8000089509919191992359F08A95D9F731971E
:103D9000002331F081918D930A958823C9F7089506
:103DA000E2CFE199FECFEEBBFFBB3196089591E0E3
:103DB00001C092E07B3751F47FB7F894F2DF8D9128
:103DC0008DBBE29AE19A9A95C9F77FBF772708954C
:103DD00091E001C092E0E5DFE09A8DB38D939A9572
:103DE000D1F70895FF93881BF9E0001FFA9511F4AD
:103DF000FF910895881F841B18F4840F8894F5CFD1
:103E00000894F3CF8FEF83959D919923E1F708955F
:103E1000689401C0E894AF93BF938D9116F091918F
:103E200003C00E941E1D902D891718F011F48823DD
:103E3000A1F7BF91AF91089500276CE8719198E0C8
:103E40000695779577FF18F477FD08F006279A9581
:103E5000B9F78A9599F708950027112730E141E2D3
:103E60000D90102528E08894001F111F10F41327CF
:103E700004272A95C1F7019799F70895689401C01E
:103E8000E8942227102F231709F4089526F40E949E
:103E90001E1D802D01C08191803081F0891741F075
:103EA00070E08D931A9591F7239571E01D93EACFF9
:103EB00001D0E8CF703011F077270895772331F4DF
:103EC0002395882713958D931A95E9F70895B7FEE2
:103ED000089590E8B91611F4D0FE08959FEFD91A0D
:103EE000E90AF90A09F403950895D190E190F19057
:103EF0000191089521913191419151910895502F4F
:103F00002D2D3E2D4F2D612F0895D094E094F094E7
:103F100091E0D90E9927E91EF91E10950895652F95
:103F200090E8440F551F5927990F47956078102F37
:103F300090E8FF0C001F0927990FF79410780038BC
:103F40000895FF0C90E89027110F9795F794092F8B
:103F500008951127BD2CDE2CEF2CF02E0EE1FF2052
:103F600039F4FE2CED2CDB2CBB240850C2F752C0D8
:103F700032F00A95BB0CDD1CEE1CFF1CF9CFA7DF4D
:103F8000E0CF2DEC3CEC4CEC5DE366270FC0ADDFE1
:103F9000B6DFDD24EE2490E8F92E0FE307C0AADF98
:103FA00005C02227332740E251E46627552351F10B
:103FB000002381F1B4DF71F116270058505808949E
:103FC000050B18F407FD03C025C007FD23C0469567
:103FD00037952795F694E794D79425D0FF202AF0BB
:103FE000DD0CEE1CFF1C015073F09D2D969548F0E2
:103FF000DD203AF4EE202AF491E0D90E9927E91E4B
:10400000F91E9FCF07C09FE7092FF92A9FEFD92EEE
:10401000E92E0895DD24EE24FF24002711270895BA
:104020000FE79FEFF2CF9F929924AA24BB2488E147
:10403000D216E306F40628F0D21AE30AF40A08942A
:1040400001C08894991CAA1CBB1CDD0CEE1CFF1C33
:104050008A9571F7D92CEA2CFB2C9F9008955FDF8D
:10406000D9F05038C9F016270058952F9058089469
:10407000091F12F418F40EC008F00EC00FD0FF2074
:104080002AF0BB0CDD1CEE1CFF1C02C0039513F0D4
:104090001EDF57CF0C9403200C940A209F92FF92AE
:1040A000EF928D2DFF24EE24DD24BB2493E0849F2A
:1040B0001001829FB00CD11CE21CF31C839FD00C1A
:1040C000E11C2224F21C9A9531F0BD2CDE2CEF2C41
:1040D000FF248F91ECCF9F9008950AF045D031CF07
:1040E0005FE322273327442701C004DF18DF50385D
:1040F000B1F3003899F3902F951B8BF312F434D061
:10410000FACF983118F0222733274427983028F027
:10411000232F342F44279850F9CF992329F046951F
:10412000379527959A95D9F7912F962742F014D075
:10413000B0F6F794E794D7940F5F8BF664CF10D066
:1041400051F008F4E2DEFF2052F2DD0CEE1CFF1C01
:104150000150CBF758CF5ECFD20EE31EF41E089568
:10416000D21AE30AF40A0895DF92EF92FF920F93B6
:104170001F93D22EE32EF42E052F162F6F915F91F1
:104180004F913F912F9108950E941E1DD02C0E94A7
:104190001E1DE02C0E941E1DF02C0E941E1D002DD5
:1041A00008950E941E1D202D0E941E1D302D0E946C
:1041B0001E1D402D0E941E1D502D08950E94E41BBF
:1041C00088278A938A9326DF11278D918B32E9F312
:1041D0008032D9F31197BBD098F08D3229F4109525
:1041E00011968C91B4D060F08E3229F411968C9196
:1041F000AED008F446C022960E94E11B81E00895EB
:104200008C91A5D0D8F5119646D0D0F703958D9115
:104210009ED0E0F38E3229F48C9199D010F411964F
:10422000FBCF853419F0853609F055C011968C9175
:104230008ED060F08D3219F08B3221F0DCCF088007
:104240000094088211968C9182D0A8F680538983BD
:1042500011968C917CD058F49981990F990F09800F
:10426000900D990F8053890F8983873220F68981B9
:10427000988199230AF48195080F2DC08E3289F612
:1042800011968C9164D068F606D018F011960A95B4
:10429000F8CF1196C1CF4F2D3E2D2D2DDD0CEE1CEC
:1042A000FF1CA8F0DD0CEE1CFF1C88F0D20EE31EF4
:1042B000F41E68F0DD0CEE1CFF1C48F0805309F082
:1042C0006894D80E8827E81EF81E08F00895F42E8A
:1042D000E32ED22E089534D019F116F5098308E99A
:1042E00021D00695882787959F2D9F77980FF92EC7
:1042F0000150000F110F07958981882379F01AF476
:104300008195898306C03DDE89818A958983D9F7A5
:1043100005C047DE89818A958983D9F72296089559
:1043200079DEFCCF0DD041F0FF2032F00A9531F05C
:10433000DD0CEE1CFF1CD2F78894089508940895B4
:1043400000240D280E280F28002A0020089580330D
:1043500020F08A3310F40894089588940895FF0D8E
:10436000613D00000000000000410000803F2A2A5B
:104370002A2A2A2A2A2A2A2A2A2A20524144494F0A
:10438000425249444745202A2A2A2A2A2A2A2A2AE6
:104390002A2A2A0032352D30362D3230323420315F
:1043A000363A32393A313800302E312E3331360038
:1043B000524144494F4252494447455F564F4C2E63
:1043C000424153004E756D6573746163696F6E3D54
:1043D00000004164636B2800293D0000436F6E7448
:1043E00061646F72206465207472616E736D6973AD
:1043F000696F6E6573203D0054616E693D00434EE8
:1044000054524352434F4B3D0000434E545243528B
:10441000434241443D00566F6C3D0000546F70496B
:10442000324300003D005472616D612054582044B5
:10443000544D4600543D000072783D002C004D6FF5
:10444000646F2074657374204C6F63616C004D6FF2
:10445000646F20416C65727461204E6172616E6A96
:1044600061204C6F63616C0041204D6F646F204E82
:104470006F726D616C206465736465204D6F646F4D
:104480002054657374204C6F63616C0041204D6F44
:10449000646F204E6F726D616C206465736465207B
:1044A000412E204E6172616E6A61204C6F63616CB7
:1044B000000043616D62696F20646520537461740C
:1044C00075733D004E7565766F2053746174757316
:1044D00020526563696269646F20706F7220526157
:1044E00064696F3D0000414443004C4545564657C2
:1044F000000056657273696F6E2046573A20466514
:10450000636861203C0032352D30362D3230323434
:104510002031363A32393A3139003E2C204172632B
:104520006869766F203C00003E005345544C45447A
:104530000000536520636F6E666967757261207352
:1045400065746C656420612000004C45454C454411
:10455000000045737461646F204C45443D00534531
:10456000545458500000536520636F6E6669677538
:10457000726F207469656D706F2064652074782097
:10458000706572696F6469636173206120002073D4
:1045900000005345545454450000536520636F6E2A
:1045A00066696775726F207469656D706F206465E8
:1045B00020747820656E7472652065737461636918
:1045C0006F6E6573206120005345544354580000BA
:1045D000536520636F6E66696775726F20636F6ED7
:1045E0007461646F722074783D004C454554585096
:1045F00000005469656D706F2064652074782070C8
:104600006572696F6469636173203D004C45455470
:10461000544500005469656D706F2064652074789E
:1046200020656E747265206573746163696F6E6571
:1046300073203D004C45454354580000436F6E7451
:1046400061646F722064652074783D005453544453
:10465000454C0000546573742044656C61792020DA
:104660000000494E490046494E00494E49545850B1
:1046700000004E7565766120747820506572696F10
:10468000646963610000534554535441000053650D
:1046900020636F6E66696775726F206E756D6572E7
:1046A0006F206465206573746163696F6E203D00DF
:1046B0004C454553544100006E756D65726F206422
:1046C00065206573746163696F6E203D0000525808
:1046D00044544D46000053696D756C6163696F6E9B
:1046E00020646520525820746F6E6F732044544DBF
:1046F000460045737461646F5F6C6564313D000012
:1047000045737461646F5F6C6564323D00005345AE
:10471000544144430000536520636F6E66696775BA
:10472000726F2041444320004C4545414443000002
:1047300056616C6F726573204144432000005345FD
:10474000544442470000536520686162696C697493
:104750006120646973706C617920646562756700BB
:104760004452564155440000526573707565737428
:10477000612044525620415544494F3D0000534565
:1047800054414E490000536520636F6E666967753A
:1047900072612054616E693D00004C4545414E49AF
:1047A00000005345545054520000536520636F6E0F
:1047B00066696775726120507472616E693D0000B0
:1047C000534554434F4B0000536520636F6E666939
:1047D0006775726120434E54524352434F4B3D0024
:1047E0005345544241440000536520636F6E66692F
:1047F0006775726120434E54524352434241443DD7
:1048000000004C454543524300004352434F4B3D4B
:104810000000202C204352434241443D00004C45BF
:10482000454241540000564241543D00202C205640
:1048300050533D0052535456415200005265696E28
:104840006963696F20612076616C6F726573207097
:104850006F72206465666563746F0000494E495647
:1048600041520000496E696369616C697A61207622
:1048700061726961626C657300005345544D4F4429
:104880000000536520636F6E66696775726F206DF7
:104890006F646F204F46463D00004C45454D4F44E8
:1048A00000004D6F646F204F46463D005345544411
:1048B00053500000534520636F6E666967757261DF
:1048C0002073616C6964612064656C732064697332
:1048D000706C61792061200053455452454C0000B2
:1048E00072656C653D0046696E2072656C005345CB
:1048F000544255470000536520636F6E6669672018
:10490000454E414255473D004C4545425547000004
:10491000454E414255473D004C45455644430000F5
:10492000566261743D002C205670733D00002C20AF
:10493000566463333D004C4545493243000053659E
:1049400020636F6E66204932430056414C49324322
:10495000000056616C4932432000544F50493243A5
:104960000000536520636F6E66696720746F702066
:104970006C696D2049324300206120004C4545544C
:104980004F500000546F70206C696D204932430015
:10499000544D504932430000546D704932433D003C
:1049A0005258204E45572044544D460068657820A3
:1049B00064746D6600004352433D000043524363FC
:1049C000616C3D00435243204F4B3D005472616D7A
:1049D000612076616C6964610000566F6C756D656D
:1049E0006E3D0000436E747274783D005472616DC8
:1049F0006120484558004D4F444F4F46463D302CAE
:104A000000004D4F444F4F46463D312C000053545B
:104A1000415455532052583D00005472616D61203D
:104A200044544D4600005472616D6120414C415226
:104A30004D4100005472616D612054455354000093
:104A40005472616D61204E4F524D414C00004D6FCC
:104A5000646F204F4646206E6F637475726E6F00F0
:104A60004E4F2065732054455354206E6920616C6D
:104A700061726D61202E204E6F20726573706F6EB3
:104A8000646500004641494C204944205472616DE0
:104A90006100435243206661696C3D0053455231C9
:104AA0003D00545820414C6572746100244C4545CA
:104AB0004932432C0000436E747274727969326318
:104AC000413D000046494E20636F6E73756C746102
:104AD0002041444300004142494552544F00434560
:104AE000525241444F00244452564155442C000038
:104AF00053696E20726573707565737461204452DA
:0E4B000056415544494F00004F46463D0000C7
:00000001FF
