:100000000C94460018950000189500001895000003
:10001000189500000C94CB0318950000189500006B
:10002000189500001895000018950000189500001C
:1000300018950000189500000C94A902189500006E
:100040000C94D701189500000C94AE001895000090
:1000500018950000189500001895000018950000EC
:1000600018950000189500001895000018950000DC
:1000700018950000189500000C9442011895000096
:100080001895000018950000189500008FEF8DBF9F
:10009000C0E8E8E94E2E80E18EBFD0E1FFE05F2EA0
:1000A000A89584B7082E807E84BF88E1992781BDFA
:1000B00091BDEEEFFFE0A0E0B1E088278D9331978E
:1000C000E9F787E689B980E08093900088E18AB9F2
:1000D00080E08093980087E68093990088E1809380
:1000E0009A006624A59AA69AA79A709164007460F3
:1000F00070936400BC9ABD9ABE9ABF9ABB9A8C98C2
:100100008D988E988F981498949A959A969A979A13
:1001100087E083BF77B7716077BF87E083BF80E0F8
:100120008FBD84E08EBD77B7746077BF84E08EBDED
:10013000579A70919A00706870939A0079B77061BD
:1001400079BF8AB78C7F81608ABFA098A198A89A4E
:10015000A99AA49AAC9878940C9462330F921F9247
:100160002F923F924F925F927F92AF92BF920F93E6
:100170001F932F933F934F935F936F937F938F932F
:100180009F93AF93BF93CF93DF93EF93FF938FB77B
:100190008F938BB78F9388278BBFAFE6B8E08CB176
:1001A0008C9384E2482F00916F08041711F00C948F
:1001B000E4007091A80372607093A803AEECB7E0FE
:1001C00088278C930C9424010D3011F00C940C01B1
:1001D000A8EAB3E08C9181FB16F00C940A017091AF
:1001E000A8037D7F7093A80380E0AEECB7E00E9487
:1001F000EE348D9388278C93EEECF7E0A0E7B8E01F
:100200000E94013A7091A80371607093A80377B7B8
:10021000716077BF0C9424010F3118F011F00C9429
:1002200013010C942401A8EAB3E08C9181FB16F031
:100230000C942401AFE6B8E08C91AEECB7E00E94DC
:10024000EE348D9388278C938F918BBF8F918FBFC6
:10025000FF91EF91DF91CF91BF91AF919F918F91DE
:100260007F916F915F914F913F912F911F910F91CE
:10027000BF90AF907F905F904F903F902F901F90D6
:100280000F9018950F921F922F923F924F925F926C
:100290007F92AF92BF920F931F932F933F934F93F1
:1002A0005F936F937F938F939F93AF93BF93CF93FE
:1002B000DF93EF93FF938FB78F938BB78F9388273D
:1002C0008BBFA3E5B9E080919C008C9384E2482F1A
:1002D00000915309041711F00C94790170911109E0
:1002E000706870931109A2E1B9E088278C930C948F
:1002F000B9010D3011F00C94A101A1E1B9E08C918C
:1003000087FB16F00C949F01709111097F77709311
:10031000110980E0A2E1B9E00E94EE348D938827B4
:100320008C93E2E1F9E0A4E5B9E00E94013A709112
:10033000110970647093110977B7716077BF0C94DD
:10034000B9010F3118F011F00C94A8010C94B90107
:10035000A1E1B9E08C9187FB16F00C94B901A3E5FB
:10036000B9E08C91A2E1B9E00E94EE348D93882728
:100370008C938F918BBF8F918FBFFF91EF91DF9106
:10038000CF91BF91AF919F918F917F916F915F912D
:100390004F913F912F911F910F91BF90AF907F9000
:1003A0005F904F903F902F901F900F9018950F9255
:1003B0001F922F923F924F925F927F92AF92BF9285
:1003C0000F931F932F933F934F935F936F937F935D
:1003D0008F939F93AF93BF93CF93DF93EF93FF934D
:1003E0008FB78F938BB78F9388278BBF74E672BFBD
:1003F000AEE9B3E08C918F5F8C93AEE9B3E00C91E2
:1004000048E00E943D3A8C9300919E03003011F029
:100410000C943D02AFE9B3E00C9140E20E943D3AFA
:100420008C93EAE7F6E60E94AD38A4EAB3E08C913B
:100430009927A0EAB3E00E94643880919F03A0EA64
:10044000B3E00E9498380E948E380C90082268947D
:1004500009F4E894ADE9B3E08C9182F98C93ADE9AD
:10046000B3E08C9182FBA5E3B0E08C9185F98C938D
:10047000AFE9B3E08C918F5F8C93A8EAB3E08C91E5
:1004800087FB16F00C945F02A9EAB3E00E94A73440
:10049000ABEAB3E04D915C91A9EAB3E00D911C91F8
:1004A0000417150711F00C945F027091A803706493
:1004B0007093A8037091A8037F777093A803A8EAAC
:1004C000B3E08C9185FB16F00C948B02A1EBB3E0AA
:1004D0000E94A734A1EBB3E00D911C9144EF51E0D1
:1004E0000E94D434A1EBB3E00D931C93A1EBB3E0D5
:1004F0000D911C91003050E0150711F00C948B0207
:1005000080E080936A0380E080939B037091A8034E
:100510007F7D7093A8038F918BBF8F918FBFFF91C9
:10052000EF91DF91CF91BF91AF919F918F917F918B
:100530006F915F914F913F912F911F910F91BF90BC
:10054000AF907F905F904F903F902F901F900F90B3
:1005500018950F921F922F923F924F925F927F9227
:10056000AF92BF920F931F932F933F934F935F933D
:100570006F937F938F939F93AF93BF93CF93DF93AB
:10058000EF93FF938FB78F938BB78F9388278BBF92
:100590008CED9BE09DBD8CBD0E947136E8E0F1E0E2
:1005A000FA93EA93E1E1F1E00E94DC37ADEBB3E0CE
:1005B0000D931D932D933D93ADEBB3E00E949A34C0
:1005C000EDEBF3E0A1E1B1E00E94CC370E9484366C
:1005D000EDEBF3E0A8E0B1E00E94D4370E947C3656
:1005E0007091A80370617093A803709126017062E6
:1005F00070932601ADEBB3E00D911D912D913C91CF
:10060000AFE4B2E04D915C91662777270E942735D1
:10061000A5EBB3E00D931D932D933D9340E050E087
:1006200060E070E0A5EBB3E00D911D912D913C9140
:100630000E94273911F00C94220370919D03716080
:1006400070939D03ADEBB3E00D911D912D913C9105
:1006500044E853E060E070E00E942239A5EBB3E08B
:100660000D931D932D933D93A5EBB3E00D911D913B
:100670002D913C91A4EAB5E04D915D916D917C91F5
:100680000E942735A5EBB3E00D931D932D933D9369
:1006900040E050E060E070E0A5EBB3E00D911D910B
:1006A0002D913C910E94273911F00C945C037091BC
:1006B000A80374607093A803ADE9B3E08C9180FB4C
:1006C00016F00C948B03ADEBB3E00D911D912D91C1
:1006D0003C91ADE4B2E04D915C91662777270E9492
:1006E0002735A5EBB3E00D931D932D933D9340E08B
:1006F00050E060E070E0A5EBB3E00D911D912D910D
:100700003C910E94273911F00C948B0370919D034A
:10071000726070939D03A6E2B1E08C9184FB16F0A9
:100720000C94A903AEE2B1E08C918F5F8C93AEE2A2
:10073000B1E00C914AE00E943D3A8C9300912E0169
:10074000003011F00C94A903709126017860709329
:1007500026018F918BBF8F918FBFFF91EF91DF911A
:10076000CF91BF91AF919F918F917F916F915F9149
:100770004F913F912F911F910F91BF90AF907F901C
:100780005F904F903F902F901F900F901895089575
:100790000895089508950F921F922F923F924F92BD
:1007A0005F927F92AF92BF920F931F932F933F93CD
:1007B0004F935F936F937F938F939F93AF93BF9369
:1007C000CF93DF93EF93FF938FB78F938BB78F9375
:1007D00088278BBFABE9B3E08C918F5F8C930C9B28
:1007E0000C94F503AF9A0C94F603AF980C9B0C9401
:1007F0002F04A9E6B3E080B38C9394E0A9E6B3E0BC
:100800000E943C38AAE6B3E08C918F5F8C93809174
:100810006903AAE6B3E0AD90BB24AAE6B3E0AA0D53
:10082000BB1D8C93AAE6B3E00C914EE10E943D3AC9
:100830008C9300916A03013011F00C9424047091A0
:10084000A80370627093A80300916A03003011F04E
:100850000C942F04709126017160709326018F9182
:100860008BBF8F918FBFFF91EF91DF91CF91BF91A0
:10087000AF919F918F917F916F915F914F913F9138
:100880002F911F910F91BF90AF907F905F904F90ED
:100890003F902F901F900F901895AD987091650024
:1008A0007B7F70936500C39A81E080933201E8E614
:1008B000FAE70E94AD380E94FD340E940435A0E89A
:1008C000BFE0E8E7FAE70E94AD380E9425380E94B1
:1008D000F5340E940435A0E8BFE0ECE8FAE70E9496
:1008E000AD380E9425380E94F5340E940435A0E8F6
:1008F000BFE0E4E9FAE70E94AD380E9425380E9483
:10090000F5340E94043581E08093A40381E0809354
:100910004303E0E0F0E0ADE4B2E00E94353AE4EAFF
:10092000FAE70E94AD380E94FD34EDE4F2E0A0E861
:10093000BFE00E943A390E94F5340E940435E2E09B
:10094000F0E0A3E5B2E00E94353AEEECFAE70E944F
:10095000AD380E94FD34E3E5F2E0A0E8BFE00E947C
:100960003A390E94F5340E940435E4E0F0E0A5E550
:10097000B2E00E94353AE6EFFAE70E94AD380E94F5
:10098000FD34E5E5F2E0A0E8BFE00E943A390E94BC
:10099000F5340E940435A8E5B2E0E6E0F0E094E02A
:1009A0000E94363AE4E2FBE70E94AD380E94FD3433
:1009B000E8E5F2E0A0E8BFE00E94C03A0E9484357A
:1009C0000E94F5340E94043580E08093030480E0A7
:1009D0008093040480E08093050480E08093060403
:1009E00080E08093070481E080931A0100911A014E
:1009F000003218F011F00C94210580E090E0AAE19B
:100A0000B1E0AD90BB24ACE0B4E0AA0CBB1CAA0DD5
:100A1000BB1D8D939C9380E090E0AAE1B1E0AD9086
:100A2000BB24ACE9B4E0AA0CBB1CAA0DBB1D8D9382
:100A30009C93AAE1B1E08C918F5F8C9310F40C949D
:100A4000F604E0E2F0E0AEEDB4E00E94333AE0E418
:100A5000FBE70E94AD380E94FD34EEEDF4E0A0E823
:100A6000BFE00E944A390E94F5340E940435A3E594
:100A7000B2E08D919C91AFE4B2E08D939C9380E0C5
:100A800080932A01EAE0F0E0ADEAB3E00E94353A53
:100A9000ECE4FBE70E94AD380E94FD34EDEAF3E0A0
:100AA000A0E8BFE00E943A390E94F5340E94043564
:100AB000ECE0F0E0AFEAB3E00E94353AE8E5FBE7AE
:100AC0000E94AD380E94FD34EFEAF3E0A0E8BFE0F9
:100AD0000E943A390E94F5340E940435E4E6FBE7AF
:100AE0000E94AD380E94FD34EBE2F1E0A0E8BFE0E7
:100AF0000E944A390E94F5340E940435EEE0F0E08D
:100B0000A3EBB3E00E94353AEEE6FBE70E94AD3876
:100B10000E94FD34E3EBF3E0A0E8BFE00E943A3925
:100B20000E94F5340E940435A3EBB3E08D919C91B3
:100B3000A6EBB4E08D939C93E0E1F0E0A9EBB3E089
:100B400094E00E94363AE9EBF3E0A0E8BFE00E94AF
:100B5000CC370E94F5340E940435E9EBF3E0A0E8BD
:100B6000BFE00E94D4370E94F5340E940435E9EBBF
:100B7000F3E0A1E1B1E00E94CC370E948436E9EBBA
:100B8000F3E0A8E0B1E00E94D4370E947C36EEE7A3
:100B9000FBE70E94AD380E94FD340E9404350E949C
:100BA0007136A8E0B1E00E94F7340E9404350E943B
:100BB0007136A1E1B1E00E94F7340E9404358AE762
:100BC00093E0A1E0B4E08D939C93E1E2F0E0AFED1F
:100BD000B4E094E00E94363AE5E2F0E0A3EEB4E03F
:100BE00094E00E94363AEEE8FBE70E94AD380E949E
:100BF000FD34EFEDF4E0A0E8BFE00E943D390E9433
:100C0000F534E8E9FBE70E94AD380E94FD34EFEDD2
:100C1000F4E0AAEFB1E00E94CC37AAEFB1E00E9465
:100C2000F7340E940435EAE9FBE70E94AD380E94E0
:100C3000FD34E3EEF4E0A0E8BFE00E943D390E94FD
:100C4000F534E8E9FBE70E94AD380E94FD34E3EE9D
:100C5000F4E0AAEFB1E00E94CC37AAEFB1E00E9425
:100C6000F7340E94043583E680932C01AAEEB4E0A9
:100C70008D919C91A8EEB4E08D939C93A8EEB4E086
:100C80000E94A734E4EAFBE70E94AD380E94FD34DD
:100C9000E8EEF4E0A0E8BFE00E943A390E94F534A3
:100CA0000E940435E9E2F0E0A4EAB5E094E00E9495
:100CB000363AEEEAFBE70E94AD380E94FD34E4EAE2
:100CC000F5E0A0E8BFE00E943D390E94F5340E94A3
:100CD0000435EDE2F0E0AAEAB5E00E94353AE8EB2F
:100CE000FBE70E94AD380E94FD34EAEAF5E0A0E897
:100CF000BFE00E943A390E94F5340E9404350895FD
:100D0000E2ECFBE70E94AD380E94FD340E940435FE
:100D1000EFE2F0E0ACEAB5E00E94333A80E0809385
:100D20001B0188E08093A403A8EAB3E08C9180FBC8
:100D300016F00C94B4067091A8037E7F7093A803FC
:100D4000ECEDFBE70E94AD380E94FD34A0E7B8E06F
:100D50000E94F7340E9404350E941D0BEFE2F0E080
:100D6000ACEAB5E00E94333AA6E2B1E08C9185FB93
:100D700016F00C94DF06709126017F7D709326019A
:100D8000AAE1B1E08C918F5F8C93ABE1B1E08C91E3
:100D90008F5F8C93AAE1B1E00C914AE00E943D3A4A
:100DA0008C9300911A01003011F00C94DF06E2EEF2
:100DB000FBE70E94AD380E94FD340E94043500918B
:100DC000AC05013011F00C949406E4E0FCE70E94BD
:100DD000AD380E94FD340E94043581E08093A40365
:100DE0000895A881B9818D919C91ABEAB3E08D9370
:100DF0009C9380E090E0A9EAB3E08D939C9370917E
:100E0000A8037F7B7093A8037091A8037068709308
:100E1000A803A8EAB3E08C9186FB16F40C941307A0
:100E2000A8950C940907089584E28093450385E50D
:100E300080934603A7E5B2E08C9180FBA7E4B3E082
:100E40008C9180F98C93A7E5B2E08C9181FBA7E4AB
:100E5000B3E08C9181F98C93A7E5B2E08C9182FB91
:100E6000A7E4B3E08C9182F98C93A7E5B2E08C9172
:100E700083FBA7E4B3E08C9183F98C93A3E4B3E004
:100E80008C9180FBA7E4B3E08C9184F98C93A3E46C
:100E9000B3E08C9181FBA7E4B3E08C9185F98C934E
:100EA000A3E4B3E08C9182FBA7E4B3E08C9186F9D4
:100EB0008C9300912B01003011F00C946607A7E48D
:100EC000B3E08C918F778C930C946B07A7E4B3E01D
:100ED0008C9180688C938091E70480934803E8E5C7
:100EE000F2E0ACE3B1E00E94063A80913C018093CD
:100EF000490380913D0180934A0380913E01809394
:100F00004B0380913F0180934C0388E090E0A5E47F
:100F1000B3E00E94773AA6E3B1E00D931C93A6E3F9
:100F2000B1E011968C91ADE4B3E08C93A6E3B1E00F
:100F30008C91AEE4B3E08C9381E080931D0180E05E
:100F400080931A0100911A01093018F011F00C94E5
:100F5000EA0700911A0141E0040FABE1B1E00C9304
:100F6000ABE1B1E0AD90BB24A4E4B3E0AA0DBB1D9E
:100F70008C9180931C0100911C014FE00423ADE192
:100F8000B1E0AD90BB24A0E5B3E0AA0DBB1D0C936E
:100F9000ADE1B1E08C918F5F8C9394E0ACE1B1E076
:100FA0000E943C3880911C01ADE1B1E0AD90BB24C2
:100FB000A0E5B3E0AA0DBB1D8C93ADE1B1E08C912F
:100FC0008F5F8C93AAE1B1E08C918F5F8C9310F4CA
:100FD0000C94A20708957091650074607093650089
:100FE00084E690E0D2018D939C9382E00E94F237D8
:100FF0000E94F106229682E00E94EE3781E0809303
:10100000330100913301043118F011F00C946C0895
:10101000A3E3B1E0AD90BB24A0E5B3E0AA0DBB1DF6
:101020008C9180FBA8E3B0E08C9184F98C93A3E3CE
:10103000B1E0AD90BB24A0E5B3E0AA0DBB1D8C913F
:1010400081FBA8E3B0E08C9185F98C93A3E3B1E038
:10105000AD90BB24A0E5B3E0AA0DBB1D8C9182FB33
:10106000A8E3B0E08C9186F98C93A3E3B1E0AD9056
:10107000BB24A0E5B3E0AA0DBB1D8C9183FBA8E3C4
:10108000B0E08C9187F98C93AE9AC39888E090E099
:10109000D2018D939C9382E00E94F2370E94F10668
:1010A000229682E00E94EE37AE98C39A84E090E0E8
:1010B000D2018D939C9382E00E94F2370E94F10648
:1010C000229682E00E94EE37A3E3B1E08C918F5F1D
:1010D0008C9310F40C940108709165007B7F7093E1
:1010E000650008950C9B0C94E308A9E6B3E080B377
:1010F0008C9394E0A9E6B3E00E943C38E8E1FCE779
:101100000E94AD380E94FD34E9E6F3E0A0E8BFE0BC
:101110000E94BE390E94F5340E940435AAE6B3E06D
:101120008C918F5F8C9380916903AAE6B3E0AD90B8
:10113000BB24AAE6B3E0AA0DBB1D8C93AAE6B3E0DC
:101140000C914CE00E943D3A8C9300916A03003070
:1011500011F00C94E308ECE1FCE70E94AD380E942A
:10116000FD340E94043581E0809333010091330106
:101170000C3018F011F00C94E308E3E3F1E0A0E880
:10118000BFE00E944A390E94F534E8E9FBE70E947B
:10119000AD380E94FD34E3E3F1E0A190BB24EAE620
:1011A000F3E0EA0DFB1DA0E8BFE00E94BE390E94FB
:1011B000F5340E940435A3E3B1E08C918F5F8C93EA
:1011C00010F40C94B608089580E080939C03A3E388
:1011D000B0E08C9180FBACE9B3E08C9180F98C930A
:1011E000A3E3B0E08C9181FBACE9B3E08C9181F991
:1011F0008C93ACE9B3E00C9100FB002700F9442785
:10120000ADE9B3E08C9184FB40F9041711F40C9420
:101210006009E0E2FCE70E94AD380E94FD34ACE9D1
:10122000B3E08C9180FBA0E8BFE00E949E388D93D4
:1012300088278C930E94F5340E94043584E690E060
:10124000D2018D939C9382E00E94F2370E94F106B6
:10125000229682E00E94EE370027A3E3B0E08C9153
:1012600080FB00F9ACE9B3E08C9180FB442740F9A6
:10127000041711F00C944F09ACE9B3E08C9180FB9A
:10128000ADE9B3E08C9184F98C93E4E2FCE70E9431
:10129000AD380E94FD340E9404350C946009ECE2E4
:1012A000FCE70E94AD380E94FD340E940435A3E3A0
:1012B000B0E08C9180FBACE9B3E08C9180F98C9329
:1012C000ACE9B3E00C9101FB002700F94427ADE93C
:1012D000B3E08C9183FB40F9041711F40C94C70917
:1012E000E6E3FCE70E94AD380E94FD34ACE9B3E0D0
:1012F0008C9181FBA0E8BFE00E949E388D938827E7
:101300008C930E94F5340E94043584E690E0D2016B
:101310008D939C9382E00E94F2370E94F106229600
:1013200082E00E94EE370027A3E3B0E08C9181FBBE
:1013300000F9ACE9B3E08C9181FB442740F9041734
:1013400011F00C94B609ACE9B3E08C9181FBADE9E6
:10135000B3E08C9183F98C93EAE3FCE70E94AD380B
:101360000E94FD340E9404350C94C709E2E4FCE7B6
:101370000E94AD380E94FD340E940435A3E3B0E022
:101380008C9181FBACE9B3E08C9181F98C93ACE951
:10139000B3E08C918C9391E089278C93ACE9B3E016
:1013A0008C918C9391E089278C93009143030130B9
:1013B00011F00C94780A00919C03023011F00C9407
:1013C000220AECE4FCE70E94AD380E94FD340E9442
:1013D000043582E08093430382E08093A403A5E573
:1013E000B2E08D919C91AFE4B2E08D939C937091AB
:1013F0009D03706470939D0370919D037F7D709336
:101400009D0370919D037F7770939D0370912B01D5
:101410007E7F70932B01709126017061709326017D
:101420007091260178607093260180E080932D01F1
:1014300070919D037E7F70939D0370919D037D7FCE
:1014400070939D0300919C03003081E009F080E0DF
:101450008F9300919C03013081E009F080E09F911F
:10146000892B882311F40C94760AEEE5FCE70E94A0
:10147000AD380E94FD340E94043583E0809343031D
:1014800083E08093A40370919D03706870939D0323
:1014900070919D037F7D70939D0370919D037F7B71
:1014A00070939D0380E080932D0170919D037E7F5A
:1014B00070939D0370919D037D7F70939D03A5E5BF
:1014C000B2E08D919C91AFE4B2E08D939C937091CA
:1014D0002B017E7F70932B017091260170617093B8
:1014E0002601709126017860709326010C941C0BE4
:1014F000023011F00C94CB0A00919C03033011F0E0
:101500000C94C90AEAE7FCE70E94AD380E94FD345A
:101510000E94043581E080934303A3E5B2E08D91FE
:101520009C91AFE4B2E08D939C9370919D037062A7
:1015300070939D0370919D037F7770939D037091CD
:101540009D037F7B70939D0380E080932D017091BC
:101550009D037E7F70939D0370919D037D7F7093AB
:101560009D0300912B01013011F00C94BC0A8BE01B
:101570008093A4030C94BF0A81E08093A40370912C
:101580002601706170932601709126017860709336
:1015900026010C941C0B033011F00C941C0B0091D1
:1015A0009C03033011F00C941C0BEEE8FCE70E9446
:1015B000AD380E94FD340E94043581E080934303DE
:1015C000A3E5B2E08D919C91AFE4B2E08D939C9342
:1015D00070919D03706270939D0370919D037F775E
:1015E00070939D0370919D037F7B70939D0380E0BA
:1015F00080932D0170919D037E7F70939D03709168
:101600009D037D7F70939D0300912B01013011F0AC
:101610000C940F0B8BE08093A4030C94120B81E0CD
:101620008093A403709126017061709326017091DC
:1016300026017860709326010895A0E7B8E00E9423
:10164000F7340E940435E0E7F8E09CE200E130E284
:10165000AEEAB5E00E948B3AADEAB5E02C93AEEA73
:10166000B5E00E944D3A082F063011F00C94551742
:10167000EEEAF5E0A0E4B1E00E94013AE0E4F1E036
:10168000A0E4B1E00E9482388FEF8093E801A0E4EB
:10169000B1E0E8EAFCE70E94AD380E94533A11F04D
:1016A0000C94930B80E08093E801A7E4B1E0E0EBB9
:1016B000FCE70E94AD380E942538AAEFB1E0E4ECC7
:1016C000FCE70E94AD380E942538EAEFF1E0A7E47C
:1016D000B1E00E94EE340E94013AA7E4B1E00E941A
:1016E000EE34E8EDFCE70E94AD380E942538AAEF01
:1016F000B1E0E4E9FAE70E94AD380E942538EAEF4C
:10170000F1E0A7E4B1E00E94EE340E94013AA7E4C0
:10171000B1E00E94EE34E6EEFCE70E94AD380E9494
:1017200025380C945317E8EEFCE70E94AD380E9470
:10173000533A11F00C94A80B80E08093E8010E94CA
:10174000A118709126017260709326010C945317B2
:10175000E0EFFCE70E94AD380E94533A11F00C9480
:10176000DF0B0091AD05023011F00C94DA0BAFEBFA
:10177000B5E00E948F39ACEAB5E00C93EFE2F0E0FF
:10178000ACEAB5E07BE70E94223A80E08093E80172
:10179000A7E4B1E0E8EFFCE70E94AD380E942538ED
:1017A000ECEAF5E0A7E4B1E00E94EE340E944A3989
:1017B0000C94DD0B84E08093E8010C945317ECE06B
:1017C000FDE70E94AD380E94533A11F00C941E0CB4
:1017D0000091AD05023011F00C94190CAFEBB5E09F
:1017E0000E948F39AAE1B1E00C9300911A010131F6
:1017F00010F00C94140C80E08093E801A7E4B1E0B1
:10180000E4E1FDE70E94AD380E942538EAE1F1E00D
:10181000A7E4B1E00E94EE340E944A3980911A0197
:101820008093A4030C94170C85E08093E8010C943A
:101830001C0C84E08093E8010C945317ECE2FDE764
:101840000E94AD380E94533A11F00C94700C009134
:10185000AD05023011F00C946B0C80E08093E80130
:10186000AFEBB5E00E948F39A6E3B1E00D931C9376
:10187000A6E3B1E08D919C91A3E5B2E08D939C939A
:10188000E2E0F0E0A6E3B1E07BE70E94243AA3E5C2
:10189000B2E08D919C91AFE4B2E08D939C93A7E46C
:1018A000B1E0E4E3FDE70E94AD380E942538E3E5AE
:1018B000F2E0A7E4B1E00E94EE340E943A39A7E4D6
:1018C000B1E00E94EE34E4E6FDE70E94AD380E94EC
:1018D00025380C946E0C84E08093E8010C94531727
:1018E000E8E6FDE70E94AD380E94533A11F00C94EF
:1018F000C20C0091AD05023011F00C94BD0C80E0DB
:101900008093E801AFEBB5E00E948F39A6E3B1E028
:101910000D931C93A6E3B1E08D919C91A5E5B2E0F7
:101920008D939C93E4E0F0E0A6E3B1E07BE70E94B6
:10193000243AA5E5B2E08D919C91AFE4B2E08D939D
:101940009C93A7E4B1E0E0E7FDE70E94AD380E9478
:101950002538E5E5F2E0A7E4B1E00E94EE340E940C
:101960003A39A7E4B1E00E94EE34E4E6FDE70E94D4
:10197000AD380E9425380C94C00C84E08093E801B7
:101980000C945317E4EAFDE70E94AD380E94533AE5
:1019900011F00C940C0D0091AD05023011F00C9477
:1019A000070D80E08093E801AFEBB5E00E948F392E
:1019B000A6E3B1E00D931C93A6E3B1E08D919C9159
:1019C000ADE4B2E08D939C93E0E0F0E0A6E3B1E0FB
:1019D0007BE70E94243AA7E4B1E0ECEAFDE70E942D
:1019E000AD380E942538EDE4F2E0A7E4B1E00E94B2
:1019F000EE340E943A39A7E4B1E00E94EE34E4E606
:101A0000FDE70E94AD380E9425380C940A0D84E051
:101A10008093E8010C945317EAEDFDE70E94AD387E
:101A20000E94533A11F00C944F0D0091AD05023015
:101A300011F00C944A0D80E08093E801AFEBB5E023
:101A40000E945D3CEDE0F0E0ACE3B1E00E94063ABC
:101A5000ECE3F1E0A8E5B2E00E94063AE6E0F0E04F
:101A6000ACE3B1E094E07BE70E94253AA7E4B1E063
:101A7000E2EEFDE70E94AD380E942538E8E5F2E08D
:101A8000A7E4B1E00E94EE340E94C03A0E9484357F
:101A90000C944D0D84E08093E8010C945317ECEF07
:101AA000FDE70E94AD380E94533A11F00C948F0D5F
:101AB0000091AD05023011F00C948A0D80E0809306
:101AC000E801AFEBB5E00E948F39A6E3B1E00D93DA
:101AD0001C93A6E3B1E08D919C91A3EBB3E08D93B1
:101AE0009C93EEE0F0E0A6E3B1E07BE70E94243AAD
:101AF000A7E4B1E0E4E0FEE70E94AD380E9425389B
:101B0000E3EBF3E0A7E4B1E00E94EE340E943A393F
:101B10000C948D0D84E08093E8010C945317EAE255
:101B2000FEE70E94AD380E94533A11F00C94B70DB5
:101B300080E08093E801A7E4B1E0E2E3FEE70E94E1
:101B4000AD380E942538E3E5F2E0A7E4B1E00E9459
:101B5000EE340E943A39A7E4B1E00E94EE34E4E6A4
:101B6000FDE70E94AD380E9425380C945317E4E538
:101B7000FEE70E94AD380E94533A11F00C94DF0D3D
:101B800080E08093E801A7E4B1E0ECE5FEE70E9485
:101B9000AD380E942538E5E5F2E0A7E4B1E00E9407
:101BA000EE340E943A39A7E4B1E00E94EE34E4E654
:101BB000FDE70E94AD380E9425380C945317E4E8E5
:101BC000FEE70E94AD380E94533A11F00C94070EC4
:101BD00080E08093E801A7E4B1E0ECE8FEE70E9432
:101BE000AD380E942538EDE4F2E0A7E4B1E00E94B0
:101BF000EE340E943A39A7E4B1E00E94EE34E4E604
:101C0000FDE70E94AD380E9425380C945317ECEA8A
:101C1000FEE70E94AD380E94533A11F00C94270E53
:101C200080E08093E801A7E4B1E0E4EBFEE70E94E6
:101C3000AD380E942538E8E5F2E0A7E4B1E00E9463
:101C4000EE340E94C03A0E9484350C945317E4ECA1
:101C5000FEE70E94AD380E94533A11F00C94450EF5
:101C600080E08093E801A7E4B1E0E4EBFEE70E94A6
:101C7000AD380E942538E3EBF3E0A7E4B1E00E9421
:101C8000EE340E943A390C945317ECECFEE70E94B4
:101C9000AD380E94533A11F00C94960E0091AD05A8
:101CA000023011F00C94910E80E08093E801AFEBCC
:101CB000B5E00E948F39A6E3B1E00D931C93A7E431
:101CC000B1E0E4EDFEE70E94AD380E942538E6E37E
:101CD000F1E0A7E4B1E00E94EE340E943A39E2EE6E
:101CE000FEE70E94AD380E94FD340E940435A6E351
:101CF000B1E08D919C91D2018D939C9382E00E94E2
:101D0000F2370E94F106229682E00E94EE37E6EE5C
:101D1000FEE70E94AD380E94FD340E9404350C9409
:101D2000940E84E08093E8010C945317EAEEFEE7EA
:101D30000E94AD380E94533A11F00C94B10E80E02D
:101D40008093E80170919D03716070939D03A7E4F7
:101D5000B1E0E2EFFEE70E94AD380E9425380C9416
:101D60005317E6E0FFE70E94AD380E94533A11F0A6
:101D70000C94FE0E0091AD05023011F00C94F90E9A
:101D8000AFEBB5E00E948F39AAE1B1E00C9300916E
:101D90001A01023010F00C94F40E80E08093E801F8
:101DA00000911A01003011F00C94DD0E70912601A3
:101DB0007F77709326010C94E20E70912601706873
:101DC00070932601A7E4B1E0EEE0FFE70E94AD3892
:101DD0000E942538EAE1F1E0A7E4B1E00E94EE3488
:101DE0000E944A390C94F70E85E08093E8010C9428
:101DF000FC0E84E08093E8010C945317E2E2FFE7C5
:101E00000E94AD380E94533A11F00C94390F0091A2
:101E1000AD05023011F00C94340FAFEBB5E00E9429
:101E20008F39AAE1B1E00C9380E08093E8018091C2
:101E30001A018093DE04E0E2F0E0AEEDB4E07BE76F
:101E40000E94223AA7E4B1E0EAE2FFE70E94AD383F
:101E50000E942538EEEDF4E0A7E4B1E00E94EE34F4
:101E60000E944A390C94370F84E08093E8010C9467
:101E70005317E0E5FFE70E94AD380E94533A11F096
:101E80000C94570F80E08093E801A7E4B1E0E8E507
:101E9000FFE70E94AD380E942538EEEDF4E0A7E49C
:101EA000B1E00E94EE340E944A390C945317E2E7E5
:101EB000FFE70E94AD380E94533A11F00C94B60F20
:101EC00080E08093E8010091AD050F3111F00C9492
:101ED000B10F80E08093E801A7E4B1E0EAE7FFE713
:101EE0000E94AD380E94253880E080931A0182E07C
:101EF00080933301009133010F3118F011F00C94ED
:101F0000AA0FAAE1B1E08C918F5F8C93A3E3B1E0BB
:101F10000D91112741E150E00E94F837ADE9B5E09D
:101F2000A00FB11F0E94E739ABE1B1E00C938091A3
:101F30001B01AAE1B1E0AD90BB24AAE6B3E0AA0D73
:101F4000BB1D8C93A3E3B1E08C918F5F8C9310F455
:101F50000C947A0F709126017160709326010C9495
:101F6000B40F84E08093E8010C945317E6E9FFE78F
:101F70000E94AD380E94533A11F00C941410009155
:101F8000AD05023011F00C940F10AFEBB5E00E94DC
:101F90008F39AAE1B1E00C9300911A01083418F0CE
:101FA00011F00C940A1080E08093E801AAE1B1E0FE
:101FB000AD90BB24ACE0B4E0AA0CBB1CAA0DBB1DC9
:101FC0008D919C91A6E3B1E08D939C93A7E4B1E041
:101FD000EEE9FFE70E94AD380E942538EAE1F1E022
:101FE000A7E4B1E00E94EE340E944A39A7E4B1E0D0
:101FF0000E94EE34E2EAFFE70E94AD380E942538E5
:10200000E6E3F1E0A7E4B1E00E94EE340E94C039BB
:102010000C940D1085E08093E8010C94121084E07C
:102020008093E8010C945317E4EAFFE70E94AD386F
:102030000E94533A11F00C947D1080E08093E801E7
:102040000091AD05033011F00C947810AFEBB5E0C2
:102050000E948F39AAE1B1E00C9300911A01083473
:1020600018F011F00C94731080E08093E801A0ED5B
:10207000B5E00E94E739A6E3B1E00D931C93A6E317
:10208000B1E08D919C91AAE1B1E0AD90BB24ACE0B0
:10209000B4E0AA0CBB1CAA0DBB1D8D939C93A7E4B6
:1020A000B1E0ECEAFFE70E94AD380E942538EAE192
:1020B000F1E0A7E4B1E00E94EE340E944A39A7E4BF
:1020C000B1E00E94EE34E2EAFFE70E94AD380E94E0
:1020D0002538E6E3F1E0A7E4B1E00E94EE340E9487
:1020E000C0390C94761085E08093E8010C947B1045
:1020F00084E08093E8010C945317EEEBFFE70E9415
:10210000AD380E94533A11F00C94981080E08093FF
:10211000E80170912601706470932601A7E4B1E094
:10212000E6ECFFE70E94AD380E9425380C94531767
:10213000E0EDFFE70E94AD380E94533A11F00C9495
:10214000C8100091AD05023011F00C94C31080E06E
:102150008093E801AFEBB5E00E948F39AAE2B1E0CD
:102160000C93A7E4B1E0E8EDFFE70E94AD380E94D0
:102170002538EAE2F1E0A7E4B1E00E94EE340E94E3
:102180004A390C94C61085E08093E8010C945317EB
:10219000E8EFFFE70E94AD380E94533A11F00C942B
:1021A00000110091AD05023011F00C94FB1080E09D
:1021B0008093E801AFEBB5E00E948F39ADEAB3E060
:1021C0000D931C93EAE0F0E0ADEAB3E07BE70E94F8
:1021D000243AA7E4B1E0E0E0F0E80E94AD380E94C4
:1021E0002538EDEAF3E0A7E4B1E00E94EE340E9466
:1021F0003A390C94FE1084E08093E8010C94531754
:10220000E8E1F0E80E94AD380E94533A11F00C94D6
:1022100038110091AD05023011F00C94331180E0BB
:102220008093E801AFEBB5E00E948F39AFEAB3E0ED
:102230000D931C93ECE0F0E0AFEAB3E07BE70E9483
:10224000243AA7E4B1E0E0E2F0E80E94AD380E9451
:102250002538EFEAF3E0A7E4B1E00E94EE340E94F3
:102260003A390C94361184E08093E8010C945317AA
:10227000EAE3F0E80E94AD380E94533A11F00C9462
:10228000681180E08093E801A7E4B1E0E2E4F0E8BF
:102290000E94AD380E942538EDEAF3E0A7E4B1E0F2
:1022A0000E94EE340E943A39A7E4B1E00E94EE3475
:1022B000EAE4F0E80E94AD380E942538EFEAF3E046
:1022C000A7E4B1E00E94EE340E943A390C9453170F
:1022D000E6E5F0E80E94AD380E94533A11F00C9404
:1022E000C5110091AD05023011F00C94C011AFEB97
:1022F000B5E00E948F39AAE1B1E00C9300911A0178
:10230000023010F00C94BB1180E08093E801009142
:102310001A01013011F00C94A41170912B0171601D
:1023200070932B01A7E4B1E0EEE5F0E80E94AD3830
:102330000E942538EBE2F1E0A7E4B1E00E94EE3420
:102340000E944A390C94B91170912B017E7F7093D1
:102350002B01A7E4B1E0EEE5F0E80E94AD380E9461
:102360002538EBE2F1E0A7E4B1E00E94EE340E94F0
:102370004A390C94BE1185E08093E8010C94C31196
:1023800084E08093E8010C945317E6E7F0E80E949C
:10239000AD380E94533A11F00C94E31180E0809321
:1023A000E801A7E4B1E0EEE7F0E80E94AD380E9452
:1023B0002538EBE2F1E0A7E4B1E00E94EE340E94A0
:1023C0004A390C945317E8E8F0E80E94AD380E94AF
:1023D000533A11F00C942A120091AD05023011F01D
:1023E0000C942512AFEBB5E00E948F39AAE1B1E061
:1023F0000C9300911A010C3010F00C94201280E024
:102400008093E80100911A0141E0041BA7E5B2E0C6
:102410000C93A7E4B1E0E0E9F0E80E94AD380E9437
:102420002538EAE1F1E0A7E4B1E00E94EE340E9431
:102430004A3970919D03726070939D030C9423122E
:1024400085E08093E8010C94281284E08093E801F1
:102450000C945317EEE9F0E80E94AD380E94533A0D
:1024600011F00C94A7120091AD05043011F00C94FA
:10247000A212AFEBB5E00E948F39AFE2B1E00C934E
:1024800000912F010C3010F00C949D12A0EDB5E0DE
:102490000E948F39A0E3B1E00C9300913001043029
:1024A00010F00C949812A1EEB5E00E948F39A7EEBF
:1024B000B4E00C9380E08093E801A7E4B1E0E6EAA1
:1024C000F0E80E94AD380E942538EFE2F1E0A7E481
:1024D000B1E00E94EE340E944A39A7E4B1E00E94C4
:1024E000EE34E8EBF0E80E94AD380E942538E0E3D6
:1024F000F1E0A7E4B1E00E94EE340E944A39A7E47B
:10250000B1E00E94EE34E4ECF0E80E94AD380E94A5
:102510002538E7EEF4E0A7E4B1E00E94EE340E9433
:102520004A39709126017460709326010C949B12B5
:1025300086E08093E8010C94A01285E08093E80186
:102540000C94A51284E08093E8010C945317ECECF2
:10255000F0E80E94AD380E94533A11F00C94C51275
:1025600080E08093E801A7E4B1E0E4EDF0E80E94A8
:10257000AD380E942538EBE9F3E0A7E4B1E00E9412
:10258000EE340E944A390C945317ECEDF0E80E94A7
:10259000AD380E94533A11F00C94AF130091AD0581
:1025A000023011F00C94AA13AFEBB5E00E944D3A43
:1025B000082F0A3081E009F080E08F93AFEBB5E09F
:1025C0000E944D3A082F0C3081E009F080E09F9185
:1025D000892B882311F40C94A51380E08093E801E3
:1025E00087E0EFEBF5E002E00A93AAEFB1E00E948A
:1025F0000C3AAAEFB1E00E94EE34E4EEF0E80E945B
:10260000AD380E94253889E0EFEBF5E002E00A934F
:10261000AAEFB1E00E94EE340E940C3AAAEFB1E0BA
:102620000E94EE34E4EEF0E80E94AD380E942538B6
:102630008BE0EFEBF5E002E00A93AAEFB1E00E9435
:10264000EE340E940C3AEAEFF1E0A1E1B1E00E9421
:10265000013A0E94843681E0EFEBF5E002E00A9354
:10266000AAEFB1E00E940C3AAAEFB1E00E94EE346A
:10267000E6EEF0E80E94AD380E94253883E0EFEBEB
:10268000F5E002E00A93AAEFB1E00E94EE340E9466
:102690000C3AAAEFB1E00E94EE34E6EEF0E80E94B8
:1026A000AD380E94253885E0EFEBF5E002E00A93B3
:1026B000AAEFB1E00E94EE340E940C3AEAEFF1E09A
:1026C000A8E0B1E00E94013A0E947C36A7E4B1E0A4
:1026D000E8EEF0E80E94AD380E9425380E9471367D
:1026E000E8E0F1E0A7E4B1E00E94EE340E94013A94
:1026F000A7E4B1E00E94EE34E2E1F1E80E94AD38D7
:102700000E9425380E947136E1E1F1E0A7E4B1E0D2
:102710000E94EE340E94013AE2E0F1E00E94933719
:10272000A9EBB3E00D931D932D933D93E0E1F0E011
:10273000A9EBB3E094E07BE70E94253A7091A803EF
:1027400078607093A8030C94A81386E08093E80146
:102750000C94AD1384E08093E8010C945317E6E1E8
:10276000F1E80E94AD380E94533A11F00C94EF1337
:1027700080E08093E8010E947136E1E1F1E0AAEF88
:10278000B1E00E94013AA7E4B1E0EEE1F1E80E9475
:10279000AD380E942538EAEFF1E0A7E4B1E00E94ED
:1027A000EE340E94013AA7E4B1E00E94EE34ECE27C
:1027B000F1E80E94AD380E9425380E947136E8E0A9
:1027C000F1E0AAEFB1E00E94013AEAEFF1E0A7E4FC
:1027D000B1E00E94EE340E94013A0C945317ECE3EE
:1027E000F1E80E94AD380E94533A11F00C942B147A
:1027F00080E08093E801E9EBF3E0ADEEB4E00E9405
:10280000CC37E9EBF3E0A8EFB4E00E94D437A7E4BB
:10281000B1E0E4E4F1E80E94AD380E942538EDEE25
:10282000F4E0A7E4B1E00E94EE340E94013AA7E48C
:10283000B1E00E94EE34E0E5F1E80E94AD380E947C
:102840002538E8EFF4E0A7E4B1E00E94EE340E94FE
:10285000013A0C945317E6E5F1E80E94AD380E9466
:10286000533A11F00C94461480E08093E801709183
:10287000A80374607093A803A7E4B1E0EEE5F1E863
:102880000E94AD380E9425380C945317E6E6F1E813
:102890000E94AD380E94533A11F00C947E140091BE
:1028A000AD05023011F00C947914AFEBB5E00E9445
:1028B0008F39A4EAB5E00D931D932D933D93E9E282
:1028C000F0E0A4EAB5E094E07BE70E94253AA7E4B3
:1028D000B1E0EEE6F1E80E94AD380E942538E4EA66
:1028E000F5E0A7E4B1E00E94EE340E943D390C947B
:1028F0007C1484E08093E8010C945317E6E8F1E837
:102900000E94AD380E94533A11F00C949C1480E060
:102910008093E801A7E4B1E0EEE8F1E80E94AD3869
:102920000E942538E4EAF5E0A7E4B1E00E94EE3425
:102930000E943D390C945317E8E9F1E80E94AD3844
:102940000E94533A11F00C94B51480E08093E80192
:10295000A7E4B1E0E0EAF1E80E94AD380E94253832
:1029600081E0809300040C945317EAEBF1E80E9495
:10297000AD380E94533A11F00C94051580E0809315
:10298000E801A7E4B1E0E2ECF1E80E94AD380E9472
:102990002538A0E8BFE0AF93BF93E8EFF3E00E94D3
:1029A000C03A0E94843511E002E0BF91AF910E94CD
:1029B000D538E0E8FFE0A7E4B1E00E94EE340E94E1
:1029C000013AA7E4B1E00E94EE34E8ECF1E80E949D
:1029D000AD380E942538A0E8BFE0AF93BF93ECEF7D
:1029E000F3E00E94C03A0E94843511E002E0BF91FA
:1029F000AF910E94D538E0E8FFE0A7E4B1E00E9483
:102A0000EE340E94013A0C945317E0EDF1E80E9475
:102A1000AD380E94533A11F00C9465150091AD0544
:102A2000023011F00C946315AFEBB5E00E944D3A03
:102A3000AAE1B1E08C9300911A01083011F00C94D6
:102A4000601580E08093E801EFEBF5E0AAEFB1E0DC
:102A50000E94013AEAEFF1E00E946737AFEDB4E07F
:102A60000D931D932D933D93E1E2F0E0AFEDB4E0C3
:102A700094E07BE70E94253AA7E4B1E0E8EDF1E8B5
:102A80000E94AD380E942538EFEDF4E0A7E4B1E0F4
:102A90000E94EE340E943D39A7E4B1E00E94EE347A
:102AA000EAEFF1E80E94AD380E942538EFEBF5E03F
:102AB000A7E4B1E00E94EE340E94013A0C94631541
:102AC00085E08093E8010C945317EEEFF1E80E9443
:102AD000AD380E94533A11F00C94CA150091AD051F
:102AE000023011F00C94C515AFEBB5E00E944D3AE1
:102AF000AAE1B1E08C9300911A01083011F00C9416
:102B0000C01580E08093E801EFEBF5E0AAEFB1E0BB
:102B10000E94013AEAEFF1E00E946737A3EEB4E0C9
:102B20000D931D932D933D93E5E2F0E0A3EEB4E009
:102B300094E07BE70E94253AA7E4B1E0E6E0F2E802
:102B40000E94AD380E942538E3EEF4E0A7E4B1E03E
:102B50000E94EE340E943D39A7E4B1E00E94EE34B9
:102B6000EAEFF1E80E94AD380E942538EFEBF5E07E
:102B7000A7E4B1E00E94EE340E94013A0C94C31520
:102B800085E08093E8010C94C81584E08093E80107
:102B90000C945317E4E2F2E80E94AD380E94533AD5
:102BA00011F00C94EE1580E08093E801EFEDF4E075
:102BB000AAEFB1E00E94CC37A7E4B1E0ECE2F2E882
:102BC0000E94AD380E942538EAEFF1E0A7E4B1E0B9
:102BD0000E94EE340E94013A0C945317E0E4F2E8AC
:102BE0000E94AD380E94533A11F00C94121680E006
:102BF0008093E801E3EEF4E0AAEFB1E00E94CC3765
:102C0000A7E4B1E0E8E4F2E80E94AD380E9425387C
:102C1000EAEFF1E0A7E4B1E00E94EE340E94013A4D
:102C20000C945317EAE5F2E80E94AD380E94533A3B
:102C300011F00C9442160091AD05023011F00C9485
:102C40003D1680E08093E801AFEBB5E00E948F393C
:102C5000A4E2B1E00C93A7E4B1E0E2E6F2E80E945E
:102C6000AD380E942538E4E2F1E0A7E4B1E00E942B
:102C7000EE340E944A390C94401685E08093E801B6
:102C80000C945317E8E7F2E80E94AD380E94533ADB
:102C900011F00C94601680E08093E801A7E4B1E0A5
:102CA000E0E8F2E80E94AD380E942538E4E2F1E065
:102CB000A7E4B1E00E94EE340E944A390C94531705
:102CC000E8E8F2E80E94AD380E94533A11F00C9403
:102CD000A61680E08093E801A7E4B1E0E0E9F2E81D
:102CE0000E94AD380E94253881E080931A0100913E
:102CF0001A01003218F011F00C94A416EAE1F1E088
:102D0000A0E8BFE00E944A390E94F534E8E9FBE7F9
:102D10000E94AD380E94FD34EAE1F1E0A190BB24AD
:102D2000EAE6F3E0EA0DFB1DA0E8BFE00E944A39A5
:102D30000E94F5340E940435AAE1B1E08C918F5FC6
:102D40008C9310F40C9477160C945317EEEAF2E877
:102D50000E94AD380E94533A11F00C94DC16009199
:102D6000AD05023011F00C94D716AFEBB5E00E9420
:102D70008F39A8EEB4E00D931C93A8EEB4E08D91CA
:102D80009C91AAEEB4E08D939C93A7E4B1E0E6EBAE
:102D9000F2E80E94AD380E942538E8EEF4E0A7E49E
:102DA000B1E00E94EE340E943A390C94DA1685E0C4
:102DB0008093E8010C945317EAEDF2E80E94AD38D5
:102DC0000E94533A11F00C94FA1680E08093E801C7
:102DD000A7E4B1E0E2EEF2E80E94AD380E942538A7
:102DE000E8EEF4E0A7E4B1E00E94EE340E943A3944
:102DF0000C945317E8EFF2E80E94AD380E94533A62
:102E000011F00C9432170091AD05023011F00C94C2
:102E10002D1780E08093E801AFEBB5E00E948F3979
:102E2000AAEAB5E00D931C93EDE2F0E0AAEAB5E062
:102E30007BE70E94243AA7E4B1E0E0E0F3E80E94D7
:102E4000AD380E942538EAEAF5E0A7E4B1E00E9437
:102E5000EE340E943A390C94301785E08093E801F3
:102E60000C945317E0E2F3E80E94AD380E94533A05
:102E700011F00C94501780E08093E801A7E4B1E0D2
:102E8000E8E2F3E80E94AD380E942538EAEAF5E06E
:102E9000A7E4B1E00E94EE340E943A390C94531733
:102EA00081E08093E8010C94581782E08093E80158
:102EB0000091E801003018F011F00C9461170C94A7
:102EC0006F17E0EAF5E60E94AD38A8EEB1E08C910C
:102ED00099270E947A38A7E4B1E00E942538A7E438
:102EE000B1E00E94F7340E940435089581E0809398
:102EF000DE030091DE03033018F011F00C94CC17C0
:102F0000EEEBF6E60E94AD38AEEDB3E08C9199277A
:102F1000AFEDB3E00E94603807B1007E8091DF031F
:102F200090E0890F082707B90E942B38ACEDB3E079
:102F30008D939C93ECEDF3E0D190E080FF2400278B
:102F40000E94283B0E94CA3AEEEDF3E0A190BB2418
:102F5000EFEBF3E0AA0CBB1CAA0CBB1CEA0DFB1D9B
:102F60000E94C03A0E94F53BEDE0F0E0AEEDB3E028
:102F7000AD90BB24AFEBB3E0AA0CBB1CAA0CBB1CEE
:102F8000AA0DBB1D0E94063AAEEDB3E08C918F5F97
:102F90008C9310F40C947917AFECB3E08C918F5FA5
:102FA0008C93AFECB3E00C9148E00E943D3A8C93D7
:102FB0000091CF03003011F00C94A01881E08093B1
:102FC000DE030091DE03033018F011F00C94941826
:102FD000ECE5FAE70E94AD380E94503CEEEDF3E0DC
:102FE000A190BB24EFEBF3E0AA0CBB1CAA0CBB1C0A
:102FF000EA0DFB1D0E94C03A0E94553BEDE0F0E057
:10300000AEEDB3E0AD90BB24ACECB3E0AA0CBB1CBE
:10301000AA0CBB1CAA0DBB1D0E94063AAEEDB3E084
:10302000AD90BB24AFEBB3E0AA0CBB1CAA0CBB1C3D
:10303000AA0DBB1DE0E6FAE70E94AD380E945238A7
:10304000EEEDF3E0A190BB24ECEDF3E0AA0CBB1C89
:10305000AA0CBB1CEA0DFB1D0E94C53AEEEDF3E085
:10306000A190BB24ECECF3E0AA0CBB1CAA0CBB1C8B
:10307000EA0DFB1D0E94C03A0E94AE3BEDE0F0E07D
:10308000AEEDB3E0AD90BB24A8EEB3E0AA0CBB1C40
:10309000AA0CBB1CAA0DBB1D0E94063A009100049D
:1030A000013011F00C948C18ECE3F3E80E94AD3879
:1030B0000E94FD34EEEDF3E0A0E8BFE00E944A3943
:1030C0000E94F534E2EAFFE70E94AD380E94FD3429
:1030D000A0E8BFE0AF93BF93EEEDF3E0A190BB2477
:1030E000E8EEF3E0AA0CBB1CAA0CBB1CEA0DFB1D0E
:1030F0000E94C03A0E94843511E001E0BF91AF9177
:103100000E94D538E0E8FFE0A0E8BFE00E94013A65
:103110000E94F5340E940435AEEDB3E08C918F5FD0
:103120008C9310F40C94E117ECEEF3E0A8EFB3E00D
:103130000E94063AE0EFF3E0ACEFB3E00E94063AFB
:103140000895E0E0F0E00AE010E0A0E1BB277BE7B3
:103150000E94243AE2E0F0E008E512E0A0E1BB279B
:103160007BE70E94243AE4E0F0E00CE310E0A0E109
:10317000BB277BE70E94243AE0E6FAE70E94AD38DD
:103180000E94433CE6E0F0E0ADE0BB2794E07BE743
:103190000E94253AE0E2F0E0A0E1BB2781E08C93B9
:1031A0007BE70E94223AEAE0F0E000E010E0A0E1D4
:1031B000BB277BE70E94243AECE0F0E000E010E05F
:1031C000A0E1BB277BE70E94243AEEE0F0E000E0BC
:1031D00010E0A0E1BB277BE70E94243AAAEFB1E010
:1031E000E0E4F3E80E94AD380E942538EAEFF1E010
:1031F0000E946737AFEDB4E00D931D932D933D937F
:10320000E1E2F0E0AFEDB4E094E07BE70E94253A24
:10321000AAEFB1E0EAE4F3E80E94AD380E94253855
:10322000EAEFF1E00E946737A3EEB4E00D931D933F
:103230002D933D93E5E2F0E0A3EEB4E094E07BE76C
:103240000E94253A80E090E0AAEEB4E08D939C9332
:10325000E9E2F0E000E11EE020E030E0A0E1BB2781
:1032600094E07BE70E94253AEDE2F0E000E11EE009
:10327000A0E1BB277BE70E94243A08957091A80340
:10328000777F7093A803AC9AE4E5F3E80E94AD3829
:103290000E94FD340E94043580E08093EC04A8EA8B
:1032A000B3E08C9180FB16F00C94771A7091A80310
:1032B0007E7F7093A80382EA0E94F23781E0E0E704
:1032C000F8E005E00A93A981BA810E940C3AA8812E
:1032D000B981EAE5F3E80E94AD380E94533A0FB68F
:1032E00082EA481A80E0580A22960FBE11F00C9428
:1032F0006F1A5798E0E6F3E80E94AD380E94FD345B
:10330000A0E7B8E00E94F7340E940435E0E7F8E057
:10331000A3E0B5E00E94013AE6E6F3E80E94AD388A
:103320000E94FD34A3E0B5E00E94F7340E9404350A
:10333000E3E0F5E09CE200E130E2AEEAB5E00E94B5
:103340008B3AADEAB5E02C930091AD05003018F052
:1033500011F00C94AD190C946F1AA0EDB5E0ECE6E9
:10336000F3E80E94AD380E94533A11F00C946F1AA2
:103370007091A80378607093A80381E0EFEBF5E00B
:1033800002E00A93ADEEB4E00E940C3AADEEB4E078
:103390000E94EE34E6EEF0E80E94AD380E94253837
:1033A00083E0EFEBF5E002E00A93ADEEB4E00E94BB
:1033B000EE340E940C3AADEEB4E00E94EE34E6EE3C
:1033C000F0E80E94AD380E94253885E0EFEBF5E08B
:1033D00002E00A93ADEEB4E00E94EE340E940C3A93
:1033E00081E0E7E4F6E002E00A93A8EFB4E00E948F
:1033F0000C3AA8EFB4E00E94EE34E4EEF0E80E944C
:10340000AD380E94253883E0E7E4F6E002E00A9355
:10341000A8EFB4E00E94EE340E940C3AA8EFB4E0AA
:103420000E94EE34E4EEF0E80E94AD380E942538A8
:1034300085E0E7E4F6E002E00A93A8EFB4E00E943A
:10344000EE340E940C3AADEEB4E00E94F7340E94D4
:103450000435A8EFB4E00E94F7340E940435E8EF89
:10346000F4E0FA93EA93EDEEF4E00E94DC37A0E298
:10347000B1E00D931D932D933D93A0E2B1E00D912A
:103480001D912D913C9140E556E460E070E00E9472
:103490002239A0E2B1E00D931D932D933D93E0E21C
:1034A000F1E0A1E1B1E00E94CC370E948436E0E275
:1034B000F1E0A8E0B1E00E94D4370E947C360E947F
:1034C0007136A1E1B1E00E94F7340E9404350E94F8
:1034D0007136A8E0B1E00E94F7340E9404350E94E2
:1034E0001D0BACEEB4E08C918F5F8C93579AA8EAD9
:1034F000B3E08C9183FB81E00EF080E08F9300912C
:10350000EC04083C81E009F080E09F91892B88233E
:1035100011F40C944F19AC98EEE6F3E80E94AD3824
:103520000E94FD34ECEEF4E0A0E8BFE00E944A39CE
:103530000E94F5340E9404350895E8E7F3E80E94FC
:10354000AD380E94FD340E9404350E947136A1E11D
:10355000B1E00E94F734E2E8F3E80E94AD380E943F
:10356000FD340E947136A8E0B1E00E94F7340E9459
:10357000043581E080933301009133010E3118F05E
:1035800011F00C94DF1AE3E3F1E0A190BB24EAE62A
:10359000F3E0EA0DFB1DA0E8BFE00E94BE390E94E7
:1035A000F534E8E9FBE70E94AD380E94FD34A3E35F
:1035B000B1E08C918F5F8C9310F40C94BC1A0E9434
:1035C000043580E080931C0181E0809333010091F9
:1035D00033010E3118F011F00C94411BE3E3F1E0DC
:1035E000A190BB24EAE6F3E0EA0DFB1DA0E8BFE0F2
:1035F0000E94BE390E94F534E8E9FBE70E94AD382D
:103600000E94FD34A3E3B1E00C9100FB16F00C9492
:10361000161BA3E3B1E0AD90BB24AAE6B3E0AA0D6C
:10362000BB1D8C9180931A010C94391BA3E3B1E06C
:10363000AD90BB24AAE6B3E0AA0DBB1D8C9180938C
:103640001B0194E0ABE1B1E00E943438ACE1B1E0A1
:103650008C918F5F8C9300911A0140911B01042B78
:10366000ACE1B1E0AD90BB24AAE8B3E0AA0DBB1D6C
:103670000C93A3E3B1E08C918F5F8C9310F40C94C6
:10368000E71A0E940435E4E8F3E80E94AD380E948E
:10369000FD340E94043581E08093330100913301B1
:1036A0000F3018F011F00C94711BE3E3F1E0A190DE
:1036B000BB24EAE8F3E0EA0DFB1DA0E8BFE00E94AE
:1036C000BE390E94F534E8E9FBE70E94AD380E945C
:1036D000FD34A3E3B1E08C918F5F8C9310F40C94D4
:1036E0004E1B0E940435EBE8F3E08EE00E94673A3F
:1036F000AAE1B1E00C93EEE8F3E80E94AD380E9435
:10370000FD34EAE1F1E0A0E8BFE00E94BE390E948A
:10371000F5340E9404354091990300911A01041771
:1037200011F00C945124E4E9F3E80E94AD380E94B2
:10373000FD34ADEAB3E00E94A734EAE0F0E0ADEA80
:10374000B3E07BE70E94243AEDEAF3E0A0E8BFE0B3
:103750000E943A390E94F5340E94043580916B032F
:1037600080931A01ECE9F3E80E94AD380E94FD3421
:10377000EAE1F1E0A0E8BFE00E944A390E94F53496
:103780000E940435A4ECB4E08D919C91A8EAB5E0C8
:103790008D939C9300911A0141E0041BA5E3B1E0D5
:1037A0000C9380913501A8EAB5E00E9498380E94F8
:1037B0008E388C9189238C93A8EAB5E08D919C91E9
:1037C000A4ECB4E08D939C9384E180933301A8EA48
:1037D000B5E08D919C91A4ECB4E08D939C93E6EAC6
:1037E000F3E80E94AD380E94FD34E3E3F1E0A0E885
:1037F000BFE00E944A390E94F534E8E9FBE70E94E5
:10380000AD380E94FD34E3E3F1E0A190BB24ECE984
:10381000F4E0AA0CBB1CEA0DFB1DA0E8BFE00E946F
:10382000C0390E94F5340E940435E6EAF3E80E94AC
:10383000AD380E941335E3E3F1E0A0E8BFE00E9459
:103840004A390E940B35E8E9FBE70E94AD380E9437
:103850001335E3E3F1E0A190BB24ECE9F4E0AA0C1A
:10386000BB1CEA0DFB1DA0E8BFE00E94C0390E940E
:103870000B350E941A3580E090E0AAE1B1E0AD90EE
:10388000BB24ABE2B3E0AA0CBB1CAA0DBB1D8D93FD
:103890009C93A7E4B1E0E0EBF3E80E94AD380E940E
:1038A0002538EAE1F1E0A7E4B1E00E94EE340E949D
:1038B0004A39A7E4B1E00E94EE34E8E9FBE70E9450
:1038C000AD380E94253880916C03AAE1B1E0AD903B
:1038D000BB24A5EFB2E0AA0DBB1D8C9300911A0189
:1038E0000A3081E009F080E08F9300911A010B30DB
:1038F00081E009F080E09F91892B882311F40C94DA
:103900009E1C80916C0380931E0100911E01033068
:1039100011F00C949E1CA3EBB3E00E94A734EEE0E0
:10392000F0E0A3EBB3E07BE70E94243AA3EBB3E023
:103930008D919C91A6EBB4E08D939C9380916C0348
:103940008093290100911A0141E0041BA7E2B1E034
:103950000C93A7E2B1E00C9144E00E943D3A0C9335
:10396000A7E2B1E08C918D5F8C9300911A0141E048
:10397000041BA8E2B1E00C93A8E2B1E00C9144E092
:103980000E943D3A8C93A8E2B1E00C9144E0049F80
:103990000C92EAEBF3E80E94AD380E94FD34E9E2B4
:1039A000F1E0A0E8BFE00E944A390E94F5340E948D
:1039B0000435E6ECF3E80E94AD380E94FD34E7E2FE
:1039C000F1E0A0E8BFE00E944A390E94F5340E946D
:1039D0000435E4EDF3E80E94AD380E94FD34E8E2DE
:1039E000F1E0A0E8BFE00E944A390E94F5340E944D
:1039F0000435A9E2B1E08C9180FB80912801A7E217
:103A0000B1E0AD90BB24ACE9B4E0AA0CBB1CAA0D9C
:103A1000BB1D0E9498380E948E380C9016F0092227
:103A200001C0082A0C92A8E2B1E08C918F5F8C93C0
:103A3000A9E2B1E08C9181FB80912801A7E2B1E07D
:103A4000AD90BB24ACE9B4E0AA0CBB1CAA0DBB1D15
:103A50000E9498380E948E380C9016F0092201C0FE
:103A6000082A0C92A8E2B1E08C918F5F8C93A9E2B6
:103A7000B1E08C9182FB80912801A7E2B1E0AD908A
:103A8000BB24ACE9B4E0AA0CBB1CAA0DBB1D0E9470
:103A900098380E948E380C9016F0092201C0082A2E
:103AA0000C92A8E2B1E08C918F5F8C93A9E2B1E017
:103AB0008C9183FB80912801A7E2B1E0AD90BB24FB
:103AC000ACE9B4E0AA0CBB1CAA0DBB1D0E9498383F
:103AD0000E948E380C9016F0092201C0082A0C9220
:103AE000EEEDF3E80E94AD380E94FD34E7E2F1E02C
:103AF000A0E8BFE00E944A390E94F534E8EEF3E8FE
:103B00000E94AD380E94FD34E7E2F1E0A190BB24B1
:103B1000ECE9F4E0AA0CBB1CEA0DFB1DA0E8BFE039
:103B20000E94C0390E94F5340E940435AAEFB1E02A
:103B3000E6EAF3E80E94AD380E942538E7E2F1E0BA
:103B4000AAEFB1E00E94EE340E944A39AAEFB1E038
:103B50000E94EE34E8E9FBE70E94AD380E94253868
:103B6000E7E2F1E0A190BB24ECE9F4E0AA0CBB1C75
:103B7000EA0DFB1DAAEFB1E00E94EE340E94C039AD
:103B8000AAEFB1E00E94F7340E940435AAEFB1E039
:103B90000E940D350E941A3580918C0380933C0160
:103BA00080918D0380933D0180918E0380933E012F
:103BB00080918F0380933F01ECE3F1E00E94D03AC3
:103BC000AAE1B1E0AD90BB24ADEFB2E0AA0CBB1C02
:103BD000AA0CBB1CAA0DBB1DEDE0FF270E94063AF4
:103BE00000911A0141E0041BA7E2B1E00C93A7E2A7
:103BF000B1E00C9146E0049F0C92A7E2B1E08C91F9
:103C00008F5F8C93ECEEF3E80E94AD380E94FD3498
:103C1000E7E2F1E0A0E8BFE00E944A390E94F534F3
:103C20000E94043590913F0180913E01A6E3B1E0EE
:103C30008D939C93A6E3B1E08D919C91A7E2B1E0B6
:103C4000AD90BB24ACE0B4E0AA0CBB1CAA0DBB1D1C
:103C50008D939C93AAEFB1E0E4EFF3E80E94AD38B6
:103C60000E942538E7E2F1E0AAEFB1E00E94EE34CD
:103C70000E944A39AAEFB1E00E94EE34E8E9FBE77E
:103C80000E94AD380E942538E7E2F1E0A190BB2404
:103C9000ECE0F4E0AA0CBB1CEA0DFB1DAAEFB1E0BE
:103CA0000E94EE340E94C039AAEFB1E00E94F734BE
:103CB0000E940435AAEFB1E00E940D350E941A352A
:103CC00090913D0180913C01A6E3B1E08D939C93DE
:103CD000A7E2B1E08C918F5F8C93A6E3B1E08D9168
:103CE0009C91A7E2B1E0AD90BB24ACE0B4E0AA0C9B
:103CF000BB1CAA0DBB1D8D939C93AAEFB1E0E4EF12
:103D0000F3E80E94AD380E942538E7E2F1E0AAEF1F
:103D1000B1E00E94EE340E944A39AAEFB1E00E945D
:103D2000EE34E8E9FBE70E94AD380E942538E7E26F
:103D3000F1E0A190BB24ECE0F4E0AA0CBB1CEA0D7E
:103D4000FB1DAAEFB1E00E94EE340E94C039AAEF39
:103D5000B1E00E94F7340E940435AAEFB1E00E945E
:103D60000D350E941A35EEEFF3E80E94AD380E943F
:103D7000FD34EAE1F1E0A190BB24EDEFF2E0AA0C02
:103D8000BB1CAA0CBB1CEA0DFB1DA0E8BFE00E94F7
:103D900040390E94F534E8E9FBE70E94AD380E9403
:103DA000FD34E8E3F1E0A0E8BFE00E94C2390E94E0
:103DB000F5340E940435EAE1F1E0A190BB24EDEF77
:103DC000F2E0AA0CBB1CAA0CBB1CEA0DFB1DA7E46D
:103DD000B1E00E94EE340E944039A7E4B1E00E94B5
:103DE000EE34E8E9FBE70E94AD380E942538809167
:103DF000910380933C018091920380933D018091D7
:103E0000930380933E018091940380933F01ECE300
:103E1000F1E0AAE1B1E0AD90BB24A8E5B2E0AA0CC4
:103E2000BB1CAA0CBB1CAA0DBB1D0E94063A00912C
:103E30001A0141E0041BA7E2B1E00C93A7E2B1E054
:103E40000C9146E0049F0C92A7E2B1E08C918D5F4B
:103E50008C93ECEEF3E80E94AD380E94FD34E7E26B
:103E6000F1E0A0E8BFE00E944A390E94F5340E94C8
:103E7000043590913F0180913E01A6E3B1E08D931E
:103E80009C93A6E3B1E08D919C91A7E2B1E0AD9047
:103E9000BB24ACE0B4E0AA0CBB1CAA0DBB1D8D93E7
:103EA0009C93E4EFF3E80E94AD380E94FD34E7E212
:103EB000F1E0A0E8BFE00E944A390E94F534E8E949
:103EC000FBE70E94AD380E94FD34E7E2F1E0A190EB
:103ED000BB24ECE0F4E0AA0CBB1CEA0DFB1DA0E83F
:103EE000BFE00E94C0390E94F5340E940435E4EF1F
:103EF000F3E80E94AD380E941335E7E2F1E0A0E854
:103F0000BFE00E944A390E940B35E8E9FBE70E94B6
:103F1000AD380E941335E7E2F1E0A190BB24ECE05C
:103F2000F4E0AA0CBB1CEA0DFB1DA0E8BFE00E9458
:103F3000C0390E940B350E941A3590913D01809145
:103F40003C01A6E3B1E08D939C93A7E2B1E08C9194
:103F50008F5F8C93A6E3B1E08D919C91A7E2B1E0D5
:103F6000AD90BB24ACE0B4E0AA0CBB1CAA0DBB1DF9
:103F70008D939C93E4EFF3E80E94AD380E94FD34EA
:103F8000E7E2F1E0A0E8BFE00E944A390E94F53480
:103F9000E8E9FBE70E94AD380E94FD34E7E2F1E07A
:103FA000A190BB24ECE0F4E0AA0CBB1CEA0DFB1DC5
:103FB000A0E8BFE00E94C0390E94F5340E94043599
:103FC000E4EFF3E80E94AD380E941335E7E2F1E038
:103FD000A0E8BFE00E944A390E940B35E8E9FBE700
:103FE0000E94AD380E941335E7E2F1E0A190BB24B6
:103FF000ECE0F4E0AA0CBB1CEA0DFB1DA0E8BFE05E
:104000000E94C0390E940B350E941A35E8E0F4E89E
:104010000E94AD380E94FD34ECE3F1E0A0E8BFE07F
:104020000E94C03A0E9484350E94F534E8E9FBE71B
:104030000E94AD380E94FD34ECE3F1E0A0E8BFE05F
:104040000E94C2390E94F5340E9404358091950384
:1040500080933C018091960380933D01809197036A
:1040600080933E018091980380933F01ECE3F1E05F
:10407000AAE1B1E0AD90BB24A4E8B2E0AA0CBB1C5D
:10408000AA0CBB1CAA0DBB1D0E94063AA0E8BFE00B
:10409000AF93BF93EAE1F1E0A190BB24E4E8F2E042
:1040A000AA0CBB1CAA0CBB1CEA0DFB1D0E94C03A4B
:1040B0000E94843511E002E0BF91AF910E94D53893
:1040C000E0E8FFE0A7E4B1E00E94EE340E94013A8C
:1040D000A7E4B1E00E94EE34E8E9FBE70E94AD38C6
:1040E0000E942538A0E8BFE0AF93BF93EAE1F1E07A
:1040F000A190BB24E8E5F2E0AA0CBB1CAA0CBB1CF7
:10410000EA0DFB1D0E94C03A0E94843511E002E0D6
:10411000BF91AF910E94D538E0E8FFE0A7E4B1E09D
:104120000E94EE340E94013AA7E4B1E00E94EE340E
:10413000E8E9FBE70E94AD380E942538EEE0F4E89C
:104140000E94AD380E94FD34ECE3F1E0A0E8BFE04E
:104150000E94C03A0E9484350E94F534E8E9FBE7EA
:104160000E94AD380E94FD34ECE3F1E0A0E8BFE02E
:104170000E94C2390E94F5340E94043500911A0150
:1041800041E0041BA7E2B1E00C93A7E2B1E00C917F
:1041900046E0049F0C92A7E2B1E08C918B5F8C9378
:1041A000ECEEF3E80E94AD380E94FD34E7E2F1E066
:1041B000A0E8BFE00E944A390E94F5340E9404350D
:1041C00090913F0180913E01A6E3B1E08D939C93D5
:1041D000A6E3B1E08D919C91A7E2B1E0AD90BB2444
:1041E000ACE0B4E0AA0CBB1CAA0DBB1D8D939C9344
:1041F000E4EFF3E80E94AD380E94FD34E7E2F1E01D
:10420000A0E8BFE00E944A390E94F534E8E9FBE7E4
:104210000E94AD380E94FD34E7E2F1E0A190BB249A
:10422000ECE0F4E0AA0CBB1CEA0DFB1DA0E8BFE02B
:104230000E94C0390E94F5340E940435E4EFF3E88F
:104240000E94AD380E941335E7E2F1E0A0E8BFE03C
:104250000E944A390E940B35E8E9FBE70E94AD381D
:104260000E941335E7E2F1E0A190BB24ECE0F4E01A
:10427000AA0CBB1CEA0DFB1DA0E8BFE00E94C039E0
:104280000E940B350E941A3590913D0180913C01AE
:10429000A6E3B1E08D939C93A7E2B1E08C918F5F90
:1042A0008C93A6E3B1E08D919C91A7E2B1E0AD9033
:1042B000BB24ACE0B4E0AA0CBB1CAA0DBB1D8D93C3
:1042C0009C93E4EFF3E80E94AD380E94FD34E7E2EE
:1042D000F1E0A0E8BFE00E944A390E94F534E8E925
:1042E000FBE70E94AD380E94FD34E7E2F1E0A190C7
:1042F000BB24ECE0F4E0AA0CBB1CEA0DFB1DA0E81B
:10430000BFE00E94C0390E94F5340E940435E4EFFA
:10431000F3E80E94AD380E941335E7E2F1E0A0E82F
:10432000BFE00E944A390E940B35E8E9FBE70E9492
:10433000AD380E941335E7E2F1E0A190BB24ECE038
:10434000F4E0AA0CBB1CEA0DFB1DA0E8BFE00E9434
:10435000C0390E940B350E941A3580919003AAE162
:10436000B1E0AD90BB24AFEDB2E0AA0DBB1D8C93C4
:10437000E4E1F4E80E94AD380E94FD34D201E0E9A6
:10438000F3E00E94D739D2010E94F7340E9404352D
:10439000E2E2F4E80E94AD380E94FD34EAE1F1E087
:1043A000A190BB24EFEDF2E0EA0DFB1DA0E8BFE019
:1043B0000E94BE390E94F5340E940435ECE6F3E019
:1043C000A7E4B1E00E94EE340E944A39A7E4B1E0CC
:1043D0000E94EE34E8E9FBE70E94AD380E942538E0
:1043E000EAE1F1E0A190BB24EFEDF2E0EA0DFB1D64
:1043F000A7E4B1E00E94EE340E94BE39A7E4B1E028
:104400000E94F7340E940435809190038093290123
:1044100000911A0141E0041BA7E2B1E00C93A7E26E
:10442000B1E00C9142E00E943D3A0C93A7E2B1E06A
:104430008C918A5F8C9300911A0141E0041BA8E2E1
:10444000B1E00C93A8E2B1E00C9142E00E943D3A49
:104450008C93A8E2B1E00C9148E0049F0C92E6EC4A
:10446000F3E80E94AD380E94FD34E7E2F1E0A0E8F5
:10447000BFE00E944A390E94F5340E940435E4ED01
:10448000F3E80E94AD380E94FD34E8E2F1E0A0E8D4
:10449000BFE00E944A390E94F5340E940435A9E227
:1044A000B1E08C9180FB80912801A7E2B1E0AD9052
:1044B000BB24ACE9B4E0AA0CBB1CAA0DBB1D0E9436
:1044C00098380E948E380C9016F0092201C0082AF4
:1044D0000C92A8E2B1E08C918F5F8C93A9E2B1E0DD
:1044E0008C9181FB80912801A7E2B1E0AD90BB24C3
:1044F000ACE9B4E0AA0CBB1CAA0DBB1D0E94983805
:104500000E948E380C9016F0092201C0082A0C92E5
:10451000A8E2B1E08C918F5F8C93A9E2B1E08C911D
:1045200082FB80912801A7E2B1E0AD90BB24ACE909
:10453000B4E0AA0CBB1CAA0DBB1D0E9498380E94B7
:104540008E380C9016F0092201C0082A0C92A8E2BD
:10455000B1E08C918F5F8C93A9E2B1E08C9183FBE9
:1045600080912801A7E2B1E0AD90BB24ACE9B4E0B2
:10457000AA0CBB1CAA0DBB1D0E9498380E948E3845
:104580000C9016F0092201C0082A0C92A8E2B1E0B2
:104590008C918F5F8C93A9E2B1E08C9184FB809128
:1045A0002801A7E2B1E0AD90BB24ACE9B4E0AA0CCD
:1045B000BB1CAA0DBB1D0E9498380E948E380C901F
:1045C00016F0092201C0082A0C92A8E2B1E08C91F1
:1045D0008F5F8C93A9E2B1E08C9185FB80912801DB
:1045E000A7E2B1E0AD90BB24ACE9B4E0AA0CBB1CDF
:1045F000AA0DBB1D0E9498380E948E380C9016F0B0
:10460000092201C0082A0C92A8E2B1E08C918F5FC8
:104610008C93A9E2B1E08C9186FB80912801A7E2FE
:10462000B1E0AD90BB24ACE9B4E0AA0CBB1CAA0D70
:10463000BB1D0E9498380E948E380C9016F00922FB
:1046400001C0082A0C92A8E2B1E08C918F5F8C9394
:10465000A9E2B1E08C9187FB80912801A7E2B1E04B
:10466000AD90BB24ACE9B4E0AA0CBB1CAA0DBB1DE9
:104670000E9498380E948E380C9016F0092201C0D2
:10468000082A0C92EEEDF3E80E94AD380E94FD344A
:10469000E7E2F1E0A0E8BFE00E944A390E94F53469
:1046A000E8EEF3E80E94AD380E94FD34E7E2F1E065
:1046B000A190BB24ECE9F4E0AA0CBB1CEA0DFB1DA5
:1046C000A0E8BFE00E94C0390E94F5340E94043582
:1046D000E6EAF3E80E94AD380E94FD34E7E2F1E03B
:1046E000A0E8BFE00E944A390E94F534E8E9FBE700
:1046F0000E94AD380E94FD34E7E2F1E0A190BB24B6
:10470000ECE9F4E0AA0CBB1CEA0DFB1DA0E8BFE03D
:104710000E94C0390E94F5340E940435E6EAF3E8AD
:104720000E94AD380E941335E7E2F1E0A0E8BFE057
:104730000E944A390E940B35E8E9FBE70E94AD3838
:104740000E941335E7E2F1E0A190BB24ECE9F4E02C
:10475000AA0CBB1CEA0DFB1DA0E8BFE00E94C039FB
:104760000E940B350E941A35E8E5F2E0ACE3B1E0B7
:104770000E94063A90913F0180913E01A6E3B1E08C
:104780008D939C93A6E3B1E08D919C91AEE9B4E04A
:104790008D939C93E6EAF3E80E94AD380E94FD34C5
:1047A000EAE2F4E80E94AD380E94FD34E8E9FBE754
:1047B0000E94AD380E94FD34EEE9F4E0A0E8BFE0CD
:1047C0000E94C0390E94F5340E940435E6EAF3E8FD
:1047D0000E94AD380E941335EAE2F4E80E94AD3839
:1047E0000E941335E8E9FBE70E94AD380E941335BB
:1047F000EEE9F4E0A0E8BFE00E94C0390E940B356A
:104800000E941A3590913D0180913C01A6E3B1E0F0
:104810008D939C93A7E2B1E08C918F5F8C93A6E37C
:10482000B1E08D919C91A0EAB4E08D939C93E6EA6F
:10483000F3E80E94AD380E94FD34ECE2F4E80E94F7
:10484000AD380E94FD34E8E9FBE70E94AD380E94D4
:10485000FD34E0EAF4E0A0E8BFE00E94C0390E9425
:10486000F5340E940435E6EAF3E80E94AD380E9470
:104870001335ECE2F4E80E94AD380E941335E8E904
:10488000FBE70E94AD380E941335E0EAF4E0A0E8AF
:10489000BFE00E94C0390E940B350E941A350C946B
:1048A0006C24EEE2F4E80E94AD380E94FD34AFEAD9
:1048B000B3E00E94A734ECE0F0E0AFEAB3E07BE7BE
:1048C0000E94243AEFEAF3E0A0E8BFE00E943A3900
:1048D0000E94F5340E9404350895E8E3F4E80E944C
:1048E000AD380E94FD34EFE2F1E0A0E8BFE00E94A5
:1048F0004A390E94F534ECE4F4E80E94AD380E9495
:10490000FD34E0E3F1E0A0E8BFE00E944A390E94F4
:10491000F5340E9404350E947136A1E1B1E00E9495
:10492000F734E2E8F3E80E94AD380E94FD340E94BB
:104930007136A8E0B1E00E94F7340E9404358091FE
:10494000570280931F0180912F018093570280911D
:1049500043038093310180913001809343030E948F
:104960001407E6E5F4E80E94AD380E94FD340E9489
:10497000043581E080933301009133010A3018F04F
:1049800011F00C94DF24E3E3F1E0A190BB24E4E414
:10499000F3E0EA0DFB1DA0E8BFE00E94BE390E94D3
:1049A000F534E8E9FBE70E94AD380E94FD34A3E34B
:1049B000B1E08C918F5F8C9310F40C94BC240E9416
:1049C0000435E0E6F4E80E94AD380E94FD340E9410
:1049D0000435ECE6F4E80E94AD380E94FD3481E035
:1049E0008093330100913301043118F011F00C94DD
:1049F0001525E8E9FBE70E94AD380E94FD34E3E3AA
:104A0000F1E0A190BB24E0E5F3E0EA0DFB1DA0E896
:104A1000BFE00E94BE390E94F534A3E3B1E08C915F
:104A20008F5F8C9310F40C94F2240E9404350E9442
:104A3000EB0780911F01809357028091570280936A
:104A40002F01809131018093430380E090E0A1E544
:104A5000B2E08D939C9370919D037D7F70939D0335
:104A6000A8E5B2E0E4E6FAE70E94AD380E94503CC7
:104A7000E8E5F2E00E94C03A0E94F53BEDE0F0E08C
:104A8000A8E5B2E00E94063AE6E0F0E0A8E5B2E070
:104A900094E07BE70E94253AE4E7F4E80E94AD3811
:104AA0000E94FD34E3E4F3E0A0E8BFE00E944A394D
:104AB0000E94F534E8E9FBE70E94AD380E94FD341E
:104AC000E8E5F2E0A0E8BFE00E94C03A0E94843529
:104AD0000E94F534E8E9FBE70E94AD380E94FD34FE
:104AE000EFE2F1E0A0E8BFE00E944A390E94F5340D
:104AF000E8E9FBE70E94AD380E94FD34EDEAF3E0FF
:104B0000A0E8BFE00E943A390E94F534E8E9FBE7EB
:104B10000E94AD380E94FD34EFEAF3E0A0E8BFE068
:104B20000E943A390E94F534E8E9FBE70E94AD386B
:104B30000E94FD34E8EEF4E0A0E8BFE00E943A39BC
:104B40000E94F5340E940435E4E7F4E80E94AD3891
:104B50000E941335E3E4F3E0A0E8BFE00E944A3985
:104B60000E940B35E8E9FBE70E94AD380E9413353F
:104B7000E8E5F2E0A0E8BFE00E94C03A0E94843578
:104B80000E940B35E8E9FBE70E94AD380E9413351F
:104B9000EFE2F1E0A0E8BFE00E944A390E940B3545
:104BA000E8E9FBE70E94AD380E941335EDEAF3E037
:104BB000A0E8BFE00E943A390E940B35E8E9FBE724
:104BC0000E94AD380E941335EFEAF3E0A0E8BFE0A1
:104BD0000E943A390E940B35E8E9FBE70E94AD38A4
:104BE0000E941335E8EEF4E0A0E8BFE00E943A39F5
:104BF0000E940B350E941A350895E2E0F1E00E9410
:104C00005237A0E2B1E00D931D932D933D93009197
:104C10002401023011F00C943326EFEDF4E0A0E80B
:104C2000BFE00E943D390E94F534E8E9FBE70E94AD
:104C3000AD380E94FD34E0E2F1E0A0E8BFE00E9460
:104C40003D390E94F534E8E9FBE70E94AD380E9447
:104C5000FD34E3EEF4E0A0E8BFE00E943D390E949D
:104C6000F5340E940435AFEDB4E04D915D916D9146
:104C70007C91A0E2B1E00D911D912D913C910E949B
:104C8000273980E014F009F081E08F93A3EEB4E0BF
:104C90004D915D916D917C91A0E2B1E00D911D91DE
:104CA0002D913C910E94273980E00CF481E09F9186
:104CB0008923882311F40C94932680E080932B01A0
:104CC00040912C0100912B01041711F40C949126B2
:104CD000EEE7F4E80E94AD380E94FD340E94713680
:104CE000A1E1B1E00E94F7340E94043580912B01CC
:104CF00080932C0181E08093A403AAEFB1E0E8E85F
:104D0000F4E80E94AD380E942538AAEFB1E00E9475
:104D1000F7340E940435AAEFB1E00E940D350E94DD
:104D20001A350C94CA268BE08093A40381E080930B
:104D30002B0140912C0100912B01041711F40C94CC
:104D4000CA26E2E9F4E80E94AD380E94FD340E94D0
:104D50007136A1E1B1E00E94F7340E9404358091E0
:104D60002B0180932C018BE08093A403AAEFB1E088
:104D7000E2EAF4E80E94AD380E942538AAEFB1E0DB
:104D80000E94F7340E940435AAEFB1E00E940D356D
:104D90000E941A35A1ECB3E00E94A734A1ECB3E065
:104DA0000D911C914CE251E00E94D434A1ECB3E08F
:104DB0000D931C93A1ECB3E00D911C91003050E0D9
:104DC000150711F00C94142700912B01013011F0FC
:104DD0000C940027AAEFB1E0E2EAF4E80E94AD38B3
:104DE0000E942538AAEFB1E00E94F7340E940435F2
:104DF000AAEFB1E00E940D350E941A350C941427D9
:104E0000AAEFB1E0E8E8F4E80E94AD380E94253846
:104E1000AAEFB1E00E94F7340E940435AAEFB1E096
:104E20000E940D350E941A350895A7E5B2E00C9155
:104E30004BE00E943D3A8C93A7E5B2E08C918F5FE6
:104E40008C93ECEAF4E80E94AD380E94FD34E7E56B
:104E5000F2E0A0E8BFE00E944A390E94F534E0EC9D
:104E6000F4E80E94AD380E94FD34E8E5F2E0A0E8E5
:104E7000BFE00E94C03A0E9484350E94F5340E942F
:104E800004350E947136A1E1B1E00E94F734E2E8F6
:104E9000F3E80E94AD380E94FD340E947136A8E00C
:104EA000B1E00E94F7340E940435A7E5B2E08C918E
:104EB000A2EBB4E08D9388278C93A3E4B3E08C91AC
:104EC000A4EBB4E08D9388278C93AAEFB1E0EAECD1
:104ED000F4E80E94AD380E942538E4EBF4E0AAEF34
:104EE000B1E00E94EE340E94C039AAEFB1E00E9406
:104EF000F7340E940435AAEFB1E00E940D350E94FC
:104F00001A35009157020B3011F00C940B28709158
:104F10009D037E7F70939D03A8E5B2E0E4E6FAE787
:104F20000E94AD380E94503CE8E5F2E00E94C03A91
:104F30000E94F53BEDE0F0E0A8E5B2E00E94063A01
:104F4000E6E0F0E0A8E5B2E094E07BE70E94253AD5
:104F5000E8E5F2E0ACE3B1E00E94063A90913F014F
:104F600080913E01A6E3B1E08D939C93A6E3B1E06E
:104F70008D919C91AEE9B4E08D939C93AAEFB1E042
:104F8000E6EDF4E80E94AD380E942538EEE9F4E041
:104F9000AAEFB1E00E94EE340E94C039AAEFB1E05E
:104FA0000E94F7340E940435AAEFB1E00E940D354B
:104FB0000E941A3590913D0180913C01A6E3B1E039
:104FC0008D939C93A7E2B1E08C918F5F8C93A6E3C5
:104FD000B1E08D919C91A0EAB4E08D939C93AAEFEF
:104FE000B1E0E2EEF4E80E94AD380E942538E0EA34
:104FF000F4E0AAEFB1E00E94EE340E94C039AAEFBB
:10500000B1E00E94F7340E940435AAEFB1E00E949B
:105010000D350E941A350E941407E6E5F4E80E9457
:10502000AD380E94FD340E94043581E08093330145
:10503000009133010A3018F011F00C943B28E3E39F
:10504000F1E0A190BB24E4E4F3E0EA0DFB1DA0E84D
:10505000BFE00E94BE390E94F534E8E9FBE70E94F8
:10506000AD380E94FD34A3E3B1E08C918F5F8C9347
:1050700010F40C9418280E940435E0E6F4E80E942D
:10508000AD380E94FD340E940435ECE6F4E80E943D
:10509000AD380E94FD3481E08093330100913301EB
:1050A000043118F011F00C947128E8E9FBE70E9434
:1050B000AD380E94FD34E3E3F1E0A190BB24E0E5CC
:1050C000F3E0EA0DFB1DA0E8BFE00E94BE390E949C
:1050D000F534A3E3B1E08C918F5F8C9310F40C94C2
:1050E0004E280E9404350E9404350E94EB07E4E735
:1050F000F4E80E94AD380E94FD34E3E4F3E0A0E858
:10510000BFE00E944A390E94F534E8E9FBE70E94BB
:10511000AD380E94FD34E8E5F2E0A0E8BFE00E946F
:10512000C03A0E9484350E94F534E8E9FBE70E940A
:10513000AD380E94FD34E7E5F2E0A0E8BFE00E9450
:105140004A390E94F534E8E9FBE70E94AD380E9435
:10515000FD34EDEAF3E0A0E8BFE00E943A390E9496
:10516000F534E8E9FBE70E94AD380E94FD34EFEA30
:10517000F3E0A0E8BFE00E943A390E94F534E8E984
:10518000FBE70E94AD380E94FD34E8EEF4E0A0E8B1
:10519000BFE00E943A390E94F5340E940435E4E7EA
:1051A000F4E80E94AD380E941335E3E4F3E0A0E890
:1051B000BFE00E944A390E940B35E8E9FBE70E94F4
:1051C000AD380E941335E8E5F2E0A0E8BFE00E94A8
:1051D000C03A0E9484350E940B35E8E9FBE70E9443
:1051E000AD380E941335E7E5F2E0A0E8BFE00E9489
:1051F0004A390E940B35E8E9FBE70E94AD380E946E
:105200001335EDEAF3E0A0E8BFE00E943A390E94CE
:105210000B35E8E9FBE70E94AD380E941335EFEA51
:10522000F3E0A0E8BFE00E943A390E940B35E8E9BC
:10523000FBE70E94AD380E941335E8EEF4E0A0E8E9
:10524000BFE00E943A390E940B350E941A3508953A
:10525000A6E2B1E08C9183FB16F00C94042B7091C4
:105260002601777F70932601EEEEF4E80E94AD38B8
:105270000E94FD340E9404350E947136A1E1B1E024
:105280000E94F734E2E8F3E80E94AD380E94FD3452
:105290000E947136A8E0B1E00E94F7340E94043504
:1052A000A3E4B3E08C91A4EBB4E08D9388278C93B6
:1052B000E6EAF3E80E94AD380E94FD34E8EFF4E836
:1052C0000E94AD380E94FD34E8E9FBE70E94AD384A
:1052D0000E94FD34E4EBF4E0A0E8BFE00E94C03996
:1052E0000E94F5340E940435E6EAF3E80E94AD38E6
:1052F0000E941335E8EFF4E80E94AD380E941335A0
:10530000E8E9FBE70E94AD380E941335E4EBF4E0D6
:10531000A0E8BFE00E94C0390E940B350E941A35F8
:105320008091570280931F018FE0809357020E9463
:105330001407E6E5F4E80E94AD380E94FD340E94AF
:10534000043581E080933301009133010A3018F075
:1053500011F00C94C729E3E3F1E0A190BB24E4E44D
:10536000F3E0EA0DFB1DA0E8BFE00E94BE390E94F9
:10537000F534E8E9FBE70E94AD380E94FD34A3E371
:10538000B1E08C918F5F8C9310F40C94A4290E944F
:105390000435E0E6F4E80E94AD380E94FD340E9436
:1053A0000435ECE6F4E80E94AD380E94FD3481E05B
:1053B0008093330100913301043118F011F00C9403
:1053C000FD29E8E9FBE70E94AD380E94FD34E3E3E4
:1053D000F1E0A190BB24E0E5F3E0EA0DFB1DA0E8BD
:1053E000BFE00E94BE390E94F534A3E3B1E08C9186
:1053F0008F5F8C9310F40C94DA290E9404350E947C
:10540000EB0780911F0180935702ADE2B1E08C91D0
:105410008F5F8C93ECEFF4E80E94AD380E94FD346E
:10542000EDE2F1E0A0E8BFE00E944A390E94F534C5
:105430000E940435ADE2B1E00C9145E00E943D3A96
:105440008C9300912D01003011F00C943C2A709146
:105450009D037F7770939D03709126017F7E7093EB
:10546000260180E090E0A1E5B2E08D939C937091DD
:105470009D037D7F70939D03A8E5B2E0E4E6FAE723
:105480000E94AD380E94503CE8E5F2E00E94C03A2C
:105490000E94F53BEDE0F0E0A8E5B2E00E94063A9C
:1054A000E6E0F0E0A8E5B2E094E07BE70E94253A70
:1054B000E4E7F4E80E94AD380E94FD34E3E4F3E051
:1054C000A0E8BFE00E944A390E94F534E8E9FBE712
:1054D0000E94AD380E94FD34E8E5F2E0A0E8BFE0AC
:1054E0000E94C03A0E9484350E94F534E8E9FBE747
:1054F0000E94AD380E94FD34EAE0F5E80E94AD3824
:105500000E94FD34E8E9FBE70E94AD380E94FD34BB
:10551000EDEAF3E0A0E8BFE00E943A390E94F534DA
:10552000E8E9FBE70E94AD380E94FD34EFEAF3E0C2
:10553000A0E8BFE00E943A390E94F534E8E9FBE7B1
:105540000E94AD380E94FD34E8EEF4E0A0E8BFE030
:105550000E943A390E94F5340E940435E4E7F4E8E9
:105560000E94AD380E941335E3E4F3E0A0E8BFE009
:105570000E944A390E940B35E8E9FBE70E94AD38EA
:105580000E941335E8E5F2E0A0E8BFE00E94C03ACF
:105590000E9484350E940B35E8E9FBE70E94AD3894
:1055A0000E941335EAE0F5E80E94AD380E941335F9
:1055B000E8E9FBE70E94AD380E941335EDEAF3E01D
:1055C000A0E8BFE00E943A390E940B35E8E9FBE70A
:1055D0000E94AD380E941335EFEAF3E0A0E8BFE087
:1055E0000E943A390E940B35E8E9FBE70E94AD388A
:1055F0000E941335E8EEF4E0A0E8BFE00E943A39DB
:105600000E940B350E941A350895A6E2B1E08C91F4
:1056100083FB16F00C94E12C70912601777F709338
:105620002601EEE0F5E80E94AD380E94FD340E94AC
:1056300004350E947136A1E1B1E00E94F734E2E83E
:10564000F3E80E94AD380E94FD340E947136A8E054
:10565000B1E00E94F7340E94043580915702809394
:105660001F018EE080935702A3E4B3E08C91A4EB7A
:10567000B4E08D9388278C93E6EAF3E80E94AD3876
:105680000E94FD34E8EFF4E80E94AD380E94FD343A
:10569000E8E9FBE70E94AD380E94FD34E4EBF4E05A
:1056A000A0E8BFE00E94C0390E94F5340E94043592
:1056B000E6EAF3E80E94AD380E941335E8EFF4E81B
:1056C0000E94AD380E941335E8E9FBE70E94AD382F
:1056D0000E941335E4EBF4E0A0E8BFE00E94C0397B
:1056E0000E940B350E941A350E941407E6E5F4E883
:1056F0000E94AD380E94FD340E94043581E0809301
:105700003301009133010A3018F011F00C94A42BEE
:10571000E3E3F1E0A190BB24E4E4F3E0EA0DFB1D38
:10572000A0E8BFE00E94BE390E94F534E8E9FBE73B
:105730000E94AD380E94FD34A3E3B1E08C918F5FED
:105740008C9310F40C94812B0E940435E0E6F4E86D
:105750000E94AD380E94FD340E940435ECE6F4E866
:105760000E94AD380E94FD3481E0809333010091A6
:105770003301043118F011F00C94DA2BE8E9FBE75F
:105780000E94AD380E94FD34E3E3F1E0A190BB2418
:10579000E0E5F3E0EA0DFB1DA0E8BFE00E94BE39A2
:1057A0000E94F534A3E3B1E08C918F5F8C9310F4E9
:1057B0000C94B72B0E9404350E94EB0780911F01C7
:1057C00080935702ADE2B1E08C918F5F8C93ECEF48
:1057D000F4E80E94AD380E94FD34EDE2F1E0A0E86B
:1057E000BFE00E944A390E94F5340E940435ADE2C0
:1057F000B1E00C9145E00E943D3A8C9300912D015F
:10580000003011F00C94192C70919D037F7B7093E4
:105810009D03709126017F7E7093260180E090E0C9
:10582000A1E5B2E08D939C9370919D037D7F709371
:105830009D03A8E5B2E0E4E6FAE70E94AD380E94D5
:10584000503CE8E5F2E00E94C03A0E94F53BEDE0F2
:10585000F0E0A8E5B2E00E94063AE6E0F0E0A8E554
:10586000B2E094E07BE70E94253AE4E7F4E80E9486
:10587000AD380E94FD34E3E4F3E0A0E8BFE00E940D
:105880004A390E94F534E8E9FBE70E94AD380E94EE
:10589000FD34E8E5F2E0A0E8BFE00E94C03A0E94D3
:1058A00084350E94F534E8E9FBE70E94AD380E9498
:1058B000FD34E6E1F5E80E94AD380E94FD34E8E9E8
:1058C000FBE70E94AD380E94FD34EDEAF3E0A0E86A
:1058D000BFE00E943A390E94F534E8E9FBE70E94F4
:1058E000AD380E94FD34EFEAF3E0A0E8BFE00E948B
:1058F0003A390E94F534E8E9FBE70E94AD380E948E
:10590000FD34E8EEF4E0A0E8BFE00E943A390E94DE
:10591000F5340E940435E4E7F4E80E94AD380E94B3
:105920001335E3E4F3E0A0E8BFE00E944A390E94A7
:105930000B35E8E9FBE70E94AD380E941335E8E536
:10594000F2E0A0E8BFE00E94C03A0E9484350E94C5
:105950000B35E8E9FBE70E94AD380E941335E6E11C
:10596000F5E80E94AD380E941335E8E9FBE70E9494
:10597000AD380E941335EDEAF3E0A0E8BFE00E94E5
:105980003A390E940B35E8E9FBE70E94AD380E94E6
:105990001335EFEAF3E0A0E8BFE00E943A390E9435
:1059A0000B35E8E9FBE70E94AD380E941335E8EEBD
:1059B000F4E0A0E8BFE00E943A390E940B350E9453
:1059C0001A350895A6E2B1E08C9183FB16F00C9491
:1059D000D52E70912601777F70932601EAE1F5E8D4
:1059E0000E94AD380E94FD340E9404350E94713639
:1059F000A1E1B1E00E94F734E2E8F3E80E94AD389B
:105A00000E94FD340E947136A8E0B1E00E94F73494
:105A10000E940435A3E4B3E08C91A4EBB4E08D9331
:105A200088278C93E6EAF3E80E94AD380E94FD34A3
:105A3000E8EFF4E80E94AD380E94FD34E8E9FBE7A6
:105A40000E94AD380E94FD34E4EBF4E0A0E8BFE032
:105A50000E94C0390E94F5340E940435E6EAF3E85A
:105A60000E94AD380E941335E8EFF4E80E94AD388B
:105A70000E941335E8E9FBE70E94AD380E94133518
:105A8000E4EBF4E0A0E8BFE00E94C0390E940B35CF
:105A90000E941A358091570280931F0100912B01BB
:105AA000003011F00C94612D8DE080935702A9EE27
:105AB000B1E0E4E2F5E80E94AD380E9425380C948C
:105AC0006C2D8CE080935702A9EEB1E0E8EFF4E88A
:105AD0000E94AD380E9425380E941407E6E5F4E8DC
