:100000000C94460018950000189500001895000003
:10001000189500000C94CB0318950000189500006B
:10002000189500001895000018950000189500001C
:1000300018950000189500000C94A902189500006E
:100040000C94D701189500000C94AE001895000090
:1000500018950000189500001895000018950000EC
:1000600018950000189500001895000018950000DC
:1000700018950000189500000C9442011895000096
:100080001895000018950000189500008FEF8DBF9F
:10009000C0E8E8E94E2E80E18EBFD0E1FFE05F2EA0
:1000A000A89584B7082E807E84BF88E1992781BDFA
:1000B00091BDEEEFFFE0A0E0B1E088278D9331978E
:1000C000E9F787E689B980E08093900088E18AB9F2
:1000D00080E08093980087E68093990088E1809380
:1000E0009A006624A59AA69AA79A709164007460F3
:1000F00070936400BC9ABD9ABE9ABF9ABB9A8C98C2
:100100008D988E988F981498949A959A969A979A13
:1001100087E083BF77B7716077BF87E083BF80E0F8
:100120008FBD84E08EBD77B7746077BF84E08EBDED
:10013000579A70919A00706870939A0079B77061BD
:1001400079BF8AB78C7F81608ABFA098A198A89A4E
:10015000A99AA49AAC9878940C9462330F921F9247
:100160002F923F924F925F927F92AF92BF920F93E6
:100170001F932F933F934F935F936F937F938F932F
:100180009F93AF93BF93CF93DF93EF93FF938FB77B
:100190008F938BB78F9388278BBFAFE6B8E08CB176
:1001A0008C9384E2482F00916F08041711F00C948F
:1001B000E4007091A80372607093A803AEECB7E0FE
:1001C00088278C930C9424010D3011F00C940C01B1
:1001D000A8EAB3E08C9181FB16F00C940A017091AF
:1001E000A8037D7F7093A80380E0AEECB7E00E9487
:1001F00046358D9388278C93EEECF7E0A0E7B8E0C6
:100200000E94593A7091A80371607093A80377B760
:10021000716077BF0C9424010F3118F011F00C9429
:1002200013010C942401A8EAB3E08C9181FB16F031
:100230000C942401AFE6B8E08C91AEECB7E00E94DC
:1002400046358D9388278C938F918BBF8F918FBF6D
:10025000FF91EF91DF91CF91BF91AF919F918F91DE
:100260007F916F915F914F913F912F911F910F91CE
:10027000BF90AF907F905F904F903F902F901F90D6
:100280000F9018950F921F922F923F924F925F926C
:100290007F92AF92BF920F931F932F933F934F93F1
:1002A0005F936F937F938F939F93AF93BF93CF93FE
:1002B000DF93EF93FF938FB78F938BB78F9388273D
:1002C0008BBFA3E5B9E080919C008C9384E2482F1A
:1002D00000915309041711F00C94790170911109E0
:1002E000706870931109A2E1B9E088278C930C948F
:1002F000B9010D3011F00C94A101A1E1B9E08C918C
:1003000087FB16F00C949F01709111097F77709311
:10031000110980E0A2E1B9E00E9446358D9388275B
:100320008C93E2E1F9E0A4E5B9E00E94593A7091BA
:10033000110970647093110977B7716077BF0C94DD
:10034000B9010F3118F011F00C94A8010C94B90107
:10035000A1E1B9E08C9187FB16F00C94B901A3E5FB
:10036000B9E08C91A2E1B9E00E9446358D938827CF
:100370008C938F918BBF8F918FBFFF91EF91DF9106
:10038000CF91BF91AF919F918F917F916F915F912D
:100390004F913F912F911F910F91BF90AF907F9000
:1003A0005F904F903F902F901F900F9018950F9255
:1003B0001F922F923F924F925F927F92AF92BF9285
:1003C0000F931F932F933F934F935F936F937F935D
:1003D0008F939F93AF93BF93CF93DF93EF93FF934D
:1003E0008FB78F938BB78F9388278BBF74E672BFBD
:1003F000AEE9B3E08C918F5F8C93AEE9B3E00C91E2
:1004000048E00E94953A8C9300919E03003011F0D1
:100410000C943D02AFE9B3E00C9140E20E94953AA2
:100420008C93EAE7F6E60E940539A4EAB3E08C91E2
:100430009927A0EAB3E00E94BC3880919F03A0EA0C
:10044000B3E00E94F0380E94E6380C9008226894CD
:1004500009F4E894ADE9B3E08C9182F98C93ADE9AD
:10046000B3E08C9182FBA5E3B0E08C9185F98C938D
:10047000AFE9B3E08C918F5F8C93A8EAB3E08C91E5
:1004800087FB16F00C945F02A9EAB3E00E94FF34E8
:10049000ABEAB3E04D915C91A9EAB3E00D911C91F8
:1004A0000417150711F00C945F027091A803706493
:1004B0007093A8037091A8037F777093A803A8EAAC
:1004C000B3E08C9185FB16F00C948B02A1EBB3E0AA
:1004D0000E94FF34A1EBB3E00D911C9144EF51E079
:1004E0000E942C35A1EBB3E00D931C93A1EBB3E07C
:1004F0000D911C91003050E0150711F00C948B0207
:1005000080E080936A0380E080939B037091A8034E
:100510007F7D7093A8038F918BBF8F918FBFFF91C9
:10052000EF91DF91CF91BF91AF919F918F917F918B
:100530006F915F914F913F912F911F910F91BF90BC
:10054000AF907F905F904F903F902F901F900F90B3
:1005500018950F921F922F923F924F925F927F9227
:10056000AF92BF920F931F932F933F934F935F933D
:100570006F937F938F939F93AF93BF93CF93DF93AB
:10058000EF93FF938FB78F938BB78F9388278BBF92
:100590008CED9BE09DBD8CBD0E94C936E8E0F1E08A
:1005A000FA93EA93E1E1F1E00E943438ADEBB3E075
:1005B0000D931D932D933D93ADEBB3E00E94F23468
:1005C000EDEBF3E0A1E1B1E00E9424380E94DC36BB
:1005D000EDEBF3E0A8E0B1E00E942C380E94D436A5
:1005E0007091A80370617093A803709126017062E6
:1005F00070932601ADEBB3E00D911D912D913C91CF
:10060000AFE4B2E04D915C91662777270E947F3579
:10061000A5EBB3E00D931D932D933D9340E050E087
:1006200060E070E0A5EBB3E00D911D912D913C9140
:100630000E947F3911F00C94220370919D03716028
:1006400070939D03ADEBB3E00D911D912D913C9105
:1006500044E853E060E070E00E947A39A5EBB3E033
:100660000D931D932D933D93A5EBB3E00D911D913B
:100670002D913C91A4EAB5E04D915D916D917C91F5
:100680000E947F35A5EBB3E00D931D932D933D9311
:1006900040E050E060E070E0A5EBB3E00D911D910B
:1006A0002D913C910E947F3911F00C945C03709164
:1006B000A80374607093A803ADE9B3E08C9180FB4C
:1006C00016F00C948B03ADEBB3E00D911D912D91C1
:1006D0003C91ADE4B2E04D915C91662777270E9492
:1006E0007F35A5EBB3E00D931D932D933D9340E033
:1006F00050E060E070E0A5EBB3E00D911D912D910D
:100700003C910E947F3911F00C948B0370919D03F2
:10071000726070939D03A6E2B1E08C9184FB16F0A9
:100720000C94A903AEE2B1E08C918F5F8C93AEE2A2
:10073000B1E00C914AE00E94953A8C9300912E0111
:10074000003011F00C94A903709126017860709329
:1007500026018F918BBF8F918FBFFF91EF91DF911A
:10076000CF91BF91AF919F918F917F916F915F9149
:100770004F913F912F911F910F91BF90AF907F901C
:100780005F904F903F902F901F900F901895089575
:100790000895089508950F921F922F923F924F92BD
:1007A0005F927F92AF92BF920F931F932F933F93CD
:1007B0004F935F936F937F938F939F93AF93BF9369
:1007C000CF93DF93EF93FF938FB78F938BB78F9375
:1007D00088278BBFABE9B3E08C918F5F8C930C9B28
:1007E0000C94F503AF9A0C94F603AF980C9B0C9401
:1007F0002F04A9E6B3E080B38C9394E0A9E6B3E0BC
:100800000E949438AAE6B3E08C918F5F8C9380911C
:100810006903AAE6B3E0AD90BB24AAE6B3E0AA0D53
:10082000BB1D8C93AAE6B3E00C914EE10E94953A71
:100830008C9300916A03013011F00C9424047091A0
:10084000A80370627093A80300916A03003011F04E
:100850000C942F04709126017160709326018F9182
:100860008BBF8F918FBFFF91EF91DF91CF91BF91A0
:10087000AF919F918F917F916F915F914F913F9138
:100880002F911F910F91BF90AF907F905F904F90ED
:100890003F902F901F900F901895AD987091650024
:1008A0007B7F70936500C39A81E080933201E8E119
:1008B000FBE70E9405390E9455350E945C35A0E88F
:1008C000BFE0E8E2FBE70E9405390E947D380E9404
:1008D0004D350E945C35A0E8BFE0ECE3FBE70E94E9
:1008E00005390E947D380E944D350E945C35A0E894
:1008F000BFE0E4E4FBE70E9405390E947D380E94D6
:100900004D350E945C3581E08093A40381E08093A3
:100910004303E0E0F0E0ADE4B2E00E948D3AE4E5AC
:10092000FBE70E9405390E945535EDE4F2E0A0E8AE
:10093000BFE00E9492390E944D350E945C35E2E092
:10094000F0E0A3E5B2E00E948D3AEEE7FBE70E94FB
:1009500005390E945535E3E5F2E0A0E8BFE00E94CA
:1009600092390E944D350E945C35E4E0F0E0A5E547
:10097000B2E00E948D3AE6EAFBE70E9405390E9448
:100980005535E5E5F2E0A0E8BFE00E9492390E940B
:100990004D350E945C35A8E5B2E0E6E0F0E094E079
:1009A0000E948E3AE4EDFBE70E9405390E9455351E
:1009B000E8E5F2E0A0E8BFE00E94183B0E94DC35C9
:1009C0000E944D350E945C3580E08093030480E0F6
:1009D0008093040480E08093050480E08093060403
:1009E00080E08093070481E080931A0100911A014E
:1009F000003218F011F00C94210580E090E0AAE19B
:100A0000B1E0AD90BB24ACE0B4E0AA0CBB1CAA0DD5
:100A1000BB1D8D939C9380E090E0AAE1B1E0AD9086
:100A2000BB24ACE9B4E0AA0CBB1CAA0DBB1D8D9382
:100A30009C93AAE1B1E08C918F5F8C9310F40C949D
:100A4000F604E0E2F0E0AEEDB4E00E948B3AE0EFB5
:100A5000FBE70E9405390E945535EEEDF4E0A0E871
:100A6000BFE00E94A2390E944D350E945C35A3E58B
:100A7000B2E08D919C91AFE4B2E08D939C9380E0C5
:100A800080932A01EAE0F0E0ADEAB3E00E948D3AFB
:100A9000ECEFFBE70E9405390E945535EDEAF3E0E3
:100AA000A0E8BFE00E9492390E944D350E945C355B
:100AB000ECE0F0E0AFEAB3E00E948D3AE8E0FCE75A
:100AC0000E9405390E945535EFEAF3E0A0E8BFE047
:100AD0000E9492390E944D350E945C35E4E1FCE7AA
:100AE0000E9405390E945535EBE2F1E0A0E8BFE035
:100AF0000E94A2390E944D350E945C35EEE0F0E084
:100B0000A3EBB3E00E948D3AEEE1FCE70E940539C9
:100B10000E945535E3EBF3E0A0E8BFE00E94923974
:100B20000E944D350E945C35A3EBB3E08D919C9102
:100B3000A6EBB4E08D939C93E0E1F0E0A9EBB3E089
:100B400094E00E948E3AE9EBF3E0A0E8BFE00E9457
:100B500024380E944D350E945C35E9EBF3E0A0E8B3
:100B6000BFE00E942C380E944D350E945C35E9EBB5
:100B7000F3E0A1E1B1E00E9424380E94DC36E9EB09
:100B8000F3E0A8E0B1E00E942C380E94D436EEE2F7
:100B9000FCE70E9405390E9455350E945C350E9491
:100BA000C936A8E0B1E00E944F350E945C350E9432
:100BB000C936A1E1B1E00E944F350E945C358AE759
:100BC00093E0A1E0B4E08D939C93E1E2F0E0AFED1F
:100BD000B4E094E00E948E3AE5E2F0E0A3EEB4E0E7
:100BE00094E00E948E3AEEE3FCE70E9405390E94F1
:100BF0005535EFEDF4E0A0E8BFE00E9495390E9482
:100C00004D35E8E4FCE70E9405390E945535EFEDCB
:100C1000F4E0AAEFB1E00E942438AAEFB1E00E940C
:100C20004F350E945C35EAE4FCE70E9405390E94DA
:100C30005535E3EEF4E0A0E8BFE00E9495390E944C
:100C40004D35E8E4FCE70E9405390E945535E3EE96
:100C5000F4E0AAEFB1E00E942438AAEFB1E00E94CC
:100C60004F350E945C3583E680932C01AAEEB4E0F8
:100C70008D919C91A8EEB4E08D939C93A8EEB4E086
:100C80000E94FF34E4E5FCE70E9405390E945535D7
:100C9000E8EEF4E0A0E8BFE00E9492390E944D35F2
:100CA0000E945C35E9E2F0E0A4EAB5E094E00E943D
:100CB0008E3AEEE5FCE70E9405390E945535E4EADC
:100CC000F5E0A0E8BFE00E9495390E944D350E94F2
:100CD0005C35EDE2F0E0AAEAB5E00E948D3AE8E684
:100CE000FCE70E9405390E945535EAEAF5E0A0E8E4
:100CF000BFE00E9492390E944D350E945C350895F4
:100D0000E2E7FCE70E9405390E9455350E945C35F8
:100D1000EFE2F0E0ACEAB5E00E948B3A80E080932D
:100D20001B0188E08093A403A8EAB3E08C9180FBC8
:100D300016F00C94B4067091A8037E7F7093A803FC
:100D4000ECE8FCE70E9405390E945535A0E7B8E0C1
:100D50000E944F350E945C350E941D0BEFE2F0E0CF
:100D6000ACEAB5E00E948B3AA6E2B1E08C9185FB3B
:100D700016F00C94DF06709126017F7D709326019A
:100D8000AAE1B1E08C918F5F8C93ABE1B1E08C91E3
:100D90008F5F8C93AAE1B1E00C914AE00E94953AF2
:100DA0008C9300911A01003011F00C94DF06E2E9F7
:100DB000FCE70E9405390E9455350E945C35009180
:100DC000AC05013011F00C949406E4EBFCE70E94B2
:100DD00005390E9455350E945C3581E08093A4035B
:100DE0000895A881B9818D919C91ABEAB3E08D9370
:100DF0009C9380E090E0A9EAB3E08D939C9370917E
:100E0000A8037F7B7093A8037091A8037068709308
:100E1000A803A8EAB3E08C9186FB16F40C941307A0
:100E2000A8950C940907089584E28093450385E50D
:100E300080934603A7E5B2E08C9180FBA7E4B3E082
:100E40008C9180F98C93A7E5B2E08C9181FBA7E4AB
:100E5000B3E08C9181F98C93A7E5B2E08C9182FB91
:100E6000A7E4B3E08C9182F98C93A7E5B2E08C9172
:100E700083FBA7E4B3E08C9183F98C93A3E4B3E004
:100E80008C9180FBA7E4B3E08C9184F98C93A3E46C
:100E9000B3E08C9181FBA7E4B3E08C9185F98C934E
:100EA000A3E4B3E08C9182FBA7E4B3E08C9186F9D4
:100EB0008C9300912B01003011F00C946607A7E48D
:100EC000B3E08C918F778C930C946B07A7E4B3E01D
:100ED0008C9180688C938091E70480934803E8E5C7
:100EE000F2E0ACE3B1E00E945E3A80913C01809375
:100EF000490380913D0180934A0380913E01809394
:100F00004B0380913F0180934C0388E090E0A5E47F
:100F1000B3E00E94CF3AA6E3B1E00D931C93A6E3A1
:100F2000B1E011968C91ADE4B3E08C93A6E3B1E00F
:100F30008C91AEE4B3E08C9381E080931D0180E05E
:100F400080931A0100911A01093018F011F00C94E5
:100F5000EA0700911A0141E0040FABE1B1E00C9304
:100F6000ABE1B1E0AD90BB24A4E4B3E0AA0DBB1D9E
:100F70008C9180931C0100911C014FE00423ADE192
:100F8000B1E0AD90BB24A0E5B3E0AA0DBB1D0C936E
:100F9000ADE1B1E08C918F5F8C9394E0ACE1B1E076
:100FA0000E94943880911C01ADE1B1E0AD90BB246A
:100FB000A0E5B3E0AA0DBB1D8C93ADE1B1E08C912F
:100FC0008F5F8C93AAE1B1E08C918F5F8C9310F4CA
:100FD0000C94A20708957091650074607093650089
:100FE00084E690E0D2018D939C9382E00E944A387F
:100FF0000E94F106229682E00E94463881E08093AA
:10100000330100913301043118F011F00C946C0895
:10101000A3E3B1E0AD90BB24A0E5B3E0AA0DBB1DF6
:101020008C9180FBA8E3B0E08C9184F98C93A3E3CE
:10103000B1E0AD90BB24A0E5B3E0AA0DBB1D8C913F
:1010400081FBA8E3B0E08C9185F98C93A3E3B1E038
:10105000AD90BB24A0E5B3E0AA0DBB1D8C9182FB33
:10106000A8E3B0E08C9186F98C93A3E3B1E0AD9056
:10107000BB24A0E5B3E0AA0DBB1D8C9183FBA8E3C4
:10108000B0E08C9187F98C93AE9AC39888E090E099
:10109000D2018D939C9382E00E944A380E94F1060F
:1010A000229682E00E944638AE98C39A84E090E08F
:1010B000D2018D939C9382E00E944A380E94F106EF
:1010C000229682E00E944638A3E3B1E08C918F5FC4
:1010D0008C9310F40C940108709165007B7F7093E1
:1010E000650008950C9B0C94E308A9E6B3E080B377
:1010F0008C9394E0A9E6B3E00E949438E8ECFCE716
:101100000E9405390E945535E9E6F3E0A0E8BFE00A
:101110000E94163A0E944D350E945C35AAE6B3E063
:101120008C918F5F8C9380916903AAE6B3E0AD90B8
:10113000BB24AAE6B3E0AA0DBB1D8C93AAE6B3E0DC
:101140000C914CE00E94953A8C9300916A03003018
:1011500011F00C94E308ECECFCE70E9405390E94C6
:1011600055350E945C3581E0809333010091330155
:101170000C3018F011F00C94E308E3E3F1E0A0E880
:10118000BFE00E94A2390E944D35E8E4FCE70E94CE
:1011900005390E945535E3E3F1E0A190BB24EAE66E
:1011A000F3E0EA0DFB1DA0E8BFE00E94163A0E94A2
:1011B0004D350E945C35A3E3B1E08C918F5F8C9339
:1011C00010F40C94B608089580E080939C03A3E388
:1011D000B0E08C9180FBACE9B3E08C9180F98C930A
:1011E000A3E3B0E08C9181FBACE9B3E08C9181F991
:1011F0008C93ACE9B3E00C9100FB002700F9442785
:10120000ADE9B3E08C9184FB40F9041711F40C9420
:101210006009E0EDFCE70E9405390E945535ACE914
:10122000B3E08C9180FBA0E8BFE00E94F6388D937C
:1012300088278C930E944D350E945C3584E690E0AF
:10124000D2018D939C9382E00E944A380E94F1065D
:10125000229682E00E9446380027A3E3B0E08C91FA
:1012600080FB00F9ACE9B3E08C9180FB442740F9A6
:10127000041711F00C944F09ACE9B3E08C9180FB9A
:10128000ADE9B3E08C9184F98C93E4EDFCE70E9426
:1012900005390E9455350E945C350C946009ECEDCF
:1012A000FCE70E9405390E9455350E945C35A3E396
:1012B000B0E08C9180FBACE9B3E08C9180F98C9329
:1012C000ACE9B3E00C9101FB002700F94427ADE93C
:1012D000B3E08C9183FB40F9041711F40C94C70917
:1012E000E6EEFCE70E9405390E945535ACE9B3E013
:1012F0008C9181FBA0E8BFE00E94F6388D9388278F
:101300008C930E944D350E945C3584E690E0D201BA
:101310008D939C9382E00E944A380E94F1062296A7
:1013200082E00E9446380027A3E3B0E08C9181FB65
:1013300000F9ACE9B3E08C9181FB442740F9041734
:1013400011F00C94B609ACE9B3E08C9181FBADE9E6
:10135000B3E08C9183F98C93EAEEFCE70E940539A7
:101360000E9455350E945C350C94C709E2EFFCE7FA
:101370000E9405390E9455350E945C35A3E3B0E018
:101380008C9181FBACE9B3E08C9181F98C93ACE951
:10139000B3E08C918C9391E089278C93ACE9B3E016
:1013A0008C918C9391E089278C93009143030130B9
:1013B00011F00C94780A00919C03023011F00C9407
:1013C000220AECEFFCE70E9405390E9455350E9485
:1013D0005C3582E08093430382E08093A403A5E51B
:1013E000B2E08D919C91AFE4B2E08D939C937091AB
:1013F0009D03706470939D0370919D037F7D709336
:101400009D0370919D037F7770939D0370912B01D5
:101410007E7F70932B01709126017061709326017D
:101420007091260178607093260180E080932D01F1
:1014300070919D037E7F70939D0370919D037D7FCE
:1014400070939D0300919C03003081E009F080E0DF
:101450008F9300919C03013081E009F080E09F911F
:10146000892B882311F40C94760AEEE0FDE70E94A4
:1014700005390E9455350E945C3583E08093430313
:1014800083E08093A40370919D03706870939D0323
:1014900070919D037F7D70939D0370919D037F7B71
:1014A00070939D0380E080932D0170919D037E7F5A
:1014B00070939D0370919D037D7F70939D03A5E5BF
:1014C000B2E08D919C91AFE4B2E08D939C937091CA
:1014D0002B017E7F70932B017091260170617093B8
:1014E0002601709126017860709326010C941C0BE4
:1014F000023011F00C94CB0A00919C03033011F0E0
:101500000C94C90AEAE2FDE70E9405390E945535AC
:101510000E945C3581E080934303A3E5B2E08D91A6
:101520009C91AFE4B2E08D939C9370919D037062A7
:1015300070939D0370919D037F7770939D037091CD
:101540009D037F7B70939D0380E080932D017091BC
:101550009D037E7F70939D0370919D037D7F7093AB
:101560009D0300912B01013011F00C94BC0A8BE01B
:101570008093A4030C94BF0A81E08093A40370912C
:101580002601706170932601709126017860709336
:1015900026010C941C0B033011F00C941C0B0091D1
:1015A0009C03033011F00C941C0BEEE3FDE70E944A
:1015B00005390E9455350E945C3581E080934303D4
:1015C000A3E5B2E08D919C91AFE4B2E08D939C9342
:1015D00070919D03706270939D0370919D037F775E
:1015E00070939D0370919D037F7B70939D0380E0BA
:1015F00080932D0170919D037E7F70939D03709168
:101600009D037D7F70939D0300912B01013011F0AC
:101610000C940F0B8BE08093A4030C94120B81E0CD
:101620008093A403709126017061709326017091DC
:1016300026017860709326010895A0E7B8E00E9423
:101640004F350E945C35E0E7F8E09CE200E130E2D3
:10165000AEEAB5E00E94E33AADEAB5E02C93AEEA1B
:10166000B5E00E94A53A082F063011F00C945517EA
:10167000EEEAF5E0A0E4B1E00E94593AE0E4F1E0DE
:10168000A0E4B1E00E94DA388FEF8093E801A0E493
:10169000B1E0E8E5FDE70E9405390E94AB3A11F0A0
:1016A0000C94930B80E08093E801A7E4B1E0E0E6BE
:1016B000FDE70E9405390E947D38AAEFB1E0E8E21B
:1016C000FBE70E9405390E947D38EAEFF1E0A7E4CC
:1016D000B1E00E9446350E94593AA7E4B1E00E9469
:1016E0004635E4E7FDE70E9405390E947D38AAEF00
:1016F000B1E0E4E4FBE70E9405390E947D38EAEF9F
:10170000F1E0A7E4B1E00E9446350E94593AA7E40F
:10171000B1E00E944635E2E8FDE70E9405390E94EB
:101720007D380C945317E4E8FDE70E9405390E94C8
:10173000AB3A11F00C94A80B80E08093E8010E9472
:10174000A118709126017260709326010C945317B2
:10175000ECE8FDE70E9405390E94AB3A11F00C94C9
:10176000DF0B0091AD05023011F00C94DA0BAFEBFA
:10177000B5E00E94E739ACEAB5E00C93EFE2F0E0A7
:10178000ACEAB5E07BE70E947A3A80E08093E8011A
:10179000A7E4B1E0E4E9FDE70E9405390E947D3845
:1017A000ECEAF5E0A7E4B1E00E9446350E94A239D8
:1017B0000C94DD0B84E08093E8010C945317E8EA65
:1017C000FDE70E9405390E94AB3A11F00C941E0C03
:1017D0000091AD05023011F00C94190CAFEBB5E09F
:1017E0000E94E739AAE1B1E00C9300911A0101319E
:1017F00010F00C94140C80E08093E801A7E4B1E0B1
:10180000E0EBFDE70E9405390E947D38EAE1F1E056
:10181000A7E4B1E00E9446350E94A23980911A01E6
:101820008093A4030C94170C85E08093E8010C943A
:101830001C0C84E08093E8010C945317E8ECFDE75E
:101840000E9405390E94AB3A11F00C94700C009183
:10185000AD05023011F00C946B0C80E08093E80130
:10186000AFEBB5E00E94E739A6E3B1E00D931C931E
:10187000A6E3B1E08D919C91A3E5B2E08D939C939A
:10188000E2E0F0E0A6E3B1E07BE70E947C3AA3E56A
:10189000B2E08D919C91AFE4B2E08D939C93A7E46C
:1018A000B1E0E0EDFDE70E9405390E947D38E3E5F7
:1018B000F2E0A7E4B1E00E9446350E949239A7E425
:1018C000B1E00E944635E0E0FEE70E9405390E9443
:1018D0007D380C946E0C84E08093E8010C945317CF
:1018E000E4E0FEE70E9405390E94AB3A11F00C9447
:1018F000C20C0091AD05023011F00C94BD0C80E0DB
:101900008093E801AFEBB5E00E94E739A6E3B1E0D0
:101910000D931C93A6E3B1E08D919C91A5E5B2E0F7
:101920008D939C93E4E0F0E0A6E3B1E07BE70E94B6
:101930007C3AA5E5B2E08D919C91AFE4B2E08D9345
:101940009C93A7E4B1E0ECE0FEE70E9405390E9419
:101950007D38E5E5F2E0A7E4B1E00E9446350E945B
:101960009239A7E4B1E00E944635E0E0FEE70E942C
:1019700005390E947D380C94C00C84E08093E80106
:101980000C945317E0E4FEE70E9405390E94AB3A3D
:1019900011F00C940C0D0091AD05023011F00C9477
:1019A000070D80E08093E801AFEBB5E00E94E739D6
:1019B000A6E3B1E00D931C93A6E3B1E08D919C9159
:1019C000ADE4B2E08D939C93E0E0F0E0A6E3B1E0FB
:1019D0007BE70E947C3AA7E4B1E0E8E4FEE70E94DE
:1019E00005390E947D38EDE4F2E0A7E4B1E00E9401
:1019F00046350E949239A7E4B1E00E944635E0E006
:101A0000FEE70E9405390E947D380C940A0D84E09F
:101A10008093E8010C945317E6E7FEE70E9405392E
:101A20000E94AB3A11F00C944F0D0091AD050230BD
:101A300011F00C944A0D80E08093E801AFEBB5E023
:101A40000E94B53CEDE0F0E0ACE3B1E00E945E3A0C
:101A5000ECE3F1E0A8E5B2E00E945E3AE6E0F0E0F7
:101A6000ACE3B1E094E07BE70E947D3AA7E4B1E00B
:101A7000EEE7FEE70E9405390E947D38E8E5F2E0D6
:101A8000A7E4B1E00E9446350E94183B0E94DC3575
:101A90000C944D0D84E08093E8010C945317E8E911
:101AA000FEE70E9405390E94AB3A11F00C948F0DAD
:101AB0000091AD05023011F00C948A0D80E0809306
:101AC000E801AFEBB5E00E94E739A6E3B1E00D9382
:101AD0001C93A6E3B1E08D919C91A3EBB3E08D93B1
:101AE0009C93EEE0F0E0A6E3B1E07BE70E947C3A55
:101AF000A7E4B1E0E0EAFEE70E9405390E947D38E4
:101B0000E3EBF3E0A7E4B1E00E9446350E9492398E
:101B10000C948D0D84E08093E8010C945317E6EC4F
:101B2000FEE70E9405390E94AB3A11F00C94B70D04
:101B300080E08093E801A7E4B1E0EEECFEE70E94CC
:101B400005390E947D38E3E5F2E0A7E4B1E00E94A8
:101B500046350E949239A7E4B1E00E944635E0E0A4
:101B6000FEE70E9405390E947D380C945317E0EF80
:101B7000FEE70E9405390E94AB3A11F00C94DF0D8C
:101B800080E08093E801A7E4B1E0E8EFFEE70E947F
:101B900005390E947D38E5E5F2E0A7E4B1E00E9456
:101BA00046350E949239A7E4B1E00E944635E0E054
:101BB000FEE70E9405390E947D380C945317E0E23D
:101BC000FFE70E9405390E94AB3A11F00C94070E12
:101BD00080E08093E801A7E4B1E0E8E2FFE70E943B
:101BE00005390E947D38EDE4F2E0A7E4B1E00E94FF
:101BF00046350E949239A7E4B1E00E944635E0E004
:101C0000FEE70E9405390E947D380C945317E8E4E2
:101C1000FFE70E9405390E94AB3A11F00C94270EA1
:101C200080E08093E801A7E4B1E0E0E5FFE70E94EF
:101C300005390E947D38E8E5F2E0A7E4B1E00E94B2
:101C400046350E94183B0E94DC350C945317E0E6A1
:101C5000FFE70E9405390E94AB3A11F00C94450E43
:101C600080E08093E801A7E4B1E0E0E5FFE70E94AF
:101C700005390E947D38E3EBF3E0A7E4B1E00E9470
:101C800046350E9492390C945317E8E6FFE70E940C
:101C900005390E94AB3A11F00C94960E0091AD05F7
:101CA000023011F00C94910E80E08093E801AFEBCC
:101CB000B5E00E94E739A6E3B1E00D931C93A7E4D9
:101CC000B1E0E0E7FFE70E9405390E947D38E6E3D6
:101CD000F1E0A7E4B1E00E9446350E949239EEE7B8
:101CE000FFE70E9405390E9455350E945C35A6E346
:101CF000B1E08D919C91D2018D939C9382E00E94E2
:101D00004A380E94F106229682E00E944638E2E8B4
:101D1000FFE70E9405390E9455350E945C350C94FE
:101D2000940E84E08093E8010C945317E6E8FFE7F3
:101D30000E9405390E94AB3A11F00C94B10E80E07C
:101D40008093E80170919D03716070939D03A7E4F7
:101D5000B1E0EEE8FFE70E9405390E947D380C945F
:101D60005317E2EAFFE70E9405390E94AB3A11F0EF
:101D70000C94FE0E0091AD05023011F00C94F90E9A
:101D8000AFEBB5E00E94E739AAE1B1E00C93009116
:101D90001A01023010F00C94F40E80E08093E801F8
:101DA00000911A01003011F00C94DD0E70912601A3
:101DB0007F77709326010C94E20E70912601706873
:101DC00070932601A7E4B1E0EAEAFFE70E94053933
:101DD0000E947D38EAE1F1E0A7E4B1E00E944635D7
:101DE0000E94A2390C94F70E85E08093E8010C94D0
:101DF000FC0E84E08093E8010C945317EEEBFFE7B0
:101E00000E9405390E94AB3A11F00C94390F0091F1
:101E1000AD05023011F00C94340FAFEBB5E00E9429
:101E2000E739AAE1B1E00C9380E08093E80180916A
:101E30001A018093DE04E0E2F0E0AEEDB4E07BE76F
:101E40000E947A3AA7E4B1E0E6ECFFE70E94053988
:101E50000E947D38EEEDF4E0A7E4B1E00E94463543
:101E60000E94A2390C94370F84E08093E8010C940F
:101E70005317ECEEFFE70E9405390E94AB3A11F0D0
:101E80000C94570F80E08093E801A7E4B1E0E4EF01
:101E9000FFE70E9405390E947D38EEEDF4E0A7E4EB
:101EA000B1E00E9446350E94A2390C945317EEE02F
:101EB000F0E80E9405390E94AB3A11F00C94B60F7D
:101EC00080E08093E8010091AD050F3111F00C9492
:101ED000B10F80E08093E801A7E4B1E0E6E1F0E82B
:101EE0000E9405390E947D3880E080931A0182E0CB
:101EF00080933301009133010F3118F011F00C94ED
:101F0000AA0FAAE1B1E08C918F5F8C93A3E3B1E0BB
:101F10000D91112741E150E00E945038ADE9B5E044
:101F2000A00FB11F0E943F3AABE1B1E00C9380914A
:101F30001B01AAE1B1E0AD90BB24AAE6B3E0AA0D73
:101F4000BB1D8C93A3E3B1E08C918F5F8C9310F455
:101F50000C947A0F709126017160709326010C9495
:101F6000B40F84E08093E8010C945317E2E3F0E8A7
:101F70000E9405390E94AB3A11F00C9414100091A4
:101F8000AD05023011F00C940F10AFEBB5E00E94DC
:101F9000E739AAE1B1E00C9300911A01083418F076
:101FA00011F00C940A1080E08093E801AAE1B1E0FE
:101FB000AD90BB24ACE0B4E0AA0CBB1CAA0DBB1DC9
:101FC0008D919C91A6E3B1E08D939C93A7E4B1E041
:101FD000EAE3F0E80E9405390E947D38EAE1F1E089
:101FE000A7E4B1E00E9446350E94A239A7E4B1E01F
:101FF0000E944635EEE3F0E80E9405390E947D38E4
:10200000E6E3F1E0A7E4B1E00E9446350E94183A09
:102010000C940D1085E08093E8010C94121084E07C
:102020008093E8010C945317E0E4F0E80E9405392E
:102030000E94AB3A11F00C947D1080E08093E8018F
:102040000091AD05033011F00C947810AFEBB5E0C2
:102050000E94E739AAE1B1E00C9300911A0108341B
:1020600018F011F00C94731080E08093E801A0ED5B
:10207000B5E00E943F3AA6E3B1E00D931C93A6E3BE
:10208000B1E08D919C91AAE1B1E0AD90BB24ACE0B0
:10209000B4E0AA0CBB1CAA0DBB1D8D939C93A7E4B6
:1020A000B1E0E8E4F0E80E9405390E947D38EAE1F9
:1020B000F1E0A7E4B1E00E9446350E94A239A7E40E
:1020C000B1E00E944635EEE3F0E80E9405390E9437
:1020D0007D38E6E3F1E0A7E4B1E00E9446350E94D6
:1020E000183A0C94761085E08093E8010C947B10EC
:1020F00084E08093E8010C945317EAE5F0E80E942D
:1021000005390E94AB3A11F00C94981080E080934E
:10211000E80170912601706470932601A7E4B1E094
:10212000E2E6F0E80E9405390E947D380C945317CE
:10213000ECE6F0E80E9405390E94AB3A11F00C94ED
:10214000C8100091AD05023011F00C94C31080E06E
:102150008093E801AFEBB5E00E94E739AAE2B1E075
:102160000C93A7E4B1E0E4E7F0E80E9405390E948F
:102170007D38EAE2F1E0A7E4B1E00E9446350E9432
:10218000A2390C94C61085E08093E8010C94531793
:10219000E4E9F0E80E9405390E94AB3A11F00C9492
:1021A00000110091AD05023011F00C94FB1080E09D
:1021B0008093E801AFEBB5E00E94E739ADEAB3E008
:1021C0000D931C93EAE0F0E0ADEAB3E07BE70E94F8
:1021D0007C3AA7E4B1E0ECE9F0E80E9405390E94FE
:1021E0007D38EDEAF3E0A7E4B1E00E9446350E94B5
:1021F00092390C94FE1084E08093E8010C945317FC
:10220000E4EBF0E80E9405390E94AB3A11F00C941F
:1022100038110091AD05023011F00C94331180E0BB
:102220008093E801AFEBB5E00E94E739AFEAB3E095
:102230000D931C93ECE0F0E0AFEAB3E07BE70E9483
:102240007C3AA7E4B1E0ECEBF0E80E9405390E948B
:102250007D38EFEAF3E0A7E4B1E00E9446350E9442
:1022600092390C94361184E08093E8010C94531752
:10227000E6EDF0E80E9405390E94AB3A11F00C94AB
:10228000681180E08093E801A7E4B1E0EEEDF0E8AA
:102290000E9405390E947D38EDEAF3E0A7E4B1E041
:1022A0000E9446350E949239A7E4B1E00E9446356B
:1022B000E6EEF0E80E9405390E947D38EFEAF3E08F
:1022C000A7E4B1E00E9446350E9492390C9453175E
:1022D000E2EFF0E80E9405390E94AB3A11F00C944D
:1022E000C5110091AD05023011F00C94C011AFEB97
:1022F000B5E00E94E739AAE1B1E00C9300911A0120
:10230000023010F00C94BB1180E08093E801009142
:102310001A01013011F00C94A41170912B0171601D
:1023200070932B01A7E4B1E0EAEFF0E80E940539D1
:102330000E947D38EBE2F1E0A7E4B1E00E9446356F
:102340000E94A2390C94B91170912B017E7F709379
:102350002B01A7E4B1E0EAEFF0E80E9405390E9402
:102360007D38EBE2F1E0A7E4B1E00E9446350E943F
:10237000A2390C94BE1185E08093E8010C94C3113E
:1023800084E08093E8010C945317E2E1F1E80E94A5
:1023900005390E94AB3A11F00C94E31180E0809370
:1023A000E801A7E4B1E0EAE1F1E80E9405390E9402
:1023B0007D38EBE2F1E0A7E4B1E00E9446350E94EF
:1023C000A2390C945317E4E2F1E80E9405390E9407
:1023D000AB3A11F00C942A120091AD05023011F0C5
:1023E0000C942512AFEBB5E00E94E739AAE1B1E009
:1023F0000C9300911A010C3010F00C94201280E024
:102400008093E80100911A0141E0041BA7E5B2E0C6
:102410000C93A7E4B1E0ECE2F1E80E9405390E94D8
:102420007D38EAE1F1E0A7E4B1E00E9446350E9480
:10243000A23970919D03726070939D030C942312D6
:1024400085E08093E8010C94281284E08093E801F1
:102450000C945317EAE3F1E80E9405390E94AB3A65
:1024600011F00C94A7120091AD05043011F00C94FA
:10247000A212AFEBB5E00E94E739AFE2B1E00C93F6
:1024800000912F010C3010F00C949D12A0EDB5E0DE
:102490000E94E739A0E3B1E00C93009130010430D1
:1024A00010F00C949812A1EEB5E00E94E739A7EE67
:1024B000B4E00C9380E08093E801A7E4B1E0E2E4AB
:1024C000F1E80E9405390E947D38EFE2F1E0A7E4CF
:1024D000B1E00E9446350E94A239A7E4B1E00E9413
:1024E0004635E4E5F1E80E9405390E947D38E0E3D5
:1024F000F1E0A7E4B1E00E9446350E94A239A7E4CA
:10250000B1E00E944635E0E6F1E80E9405390E94FC
:102510007D38E7EEF4E0A7E4B1E00E9446350E9482
:10252000A239709126017460709326010C949B125D
:1025300086E08093E8010C94A01285E08093E80186
:102540000C94A51284E08093E8010C945317E8E6FC
:10255000F1E80E9405390E94AB3A11F00C94C512C3
:1025600080E08093E801A7E4B1E0E0E7F1E80E94B1
:1025700005390E947D38EBE9F3E0A7E4B1E00E9461
:1025800046350E94A2390C945317E8E7F1E80E94FF
:1025900005390E94AB3A11F00C94AF130091AD05D0
:1025A000023011F00C94AA13AFEBB5E00E94A53AEB
:1025B000082F0A3081E009F080E08F93AFEBB5E09F
:1025C0000E94A53A082F0C3081E009F080E09F912D
:1025D000892B882311F40C94A51380E08093E801E3
:1025E00087E0EFEBF5E002E00A93AAEFB1E00E948A
:1025F000643AAAEFB1E00E944635E0E8F1E80E94B3
:1026000005390E947D3889E0EFEBF5E002E00A939E
:10261000AAEFB1E00E9446350E94643AAAEFB1E009
:102620000E944635E0E8F1E80E9405390E947D38B5
:102630008BE0EFEBF5E002E00A93AAEFB1E00E9435
:1026400046350E94643AEAEFF1E0A1E1B1E00E9470
:10265000593A0E94DC3681E0EFEBF5E002E00A93A4
:10266000AAEFB1E00E94643AAAEFB1E00E944635B9
:10267000E2E8F1E80E9405390E947D3883E0EFEB43
:10268000F5E002E00A93AAEFB1E00E9446350E940D
:10269000643AAAEFB1E00E944635E2E8F1E80E9410
:1026A00005390E947D3885E0EFEBF5E002E00A9302
:1026B000AAEFB1E00E9446350E94643AEAEFF1E0E9
:1026C000A8E0B1E00E94593A0E94D436A7E4B1E0F4
:1026D000E4E8F1E80E9405390E947D380E94C9367D
:1026E000E8E0F1E0A7E4B1E00E9446350E94593AE3
:1026F000A7E4B1E00E944635EEEAF1E80E94053910
:102700000E947D380E94C936E1E1F1E0A7E4B1E022
:102710000E9446350E94593AE2E0F1E00E94EB3710
:10272000A9EBB3E00D931D932D933D93E0E1F0E011
:10273000A9EBB3E094E07BE70E947D3A7091A80397
:1027400078607093A8030C94A81386E08093E80146
:102750000C94AD1384E08093E8010C945317E2EBE2
:10276000F1E80E9405390E94AB3A11F00C94EF1386
:1027700080E08093E8010E94C936E1E1F1E0AAEF30
:10278000B1E00E94593AA7E4B1E0EAEBF1E80E9417
:1027900005390E947D38EAEFF1E0A7E4B1E00E943C
:1027A00046350E94593AA7E4B1E00E944635E8EC6C
:1027B000F1E80E9405390E947D380E94C936E8E0A0
:1027C000F1E0AAEFB1E00E94593AEAEFF1E0A7E4A4
:1027D000B1E00E9446350E94593A0C945317E8ED37
:1027E000F1E80E9405390E94AB3A11F00C942B14C9
:1027F00080E08093E801E9EBF3E0ADEEB4E00E9405
:102800002438E9EBF3E0A8EFB4E00E942C38A7E409
:10281000B1E0E0EEF1E80E9405390E947D38EDEE6E
:10282000F4E0A7E4B1E00E9446350E94593AA7E4DB
:10283000B1E00E944635ECEEF1E80E9405390E94B5
:102840007D38E8EFF4E0A7E4B1E00E9446350E944D
:10285000593A0C945317E2EFF1E80E9405390E94AF
:10286000AB3A11F00C94461480E08093E80170912B
:10287000A80374607093A803A7E4B1E0EAEFF1E85D
:102880000E9405390E947D380C945317E2E0F2E86B
:102890000E9405390E94AB3A11F00C947E1400910D
:1028A000AD05023011F00C947914AFEBB5E00E9445
:1028B000E739A4EAB5E00D931D932D933D93E9E22A
:1028C000F0E0A4EAB5E094E07BE70E947D3AA7E45B
:1028D000B1E0EAE0F2E80E9405390E947D38E4EABE
:1028E000F5E0A7E4B1E00E9446350E9495390C94CA
:1028F0007C1484E08093E8010C945317E2E2F2E840
:102900000E9405390E94AB3A11F00C949C1480E0AF
:102910008093E801A7E4B1E0EAE2F2E80E94053919
:102920000E947D38E4EAF5E0A7E4B1E00E94463574
:102930000E9495390C945317E4E3F2E80E9405399C
:102940000E94AB3A11F00C94B51480E08093E8013A
:10295000A7E4B1E0ECE3F2E80E9405390E947D387B
:1029600081E0809300040C945317E6E5F2E80E949E
:1029700005390E94AB3A11F00C94051580E0809364
:10298000E801A7E4B1E0EEE5F2E80E9405390E9413
:102990007D38A0E8BFE0AF93BF93E8EFF3E00E947B
:1029A000183B0E94DC3511E002E0BF91AF910E941C
:1029B0002D39E0E8FFE0A7E4B1E00E9446350E942F
:1029C000593AA7E4B1E00E944635E4E6F2E80E94F5
:1029D00005390E947D38A0E8BFE0AF93BF93ECEFCC
:1029E000F3E00E94183B0E94DC3511E002E0BF9149
:1029F000AF910E942D39E0E8FFE0A7E4B1E00E942A
:102A000046350E94593A0C945317ECE6F2E80E94BE
:102A100005390E94AB3A11F00C9465150091AD0593
:102A2000023011F00C946315AFEBB5E00E94A53AAB
:102A3000AAE1B1E08C9300911A01083011F00C94D6
:102A4000601580E08093E801EFEBF5E0AAEFB1E0DC
:102A50000E94593AEAEFF1E00E94BF37AFEDB4E0CF
:102A60000D931D932D933D93E1E2F0E0AFEDB4E0C3
:102A700094E07BE70E947D3AA7E4B1E0E4E7F2E866
:102A80000E9405390E947D38EFEDF4E0A7E4B1E043
:102A90000E9446350E949539A7E4B1E00E94463570
:102AA000E6E9F2E80E9405390E947D38EFEBF5E097
:102AB000A7E4B1E00E9446350E94593A0C94631590
:102AC00085E08093E8010C945317EAE9F2E80E944C
:102AD00005390E94AB3A11F00C94CA150091AD056E
:102AE000023011F00C94C515AFEBB5E00E94A53A89
:102AF000AAE1B1E08C9300911A01083011F00C9416
:102B0000C01580E08093E801EFEBF5E0AAEFB1E0BB
:102B10000E94593AEAEFF1E00E94BF37A3EEB4E019
:102B20000D931D932D933D93E5E2F0E0A3EEB4E009
:102B300094E07BE70E947D3AA7E4B1E0E2EAF2E8A4
:102B40000E9405390E947D38E3EEF4E0A7E4B1E08D
:102B50000E9446350E949539A7E4B1E00E944635AF
:102B6000E6E9F2E80E9405390E947D38EFEBF5E0D6
:102B7000A7E4B1E00E9446350E94593A0C94C3156F
:102B800085E08093E8010C94C81584E08093E80107
:102B90000C945317E0ECF2E80E9405390E94AB3A1E
:102BA00011F00C94EE1580E08093E801EFEDF4E075
:102BB000AAEFB1E00E942438A7E4B1E0E8ECF2E823
:102BC0000E9405390E947D38EAEFF1E0A7E4B1E008
:102BD0000E9446350E94593A0C945317ECEDF2E8E6
:102BE0000E9405390E94AB3A11F00C94121680E055
:102BF0008093E801E3EEF4E0AAEFB1E00E9424380C
:102C0000A7E4B1E0E4EEF2E80E9405390E947D38C5
:102C1000EAEFF1E0A7E4B1E00E9446350E94593A9C
:102C20000C945317E6EFF2E80E9405390E94AB3A84
:102C300011F00C9442160091AD05023011F00C9485
:102C40003D1680E08093E801AFEBB5E00E94E739E4
:102C5000A4E2B1E00C93A7E4B1E0EEEFF2E80E9449
:102C600005390E947D38E4E2F1E0A7E4B1E00E947A
:102C700046350E94A2390C94401685E08093E80105
:102C80000C945317E4E1F3E80E9405390E94AB3A33
:102C900011F00C94601680E08093E801A7E4B1E0A5
:102CA000ECE1F3E80E9405390E947D38E4E2F1E0AE
:102CB000A7E4B1E00E9446350E94A2390C94531754
:102CC000E4E2F3E80E9405390E94AB3A11F00C945B
:102CD000A61680E08093E801A7E4B1E0ECE2F3E817
:102CE0000E9405390E947D3881E080931A0100918D
:102CF0001A01003218F011F00C94A416EAE1F1E088
:102D0000A0E8BFE00E94A2390E944D35E8E4FCE74C
:102D10000E9405390E945535EAE1F1E0A190BB24FB
:102D2000EAE6F3E0EA0DFB1DA0E8BFE00E94A2394D
:102D30000E944D350E945C35AAE1B1E08C918F5F15
:102D40008C9310F40C9477160C945317EAE4F3E880
:102D50000E9405390E94AB3A11F00C94DC160091E8
:102D6000AD05023011F00C94D716AFEBB5E00E9420
:102D7000E739A8EEB4E00D931C93A8EEB4E08D9172
:102D80009C91AAEEB4E08D939C93A7E4B1E0E2E5B8
:102D9000F3E80E9405390E947D38E8EEF4E0A7E4EC
:102DA000B1E00E9446350E9492390C94DA1685E013
:102DB0008093E8010C945317E6E7F3E80E94053985
:102DC0000E94AB3A11F00C94FA1680E08093E8016F
:102DD000A7E4B1E0EEE7F3E80E9405390E947D38F0
:102DE000E8EEF4E0A7E4B1E00E9446350E94923993
:102DF0000C945317E4E9F3E80E9405390E94AB3ABA
:102E000011F00C9432170091AD05023011F00C94C2
:102E10002D1780E08093E801AFEBB5E00E94E73921
:102E2000AAEAB5E00D931C93EDE2F0E0AAEAB5E062
:102E30007BE70E947C3AA7E4B1E0ECE9F3E80E946A
:102E400005390E947D38EAEAF5E0A7E4B1E00E9486
:102E500046350E9492390C94301785E08093E80142
:102E60000C945317ECEBF3E80E9405390E94AB3A3F
:102E700011F00C94501780E08093E801A7E4B1E0D2
:102E8000E4ECF3E80E9405390E947D38EAEAF5E0B7
:102E9000A7E4B1E00E9446350E9492390C94531782
:102EA00081E08093E8010C94581782E08093E80158
:102EB0000091E801003018F011F00C9461170C94A7
:102EC0006F17E0EAF5E60E940539A8EEB1E08C91B3
:102ED00099270E94D238A7E4B1E00E947D38A7E488
:102EE000B1E00E944F350E945C35089581E08093E7
:102EF000DE030091DE03033018F011F00C94CC17C0
:102F0000EEEBF6E60E940539AEEDB3E08C91992721
:102F1000AFEDB3E00E94B83807B1007E8091DF03C7
:102F200090E0890F082707B90E948338ACEDB3E021
:102F30008D939C93ECEDF3E0D190E080FF2400278B
:102F40000E94803B0E94223BEEEDF3E0A190BB2467
:102F5000EFEBF3E0AA0CBB1CAA0CBB1CEA0DFB1D9B
:102F60000E94183B0E944D3CEDE0F0E0AEEDB3E076
:102F7000AD90BB24AFEBB3E0AA0CBB1CAA0CBB1CEE
:102F8000AA0DBB1D0E945E3AAEEDB3E08C918F5F3F
:102F90008C9310F40C947917AFECB3E08C918F5FA5
:102FA0008C93AFECB3E00C9148E00E94953A8C937F
:102FB0000091CF03003011F00C94A01881E08093B1
:102FC000DE030091DE03033018F011F00C94941826
:102FD000ECE0FBE70E9405390E94A83CEEEDF3E02F
:102FE000A190BB24EFEBF3E0AA0CBB1CAA0CBB1C0A
:102FF000EA0DFB1D0E94183B0E94AD3BEDE0F0E0A6
:10300000AEEDB3E0AD90BB24ACECB3E0AA0CBB1CBE
:10301000AA0CBB1CAA0DBB1D0E945E3AAEEDB3E02C
:10302000AD90BB24AFEBB3E0AA0CBB1CAA0CBB1C3D
:10303000AA0DBB1DE0E1FBE70E9405390E94AA38FA
:10304000EEEDF3E0A190BB24ECEDF3E0AA0CBB1C89
:10305000AA0CBB1CEA0DFB1D0E941D3BEEEDF3E02C
:10306000A190BB24ECECF3E0AA0CBB1CAA0CBB1C8B
:10307000EA0DFB1D0E94183B0E94063CEDE0F0E0CB
:10308000AEEDB3E0AD90BB24A8EEB3E0AA0CBB1C40
:10309000AA0CBB1CAA0DBB1D0E945E3A0091000445
:1030A000013011F00C948C18E8EDF3E80E9405391A
:1030B0000E945535EEEDF3E0A0E8BFE00E94A23992
:1030C0000E944D35EEE3F0E80E9405390E94553527
:1030D000A0E8BFE0AF93BF93EEEDF3E0A190BB2477
:1030E000E8EEF3E0AA0CBB1CAA0CBB1CEA0DFB1D0E
:1030F0000E94183B0E94DC3511E001E0BF91AF91C6
:103100000E942D39E0E8FFE0A0E8BFE00E94593AB4
:103110000E944D350E945C35AEEDB3E08C918F5F1F
:103120008C9310F40C94E117ECEEF3E0A8EFB3E00D
:103130000E945E3AE0EFF3E0ACEFB3E00E945E3A4B
:103140000895E0E0F0E00AE010E0A0E1BB277BE7B3
:103150000E947C3AE2E0F0E008E512E0A0E1BB2743
:103160007BE70E947C3AE4E0F0E00CE310E0A0E1B1
:10317000BB277BE70E947C3AE0E1FBE70E94053930
:103180000E949B3CE6E0F0E0ADE0BB2794E07BE7EB
:103190000E947D3AE0E2F0E0A0E1BB2781E08C9361
:1031A0007BE70E947A3AEAE0F0E000E010E0A0E17C
:1031B000BB277BE70E947C3AECE0F0E000E010E007
:1031C000A0E1BB277BE70E947C3AEEE0F0E000E064
:1031D00010E0A0E1BB277BE70E947C3AAAEFB1E0B8
:1031E000ECEDF3E80E9405390E947D38EAEFF1E04A
:1031F0000E94BF37AFEDB4E00D931D932D933D9327
:10320000E1E2F0E0AFEDB4E094E07BE70E947D3ACC
:10321000AAEFB1E0E6EEF3E80E9405390E947D389E
:10322000EAEFF1E00E94BF37A3EEB4E00D931D93E7
:103230002D933D93E5E2F0E0A3EEB4E094E07BE76C
:103240000E947D3A80E090E0AAEEB4E08D939C93DA
:10325000E9E2F0E000E11EE020E030E0A0E1BB2781
:1032600094E07BE70E947D3AEDE2F0E000E11EE0B1
:10327000A0E1BB277BE70E947C3A08957091A803E8
:10328000777F7093A803AC9AE0EFF3E80E940539CA
:103290000E9455350E945C3580E08093EC04A8EADA
:1032A000B3E08C9180FB16F00C94771A7091A80310
:1032B0007E7F7093A80382EA0E944A3881E0E0E7AB
:1032C000F8E005E00A93A981BA810E94643AA881D6
:1032D000B981E6EFF3E80E9405390E94AB3A0FB6D8
:1032E00082EA481A80E0580A22960FBE11F00C9428
:1032F0006F1A5798ECEFF3E80E9405390E94553594
:10330000A0E7B8E00E944F350E945C35E0E7F8E0A6
:10331000A3E0B5E00E94593AE2E0F4E80E940539E2
:103320000E945535A3E0B5E00E944F350E945C3500
:10333000E3E0F5E09CE200E130E2AEEAB5E00E94B5
:10334000E33AADEAB5E02C930091AD05003018F0FA
:1033500011F00C94AD190C946F1AA0EDB5E0E8E0F3
:10336000F4E80E9405390E94AB3A11F00C946F1AF0
:103370007091A80378607093A80381E0EFEBF5E00B
:1033800002E00A93ADEEB4E00E94643AADEEB4E020
:103390000E944635E2E8F1E80E9405390E947D3836
:1033A00083E0EFEBF5E002E00A93ADEEB4E00E94BB
:1033B00046350E94643AADEEB4E00E944635E2E83C
:1033C000F1E80E9405390E947D3885E0EFEBF5E0D9
:1033D00002E00A93ADEEB4E00E9446350E94643AE2
:1033E00081E0E7E4F6E002E00A93A8EFB4E00E948F
:1033F000643AA8EFB4E00E944635E0E8F1E80E94A4
:1034000005390E947D3883E0E7E4F6E002E00A93A4
:10341000A8EFB4E00E9446350E94643AA8EFB4E0F9
:103420000E944635E0E8F1E80E9405390E947D38A7
:1034300085E0E7E4F6E002E00A93A8EFB4E00E943A
:1034400046350E94643AADEEB4E00E944F350E94CA
:103450005C35A8EFB4E00E944F350E945C35E8EF80
:10346000F4E0FA93EA93EDEEF4E00E943438A0E23F
:10347000B1E00D931D932D933D93A0E2B1E00D912A
:103480001D912D913C9140E556E460E070E00E9472
:103490007A39A0E2B1E00D931D932D933D93E0E2C4
:1034A000F1E0A1E1B1E00E9424380E94DC36E0E2C4
:1034B000F1E0A8E0B1E00E942C380E94D4360E94CE
:1034C000C936A1E1B1E00E944F350E945C350E94EF
:1034D000C936A8E0B1E00E944F350E945C350E94D9
:1034E0001D0BACEEB4E08C918F5F8C93579AA8EAD9
:1034F000B3E08C9183FB81E00EF080E08F9300912C
:10350000EC04083C81E009F080E09F91892B88233E
:1035100011F40C944F19AC98EAE0F4E80E940539D4
:103520000E945535ECEEF4E0A0E8BFE00E94A2391D
:103530000E944D350E945C350895E4E1F4E80E9454
:1035400005390E9455350E945C350E94C936A1E1BB
:10355000B1E00E944F35EEE1F4E80E9405390E9487
:1035600055350E94C936A8E0B1E00E944F350E944F
:103570005C3581E080933301009133010E3118F006
:1035800011F00C94DF1AE3E3F1E0A190BB24EAE62A
:10359000F3E0EA0DFB1DA0E8BFE00E94163A0E948E
:1035A0004D35E8E4FCE70E9405390E945535A3E358
:1035B000B1E08C918F5F8C9310F40C94BC1A0E9434
:1035C0005C3580E080931C0181E0809333010091A1
:1035D00033010E3118F011F00C94411BE3E3F1E0DC
:1035E000A190BB24EAE6F3E0EA0DFB1DA0E8BFE0F2
:1035F0000E94163A0E944D35E8E4FCE70E94053926
:103600000E945535A3E3B1E00C9100FB16F00C9439
:10361000161BA3E3B1E0AD90BB24AAE6B3E0AA0D6C
:10362000BB1D8C9180931A010C94391BA3E3B1E06C
:10363000AD90BB24AAE6B3E0AA0DBB1D8C9180938C
:103640001B0194E0ABE1B1E00E948C38ACE1B1E049
:103650008C918F5F8C9300911A0140911B01042B78
:10366000ACE1B1E0AD90BB24AAE8B3E0AA0DBB1D6C
:103670000C93A3E3B1E08C918F5F8C9310F40C94C6
:10368000E71A0E945C35E0E2F4E80E9405390E94E6
:1036900055350E945C3581E0809333010091330100
:1036A0000F3018F011F00C94711BE3E3F1E0A190DE
:1036B000BB24EAE8F3E0EA0DFB1DA0E8BFE00E94AE
:1036C000163A0E944D35E8E4FCE70E9405390E9455
:1036D0005535A3E3B1E08C918F5F8C9310F40C947B
:1036E0004E1B0E945C35EBE8F3E08EE00E94BF3A8F
:1036F000AAE1B1E00C93EAE2F4E80E9405390E94E5
:103700005535EAE1F1E0A0E8BFE00E94163A0E94D8
:103710004D350E945C354091990300911A010417C0
:1037200011F00C945124E0E3F4E80E9405390E9462
:103730005535ADEAB3E00E94FF34EAE0F0E0ADEACF
:10374000B3E07BE70E947C3AEDEAF3E0A0E8BFE05B
:103750000E9492390E944D350E945C3580916B0326
:1037600080931A01E8E3F4E80E9405390E94553578
:10377000EAE1F1E0A0E8BFE00E94A2390E944D35E5
:103780000E945C35A4ECB4E08D919C91A8EAB5E070
:103790008D939C9300911A0141E0041BA5E3B1E0D5
:1037A0000C9380913501A8EAB5E00E94F0380E94A0
:1037B000E6388C9189238C93A8EAB5E08D919C9191
:1037C000A4ECB4E08D939C9384E180933301A8EA48
:1037D000B5E08D919C91A4ECB4E08D939C93E2E4D0
:1037E000F4E80E9405390E945535E3E3F1E0A0E8D2
:1037F000BFE00E94A2390E944D35E8E4FCE70E9438
:1038000005390E945535E3E3F1E0A190BB24ECE9D2
:10381000F4E0AA0CBB1CEA0DFB1DA0E8BFE00E946F
:10382000183A0E944D350E945C35E2E4F4E80E94AB
:1038300005390E946B35E3E3F1E0A0E8BFE00E94A8
:10384000A2390E946335E8E4FCE70E9405390E9432
:103850006B35E3E3F1E0A190BB24ECE9F4E0AA0CC2
:10386000BB1CEA0DFB1DA0E8BFE00E94183A0E94B5
:1038700063350E94723580E090E0AAE1B1E0AD903E
:10388000BB24ABE2B3E0AA0CBB1CAA0DBB1D8D93FD
:103890009C93A7E4B1E0ECE4F4E80E9405390E94AF
:1038A0007D38EAE1F1E0A7E4B1E00E9446350E94EC
:1038B000A239A7E4B1E00E944635E8E4FCE70E94A3
:1038C00005390E947D3880916C03AAE1B1E0AD908A
:1038D000BB24A5EFB2E0AA0DBB1D8C9300911A0189
:1038E0000A3081E009F080E08F9300911A010B30DB
:1038F00081E009F080E09F91892B882311F40C94DA
:103900009E1C80916C0380931E0100911E01033068
:1039100011F00C949E1CA3EBB3E00E94FF34EEE088
:10392000F0E0A3EBB3E07BE70E947C3AA3EBB3E0CB
:103930008D919C91A6EBB4E08D939C9380916C0348
:103940008093290100911A0141E0041BA7E2B1E034
:103950000C93A7E2B1E00C9144E00E94953A0C93DD
:10396000A7E2B1E08C918D5F8C9300911A0141E048
:10397000041BA8E2B1E00C93A8E2B1E00C9144E092
:103980000E94953A8C93A8E2B1E00C9144E0049F28
:103990000C92E6E5F4E80E9405390E945535E9E20B
:1039A000F1E0A0E8BFE00E94A2390E944D350E94DC
:1039B0005C35E2E6F4E80E9405390E945535E7E2FD
:1039C000F1E0A0E8BFE00E94A2390E944D350E94BC
:1039D0005C35E0E7F4E80E9405390E945535E8E2DD
:1039E000F1E0A0E8BFE00E94A2390E944D350E949C
:1039F0005C35A9E2B1E08C9180FB80912801A7E2BF
:103A0000B1E0AD90BB24ACE9B4E0AA0CBB1CAA0D9C
:103A1000BB1D0E94F0380E94E6380C9016F0092277
:103A200001C0082A0C92A8E2B1E08C918F5F8C93C0
:103A3000A9E2B1E08C9181FB80912801A7E2B1E07D
:103A4000AD90BB24ACE9B4E0AA0CBB1CAA0DBB1D15
:103A50000E94F0380E94E6380C9016F0092201C04E
:103A6000082A0C92A8E2B1E08C918F5F8C93A9E2B6
:103A7000B1E08C9182FB80912801A7E2B1E0AD908A
:103A8000BB24ACE9B4E0AA0CBB1CAA0DBB1D0E9470
:103A9000F0380E94E6380C9016F0092201C0082A7E
:103AA0000C92A8E2B1E08C918F5F8C93A9E2B1E017
:103AB0008C9183FB80912801A7E2B1E0AD90BB24FB
:103AC000ACE9B4E0AA0CBB1CAA0DBB1D0E94F038E7
:103AD0000E94E6380C9016F0092201C0082A0C92C8
:103AE000EAE7F4E80E9405390E945535E7E2F1E083
:103AF000A0E8BFE00E94A2390E944D35E4E8F4E856
:103B00000E9405390E945535E7E2F1E0A190BB24FF
:103B1000ECE9F4E0AA0CBB1CEA0DFB1DA0E8BFE039
:103B20000E94183A0E944D350E945C35AAEFB1E020
:103B3000E2E4F4E80E9405390E947D38E7E2F1E012
:103B4000AAEFB1E00E9446350E94A239AAEFB1E087
:103B50000E944635E8E4FCE70E9405390E947D3862
:103B6000E7E2F1E0A190BB24ECE9F4E0AA0CBB1C75
:103B7000EA0DFB1DAAEFB1E00E9446350E94183AFB
:103B8000AAEFB1E00E944F350E945C35AAEFB1E088
:103B90000E9465350E94723580918C0380933C01B0
:103BA00080918D0380933D0180918E0380933E012F
:103BB00080918F0380933F01ECE3F1E00E94283B6A
:103BC000AAE1B1E0AD90BB24ADEFB2E0AA0CBB1C02
:103BD000AA0CBB1CAA0DBB1DEDE0FF270E945E3A9C
:103BE00000911A0141E0041BA7E2B1E00C93A7E2A7
:103BF000B1E00C9146E0049F0C92A7E2B1E08C91F9
:103C00008F5F8C93E8E8F4E80E9405390E945535EF
:103C1000E7E2F1E0A0E8BFE00E94A2390E944D3542
:103C20000E945C3590913F0180913E01A6E3B1E096
:103C30008D939C93A6E3B1E08D919C91A7E2B1E0B6
:103C4000AD90BB24ACE0B4E0AA0CBB1CAA0DBB1D1C
:103C50008D939C93AAEFB1E0E0E9F4E80E94053966
:103C60000E947D38E7E2F1E0AAEFB1E00E9446351C
:103C70000E94A239AAEFB1E00E944635E8E4FCE7D1
:103C80000E9405390E947D38E7E2F1E0A190BB2453
:103C9000ECE0F4E0AA0CBB1CEA0DFB1DAAEFB1E0BE
:103CA0000E9446350E94183AAAEFB1E00E944F35B3
:103CB0000E945C35AAEFB1E00E9465350E94723522
:103CC00090913D0180913C01A6E3B1E08D939C93DE
:103CD000A7E2B1E08C918F5F8C93A6E3B1E08D9168
:103CE0009C91A7E2B1E0AD90BB24ACE0B4E0AA0C9B
:103CF000BB1CAA0DBB1D8D939C93AAEFB1E0E0E91C
:103D0000F4E80E9405390E947D38E7E2F1E0AAEF6D
:103D1000B1E00E9446350E94A239AAEFB1E00E94AC
:103D20004635E8E4FCE70E9405390E947D38E7E269
:103D3000F1E0A190BB24ECE0F4E0AA0CBB1CEA0D7E
:103D4000FB1DAAEFB1E00E9446350E94183AAAEF87
:103D5000B1E00E944F350E945C35AAEFB1E00E94AD
:103D600065350E947235EAE9F4E80E9405390E943F
:103D70005535EAE1F1E0A190BB24EDEFF2E0AA0CA9
:103D8000BB1CAA0CBB1CEA0DFB1DA0E8BFE00E94F7
:103D900098390E944D35E8E4FCE70E9405390E94FD
:103DA0005535E8E3F1E0A0E8BFE00E941A3A0E942E
:103DB0004D350E945C35EAE1F1E0A190BB24EDEFC6
:103DC000F2E0AA0CBB1CAA0CBB1CEA0DFB1DA7E46D
:103DD000B1E00E9446350E949839A7E4B1E00E9404
:103DE0004635E8E4FCE70E9405390E947D38809161
:103DF000910380933C018091920380933D018091D7
:103E0000930380933E018091940380933F01ECE300
:103E1000F1E0AAE1B1E0AD90BB24A8E5B2E0AA0CC4
:103E2000BB1CAA0CBB1CAA0DBB1D0E945E3A0091D4
:103E30001A0141E0041BA7E2B1E00C93A7E2B1E054
:103E40000C9146E0049F0C92A7E2B1E08C918D5F4B
:103E50008C93E8E8F4E80E9405390E945535E7E2C2
:103E6000F1E0A0E8BFE00E94A2390E944D350E9417
:103E70005C3590913F0180913E01A6E3B1E08D93C6
:103E80009C93A6E3B1E08D919C91A7E2B1E0AD9047
:103E9000BB24ACE0B4E0AA0CBB1CAA0DBB1D8D93E7
:103EA0009C93E0E9F4E80E9405390E945535E7E269
:103EB000F1E0A0E8BFE00E94A2390E944D35E8E49D
:103EC000FCE70E9405390E945535E7E2F1E0A19038
:103ED000BB24ECE0F4E0AA0CBB1CEA0DFB1DA0E83F
:103EE000BFE00E94183A0E944D350E945C35E0E91F
:103EF000F4E80E9405390E946B35E7E2F1E0A0E8A2
:103F0000BFE00E94A2390E946335E8E4FCE70E940A
:103F100005390E946B35E7E2F1E0A190BB24ECE0AB
:103F2000F4E0AA0CBB1CEA0DFB1DA0E8BFE00E9458
:103F3000183A0E9463350E94723590913D0180913C
:103F40003C01A6E3B1E08D939C93A7E2B1E08C9194
:103F50008F5F8C93A6E3B1E08D919C91A7E2B1E0D5
:103F6000AD90BB24ACE0B4E0AA0CBB1CAA0DBB1DF9
:103F70008D939C93E0E9F4E80E9405390E94553541
:103F8000E7E2F1E0A0E8BFE00E94A2390E944D35CF
:103F9000E8E4FCE70E9405390E945535E7E2F1E0CC
:103FA000A190BB24ECE0F4E0AA0CBB1CEA0DFB1DC5
:103FB000A0E8BFE00E94183A0E944D350E945C358F
:103FC000E0E9F4E80E9405390E946B35E7E2F1E090
:103FD000A0E8BFE00E94A2390E946335E8E4FCE754
:103FE0000E9405390E946B35E7E2F1E0A190BB2405
:103FF000ECE0F4E0AA0CBB1CEA0DFB1DA0E8BFE05E
:104000000E94183A0E9463350E947235E4EAF4E88F
:104010000E9405390E945535ECE3F1E0A0E8BFE0CD
:104020000E94183B0E94DC350E944D35E8E4FCE715
:104030000E9405390E945535ECE3F1E0A0E8BFE0AD
:104040000E941A3A0E944D350E945C35809195037A
:1040500080933C018091960380933D01809197036A
:1040600080933E018091980380933F01ECE3F1E05F
:10407000AAE1B1E0AD90BB24A4E8B2E0AA0CBB1C5D
:10408000AA0CBB1CAA0DBB1D0E945E3AA0E8BFE0B3
:10409000AF93BF93EAE1F1E0A190BB24E4E8F2E042
:1040A000AA0CBB1CAA0CBB1CEA0DFB1D0E94183BF2
:1040B0000E94DC3511E002E0BF91AF910E942D39E2
:1040C000E0E8FFE0A7E4B1E00E9446350E94593ADB
:1040D000A7E4B1E00E944635E8E4FCE70E94053918
:1040E0000E947D38A0E8BFE0AF93BF93EAE1F1E022
:1040F000A190BB24E8E5F2E0AA0CBB1CAA0CBB1CF7
:10410000EA0DFB1D0E94183B0E94DC3511E002E025
:10411000BF91AF910E942D39E0E8FFE0A7E4B1E044
:104120000E9446350E94593AA7E4B1E00E94463504
:10413000E8E4FCE70E9405390E947D38EAEAF4E8E9
:104140000E9405390E945535ECE3F1E0A0E8BFE09C
:104150000E94183B0E94DC350E944D35E8E4FCE7E4
:104160000E9405390E945535ECE3F1E0A0E8BFE07C
:104170000E941A3A0E944D350E945C3500911A0146
:1041800041E0041BA7E2B1E00C93A7E2B1E00C917F
:1041900046E0049F0C92A7E2B1E08C918B5F8C9378
:1041A000E8E8F4E80E9405390E945535E7E2F1E0BD
:1041B000A0E8BFE00E94A2390E944D350E945C3504
:1041C00090913F0180913E01A6E3B1E08D939C93D5
:1041D000A6E3B1E08D919C91A7E2B1E0AD90BB2444
:1041E000ACE0B4E0AA0CBB1CAA0DBB1D8D939C9344
:1041F000E0E9F4E80E9405390E945535E7E2F1E074
:10420000A0E8BFE00E94A2390E944D35E8E4FCE737
:104210000E9405390E945535E7E2F1E0A190BB24E8
:10422000ECE0F4E0AA0CBB1CEA0DFB1DA0E8BFE02B
:104230000E94183A0E944D350E945C35E0E9F4E88E
:104240000E9405390E946B35E7E2F1E0A0E8BFE08B
:104250000E94A2390E946335E8E4FCE70E94053918
:104260000E946B35E7E2F1E0A190BB24ECE0F4E0C2
:10427000AA0CBB1CEA0DFB1DA0E8BFE00E94183A87
:104280000E9463350E94723590913D0180913C01FE
:10429000A6E3B1E08D939C93A7E2B1E08C918F5F90
:1042A0008C93A6E3B1E08D919C91A7E2B1E0AD9033
:1042B000BB24ACE0B4E0AA0CBB1CAA0DBB1D8D93C3
:1042C0009C93E0E9F4E80E9405390E945535E7E245
:1042D000F1E0A0E8BFE00E94A2390E944D35E8E479
:1042E000FCE70E9405390E945535E7E2F1E0A19014
:1042F000BB24ECE0F4E0AA0CBB1CEA0DFB1DA0E81B
:10430000BFE00E94183A0E944D350E945C35E0E9FA
:10431000F4E80E9405390E946B35E7E2F1E0A0E87D
:10432000BFE00E94A2390E946335E8E4FCE70E94E6
:1043300005390E946B35E7E2F1E0A190BB24ECE087
:10434000F4E0AA0CBB1CEA0DFB1DA0E8BFE00E9434
:10435000183A0E9463350E94723580919003AAE159
:10436000B1E0AD90BB24AFEDB2E0AA0DBB1D8C93C4
:10437000E0EBF4E80E9405390E945535D201E0E9EE
:10438000F3E00E942F3AD2010E944F350E945C3523
:10439000EEEBF4E80E9405390E945535EAE1F1E0C0
:1043A000A190BB24EFEDF2E0EA0DFB1DA0E8BFE019
:1043B0000E94163A0E944D350E945C35ECE6F3E00F
:1043C000A7E4B1E00E9446350E94A239A7E4B1E01B
:1043D0000E944635E8E4FCE70E9405390E947D38DA
:1043E000EAE1F1E0A190BB24EFEDF2E0EA0DFB1D64
:1043F000A7E4B1E00E9446350E94163AA7E4B1E076
:104400000E944F350E945C35809190038093290172
:1044100000911A0141E0041BA7E2B1E00C93A7E26E
:10442000B1E00C9142E00E94953A0C93A7E2B1E012
:104430008C918A5F8C9300911A0141E0041BA8E2E1
:10444000B1E00C93A8E2B1E00C9142E00E94953AF1
:104450008C93A8E2B1E00C9148E0049F0C92E2E654
:10446000F4E80E9405390E945535E7E2F1E0A0E842
:10447000BFE00E94A2390E944D350E945C35E0E702
:10448000F4E80E9405390E945535E8E2F1E0A0E821
:10449000BFE00E94A2390E944D350E945C35A9E21E
:1044A000B1E08C9180FB80912801A7E2B1E0AD9052
:1044B000BB24ACE9B4E0AA0CBB1CAA0DBB1D0E9436
:1044C000F0380E94E6380C9016F0092201C0082A44
:1044D0000C92A8E2B1E08C918F5F8C93A9E2B1E0DD
:1044E0008C9181FB80912801A7E2B1E0AD90BB24C3
:1044F000ACE9B4E0AA0CBB1CAA0DBB1D0E94F038AD
:104500000E94E6380C9016F0092201C0082A0C928D
:10451000A8E2B1E08C918F5F8C93A9E2B1E08C911D
:1045200082FB80912801A7E2B1E0AD90BB24ACE909
:10453000B4E0AA0CBB1CAA0DBB1D0E94F0380E945F
:10454000E6380C9016F0092201C0082A0C92A8E265
:10455000B1E08C918F5F8C93A9E2B1E08C9183FBE9
:1045600080912801A7E2B1E0AD90BB24ACE9B4E0B2
:10457000AA0CBB1CAA0DBB1D0E94F0380E94E63895
:104580000C9016F0092201C0082A0C92A8E2B1E0B2
:104590008C918F5F8C93A9E2B1E08C9184FB809128
:1045A0002801A7E2B1E0AD90BB24ACE9B4E0AA0CCD
:1045B000BB1CAA0DBB1D0E94F0380E94E6380C906F
:1045C00016F0092201C0082A0C92A8E2B1E08C91F1
:1045D0008F5F8C93A9E2B1E08C9185FB80912801DB
:1045E000A7E2B1E0AD90BB24ACE9B4E0AA0CBB1CDF
:1045F000AA0DBB1D0E94F0380E94E6380C9016F000
:10460000092201C0082A0C92A8E2B1E08C918F5FC8
:104610008C93A9E2B1E08C9186FB80912801A7E2FE
:10462000B1E0AD90BB24ACE9B4E0AA0CBB1CAA0D70
:10463000BB1D0E94F0380E94E6380C9016F009224B
:1046400001C0082A0C92A8E2B1E08C918F5F8C9394
:10465000A9E2B1E08C9187FB80912801A7E2B1E04B
:10466000AD90BB24ACE9B4E0AA0CBB1CAA0DBB1DE9
:104670000E94F0380E94E6380C9016F0092201C022
:10468000082A0C92EAE7F4E80E9405390E945535A1
:10469000E7E2F1E0A0E8BFE00E94A2390E944D35B8
:1046A000E4E8F4E80E9405390E945535E7E2F1E0BC
:1046B000A190BB24ECE9F4E0AA0CBB1CEA0DFB1DA5
:1046C000A0E8BFE00E94183A0E944D350E945C3578
:1046D000E2E4F4E80E9405390E945535E7E2F1E092
:1046E000A0E8BFE00E94A2390E944D35E8E4FCE753
:1046F0000E9405390E945535E7E2F1E0A190BB2404
:10470000ECE9F4E0AA0CBB1CEA0DFB1DA0E8BFE03D
:104710000E94183A0E944D350E945C35E2E4F4E8AC
:104720000E9405390E946B35E7E2F1E0A0E8BFE0A6
:104730000E94A2390E946335E8E4FCE70E94053933
:104740000E946B35E7E2F1E0A190BB24ECE9F4E0D4
:10475000AA0CBB1CEA0DFB1DA0E8BFE00E94183AA2
:104760000E9463350E947235E8E5F2E0ACE3B1E007
:104770000E945E3A90913F0180913E01A6E3B1E034
:104780008D939C93A6E3B1E08D919C91AEE9B4E04A
:104790008D939C93E2E4F4E80E9405390E9455351C
:1047A000E6ECF4E80E9405390E945535E8E4FCE7A0
:1047B0000E9405390E945535EEE9F4E0A0E8BFE01B
:1047C0000E94183A0E944D350E945C35E2E4F4E8FC
:1047D0000E9405390E946B35E6ECF4E80E94053929
:1047E0000E946B35E8E4FCE70E9405390E946B35B6
:1047F000EEE9F4E0A0E8BFE00E94183A0E946335B9
:104800000E94723590913D0180913C01A6E3B1E098
:104810008D939C93A7E2B1E08C918F5F8C93A6E37C
:10482000B1E08D919C91A0EAB4E08D939C93E2E479
:10483000F4E80E9405390E945535E8ECF4E80E943E
:1048400005390E945535E8E4FCE70E9405390E94CD
:104850005535E0EAF4E0A0E8BFE00E94183A0E9473
:104860004D350E945C35E2E4F4E80E9405390E946F
:104870006B35E8ECF4E80E9405390E946B35E8E4FA
:10488000FCE70E9405390E946B35E0EAF4E0A0E8FD
:10489000BFE00E94183A0E9463350E9472350C9462
:1048A0006C24EAECF4E80E9405390E945535AFEA21
:1048B000B3E00E94FF34ECE0F0E0AFEAB3E07BE766
:1048C0000E947C3AEFEAF3E0A0E8BFE00E94923950
:1048D0000E944D350E945C350895E4EDF4E80E9495
:1048E00005390E945535EFE2F1E0A0E8BFE00E94F3
:1048F000A2390E944D35E8EEF4E80E9405390E9485
:104900005535E0E3F1E0A0E8BFE00E94A2390E9443
:104910004D350E945C350E94C936A1E1B1E00E948C
:104920004F35EEE1F4E80E9405390E9455350E94AA
:10493000C936A8E0B1E00E944F350E945C358091F5
:10494000570280931F0180912F018093570280911D
:1049500043038093310180913001809343030E948F
:104960001407E2EFF4E80E9405390E9455350E94D1
:104970005C3581E080933301009133010A3018F0F7
:1049800011F00C94DF24E3E3F1E0A190BB24E4E414
:10499000F3E0EA0DFB1DA0E8BFE00E94163A0E947A
:1049A0004D35E8E4FCE70E9405390E945535A3E344
:1049B000B1E08C918F5F8C9310F40C94BC240E9416
:1049C0005C35ECEFF4E80E9405390E9455350E94F1
:1049D0005C35E8E0F5E80E9405390E94553581E034
:1049E0008093330100913301043118F011F00C94DD
:1049F0001525E8E4FCE70E9405390E945535E3E3FC
:104A0000F1E0A190BB24E0E5F3E0EA0DFB1DA0E896
:104A1000BFE00E94163A0E944D35A3E3B1E08C91AD
:104A20008F5F8C9310F40C94F2240E945C350E94EA
:104A3000EB0780911F01809357028091570280936A
:104A40002F01809131018093430380E090E0A1E544
:104A5000B2E08D939C9370919D037D7F70939D0335
:104A6000A8E5B2E0E4E1FBE70E9405390E94A83C1A
:104A7000E8E5F2E00E94183B0E944D3CEDE0F0E0DA
:104A8000A8E5B2E00E945E3AE6E0F0E0A8E5B2E018
:104A900094E07BE70E947D3AE0E1F5E80E94053969
:104AA0000E945535E3E4F3E0A0E8BFE00E94A2399C
:104AB0000E944D35E8E4FCE70E9405390E94553517
:104AC000E8E5F2E0A0E8BFE00E94183B0E94DC3578
:104AD0000E944D35E8E4FCE70E9405390E945535F7
:104AE000EFE2F1E0A0E8BFE00E94A2390E944D355C
:104AF000E8E4FCE70E9405390E945535EDEAF3E051
:104B0000A0E8BFE00E9492390E944D35E8E4FCE73E
:104B10000E9405390E945535EFEAF3E0A0E8BFE0B6
:104B20000E9492390E944D35E8E4FCE70E94053965
:104B30000E945535E8EEF4E0A0E8BFE00E9492390B
:104B40000E944D350E945C35E0E1F5E80E94053990
:104B50000E946B35E3E4F3E0A0E8BFE00E94A239D5
:104B60000E946335E8E4FCE70E9405390E946B353A
:104B7000E8E5F2E0A0E8BFE00E94183B0E94DC35C7
:104B80000E946335E8E4FCE70E9405390E946B351A
:104B9000EFE2F1E0A0E8BFE00E94A2390E94633595
:104BA000E8E4FCE70E9405390E946B35EDEAF3E08A
:104BB000A0E8BFE00E9492390E946335E8E4FCE778
:104BC0000E9405390E946B35EFEAF3E0A0E8BFE0F0
:104BD0000E9492390E946335E8E4FCE70E9405399F
:104BE0000E946B35E8EEF4E0A0E8BFE00E94923945
:104BF0000E9463350E9472350895E2E0F1E00E9460
:104C0000AA37A0E2B1E00D931D932D933D9300913F
:104C10002401023011F00C943326EFEDF4E0A0E80B
:104C2000BFE00E9495390E944D35E8E4FCE70E9400
:104C300005390E945535E0E2F1E0A0E8BFE00E94AE
:104C400095390E944D35E8E4FCE70E9405390E9441
:104C50005535E3EEF4E0A0E8BFE00E9495390E94EC
:104C60004D350E945C35AFEDB4E04D915D916D9195
:104C70007C91A0E2B1E00D911D912D913C910E949B
:104C80007F3980E014F009F081E08F93A3EEB4E067
:104C90004D915D916D917C91A0E2B1E00D911D91DE
:104CA0002D913C910E947F3980E00CF481E09F912E
:104CB0008923882311F40C94932680E080932B01A0
:104CC00040912C0100912B01041711F40C949126B2
:104CD000EAE1F5E80E9405390E9455350E94C9367F
:104CE000A1E1B1E00E944F350E945C3580912B011B
:104CF00080932C0181E08093A403AAEFB1E0E4E269
:104D0000F5E80E9405390E947D38AAEFB1E00E94C3
:104D10004F350E945C35AAEFB1E00E9465350E94D4
:104D200072350C94CA268BE08093A40381E08093B3
:104D30002B0140912C0100912B01041711F40C94CC
:104D4000CA26EEE2F5E80E9405390E9455350E9418
:104D5000C936A1E1B1E00E944F350E945C358091D7
:104D60002B0180932C018BE08093A403AAEFB1E088
:104D7000EEE3F5E80E9405390E947D38AAEFB1E024
:104D80000E944F350E945C35AAEFB1E00E94653564
:104D90000E947235A1ECB3E00E94FF34A1ECB3E0B5
:104DA0000D911C914CE251E00E942C35A1ECB3E036
:104DB0000D931C93A1ECB3E00D911C91003050E0D9
:104DC000150711F00C94142700912B01013011F0FC
:104DD0000C940027AAEFB1E0EEE3F5E80E94053954
:104DE0000E947D38AAEFB1E00E944F350E945C35E9
:104DF000AAEFB1E00E9465350E9472350C94142729
:104E0000AAEFB1E0E4E2F5E80E9405390E947D389E
:104E1000AAEFB1E00E944F350E945C35AAEFB1E0E5
:104E20000E9465350E9472350895A7E5B2E00C91A5
:104E30004BE00E94953A8C93A7E5B2E08C918F5F8E
:104E40008C93E8E4F5E80E9405390E945535E7E5C2
:104E5000F2E0A0E8BFE00E94A2390E944D35ECE5E7
:104E6000F5E80E9405390E945535E8E5F2E0A0E832
:104E7000BFE00E94183B0E94DC350E944D350E9425
:104E80005C350E94C936A1E1B1E00E944F35EEE1E8
:104E9000F4E80E9405390E9455350E94C936A8E001
:104EA000B1E00E944F350E945C35A7E5B2E08C91DD
:104EB000A2EBB4E08D9388278C93A3E4B3E08C91AC
:104EC000A4EBB4E08D9388278C93AAEFB1E0E6E6DB
:104ED000F5E80E9405390E947D38E4EBF4E0AAEF82
:104EE000B1E00E9446350E94183AAAEFB1E00E9454
:104EF0004F350E945C35AAEFB1E00E9465350E94F3
:104F00007235009157020B3011F00C940B28709100
:104F10009D037E7F70939D03A8E5B2E0E4E1FBE78B
:104F20000E9405390E94A83CE8E5F2E00E94183B87
:104F30000E944D3CEDE0F0E0A8E5B2E00E945E3A50
:104F4000E6E0F0E0A8E5B2E094E07BE70E947D3A7D
:104F5000E8E5F2E0ACE3B1E00E945E3A90913F01F7
:104F600080913E01A6E3B1E08D939C93A6E3B1E06E
:104F70008D919C91AEE9B4E08D939C93AAEFB1E042
:104F8000E2E7F5E80E9405390E947D38EEE9F4E099
:104F9000AAEFB1E00E9446350E94183AAAEFB1E0AC
:104FA0000E944F350E945C35AAEFB1E00E94653542
:104FB0000E94723590913D0180913C01A6E3B1E0E1
:104FC0008D939C93A7E2B1E08C918F5F8C93A6E3C5
:104FD000B1E08D919C91A0EAB4E08D939C93AAEFEF
:104FE000B1E0EEE7F5E80E9405390E947D38E0EA7D
:104FF000F4E0AAEFB1E00E9446350E94183AAAEF09
:10500000B1E00E944F350E945C35AAEFB1E00E94EA
:1050100065350E9472350E941407E2EFF4E80E94A1
:1050200005390E9455350E945C3581E0809333013B
:10503000009133010A3018F011F00C943B28E3E39F
:10504000F1E0A190BB24E4E4F3E0EA0DFB1DA0E84D
:10505000BFE00E94163A0E944D35E8E4FCE70E944A
:1050600005390E945535A3E3B1E08C918F5F8C9395
:1050700010F40C9418280E945C35ECEFF4E80E94C0
:1050800005390E9455350E945C35E8E0F5E80E943C
:1050900005390E94553581E0809333010091330139
:1050A000043118F011F00C947128E8E4FCE70E9438
:1050B00005390E945535E3E3F1E0A190BB24E0E51A
:1050C000F3E0EA0DFB1DA0E8BFE00E94163A0E9443
:1050D0004D35A3E3B1E08C918F5F8C9310F40C9469
:1050E0004E280E945C350E945C350E94EB07E0E18F
:1050F000F5E80E9405390E945535E3E4F3E0A0E8A5
:10510000BFE00E94A2390E944D35E8E4FCE70E940E
:1051100005390E945535E8E5F2E0A0E8BFE00E94BD
:10512000183B0E94DC350E944D35E8E4FCE70E9404
:1051300005390E945535E7E5F2E0A0E8BFE00E949E
:10514000A2390E944D35E8E4FCE70E9405390E942F
:105150005535EDEAF3E0A0E8BFE00E9492390E94E5
:105160004D35E8E4FCE70E9405390E945535EFEA29
:10517000F3E0A0E8BFE00E9492390E944D35E8E4D8
:10518000FCE70E9405390E945535E8EEF4E0A0E8FE
:10519000BFE00E9492390E944D350E945C35E0E1EB
:1051A000F5E80E9405390E946B35E3E4F3E0A0E8DE
:1051B000BFE00E94A2390E946335E8E4FCE70E9448
:1051C00005390E946B35E8E5F2E0A0E8BFE00E94F7
:1051D000183B0E94DC350E946335E8E4FCE70E943E
:1051E00005390E946B35E7E5F2E0A0E8BFE00E94D8
:1051F000A2390E946335E8E4FCE70E9405390E9469
:105200006B35EDEAF3E0A0E8BFE00E9492390E941E
:105210006335E8E4FCE70E9405390E946B35EFEA4C
:10522000F3E0A0E8BFE00E9492390E946335E8E411
:10523000FCE70E9405390E946B35E8EEF4E0A0E837
:10524000BFE00E9492390E9463350E947235089532
:10525000A6E2B1E08C9183FB16F00C94042B7091C4
:105260002601777F70932601EAE8F5E80E94053968
:105270000E9455350E945C350E94C936A1E1B1E01B
:105280000E944F35EEE1F4E80E9405390E94553541
:105290000E94C936A8E0B1E00E944F350E945C35FB
:1052A000A3E4B3E08C91A4EBB4E08D9388278C93B6
:1052B000E2E4F4E80E9405390E945535E4E9F5E896
:1052C0000E9405390E945535E8E4FCE70E94053943
:1052D0000E945535E4EBF4E0A0E8BFE00E94183AE4
:1052E0000E944D350E945C35E2E4F4E80E940539E5
:1052F0000E946B35E4E9F5E80E9405390E946B35A0
:10530000E8E4FCE70E9405390E946B35E4EBF4E029
:10531000A0E8BFE00E94183A0E9463350E947235EF
:105320008091570280931F018FE0809357020E9463
:105330001407E2EFF4E80E9405390E9455350E94F7
:105340005C3581E080933301009133010A3018F01D
:1053500011F00C94C729E3E3F1E0A190BB24E4E44D
:10536000F3E0EA0DFB1DA0E8BFE00E94163A0E94A0
:105370004D35E8E4FCE70E9405390E945535A3E36A
:10538000B1E08C918F5F8C9310F40C94A4290E944F
:105390005C35ECEFF4E80E9405390E9455350E9417
:1053A0005C35E8E0F5E80E9405390E94553581E05A
:1053B0008093330100913301043118F011F00C9403
:1053C000FD29E8E4FCE70E9405390E945535E3E336
:1053D000F1E0A190BB24E0E5F3E0EA0DFB1DA0E8BD
:1053E000BFE00E94163A0E944D35A3E3B1E08C91D4
:1053F0008F5F8C9310F40C94DA290E945C350E9424
:10540000EB0780911F0180935702ADE2B1E08C91D0
:105410008F5F8C93E8E9F5E80E9405390E945535C5
:10542000EDE2F1E0A0E8BFE00E94A2390E944D3514
:105430000E945C35ADE2B1E00C9145E00E94953AE6
:105440008C9300912D01003011F00C943C2A709146
:105450009D037F7770939D03709126017F7E7093EB
:10546000260180E090E0A1E5B2E08D939C937091DD
:105470009D037D7F70939D03A8E5B2E0E4E1FBE727
:105480000E9405390E94A83CE8E5F2E00E94183B22
:105490000E944D3CEDE0F0E0A8E5B2E00E945E3AEB
:1054A000E6E0F0E0A8E5B2E094E07BE70E947D3A18
:1054B000E0E1F5E80E9405390E945535E3E4F3E0A8
:1054C000A0E8BFE00E94A2390E944D35E8E4FCE765
:1054D0000E9405390E945535E8E5F2E0A0E8BFE0FA
:1054E0000E94183B0E94DC350E944D35E8E4FCE741
:1054F0000E9405390E945535E6EAF5E80E94053913
:105500000E945535E8E4FCE70E9405390E945535B4
:10551000EDEAF3E0A0E8BFE00E9492390E944D3529
:10552000E8E4FCE70E9405390E945535EFEAF3E014
:10553000A0E8BFE00E9492390E944D35E8E4FCE704
:105540000E9405390E945535E8EEF4E0A0E8BFE07E
:105550000E9492390E944D350E945C35E0E1F5E8E9
:105560000E9405390E946B35E3E4F3E0A0E8BFE058
:105570000E94A2390E946335E8E4FCE70E940539E5
:105580000E946B35E8E5F2E0A0E8BFE00E94183B1E
:105590000E94DC350E946335E8E4FCE70E9405398F
:1055A0000E946B35E6EAF5E80E9405390E946B35EA
:1055B000E8E4FCE70E9405390E946B35EDEAF3E070
:1055C000A0E8BFE00E9492390E946335E8E4FCE75E
:1055D0000E9405390E946B35EFEAF3E0A0E8BFE0D6
:1055E0000E9492390E946335E8E4FCE70E94053985
:1055F0000E946B35E8EEF4E0A0E8BFE00E9492392B
:105600000E9463350E9472350895A6E2B1E08C9144
:1056100083FB16F00C94E12C70912601777F709338
:105620002601EAEAF5E80E9405390E9455350E94F4
:105630005C350E94C936A1E1B1E00E944F35EEE130
:10564000F4E80E9405390E9455350E94C936A8E049
:10565000B1E00E944F350E945C35809157028093E3
:105660001F018EE080935702A3E4B3E08C91A4EB7A
:10567000B4E08D9388278C93E2E4F4E80E94053926
:105680000E945535E4E9F5E80E9405390E94553538
:10569000E8E4FCE70E9405390E945535E4EBF4E0AC
:1056A000A0E8BFE00E94183A0E944D350E945C3588
:1056B000E2E4F4E80E9405390E946B35E4E9F5E87C
:1056C0000E9405390E946B35E8E4FCE70E94053929
:1056D0000E946B35E4EBF4E0A0E8BFE00E94183ACA
:1056E0000E9463350E9472350E941407E2EFF4E8CD
:1056F0000E9405390E9455350E945C3581E08093F7
:105700003301009133010A3018F011F00C94A42BEE
:10571000E3E3F1E0A190BB24E4E4F3E0EA0DFB1D38
:10572000A0E8BFE00E94163A0E944D35E8E4FCE78D
:105730000E9405390E945535A3E3B1E08C918F5F3B
:105740008C9310F40C94812B0E945C35ECEFF4E800
:105750000E9405390E9455350E945C35E8E0F5E865
:105760000E9405390E94553581E0809333010091F4
:105770003301043118F011F00C94DA2BE8E4FCE763
:105780000E9405390E945535E3E3F1E0A190BB2466
:10579000E0E5F3E0EA0DFB1DA0E8BFE00E94163A49
:1057A0000E944D35A3E3B1E08C918F5F8C9310F490
:1057B0000C94B72B0E945C350E94EB0780911F016F
:1057C00080935702ADE2B1E08C918F5F8C93E8E952
:1057D000F5E80E9405390E945535EDE2F1E0A0E8B8
:1057E000BFE00E94A2390E944D350E945C35ADE2B7
:1057F000B1E00C9145E00E94953A8C9300912D0107
:10580000003011F00C94192C70919D037F7B7093E4
:105810009D03709126017F7E7093260180E090E0C9
:10582000A1E5B2E08D939C9370919D037D7F709371
:105830009D03A8E5B2E0E4E1FBE70E9405390E9480
:10584000A83CE8E5F2E00E94183B0E944D3CEDE0E8
:10585000F0E0A8E5B2E00E945E3AE6E0F0E0A8E5FC
:10586000B2E094E07BE70E947D3AE0E1F5E80E9437
:1058700005390E945535E3E4F3E0A0E8BFE00E945B
:10588000A2390E944D35E8E4FCE70E9405390E94E8
:105890005535E8E5F2E0A0E8BFE00E94183B0E9421
:1058A000DC350E944D35E8E4FCE70E9405390E9492
:1058B0005535E2EBF5E80E9405390E945535E8E4DC
:1058C000FCE70E9405390E945535EDEAF3E0A0E8B7
:1058D000BFE00E9492390E944D35E8E4FCE70E9447
:1058E00005390E945535EFEAF3E0A0E8BFE00E94D9
:1058F00092390E944D35E8E4FCE70E9405390E9488
:105900005535E8EEF4E0A0E8BFE00E9492390E942D
:105910004D350E945C35E0E1F5E80E9405390E94B2
:105920006B35E3E4F3E0A0E8BFE00E94A2390E94F7
:105930006335E8E4FCE70E9405390E946B35E8E531
:10594000F2E0A0E8BFE00E94183B0E94DC350E9414
:105950006335E8E4FCE70E9405390E946B35E2EB11
:10596000F5E80E9405390E946B35E8E4FCE70E94E7
:1059700005390E946B35EDEAF3E0A0E8BFE00E9434
:1059800092390E946335E8E4FCE70E9405390E94E1
:105990006B35EFEAF3E0A0E8BFE00E9492390E9485
:1059A0006335E8E4FCE70E9405390E946B35E8EEB8
:1059B000F4E0A0E8BFE00E9492390E9463350E94A3
:1059C00072350895A6E2B1E08C9183FB16F00C9439
:1059D000D52E70912601777F70932601E6EBF5E8CE
:1059E0000E9405390E9455350E945C350E94C936D7
:1059F000A1E1B1E00E944F35EEE1F4E80E940539E3
:105A00000E9455350E94C936A8E0B1E00E944F358A
:105A10000E945C35A3E4B3E08C91A4EBB4E08D93D9
:105A200088278C93E2E4F4E80E9405390E945535FA
:105A3000E4E9F5E80E9405390E945535E8E4FCE701
:105A40000E9405390E945535E4EBF4E0A0E8BFE080
:105A50000E94183A0E944D350E945C35E2E4F4E859
:105A60000E9405390E946B35E4E9F5E80E9405398A
:105A70000E946B35E8E4FCE70E9405390E946B3513
:105A8000E4EBF4E0A0E8BFE00E94183A0E9463351E
:105A90000E9472358091570280931F0100912B0163
:105AA000003011F00C94612D8DE080935702A9EE27
:105AB000B1E0E0ECF5E80E9405390E947D380C94D5
:105AC0006C2D8CE080935702A9EEB1E0E4E9F5E893
:105AD0000E9405390E947D380E941407E2EFF4E825
