:100000000C94460018950000189500001895000003
:10001000189500000C94CB0318950000189500006B
:10002000189500001895000018950000189500001C
:1000300018950000189500000C94A902189500006E
:100040000C94D701189500000C94AE001895000090
:1000500018950000189500001895000018950000EC
:1000600018950000189500001895000018950000DC
:1000700018950000189500000C9442011895000096
:100080001895000018950000189500008FEF8DBF9F
:10009000C0E8E8E94E2E80E18EBFD0E1FFE05F2EA0
:1000A000A89584B7082E807E84BF88E1992781BDFA
:1000B00091BDEEEFFFE0A0E0B1E088278D9331978E
:1000C000E9F787E689B980E08093900088E18AB9F2
:1000D00080E08093980087E68093990088E1809380
:1000E0009A006624A59AA69AA79A709164007460F3
:1000F00070936400BC9ABD9ABE9ABF9ABB9A8C98C2
:100100008D988E988F981498949A959A969A979A13
:1001100087E083BF77B7716077BF87E083BF80E0F8
:100120008FBD84E08EBD77B7746077BF84E08EBDED
:10013000579A70919A00706870939A0079B77061BD
:1001400079BF8AB78C7F81608ABFA098A198A89A4E
:10015000A99AA49AAC9878940C9452330F921F9257
:100160002F923F924F925F927F92AF92BF920F93E6
:100170001F932F933F934F935F936F937F938F932F
:100180009F93AF93BF93CF93DF93EF93FF938FB77B
:100190008F938BB78F9388278BBFAFE6B8E08CB176
:1001A0008C9384E2482F00916F08041711F00C948F
:1001B000E4007091A80372607093A803AEECB7E0FE
:1001C00088278C930C9424010D3011F00C940C01B1
:1001D000A8EAB3E08C9181FB16F00C940A017091AF
:1001E000A8037D7F7093A80380E0AEECB7E00E9487
:1001F00036358D9388278C93EEECF7E0A0E7B8E0D6
:100200000E94393A7091A80371607093A80377B780
:10021000716077BF0C9424010F3118F011F00C9429
:1002200013010C942401A8EAB3E08C9181FB16F031
:100230000C942401AFE6B8E08C91AEECB7E00E94DC
:1002400036358D9388278C938F918BBF8F918FBF7D
:10025000FF91EF91DF91CF91BF91AF919F918F91DE
:100260007F916F915F914F913F912F911F910F91CE
:10027000BF90AF907F905F904F903F902F901F90D6
:100280000F9018950F921F922F923F924F925F926C
:100290007F92AF92BF920F931F932F933F934F93F1
:1002A0005F936F937F938F939F93AF93BF93CF93FE
:1002B000DF93EF93FF938FB78F938BB78F9388273D
:1002C0008BBFA3E5B9E080919C008C9384E2482F1A
:1002D00000915309041711F00C94790170911109E0
:1002E000706870931109A2E1B9E088278C930C948F
:1002F000B9010D3011F00C94A101A1E1B9E08C918C
:1003000087FB16F00C949F01709111097F77709311
:10031000110980E0A2E1B9E00E9436358D9388276B
:100320008C93E2E1F9E0A4E5B9E00E94393A7091DA
:10033000110970647093110977B7716077BF0C94DD
:10034000B9010F3118F011F00C94A8010C94B90107
:10035000A1E1B9E08C9187FB16F00C94B901A3E5FB
:10036000B9E08C91A2E1B9E00E9436358D938827DF
:100370008C938F918BBF8F918FBFFF91EF91DF9106
:10038000CF91BF91AF919F918F917F916F915F912D
:100390004F913F912F911F910F91BF90AF907F9000
:1003A0005F904F903F902F901F900F9018950F9255
:1003B0001F922F923F924F925F927F92AF92BF9285
:1003C0000F931F932F933F934F935F936F937F935D
:1003D0008F939F93AF93BF93CF93DF93EF93FF934D
:1003E0008FB78F938BB78F9388278BBF74E672BFBD
:1003F000AEE9B3E08C918F5F8C93AEE9B3E00C91E2
:1004000048E00E94753A8C9300919E03003011F0F1
:100410000C943D02AFE9B3E00C9140E20E94753AC2
:100420008C93EAE5F6E60E94F538A4EAB3E08C91F5
:100430009927A0EAB3E00E94AC3880919F03A0EA1C
:10044000B3E00E94E0380E94D6380C9008226894ED
:1004500009F4E894ADE9B3E08C9182F98C93ADE9AD
:10046000B3E08C9182FBA5E3B0E08C9185F98C938D
:10047000AFE9B3E08C918F5F8C93A8EAB3E08C91E5
:1004800087FB16F00C945F02A9EAB3E00E94EF34F8
:10049000ABEAB3E04D915C91A9EAB3E00D911C91F8
:1004A0000417150711F00C945F027091A803706493
:1004B0007093A8037091A8037F777093A803A8EAAC
:1004C000B3E08C9185FB16F00C948B02A1EBB3E0AA
:1004D0000E94EF34A1EBB3E00D911C9144EF51E089
:1004E0000E941C35A1EBB3E00D931C93A1EBB3E08C
:1004F0000D911C91003050E0150711F00C948B0207
:1005000080E080936A0380E080939B037091A8034E
:100510007F7D7093A8038F918BBF8F918FBFFF91C9
:10052000EF91DF91CF91BF91AF919F918F917F918B
:100530006F915F914F913F912F911F910F91BF90BC
:10054000AF907F905F904F903F902F901F900F90B3
:1005500018950F921F922F923F924F925F927F9227
:10056000AF92BF920F931F932F933F934F935F933D
:100570006F937F938F939F93AF93BF93CF93DF93AB
:10058000EF93FF938FB78F938BB78F9388278BBF92
:100590008CED9BE09DBD8CBD0E94B936E8E0F1E09A
:1005A000FA93EA93E1E1F1E00E942438ADEBB3E085
:1005B0000D931D932D933D93ADEBB3E00E94E23478
:1005C000EDEBF3E0A1E1B1E00E9414380E94CC36DB
:1005D000EDEBF3E0A8E0B1E00E941C380E94C436C5
:1005E0007091A80370617093A803709126017062E6
:1005F00070932601ADEBB3E00D911D912D913C91CF
:10060000AFE4B2E04D915C91662777270E946F3589
:10061000A5EBB3E00D931D932D933D9340E050E087
:1006200060E070E0A5EBB3E00D911D912D913C9140
:100630000E946F3911F00C94220370919D03716038
:1006400070939D03ADEBB3E00D911D912D913C9105
:1006500044E853E060E070E00E946A39A5EBB3E043
:100660000D931D932D933D93A5EBB3E00D911D913B
:100670002D913C91A4EAB5E04D915D916D917C91F5
:100680000E946F35A5EBB3E00D931D932D933D9321
:1006900040E050E060E070E0A5EBB3E00D911D910B
:1006A0002D913C910E946F3911F00C945C03709174
:1006B000A80374607093A803ADE9B3E08C9180FB4C
:1006C00016F00C948B03ADEBB3E00D911D912D91C1
:1006D0003C91ADE4B2E04D915C91662777270E9492
:1006E0006F35A5EBB3E00D931D932D933D9340E043
:1006F00050E060E070E0A5EBB3E00D911D912D910D
:100700003C910E946F3911F00C948B0370919D0302
:10071000726070939D03A6E2B1E08C9184FB16F0A9
:100720000C94A903AEE2B1E08C918F5F8C93AEE2A2
:10073000B1E00C914AE00E94753A8C9300912E0131
:10074000003011F00C94A903709126017860709329
:1007500026018F918BBF8F918FBFFF91EF91DF911A
:10076000CF91BF91AF919F918F917F916F915F9149
:100770004F913F912F911F910F91BF90AF907F901C
:100780005F904F903F902F901F900F901895089575
:100790000895089508950F921F922F923F924F92BD
:1007A0005F927F92AF92BF920F931F932F933F93CD
:1007B0004F935F936F937F938F939F93AF93BF9369
:1007C000CF93DF93EF93FF938FB78F938BB78F9375
:1007D00088278BBFABE9B3E08C918F5F8C930C9B28
:1007E0000C94F503AF9A0C94F603AF980C9B0C9401
:1007F0002F04A9E6B3E080B38C9394E0A9E6B3E0BC
:100800000E948438AAE6B3E08C918F5F8C9380912C
:100810006903AAE6B3E0AD90BB24AAE6B3E0AA0D53
:10082000BB1D8C93AAE6B3E00C914EE10E94753A91
:100830008C9300916A03013011F00C9424047091A0
:10084000A80370627093A80300916A03003011F04E
:100850000C942F04709126017160709326018F9182
:100860008BBF8F918FBFFF91EF91DF91CF91BF91A0
:10087000AF919F918F917F916F915F914F913F9138
:100880002F911F910F91BF90AF907F905F904F90ED
:100890003F902F901F900F901895AD987091650024
:1008A0007B7F70936500C39A81E080933201E8ED0D
:1008B000FAE70E94F5380E9445350E944C35A0E8C1
:1008C000BFE0E8EEFAE70E94F5380E946D380E941A
:1008D0003D350E944C35A0E8BFE0ECEFFAE70E94FE
:1008E000F5380E946D380E943D350E944C35A0E8D5
:1008F000BFE0E4E0FBE70E94F5380E946D380E94FB
:100900003D350E944C3581E08093A40381E08093C3
:100910004303E0E0F0E0ADE4B2E00E946D3AE4E1D0
:10092000FBE70E94F5380E944535EDE4F2E0A0E8CF
:10093000BFE00E9482390E943D350E944C35E2E0C2
:10094000F0E0A3E5B2E00E946D3AEEE3FBE70E941F
:10095000F5380E944535E3E5F2E0A0E8BFE00E94EB
:1009600082390E943D350E944C35E4E0F0E0A5E577
:10097000B2E00E946D3AE6E6FBE70E94F5380E947D
:100980004535E5E5F2E0A0E8BFE00E9482390E942B
:100990003D350E944C35A8E5B2E0E6E0F0E094E099
:1009A0000E946E3AE4E9FBE70E94F5380E94453563
:1009B000E8E5F2E0A0E8BFE00E94F83A0E94CC35FA
:1009C0000E943D350E944C3580E08093030480E016
:1009D0008093040480E08093050480E08093060403
:1009E00080E08093070481E080931A0100911A014E
:1009F000003218F011F00C94210580E090E0AAE19B
:100A0000B1E0AD90BB24ACE0B4E0AA0CBB1CAA0DD5
:100A1000BB1D8D939C9380E090E0AAE1B1E0AD9086
:100A2000BB24ACE9B4E0AA0CBB1CAA0DBB1D8D9382
:100A30009C93AAE1B1E08C918F5F8C9310F40C949D
:100A4000F604E0E2F0E0AEEDB4E00E946B3AE0EBD9
:100A5000FBE70E94F5380E944535EEEDF4E0A0E892
:100A6000BFE00E9492390E943D350E944C35A3E5BB
:100A7000B2E08D919C91AFE4B2E08D939C9380E0C5
:100A800080932A01EAE0F0E0ADEAB3E00E946D3A1B
:100A9000ECEBFBE70E94F5380E944535EDEAF3E008
:100AA000A0E8BFE00E9482390E943D350E944C358B
:100AB000ECE0F0E0AFEAB3E00E946D3AE8ECFBE76F
:100AC0000E94F5380E944535EFEAF3E0A0E8BFE068
:100AD0000E9482390E943D350E944C35E4EDFBE7CF
:100AE0000E94F5380E944535EBE2F1E0A0E8BFE056
:100AF0000E9492390E943D350E944C35EEE0F0E0B4
:100B0000A3EBB3E00E946D3AEEEDFBE70E94F538EF
:100B10000E944535E3EBF3E0A0E8BFE00E94823994
:100B20000E943D350E944C35A3EBB3E08D919C9122
:100B3000A6EBB4E08D939C93E0E1F0E0A9EBB3E089
:100B400094E00E946E3AE9EBF3E0A0E8BFE00E9477
:100B500014380E943D350E944C35E9EBF3E0A0E8E3
:100B6000BFE00E941C380E943D350E944C35E9EBE5
:100B7000F3E0A1E1B1E00E9414380E94CC36E9EB29
:100B8000F3E0A8E0B1E00E941C380E94C436EEEE0B
:100B9000FBE70E94F5380E9445350E944C350E94C3
:100BA000B936A8E0B1E00E943F350E944C350E9462
:100BB000B936A1E1B1E00E943F350E944C358AE789
:100BC00093E0A1E0B4E08D939C93E1E2F0E0AFED1F
:100BD000B4E094E00E946E3AE5E2F0E0A3EEB4E007
:100BE00094E00E946E3AEEEFFBE70E94F5380E9417
:100BF0004535EFEDF4E0A0E8BFE00E9485390E94A2
:100C00003D35E8E0FCE70E94F5380E944535EFED00
:100C1000F4E0AAEFB1E00E941438AAEFB1E00E941C
:100C20003F350E944C35EAE0FCE70E94F5380E940F
:100C30004535E3EEF4E0A0E8BFE00E9485390E946C
:100C40003D35E8E0FCE70E94F5380E944535E3EECB
:100C5000F4E0AAEFB1E00E941438AAEFB1E00E94DC
:100C60003F350E944C3583E680932C01AAEEB4E018
:100C70008D919C91A8EEB4E08D939C93A8EEB4E086
:100C80000E94EF34E4E1FCE70E94F5380E9445350C
:100C9000E8EEF4E0A0E8BFE00E9482390E943D3512
:100CA0000E944C35E9E2F0E0A4EAB5E094E00E944D
:100CB0006E3AEEE1FCE70E94F5380E944535E4EA21
:100CC000F5E0A0E8BFE00E9485390E943D350E9412
:100CD0004C35EDE2F0E0AAEAB5E00E946D3AE8E2B8
:100CE000FCE70E94F5380E944535EAEAF5E0A0E805
:100CF000BFE00E9482390E943D350E944C35089524
:100D0000E2E3FCE70E94F5380E9445350E944C352D
:100D1000EFE2F0E0ACEAB5E00E946B3A80E080934D
:100D20001B0188E08093A403A8EAB3E08C9180FBC8
:100D300016F00C94B4067091A8037E7F7093A803FC
:100D4000ECE4FCE70E94F5380E944535A0E7B8E0E6
:100D50000E943F350E944C350E941D0BEFE2F0E0EF
:100D6000ACEAB5E00E946B3AA6E2B1E08C9185FB5B
:100D700016F00C94DF06709126017F7D709326019A
:100D8000AAE1B1E08C918F5F8C93ABE1B1E08C91E3
:100D90008F5F8C93AAE1B1E00C914AE00E94753A12
:100DA0008C9300911A01003011F00C94DF06E2E5FB
:100DB000FCE70E94F5380E9445350E944C350091B1
:100DC000AC05013011F00C949406E4E7FCE70E94B6
:100DD000F5380E9445350E944C3581E08093A4038C
:100DE0000895A881B9818D919C91ABEAB3E08D9370
:100DF0009C9380E090E0A9EAB3E08D939C9370917E
:100E0000A8037F7B7093A8037091A8037068709308
:100E1000A803A8EAB3E08C9186FB16F40C941307A0
:100E2000A8950C940907089584E28093450385E50D
:100E300080934603A7E5B2E08C9180FBA7E4B3E082
:100E40008C9180F98C93A7E5B2E08C9181FBA7E4AB
:100E5000B3E08C9181F98C93A7E5B2E08C9182FB91
:100E6000A7E4B3E08C9182F98C93A7E5B2E08C9172
:100E700083FBA7E4B3E08C9183F98C93A3E4B3E004
:100E80008C9180FBA7E4B3E08C9184F98C93A3E46C
:100E9000B3E08C9181FBA7E4B3E08C9185F98C934E
:100EA000A3E4B3E08C9182FBA7E4B3E08C9186F9D4
:100EB0008C9300912B01003011F00C946607A7E48D
:100EC000B3E08C918F778C930C946B07A7E4B3E01D
:100ED0008C9180688C938091E70480934803E8E5C7
:100EE000F2E0ACE3B1E00E943E3A80913C01809395
:100EF000490380913D0180934A0380913E01809394
:100F00004B0380913F0180934C0388E090E0A5E47F
:100F1000B3E00E94AF3AA6E3B1E00D931C93A6E3C1
:100F2000B1E011968C91ADE4B3E08C93A6E3B1E00F
:100F30008C91AEE4B3E08C9381E080931D0180E05E
:100F400080931A0100911A01093018F011F00C94E5
:100F5000EA0700911A0141E0040FABE1B1E00C9304
:100F6000ABE1B1E0AD90BB24A4E4B3E0AA0DBB1D9E
:100F70008C9180931C0100911C014FE00423ADE192
:100F8000B1E0AD90BB24A0E5B3E0AA0DBB1D0C936E
:100F9000ADE1B1E08C918F5F8C9394E0ACE1B1E076
:100FA0000E94843880911C01ADE1B1E0AD90BB247A
:100FB000A0E5B3E0AA0DBB1D8C93ADE1B1E08C912F
:100FC0008F5F8C93AAE1B1E08C918F5F8C9310F4CA
:100FD0000C94A20708957091650074607093650089
:100FE00084E690E0D2018D939C9382E00E943A388F
:100FF0000E94F106229682E00E94363881E08093BA
:10100000330100913301043118F011F00C946C0895
:10101000A3E3B1E0AD90BB24A0E5B3E0AA0DBB1DF6
:101020008C9180FBA8E3B0E08C9184F98C93A3E3CE
:10103000B1E0AD90BB24A0E5B3E0AA0DBB1D8C913F
:1010400081FBA8E3B0E08C9185F98C93A3E3B1E038
:10105000AD90BB24A0E5B3E0AA0DBB1D8C9182FB33
:10106000A8E3B0E08C9186F98C93A3E3B1E0AD9056
:10107000BB24A0E5B3E0AA0DBB1D8C9183FBA8E3C4
:10108000B0E08C9187F98C93AE9AC39888E090E099
:10109000D2018D939C9382E00E943A380E94F1061F
:1010A000229682E00E943638AE98C39A84E090E09F
:1010B000D2018D939C9382E00E943A380E94F106FF
:1010C000229682E00E943638A3E3B1E08C918F5FD4
:1010D0008C9310F40C940108709165007B7F7093E1
:1010E000650008950C9B0C94E308A9E6B3E080B377
:1010F0008C9394E0A9E6B3E00E948438E8E8FCE72A
:101100000E94F5380E944535E9E6F3E0A0E8BFE02B
:101110000E94063A0E943D350E944C35AAE6B3E093
:101120008C918F5F8C9380916903AAE6B3E0AD90B8
:10113000BB24AAE6B3E0AA0DBB1D8C93AAE6B3E0DC
:101140000C914CE00E94753A8C9300916A03003038
:1011500011F00C94E308ECE8FCE70E94F5380E94DB
:1011600045350E944C3581E0809333010091330175
:101170000C3018F011F00C94E308E3E3F1E0A0E880
:10118000BFE00E9492390E943D35E8E0FCE70E94F2
:10119000F5380E944535E3E3F1E0A190BB24EAE68F
:1011A000F3E0EA0DFB1DA0E8BFE00E94063A0E94B2
:1011B0003D350E944C35A3E3B1E08C918F5F8C9359
:1011C00010F40C94B608089580E080939C03A3E388
:1011D000B0E08C9180FBACE9B3E08C9180F98C930A
:1011E000A3E3B0E08C9181FBACE9B3E08C9181F991
:1011F0008C93ACE9B3E00C9100FB002700F9442785
:10120000ADE9B3E08C9184FB40F9041711F40C9420
:101210006009E0E9FCE70E94F5380E944535ACE939
:10122000B3E08C9180FBA0E8BFE00E94E6388D938C
:1012300088278C930E943D350E944C3584E690E0CF
:10124000D2018D939C9382E00E943A380E94F1066D
:10125000229682E00E9436380027A3E3B0E08C910A
:1012600080FB00F9ACE9B3E08C9180FB442740F9A6
:10127000041711F00C944F09ACE9B3E08C9180FB9A
:10128000ADE9B3E08C9184F98C93E4E9FCE70E942A
:10129000F5380E9445350E944C350C946009ECE904
:1012A000FCE70E94F5380E9445350E944C35A3E3C7
:1012B000B0E08C9180FBACE9B3E08C9180F98C9329
:1012C000ACE9B3E00C9101FB002700F94427ADE93C
:1012D000B3E08C9183FB40F9041711F40C94C70917
:1012E000E6EAFCE70E94F5380E944535ACE9B3E038
:1012F0008C9181FBA0E8BFE00E94E6388D9388279F
:101300008C930E943D350E944C3584E690E0D201DA
:101310008D939C9382E00E943A380E94F1062296B7
:1013200082E00E9436380027A3E3B0E08C9181FB75
:1013300000F9ACE9B3E08C9181FB442740F9041734
:1013400011F00C94B609ACE9B3E08C9181FBADE9E6
:10135000B3E08C9183F98C93EAEAFCE70E94F538BC
:101360000E9445350E944C350C94C709E2EBFCE71E
:101370000E94F5380E9445350E944C35A3E3B0E049
:101380008C9181FBACE9B3E08C9181F98C93ACE951
:10139000B3E08C918C9391E089278C93ACE9B3E016
:1013A0008C918C9391E089278C93009143030130B9
:1013B00011F00C94780A00919C03023011F00C9407
:1013C000220AECEBFCE70E94F5380E9445350E94AA
:1013D0004C3582E08093430382E08093A403A5E52B
:1013E000B2E08D919C91AFE4B2E08D939C937091AB
:1013F0009D03706470939D0370919D037F7D709336
:101400009D0370919D037F7770939D0370912B01D5
:101410007E7F70932B01709126017061709326017D
:101420007091260178607093260180E080932D01F1
:1014300070919D037E7F70939D0370919D037D7FCE
:1014400070939D0300919C03003081E009F080E0DF
:101450008F9300919C03013081E009F080E09F911F
:10146000892B882311F40C94760AEEECFCE70E9499
:10147000F5380E9445350E944C3583E08093430344
:1014800083E08093A40370919D03706870939D0323
:1014900070919D037F7D70939D0370919D037F7B71
:1014A00070939D0380E080932D0170919D037E7F5A
:1014B00070939D0370919D037D7F70939D03A5E5BF
:1014C000B2E08D919C91AFE4B2E08D939C937091CA
:1014D0002B017E7F70932B017091260170617093B8
:1014E0002601709126017860709326010C941C0BE4
:1014F000023011F00C94CB0A00919C03033011F0E0
:101500000C94C90AEAEEFCE70E94F5380E944535C2
:101510000E944C3581E080934303A3E5B2E08D91B6
:101520009C91AFE4B2E08D939C9370919D037062A7
:1015300070939D0370919D037F7770939D037091CD
:101540009D037F7B70939D0380E080932D017091BC
:101550009D037E7F70939D0370919D037D7F7093AB
:101560009D0300912B01013011F00C94BC0A8BE01B
:101570008093A4030C94BF0A81E08093A40370912C
:101580002601706170932601709126017860709336
:1015900026010C941C0B033011F00C941C0B0091D1
:1015A0009C03033011F00C941C0BEEEFFCE70E943F
:1015B000F5380E9445350E944C3581E08093430305
:1015C000A3E5B2E08D919C91AFE4B2E08D939C9342
:1015D00070919D03706270939D0370919D037F775E
:1015E00070939D0370919D037F7B70939D0380E0BA
:1015F00080932D0170919D037E7F70939D03709168
:101600009D037D7F70939D0300912B01013011F0AC
:101610000C940F0B8BE08093A4030C94120B81E0CD
:101620008093A403709126017061709326017091DC
:1016300026017860709326010895A0E7B8E00E9423
:101640003F350E944C35E0E7F8E09CE200E130E2F3
:10165000AEEAB5E00E94C33AADEAB5E02C93AEEA3B
:10166000B5E00E94853A082F063011F00C9455170A
:10167000EEEAF5E0A0E4B1E00E94393AE0E4F1E0FE
:10168000A0E4B1E00E94CA388FEF8093E801A0E4A3
:10169000B1E0E8E1FDE70E94F5380E948B3A11F0D5
:1016A0000C94930B80E08093E801A7E4B1E0E0E2C2
:1016B000FDE70E94F5380E946D38AAEFB1E0E8EE30
:1016C000FAE70E94F5380E946D38EAEFF1E0A7E4EE
:1016D000B1E00E9436350E94393AA7E4B1E00E9499
:1016E0003635E4E3FDE70E94F5380E946D38AAEF35
:1016F000B1E0E4E0FBE70E94F5380E946D38EAEFC4
:10170000F1E0A7E4B1E00E9436350E94393AA7E43F
:10171000B1E00E943635E2E4FDE70E94F5380E9410
:101720006D380C945317E4E4FDE70E94F5380E94ED
:101730008B3A11F00C94A80B80E08093E8010E9492
:10174000A118709126017260709326010C945317B2
:10175000ECE4FDE70E94F5380E948B3A11F00C94FE
:10176000DF0B0091AD05023011F00C94DA0BAFEBFA
:10177000B5E00E94D739ACEAB5E00C93EFE2F0E0B7
:10178000ACEAB5E07BE70E945A3A80E08093E8013A
:10179000A7E4B1E0E4E5FDE70E94F5380E946D386A
:1017A000ECEAF5E0A7E4B1E00E9436350E949239F8
:1017B0000C94DD0B84E08093E8010C945317E8E669
:1017C000FDE70E94F5380E948B3A11F00C941E0C34
:1017D0000091AD05023011F00C94190CAFEBB5E09F
:1017E0000E94D739AAE1B1E00C9300911A010131AE
:1017F00010F00C94140C80E08093E801A7E4B1E0B1
:10180000E0E7FDE70E94F5380E946D38EAE1F1E07B
:10181000A7E4B1E00E9436350E94923980911A0106
:101820008093A4030C94170C85E08093E8010C943A
:101830001C0C84E08093E8010C945317E8E8FDE762
:101840000E94F5380E948B3A11F00C94700C0091B4
:10185000AD05023011F00C946B0C80E08093E80130
:10186000AFEBB5E00E94D739A6E3B1E00D931C932E
:10187000A6E3B1E08D919C91A3E5B2E08D939C939A
:10188000E2E0F0E0A6E3B1E07BE70E945C3AA3E58A
:10189000B2E08D919C91AFE4B2E08D939C93A7E46C
:1018A000B1E0E0E9FDE70E94F5380E946D38E3E51C
:1018B000F2E0A7E4B1E00E9436350E948239A7E445
:1018C000B1E00E943635E0ECFDE70E94F5380E9459
:1018D0006D380C946E0C84E08093E8010C945317DF
:1018E000E4ECFDE70E94F5380E948B3A11F00C946D
:1018F000C20C0091AD05023011F00C94BD0C80E0DB
:101900008093E801AFEBB5E00E94D739A6E3B1E0E0
:101910000D931C93A6E3B1E08D919C91A5E5B2E0F7
:101920008D939C93E4E0F0E0A6E3B1E07BE70E94B6
:101930005C3AA5E5B2E08D919C91AFE4B2E08D9365
:101940009C93A7E4B1E0ECECFDE70E94F5380E941F
:101950006D38E5E5F2E0A7E4B1E00E9436350E947B
:101960008239A7E4B1E00E943635E0ECFDE70E9441
:10197000F5380E946D380C94C00C84E08093E80127
:101980000C945317E0E0FEE70E94F5380E948B3A72
:1019900011F00C940C0D0091AD05023011F00C9477
:1019A000070D80E08093E801AFEBB5E00E94D739E6
:1019B000A6E3B1E00D931C93A6E3B1E08D919C9159
:1019C000ADE4B2E08D939C93E0E0F0E0A6E3B1E0FB
:1019D0007BE70E945C3AA7E4B1E0E8E0FEE70E9402
:1019E000F5380E946D38EDE4F2E0A7E4B1E00E9422
:1019F00036350E948239A7E4B1E00E943635E0EC2A
:101A0000FDE70E94F5380E946D380C940A0D84E0C1
:101A10008093E8010C945317E6E3FEE70E94F53843
:101A20000E948B3A11F00C944F0D0091AD050230DD
:101A300011F00C944A0D80E08093E801AFEBB5E023
:101A40000E94953CEDE0F0E0ACE3B1E00E943E3A4C
:101A5000ECE3F1E0A8E5B2E00E943E3AE6E0F0E017
:101A6000ACE3B1E094E07BE70E945D3AA7E4B1E02B
:101A7000EEE3FEE70E94F5380E946D38E8E5F2E0FB
:101A8000A7E4B1E00E9436350E94F83A0E94CC35B6
:101A90000C944D0D84E08093E8010C945317E8E515
:101AA000FEE70E94F5380E948B3A11F00C948F0DDE
:101AB0000091AD05023011F00C948A0D80E0809306
:101AC000E801AFEBB5E00E94D739A6E3B1E00D9392
:101AD0001C93A6E3B1E08D919C91A3EBB3E08D93B1
:101AE0009C93EEE0F0E0A6E3B1E07BE70E945C3A75
:101AF000A7E4B1E0E0E6FEE70E94F5380E946D3809
:101B0000E3EBF3E0A7E4B1E00E9436350E948239AE
:101B10000C948D0D84E08093E8010C945317E6E853
:101B2000FEE70E94F5380E948B3A11F00C94B70D35
:101B300080E08093E801A7E4B1E0EEE8FEE70E94D0
:101B4000F5380E946D38E3E5F2E0A7E4B1E00E94C9
:101B500036350E948239A7E4B1E00E943635E0ECC8
:101B6000FDE70E94F5380E946D380C945317E0EBA6
:101B7000FEE70E94F5380E948B3A11F00C94DF0DBD
:101B800080E08093E801A7E4B1E0E8EBFEE70E9483
:101B9000F5380E946D38E5E5F2E0A7E4B1E00E9477
:101BA00036350E948239A7E4B1E00E943635E0EC78
:101BB000FDE70E94F5380E946D380C945317E0EE53
:101BC000FEE70E94F5380E948B3A11F00C94070E44
:101BD00080E08093E801A7E4B1E0E8EEFEE70E9430
:101BE000F5380E946D38EDE4F2E0A7E4B1E00E9420
:101BF00036350E948239A7E4B1E00E943635E0EC28
:101C0000FDE70E94F5380E946D380C945317E8E008
:101C1000FFE70E94F5380E948B3A11F00C94270ED2
:101C200080E08093E801A7E4B1E0E0E1FFE70E94F3
:101C3000F5380E946D38E8E5F2E0A7E4B1E00E94D3
:101C400036350E94F83A0E94CC350C945317E0E2E6
:101C5000FFE70E94F5380E948B3A11F00C94450E74
:101C600080E08093E801A7E4B1E0E0E1FFE70E94B3
:101C7000F5380E946D38E3EBF3E0A7E4B1E00E9491
:101C800036350E9482390C945317E8E2FFE70E9430
:101C9000F5380E948B3A11F00C94960E0091AD0528
:101CA000023011F00C94910E80E08093E801AFEBCC
:101CB000B5E00E94D739A6E3B1E00D931C93A7E4E9
:101CC000B1E0E0E3FFE70E94F5380E946D38E6E3FB
:101CD000F1E0A7E4B1E00E9436350E948239EEE3DC
:101CE000FFE70E94F5380E9445350E944C35A6E377
:101CF000B1E08D919C91D2018D939C9382E00E94E2
:101D00003A380E94F106229682E00E943638E2E4D8
:101D1000FFE70E94F5380E9445350E944C350C942F
:101D2000940E84E08093E8010C945317E6E4FFE7F7
:101D30000E94F5380E948B3A11F00C94B10E80E0AD
:101D40008093E80170919D03716070939D03A7E4F7
:101D5000B1E0EEE4FFE70E94F5380E946D380C9484
:101D60005317E2E6FFE70E94F5380E948B3A11F024
:101D70000C94FE0E0091AD05023011F00C94F90E9A
:101D8000AFEBB5E00E94D739AAE1B1E00C93009126
:101D90001A01023010F00C94F40E80E08093E801F8
:101DA00000911A01003011F00C94DD0E70912601A3
:101DB0007F77709326010C94E20E70912601706873
:101DC00070932601A7E4B1E0EAE6FFE70E94F53848
:101DD0000E946D38EAE1F1E0A7E4B1E00E943635F7
:101DE0000E9492390C94F70E85E08093E8010C94E0
:101DF000FC0E84E08093E8010C945317EEE7FFE7B4
:101E00000E94F5380E948B3A11F00C94390F009122
:101E1000AD05023011F00C94340FAFEBB5E00E9429
:101E2000D739AAE1B1E00C9380E08093E80180917A
:101E30001A018093DE04E0E2F0E0AEEDB4E07BE76F
:101E40000E945A3AA7E4B1E0E6E8FFE70E94F538BD
:101E50000E946D38EEEDF4E0A7E4B1E00E94363563
:101E60000E9492390C94370F84E08093E8010C941F
:101E70005317ECEAFFE70E94F5380E948B3A11F005
:101E80000C94570F80E08093E801A7E4B1E0E4EB05
:101E9000FFE70E94F5380E946D38EEEDF4E0A7E40C
:101EA000B1E00E9436350E9492390C945317EEEC43
:101EB000FFE70E94F5380E948B3A11F00C94B60FA0
:101EC00080E08093E8010091AD050F3111F00C9492
:101ED000B10F80E08093E801A7E4B1E0E6EDFFE711
:101EE0000E94F5380E946D3880E080931A0182E0EC
:101EF00080933301009133010F3118F011F00C94ED
:101F0000AA0FAAE1B1E08C918F5F8C93A3E3B1E0BB
:101F10000D91112741E150E00E944038ADE9B5E054
:101F2000A00FB11F0E941F3AABE1B1E00C9380916A
:101F30001B01AAE1B1E0AD90BB24AAE6B3E0AA0D73
:101F4000BB1D8C93A3E3B1E08C918F5F8C9310F455
:101F50000C947A0F709126017160709326010C9495
:101F6000B40F84E08093E8010C945317E2EFFFE78D
:101F70000E94F5380E948B3A11F00C9414100091D5
:101F8000AD05023011F00C940F10AFEBB5E00E94DC
:101F9000D739AAE1B1E00C9300911A01083418F086
:101FA00011F00C940A1080E08093E801AAE1B1E0FE
:101FB000AD90BB24ACE0B4E0AA0CBB1CAA0DBB1DC9
:101FC0008D919C91A6E3B1E08D939C93A7E4B1E041
:101FD000EAEFFFE70E94F5380E946D38EAE1F1E090
:101FE000A7E4B1E00E9436350E949239A7E4B1E03F
:101FF0000E943635EEEFFFE70E94F5380E946D38FB
:10200000E6E3F1E0A7E4B1E00E9436350E94083A29
:102010000C940D1085E08093E8010C94121084E07C
:102020008093E8010C945317E0E0F0E80E94F53843
:102030000E948B3A11F00C947D1080E08093E801AF
:102040000091AD05033011F00C947810AFEBB5E0C2
:102050000E94D739AAE1B1E00C9300911A0108342B
:1020600018F011F00C94731080E08093E801A0ED5B
:10207000B5E00E941F3AA6E3B1E00D931C93A6E3DE
:10208000B1E08D919C91AAE1B1E0AD90BB24ACE0B0
:10209000B4E0AA0CBB1CAA0DBB1D8D939C93A7E4B6
:1020A000B1E0E8E0F0E80E94F5380E946D38EAE11E
:1020B000F1E0A7E4B1E00E9436350E949239A7E42E
:1020C000B1E00E943635EEEFFFE70E94F5380E943E
:1020D0006D38E6E3F1E0A7E4B1E00E9436350E94F6
:1020E000083A0C94761085E08093E8010C947B10FC
:1020F00084E08093E8010C945317EAE1F0E80E9431
:10210000F5380E948B3A11F00C94981080E080937F
:10211000E80170912601706470932601A7E4B1E094
:10212000E2E2F0E80E94F5380E946D380C945317F3
:10213000ECE2F0E80E94F5380E948B3A11F00C9422
:10214000C8100091AD05023011F00C94C31080E06E
:102150008093E801AFEBB5E00E94D739AAE2B1E085
:102160000C93A7E4B1E0E4E3F0E80E94F5380E94A4
:102170006D38EAE2F1E0A7E4B1E00E9436350E9452
:1021800092390C94C61085E08093E8010C945317A3
:10219000E4E5F0E80E94F5380E948B3A11F00C94C7
:1021A00000110091AD05023011F00C94FB1080E09D
:1021B0008093E801AFEBB5E00E94D739ADEAB3E018
:1021C0000D931C93EAE0F0E0ADEAB3E07BE70E94F8
:1021D0005C3AA7E4B1E0ECE5F0E80E94F5380E9433
:1021E0006D38EDEAF3E0A7E4B1E00E9436350E94D5
:1021F00082390C94FE1084E08093E8010C9453170C
:10220000E4E7F0E80E94F5380E948B3A11F00C9454
:1022100038110091AD05023011F00C94331180E0BB
:102220008093E801AFEBB5E00E94D739AFEAB3E0A5
:102230000D931C93ECE0F0E0AFEAB3E07BE70E9483
:102240005C3AA7E4B1E0ECE7F0E80E94F5380E94C0
:102250006D38EFEAF3E0A7E4B1E00E9436350E9462
:1022600082390C94361184E08093E8010C94531762
:10227000E6E9F0E80E94F5380E948B3A11F00C94E0
:10228000681180E08093E801A7E4B1E0EEE9F0E8AE
:102290000E94F5380E946D38EDEAF3E0A7E4B1E062
:1022A0000E9436350E948239A7E4B1E00E9436359B
:1022B000E6EAF0E80E94F5380E946D38EFEAF3E0B4
:1022C000A7E4B1E00E9436350E9482390C9453177E
:1022D000E2EBF0E80E94F5380E948B3A11F00C9482
:1022E000C5110091AD05023011F00C94C011AFEB97
:1022F000B5E00E94D739AAE1B1E00C9300911A0130
:10230000023010F00C94BB1180E08093E801009142
:102310001A01013011F00C94A41170912B0171601D
:1023200070932B01A7E4B1E0EAEBF0E80E94F538E6
:102330000E946D38EBE2F1E0A7E4B1E00E9436358F
:102340000E9492390C94B91170912B017E7F709389
:102350002B01A7E4B1E0EAEBF0E80E94F5380E9417
:102360006D38EBE2F1E0A7E4B1E00E9436350E945F
:1023700092390C94BE1185E08093E8010C94C3114E
:1023800084E08093E8010C945317E2EDF0E80E949A
:10239000F5380E948B3A11F00C94E31180E08093A1
:1023A000E801A7E4B1E0EAEDF0E80E94F5380E9408
:1023B0006D38EBE2F1E0A7E4B1E00E9436350E940F
:1023C00092390C945317E4EEF0E80E94F5380E941D
:1023D0008B3A11F00C942A120091AD05023011F0E5
:1023E0000C942512AFEBB5E00E94D739AAE1B1E019
:1023F0000C9300911A010C3010F00C94201280E024
:102400008093E80100911A0141E0041BA7E5B2E0C6
:102410000C93A7E4B1E0ECEEF0E80E94F5380E94DE
:102420006D38EAE1F1E0A7E4B1E00E9436350E94A0
:10243000923970919D03726070939D030C942312E6
:1024400085E08093E8010C94281284E08093E801F1
:102450000C945317EAEFF0E80E94F5380E948B3A8B
:1024600011F00C94A7120091AD05043011F00C94FA
:10247000A212AFEBB5E00E94D739AFE2B1E00C9306
:1024800000912F010C3010F00C949D12A0EDB5E0DE
:102490000E94D739A0E3B1E00C93009130010430E1
:1024A00010F00C949812A1EEB5E00E94D739A7EE77
:1024B000B4E00C9380E08093E801A7E4B1E0E2E0AF
:1024C000F1E80E94F5380E946D38EFE2F1E0A7E4F0
:1024D000B1E00E9436350E949239A7E4B1E00E9433
:1024E0003635E4E1F1E80E94F5380E946D38E0E30A
:1024F000F1E0A7E4B1E00E9436350E949239A7E4EA
:10250000B1E00E943635E0E2F1E80E94F5380E9421
:102510006D38E7EEF4E0A7E4B1E00E9436350E94A2
:102520009239709126017460709326010C949B126D
:1025300086E08093E8010C94A01285E08093E80186
:102540000C94A51284E08093E8010C945317E8E200
:10255000F1E80E94F5380E948B3A11F00C94C512F4
:1025600080E08093E801A7E4B1E0E0E3F1E80E94B5
:10257000F5380E946D38EBE9F3E0A7E4B1E00E9482
:1025800036350E9492390C945317E8E3F1E80E9423
:10259000F5380E948B3A11F00C94AF130091AD0501
:1025A000023011F00C94AA13AFEBB5E00E94853A0B
:1025B000082F0A3081E009F080E08F93AFEBB5E09F
:1025C0000E94853A082F0C3081E009F080E09F914D
:1025D000892B882311F40C94A51380E08093E801E3
:1025E00087E0EFEBF5E002E00A93AAEFB1E00E948A
:1025F000443AAAEFB1E00E943635E0E4F1E80E94E7
:10260000F5380E946D3889E0EFEBF5E002E00A93BF
:10261000AAEFB1E00E9436350E94443AAAEFB1E039
:102620000E943635E0E4F1E80E94F5380E946D38EA
:102630008BE0EFEBF5E002E00A93AAEFB1E00E9435
:1026400036350E94443AEAEFF1E0A1E1B1E00E94A0
:10265000393A0E94CC3681E0EFEBF5E002E00A93D4
:10266000AAEFB1E00E94443AAAEFB1E00E943635E9
:10267000E2E4F1E80E94F5380E946D3883E0EFEB68
:10268000F5E002E00A93AAEFB1E00E9436350E941D
:10269000443AAAEFB1E00E943635E2E4F1E80E9444
:1026A000F5380E946D3885E0EFEBF5E002E00A9323
:1026B000AAEFB1E00E9436350E94443AEAEFF1E019
:1026C000A8E0B1E00E94393A0E94C436A7E4B1E024
:1026D000E4E4F1E80E94F5380E946D380E94B936B2
:1026E000E8E0F1E0A7E4B1E00E9436350E94393A13
:1026F000A7E4B1E00E943635EEE6F1E80E94F53835
:102700000E946D380E94B936E1E1F1E0A7E4B1E042
:102710000E9436350E94393AE2E0F1E00E94DB3750
:10272000A9EBB3E00D931D932D933D93E0E1F0E011
:10273000A9EBB3E094E07BE70E945D3A7091A803B7
:1027400078607093A8030C94A81386E08093E80146
:102750000C94AD1384E08093E8010C945317E2E7E6
:10276000F1E80E94F5380E948B3A11F00C94EF13B7
:1027700080E08093E8010E94B936E1E1F1E0AAEF40
:10278000B1E00E94393AA7E4B1E0EAE7F1E80E943B
:10279000F5380E946D38EAEFF1E0A7E4B1E00E945D
:1027A00036350E94393AA7E4B1E00E943635E8E8B0
:1027B000F1E80E94F5380E946D380E94B936E8E0D1
:1027C000F1E0AAEFB1E00E94393AEAEFF1E0A7E4C4
:1027D000B1E00E9436350E94393A0C945317E8E96B
:1027E000F1E80E94F5380E948B3A11F00C942B14FA
:1027F00080E08093E801E9EBF3E0ADEEB4E00E9405
:102800001438E9EBF3E0A8EFB4E00E941C38A7E429
:10281000B1E0E0EAF1E80E94F5380E946D38EDEE93
:10282000F4E0A7E4B1E00E9436350E94393AA7E40B
:10283000B1E00E943635ECEAF1E80E94F5380E94DA
:102840006D38E8EFF4E0A7E4B1E00E9436350E946D
:10285000393A0C945317E2EBF1E80E94F5380E94E4
:102860008B3A11F00C94461480E08093E80170914B
:10287000A80374607093A803A7E4B1E0EAEBF1E861
:102880000E94F5380E946D380C945317E2ECF1E881
:102890000E94F5380E948B3A11F00C947E1400913E
:1028A000AD05023011F00C947914AFEBB5E00E9445
:1028B000D739A4EAB5E00D931D932D933D93E9E23A
:1028C000F0E0A4EAB5E094E07BE70E945D3AA7E47B
:1028D000B1E0EAECF1E80E94F5380E946D38E4EAD4
:1028E000F5E0A7E4B1E00E9436350E9485390C94EA
:1028F0007C1484E08093E8010C945317E2EEF1E835
:102900000E94F5380E948B3A11F00C949C1480E0E0
:102910008093E801A7E4B1E0EAEEF1E80E94F5381F
:102920000E946D38E4EAF5E0A7E4B1E00E94363594
:102930000E9485390C945317E4EFF1E80E94F538B2
:102940000E948B3A11F00C94B51480E08093E8015A
:10295000A7E4B1E0ECEFF1E80E94F5380E946D3891
:1029600081E0809300040C945317E6E1F2E80E94A2
:10297000F5380E948B3A11F00C94051580E0809395
:10298000E801A7E4B1E0EEE1F2E80E94F5380E9428
:102990006D38A0E8BFE0AF93BF93E8EFF3E00E948B
:1029A000F83A0E94CC3511E002E0BF91AF910E944D
:1029B0001D39E0E8FFE0A7E4B1E00E9436350E944F
:1029C000393AA7E4B1E00E943635E4E2F2E80E9429
:1029D000F5380E946D38A0E8BFE0AF93BF93ECEFED
:1029E000F3E00E94F83A0E94CC3511E002E0BF917A
:1029F000AF910E941D39E0E8FFE0A7E4B1E00E943A
:102A000036350E94393A0C945317ECE2F2E80E94F2
:102A1000F5380E948B3A11F00C9465150091AD05C4
:102A2000023011F00C946315AFEBB5E00E94853ACB
:102A3000AAE1B1E08C9300911A01083011F00C94D6
:102A4000601580E08093E801EFEBF5E0AAEFB1E0DC
:102A50000E94393AEAEFF1E00E94AF37AFEDB4E0FF
:102A60000D931D932D933D93E1E2F0E0AFEDB4E0C3
:102A700094E07BE70E945D3AA7E4B1E0E4E3F2E88A
:102A80000E94F5380E946D38EFEDF4E0A7E4B1E064
:102A90000E9436350E948539A7E4B1E00E943635A0
:102AA000E6E5F2E80E94F5380E946D38EFEBF5E0BC
:102AB000A7E4B1E00E9436350E94393A0C946315C0
:102AC00085E08093E8010C945317EAE5F2E80E9450
:102AD000F5380E948B3A11F00C94CA150091AD059F
:102AE000023011F00C94C515AFEBB5E00E94853AA9
:102AF000AAE1B1E08C9300911A01083011F00C9416
:102B0000C01580E08093E801EFEBF5E0AAEFB1E0BB
:102B10000E94393AEAEFF1E00E94AF37A3EEB4E049
:102B20000D931D932D933D93E5E2F0E0A3EEB4E009
:102B300094E07BE70E945D3AA7E4B1E0E2E6F2E8C8
:102B40000E94F5380E946D38E3EEF4E0A7E4B1E0AE
:102B50000E9436350E948539A7E4B1E00E943635DF
:102B6000E6E5F2E80E94F5380E946D38EFEBF5E0FB
:102B7000A7E4B1E00E9436350E94393A0C94C3159F
:102B800085E08093E8010C94C81584E08093E80107
:102B90000C945317E0E8F2E80E94F5380E948B3A53
:102BA00011F00C94EE1580E08093E801EFEDF4E075
:102BB000AAEFB1E00E941438A7E4B1E0E8E8F2E837
:102BC0000E94F5380E946D38EAEFF1E0A7E4B1E029
:102BD0000E9436350E94393A0C945317ECE9F2E81A
:102BE0000E94F5380E948B3A11F00C94121680E086
:102BF0008093E801E3EEF4E0AAEFB1E00E9414381C
:102C0000A7E4B1E0E4EAF2E80E94F5380E946D38EA
:102C1000EAEFF1E0A7E4B1E00E9436350E94393ACC
:102C20000C945317E6EBF2E80E94F5380E948B3AB9
:102C300011F00C9442160091AD05023011F00C9485
:102C40003D1680E08093E801AFEBB5E00E94D739F4
:102C5000A4E2B1E00C93A7E4B1E0EEEBF2E80E944D
:102C6000F5380E946D38E4E2F1E0A7E4B1E00E949B
:102C700036350E9492390C94401685E08093E80125
:102C80000C945317E4EDF2E80E94F5380E948B3A59
:102C900011F00C94601680E08093E801A7E4B1E0A5
:102CA000ECEDF2E80E94F5380E946D38E4E2F1E0C4
:102CB000A7E4B1E00E9436350E9492390C94531774
:102CC000E4EEF2E80E94F5380E948B3A11F00C9481
:102CD000A61680E08093E801A7E4B1E0ECEEF2E80C
:102CE0000E94F5380E946D3881E080931A010091AE
:102CF0001A01003218F011F00C94A416EAE1F1E088
:102D0000A0E8BFE00E9492390E943D35E8E0FCE770
:102D10000E94F5380E944535EAE1F1E0A190BB241C
:102D2000EAE6F3E0EA0DFB1DA0E8BFE00E9492395D
:102D30000E943D350E944C35AAE1B1E08C918F5F35
:102D40008C9310F40C9477160C945317EAE0F3E884
:102D50000E94F5380E948B3A11F00C94DC16009119
:102D6000AD05023011F00C94D716AFEBB5E00E9420
:102D7000D739A8EEB4E00D931C93A8EEB4E08D9182
:102D80009C91AAEEB4E08D939C93A7E4B1E0E2E1BC
:102D9000F3E80E94F5380E946D38E8EEF4E0A7E40D
:102DA000B1E00E9436350E9482390C94DA1685E033
:102DB0008093E8010C945317E6E3F3E80E94F5389A
:102DC0000E948B3A11F00C94FA1680E08093E8018F
:102DD000A7E4B1E0EEE3F3E80E94F5380E946D3815
:102DE000E8EEF4E0A7E4B1E00E9436350E948239B3
:102DF0000C945317E4E5F3E80E94F5380E948B3AEF
:102E000011F00C9432170091AD05023011F00C94C2
:102E10002D1780E08093E801AFEBB5E00E94D73931
:102E2000AAEAB5E00D931C93EDE2F0E0AAEAB5E062
:102E30007BE70E945C3AA7E4B1E0ECE5F3E80E948E
:102E4000F5380E946D38EAEAF5E0A7E4B1E00E94A7
:102E500036350E9482390C94301785E08093E80162
:102E60000C945317ECE7F3E80E94F5380E948B3A74
:102E700011F00C94501780E08093E801A7E4B1E0D2
:102E8000E4E8F3E80E94F5380E946D38EAEAF5E0DC
:102E9000A7E4B1E00E9436350E9482390C945317A2
:102EA00081E08093E8010C94581782E08093E80158
:102EB0000091E801003018F011F00C9461170C94A7
:102EC0006F17E0E8F5E60E94F538A8EEB1E08C91C6
:102ED00099270E94C238A7E4B1E00E946D38A7E4A8
:102EE000B1E00E943F350E944C35089581E0809307
:102EF000DE030091DE03033018F011F00C94CC17C0
:102F0000EEE9F6E60E94F538AEEDB3E08C91992734
:102F1000AFEDB3E00E94A83807B1007E8091DF03D7
:102F200090E0890F082707B90E947338ACEDB3E031
:102F30008D939C93ECEDF3E0D190E080FF2400278B
:102F40000E94603B0E94023BEEEDF3E0A190BB24A7
:102F5000EFEBF3E0AA0CBB1CAA0CBB1CEA0DFB1D9B
:102F60000E94F83A0E942D3CEDE0F0E0AEEDB3E0B7
:102F7000AD90BB24AFEBB3E0AA0CBB1CAA0CBB1CEE
:102F8000AA0DBB1D0E943E3AAEEDB3E08C918F5F5F
:102F90008C9310F40C947917AFECB3E08C918F5FA5
:102FA0008C93AFECB3E00C9148E00E94753A8C939F
:102FB0000091CF03003011F00C94A01881E08093B1
:102FC000DE030091DE03033018F011F00C94941826
:102FD000ECECFAE70E94F5380E94883CEEEDF3E055
:102FE000A190BB24EFEBF3E0AA0CBB1CAA0CBB1C0A
:102FF000EA0DFB1D0E94F83A0E948D3BEDE0F0E0E7
:10300000AEEDB3E0AD90BB24ACECB3E0AA0CBB1CBE
:10301000AA0CBB1CAA0DBB1D0E943E3AAEEDB3E04C
:10302000AD90BB24AFEBB3E0AA0CBB1CAA0CBB1C3D
:10303000AA0DBB1DE0EDFAE70E94F5380E949A3810
:10304000EEEDF3E0A190BB24ECEDF3E0AA0CBB1C89
:10305000AA0CBB1CEA0DFB1D0E94FD3AEEEDF3E04D
:10306000A190BB24ECECF3E0AA0CBB1CAA0CBB1C8B
:10307000EA0DFB1D0E94F83A0E94E63BEDE0F0E00D
:10308000AEEDB3E0AD90BB24A8EEB3E0AA0CBB1C40
:10309000AA0CBB1CAA0DBB1D0E943E3A0091000465
:1030A000013011F00C948C18E8E9F3E80E94F5382F
:1030B0000E944535EEEDF3E0A0E8BFE00E949239B2
:1030C0000E943D35EEEFFFE70E94F5380E9445353E
:1030D000A0E8BFE0AF93BF93EEEDF3E0A190BB2477
:1030E000E8EEF3E0AA0CBB1CAA0CBB1CEA0DFB1D0E
:1030F0000E94F83A0E94CC3511E001E0BF91AF91F7
:103100000E941D39E0E8FFE0A0E8BFE00E94393AE4
:103110000E943D350E944C35AEEDB3E08C918F5F3F
:103120008C9310F40C94E117ECEEF3E0A8EFB3E00D
:103130000E943E3AE0EFF3E0ACEFB3E00E943E3A8B
:103140000895E0E0F0E00AE010E0A0E1BB277BE7B3
:103150000E945C3AE2E0F0E008E512E0A0E1BB2763
:103160007BE70E945C3AE4E0F0E00CE310E0A0E1D1
:10317000BB277BE70E945C3AE0EDFAE70E94F53856
:103180000E947B3CE6E0F0E0ADE0BB2794E07BE70B
:103190000E945D3AE0E2F0E0A0E1BB2781E08C9381
:1031A0007BE70E945A3AEAE0F0E000E010E0A0E19C
:1031B000BB277BE70E945C3AECE0F0E000E010E027
:1031C000A0E1BB277BE70E945C3AEEE0F0E000E084
:1031D00010E0A0E1BB277BE70E945C3AAAEFB1E0D8
:1031E000ECE9F3E80E94F5380E946D38EAEFF1E06F
:1031F0000E94AF37AFEDB4E00D931D932D933D9337
:10320000E1E2F0E0AFEDB4E094E07BE70E945D3AEC
:10321000AAEFB1E0E6EAF3E80E94F5380E946D38C3
:10322000EAEFF1E00E94AF37A3EEB4E00D931D93F7
:103230002D933D93E5E2F0E0A3EEB4E094E07BE76C
:103240000E945D3A80E090E0AAEEB4E08D939C93FA
:10325000E9E2F0E000E11EE020E030E0A0E1BB2781
:1032600094E07BE70E945D3AEDE2F0E000E11EE0D1
:10327000A0E1BB277BE70E945C3A08957091A80308
:10328000777F7093A803AC9AE0EBF3E80E94F538DF
:103290000E9445350E944C3580E08093EC04A8EAFA
:1032A000B3E08C9180FB16F00C94771A7091A80310
:1032B0007E7F7093A80382EA0E943A3881E0E0E7BB
:1032C000F8E005E00A93A981BA810E94443AA881F6
:1032D000B981E6EBF3E80E94F5380E948B3A0FB60D
:1032E00082EA481A80E0580A22960FBE11F00C9428
:1032F0006F1A5798ECEBF3E80E94F5380E944535B9
:10330000A0E7B8E00E943F350E944C35E0E7F8E0C6
:10331000A3E0B5E00E94393AE2ECF3E80E94F53808
:103320000E944535A3E0B5E00E943F350E944C3530
:10333000E3E0F5E09CE200E130E2AEEAB5E00E94B5
:10334000C33AADEAB5E02C930091AD05003018F01A
:1033500011F00C94AD190C946F1AA0EDB5E0E8ECE7
:10336000F3E80E94F5380E948B3A11F00C946F1A22
:103370007091A80378607093A80381E0EFEBF5E00B
:1033800002E00A93ADEEB4E00E94443AADEEB4E040
:103390000E943635E2E4F1E80E94F5380E946D386B
:1033A00083E0EFEBF5E002E00A93ADEEB4E00E94BB
:1033B00036350E94443AADEEB4E00E943635E2E480
:1033C000F1E80E94F5380E946D3885E0EFEBF5E0FA
:1033D00002E00A93ADEEB4E00E9436350E94443A12
:1033E00081E0E7E4F6E002E00A93A8EFB4E00E948F
:1033F000443AA8EFB4E00E943635E0E4F1E80E94D8
:10340000F5380E946D3883E0E7E4F6E002E00A93C5
:10341000A8EFB4E00E9436350E94443AA8EFB4E029
:103420000E943635E0E4F1E80E94F5380E946D38DC
:1034300085E0E7E4F6E002E00A93A8EFB4E00E943A
:1034400036350E94443AADEEB4E00E943F350E940A
:103450004C35A8EFB4E00E943F350E944C35E8EFB0
:10346000F4E0FA93EA93EDEEF4E00E942438A0E24F
:10347000B1E00D931D932D933D93A0E2B1E00D912A
:103480001D912D913C9140E556E460E070E00E9472
:103490006A39A0E2B1E00D931D932D933D93E0E2D4
:1034A000F1E0A1E1B1E00E9414380E94CC36E0E2E4
:1034B000F1E0A8E0B1E00E941C380E94C4360E94EE
:1034C000B936A1E1B1E00E943F350E944C350E941F
:1034D000B936A8E0B1E00E943F350E944C350E9409
:1034E0001D0BACEEB4E08C918F5F8C93579AA8EAD9
:1034F000B3E08C9183FB81E00EF080E08F9300912C
:10350000EC04083C81E009F080E09F91892B88233E
:1035100011F40C944F19AC98EAECF3E80E94F538DA
:103520000E944535ECEEF4E0A0E8BFE00E9492393D
:103530000E943D350E944C350895E4EDF3E80E9469
:10354000F5380E9445350E944C350E94B936A1E1FC
:10355000B1E00E943F35EEEDF3E80E94F5380E949D
:1035600045350E94B936A8E0B1E00E943F350E947F
:103570004C3581E080933301009133010E3118F016
:1035800011F00C94DF1AE3E3F1E0A190BB24EAE62A
:10359000F3E0EA0DFB1DA0E8BFE00E94063A0E949E
:1035A0003D35E8E0FCE70E94F5380E944535A3E38D
:1035B000B1E08C918F5F8C9310F40C94BC1A0E9434
:1035C0004C3580E080931C0181E0809333010091B1
:1035D00033010E3118F011F00C94411BE3E3F1E0DC
:1035E000A190BB24EAE6F3E0EA0DFB1DA0E8BFE0F2
:1035F0000E94063A0E943D35E8E0FCE70E94F5385B
:103600000E944535A3E3B1E00C9100FB16F00C9449
:10361000161BA3E3B1E0AD90BB24AAE6B3E0AA0D6C
:10362000BB1D8C9180931A010C94391BA3E3B1E06C
:10363000AD90BB24AAE6B3E0AA0DBB1D8C9180938C
:103640001B0194E0ABE1B1E00E947C38ACE1B1E059
:103650008C918F5F8C9300911A0140911B01042B78
:10366000ACE1B1E0AD90BB24AAE8B3E0AA0DBB1D6C
:103670000C93A3E3B1E08C918F5F8C9310F40C94C6
:10368000E71A0E944C35E0EEF3E80E94F5380E94FC
:1036900045350E944C3581E0809333010091330120
:1036A0000F3018F011F00C94711BE3E3F1E0A190DE
:1036B000BB24EAE8F3E0EA0DFB1DA0E8BFE00E94AE
:1036C000063A0E943D35E8E0FCE70E94F5380E948A
:1036D0004535A3E3B1E08C918F5F8C9310F40C948B
:1036E0004E1B0E944C35EBE8F3E08EE00E949F3ABF
:1036F000AAE1B1E00C93EAEEF3E80E94F5380E94EB
:103700004535EAE1F1E0A0E8BFE00E94063A0E94F8
:103710003D350E944C354091990300911A010417E0
:1037200011F00C944124E0EFF3E80E94F5380E9478
:103730004535ADEAB3E00E94EF34EAE0F0E0ADEAEF
:10374000B3E07BE70E945C3AEDEAF3E0A0E8BFE07B
:103750000E9482390E943D350E944C3580916B0356
:1037600080931A01E8EFF3E80E94F5380E9445358E
:10377000EAE1F1E0A0E8BFE00E9492390E943D3505
:103780000E944C35A6ECB4E08D919C91A8EAB5E07E
:103790008D939C9300911A0141E0041BA5E3B1E0D5
:1037A0000C9380913501A8EAB5E00E94E0380E94B0
:1037B000D6388C9189238C93A8EAB5E08D919C91A1
:1037C000A6ECB4E08D939C9385E180933301A8EA45
:1037D000B5E08D919C91A6ECB4E08D939C93E2E0D2
:1037E000F4E80E94F5380E944535E3E3F1E0A0E8F3
:1037F000BFE00E9492390E943D35E8E0FCE70E945C
:10380000F5380E944535E3E3F1E0A190BB24ECE9F3
:10381000F4E0AA0CBB1CEA0DFB1DA0E8BFE00E946F
:10382000083A0E943D350E944C35E2E0F4E80E94DF
:10383000F5380E945B35E3E3F1E0A0E8BFE00E94C9
:1038400092390E945335E8E0FCE70E94F5380E9467
:103850005B35E3E3F1E0A190BB24ECE9F4E0AA0CD2
:10386000BB1CEA0DFB1DA0E8BFE00E94083A0E94C5
:1038700053350E94623580E090E0AAE1B1E0AD905E
:10388000BB24ABE2B3E0AA0CBB1CAA0DBB1D8D93FD
:103890009C93A7E4B1E0ECE0F4E80E94F5380E94C4
:1038A0006D38EAE1F1E0A7E4B1E00E9436350E940C
:1038B0009239A7E4B1E00E943635E8E0FCE70E94C7
:1038C000F5380E946D3880916C03AAE1B1E0AD90AB
:1038D000BB24A5EFB2E0AA0DBB1D8C9300911A0189
:1038E0000A3081E009F080E08F9300911A010B30DB
:1038F00081E009F080E09F91892B882311F40C94DA
:103900009E1C80916C0380931E0100911E01033068
:1039100011F00C949E1CA3EBB3E00E94EF34EEE098
:10392000F0E0A3EBB3E07BE70E945C3AA3EBB3E0EB
:103930008D919C91A6EBB4E08D939C9380916C0348
:103940008093290100911A0141E0041BA7E2B1E034
:103950000C93A7E2B1E00C9144E00E94753A0C93FD
:10396000A7E2B1E08C918D5F8C9300911A0141E048
:10397000041BA8E2B1E00C93A8E2B1E00C9144E092
:103980000E94753A8C93A8E2B1E00C9144E0049F48
:103990000C92E6E1F4E80E94F5380E944535E9E230
:1039A000F1E0A0E8BFE00E9492390E943D350E94FC
:1039B0004C35E2E2F4E80E94F5380E944535E7E232
:1039C000F1E0A0E8BFE00E9492390E943D350E94DC
:1039D0004C35E0E3F4E80E94F5380E944535E8E212
:1039E000F1E0A0E8BFE00E9492390E943D350E94BC
:1039F0004C35A9E2B1E08C9180FB80912801A7E2CF
:103A0000B1E0AD90BB24ACE9B4E0AA0CBB1CAA0D9C
:103A1000BB1D0E94E0380E94D6380C9016F0092297
:103A200001C0082A0C92A8E2B1E08C918F5F8C93C0
:103A3000A9E2B1E08C9181FB80912801A7E2B1E07D
:103A4000AD90BB24ACE9B4E0AA0CBB1CAA0DBB1D15
:103A50000E94E0380E94D6380C9016F0092201C06E
:103A6000082A0C92A8E2B1E08C918F5F8C93A9E2B6
:103A7000B1E08C9182FB80912801A7E2B1E0AD908A
:103A8000BB24ACE9B4E0AA0CBB1CAA0DBB1D0E9470
:103A9000E0380E94D6380C9016F0092201C0082A9E
:103AA0000C92A8E2B1E08C918F5F8C93A9E2B1E017
:103AB0008C9183FB80912801A7E2B1E0AD90BB24FB
:103AC000ACE9B4E0AA0CBB1CAA0DBB1D0E94E038F7
:103AD0000E94D6380C9016F0092201C0082A0C92D8
:103AE000EAE3F4E80E94F5380E944535E7E2F1E0A8
:103AF000A0E8BFE00E9492390E943D35E4E4F4E87A
:103B00000E94F5380E944535E7E2F1E0A190BB2420
:103B1000ECE9F4E0AA0CBB1CEA0DFB1DA0E8BFE039
:103B20000E94083A0E943D350E944C35AAEFB1E050
:103B3000E2E0F4E80E94F5380E946D38E7E2F1E037
:103B4000AAEFB1E00E9436350E949239AAEFB1E0A7
:103B50000E943635E8E0FCE70E94F5380E946D3897
:103B6000E7E2F1E0A190BB24ECE9F4E0AA0CBB1C75
:103B7000EA0DFB1DAAEFB1E00E9436350E94083A1B
:103B8000AAEFB1E00E943F350E944C35AAEFB1E0A8
:103B90000E9455350E94623580918C0380933C01D0
:103BA00080918D0380933D0180918E0380933E012F
:103BB00080918F0380933F01ECE3F1E00E94083B8A
:103BC000AAE1B1E0AD90BB24ADEFB2E0AA0CBB1C02
:103BD000AA0CBB1CAA0DBB1DEDE0FF270E943E3ABC
:103BE00000911A0141E0041BA7E2B1E00C93A7E2A7
:103BF000B1E00C9146E0049F0C92A7E2B1E08C91F9
:103C00008F5F8C93E8E4F4E80E94F5380E94453514
:103C1000E7E2F1E0A0E8BFE00E9492390E943D3562
:103C20000E944C3590913F0180913E01A6E3B1E0A6
:103C30008D939C93A6E3B1E08D919C91A7E2B1E0B6
:103C4000AD90BB24ACE0B4E0AA0CBB1CAA0DBB1D1C
:103C50008D939C93AAEFB1E0E0E5F4E80E94F5387B
:103C60000E946D38E7E2F1E0AAEFB1E00E9436353C
:103C70000E949239AAEFB1E00E943635E8E0FCE7F5
:103C80000E94F5380E946D38E7E2F1E0A190BB2474
:103C9000ECE0F4E0AA0CBB1CEA0DFB1DAAEFB1E0BE
:103CA0000E9436350E94083AAAEFB1E00E943F35E3
:103CB0000E944C35AAEFB1E00E9455350E94623552
:103CC00090913D0180913C01A6E3B1E08D939C93DE
:103CD000A7E2B1E08C918F5F8C93A6E3B1E08D9168
:103CE0009C91A7E2B1E0AD90BB24ACE0B4E0AA0C9B
:103CF000BB1CAA0DBB1D8D939C93AAEFB1E0E0E520
:103D0000F4E80E94F5380E946D38E7E2F1E0AAEF8E
:103D1000B1E00E9436350E949239AAEFB1E00E94CC
:103D20003635E8E0FCE70E94F5380E946D38E7E29E
:103D3000F1E0A190BB24ECE0F4E0AA0CBB1CEA0D7E
:103D4000FB1DAAEFB1E00E9436350E94083AAAEFA7
:103D5000B1E00E943F350E944C35AAEFB1E00E94CD
:103D600055350E946235EAE5F4E80E94F5380E9474
:103D70004535EAE1F1E0A190BB24EDEFF2E0AA0CB9
:103D8000BB1CAA0CBB1CEA0DFB1DA0E8BFE00E94F7
:103D900088390E943D35E8E0FCE70E94F5380E9432
:103DA0004535E8E3F1E0A0E8BFE00E940A3A0E944E
:103DB0003D350E944C35EAE1F1E0A190BB24EDEFE6
:103DC000F2E0AA0CBB1CAA0CBB1CEA0DFB1DA7E46D
:103DD000B1E00E9436350E948839A7E4B1E00E9424
:103DE0003635E8E0FCE70E94F5380E946D38809196
:103DF000910380933C018091920380933D018091D7
:103E0000930380933E018091940380933F01ECE300
:103E1000F1E0AAE1B1E0AD90BB24A8E5B2E0AA0CC4
:103E2000BB1CAA0CBB1CAA0DBB1D0E943E3A0091F4
:103E30001A0141E0041BA7E2B1E00C93A7E2B1E054
:103E40000C9146E0049F0C92A7E2B1E08C918D5F4B
:103E50008C93E8E4F4E80E94F5380E944535E7E2E7
:103E6000F1E0A0E8BFE00E9492390E943D350E9437
:103E70004C3590913F0180913E01A6E3B1E08D93D6
:103E80009C93A6E3B1E08D919C91A7E2B1E0AD9047
:103E9000BB24ACE0B4E0AA0CBB1CAA0DBB1D8D93E7
:103EA0009C93E0E5F4E80E94F5380E944535E7E28E
:103EB000F1E0A0E8BFE00E9492390E943D35E8E0C1
:103EC000FCE70E94F5380E944535E7E2F1E0A19059
:103ED000BB24ECE0F4E0AA0CBB1CEA0DFB1DA0E83F
:103EE000BFE00E94083A0E943D350E944C35E0E553
:103EF000F4E80E94F5380E945B35E7E2F1E0A0E8C3
:103F0000BFE00E9492390E945335E8E0FCE70E942E
:103F1000F5380E945B35E7E2F1E0A190BB24ECE0CC
:103F2000F4E0AA0CBB1CEA0DFB1DA0E8BFE00E9458
:103F3000083A0E9453350E94623590913D0180916C
:103F40003C01A6E3B1E08D939C93A7E2B1E08C9194
:103F50008F5F8C93A6E3B1E08D919C91A7E2B1E0D5
:103F6000AD90BB24ACE0B4E0AA0CBB1CAA0DBB1DF9
:103F70008D939C93E0E5F4E80E94F5380E94453566
:103F8000E7E2F1E0A0E8BFE00E9492390E943D35EF
:103F9000E8E0FCE70E94F5380E944535E7E2F1E0F1
:103FA000A190BB24ECE0F4E0AA0CBB1CEA0DFB1DC5
:103FB000A0E8BFE00E94083A0E943D350E944C35BF
:103FC000E0E5F4E80E94F5380E945B35E7E2F1E0B5
:103FD000A0E8BFE00E9492390E945335E8E0FCE778
:103FE0000E94F5380E945B35E7E2F1E0A190BB2426
:103FF000ECE0F4E0AA0CBB1CEA0DFB1DA0E8BFE05E
:104000000E94083A0E9453350E946235E4E6F4E8C3
:104010000E94F5380E944535ECE3F1E0A0E8BFE0EE
:104020000E94F83A0E94CC350E943D35E8E0FCE75A
:104030000E94F5380E944535ECE3F1E0A0E8BFE0CE
:104040000E940A3A0E943D350E944C3580919503AA
:1040500080933C018091960380933D01809197036A
:1040600080933E018091980380933F01ECE3F1E05F
:10407000AAE1B1E0AD90BB24A4E8B2E0AA0CBB1C5D
:10408000AA0CBB1CAA0DBB1D0E943E3AA0E8BFE0D3
:10409000AF93BF93EAE1F1E0A190BB24E4E8F2E042
:1040A000AA0CBB1CAA0CBB1CEA0DFB1D0E94F83A13
:1040B0000E94CC3511E002E0BF91AF910E941D3902
:1040C000E0E8FFE0A7E4B1E00E9436350E94393A0B
:1040D000A7E4B1E00E943635E8E0FCE70E94F5383D
:1040E0000E946D38A0E8BFE0AF93BF93EAE1F1E032
:1040F000A190BB24E8E5F2E0AA0CBB1CAA0CBB1CF7
:10410000EA0DFB1D0E94F83A0E94CC3511E002E056
:10411000BF91AF910E941D39E0E8FFE0A7E4B1E054
:104120000E9436350E94393AA7E4B1E00E94363544
:10413000E8E0FCE70E94F5380E946D38EAE6F4E812
:104140000E94F5380E944535ECE3F1E0A0E8BFE0BD
:104150000E94F83A0E94CC350E943D35E8E0FCE729
:104160000E94F5380E944535ECE3F1E0A0E8BFE09D
:104170000E940A3A0E943D350E944C3500911A0176
:1041800041E0041BA7E2B1E00C93A7E2B1E00C917F
:1041900046E0049F0C92A7E2B1E08C918B5F8C9378
:1041A000E8E4F4E80E94F5380E944535E7E2F1E0E2
:1041B000A0E8BFE00E9492390E943D350E944C3534
:1041C00090913F0180913E01A6E3B1E08D939C93D5
:1041D000A6E3B1E08D919C91A7E2B1E0AD90BB2444
:1041E000ACE0B4E0AA0CBB1CAA0DBB1D8D939C9344
:1041F000E0E5F4E80E94F5380E944535E7E2F1E099
:10420000A0E8BFE00E9492390E943D35E8E0FCE75B
:104210000E94F5380E944535E7E2F1E0A190BB2409
:10422000ECE0F4E0AA0CBB1CEA0DFB1DA0E8BFE02B
:104230000E94083A0E943D350E944C35E0E5F4E8C2
:104240000E94F5380E945B35E7E2F1E0A0E8BFE0AC
:104250000E9492390E945335E8E0FCE70E94F5384D
:104260000E945B35E7E2F1E0A190BB24ECE0F4E0D2
:10427000AA0CBB1CEA0DFB1DA0E8BFE00E94083A97
:104280000E9453350E94623590913D0180913C011E
:10429000A6E3B1E08D939C93A7E2B1E08C918F5F90
:1042A0008C93A6E3B1E08D919C91A7E2B1E0AD9033
:1042B000BB24ACE0B4E0AA0CBB1CAA0DBB1D8D93C3
:1042C0009C93E0E5F4E80E94F5380E944535E7E26A
:1042D000F1E0A0E8BFE00E9492390E943D35E8E09D
:1042E000FCE70E94F5380E944535E7E2F1E0A19035
:1042F000BB24ECE0F4E0AA0CBB1CEA0DFB1DA0E81B
:10430000BFE00E94083A0E943D350E944C35E0E52E
:10431000F4E80E94F5380E945B35E7E2F1E0A0E89E
:10432000BFE00E9492390E945335E8E0FCE70E940A
:10433000F5380E945B35E7E2F1E0A190BB24ECE0A8
:10434000F4E0AA0CBB1CEA0DFB1DA0E8BFE00E9434
:10435000083A0E9453350E94623580919003AAE189
:10436000B1E0AD90BB24AFEDB2E0AA0DBB1D8C93C4
:10437000E0E7F4E80E94F5380E944535EAE1F1E013
:10438000A190BB24EFEDF2E0EA0DFB1DA0E8BFE039
:104390000E94063A0E943D350E944C35ECE6F3E05F
:1043A000A7E4B1E00E9436350E949239A7E4B1E05B
:1043B0000E943635E8E0FCE70E94F5380E946D382F
:1043C000EAE1F1E0A190BB24EFEDF2E0EA0DFB1D84
:1043D000A7E4B1E00E9436350E94063AA7E4B1E0B6
:1043E0000E943F350E944C358091900380932901B3
:1043F00000911A0141E0041BA7E2B1E00C93A7E28F
:10440000B1E00C9142E00E94753A0C93A7E2B1E052
:104410008C918A5F8C9300911A0141E0041BA8E201
:10442000B1E00C93A8E2B1E00C9142E00E94753A31
:104430008C93A8E2B1E00C9148E0049F0C92E2E278
:10444000F4E80E94F5380E944535E7E2F1E0A0E883
:10445000BFE00E9492390E943D350E944C35E0E356
:10446000F4E80E94F5380E944535E8E2F1E0A0E862
:10447000BFE00E9492390E943D350E944C35A9E26E
:10448000B1E08C9180FB80912801A7E2B1E0AD9072
:10449000BB24ACE9B4E0AA0CBB1CAA0DBB1D0E9456
:1044A000E0380E94D6380C9016F0092201C0082A84
:1044B0000C92A8E2B1E08C918F5F8C93A9E2B1E0FD
:1044C0008C9181FB80912801A7E2B1E0AD90BB24E3
:1044D000ACE9B4E0AA0CBB1CAA0DBB1D0E94E038DD
:1044E0000E94D6380C9016F0092201C0082A0C92BE
:1044F000A8E2B1E08C918F5F8C93A9E2B1E08C913E
:1045000082FB80912801A7E2B1E0AD90BB24ACE929
:10451000B4E0AA0CBB1CAA0DBB1D0E94E0380E948F
:10452000D6380C9016F0092201C0082A0C92A8E295
:10453000B1E08C918F5F8C93A9E2B1E08C9183FB09
:1045400080912801A7E2B1E0AD90BB24ACE9B4E0D2
:10455000AA0CBB1CAA0DBB1D0E94E0380E94D638D5
:104560000C9016F0092201C0082A0C92A8E2B1E0D2
:104570008C918F5F8C93A9E2B1E08C9184FB809148
:104580002801A7E2B1E0AD90BB24ACE9B4E0AA0CED
:10459000BB1CAA0DBB1D0E94E0380E94D6380C90AF
:1045A00016F0092201C0082A0C92A8E2B1E08C9111
:1045B0008F5F8C93A9E2B1E08C9185FB80912801FB
:1045C000A7E2B1E0AD90BB24ACE9B4E0AA0CBB1CFF
:1045D000AA0DBB1D0E94E0380E94D6380C9016F040
:1045E000092201C0082A0C92A8E2B1E08C918F5FE9
:1045F0008C93A9E2B1E08C9186FB80912801A7E21F
:10460000B1E0AD90BB24ACE9B4E0AA0CBB1CAA0D90
:10461000BB1D0E94E0380E94D6380C9016F009228B
:1046200001C0082A0C92A8E2B1E08C918F5F8C93B4
:10463000A9E2B1E08C9187FB80912801A7E2B1E06B
:10464000AD90BB24ACE9B4E0AA0CBB1CAA0DBB1D09
:104650000E94E0380E94D6380C9016F0092201C062
:10466000082A0C92EAE3F4E80E94F5380E944535E6
:10467000E7E2F1E0A0E8BFE00E9492390E943D35F8
:10468000E4E4F4E80E94F5380E944535E7E2F1E001
:10469000A190BB24ECE9F4E0AA0CBB1CEA0DFB1DC5
:1046A000A0E8BFE00E94083A0E943D350E944C35C8
:1046B000E2E0F4E80E94F5380E944535E7E2F1E0D7
:1046C000A0E8BFE00E9492390E943D35E8E0FCE797
:1046D0000E94F5380E944535E7E2F1E0A190BB2445
:1046E000ECE9F4E0AA0CBB1CEA0DFB1DA0E8BFE05E
:1046F0000E94083A0E943D350E944C35E2E0F4E801
:104700000E94F5380E945B35E7E2F1E0A0E8BFE0E7
:104710000E9492390E945335E8E0FCE70E94F53888
:104720000E945B35E7E2F1E0A190BB24ECE9F4E004
:10473000AA0CBB1CEA0DFB1DA0E8BFE00E94083AD2
:104740000E9453350E946235E8E5F2E0ACE3B1E047
:104750000E943E3A90913F0180913E01A6E3B1E074
:104760008D939C93A6E3B1E08D919C91AEE9B4E06A
:104770008D939C93E2E0F4E80E94F5380E94453561
:10478000E8E7F4E80E94F5380E944535E8E0FCE7E8
:104790000E94F5380E944535EEE9F4E0A0E8BFE05C
:1047A0000E94083A0E943D350E944C35E2E0F4E850
:1047B0000E94F5380E945B35E8E7F4E80E94F5387E
:1047C0000E945B35E8E0FCE70E94F5380E945B350B
:1047D000EEE9F4E0A0E8BFE00E94083A0E945335F9
:1047E0000E94623590913D0180913C01A6E3B1E0C9
:1047F0008D939C93A7E2B1E08C918F5F8C93A6E39D
:10480000B1E08D919C91A0EAB4E08D939C93E2E09D
:10481000F4E80E94F5380E944535EAE7F4E80E9482
:10482000F5380E944535E8E0FCE70E94F5380E9423
:104830004535E0EAF4E0A0E8BFE00E94083A0E94B3
:104840003D350E944C35E2E0F4E80E94F5380E94C4
:104850005B35EAE7F4E80E94F5380E945B35E8E052
:10486000FCE70E94F5380E945B35E0EAF4E0A0E83E
:10487000BFE00E94083A0E9453350E9462350C94B2
:104880005C24ECE7F4E80E94F5380E944535AFEA75
:10489000B3E00E94EF34ECE0F0E0AFEAB3E07BE796
:1048A0000E945C3AEFEAF3E0A0E8BFE00E948239A0
:1048B0000E943D350E944C350895E6E8F4E80E94D8
:1048C000F5380E944535EFE2F1E0A0E8BFE00E9434
:1048D00092390E943D35EAE9F4E80E94F5380E94D9
:1048E0004535E0E3F1E0A0E8BFE00E9492390E9484
:1048F0003D350E944C350E94B936A1E1B1E00E94DD
:104900003F35EEEDF3E80E94F5380E9445350E94F0
:10491000B936A8E0B1E00E943F350E944C35809145
:10492000570280931F0180912F018093570280913D
:1049300043038093310180913001809343030E94AF
:104940001407E4EAF4E80E94F5380E9445350E9415
:104950004C3581E080933301009133010A3018F027
:1049600011F00C94CF24E3E3F1E0A190BB24E4E444
:10497000F3E0EA0DFB1DA0E8BFE00E94063A0E94AA
:104980003D35E8E0FCE70E94F5380E944535A3E399
:10499000B1E08C918F5F8C9310F40C94AC240E9446
:1049A0004C35EEEAF4E80E94F5380E9445350E9445
:1049B0004C35EAEBF4E80E94F5380E94453581E079
:1049C0008093330100913301043118F011F00C94FD
:1049D0000525E8E0FCE70E94F5380E944535E3E351
:1049E000F1E0A190BB24E0E5F3E0EA0DFB1DA0E8B7
:1049F000BFE00E94063A0E943D35A3E3B1E08C91EE
:104A00008F5F8C9310F40C94E2240E944C350E942A
:104A1000EB0780911F01809357028091570280938A
:104A20002F01809131018093430380E090E0A1E564
:104A3000B2E08D939C9370919D037D7F70939D0355
:104A4000A8E5B2E0E4EDFAE70E94F5380E94883C60
:104A5000E8E5F2E00E94F83A0E942D3CEDE0F0E03B
:104A6000A8E5B2E00E943E3AE6E0F0E0A8E5B2E058
:104A700094E07BE70E945D3AE2ECF4E80E94F538AE
:104A80000E944535E3E4F3E0A0E8BFE00E949239DC
:104A90000E943D35E8E0FCE70E94F5380E9445356C
:104AA000E8E5F2E0A0E8BFE00E94F83A0E94CC35C9
:104AB0000E943D35E8E0FCE70E94F5380E9445354C
:104AC000EFE2F1E0A0E8BFE00E9492390E943D359C
:104AD000E8E0FCE70E94F5380E944535EDEAF3E096
:104AE000A0E8BFE00E9482390E943D35E8E0FCE783
:104AF0000E94F5380E944535EFEAF3E0A0E8BFE0F8
:104B00000E9482390E943D35E8E0FCE70E94F538BA
:104B10000E944535E8EEF4E0A0E8BFE00E9482394B
:104B20000E943D350E944C35E2ECF4E80E94F538D5
:104B30000E945B35E3E4F3E0A0E8BFE00E94923915
:104B40000E945335E8E0FCE70E94F5380E945B358F
:104B5000E8E5F2E0A0E8BFE00E94F83A0E94CC3518
:104B60000E945335E8E0FCE70E94F5380E945B356F
:104B7000EFE2F1E0A0E8BFE00E9492390E945335D5
:104B8000E8E0FCE70E94F5380E945B35EDEAF3E0CF
:104B9000A0E8BFE00E9482390E945335E8E0FCE7BC
:104BA0000E94F5380E945B35EFEAF3E0A0E8BFE031
:104BB0000E9482390E945335E8E0FCE70E94F538F4
:104BC0000E945B35E8EEF4E0A0E8BFE00E94823985
:104BD0000E9453350E9462350895E2E0F1E00E94A0
:104BE0009A37A0E2B1E00D931D932D933D93009170
:104BF0002401023011F00C942326EFEDF4E0A0E83C
:104C0000BFE00E9485390E943D35E8E0FCE70E9444
:104C1000F5380E944535E0E2F1E0A0E8BFE00E94EF
:104C200085390E943D35E8E0FCE70E94F5380E9496
:104C30004535E3EEF4E0A0E8BFE00E9485390E942C
:104C40003D350E944C35AFEDB4E04D915D916D91D5
:104C50007C91A0E2B1E00D911D912D913C910E94BB
:104C60006F3980E014F009F081E08F93A3EEB4E097
:104C70004D915D916D917C91A0E2B1E00D911D91FE
:104C80002D913C910E946F3980E00CF481E09F915E
:104C90008923882311F40C94832680E080932B01D0
:104CA00040912C0100912B01041711F40C948126E2
:104CB000ECECF4E80E94F5380E9445350E94B936C4
:104CC000A1E1B1E00E943F350E944C3580912B015B
:104CD00080932C0181E08093A403AAEFB1E0E6ED7C
:104CE000F4E80E94F5380E946D38AAEFB1E00E9406
:104CF0003F350E944C35AAEFB1E00E9455350E9425
:104D000062350C94BA268BE08093A40381E08093F3
:104D10002B0140912C0100912B01041711F40C94EC
:104D2000BA26E0EEF4E80E94F5380E9445350E946C
:104D3000B936A1E1B1E00E943F350E944C35809127
:104D40002B0180932C018BE08093A403AAEFB1E0A8
:104D5000E0EFF4E80E94F5380E946D38AAEFB1E068
:104D60000E943F350E944C35AAEFB1E00E945535B4
:104D70000E946235A1ECB3E00E94EF34A1ECB3E0F5
:104D80000D911C914CE251E00E941C35A1ECB3E066
:104D90000D931C93A1ECB3E00D911C91003050E0F9
:104DA000150711F00C94042700912B01013011F02C
:104DB0000C94F026AAEFB1E0E0EFF4E80E94F53899
:104DC0000E946D38AAEFB1E00E943F350E944C3539
:104DD000AAEFB1E00E9455350E9462350C94042779
:104DE000AAEFB1E0E6EDF4E80E94F5380E946D38D4
:104DF000AAEFB1E00E943F350E944C35AAEFB1E026
:104E00000E9455350E9462350895A7E5B2E00C91E5
:104E10004BE00E94753A8C93A7E5B2E08C918F5FCE
:104E20008C93EAEFF4E80E94F5380E944535E7E5F7
:104E3000F2E0A0E8BFE00E9492390E943D35EEE02A
:104E4000F5E80E94F5380E944535E8E5F2E0A0E873
:104E5000BFE00E94F83A0E94CC350E943D350E9486
:104E60004C350E94B936A1E1B1E00E943F35EEED2C
:104E7000F3E80E94F5380E9445350E94B936A8E053
:104E8000B1E00E943F350E944C35A7E5B2E08C911D
:104E9000A2EBB4E08D9388278C93A3E4B3E08C91CC
:104EA000A4EBB4E08D9388278C93AAEFB1E0E8E1FE
:104EB000F5E80E94F5380E946D38E4EBF4E0AAEFC3
:104EC000B1E00E9436350E94083AAAEFB1E00E9494
:104ED0003F350E944C35AAEFB1E00E9455350E9443
:104EE0006235009157020B3011F00C94FB27709142
:104EF0009D037E7F70939D03A8E5B2E0E4EDFAE7A1
:104F00000E94F5380E94883CE8E5F2E00E94F83AF9
:104F10000E942D3CEDE0F0E0A8E5B2E00E943E3AB0
:104F2000E6E0F0E0A8E5B2E094E07BE70E945D3ABD
:104F3000E8E5F2E0ACE3B1E00E943E3A90913F0137
:104F400080913E01A6E3B1E08D939C93A6E3B1E08E
:104F50008D919C91AEE9B4E08D939C93AAEFB1E062
:104F6000E4E2F5E80E94F5380E946D38EEE9F4E0DD
:104F7000AAEFB1E00E9436350E94083AAAEFB1E0EC
:104F80000E943F350E944C35AAEFB1E00E94553592
:104F90000E94623590913D0180913C01A6E3B1E011
:104FA0008D939C93A7E2B1E08C918F5F8C93A6E3E5
:104FB000B1E08D919C91A0EAB4E08D939C93AAEF0F
:104FC000B1E0E0E3F5E80E94F5380E946D38E0EAD0
:104FD000F4E0AAEFB1E00E9436350E94083AAAEF49
:104FE000B1E00E943F350E944C35AAEFB1E00E942B
:104FF00055350E9462350E941407E4EAF4E80E94E5
:10500000F5380E9445350E944C3581E0809333018C
:10501000009133010A3018F011F00C942B28E3E3CF
:10502000F1E0A190BB24E4E4F3E0EA0DFB1DA0E86D
:10503000BFE00E94063A0E943D35E8E0FCE70E948E
:10504000F5380E944535A3E3B1E08C918F5F8C93D6
:1050500010F40C9408280E944C35EEEAF4E80E9403
:10506000F5380E9445350E944C35EAEBF4E80E9481
:10507000F5380E94453581E080933301009133017A
:10508000043118F011F00C946128E8E0FCE70E946C
:10509000F5380E944535E3E3F1E0A190BB24E0E55B
:1050A000F3E0EA0DFB1DA0E8BFE00E94063A0E9473
:1050B0003D35A3E3B1E08C918F5F8C9310F40C9499
:1050C0003E280E944C350E944C350E94EB07E2ECD2
:1050D000F4E80E94F5380E944535E3E4F3E0A0E8E7
:1050E000BFE00E9492390E943D35E8E0FCE70E9453
:1050F000F5380E944535E8E5F2E0A0E8BFE00E94FF
:10510000F83A0E94CC350E943D35E8E0FCE70E9469
:10511000F5380E944535E7E5F2E0A0E8BFE00E94DF
:1051200092390E943D35E8E0FCE70E94F5380E9484
:105130004535EDEAF3E0A0E8BFE00E9482390E9425
:105140003D35E8E0FCE70E94F5380E944535EFEA7E
:10515000F3E0A0E8BFE00E9482390E943D35E8E01C
:10516000FCE70E94F5380E944535E8EEF4E0A0E83F
:10517000BFE00E9482390E943D350E944C35E2EC2E
:10518000F4E80E94F5380E945B35E3E4F3E0A0E820
:10519000BFE00E9492390E945335E8E0FCE70E948C
:1051A000F5380E945B35E8E5F2E0A0E8BFE00E9438
:1051B000F83A0E94CC350E945335E8E0FCE70E94A3
:1051C000F5380E945B35E7E5F2E0A0E8BFE00E9419
:1051D00092390E945335E8E0FCE70E94F5380E94BE
:1051E0005B35EDEAF3E0A0E8BFE00E9482390E945F
:1051F0005335E8E0FCE70E94F5380E945B35EFEAA2
:10520000F3E0A0E8BFE00E9482390E945335E8E055
:10521000FCE70E94F5380E945B35E8EEF4E0A0E878
:10522000BFE00E9482390E9453350E946235089582
:10523000A6E2B1E08C9183FB16F00C94F42A7091F5
:105240002601777F70932601ECE3F5E80E94F5389C
:105250000E9445350E944C350E94B936A1E1B1E06B
:105260000E943F35EEEDF3E80E94F5380E94453587
:105270000E94B936A8E0B1E00E943F350E944C354B
:10528000A3E4B3E08C91A4EBB4E08D9388278C93D6
:10529000E2E0F4E80E94F5380E944535E6E4F5E8DE
:1052A0000E94F5380E944535E8E0FCE70E94F53899
:1052B0000E944535E4EBF4E0A0E8BFE00E94083A24
:1052C0000E943D350E944C35E2E0F4E80E94F5383A
:1052D0000E945B35E6E4F5E80E94F5380E945B35F4
:1052E000E8E0FCE70E94F5380E945B35E4EBF4E06F
:1052F000A0E8BFE00E94083A0E9453350E94623540
:105300008091570280931F018FE0809357020E9483
:105310001407E4EAF4E80E94F5380E9445350E943B
:105320004C3581E080933301009133010A3018F04D
:1053300011F00C94B729E3E3F1E0A190BB24E4E47D
:10534000F3E0EA0DFB1DA0E8BFE00E94063A0E94D0
:105350003D35E8E0FCE70E94F5380E944535A3E3BF
:10536000B1E08C918F5F8C9310F40C9494290E947F
:105370004C35EEEAF4E80E94F5380E9445350E946B
:105380004C35EAEBF4E80E94F5380E94453581E09F
:105390008093330100913301043118F011F00C9423
:1053A000ED29E8E0FCE70E94F5380E944535E3E38B
:1053B000F1E0A190BB24E0E5F3E0EA0DFB1DA0E8DD
:1053C000BFE00E94063A0E943D35A3E3B1E08C9114
:1053D0008F5F8C9310F40C94CA290E944C350E9464
:1053E000EB0780911F0180935702ADE2B1E08C91F1
:1053F0008F5F8C93EAE4F5E80E94F5380E9445350A
:10540000EDE2F1E0A0E8BFE00E9492390E943D3554
:105410000E944C35ADE2B1E00C9145E00E94753A36
:105420008C9300912D01003011F00C942C2A709176
:105430009D037F7770939D03709126017F7E70930B
:10544000260180E090E0A1E5B2E08D939C937091FD
:105450009D037D7F70939D03A8E5B2E0E4EDFAE73C
:105460000E94F5380E94883CE8E5F2E00E94F83A94
:105470000E942D3CEDE0F0E0A8E5B2E00E943E3A4B
:10548000E6E0F0E0A8E5B2E094E07BE70E945D3A58
:10549000E2ECF4E80E94F5380E944535E3E4F3E0DD
:1054A000A0E8BFE00E9492390E943D35E8E0FCE7A9
:1054B0000E94F5380E944535E8E5F2E0A0E8BFE03B
:1054C0000E94F83A0E94CC350E943D35E8E0FCE7A6
:1054D0000E94F5380E944535E8E5F5E80E94F53868
:1054E0000E944535E8E0FCE70E94F5380E9445350A
:1054F000EDEAF3E0A0E8BFE00E9482390E943D356A
:10550000E8E0FCE70E94F5380E944535EFEAF3E059
:10551000A0E8BFE00E9482390E943D35E8E0FCE748
:105520000E94F5380E944535E8EEF4E0A0E8BFE0BF
:105530000E9482390E943D350E944C35E2ECF4E82D
:105540000E94F5380E945B35E3E4F3E0A0E8BFE099
:105550000E9492390E945335E8E0FCE70E94F5383A
:105560000E945B35E8E5F2E0A0E8BFE00E94F83A6F
:105570000E94CC350E945335E8E0FCE70E94F538E4
:105580000E945B35E8E5F5E80E94F5380E945B353E
:10559000E8E0FCE70E94F5380E945B35EDEAF3E0B5
:1055A000A0E8BFE00E9482390E945335E8E0FCE7A2
:1055B0000E94F5380E945B35EFEAF3E0A0E8BFE017
:1055C0000E9482390E945335E8E0FCE70E94F538DA
:1055D0000E945B35E8EEF4E0A0E8BFE00E9482396B
:1055E0000E9453350E9462350895A6E2B1E08C9185
:1055F00083FB16F00C94D12C70912601777F709369
:105600002601ECE5F5E80E94F5380E9445350E9438
:105610004C350E94B936A1E1B1E00E943F35EEED74
:10562000F3E80E94F5380E9445350E94B936A8E09B
:10563000B1E00E943F350E944C3580915702809323
:105640001F018EE080935702A3E4B3E08C91A4EB9A
:10565000B4E08D9388278C93E2E0F4E80E94F5385B
:105660000E944535E6E4F5E80E94F5380E9445358C
:10567000E8E0FCE70E94F5380E944535E4EBF4E0F1
:10568000A0E8BFE00E94083A0E943D350E944C35D8
:10569000E2E0F4E80E94F5380E945B35E6E4F5E8C4
:1056A0000E94F5380E945B35E8E0FCE70E94F5387F
:1056B0000E945B35E4EBF4E0A0E8BFE00E94083A0A
:1056C0000E9453350E9462350E941407E4EAF4E810
:1056D0000E94F5380E9445350E944C3581E0809348
:1056E0003301009133010A3018F011F00C94942B1F
:1056F000E3E3F1E0A190BB24E4E4F3E0EA0DFB1D59
:10570000A0E8BFE00E94063A0E943D35E8E0FCE7D1
:105710000E94F5380E944535A3E3B1E08C918F5F7C
:105720008C9310F40C94712B0E944C35EEEAF4E843
:105730000E94F5380E9445350E944C35EAEBF4E8AA
:105740000E94F5380E94453581E080933301009135
:105750003301043118F011F00C94CA2BE8E0FCE797
:105760000E94F5380E944535E3E3F1E0A190BB24A7
:10577000E0E5F3E0EA0DFB1DA0E8BFE00E94063A79
:105780000E943D35A3E3B1E08C918F5F8C9310F4C0
:105790000C94A72B0E944C350E94EB0780911F01AF
:1057A00080935702ADE2B1E08C918F5F8C93EAE475
:1057B000F5E80E94F5380E944535EDE2F1E0A0E8F9
:1057C000BFE00E9492390E943D350E944C35ADE207
:1057D000B1E00C9145E00E94753A8C9300912D0147
:1057E000003011F00C94092C70919D037F7B709315
:1057F0009D03709126017F7E7093260180E090E0EA
:10580000A1E5B2E08D939C9370919D037D7F709391
:105810009D03A8E5B2E0E4EDFAE70E94F5380E94A6
:10582000883CE8E5F2E00E94F83A0E942D3CEDE069
:10583000F0E0A8E5B2E00E943E3AE6E0F0E0A8E53C
:10584000B2E094E07BE70E945D3AE2ECF4E80E946B
:10585000F5380E944535E3E4F3E0A0E8BFE00E949C
:1058600092390E943D35E8E0FCE70E94F5380E943D
:105870004535E8E5F2E0A0E8BFE00E94F83A0E9472
:10588000CC350E943D35E8E0FCE70E94F5380E94E7
:105890004535E4E6F5E80E94F5380E944535E8E034
:1058A000FCE70E94F5380E944535EDEAF3E0A0E8F8
:1058B000BFE00E9482390E943D35E8E0FCE70E948B
:1058C000F5380E944535EFEAF3E0A0E8BFE00E941A
:1058D00082390E943D35E8E0FCE70E94F5380E94DD
:1058E0004535E8EEF4E0A0E8BFE00E9482390E946E
:1058F0003D350E944C35E2ECF4E80E94F5380E94F8
:105900005B35E3E4F3E0A0E8BFE00E9492390E9437
:105910005335E8E0FCE70E94F5380E945B35E8E586
:10592000F2E0A0E8BFE00E94F83A0E94CC350E9465
:105930005335E8E0FCE70E94F5380E945B35E4E669
:10594000F5E80E94F5380E945B35E8E0FCE70E942C
:10595000F5380E945B35EDEAF3E0A0E8BFE00E9475
:1059600082390E945335E8E0FCE70E94F5380E9436
:105970005B35EFEAF3E0A0E8BFE00E9482390E94C5
:105980005335E8E0FCE70E94F5380E945B35E8EE0D
:10599000F4E0A0E8BFE00E9482390E9453350E94E3
:1059A00062350895A6E2B1E08C9183FB16F00C9469
:1059B000C52E70912601777F70932601E8E6F5E801
:1059C0000E94F5380E9445350E944C350E94B93638
:1059D000A1E1B1E00E943F35EEEDF3E80E94F53819
:1059E0000E9445350E94B936A8E0B1E00E943F35DB
:1059F0000E944C35A3E4B3E08C91A4EBB4E08D930A
:105A000088278C93E2E0F4E80E94F5380E9445353F
:105A1000E6E4F5E80E94F5380E944535E8E0FCE749
:105A20000E94F5380E944535E4EBF4E0A0E8BFE0C1
:105A30000E94083A0E943D350E944C35E2E0F4E8AD
:105A40000E94F5380E945B35E6E4F5E80E94F538DF
:105A50000E945B35E8E0FCE70E94F5380E945B3568
:105A6000E4EBF4E0A0E8BFE00E94083A0E9453355E
:105A70000E9462358091570280931F0100912B0193
:105A8000003011F00C94512D8DE080935702A9EE57
:105A9000B1E0E2E7F5E80E94F5380E946D380C9419
:105AA0005C2D8CE080935702A9EEB1E0E6E4F5E8C6
:105AB0000E94F5380E946D380E941407E4EAF4E869
:105AC0000E94F5380E9445350E944C3581E0809354
:105AD0003301009133010A3018F011F00C948C2D31
