:100000000C94460018950000189500001895000003
:10001000189500000C94D80218950000189500005F
:10002000189500001895000018950000189500001C
:10003000189500001895000018950000189500000C
:100040000C94D401189500000C94B0001895000091
:1000500018950000189500001895000018950000EC
:1000600018950000189500001895000018950000DC
:1000700018950000189500000C9442011895000096
:100080001895000018950000189500008FEF8DBF9F
:10009000C0E8E8E94E2E80E18EBFD0E1FFE05F2EA0
:1000A000A89584B7082E807E84BF88E1992781BDFA
:1000B00091BDEEEFFFE0A0E0B1E088278D9331978E
:1000C000E9F787E689B980E08093900088E18AB9F2
:1000D00080E08093980087E68093990088E1809380
:1000E0009A006624A59AA69AA79A709164007460F3
:1000F00070936400BB9ABC9ABD9ABE9ABF9A8C98C2
:100100008D988E988F981498949A959A969A979A13
:10011000A098A198A298A89AA99AAA9AD49AD59A8E
:10012000D69AD79AA49A87E083BF77B7716077BFD2
:1001300087E083BF579A70919A00706870939A0015
:1001400087E886B980E087B9339A379A79B77061C2
:1001500079BF8AB78C7F81608ABF78940C94121A19
:100160000F921F922F923F924F925F927F92AF9287
:10017000BF920F931F932F933F934F935F936F9370
:100180007F938F939F93AF93BF93CF93DF93EF931F
:10019000FF939FB79F939BB79F9399279BBFAFE711
:1001A000B6E08CB18C9384E2482F00917F0604174F
:1001B00011F00C94E60070919C02706170939C02A7
:1001C000A6EBB5E088278C930C9423010D3011F039
:1001D0000C940B01ACE9B2E08C9184FB16F00C940A
:1001E000090170919C027F7E70939C0280E0A6EBD7
:1001F000B5E00E94DE1C8D9388278C93E6EBF5E03A
:10020000A0E8B6E00E94F41F70919C0278607093A1
:100210009C020C9423010F3118F011F00C94120180
:100220000C942301ACE9B2E08C9184FB16F00C94A1
:100230002301AFE7B6E08C91A6EBB5E00E94DE1C8F
:100240008D9388278C939F919BBF9F919FBFFF9118
:10025000EF91DF91CF91BF91AF919F918F917F915E
:100260006F915F914F913F912F911F910F91BF908F
:10027000AF907F905F904F903F902F901F900F9086
:10028000189508950F921F922F923F924F925F926E
:100290007F92AF92BF920F931F932F933F934F93F1
:1002A0005F936F937F938F939F93AF93BF93CF93FE
:1002B000DF93EF93FF939FB79F939BB79F939927EC
:1002C0009BBFAFE7B6E080919C008C9384E2482FFF
:1002D00000917F06041711F00C94790170919C0233
:1002E000706170939C02A6EBB5E088278C930C9408
:1002F000B6010D3011F00C949E01ACE9B2E08C9186
:1003000084FB16F00C949C0170919C027F7E70938C
:100310009C0280E0A6EBB5E00E94DE1C8D9388274E
:100320008C93E6EBF5E0A0E8B6E00E94F41F709134
:100330009C02786070939C020C94B6010F3118F007
:1003400011F00C94A5010C94B601ACE9B2E08C91CB
:1003500084FB16F00C94B601AFE7B6E08C91A6EBE7
:10036000B5E00E94DE1C8D9388278C939F919BBFE4
:100370009F919FBFFF91EF91DF91CF91BF91AF917F
:100380009F918F917F916F915F914F913F912F91AD
:100390001F910F91BF90AF907F905F904F903F90D3
:1003A0002F901F900F9018950F921F922F923F92AF
:1003B0004F925F927F92AF92BF920F931F932F93B2
:1003C0003F934F935F936F937F938F939F93AF93DD
:1003D000BF93CF93DF93EF93FF939FB79F939BB709
:1003E0009F9399279BBF74E672BFA0E9B2E08C91FE
:1003F0008F5F8C93A0E9B2E00C9148E00E9430201E
:100400008C9300919002003011F00C943A02A1E913
:10041000B2E00C9140E20E9430208C93EAE1F3E3D9
:100420000E94BF1EA6E9B2E08C919927A2E9B2E032
:100430000E94761E80919102A2E9B2E00E94AA1E5B
:100440000E94A01E0C900822689409F4E894A2E38C
:10045000B2E08C9183F98C93A2E3B2E08C9183FBA0
:10046000A5E3B0E08C9185F98C93A1E9B2E08C9181
:100470008F5F8C93A7E9B2E08C918F5F8C93A7E993
:10048000B2E00C9144E60E9430208C9300919702D8
:10049000003011F00C946F0270919C0270647093A4
:1004A0009C0270910901706470930901ACE1B2E0A3
:1004B0008C918F5F8C9300911C0240911D020E94D1
:1004C0003020ACE1B2E08C9300911C02003011F0BE
:1004D0000C946F0270910901716070930901A2E39D
:1004E000B2E08C9180FB16F00C949102AAE9B2E084
:1004F0000E94971CADE9B2E04D915C91AAE9B2E08F
:100500000D911C910417150711F00C949102709134
:100510009C02706870939C02709132027E7F70938F
:100520003202A9E0B1E08C9185FB16F00C94BA027E
:10053000A2E1B1E00E94971CA2E1B1E00D911C91F3
:1005400044EF51E00E94C41CA2E1B1E00D931C9362
:10055000A2E1B1E00D911C91003050E0150711F0BF
:100560000C94BA0280E080936B02709109017F7D48
:10057000709309019F919BBF9F919FBFFF91EF9146
:10058000DF91CF91BF91AF919F918F917F916F91AB
:100590005F914F913F912F911F910F91BF90AF901D
:1005A0007F905F904F903F902F901F900F901895E5
:1005B0000F921F922F923F924F925F927F92AF9233
:1005C000BF920F931F932F933F934F935F936F931C
:1005D0007F938F939F93AF93BF93CF93DF93EF93CB
:1005E000FF939FB79F939BB79F9399279BBFAEE8BD
:1005F000B2E08C918F5F8C930C9B0C940203AF9AAA
:100600000C940303AF980C9B0C944A03AAE6B2E047
:1006100080B38C9394E0AAE6B2E00E94541EABE64D
:10062000B2E08C918F5F8C9380916A02ABE6B2E06E
:10063000AD90BB24ABE6B2E0AA0DBB1D8C93ABE63C
:10064000B2E00C9144E10E9430208C9300916B0247
:10065000013011F00C9431037091090170627093B4
:10066000090100916B02003011F00C943C03709171
:10067000320270627093320200916B020E3018F0F9
:1006800011F00C9445030C944A037091320270628D
:10069000709332029F919BBF9F919FBFFF91EF91FB
:1006A000DF91CF91BF91AF919F918F917F916F918A
:1006B0005F914F913F912F911F910F91BF90AF90FC
:1006C0007F905F904F903F902F901F900F901895C4
:1006D000AD98AC98C39AEAEEF5E40E94BF1E0E9462
:1006E000ED1C0E94F41CA0E8BFE0E0E1F6E40E94EB
:1006F000BF1E0E943D1E0E94E51C0E94F41CA0E843
:10070000BFE0E4E2F6E40E94BF1E0E943D1E0E948C
:10071000E51C0E94F41CA0E8BFE0ECE2F6E40E94B5
:10072000BF1E0E943D1E0E94E51C0E94F41C81E039
:100730008093960281E0809329028CE291E0AEE101
:10074000B2E08D939C9381E080932B0281E08093B3
:100750002C02E4E0F0E0A2E2B2E00E942620E8E40D
:10076000F6E40E94BF1E0E94ED1CE2E2F2E0A0E867
:10077000BFE00E943D1F0E94E51C0E94F41C81E026
:100780008093BA020091BA02033018F011F00C9471
:100790001604AAEBB2E0AD90BB24A8EBB2E0AA0C21
:1007A000BB1CAA0CBB1CAA0DBB1DEAEBF2E0A1907E
:1007B000BB24E5E0F0E0AA0CBB1CAA0CBB1CEA0DB4
:1007C000FB1D94E00E942920E6E5F6E40E94BF1E8E
:1007D0000E94ED1CEAEBF2E0A0E8BFE00E943D1FA2
:1007E0000E94E51CECE5F6E40E94BF1E0E94ED1C91
:1007F000EAEBF2E0A190BB24E8EBF2E0AA0CBB1C10
:10080000AA0CBB1CEA0DFB1DA0E8BFE00E94B320B0
:100810000E94321D0E94E51C0E94F41CAAEBB2E06B
:100820008C918F5F8C9310F40C94C203A3E2B2E01E
:10083000E5E0F0E094E00E942920E0E6F6E40E9482
:10084000BF1E0E94ED1CE3E2F2E0A0E8BFE00E94C0
:10085000B3200E94321D0E94E51C0E94F41C70917E
:1008600009017F77709309018AE080931D02ECE70C
:10087000F6E40E94BF1E0E94ED1CEDE1F2E0A0E84C
:10088000BFE00E943D1F0E94E51C0E94F41CE5E1B0
:10089000F0E0A0EEB2E00E942820E2E8F6E40E9438
:1008A000BF1E0E94ED1CE0EEF2E0A0E8BFE00E9457
:1008B0002D1F0E94E51C0E94F41CE7E1F0E0A2EE6F
:1008C000B2E00E942820EEE8F6E40E94BF1E0E94DB
:1008D000ED1CE2EEF2E0A0E8BFE00E942D1F0E94B6
:1008E000E51C0E94F41C84E180933302EAE9F6E4FB
:1008F0000E94BF1E0E94ED1CE3E3F2E0A0E8BFE00F
:100900000E943D1F0E94E51C0E94F41C81E0809320
:10091000000100910001043018F011F00C94CE0495
:10092000E0E0F1E0A190BB24E8E1F0E0EA0DFB1D7E
:10093000A0E0B1E0AD90BB24A3EEB2E0AA0DBB1DD8
:100940000E942620E0EAF6E40E94BF1E0E94ED1CF1
:10095000E0E0F1E0A0E8BFE00E943D1F0E94E51C3E
:10096000E8EAF6E40E94BF1E0E94ED1CE0E0F1E020
:10097000A190BB24E3EEF2E0EA0DFB1DA0E8BFE08E
:100980000E943D1F0E94E51C0E94F41CA0E0B1E003
:100990008C918F5F8C9310F40C9489040895EAED88
:1009A000F5E40E94BF1E0E940222E9E0F0E0ADE003
:1009B000BB2794E07BE70E941820EAEDF5E40E9453
:1009C000BF1E0E940222EDE0F0E0ADE0BB2794E004
:1009D0007BE70E941820EAEDF5E40E94BF1E0E940A
:1009E0000222E1E1F0E0ADE0BB2794E07BE70E946A
:1009F0001820E4E0F0E0A0E1BB278EE08C937BE7D9
:100A00000E941520EEEDF5E40E94BF1E0E94022216
:100A1000E5E0F0E0ADE0BB2794E07BE70E94182022
:100A2000E5E1F0E000E010E0A0E1BB277BE70E94F9
:100A30001720E7E1F0E000E010E0A0E1BB277BE752
:100A40000E941720E9E1F0E0A0E1BB2780E88C9349
:100A50007BE70E941520EAE1F0E0A0E1BB2780E8F7
:100A60008C937BE70E941520EBE1F0E0A0E1BB272F
:100A700080E88C937BE70E941520ECE1F0E0A0E198
:100A8000BB2780E88C937BE70E9415200895A881FE
:100A9000B9818D919C91ADE9B2E08D939C9380E0FA
:100AA00090E0AAE9B2E08D939C9370919C027F77CD
:100AB00070939C0270913202716070933202ACE9C3
:100AC000B2E08C9187FB16F40C946905A8950C9400
:100AD0005F05089581E080930001009100010430DA
:100AE00018F011F00C94B1050091000141E0041BD5
:100AF000A2E0B1E00C93A0E0B1E0AD90BB24A3EE86
:100B0000B2E0AA0DBB1D4C91A0E0B1E0AD90BB24BA
:100B1000A5E3B2E0AA0DBB1D0C91041710F00C94D4
:100B20009E0580910201A8EEB2E00E94AA1E0E94DA
:100B3000A01E8C9189238C930C94A90580910201AD
:100B4000A8EEB2E00E94AA1E0E94A01E9C91982BC3
:100B50009C93A0E0B1E08C918F5F8C9310F40C9487
:100B60006D05D201E8EEF2E00E94CA1FD2010E9498
:100B7000E71C0E94F41C0895EAEAF6E40E94BF1EF6
:100B80000E94ED1C0E94F41CA2E2B2E08C9180FB5A
:100B9000AAE3B2E08C9180F98C93A2E2B2E08C914E
:100BA00081FBAAE3B2E08C9181F98C93A2E2B2E0DE
:100BB0008C9182FBAAE3B2E08C9182F98C93A2E241
:100BC000B2E08C9183FBAAE3B2E08C9183F98C9321
:100BD000A9E2B2E08C9180FBAAE3B2E08C9184F9A7
:100BE0008C93A9E2B2E08C9181FBAAE3B2E08C91F4
:100BF00085F98C93A9E2B2E08C9182FBAAE3B2E082
:100C00008C9186F98C93A9E2B2E08C9183FBAAE3E4
:100C1000B2E08C9187F98C93E3E2F2E0A5E0B1E0D9
:100C20000E94F91F8091050180933B02809106018B
:100C300080933C028091070180933D0280910801DE
:100C400080933E02ACE2B2E08C9180FBAFE3B2E075
:100C50008C9180F98C93ACE2B2E08C9181FBAFE394
:100C6000B2E08C9181F98C93ACE2B2E08C9182FB82
:100C7000AFE3B2E08C9182F98C93ACE2B2E08C915C
:100C800083FBAFE3B2E08C9183F98C930E946A05F9
:100C9000A8EEB2E08C9180FBAFE3B2E08C9184F9D6
:100CA0008C93A8EEB2E08C9181FBAFE3B2E08C9123
:100CB00085F98C93A8EEB2E08C9182FBAFE3B2E0B1
:100CC0008C9186F98C93A8EEB2E08C9183FBAFE314
:100CD000B2E08C9187F98C938091D402809340028A
:100CE0008091D502809341028091D6028093420286
:100CF0008091D702809343028091D802809344026E
:100D00008091D902809345028091DA028093460255
:100D10008091DB0280934702EAE3F2E08EE00E94DA
:100D20005A20A0E0B1E00C9380910001809348022A
:100D30008091220280934A028091290280934B0283
:100D400083E08093040181E0809300010091000121
:100D50000E3018F011F00C94EE060091000141E005
:100D6000040FA2E0B1E00C93A2E0B1E0AD90BB248F
:100D7000A9E3B2E0AA0DBB1D8C9180930301009101
:100D800003014FE00423A4E0B1E0AD90BB24A9E44B
:100D9000B2E0AA0DBB1D0C93A4E0B1E08C918F5F73
:100DA0008C9394E0A3E0B1E00E94541E8091030173
:100DB000A4E0B1E0AD90BB24A9E4B2E0AA0DBB1D54
:100DC0008C93A4E0B1E08C918F5F8C93A0E0B1E0B4
:100DD0008C918F5F8C9310F40C94A60608957091FB
:100DE000650074607093650084E690E0D2018D9395
:100DF0009C9382E00E942B1E0E944705229682E06F
:100E00000E94271E81E080930A0100910A010E31A1
:100E100018F011F00C947007AAE0B1E0AD90BB247B
:100E2000A9E4B2E0AA0DBB1D8C9180FBA8E3B0E061
:100E30008C9184F98C93AAE0B1E0AD90BB24A9E435
:100E4000B2E0AA0DBB1D8C9181FBA8E3B0E08C91B0
:100E500085F98C93AAE0B1E0AD90BB24A9E4B2E09F
:100E6000AA0DBB1D8C9182FBA8E3B0E08C9186F9A2
:100E70008C93AAE0B1E0AD90BB24A9E4B2E0AA0D46
:100E8000BB1D8C9183FBA8E3B0E08C9187F98C9318
:100E9000AE9AC39888E090E0D2018D939C9382E053
:100EA0000E942B1E0E944705229682E00E94271E68
:100EB000C39AAE9884E090E0D2018D939C9382E037
:100EC0000E942B1E0E944705229682E00E94271E48
:100ED000AAE0B1E08C918F5F8C9310F40C9405071D
:100EE000709165007B7F70936500089500912B02DF
:100EF000013011F00C94A60880E080938F02A3E3E8
:100F0000B0E08C9180FBAFE8B2E08C9180F98C93DB
:100F1000A3E3B0E08C9181FBAFE8B2E08C9181F962
:100F20008C9300912902013011F00C94F807A2E390
:100F3000B2E08C9187FB16F40C94A30781E08093B8
:100F400096020C94A6078BE08093960200918F0284
:100F5000023011F00C94C507E8EBF6E40E94BF1EC6
:100F60000E94ED1C0E94F41C82E080932902709183
:100F700009017F777093090182E0809396028EE1E8
:100F800090E0AEE1B2E08D939C9300918F0200302F
:100F900081E009F080E08F9300918F02013081E0C1
:100FA00009F080E09F91892B882311F40C94F607B7
:100FB000E8ECF6E40E94BF1E0E94ED1C0E94F41CA7
:100FC00083E08093290283E0809396027091090167
:100FD0007F777093090170913202706170933202D1
:100FE0008EE190E0AEE1B2E08D939C930C945408B6
:100FF000023011F00C94270800918F02033011F099
:101000000C942508E2EEF6E40E94BF1E0E94ED1C3F
:101010000E94F41C81E08093290281E08093960273
:10102000709109017F77709309018CE390E0AEE144
:10103000B2E08D939C93A2E3B2E08C9187FB16F013
:101040000C9425088BE0809396020C94540803308E
:1010500011F00C94540800918F02033011F00C949D
:101060005408E6E0F7E40E94BF1E0E94ED1C0E94B7
:10107000F41C81E08093290281E0809396027091B4
:1010800009017F77709309018CE390E0AEE1B2E053
:101090008D939C93A2E3B2E08C9187FB16F00C94A5
:1010A00054088BE08093960240912A020091290215
:1010B000041711F40C94A408709109017F777093C0
:1010C000090170913202706470933202809129029A
:1010D00080932A02ECE2F7E40E94BF1E0E94ED1CFE
:1010E000E9E2F2E0A0E8BFE00E943D1F0E94E51C9B
:1010F0000E94F41C00912902013011F00C94880820
:101100008CE390E0AEE1B2E08D939C930C949E084A
:10111000023011F00C9494088EE190E0AEE1B2E060
:101120008D939C930C949E08033011F00C949E08B0
:101130008EE190E0AEE1B2E08D939C9380E090E090
:10114000AFE2B2E08D939C930C94150980912B0231
:1011500080932902809129028093960200912902AE
:10116000013081E009F080E08F93A2E3B2E08C913E
:1011700087FB81E00EF080E09F918923882311F4A2
:101180000C94C5088BE08093960240912A0200914E
:101190002902041711F40C941509709109017F7745
:1011A000709309018091290280932A02EEE3F7E40B
:1011B0000E94BF1E0E94ED1CE9E2F2E0A0E8BFE041
:1011C0000E943D1F0E94E51C0E94F41C7091320297
:1011D00070647093320200912902013011F00C9476
:1011E000F90888E592E0AEE1B2E08D939C930C940F
:1011F0000F09023011F00C9405098EE190E0AEE188
:10120000B2E08D939C930C940F09033011F00C9471
:101210000F098EE190E0AEE1B2E08D939C9380E007
:1012200090E0AFE2B2E08D939C93009129020130EF
:1012300011F00C941C09AC9800912902023011F0B5
:101240000C942309AC9A00912902033011F00C94FC
:101250002A09AC9A00912902003011F00C9431094E
:10126000AC9800912902033018F011F00C943A095F
:101270000C943B09AC980895A881B9818C9180FBAE
:10128000ABE3B0E08C9184F98C93A881B9818C9107
:1012900081FBABE3B0E08C9185F98C93A881B98197
:1012A0008C9182FBABE3B0E08C9186F98C93A881A2
:1012B000B9818C9183FBABE3B0E08C9187F98C937F
:1012C000089581E08093BA020091BA02033018F0C9
:1012D00011F00C94B709EEE5F3E30E94BF1EAAEBF0
:1012E000B2E08C919927ABEBB2E00E94721E07B17D
:1012F000007E8091BB0290E0890F082707B90E9409
:10130000431EA8EBB2E08D939C93E8EBF2E0D19002
:10131000E080FF2400270E94E7200E94BD20EAEB26
:10132000F2E0A190BB24EBE9F2E0AA0CBB1CAA0CF2
:10133000BB1CEA0DFB1D0E94B3200E94B421EDE00E
:10134000F0E0AAEBB2E0AD90BB24ABE9B2E0AA0CAE
:10135000BB1CAA0CBB1CAA0DBB1D0E94F91FAAEB4B
:10136000B2E08C918F5F8C9310F40C946409ABEA1B
:10137000B2E08C918F5F8C93ABEAB2E00C9148E0C5
:101380000E9430208C930091AB02003011F00C943D
:10139000910A81E08093BA020091BA02033018F0FA
:1013A00011F00C947F0AE2EEF5E40E94BF1E0E9449
:1013B0000F22EAEBF2E0A190BB24EBE9F2E0AA0CE9
:1013C000BB1CAA0CBB1CEA0DFB1D0E94B3200E9493
:1013D0001421EDE0F0E0AAEBB2E0AD90BB24A8EA66
:1013E000B2E0AA0CBB1CAA0CBB1CAA0DBB1D0E9420
:1013F000F91FAAEBB2E0AD90BB24ABE9B2E0AA0CB6
:10140000BB1CAA0CBB1CAA0DBB1DEEEDF5E40E9493
:10141000BF1E0E946A1EEAEBF2E0A190BB24E8EB3B
:10142000F2E0AA0CBB1CAA0CBB1CEA0DFB1D0E941F
:10143000B820EAEBF2E0A190BB24E8EAF2E0AA0CC3
:10144000BB1CAA0CBB1CEA0DFB1D0E94B3200E9412
:101450006D21EDE0F0E0AAEBB2E0AD90BB24A4EC8E
:10146000B2E0AA0CBB1CAA0CBB1CAA0DBB1D0E949F
:10147000F91F00911101013011F00C94770AE0E698
:10148000F7E40E94BF1E0E94ED1CEAEBF2E0A0E828
:10149000BFE00E943D1F0E94E51CE8EAF6E40E94BE
:1014A000BF1E0E94ED1CEAEBF2E0A190BB24E4EC2D
:1014B000F2E0AA0CBB1CAA0CBB1CEA0DFB1D0E948F
:1014C000B320A0E8BFE0AF93BF930E94321D11E0AC
:1014D00001E0BF91AF910E94D21EE0E8FFE0A0E8DA
:1014E000BFE00E94F41F0E94E51C0E94F41CAAEBBE
:1014F000B2E08C918F5F8C9310F40C94CC09E8ECE3
:10150000F2E0A4EDB2E00E94F91FECECF2E0A8EDED
:10151000B2E00E94F91FE0EDF2E0ACEDB2E00E9413
:10152000F91F0895A0E8B6E00E94E71C0E94F41C91
:1015300081E0E0E8F6E006E00A93A5EEB1E00E9463
:10154000FF1FE0E8F6E09CE204E132E2ACEEB2E03C
:101550000E947E20ABEEB2E02C93ACEEB2E00E9493
:101560004020082F063011F00C94F614ECEEF2E057
:10157000A4E1B1E00E94F41FE4E1F1E0A4E1B1E0F4
:101580000E94941E8FEF8093E401A4E1B1E0E4E6B1
:10159000F7E40E94BF1E0E94462011F00C94110B2C
:1015A00080E08093E401ABE1B1E0ECE6F7E40E9477
:1015B000BF1E0E943D1EA5EEB1E0E0E1F6E40E94F0
:1015C000BF1E0E943D1EE5EEF1E0ABE1B1E00E94DE
:1015D000DE1C0E94F41FABE1B1E00E94DE1CE0E8DB
:1015E000F7E40E94BF1E0E943D1EA5EEB1E0ECE2B2
:1015F000F6E40E94BF1E0E943D1EE5EEF1E0ABE165
:10160000B1E00E94DE1C0E94F41FABE1B1E00E9439
:10161000DE1CEEE8F7E40E94BF1E0E943D1E0C9403
:10162000F414E0E9F7E40E94BF1E0E94462011F086
:101630000C94500B0091EB02023011F00C944B0B08
:10164000A1E0B3E00E94821FA0E0B1E00C93009102
:101650000001013110F00C94460B80E08093E4010E
:10166000ABE1B1E0E8E9F7E40E94BF1E0E943D1E35
:10167000E0E0F1E0ABE1B1E00E94DE1C0E943D1F22
:1016800080910001809396020C94490B85E0809331
:10169000E4010C944E0B84E08093E4010C94F41468
:1016A000E0EBF7E40E94BF1E0E94462011F00C946C
:1016B0006E0B80E08093E401ABE1B1E0E8EBF7E48E
:1016C0000E94BF1E0E943D1EE6E9F2E0ABE1B1E0E0
:1016D0000E94DE1C0E943D1F0C94F414E4ECF7E41D
:1016E0000E94BF1E0E94462011F00C94B80B00917E
:1016F000EB02023011F00C94B30B80E08093E40114
:10170000A1E0B3E00E94821FACE0B1E00D931C9316
:10171000ACE0B1E08D919C91A0E2B2E08D939C93FE
:10172000E2E0F0E0ACE0B1E07BE70E941720ABE143
:10173000B1E0ECECF7E40E94BF1E0E943D1EE0E227
:10174000F2E0ABE1B1E00E94DE1C0E942D1FABE194
:10175000B1E00E94DE1CE4EFF7E40E94BF1E0E948D
:101760003D1E0C94B60B84E08093E4010C94F414B9
:10177000E8EFF7E40E94BF1E0E94462011F00C948F
:10178000020C0091EB02023011F00C94FD0B80E092
:101790008093E401A1E0B3E00E94821FACE0B1E0DD
:1017A0000D931C93ACE0B1E08D919C91AAE1B2E065
:1017B0008D939C93E0E0F0E0ACE0B1E07BE70E9429
:1017C0001720ABE1B1E0E0E0F8E40E94BF1E0E9408
:1017D0003D1EEAE1F2E0ABE1B1E00E94DE1C0E94B6
:1017E0002D1FABE1B1E00E94DE1CE4EFF7E40E94A4
:1017F000BF1E0E943D1E0C94000C84E08093E40107
:101800000C94F414EEE2F8E40E94BF1E0E944620FD
:1018100011F00C94450C0091EB02023011F00C9485
:10182000400C80E08093E401A1E0B3E00E941C2220
:10183000EDE0F0E0A5E0B1E00E94F91FE5E0F1E0A5
:10184000A3E2B2E00E94F91FE5E0F0E0A5E0B1E01C
:1018500094E07BE70E941820ABE1B1E0E6E3F8E416
:101860000E94BF1E0E943D1EE3E2F2E0ABE1B1E048
:101870000E94DE1C0E94B3200E94321D0C94430C77
:1018800084E08093E4010C94F414E0E5F8E40E9411
:10189000BF1E0E94462011F00C946D0C80E08093D6
:1018A000E401ABE1B1E0E8E5F8E40E94BF1E0E946C
:1018B0003D1EE0E2F2E0ABE1B1E00E94DE1C0E94DE
:1018C0002D1FABE1B1E00E94DE1CE4EFF7E40E94C3
:1018D000BF1E0E943D1E0C94F414E2E7F8E40E943F
:1018E000BF1E0E94462011F00C94950C80E080935E
:1018F000E401ABE1B1E0EAE7F8E40E94BF1E0E9418
:101900003D1EEAE1F2E0ABE1B1E00E94DE1C0E9484
:101910002D1FABE1B1E00E94DE1CE4EFF7E40E9472
:10192000BF1E0E943D1E0C94F414EAE9F8E40E94E4
:10193000BF1E0E94462011F00C94B50C80E08093ED
:10194000E401ABE1B1E0E2EAF8E40E94BF1E0E94CC
:101950003D1EE3E2F2E0ABE1B1E00E94DE1C0E943A
:10196000B3200E94321D0C94F414E2EBF8E40E94C0
:10197000BF1E0E94462011F00C94060D0091EB0250
:10198000023011F00C94010D80E08093E401A1E09D
:10199000B3E00E94821FACE0B1E00D931C93ABE179
:1019A000B1E0EAEBF8E40E94BF1E0E943D1EECE0AD
:1019B000F1E0ABE1B1E00E94DE1C0E942D1FE8ECDB
:1019C000F8E40E94BF1E0E94ED1C0E94F41CACE0D3
:1019D000B1E08D919C91D2018D939C9382E00E9405
:1019E0002B1E0E944705229682E00E94271EECECE7
:1019F000F8E40E94BF1E0E94ED1C0E94F41C0C948F
:101A0000040D84E08093E4010C94F414E0EDF8E418
:101A10000E94BF1E0E94462011F00C94210D80E010
:101A20008093E40170913202726070933202ABE1F4
:101A3000B1E0E8EDF8E40E94BF1E0E943D1E0C9448
:101A4000F414ECEEF8E40E94BF1E0E94462011F050
:101A50000C94580D0091EB02023011F00C94530DD0
:101A600080E08093E401A1E0B3E00E94821FA2E243
:101A7000B2E00C93E4E0F0E0A2E2B2E07BE70E9487
:101A80001520ABE1B1E0E4EFF8E40E94BF1E0E9434
:101A90003D1EE2E2F2E0ABE1B1E00E94DE1C0E94FA
:101AA0003D1F0C94560D84E08093E4010C94F414D3
:101AB000E6E1F9E40E94BF1E0E94462011F00C945A
:101AC000760D80E08093E401ABE1B1E0EEE1F9E472
:101AD0000E94BF1E0E943D1EE2E2F2E0ABE1B1E0D7
:101AE0000E94DE1C0E943D1F0C94F414E4E3F9E410
:101AF0000E94BF1E0E94462011F00C94F20D00912E
:101B0000EB02053111F00C94ED0D80E08093E401BF
:101B1000ABE1B1E0ECE3F9E40E94BF1E0E943D1E80
:101B2000E8E5F9E40E94BF1E0E94ED1CE6E9F2E040
:101B3000A0E8BFE00E943D1F0E94E51C0E94F41C2B
:101B400080E08093000182E080930A0100910A0105
:101B5000053118F011F00C94D60DA0E0B1E08C9195
:101B60008F5F8C93AAE0B1E00D91112745E150E021
:101B70000E94331EA7EDB2E0A00FB11F0E94DA1F32
:101B8000A2E0B1E00C9380910201A0E0B1E0AD9041
:101B9000BB24ABE6B2E0AA0DBB1D8C93AAE0B1E07A
:101BA0008C918F5F8C9310F40C94A60D709132027F
:101BB000706270933202E6E6F9E40E94BF1E0E9452
:101BC000ED1CE6E9F2E0A0E8BFE00E943D1F0E94A4
:101BD000E51C0E94F41C0C94F00D84E08093E40159
:101BE0000C94F414E4E7F9E40E94BF1E0E9446201E
:101BF00011F00C94780E0091EB02033011F00C946C
:101C0000730EA1E0B3E00E94821FA0E0B1E00C934C
:101C100000910001033018F011F00C946E0E80E07A
:101C20008093E401A6E1B3E00E941C22EDE0F0E025
:101C3000A5E0B1E00E94F91FE5E0F1E0A0E0B1E02D
:101C4000AD90BB24A8EBB2E0AA0CBB1CAA0CBB1C39
:101C5000AA0DBB1D0E94F91FE0E0F1E0A190BB249A
:101C6000E5E0F0E0AA0CBB1CAA0CBB1CEA0DFB1DB6
:101C7000A5E0B1E094E07BE70E941820ABE1B1E081
:101C8000ECE7F9E40E94BF1E0E943D1EE0E0F1E097
:101C9000ABE1B1E00E94DE1C0E943D1FABE1B1E070
:101CA0000E94DE1CE8EAF6E40E94BF1E0E943D1E70
:101CB000E0E0F1E0A190BB24E8EBF2E0AA0CBB1C51
:101CC000AA0CBB1CEA0DFB1DABE1B1E00E94DE1CBF
:101CD0000E94B3200E94321D0C94710E85E0809307
:101CE000E4010C94760E84E08093E4010C94F414E7
:101CF000EEE8F9E40E94BF1E0E94462011F00C9409
:101D0000D00E80E08093E401ABE1B1E0E6E9F9E4D4
:101D10000E94BF1E0E943D1E81E080930B01009136
:101D20000B01033018F011F00C94CE0EEBE0F1E053
:101D3000ABE1B1E00E94DE1C0E943D1FABE1B1E0CF
:101D40000E94DE1CE8EAF6E40E94BF1E0E943D1ECF
:101D5000EBE0F1E0A190BB24E8EBF2E0AA0CBB1CA5
:101D6000AA0CBB1CEA0DFB1DABE1B1E00E94DE1C1E
:101D70000E94B3200E94321DABE1B1E00E94DE1C44
:101D8000E4EAF9E40E94BF1E0E943D1EABE0B1E010
:101D90008C918F5F8C9310F40C948F0E0C94F41430
:101DA000E6EAF9E40E94BF1E0E94462011F00C945E
:101DB000E90E80E08093E401ABE1B1E0EEEAF9E402
:101DC0000E94BF1E0E943D1E81E0809311010C9471
:101DD000F414E8ECF9E40E94BF1E0E94462011F0C2
:101DE0000C944D0F0091EB02023011F00C94150F82
:101DF00080E08093E401ABE1B1E0E0EDF9E40E9422
:101E0000BF1E0E943D1EE1E0F3E0ABE1B1E00E94A5
:101E1000DE1C0E94F41F7091090170687093090123
:101E200080E080932C020C944B0F033011F00C9443
:101E3000480F80E08093E401ABE1B1E0E0EDF9E42C
:101E40000E94BF1E0E943D1EE1E0F3E0ABE1B1E065
:101E50000E94DE1C0E94F41FABE1B1E00E94DE1C78
:101E6000E4EAF9E40E94BF1E0E943D1EE6E1F3E0B1
:101E7000ABE1B1E00E94DE1C0E94F41F70910901E9
:101E800070687093090180E080932C020C944B0FD2
:101E900084E08093E4010C94F414E6EEF9E40E94EB
:101EA000BF1E0E94462011F00C947D0F0091EB02A2
:101EB000023011F00C94780F80E08093E401A1E0EF
:101EC000B3E00E94821FADE1B2E00C93ABE1B1E060
:101ED000EEEEF9E40E94BF1E0E943D1EEDE1F2E02D
:101EE000ABE1B1E00E94DE1C0E943D1F0C947B0F11
:101EF00084E08093E4010C94F414E2E0FAE40E949C
:101F0000BF1E0E94462011F00C949B0F80E080932E
:101F1000E401ABE1B1E0ECE7F6E40E94BF1E0E94F1
:101F20003D1EEDE1F2E0ABE1B1E00E94DE1C0E945B
:101F30003D1F0C94F414EAE0FAE40E94BF1E0E94D4
:101F4000462011F00C94CC0F0091EB02023011F0FE
:101F50000C94C70F80E08093E401A1E0B3E00E94FD
:101F6000821FAFE2B2E00D931C93ABE1B1E0E2E17E
:101F7000FAE40E94BF1E0E943D1EEFE2F2E0ABE1D8
:101F8000B1E00E94DE1C0E942D1F0C94CA0F84E059
:101F90008093E4010C94F414E8E2FAE40E94BF1E7A
:101FA0000E94462011F00C9404100091EB020230C4
:101FB00011F00C94FF0F80E08093E401A1E0B3E006
:101FC0000E94821FA0EEB2E00D931C93E5E1F0E0C9
:101FD000A0EEB2E07BE70E941720ABE1B1E0E0E3C6
:101FE000FAE40E94BF1E0E943D1EE0EEF2E0ABE16B
:101FF000B1E00E94DE1C0E942D1F0C94021084E0B0
:102000008093E4010C94F414E8E4FAE40E94BF1E07
:102010000E94462011F00C943C100091EB0202301B
:1020200011F00C94371080E08093E401A1E0B3E05C
:102030000E94821FA2EEB2E00D931C93E7E1F0E054
:10204000A2EEB2E07BE70E941720ABE1B1E0E0E551
:10205000FAE40E94BF1E0E943D1EE2EEF2E0ABE1F8
:10206000B1E00E94DE1C0E942D1F0C943A1084E007
:102070008093E4010C94F414EAE6FAE40E94BF1E93
:102080000E94462011F00C946C1080E08093E401D3
:10209000ABE1B1E0E2E7FAE40E94BF1E0E943D1E00
:1020A000E0EEF2E0ABE1B1E00E94DE1C0E942D1FE9
:1020B000ABE1B1E00E94DE1CEAE7FAE40E94BF1E39
:1020C0000E943D1EE2EEF2E0ABE1B1E00E94DE1CB8
:1020D0000E942D1F0C94F414E6E8FAE40E94BF1E3F
:1020E0000E94462011F00C94BC1080E08093E40123
:1020F000ABE1B1E0EEE8FAE40E94BF1E0E943D1E93
:10210000E4EDF2E00E94B320A0E8BFE0AF93BF93FC
:102110000E94321D11E002E0BF91AF910E94D21ED9
:10212000E0E8FFE0ABE1B1E00E94DE1C0E94F41F9A
:10213000ABE1B1E00E94DE1CE4E9FAE40E94BF1EBC
:102140000E943D1EE8EDF2E00E94B320A0E8BFE04F
:10215000AF93BF930E94321D11E002E0BF91AF9197
:102160000E94D21EE0E8FFE0ABE1B1E00E94DE1C7D
:102170000E94F41F0C94F414ECE9FAE40E94BF1ED0
:102180000E94462011F00C94D91080E08093E40165
:102190000E94CF04ABE1B1E0E4EAFAE40E94BF1E82
:1021A0000E943D1E709109017860709309010C94A2
:1021B000F414E4ECFAE40E94BF1E0E94462011F0E1
:1021C0000C94F41080E08093E40170910901786030
:1021D00070930901ABE1B1E0ECECFAE40E94BF1EA0
:1021E0000E943D1E0C94F414E2EEFAE40E94BF1E1D
:1021F0000E94462011F00C945B110091EB0202301A
:1022000011F00C945611A1E0B3E00E94821FA0E0EF
:10221000B1E00C9300910001023010F00C945111C8
:1022200080E08093E40100910001013011F00C94F2
:10223000351170913202706870933202ABE1B1E0F7
:10224000EAEEFAE40E94BF1E0E943D1EA2E3B2E045
:102250008C9187FBABE1B1E00E94DE1C0E94B01EB6
:102260008D9388278C930C944F11709132027F7755
:1022700070933202ABE1B1E0EAEEFAE40E94BF1ED5
:102280000E943D1EA2E3B2E08C9187FBABE1B1E07E
:102290000E94DE1C0E94B01E8D9388278C930C94A4
:1022A000541185E08093E4010C94591184E08093EB
:1022B000E4010C94F414E2E0FBE40E94BF1E0E94CF
:1022C000462011F00C947E1180E08093E401ABE194
:1022D000B1E0EAE0FBE40E94BF1E0E943D1EA2E3C3
:1022E000B2E08C9187FBABE1B1E00E94DE1C0E9462
:1022F000B01E8D9388278C930C94F414E4E1FBE4D6
:102300000E94BF1E0E94462011F00C94BB11009148
:10231000EB02023011F00C94B611A1E0B3E00E9480
:10232000821FA0E0B1E00C9380910001D2018C9358
:1023300081E00E942B1E0E943C09229681E00E94AF
:10234000271EABE1B1E0ECE1FBE40E94BF1E0E945E
:102350003D1EE0E0F1E0ABE1B1E00E94DE1C0E9436
:102360003D1F80E08093E4010C94B91184E08093D8
:10237000E4010C94F414E0E4FBE40E94BF1E0E940C
:10238000462011F00C940C120091EB02023011F077
:102390000C94071280E08093E401A1E0B3E00E9476
:1023A000821FA0E0B1E00C9300910001023010F018
:1023B0000C94021200910001013011F00C94E31111
:1023C000AC9A0C94E411AC98ABE1B1E0E8E4FBE426
:1023D0000E94BF1E0E943D1EE0E0F1E0ABE1B1E0D3
:1023E0000E94DE1C0E943D1FE3E0F0E00E94141DED
:1023F000EEE4FBE40E94BF1E0E94ED1C0E94F41C50
:102400000C94051285E08093E4010C940A1284E098
:102410008093E4010C94F414E6E5FBE40E94BF1EF3
:102420000E94462011F00C943C120091EB02023005
:1024300011F00C94371280E08093E401A1E0B3E046
:102440000E94821FA0E1B1E00C93ABE1B1E0EEE5A8
:10245000FBE40E94BF1E0E943D1EE0E1F1E0ABE103
:10246000B1E00E94DE1C0E943D1F0C943A1284E0F1
:102470008093E4010C94F414E0E7FBE40E94BF1E97
:102480000E94462011F00C945A1280E08093E401DF
:10249000ABE1B1E0E8E7FBE40E94BF1E0E943D1EF5
:1024A000E0E1F1E0ABE1B1E00E94DE1C0E943D1FE3
:1024B0000C94F414E0E8FBE40E94BF1E0E94462046
:1024C00011F00C94CC1280E08093E401ABE1B1E018
:1024D000E8E8FBE40E94BF1E0E943D1EE4EDF2E02E
:1024E0000E94B320A0E8BFE0AF93BF930E94321DCB
:1024F00011E001E0BF91AF910E94D21EE0E8FFE041
:10250000ABE1B1E00E94DE1C0E94F41FABE1B1E040
:102510000E94DE1CEEE8FBE40E94BF1E0E943D1EEE
:10252000E8EDF2E00E94B320A0E8BFE0AF93BF93D4
:102530000E94321D11E001E0BF91AF910E94D21EB6
:10254000E0E8FFE0ABE1B1E00E94DE1C0E94F41F76
:10255000ABE1B1E00E94DE1CE6E9FBE40E94BF1E95
:102560000E943D1EECEDF2E00E94B320A0E8BFE027
:10257000AF93BF930E94321D11E001E0BF91AF9174
:102580000E94D21EE0E8FFE0ABE1B1E00E94DE1C59
:102590000E94F41F0C94F414EEE9FBE40E94BF1EA9
:1025A0000E94462011F00C9439130091EB02033085
:1025B00011F00C943413A1E0B3E00E94821FA0E05C
:1025C000B1E00C9300910001003080E010F009F0C0
:1025D00081E08F9300910001053081E008F080E0F8
:1025E0009F918923882311F40C942F13A6E1B3E063
:1025F0000E94821FA2E0B1E00C9380910201A0E052
:10260000B1E0AD90BB24A5E3B2E0AA0DBB1D8C9355
:10261000ABE1B1E0E6EAFBE40E94BF1E0E943D1E72
:10262000E0E0F1E0ABE1B1E00E94DE1C0E943D1F62
:10263000ABE1B1E00E94DE1CE8EAF6E40E94BF1EB6
:102640000E943D1EE2E0F1E0ABE1B1E00E94DE1C41
:102650000E943D1F80E08093E4010C94321385E0DA
:102660008093E4010C94371384E08093E4010C948C
:10267000F414E2EBFBE40E94BF1E0E94462011F01E
:102680000C949A130091EB02023011F00C94951304
:10269000A1E0B3E00E94821FA0E0B1E00C930091A2
:1026A0000001003080E010F009F081E08F9300918C
:1026B0000001053081E008F080E09F9189238823A4
:1026C00011F40C94901380E08093E401ABE1B1E04D
:1026D000EAEBFBE40E94BF1E0E943D1EE0E0F1E039
:1026E000ABE1B1E00E94DE1C0E943D1FABE1B1E016
:1026F0000E94DE1CE8EAF6E40E94BF1E0E943D1E16
:10270000E0E0F1E0A190BB24E5E3F2E0EA0DFB1D7F
:10271000ABE1B1E00E94DE1C0E943D1F0C949313BC
:1027200085E08093E4010C94981384E08093E401A5
:102730000C94F414E2ECFBE40E94BF1E0E944620BD
:1027400011F00C941B140091EB02033011F00C9467
:102750001614A1E0B3E00E94821FA0E0B1E00C9348
:1027600000910001003080E010F009F081E08F93CB
:1027700000910001053081E008F080E09F918923FD
:10278000882311F40C94111480E08093E401A6E1F5
:10279000B3E00E94821FA0E0B1E0AD90BB24A3EEA5
:1027A000B2E0AA0DBB1D0C93E0E0F1E0A190BB24C8
:1027B000E8E1F0E0EA0DFB1DA0E0B1E0AD90BB2444
:1027C000A3EEB2E0AA0DBB1D7BE70E941520ABE192
:1027D000B1E0EAECFBE40E94BF1E0E943D1EE0E077
:1027E000F1E0ABE1B1E00E94DE1C0E943D1FABE1D5
:1027F000B1E00E94DE1CE0EEFBE40E94BF1E0E94DE
:102800003D1EE0E0F1E0A190BB24E3EEF2E0EA0D32
:10281000FB1DABE1B1E00E94DE1C0E943D1F0C9449
:10282000141485E08093E4010C94191484E08093DF
:10283000E4010C94F414E4EEFBE40E94BF1E0E9439
:10284000462011F00C9475140091EB02023011F047
:102850000C94701400910001003080E010F009F039
:1028600081E08F9300910001053081E008F080E065
:102870009F918923882311F40C946B1480E080933A
:10288000E401ABE1B1E0ECEEFBE40E94BF1E0E946C
:102890003D1EE0E0F1E0ABE1B1E00E94DE1C0E94F1
:1028A0003D1FABE1B1E00E94DE1CE8EAF6E40E94C5
:1028B000BF1E0E943D1EE0E0F1E0A190BB24E3EECC
:1028C000F2E0EA0DFB1DABE1B1E00E94DE1C0E94CC
:1028D0003D1F0C946E1485E08093E4010C947314F6
:1028E00084E08093E4010C94F414E8EFFBE40E948C
:1028F000BF1E0E94462011F00C94931480E0809338
:10290000E401ABE1B1E0E0E0FCE40E94BF1E0E9404
:102910003D1EABE1B1E00E94DE1CE8EEF2E00E9459
:10292000CA1F0C94F414E8E0FCE40E94BF1E0E944D
:10293000462011F00C94F1140091EB02033011F0D9
:102940000C94EC14A1E0B3E00E94821FAAEEB2E066
:102950000C930091EA02093010F00C94E71480E027
:102960008093E401A6E1B3E00E94821FA3E3B2E0FA
:102970000C9370919C02706270939C027091320271
:10298000706470933202ABE1B1E0E0E1FCE40E94DC
:10299000BF1E0E943D1EEAEEF2E0ABE1B1E00E94F4
:1029A000DE1C0E943D1FABE1B1E00E94DE1CEAE1AB
:1029B000FCE40E94BF1E0E943D1EE3E3F2E0ABE197
:1029C000B1E00E94DE1C0E943D1F0C94EA1485E0D9
:1029D0008093E4010C94EF1484E08093E4010C9460
:1029E000F41481E08093E4010C94F91482E0809364
:1029F000E4010091E401003018F011F00C9402158C
:102A00000C941015E0E4F2E30E94BF1EA4EEB1E0C6
:102A10008C9199270E948C1EABE1B1E00E943D1E73
:102A2000ABE1B1E00E94E71C0E94F41C0895E4E2CF
:102A3000FCE40E94BF1E0E94ED1C0E94F41C8091C9
:102A4000700280932702809171028093280280E0B7
:102A50008093030181E080930A0100910A0104310F
:102A600018F011F00C948715EAE0F1E0A190BB2476
:102A7000EBE6F2E0EA0DFB1DA0E8BFE00E94B11F0B
:102A80000E94E51CE4EAF9E40E94BF1E0E94ED1CCE
:102A9000AAE0B1E00C9100FB16F00C945C15AAE0E2
:102AA000B1E0AD90BB24ABE6B2E0AA0DBB1D8C91AA
:102AB000809300010C947F15AAE0B1E0AD90BB2497
:102AC000ABE6B2E0AA0DBB1D8C918093020194E0AD
:102AD000A2E0B1E00E944C1EA3E0B1E08C918F5FB8
:102AE0008C930091000140910201042BA3E0B1E01E
:102AF000AD90BB24A1E8B2E0AA0DBB1D0C93AAE0E7
:102B0000B1E08C918F5F8C9310F40C942D150E9482
:102B1000F41CE0E3FCE40E94BF1E0E94ED1C0E9436
:102B2000F41C81E080930A0100910A010A3018F038
:102B300011F00C94B715EAE0F1E0A190BB24E1E8B4
:102B4000F2E0EA0DFB1DA0E8BFE00E94B11F0E9469
:102B5000E51CE4EAF9E40E94BF1E0E94ED1CAAE015
:102B6000B1E08C918F5F8C9310F40C9494150E94BB
:102B7000F41C88E090E0A2E8B2E00E946A20ACE099
:102B8000B1E00D931C93EAE3FCE40E94BF1E0E9497
:102B9000ED1CECE0F1E0A0E8BFE00E94B31F0E9452
:102BA000E51C0E94F41C90918A0280918B02AEE099
:102BB000B1E08D939C93E0E4FCE40E94BF1E0E9470
:102BC000ED1CEEE0F1E0A0E8BFE00E94B31F0E9420
:102BD000E51C0E94F41CAEE0B1E04D915C91ACE0CC
:102BE000B1E00D911C910417150711F00C94021916
:102BF000E8E4FCE40E94BF1E0E94ED1CA0EEB2E0DF
:102C00000E94971CE5E1F0E0A0EEB2E07BE70E94B5
:102C10001720E0EEF2E0A0E8BFE00E942D1F0E9426
:102C2000E51C0E94F41C00918202043211F00C9405
:102C3000F81800918302053511F00C94EF17E0E5C8
:102C4000FCE40E94BF1E0E94ED1C0E94F41CEEE5F5
:102C5000FCE40E94BF1E0E94ED1CE5E8F2E0A0E843
:102C6000BFE00E943D1F0E94E51C0E94F41C809161
:102C700085028093330240912702009122020417BB
:102C800011F00C944D17A3E2B2E0E6EEF5E40E94D9
:102C9000BF1E0E940F22E3E2F2E00E94B3200E94D6
:102CA000B421EDE0F0E0A3E2B2E00E94F91FE5E01C
:102CB000F0E0A3E2B2E094E07BE70E941820E8E6AF
:102CC000FCE40E94BF1E0E94ED1CE3E2F2E0A0E8DB
:102CD000BFE00E94B3200E94321D0E94E51C0E94AA
:102CE000F41C0E94BC05E0E7FCE40E94BF1E0E94A9
:102CF000ED1C0E94F41C81E080930A0100910A01FE
:102D00000F3018F011F00C94A116EAE0F1E0A19058
:102D1000BB24E9E3F2E0EA0DFB1DA0E8BFE00E945E
:102D2000B11F0E94E51CE4EAF9E40E94BF1E0E9464
:102D3000ED1CAAE0B1E08C918F5F8C9310F40C94A1
:102D40007E160E94F41CA8E2B2E00C9103FB16F47C
:102D50000C94C916709132027F7770933202EAE7C1
:102D6000FCE40E94BF1E0E94ED1CA2E3B2E08C9125
:102D700087FBA0E8BFE00E94B01E8D9388278C934C
:102D80000E94E51C0E94F41C81E0809396020C9442
:102D9000E61670913202706870933202E6E8FCE445
:102DA0000E94BF1E0E94ED1CA2E3B2E08C9187FB43
:102DB000A0E8BFE00E94B01E8D9388278C930E94EC
:102DC000E51C0E94F41C8BE080939602709128020F
:102DD000777F709328028091280280932B02E2E98A
:102DE000FCE40E94BF1E0E94ED1CEBE2F2E0A0E8B2
:102DF000BFE00E943D1F0E94E51C0E94F41C8091D0
:102E00002B02809329020E94F41CEEE9FCE40E944C
:102E1000BF1E0E94ED1C0E94F41CE4E3F9E40E9432
:102E2000BF1E0E94ED1C81E080930A0100910A01FF
:102E30000E3118F011F00C943917E4EAF9E40E940D
:102E4000BF1E0E94ED1CEAE0F1E0A190BB24E9E482
:102E5000F2E0EA0DFB1DA0E8BFE00E94B11F0E9456
:102E6000E51CAAE0B1E08C918F5F8C9310F40C9478
:102E700016170E94F41C88EC90E0D2018D939C936D
:102E800082E00E942B1E0E944705229682E00E944B
:102E9000271E0E94EF060C94ED17009127020F30B9
:102EA00011F00C947B17EAEAFCE40E94BF1E0E941A
:102EB000ED1C0E94F41C83E080932B0283E080933E
:102EC000290283E080939602E2E9FCE40E94BF1E9F
:102ED0000E94ED1CEBE2F2E0A0E8BFE00E943D1F83
:102EE0000E94E51C0E94F41C709132027F7770935F
:102EF00032020C94ED17009127020E3011F00C9461
:102F0000A917E8EBFCE40E94BF1E0E94ED1C0E9482
:102F1000F41C82E080932B0282E08093290282E0FD
:102F200080939602709132027F7770933202E2E9C9
:102F3000FCE40E94BF1E0E94ED1CEBE2F2E0A0E860
:102F4000BFE00E943D1F0E94E51C0E94F41C0C94EF
:102F5000ED17009127020D3011F00C94C717E4EC27
:102F6000FCE40E94BF1E0E94ED1C0E94F41C7091A4
:102F700032027F777093320281E080932B0281E0EE
:102F80008093290281E0809396020C94ED170091C2
:102F900027020C3011F00C94E517E2EDFCE40E94DE
:102FA000BF1E0E94ED1C0E94F41C81E080932B0246
:102FB00081E0809329028BE0809396027091320227
:102FC0007068709332020C94ED17E4EEFCE40E94FA
:102FD000BF1E0E94ED1C0E94F41C0C94F618009178
:102FE000830240EF0423A0E0B1E00C9300910001C4
:102FF000003F11F00C94EE18E8E0FDE40E94BF1EC3
:103000000E94ED1C0E94F41C4091270200912202B4
:10301000041711F00C94E418009183024FE004238C
:10302000AAEEB2E00C93E6E1FDE40E94BF1E0E940E
:10303000ED1CEAEEF2E0A0E8BFE00E943D1F0E9416
:10304000E51C0E94F41C70919C02706270939C02BB
:10305000EEE5FCE40E94BF1E0E94ED1CE5E8F2E0F4
:10306000A0E8BFE00E943D1F0E94E51C0E94F41CE6
:103070008091850280933302A3E2B2E0E6EEF5E4AC
:103080000E94BF1E0E940F22E3E2F2E00E94B320E2
:103090000E94B421EDE0F0E0A3E2B2E00E94F91F4B
:1030A000E5E0F0E0A3E2B2E094E07BE70E941820C4
:1030B000E8E6FCE40E94BF1E0E94ED1CE3E2F2E0A1
:1030C000A0E8BFE00E94B3200E94321D0E94E51CD0
:1030D0000E94F41C0E94BC05E0E7FCE40E94BF1EB5
:1030E0000E94ED1C0E94F41C81E080930A01009173
:1030F0000A010F3018F011F00C949A18EAE0F1E090
:10310000A190BB24E9E3F2E0EA0DFB1DA0E8BFE0DB
:103110000E94B11F0E94E51CE4EAF9E40E94BF1E70
:103120000E94ED1CAAE0B1E08C918F5F8C9310F4AB
:103130000C9477180E94F41CEEE9FCE40E94BF1E78
:103140000E94ED1C0E94F41CE4E3F9E40E94BF1EFF
:103150000E94ED1C81E080930A0100910A010E316A
:1031600018F011F00C94D018E4EAF9E40E94BF1EA4
:103170000E94ED1CEAE0F1E0A190BB24E9E4F2E05A
:10318000EA0DFB1DA0E8BFE00E94B11F0E94E51CF4
:10319000AAE0B1E08C918F5F8C9310F40C94AD1881
:1031A0000E94F41C88EC90E0D2018D939C9382E005
:1031B0000E942B1E0E944705229682E00E94271E35
:1031C0000E94EF060C94EC18ECE1FDE40E94BF1E97
:1031D0000E94ED1C0E94F41C0C94F618E6E3FDE43A
:1031E0000E94BF1E0E94ED1C0E94F41C0C9400194A
:1031F000E4E4FDE40E94BF1E0E94ED1C0E94F41C4A
:103200000C941D19E2E5FDE40E94BF1E0E94ED1C16
:10321000A2EEB2E00E94971CE7E1F0E0A2EEB2E07D
:103220007BE70E941720E2EEF2E0A0E8BFE00E94F8
:103230002D1F0E94E51C0E94F41C0E94F41C08959E
:103240004F4B00436F6D616E646F206E6F2072652F
:10325000636F6E6F6369646F004C6F6E676974753E
:103260006420636F6D616E646F206E6F2076616C99
:10327000696461004E756D65726F206465207573B9
:10328000756172696F206E6F2076616C69646F0082
:103290004E756D65726F20646520706172616D6539
:1032A00074726F7320696E76616C69646F00457229
:1032B000726F72206C6F6E676974756420706172D2
:1032C000616D6574726F2031004572726F72206C8F
:1032D0006F6E676974756420706172616D65747278
:1032E0006F203200506172616D6574726F206E6F75
:1032F0002076616C69646F004552524F5238004528
:1033000052524F522053442E20496E74656E74659C
:10331000206465206E7565766F0000000000030074
:103320000000330000003303000033330000333368
:10333000030033C00C00FF0FFF0F555555553333B5
:103340003333777777770000FFFFCC00FCFFCC0C9E
:10335000FCFFCCCCFCFF0C00FCFFF0FFFFFF0000EB
:103360000102030000000000010101010304040444
:10337000060606060606070000000001010101031B
:103380000404040606060606060700000000010104
:1033900001010304040406060606060604040606E4
:1033A00007070707070006060606060604040606C2
:1033B00006060606040407060606060606040406B4
:1033C00006060606060404060606060606040406A5
:1033D0000606060606040407060606060606040494
:1033E0000606060606060600080808080808080873
:1033F0000808080806060608080808080808080853
:103400000808080606060C0C0C0C0C0C0C0C0C0C1A
:103410000C0C0C0C0C0C0C0C0C0C0C0C0C0C0C0CEC
:103420000C0C0C0C0E946803ACE9B2E08C9183FB9D
:1034300016F00C942E1A70919C02777F70939C0268
:10344000ECE5FDE40E94BF1E0E94ED1CA0E8B6E082
:103450000E94E71C0E94F41C0E94920AA2E3B2E0C0
:103460008C9185FB16F00C943C1A709132027F7D92
:10347000709332020E9417150E947607A2E3B2E011
:103480008C9184FB16F00C94521A709132027F7E5C
:1034900070933202E2E6FDE40E94BF1E0E94ED1C22
:1034A0000E94F41CACE9B2E08C9186FB16F00C94FF
:1034B000D51A70919C027F7B70939C020E946109D7
:1034C000A2E3B2E08C9186FB16F00C94D51A009121
:1034D0003402043010F00C94941A0091340241E04C
:1034E000040FA9EEB2E00C93ECE6FDE40E94BF1ECF
:1034F0000E94ED1CE9EEF2E0A0E8BFE00E943D1F53
:103500000E94E51C0E94F41CECE6FDE40E94BF1E34
:103510000E94031DE9EEF2E0A0E8BFE00E943D1F1B
:103520000E94FB1C0E940A1DA4E3B2E08C918F5FF5
:103530008C93A4E3B2E00C9145E00E9430208C9380
:1035400000913402003011F00C94D51AE6E7FDE446
:103550000E94BF1E0E94ED1CE5E3F2E0A0E8BFE080
:103560000E943D1F0E94E51C0E94F41CA5E3B2E0EE
:103570008C918F5F8C93A5E3B2E00C9143E00E94A5
:1035800030208C9300913502003011F00C94D51A44
:10359000709132027F7B70933202E4E8FDE40E9476
:1035A000BF1E0E94ED1C0E94F41C9A9B0C94001BF1
:1035B0000027A9E0B1E08C9184FB00F94427A3E344
:1035C000B0E08C9182FB40F9041711F40C94FE1AC0
:1035D000E6E9FDE40E94BF1E0E94ED1C0E94F41C5F
:1035E000A3E3B0E08C9182FBA9E0B1E08C9184F977
:1035F0008C93709109017B7F709309010C94261BB9
:103600000027A9E0B1E08C9184FB00F94427A3E3F3
:10361000B0E08C9182FB40F9041711F40C94261B46
:10362000EEE9FDE40E94BF1E0E94ED1C0E94F41C06
:10363000A3E3B0E08C9182FBA9E0B1E08C9184F926
:103640008C9370910901746070930901A9E0B1E055
:103650008C9186FB16F00C94921B709109017F7B74
:1036600070930901A9E0B1E08C9187FB16F40C94EA
:10367000921BE6EAFDE40E94BF1E0E94ED1CE9E2F7
:10368000F2E0A0E8BFE00E943D1F0E94E51CE4EAD2
:10369000F9E40E94BF1E0E94ED1CE3E3F2E0A0E803
:1036A000BFE00E943D1F0E94E51C0E94F41CE6EA58
:1036B000FDE40E94BF1E0E94031DE9E2F2E0A0E8C3
:1036C000BFE00E943D1F0E94FB1CE4EAF9E40E9457
:1036D000BF1E0E94031DE3E3F2E0A0E8BFE00E94EA
:1036E0003D1F0E94FB1C0E940A1DA1E3B2E08C91C9
:1036F0008F5F8C93A1E3B2E00C914AE00E943020EE
:103700008C9300913102003011F00C94921BE0EB8D
:10371000FDE40E94BF1E0E94ED1C0E94F41C81E08B
:1037200080932C02ACE9B2E08C9185FB16F00C94EE
:10373000DA1B70919C027F7D70939C02E8ECFDE4A3
:103740000E94BF1E0E94ED1CEAEEF2E0A0E8BFE07E
:103750000E943D1F0E94E51CE4EAF9E40E94BF1E9E
:103760000E94ED1CE3E3F2E0A0E8BFE00E943D1FF1
:103770000E94E51C0E94F41CE8ECFDE40E94BF1EC0
:103780000E94031DEAEEF2E0A0E8BFE00E943D1FA8
:103790000E94FB1CE4EAF9E40E94BF1E0E94031D84
:1037A000E3E3F2E0A0E8BFE00E943D1F0E94FB1CA3
:1037B0000E940A1DA9E0B1E08C9180FB16F00C94E8
:1037C000871C709109017E7F70930901AFE2B2E01E
:1037D0000E94971CAFE2B2E00D911C91AEE1B2E005
:1037E0004D915C910E94C41CAFE2B2E00D931C931A
:1037F000A2E3B2E08C9187FB16F40C94371C009185
:103800002902013011F00C94111CE4E6F3E30E944C
:10381000BF1EAFE2B2E08D919C91AEE2B2E00E9499
:10382000721E00912902023011F00C94231CE8EE64
:10383000F3E30E94BF1EAFE2B2E08D919C91AEE235
:10384000B2E00E94721E00912902033011F00C9424
:10385000351CE6E0F4E30E94BF1EAFE2B2E08D91BA
:103860009C91AEE2B2E00E94721E0C94431CE6EA08
:10387000F3E30E94BF1EAFE2B2E08D919C91AEE2F5
:10388000B2E00E94721E00911001013011F00C9400
:103890007A1CEFE2F2E0A0E8BFE00E942D1F0E9438
:1038A000E51CE4EAF9E40E94BF1E0E94ED1CEEE272
:1038B000F2E0A0E8BFE00E943D1F0E94E51CE4EAA0
:1038C000F9E40E94BF1E0E94ED1CE2EDFDE40E949F
:1038D000BF1E0E94ED1CA2E3B2E08C9187FBA0E822
:1038E000BFE00E94B01E8D9388278C930E94E51C38
:1038F0000E94F41C80912E02D2018C9381E00E94E0
:103900002B1E0E943C09229681E00E94271EA9E0FE
:10391000B1E08C9183FB16F00C94951C7091090119
:10392000777F709309010E9468030C94141AED913B
:10393000FC91EF5FFF4FFC93EE93089509D00E9436
:10394000331E00FC10D0089503D01ED001F8F9CF2B
:103950000024E89457FF02C009D0689400F80BD007
:1039600010F80124089502D009D00895509540958B
:103970004F5F5F4F0895E89417FF089500951095E5
:103980000F5F1F4F68940895352F242FE894452B1F
:1039900011F468940895512F402F0027112780E1DA
:1039A000440F551F001F111F021B130B416018F419
:1039B000020F131F4E7F8A9599F708958F938D916B
:1039C0008823E9F711978F910895A0E8BFE08D91C2
:1039D000882311F00CD0FBCF08950E945C1E802D2F
:1039E00011F005D0FACF08958DE001D08AE05D9BFB
:1039F000FECF8CB90895A0E8BFE08D91882311F027
:103A00000CD0FBCF08950E945C1E802D11F005D0D4
:103A1000FACF08958DE001D08AE000909B0005FE6A
:103A2000FCCF80939C00089588EE93E00CD03197F2
:103A3000D9F708953197F1F70895689462F80895D9
:103A4000E89462F80895EF93FF93EE27E82BE92BB3
:103A500031F0E0EAFFE03197F1F70197D1F7FF91FC
:103A6000EF9108958DE207FD8D938F2D881F802F94
:103A7000881F8F57082F6894F7F8802F87FF17C08B
:103A800080958395082F80E38D938EE28D93802F10
:103A9000815238F080E38D9399279C930E94B41E45
:103AA000089544270A95802F09F19ED01FC08052A7
:103AB00030F09EE49D9381E48D939D93EDCF442758
:103AC000DF92EF92FF920F938FE1801B11F0082F8E
:103AD0008BD091D09EE29D930F91FF90EF90DF905D
:103AE00044270395003209F4D5CF33D03F93E8E85B
:103AF000FBE30E94BF1E38E12F2D1E2D0D2DFF244C
:103B0000EE24DD244427000F111F221FB8F42F924A
:103B10003F920E945C1E102C0E945C1E202C0E9472
:103B20005C1E302C0E945C1E31970E94851E410D48
:103B3000D21CE31CF01C3F902F9003C033960E94D0
:103B40007E1E31960E947E1E3A95E9F63F9107D07F
:103B5000A5CFDD0CEE1CFF1C0A95D9F708950027B0
:103B600019E058D08F93802B11F0039501C08F91ED
:103B70001A95B9F7802F882309F48CCF8F91805D37
:103B80008D930A95D9F788CF0065CD1D80B2E60EDA
:103B900040597307A0ACB90350D6DC01286BEE0086
:103BA00094357700CA9A3B0065CD1D00B2E60E0041
:103BB00059730700ACB90300D6DC01006BEE0000BE
:103BC000357700009A3B0000CD1D0000E60E000096
:103BD00073070000B9030000DC010000EE000000E4
:103BE000770000003B000000F694E794D7944795D7
:103BF0000A95D1F7089500270DD08F9303958F2D47
:103C00008E298D29842BC1F78F91805D8D930A9524
:103C1000D9F742CF1F930F93002710E2440FDD1C0A
:103C2000EE1CFF1C001F802F9AE0890B10F0082F5C
:103C300043951A9599F7802F0F911F91089501913F
:103C40001191219130810895481A590A0895481A0E
:103C50008827580A089599275A924A92480E591E61
:103C60000895015010400F92B801469F8001479F70
:103C7000100D569F100D0F9008950E945C1E0D921E
:103C80000020D9F70895369A3699FECF369A36999C
:103C9000FECF84B195B10895903029F08C91880FB2
:103CA0009A95E9F78C930895903029F08C91869538
:103CB0009A95E9F78C930895D895319628F48F93C7
:103CC0008BB783958BBF8F910020089591E005C03D
:103CD00092E003C094E001C098E0EEDF0D929A9567
:103CE000E1F70895E80FF91F09D0F0CF880F991F69
:103CF000880F991FE80FF91F01D0ECCF28F48F939C
:103D00008BB783958BBF8F91089528F48F938BB7D2
:103D10008A958BBF8F9108950196019721F00E949B
:103D20005C1EE9F7FACF0895819104D08D93882322
:103D3000D9F70895813618F08B3708F48F7D0895F0
:103D400091E0882321F08894991F8A95E9F7892FBB
:103D500090950895883018F011968850FBCF0895FB
:103D600080E30EF4839508950F9200240BBE0F900C
:103D700008950F9301E00BBF0F91889408950F935E
:103D80000027F9CF0F9302E0F6CF99278D919395F5
:103D90008823E1F7939511968C9311978E919A95BC
:103DA000D1F70895EA2FFB2F00244C918D910394B5
:103DB0008E32E1F711248D9113948823E1F71A9440
:103DC000101640F41197202F2119239580E38D932D
:103DD0002A95E9F7113039F59927AE2FBF2FA00D9D
:103DE000B91FA00FB91F8C919C93853308F421C093
:103DF00031E08E918E32E9F38D3241F0830F8A33B8
:103E000019F480E331E001C033278C93AE1789F7B2
:103E1000332341F0AE2FBF2FB8DF81E34D3209F4D9
:103E20003196808308958827E00DF81FE00FF81F72
:103E300080830895040F151F261F371F0895000F54
:103E4000111F221F331F089500951095209530955E
:103E50000F5F1F4F2F4F3F4F0895019110810FC0EB
:103E60000E941F1E0EC00E941F1E10C001911081D3
:103E700017FF05C03FEF2FEF04C000811127222755
:103E8000332737FF03C0E0DF8DE28D93CF92DF92BF
:103E9000EF92AA24BB24CC24DD24EE2440E2EAE005
:103EA000FF2755E093E38081890F87FD9F7083FD95
:103EB000907F891B81935A95A9F7C1DFAA1CBB1C6F
:103EC000CC1CDD1CEE1C4A9551F7E894EFE0FF276F
:103ED00082910BD0EB30E0F71EF068948A2D09D068
:103EE0004D93EF90DF90CF900895982F829501D059
:103EF000892F8F70805D26F0803309F408956894CF
:103F00008D93089500271127222733271DD08A3348
:103F100028F4803318F005D015D0F9CF0EF494CFE3
:103F2000089580538F93402F512F622F732F87DF77
:103F300086DF80DF84DF8F919927080F191F291FE3
:103F4000391F08958D910895E894FCDF8032E9F3DC
:103F50008B32D9F38930C9F38D3211F46894F2CFE2
:103F6000089541E003C042E001C044E0E40F882727
:103F7000F81F8291982F829506D0892F04D04A95F8
:103F8000C1F70C94F11F8F708A3008F0895F805D53
:103F90008D93089541E0E40F8827F81F829138E05F
:103FA00098E1880F991F9D933A95D1F74A95B1F7FB
:103FB0000C94F11F00271127222733278D91882386
:103FC00079F03DDF3CDF3BDF3ADFB4DE815408F4BB
:103FD000895F865F080F8827181F281F381FEECFBC
:103FE000089588278D93089581918D938823E1F713
:103FF000089594E081918D939A95E1F70895099140
:104000009191992359F08A95D9F73197002331F08E
:1040100081918D930A958823C9F70895E2CFE1999C
:10402000FECFEEBBFFBB3196089591E001C092E058
:104030007B3751F47FB7F894F2DF8D918DBBE29A14
:10404000E19A9A95C9F77FBF7727089591E001C05B
:1040500092E0E5DFE09A8DB38D939A95D1F70895BC
:10406000FF93881BF9E0001FFA9511F4FF91089562
:10407000881F841B18F4840F8894F5CF0894F3CF1D
:104080008FEF83959D919923E1F70895689401C07E
:10409000E894AF93BF938D9116F0919103C00E9465
:1040A0005C1E902D891718F011F48823A1F7BF9199
:1040B000AF91089500276CE8719198E00695779587
:1040C00077FF18F477FD08F006279A95B9F78A95D7
:1040D00099F708950027112730E141E20D9010254E
:1040E00028E08894001F111F10F4132704272A9535
:1040F000C1F7019799F70895689401C0E8942227C1
:10410000102F231709F4089526F40E945C1E802DB9
:1041100001C08191803081F0891741F070E08D936A
:104120001A9591F7239571E01D93EACF01D0E8CF5E
:10413000703011F077270895772331F4239588277D
:1041400013958D931A95E9F70895B7FE089590E8B1
:10415000B91611F4D0FE08959FEFD91AE90AF90AA9
:1041600009F403950895D190E190F190019108959B
:1041700021913191419151910895502F2D2D3E2D36
:104180004F2D612F0895D094E094F09491E0D90ED2
:104190009927E91EF91E10950895652F90E8440FA0
:1041A000551F5927990F47956078102F90E8FF0CFD
:1041B000001F0927990FF794107800380895FF0C15
:1041C00090E89027110F9795F794092F08951127DC
:1041D000BD2CDE2CEF2CF02E0EE1FF2039F4FE2C4E
:1041E000ED2CDB2CBB240850C2F752C032F00A95EC
:1041F000BB0CDD1CEE1CFF1CF9CFA7DFE0CF2DECC4
:104200003CEC4CEC5DE366270FC0ADDFB6DFDD2490
:10421000EE2490E8F92E0FE307C0AADF05C022279D
:10422000332740E251E46627552351F1002381F101
:10423000B4DF71F11627005850580894050B18F494
:1042400007FD03C025C007FD23C046953795279578
:10425000F694E794D79425D0FF202AF0DD0CEE1CCD
:10426000FF1C015073F09D2D969548F0DD203AF427
:10427000EE202AF491E0D90E9927E91EF91E9FCF6E
:1042800007C09FE7092FF92A9FEFD92EE92E08953D
:10429000DD24EE24FF240027112708950FE79FEF68
:1042A000F2CF9F929924AA24BB2488E1D216E30678
:1042B000F40628F0D21AE30AF40A089401C088949C
:1042C000991CAA1CBB1CDD0CEE1CFF1C8A9571F707
:1042D000D92CEA2CFB2C9F9008955FDFD9F0503841
:1042E000C9F016270058952F90580894091F12F40A
:1042F00018F40EC008F00EC00FD0FF202AF0BB0C3F
:10430000DD1CEE1CFF1C02C0039513F01EDF57CF0F
:104310000C9441210C9448219F92FF92EF928D2D95
:10432000FF24EE24DD24BB2493E0849F1001829FB0
:10433000B00CD11CE21CF31C839FD00CE11C222486
:10434000F21C9A9531F0BD2CDE2CEF2CFF248F91BE
:10435000ECCF9F9008950AF045D031CF5FE322273C
:104360003327442701C004DF18DF5038B1F3003889
:1043700099F3902F951B8BF312F434D0FACF983128
:1043800018F0222733274427983028F0232F342F82
:1043900044279850F9CF992329F0469537952795CA
:1043A0009A95D9F7912F962742F014D0B0F6F7944A
:1043B000E794D7940F5F8BF664CF10D051F008F4D8
:1043C000E2DEFF2052F2DD0CEE1CFF1C0150CBF7A9
:1043D00058CF5ECFD20EE31EF41E0895D21AE30A20
:1043E000F40A0895DF92EF92FF920F931F93D22E5B
:1043F000E32EF42E052F162F6F915F914F913F9171
:104400002F9108950E945C1ED02C0E945C1EE02C0F
:104410000E945C1EF02C0E945C1E002D08950E94DC
:104420005C1E202D0E945C1E302D0E945C1E402DC3
:104430000E945C1E502D08950E94201D88278A939B
:104440008A9326DF11278D918B32E9F38032D9F3DD
:104450001197BBD098F08D3229F4109511968C915C
:10446000B4D060F08E3229F411968C91AED008F45D
:1044700046C022960E941D1D81E008958C91A5D012
:10448000D8F5119646D0D0F703958D919ED0E0F3E4
:104490008E3229F48C9199D010F41196FBCF85348B
:1044A00019F0853609F055C011968C918ED060F0C8
:1044B0008D3219F08B3221F0DCCF08800094088215
:1044C00011968C9182D0A8F68053898311968C9195
:1044D0007CD058F49981990F990F0980900D990F0C
:1044E0008053890F8983873220F6898198819923A7
:1044F0000AF48195080F2DC08E3289F611968C91A1
:1045000064D068F606D018F011960A95F8CF119687
:10451000C1CF4F2D3E2D2D2DDD0CEE1CFF1CA8F024
:10452000DD0CEE1CFF1C88F0D20EE31EF41E68F0BA
:10453000DD0CEE1CFF1C48F0805309F06894D80E87
:104540008827E81EF81E08F00895F42EE32ED22ED8
:10455000089534D019F116F5098308E921D006959C
:10456000882787959F2D9F77980FF92E0150000F70
:10457000110F07958981882379F01AF48195898331
:1045800006C03DDE89818A958983D9F705C047DE5B
:1045900089818A958983D9F72296089579DEFCCF9F
:1045A0000DD041F0FF2032F00A9531F0DD0CEE1C09
:1045B000FF1CD2F7889408950894089500240D28CC
:1045C0000E280F28002A00200895803320F08A3317
:1045D00010F40894089588940895FF0D613D00003B
:1045E0000000000000410000803F2A2A2A2A2A2ACF
:1045F0002A2A2A2A2A2A20524144494F425249440F
:104600004745202A2A2A2A2A2A2A2A2A2A2A2A0006
:1046100030322D30372D323032362031383A313188
:104620003A353700302E312E333330005241444971
:104630004F4252494447455F564F4C5F454E545296
:104640004144412E424153004E756D657374616360
:10465000696F6E3D00004164636B2800293D0000D6
:10466000436F6E7461646F72206465207472616E52
:10467000736D6973696F6E6573203D0054616E6977
:104680003D00434E54524352434F4B3D0000434E76
:1046900054524352434241443D00566F6C3D00002A
:1046A000546F7049324300003D005472616D6120C7
:1046B00054582044544D46004D6F646F2074657308
:1046C00074204C6F63616C004D6F646F20416C65AA
:1046D000727461204E6172616E6A61204C6F636119
:1046E0006C0041204D6F646F204E6F726D616C20C5
:1046F0006465736465204D6F646F20546573742026
:104700004C6F63616C0041204D6F646F204E6F727F
:104710006D616C20646573646520412E204E61726A
:10472000616E6A61204C6F63616C000043616D6271
:10473000696F206465205374617475733D004E7514
:1047400065766F2053746174757320526563696276
:1047500069646F20706F7220526164696F3D000060
:10476000414443004C454556465700005665727318
:10477000696F6E2046573A204665636861203C00A9
:104780003E2C204172636869766F203C00003E0039
:104790005345544C45440000536520636F6E666971
:1047A00067757261207365746C6564206120000018
:1047B0004C45454C4544000045737461646F204C82
:1047C00045443D0053455454585000005365206300
:1047D0006F6E66696775726F207469656D706F20A2
:1047E000646520747820706572696F6469636173B1
:1047F00020612000207300005345545454450000AC
:10480000536520636F6E66696775726F20746965A2
:104810006D706F20646520747820656E74726520F9
:104820006573746163696F6E657320612000534521
:10483000544354580000536520636F6E6669677572
:10484000726F20636F6E7461646F722074783D00C4
:104850004C454554585000005469656D706F206494
:104860006520747820706572696F64696361732074
:104870003D004C454554544500005469656D706FCA
:1048800020646520747820656E7472652065737489
:104890006163696F6E6573203D004C454543545814
:1048A0000000436F6E7461646F72206465207478D9
:1048B0003D0054535444454C0000546573742044E7
:1048C000656C617920200000494E490046494E0040
:1048D000494E4954585000004E75657661207478F1
:1048E00020506572696F64696361000053455453D9
:1048F00054410000536520636F6E66696775726F7F
:10490000206E756D65726F206465206573746163D8
:10491000696F6E203D004C454553544100006E7553
:104920006D65726F206465206573746163696F6E75
:10493000203D0000525844544D46000053696D75A7
:104940006C6163696F6E20646520525820746F6ECD
:104950006F732044544D460045737461646F5F6CFF
:104960006564313D000045737461646F5F6C65641C
:10497000323D0000534554414443000053652063D9
:104980006F6E66696775726F2041444320004C4525
:1049900045414443000056616C6F72657320414489
:1049A000432000002C005345544442470000536507
:1049B00020686162696C69746120646973706C61FC
:1049C0007920646562756700445256415544000081
:1049D0005265737075657374612044525620415559
:1049E00044494F3D0000534554414E490000536532
:1049F00020636F6E6669677572612054616E693DF0
:104A000000004C4545414E49000053455450545216
:104A10000000536520636F6E666967757261205090
:104A20007472616E693D0000534554434F4B000062
:104A3000536520636F6E66696775726120434E54DB
:104A4000524352434F4B3D005345544241440000B2
:104A5000536520636F6E66696775726120434E54BB
:104A6000524352434241443D00004C45454352436A
:104A700000004352434F4B3D0000202C2043524343
:104A80004241443D00004C454542415400005642DD
:104A900041543D00202C205650533D005253545653
:104AA000415200005265696E6963696F206120762A
:104AB000616C6F72657320706F72206465666563E8
:104AC000746F0000494E495641520000496E6963B7
:104AD00069616C697A61207661726961626C657383
:104AE00000005345544D4F440000536520636F6EE2
:104AF00066696775726F206D6F646F204F46463D23
:104B000000004C45454D4F4400004D6F646F204FF1
:104B100046463D00534554445350000053452063DE
:104B20006F6E6669677572612073616C696461207C
:104B300064656C7320646973706C61792061200016
:104B400053455452454C000072656C653D00466902
:104B50006E2072656C005345544255470000536502
:104B600020636F6E66696720454E414255473D00A0
:104B70004C45454255470000454E414255473D0092
:104B80004C45455644430000566261743D002C205C
:104B90005670733D00002C20566463333D004C4535
:104BA000454932430000536520636F6E66204932E9
:104BB000430056414C493243000056616C49324330
:104BC0002000544F504932430000536520636F6EFC
:104BD00066696720746F70206C696D2049324300EC
:104BE000206120004C4545544F500000546F702008
:104BF0006C696D2049324300544D504932430000E6
:104C0000546D704932433D005345544D53470000A5
:104C10005265702E204D5347200020636F6E205642
:104C20006F6C20005258204E45572044544D46008A
:104C30006865782064746D6600004352433D00004F
:104C400043524363616C3D00435243204F4B3D0050
:104C50005472616D612076616C6964610000566F09
:104C60006C756D656E3D0000436E747274783D0026
:104C70005472616D6120484558004D4F444F4F4676
:104C8000463D302C00004D4F444F4F46463D312CA1
:104C900000005354415455532052583D0000547263
:104CA000616D612044544D4600005472616D612075
:104CB000414C41524D4100005472616D6120544598
:104CC000535400005472616D61204E4F524D414C5F
:104CD00000004D6F646F204F4646206E6F63747501
:104CE000726E6F004E4F2065732054455354206EF2
:104CF0006920616C61726D61202E204E6F2072659B
:104D000073706F6E646500005472616D61204D5365
:104D1000472076616C004D53473D00004D534720BE
:104D20006E6F2070617261206573746520657363B6
:104D30006C61766F00005472616D61206E6F206946
:104D40006D706C004641494C204944205472616D9D
:104D50006100435243206661696C3D005345523106
:104D60003D00545820414C6572746100244C454507
:104D70004932432C0000436E747274727969326355
:104D8000413D000046494E20636F6E73756C74613F
:104D90002041444300004142494552544F0043459D
:104DA000525241444F00244452564155442C000075
:104DB00053696E2072657370756573746120445217
:104DC00056415544494F0000245345544D53472CF8
:084DD00000004F46463D0000C3
:00000001FF
