:100000000C94460018950000189500001895000003
:10001000189500000C94D80218950000189500005F
:10002000189500001895000018950000189500001C
:10003000189500001895000018950000189500000C
:100040000C94D401189500000C94B0001895000091
:1000500018950000189500001895000018950000EC
:1000600018950000189500001895000018950000DC
:1000700018950000189500000C9442011895000096
:100080001895000018950000189500008FEF8DBF9F
:10009000C0E8E8E94E2E80E18EBFD0E1FFE05F2EA0
:1000A000A89584B7082E807E84BF88E1992781BDFA
:1000B00091BDEEEFFFE0A0E0B1E088278D9331978E
:1000C000E9F787E689B980E08093900088E18AB9F2
:1000D00080E08093980087E68093990088E1809380
:1000E0009A006624A59AA69AA79A709164007460F3
:1000F00070936400BB9ABC9ABD9ABE9ABF9A8C98C2
:100100008D988E988F981498949A959A969A979A13
:10011000A098A198A298A89AA99AAA9AD49AD59A8E
:10012000D69AD79AA49A87E083BF77B7716077BFD2
:1001300087E083BF579A70919A00706870939A0015
:1001400087E886B980E087B9339A379A79B77061C2
:1001500079BF8AB78C7F81608ABF78940C94B41978
:100160000F921F922F923F924F925F927F92AF9287
:10017000BF920F931F932F933F934F935F936F9370
:100180007F938F939F93AF93BF93CF93DF93EF931F
:10019000FF938FB78F938BB78F9388278BBFAFE772
:1001A000B6E08CB18C9384E2482F00917F0604174F
:1001B00011F00C94E60070919C02706170939C02A7
:1001C000A6EBB5E088278C930C9423010D3011F039
:1001D0000C940B01ACE9B2E08C9184FB16F00C940A
:1001E000090170919C027F7E70939C0280E0A6EBD7
:1001F000B5E00E94771C8D9388278C93E6EBF5E0A1
:10020000A0E8B6E00E948B1F70919C02786070930A
:100210009C020C9423010F3118F011F00C94120180
:100220000C942301ACE9B2E08C9184FB16F00C94A1
:100230002301AFE7B6E08C91A6EBB5E00E94771CF6
:100240008D9388278C938F918BBF8F918FBFFF9158
:10025000EF91DF91CF91BF91AF919F918F917F915E
:100260006F915F914F913F912F911F910F91BF908F
:10027000AF907F905F904F903F902F901F900F9086
:10028000189508950F921F922F923F924F925F926E
:100290007F92AF92BF920F931F932F933F934F93F1
:1002A0005F936F937F938F939F93AF93BF93CF93FE
:1002B000DF93EF93FF938FB78F938BB78F9388273D
:1002C0008BBFAFE7B6E080919C008C9384E2482F0F
:1002D00000917F06041711F00C94790170919C0233
:1002E000706170939C02A6EBB5E088278C930C9408
:1002F000B6010D3011F00C949E01ACE9B2E08C9186
:1003000084FB16F00C949C0170919C027F7E70938C
:100310009C0280E0A6EBB5E00E94771C8D938827B5
:100320008C93E6EBF5E0A0E8B6E00E948B1F70919D
:100330009C02786070939C020C94B6010F3118F007
:1003400011F00C94A5010C94B601ACE9B2E08C91CB
:1003500084FB16F00C94B601AFE7B6E08C91A6EBE7
:10036000B5E00E94771C8D9388278C938F918BBF6B
:100370008F918FBFFF91EF91DF91CF91BF91AF919F
:100380009F918F917F916F915F914F913F912F91AD
:100390001F910F91BF90AF907F905F904F903F90D3
:1003A0002F901F900F9018950F921F922F923F92AF
:1003B0004F925F927F92AF92BF920F931F932F93B2
:1003C0003F934F935F936F937F938F939F93AF93DD
:1003D000BF93CF93DF93EF93FF938FB78F938BB739
:1003E0008F9388278BBF74E672BFA0E9B2E08C912F
:1003F0008F5F8C93A0E9B2E00C9148E00E94C71F88
:100400008C9300919002003011F00C943A02A1E913
:10041000B2E00C9140E20E94C71F8C93EEE5F2E33C
:100420000E94561EA6E9B2E08C919927A2E9B2E09B
:100430000E940D1E80919102A2E9B2E00E94411E2D
:100440000E94371E0C900822689409F4E894A2E3F5
:10045000B2E08C9183F98C93A2E3B2E08C9183FBA0
:10046000A5E3B0E08C9185F98C93A1E9B2E08C9181
:100470008F5F8C93A7E9B2E08C918F5F8C93A7E993
:10048000B2E00C9144E60E94C71F8C930091970242
:10049000003011F00C946F0270919C0270647093A4
:1004A0009C0270910901706470930901ACE1B2E0A3
:1004B0008C918F5F8C9300911C0240911D020E94D1
:1004C000C71FACE1B2E08C9300911C02003011F028
:1004D0000C946F0270910901716070930901A2E39D
:1004E000B2E08C9180FB16F00C949102AAE9B2E084
:1004F0000E94301CADE9B2E04D915C91AAE9B2E0F6
:100500000D911C910417150711F00C949102709134
:100510009C02706870939C02709132027E7F70938F
:100520003202A9E0B1E08C9185FB16F00C94BA027E
:10053000A2E1B1E00E94301CA2E1B1E00D911C915A
:1005400044EF51E00E945D1CA2E1B1E00D931C93C9
:10055000A2E1B1E00D911C91003050E0150711F0BF
:100560000C94BA0280E080936B02709109017F7D48
:10057000709309018F918BBF8F918FBFFF91EF9186
:10058000DF91CF91BF91AF919F918F917F916F91AB
:100590005F914F913F912F911F910F91BF90AF901D
:1005A0007F905F904F903F902F901F900F901895E5
:1005B0000F921F922F923F924F925F927F92AF9233
:1005C000BF920F931F932F933F934F935F936F931C
:1005D0007F938F939F93AF93BF93CF93DF93EF93CB
:1005E000FF938FB78F938BB78F9388278BBFAEE81E
:1005F000B2E08C918F5F8C930C9B0C940203AF9AAA
:100600000C940303AF980C9B0C944A03AAE6B2E047
:1006100080B38C9394E0AAE6B2E00E94EB1DABE6B7
:10062000B2E08C918F5F8C9380916A02ABE6B2E06E
:10063000AD90BB24ABE6B2E0AA0DBB1D8C93ABE63C
:10064000B2E00C9144E10E94C71F8C9300916B02B1
:10065000013011F00C9431037091090170627093B4
:10066000090100916B02003011F00C943C03709171
:10067000320270627093320200916B020E3018F0F9
:1006800011F00C9445030C944A037091320270628D
:10069000709332028F918BBF8F918FBFFF91EF913B
:1006A000DF91CF91BF91AF919F918F917F916F918A
:1006B0005F914F913F912F911F910F91BF90AF90FC
:1006C0007F905F904F903F902F901F900F901895C4
:1006D000AD98AC98C39AE8E1F5E40E94561E0E94DA
:1006E000861C0E948D1CA0E8BFE0EEE3F5E40E94AA
:1006F000561E0E94D41D0E947E1C0E948D1CA0E8E4
:10070000BFE0E2E5F5E40E94561E0E94D41D0E945F
:100710007E1C0E948D1CA0E8BFE0EAE5F5E40E9483
:10072000561E0E94D41D0E947E1C0E948D1C81E0DA
:100730008093960281E0809329028CE291E0AEE101
:10074000B2E08D939C9381E080932B0281E08093B3
:100750002C02E4E0F0E0A2E2B2E00E94BD1FEEE66F
:10076000F5E40E94561E0E94861CE2E2F2E0A0E838
:10077000BFE00E94D41E0E947E1C0E948D1C81E05E
:100780008093BA020091BA02033018F011F00C9471
:100790001604AAEBB2E0AD90BB24A8EBB2E0AA0C21
:1007A000BB1CAA0CBB1CAA0DBB1DEAEBF2E0A1907E
:1007B000BB24E5E0F0E0AA0CBB1CAA0CBB1CEA0DB4
:1007C000FB1D94E00E94C01FECE7F5E40E94561E5A
:1007D0000E94861CEAEBF2E0A0E8BFE00E94D41E73
:1007E0000E947E1CE2E8F5E40E94561E0E94861CD0
:1007F000EAEBF2E0A190BB24E8EBF2E0AA0CBB1C10
:10080000AA0CBB1CEA0DFB1DA0E8BFE00E944A2019
:100810000E94CB1C0E947E1C0E948D1CAAEBB2E0A1
:100820008C918F5F8C9310F40C94C203A3E2B2E01E
:10083000E5E0F0E094E00E94C01FE6E8F5E40E94E5
:10084000561E0E94861CE3E2F2E0A0E8BFE00E9490
:100850004A200E94CB1C0E947E1C0E948D1C70911D
:1008600009017F77709309018AE080931D02E2EA13
:10087000F5E40E94561E0E94861CEDE1F2E0A0E81D
:10088000BFE00E94D41E0E947E1C0E948D1CE5E1E8
:10089000F0E0A0EEB2E00E94BF1FE8EAF5E40E949B
:1008A000561E0E94861CE0EEF2E0A0E8BFE00E9427
:1008B000C41E0E947E1C0E948D1CE7E1F0E0A2EEA7
:1008C000B2E00E94BF1FE4EBF5E40E94561E0E94B6
:1008D000861CE2EEF2E0A0E8BFE00E94C41E0E9487
:1008E0007E1C0E948D1C84E180933302E0ECF5E4D1
:1008F0000E94561E0E94861CE3E3F2E0A0E8BFE0DF
:100900000E94D41E0E947E1C0E948D1C81E0809358
:10091000000100910001043018F011F00C94CE0495
:10092000E0E0F1E0A190BB24E8E1F0E0EA0DFB1D7E
:10093000A0E0B1E0AD90BB24A3EEB2E0AA0DBB1DD8
:100940000E94BD1FE6ECF5E40E94561E0E94861C24
:10095000E0E0F1E0A0E8BFE00E94D41E0E947E1C0F
:10096000EEECF5E40E94561E0E94861CE0E0F1E0E9
:10097000A190BB24E3EEF2E0EA0DFB1DA0E8BFE08E
:100980000E94D41E0E947E1C0E948D1CA0E0B1E03B
:100990008C918F5F8C9310F40C9489040895E8E097
:1009A000F5E40E94561E0E949921E9E0F0E0ADE0D6
:1009B000BB2794E07BE70E94AF1FE8E0F5E40E94CC
:1009C000561E0E949921EDE0F0E0ADE0BB2794E0D7
:1009D0007BE70E94AF1FE8E0F5E40E94561E0E94EC
:1009E0009921E1E1F0E0ADE0BB2794E07BE70E94D4
:1009F000AF1FE4E0F0E0A0E1BB278EE08C937BE743
:100A00000E94AC1FECE0F5E40E94561E0E94992162
:100A1000E5E0F0E0ADE0BB2794E07BE70E94AF1F8C
:100A2000E5E1F0E000E010E0A0E1BB277BE70E94F9
:100A3000AE1FE7E1F0E000E010E0A0E1BB277BE7BC
:100A40000E94AE1FE9E1F0E0A0E1BB2780E88C93B3
:100A50007BE70E94AC1FEAE1F0E0A0E1BB2780E861
:100A60008C937BE70E94AC1FEBE1F0E0A0E1BB2799
:100A700080E88C937BE70E94AC1FECE1F0E0A0E102
:100A8000BB2780E88C937BE70E94AC1F0895A88168
:100A9000B9818D919C91ADE9B2E08D939C9380E0FA
:100AA00090E0AAE9B2E08D939C9370919C027F77CD
:100AB00070939C0270913202716070933202ACE9C3
:100AC000B2E08C9187FB16F40C946905A8950C9400
:100AD0005F05089581E080930001009100010430DA
:100AE00018F011F00C94B1050091000141E0041BD5
:100AF000A2E0B1E00C93A0E0B1E0AD90BB24A3EE86
:100B0000B2E0AA0DBB1D4C91A0E0B1E0AD90BB24BA
:100B1000A5E3B2E0AA0DBB1D0C91041710F00C94D4
:100B20009E0580910201A8EEB2E00E94411E0E9443
:100B3000371E8C9189238C930C94A9058091020116
:100B4000A8EEB2E00E94411E0E94371E9C91982B95
:100B50009C93A0E0B1E08C918F5F8C9310F40C9487
:100B60006D05D201E8EEF2E00E94611FD2010E9401
:100B7000801C0E948D1C0895E0EDF5E40E94561E35
:100B80000E94861C0E948D1CA2E2B2E08C9180FB28
:100B9000AAE3B2E08C9180F98C93A2E2B2E08C914E
:100BA00081FBAAE3B2E08C9181F98C93A2E2B2E0DE
:100BB0008C9182FBAAE3B2E08C9182F98C93A2E241
:100BC000B2E08C9183FBAAE3B2E08C9183F98C9321
:100BD000A9E2B2E08C9180FBAAE3B2E08C9184F9A7
:100BE0008C93A9E2B2E08C9181FBAAE3B2E08C91F4
:100BF00085F98C93A9E2B2E08C9182FBAAE3B2E082
:100C00008C9186F98C93A9E2B2E08C9183FBAAE3E4
:100C1000B2E08C9187F98C93E3E2F2E0A5E0B1E0D9
:100C20000E94901F8091050180933B0280910601F4
:100C300080933C028091070180933D0280910801DE
:100C400080933E02ACE2B2E08C9180FBAFE3B2E075
:100C50008C9180F98C93ACE2B2E08C9181FBAFE394
:100C6000B2E08C9181F98C93ACE2B2E08C9182FB82
:100C7000AFE3B2E08C9182F98C93ACE2B2E08C915C
:100C800083FBAFE3B2E08C9183F98C930E946A05F9
:100C9000A8EEB2E08C9180FBAFE3B2E08C9184F9D6
:100CA0008C93A8EEB2E08C9181FBAFE3B2E08C9123
:100CB00085F98C93A8EEB2E08C9182FBAFE3B2E0B1
:100CC0008C9186F98C93A8EEB2E08C9183FBAFE314
:100CD000B2E08C9187F98C938091D402809340028A
:100CE0008091D502809341028091D6028093420286
:100CF0008091D702809343028091D802809344026E
:100D00008091D902809345028091DA028093460255
:100D10008091DB0280934702EAE3F2E08EE00E94DA
:100D2000F11FA0E0B1E00C93809100018093480294
:100D30008091220280934A028091290280934B0283
:100D400083E08093040181E0809300010091000121
:100D50000E3018F011F00C94EE060091000141E005
:100D6000040FA2E0B1E00C93A2E0B1E0AD90BB248F
:100D7000A9E3B2E0AA0DBB1D8C9180930301009101
:100D800003014FE00423A4E0B1E0AD90BB24A9E44B
:100D9000B2E0AA0DBB1D0C93A4E0B1E08C918F5F73
:100DA0008C9394E0A3E0B1E00E94EB1D80910301DD
:100DB000A4E0B1E0AD90BB24A9E4B2E0AA0DBB1D54
:100DC0008C93A4E0B1E08C918F5F8C93A0E0B1E0B4
:100DD0008C918F5F8C9310F40C94A60608957091FB
:100DE000650074607093650084E690E0D2018D9395
:100DF0009C9382E00E94C41D0E944705229682E0D7
:100E00000E94C01D81E080930A0100910A010E3109
:100E100018F011F00C947007AAE0B1E0AD90BB247B
:100E2000A9E4B2E0AA0DBB1D8C9180FBA8E3B0E061
:100E30008C9184F98C93AAE0B1E0AD90BB24A9E435
:100E4000B2E0AA0DBB1D8C9181FBA8E3B0E08C91B0
:100E500085F98C93AAE0B1E0AD90BB24A9E4B2E09F
:100E6000AA0DBB1D8C9182FBA8E3B0E08C9186F9A2
:100E70008C93AAE0B1E0AD90BB24A9E4B2E0AA0D46
:100E8000BB1D8C9183FBA8E3B0E08C9187F98C9318
:100E9000AE9AC39888E090E0D2018D939C9382E053
:100EA0000E94C41D0E944705229682E00E94C01D38
:100EB000C39AAE9884E090E0D2018D939C9382E037
:100EC0000E94C41D0E944705229682E00E94C01D18
:100ED000AAE0B1E08C918F5F8C9310F40C9405071D
:100EE000709165007B7F70936500089500912B02DF
:100EF000013011F00C94A60880E080938F02A3E3E8
:100F0000B0E08C9180FBAFE8B2E08C9180F98C93DB
:100F1000A3E3B0E08C9181FBAFE8B2E08C9181F962
:100F20008C9300912902013011F00C94F807A2E390
:100F3000B2E08C9187FB16F40C94A30781E08093B8
:100F400096020C94A6078BE08093960200918F0284
:100F5000023011F00C94C507EEEDF5E40E94561E28
:100F60000E94861C0E948D1C82E080932902709151
:100F700009017F777093090182E0809396028EE1E8
:100F800090E0AEE1B2E08D939C9300918F0200302F
:100F900081E009F080E08F9300918F02013081E0C1
:100FA00009F080E09F91892B882311F40C94F607B7
:100FB000EEEEF5E40E94561E0E94861C0E948D1CD7
:100FC00083E08093290283E0809396027091090167
:100FD0007F777093090170913202706170933202D1
:100FE0008EE190E0AEE1B2E08D939C930C945408B6
:100FF000023011F00C94270800918F02033011F099
:101000000C942508E8E0F6E40E94561E0E94861C17
:101010000E948D1C81E08093290281E080939602DA
:10102000709109017F77709309018CE390E0AEE144
:10103000B2E08D939C93A2E3B2E08C9187FB16F013
:101040000C9425088BE0809396020C94540803308E
:1010500011F00C94540800918F02033011F00C949D
:101060005408ECE2F6E40E94561E0E94861C0E9480
:101070008D1C81E08093290281E08093960270911B
:1010800009017F77709309018CE390E0AEE1B2E053
:101090008D939C93A2E3B2E08C9187FB16F00C94A5
:1010A00054088BE08093960240912A020091290215
:1010B000041711F40C94A408709109017F777093C0
:1010C000090170913202706470933202809129029A
:1010D00080932A02E2E5F6E40E94561E0E94861CD6
:1010E000E9E2F2E0A0E8BFE00E94D41E0E947E1C6C
:1010F0000E948D1C00912902013011F00C94880887
:101100008CE390E0AEE1B2E08D939C930C949E084A
:10111000023011F00C9494088EE190E0AEE1B2E060
:101120008D939C930C949E08033011F00C949E08B0
:101130008EE190E0AEE1B2E08D939C9380E090E090
:10114000AFE2B2E08D939C930C94150980912B0231
:1011500080932902809129028093960200912902AE
:10116000013081E009F080E08F93A2E3B2E08C913E
:1011700087FB81E00EF080E09F918923882311F4A2
:101180000C94C5088BE08093960240912A0200914E
:101190002902041711F40C941509709109017F7745
:1011A000709309018091290280932A02E4E6F6E413
:1011B0000E94561E0E94861CE9E2F2E0A0E8BFE011
:1011C0000E94D41E0E947E1C0E948D1C70913202CF
:1011D00070647093320200912902013011F00C9476
:1011E000F90888E592E0AEE1B2E08D939C930C940F
:1011F0000F09023011F00C9405098EE190E0AEE188
:10120000B2E08D939C930C940F09033011F00C9471
:101210000F098EE190E0AEE1B2E08D939C9380E007
:1012200090E0AFE2B2E08D939C93009129020130EF
:1012300011F00C941C09AC9800912902023011F0B5
:101240000C942309AC9A00912902033011F00C94FC
:101250002A09AC9A00912902003011F00C9431094E
:10126000AC9800912902033018F011F00C943A095F
:101270000C943B09AC980895A881B9818C9180FBAE
:10128000ABE3B0E08C9184F98C93A881B9818C9107
:1012900081FBABE3B0E08C9185F98C93A881B98197
:1012A0008C9182FBABE3B0E08C9186F98C93A881A2
:1012B000B9818C9183FBABE3B0E08C9187F98C937F
:1012C000089581E08093BA020091BA02033018F0C9
:1012D00011F00C94B709E2EAF2E30E94561EAAEB61
:1012E000B2E08C919927ABEBB2E00E94091E07B1E6
:1012F000007E8091BB0290E0890F082707B90E9409
:10130000DA1DA8EBB2E08D939C93E8EBF2E0D1906C
:10131000E080FF2400270E947E200E945420EAEBF8
:10132000F2E0A190BB24EBE9F2E0AA0CBB1CAA0CF2
:10133000BB1CEA0DFB1D0E944A200E944B21EDE0E0
:10134000F0E0AAEBB2E0AD90BB24ABE9B2E0AA0CAE
:10135000BB1CAA0CBB1CAA0DBB1D0E94901FAAEBB4
:10136000B2E08C918F5F8C9310F40C946409ABEA1B
:10137000B2E08C918F5F8C93ABEAB2E00C9148E0C5
:101380000E94C71F8C930091AB02003011F00C94A7
:10139000910A81E08093BA020091BA02033018F0FA
:1013A00011F00C947F0AE0E1F5E40E94561E0E94C1
:1013B000A621EAEBF2E0A190BB24EBE9F2E0AA0C53
:1013C000BB1CAA0CBB1CEA0DFB1D0E944A200E94FC
:1013D000AB20EDE0F0E0AAEBB2E0AD90BB24A8EAD0
:1013E000B2E0AA0CBB1CAA0CBB1CAA0DBB1D0E9420
:1013F000901FAAEBB2E0AD90BB24ABE9B2E0AA0C1F
:10140000BB1CAA0CBB1CAA0DBB1DECE0F5E40E94A2
:10141000561E0E94011EEAEBF2E0A190BB24E8EB0D
:10142000F2E0AA0CBB1CAA0CBB1CEA0DFB1D0E941F
:101430004F20EAEBF2E0A190BB24E8EAF2E0AA0C2C
:10144000BB1CAA0CBB1CEA0DFB1D0E944A200E947B
:101450000421EDE0F0E0AAEBB2E0AD90BB24A4ECF7
:10146000B2E0AA0CBB1CAA0CBB1CAA0DBB1D0E949F
:10147000901F00911101013011F00C94770AE6E8F9
:10148000F6E40E94561E0E94861CEAEBF2E0A0E8F9
:10149000BFE00E94D41E0E947E1CEEECF5E40E9488
:1014A000561E0E94861CA0E8BFE0AF93BF93EAEBF4
:1014B000F2E0A190BB24E4ECF2E0AA0CBB1CAA0C65
:1014C000BB1CEA0DFB1D0E944A200E94CB1C11E0B0
:1014D00001E0BF91AF910E94691EE0E8FFE0A0E843
:1014E000BFE00E948B1F0E947E1C0E948D1CAAEBF5
:1014F000B2E08C918F5F8C9310F40C94CC09E8ECE3
:10150000F2E0A4EDB2E00E94901FECECF2E0A8ED56
:10151000B2E00E94901FE0EDF2E0ACEDB2E00E947C
:10152000901F0895A0E8B6E00E94801C0E948D1CC8
:1015300081E0E0E8F6E006E00A93A5EEB1E00E9463
:10154000961FE0E8F6E09CE204E132E2ACEEB2E0A5
:101550000E941520ABEEB2E02C93ACEEB2E00E94FC
:10156000D71F082F063011F00C949814ECEEF2E01F
:10157000A4E1B1E00E948B1FE4E1F1E0A4E1B1E05D
:101580000E942B1E8FEF8093E401A4E1B1E0EAE812
:10159000F6E40E94561E0E94DD1F11F00C94110B00
:1015A00080E08093E401ABE1B1E0E2E9F6E40E947F
:1015B000561E0E94D41DA5EEB1E0EEE3F5E40E94B4
:1015C000561E0E94D41DE5EEF1E0ABE1B1E00E94B1
:1015D000771C0E948B1FABE1B1E00E94771CE6EA0A
:1015E000F6E40E94561E0E94D41DA5EEB1E0EAE585
:1015F000F5E40E94561E0E94D41DE5EEF1E0ABE139
:10160000B1E00E94771C0E948B1FABE1B1E00E9409
:10161000771CE4EBF6E40E94561E0E94D41D0C9445
:101620009614E6EBF6E40E94561E0E94DD1F11F0B0
:101630000C94500B0091EB02023011F00C944B0B08
:10164000A1E0B3E00E94191FA0E0B1E00C9300916B
:101650000001013110F00C94460B80E08093E4010E
:10166000ABE1B1E0EEEBF6E40E94561E0E94D41D01
:10167000E0E0F1E0ABE1B1E00E94771C0E94D41EF3
:1016800080910001809396020C94490B85E0809331
:10169000E4010C944E0B84E08093E4010C949614C6
:1016A000E6EDF6E40E94561E0E94DD1F11F00C9438
:1016B0006E0B80E08093E401ABE1B1E0EEEDF6E487
:1016C0000E94561E0E94D41DE6E9F2E0ABE1B1E0B3
:1016D0000E94771C0E94D41E0C949614EAEEF6E445
:1016E0000E94561E0E94DD1F11F00C94B80B009151
:1016F000EB02023011F00C94B30B80E08093E40114
:10170000A1E0B3E00E94191FACE0B1E00D931C937F
:10171000ACE0B1E08D919C91A0E2B2E08D939C93FE
:10172000E2E0F0E0ACE0B1E07BE70E94AE1FABE1AD
:10173000B1E0E2EFF6E40E94561E0E94D41DE0E202
:10174000F2E0ABE1B1E00E94771C0E94C41EABE165
:10175000B1E00E94771CEAE1F7E40E94561E0E9465
:10176000D41D0C94B60B84E08093E4010C94961481
:10177000EEE1F7E40E94561E0E94DD1F11F00C946A
:10178000020C0091EB02023011F00C94FD0B80E092
:101790008093E401A1E0B3E00E94191FACE0B1E046
:1017A0000D931C93ACE0B1E08D919C91AAE1B2E065
:1017B0008D939C93E0E0F0E0ACE0B1E07BE70E9429
:1017C000AE1FABE1B1E0E6E2F7E40E94561E0E94D4
:1017D000D41DEAE1F2E0ABE1B1E00E94771C0E9487
:1017E000C41EABE1B1E00E94771CEAE1F7E40E947D
:1017F000561E0E94D41D0C94000C84E08093E401DA
:101800000C949614E4E5F7E40E94561E0E94DD1F36
:1018100011F00C94450C0091EB02023011F00C9485
:10182000400C80E08093E401A1E0B3E00E94B3218A
:10183000EDE0F0E0A5E0B1E00E94901FE5E0F1E00E
:10184000A3E2B2E00E94901FE5E0F0E0A5E0B1E085
:1018500094E07BE70E94AF1FABE1B1E0ECE5F7E479
:101860000E94561E0E94D41DE3E2F2E0ABE1B1E01B
:101870000E94771C0E944A200E94CB1C0C94430CAF
:1018800084E08093E4010C949614E6E7F7E40E9468
:10189000561E0E94DD1F11F00C946D0C80E08093A9
:1018A000E401ABE1B1E0EEE7F7E40E94561E0E94CE
:1018B000D41DE0E2F2E0ABE1B1E00E94771C0E94AF
:1018C000C41EABE1B1E00E94771CEAE1F7E40E949C
:1018D000561E0E94D41D0C949614E8E9F7E40E9469
:1018E000561E0E94DD1F11F00C94950C80E0809331
:1018F000E401ABE1B1E0E0EAF7E40E94561E0E9489
:10190000D41DEAE1F2E0ABE1B1E00E94771C0E9455
:10191000C41EABE1B1E00E94771CEAE1F7E40E944B
:10192000561E0E94D41D0C949614E0ECF7E40E941D
:10193000561E0E94DD1F11F00C94B50C80E08093C0
:10194000E401ABE1B1E0E8ECF7E40E94561E0E942E
:10195000D41DE3E2F2E0ABE1B1E00E94771C0E940B
:101960004A200E94CB1C0C949614E8EDF7E40E94E8
:10197000561E0E94DD1F11F00C94060D0091EB0223
:10198000023011F00C94010D80E08093E401A1E09D
:10199000B3E00E94191FACE0B1E00D931C93ABE1E2
:1019A000B1E0E0EEF7E40E94561E0E94D41DECE088
:1019B000F1E0ABE1B1E00E94771C0E94C41EEEEEA4
:1019C000F7E40E94561E0E94861C0E948D1CACE00B
:1019D000B1E08D919C91D2018D939C9382E00E9405
:1019E000C41D0E944705229682E00E94C01DE2EFBE
:1019F000F7E40E94561E0E94861C0E948D1C0C94C7
:101A0000040D84E08093E4010C949614E6EFF7E46F
:101A10000E94561E0E94DD1F11F00C94210D80E0E3
:101A20008093E40170913202726070933202ABE1F4
:101A3000B1E0EEEFF7E40E94561E0E94D41D0C9414
:101A40009614E2E1F8E40E94561E0E94DD1F11F098
:101A50000C94580D0091EB02023011F00C94530DD0
:101A600080E08093E401A1E0B3E00E94191FA2E2AC
:101A7000B2E00C93E4E0F0E0A2E2B2E07BE70E9487
:101A8000AC1FABE1B1E0EAE1F8E40E94561E0E940F
:101A9000D41DE2E2F2E0ABE1B1E00E94771C0E94CB
:101AA000D41E0C94560D84E08093E4010C9496149B
:101AB000ECE3F8E40E94561E0E94DD1F11F00C9426
:101AC000760D80E08093E401ABE1B1E0E4E4F8E47A
:101AD0000E94561E0E94D41DE2E2F2E0ABE1B1E0AA
:101AE0000E94771C0E94D41E0C949614EAE5F8E438
:101AF0000E94561E0E94DD1F11F00C94F20D009101
:101B0000EB02053111F00C94ED0D80E08093E401BF
:101B1000ABE1B1E0E2E6F8E40E94561E0E94D41D5B
:101B2000EEE7F8E40E94561E0E94861CE6E9F2E009
:101B3000A0E8BFE00E94D41E0E947E1C0E948D1C63
:101B400080E08093000182E080930A0100910A0105
:101B5000053118F011F00C94D60DA0E0B1E08C9195
:101B60008F5F8C93AAE0B1E00D91112745E150E021
:101B70000E94CA1DA7EDB2E0A00FB11F0E94711F05
:101B8000A2E0B1E00C9380910201A0E0B1E0AD9041
:101B9000BB24ABE6B2E0AA0DBB1D8C93AAE0B1E07A
:101BA0008C918F5F8C9310F40C94A60D709132027F
:101BB000706270933202ECE8F8E40E94561E0E94B4
:101BC000861CE6E9F2E0A0E8BFE00E94D41E0E9475
:101BD0007E1C0E948D1C0C94F00D84E08093E40127
:101BE0000C949614EAE9F8E40E94561E0E94DD1F48
:101BF00011F00C94780E0091EB02033011F00C946C
:101C0000730EA1E0B3E00E94191FA0E0B1E00C93B5
:101C100000910001033018F011F00C946E0E80E07A
:101C20008093E401A6E1B3E00E94B321EDE0F0E08F
:101C3000A5E0B1E00E94901FE5E0F1E0A0E0B1E096
:101C4000AD90BB24A8EBB2E0AA0CBB1CAA0CBB1C39
:101C5000AA0DBB1D0E94901FE0E0F1E0A190BB2403
:101C6000E5E0F0E0AA0CBB1CAA0CBB1CEA0DFB1DB6
:101C7000A5E0B1E094E07BE70E94AF1FABE1B1E0EB
:101C8000E2EAF8E40E94561E0E94D41DE0E0F1E072
:101C9000ABE1B1E00E94771C0E94D41EABE1B1E041
:101CA0000E94771CEEECF5E40E94561E0E94D41DA3
:101CB000E0E0F1E0A190BB24E8EBF2E0AA0CBB1C51
:101CC000AA0CBB1CEA0DFB1DABE1B1E00E94771C26
:101CD0000E944A200E94CB1C0C94710E85E08093D8
:101CE000E4010C94760E84E08093E4010C94961445
:101CF000E4EBF8E40E94561E0E94DD1F11F00C94E4
:101D0000D00E80E08093E401ABE1B1E0ECEBF8E4CD
:101D10000E94561E0E94D41D81E080930B01009109
:101D20000B01033018F011F00C94CE0EEBE0F1E053
:101D3000ABE1B1E00E94771C0E94D41EABE1B1E0A0
:101D40000E94771CEEECF5E40E94561E0E94D41D02
:101D5000EBE0F1E0A190BB24E8EBF2E0AA0CBB1CA5
:101D6000AA0CBB1CEA0DFB1DABE1B1E00E94771C85
:101D70000E944A200E94CB1CABE1B1E00E94771C7C
:101D8000EAECF8E40E94561E0E94D41DABE0B1E0DC
:101D90008C918F5F8C9310F40C948F0E0C9496148E
:101DA000ECECF8E40E94561E0E94DD1F11F00C942A
:101DB000E90E80E08093E401ABE1B1E0E4EDF8E40A
:101DC0000E94561E0E94D41D81E0809311010C9444
:101DD0009614EEEEF8E40E94561E0E94DD1F11F0EC
:101DE0000C944D0F0091EB02023011F00C94150F82
:101DF00080E08093E401ABE1B1E0E6EFF8E40E941B
:101E0000561E0E94D41DE1E0F3E0ABE1B1E00E9478
:101E1000771C0E948B1F70910901706870930901F3
:101E200080E080932C020C944B0F033011F00C9443
:101E3000480F80E08093E401ABE1B1E0E6EFF8E425
:101E40000E94561E0E94D41DE1E0F3E0ABE1B1E038
:101E50000E94771C0E948B1FABE1B1E00E94771CAF
:101E6000EAECF8E40E94561E0E94D41DE6E1F3E07D
:101E7000ABE1B1E00E94771C0E948B1F70910901B9
:101E800070687093090180E080932C020C944B0FD2
:101E900084E08093E4010C949614ECE0F9E40E9451
:101EA000561E0E94DD1F11F00C947D0F0091EB0275
:101EB000023011F00C94780F80E08093E401A1E0EF
:101EC000B3E00E94191FADE1B2E00C93ABE1B1E0C9
:101ED000E4E1F9E40E94561E0E94D41DEDE1F2E017
:101EE000ABE1B1E00E94771C0E94D41E0C947B0FE2
:101EF00084E08093E4010C949614E8E2F9E40E94F3
:101F0000561E0E94DD1F11F00C949B0F80E0809301
:101F1000E401ABE1B1E0E2EAF5E40E94561E0E9462
:101F2000D41DEDE1F2E0ABE1B1E00E94771C0E942C
:101F3000D41E0C949614E0E3F9E40E94561E0E940D
:101F4000DD1F11F00C94CC0F0091EB02023011F068
:101F50000C94C70F80E08093E401A1E0B3E00E94FD
:101F6000191FAFE2B2E00D931C93ABE1B1E0E8E3DF
:101F7000F9E40E94561E0E94D41DEFE2F2E0ABE1AC
:101F8000B1E00E94771C0E94C41E0C94CA0F84E02A
:101F90008093E4010C949614EEE4F9E40E94561E3A
:101FA0000E94DD1F11F00C9404100091EB0202302E
:101FB00011F00C94FF0F80E08093E401A1E0B3E006
:101FC0000E94191FA0EEB2E00D931C93E5E1F0E032
:101FD000A0EEB2E07BE70E94AE1FABE1B1E0E6E528
:101FE000F9E40E94561E0E94D41DE0EEF2E0ABE13F
:101FF000B1E00E94771C0E94C41E0C94021084E081
:102000008093E4010C949614EEE6F9E40E94561EC7
:102010000E94DD1F11F00C943C100091EB02023085
:1020200011F00C94371080E08093E401A1E0B3E05C
:102030000E94191FA2EEB2E00D931C93E7E1F0E0BD
:10204000A2EEB2E07BE70E94AE1FABE1B1E0E6E7B3
:10205000F9E40E94561E0E94D41DE2EEF2E0ABE1CC
:10206000B1E00E94771C0E94C41E0C943A1084E0D8
:102070008093E4010C949614E0E9F9E40E94561E62
:102080000E94DD1F11F00C946C1080E08093E4013D
:10209000ABE1B1E0E8E9F9E40E94561E0E94D41DCC
:1020A000E0EEF2E0ABE1B1E00E94771C0E94C41EBA
:1020B000ABE1B1E00E94771CE0EAF9E40E94561E11
:1020C0000E94D41DE2EEF2E0ABE1B1E00E94771C89
:1020D0000E94C41E0C949614ECEAF9E40E94561E69
:1020E0000E94DD1F11F00C94BC1080E08093E4018D
:1020F000ABE1B1E0E4EBF9E40E94561E0E94D41D6E
:10210000A0E8BFE0AF93BF93E4EDF2E00E944A2065
:102110000E94CB1C11E002E0BF91AF910E94691EAA
:10212000E0E8FFE0ABE1B1E00E94771C0E948B1F6A
:10213000ABE1B1E00E94771CEAEBF9E40E94561E85
:102140000E94D41DA0E8BFE0AF93BF93E8EDF2E09A
:102150000E944A200E94CB1C11E002E0BF91AF9187
:102160000E94691EE0E8FFE0ABE1B1E00E94771C4D
:102170000E948B1F0C949614E2ECF9E40E94561E08
:102180000E94DD1F11F00C94D91080E08093E401CF
:102190000E94CF04ABE1B1E0EAECF9E40E94561EE4
:1021A0000E94D41D709109017860709309010C940C
:1021B0009614EAEEF9E40E94561E0E94DD1F11F00B
:1021C0000C94F41080E08093E40170910901786030
:1021D00070930901ABE1B1E0E2EFF9E40E94561E11
:1021E0000E94D41D0C949614E8E0FAE40E94561E56
:1021F0000E94DD1F11F00C945B110091EB02023084
:1022000011F00C945611A1E0B3E00E94191FA0E058
:10221000B1E00C9300910001023010F00C945111C8
:1022200080E08093E40100910001013011F00C94F2
:10223000351170913202706870933202ABE1B1E0F7
:10224000E0E1FAE40E94561E0E94D41DA2E3B2E02F
:102250008C9187FBABE1B1E00E94771C0E94471E86
:102260008D9388278C930C944F11709132027F7755
:1022700070933202ABE1B1E0E0E1FAE40E94561E55
:102280000E94D41DA2E3B2E08C9187FBABE1B1E0E8
:102290000E94771C0E94471E8D9388278C930C9474
:1022A000541185E08093E4010C94591184E08093EB
:1022B000E4010C949614E8E2FAE40E94561E0E948F
:1022C000DD1F11F00C947E1180E08093E401ABE1FE
:1022D000B1E0E0E3FAE40E94561E0E94D41DA2E39E
:1022E000B2E08C9187FBABE1B1E00E94771C0E94C9
:1022F000471E8D9388278C930C949614EAE3FAE496
:102300000E94561E0E94DD1F11F00C94BB1100911B
:10231000EB02023011F00C94B611A1E0B3E00E9480
:10232000191FA0E0B1E00C9380910001D2018C93C1
:1023300081E00E94C41D0E943C09229681E00E9417
:10234000C01DABE1B1E0E2E4FAE40E94561E0E9437
:10235000D41DE0E0F1E0ABE1B1E00E94771C0E9407
:10236000D41E80E08093E4010C94B91184E0809342
:10237000E4010C949614E6E6FAE40E94561E0E94CC
:10238000DD1F11F00C940C120091EB02023011F0E1
:102390000C94071280E08093E401A1E0B3E00E9476
:1023A000191FA0E0B1E00C9300910001023010F081
:1023B0000C94021200910001013011F00C94E31111
:1023C000AC9A0C94E411AC98ABE1B1E0EEE6FAE41F
:1023D0000E94561E0E94D41DE0E0F1E0ABE1B1E0A6
:1023E0000E94771C0E94D41EE3E0F0E00E94AD1C26
:1023F000E4E7FAE40E94561E0E94861C0E948D1C8F
:102400000C94051285E08093E4010C940A1284E098
:102410008093E4010C949614ECE7FAE40E94561EB3
:102420000E94DD1F11F00C943C120091EB0202306F
:1024300011F00C94371280E08093E401A1E0B3E046
:102440000E94191FA0E1B1E00C93ABE1B1E0E4E818
:10245000FAE40E94561E0E94D41DE0E1F1E0ABE1D7
:10246000B1E00E94771C0E94D41E0C943A1284E0C2
:102470008093E4010C949614E6E9FAE40E94561E57
:102480000E94DD1F11F00C945A1280E08093E40149
:10249000ABE1B1E0EEE9FAE40E94561E0E94D41DC1
:1024A000E0E1F1E0ABE1B1E00E94771C0E94D41EB4
:1024B0000C949614E6EAFAE40E94561E0E94DD1F70
:1024C00011F00C94CC1280E08093E401ABE1B1E018
:1024D000EEEAFAE40E94561E0E94D41DA0E8BFE076
:1024E000AF93BF93E4EDF2E00E944A200E94CB1C20
:1024F00011E001E0BF91AF910E94691EE0E8FFE0AA
:10250000ABE1B1E00E94771C0E948B1FABE1B1E010
:102510000E94771CE4EBFAE40E94561E0E94D41D30
:10252000A0E8BFE0AF93BF93E8EDF2E00E944A203D
:102530000E94CB1C11E001E0BF91AF910E94691E87
:10254000E0E8FFE0ABE1B1E00E94771C0E948B1F46
:10255000ABE1B1E00E94771CECEBFAE40E94561E5E
:102560000E94D41DA0E8BFE0AF93BF93ECEDF2E072
:102570000E944A200E94CB1C11E001E0BF91AF9164
:102580000E94691EE0E8FFE0ABE1B1E00E94771C29
:102590000E948B1F0C949614E4ECFAE40E94561EE1
:1025A0000E94DD1F11F00C9439130091EB020330EF
:1025B00011F00C943413A1E0B3E00E94191FA0E0C5
:1025C000B1E00C9300910001003080E010F009F0C0
:1025D00081E08F9300910001053081E008F080E0F8
:1025E0009F918923882311F40C942F13A6E1B3E063
:1025F0000E94191FA2E0B1E00C9380910201A0E0BB
:10260000B1E0AD90BB24A5E3B2E0AA0DBB1D8C9355
:10261000ABE1B1E0ECECFAE40E94561E0E94D41D3E
:10262000E0E0F1E0ABE1B1E00E94771C0E94D41E33
:10263000ABE1B1E00E94771CEEECF5E40E94561E7F
:102640000E94D41DE2E0F1E0ABE1B1E00E94771C12
:102650000E94D41E80E08093E4010C94321385E044
:102660008093E4010C94371384E08093E4010C948C
:102670009614E8EDFAE40E94561E0E94DD1F11F048
:102680000C949A130091EB02023011F00C94951304
:10269000A1E0B3E00E94191FA0E0B1E00C9300910B
:1026A0000001003080E010F009F081E08F9300918C
:1026B0000001053081E008F080E09F9189238823A4
:1026C00011F40C94901380E08093E401ABE1B1E04D
:1026D000E0EEFAE40E94561E0E94D41DE0E0F1E014
:1026E000ABE1B1E00E94771C0E94D41EABE1B1E0E7
:1026F0000E94771CEEECF5E40E94561E0E94D41D49
:10270000E0E0F1E0A190BB24E5E3F2E0EA0DFB1D7F
:10271000ABE1B1E00E94771C0E94D41E0C9493138D
:1027200085E08093E4010C94981384E08093E401A5
:102730000C949614E8EEFAE40E94561E0E94DD1FE7
:1027400011F00C941B140091EB02033011F00C9467
:102750001614A1E0B3E00E94191FA0E0B1E00C93B1
:1027600000910001003080E010F009F081E08F93CB
:1027700000910001053081E008F080E09F918923FD
:10278000882311F40C94111480E08093E401A6E1F5
:10279000B3E00E94191FA0E0B1E0AD90BB24A3EE0E
:1027A000B2E0AA0DBB1D0C93E0E0F1E0A190BB24C8
:1027B000E8E1F0E0EA0DFB1DA0E0B1E0AD90BB2444
:1027C000A3EEB2E0AA0DBB1D7BE70E94AC1FABE1FC
:1027D000B1E0E0EFFAE40E94561E0E94D41DE0E052
:1027E000F1E0ABE1B1E00E94771C0E94D41EABE1A6
:1027F000B1E00E94771CE6E0FBE40E94561E0E94B6
:10280000D41DE0E0F1E0A190BB24E3EEF2E0EA0D9C
:10281000FB1DABE1B1E00E94771C0E94D41E0C941A
:10282000141485E08093E4010C94191484E08093DF
:10283000E4010C949614EAE0FBE40E94561E0E9408
:10284000DD1F11F00C9475140091EB02023011F0B1
:102850000C94701400910001003080E010F009F039
:1028600081E08F9300910001053081E008F080E065
:102870009F918923882311F40C946B1480E080933A
:10288000E401ABE1B1E0E2E1FBE40E94561E0E94EC
:10289000D41DE0E0F1E0ABE1B1E00E94771C0E94C2
:1028A000D41EABE1B1E00E94771CEEECF5E40E948F
:1028B000561E0E94D41DE0E0F1E0A190BB24E3EE9F
:1028C000F2E0EA0DFB1DABE1B1E00E94771C0E9433
:1028D000D41E0C946E1485E08093E4010C94731460
:1028E00084E08093E4010C949614EEE1FBE40E94F2
:1028F000561E0E94DD1F11F00C94931480E080930B
:10290000E401ABE1B1E0E6E2FBE40E94561E0E9466
:10291000D41DABE1B1E00E94771CE8EEF2E00E942A
:10292000611F0C94961481E08093E4010C949B1435
:1029300082E08093E4010091E401003018F011F08E
:102940000C94A4140C94B214E4E8F1E30E94561E13
:10295000A4EEB1E08C9199270E94231EABE1B1E077
:102960000E94D41DABE1B1E00E94801C0E948D1C2E
:102970000895EEE2FBE40E94561E0E94861C0E940F
:102980008D1C809170028093270280917102809348
:10299000280280E08093030181E080930A01009186
:1029A0000A01043118F011F00C942915EAE0F1E065
:1029B000A190BB24EBE6F2E0EA0DFB1DA0E8BFE02E
:1029C0000E94481F0E947E1CEAECF8E40E94561EFA
:1029D0000E94861CAAE0B1E00C9100FB16F00C945A
:1029E000FE14AAE0B1E0AD90BB24ABE6B2E0AA0DC4
:1029F000BB1D8C91809300010C942115AAE0B1E0DD
:102A0000AD90BB24ABE6B2E0AA0DBB1D8C918093C8
:102A1000020194E0A2E0B1E00E94E31DA3E0B1E076
:102A20008C918F5F8C930091000140910201042BE7
:102A3000A3E0B1E0AD90BB24A1E8B2E0AA0DBB1DBC
:102A40000C93AAE0B1E08C918F5F8C9310F40C94FE
:102A5000CF140E948D1CEAE3FBE40E94561E0E94E4
:102A6000861C0E948D1C81E080930A0100910A015E
:102A70000A3018F011F00C945915EAE0F1E0A19039
:102A8000BB24E1E8F2E0EA0DFB1DA0E8BFE00E94F4
:102A9000481F0E947E1CEAECF8E40E94561E0E9429
:102AA000861CAAE0B1E08C918F5F8C9310F40C949B
:102AB00036150E948D1C88E090E0A2E8B2E00E94EA
:102AC0000120ACE0B1E00D931C93E4E4FBE40E9430
:102AD000561E0E94861CECE0F1E0A0E8BFE00E94D8
:102AE0004A1F0E947E1C0E948D1C90918A02809138
:102AF0008B02AEE0B1E08D939C93EAE4FBE40E948C
:102B0000561E0E94861CEEE0F1E0A0E8BFE00E94A5
:102B10004A1F0E947E1C0E948D1CAEE0B1E04D91C8
:102B20005C91ACE0B1E00D911C910417150711F018
:102B30000C94A418E2E5FBE40E94561E0E94861C39
:102B4000A0EEB2E00E94301CE5E1F0E0A0EEB2E0C1
:102B50007BE70E94AE1FE0EEF2E0A0E8BFE00E943B
:102B6000C41E0E947E1C0E948D1C009182020432B1
:102B700011F00C949A1800918302053511F00C9411
:102B80009117EAE5FBE40E94561E0E94861C0E94F3
:102B90008D1CE8E6FBE40E94561E0E94861CE5E8B8
:102BA000F2E0A0E8BFE00E94D41E0E947E1C0E94BA
:102BB0008D1C809185028093330240912702009101
:102BC0002202041711F00C94EF16A3E2B2E0E4E144
:102BD000F5E40E94561E0E94A621E3E2F2E00E9464
:102BE0004A200E944B21EDE0F0E0A3E2B2E00E9417
:102BF000901FE5E0F0E0A3E2B2E094E07BE70E9402
:102C0000AF1FE2E7FBE40E94561E0E94861CE3E22F
:102C1000F2E0A0E8BFE00E944A200E94CB1C0E9484
:102C20007E1C0E948D1C0E94BC05EAE7FBE40E940A
:102C3000561E0E94861C0E948D1C81E080930A0112
:102C400000910A010F3018F011F00C944316EAE0DD
:102C5000F1E0A190BB24E9E3F2E0EA0DFB1DA0E85E
:102C6000BFE00E94481F0E947E1CEAECF8E40E942C
:102C7000561E0E94861CAAE0B1E08C918F5F8C9357
:102C800010F40C9420160E948D1CA8E2B2E00C9166
:102C900003FB16F40C946B16709132027F777093DD
:102CA0003202E4E8FBE40E94561E0E94861CA2E366
:102CB000B2E08C9187FBA0E8BFE00E94471E8D9395
:102CC00088278C930E947E1C0E948D1C81E080933B
:102CD00096020C94881670913202706870933202DA
:102CE000E0E9FBE40E94561E0E94861CA2E3B2E0CB
:102CF0008C9187FBA0E8BFE00E94471E8D93882738
:102D00008C930E947E1C0E948D1C8BE08093960207
:102D100070912802777F7093280280912802809317
:102D20002B02ECE9FBE40E94561E0E94861CEBE29B
:102D3000F2E0A0E8BFE00E94D41E0E947E1C0E9428
:102D40008D1C80912B02809329020E948D1CE8EA41
:102D5000FBE40E94561E0E94861C0E948D1CEAE520
:102D6000F8E40E94561E0E94861C81E080930A01AE
:102D700000910A010E3118F011F00C94DB16EAEC08
:102D8000F8E40E94561E0E94861CEAE0F1E0A19041
:102D9000BB24E9E4F2E0EA0DFB1DA0E8BFE00E94DD
:102DA000481F0E947E1CAAE0B1E08C918F5F8C933B
:102DB00010F40C94B8160E948D1C88EC90E0D2019F
:102DC0008D939C9382E00E94C41D0E944705229629
:102DD00082E00E94C01D0E94EF060C948F170091A4
:102DE00027020F3011F00C941D17E4EBFBE40E9456
:102DF000561E0E94861C0E948D1C83E080932B022D
:102E000083E08093290283E080939602ECE9FBE45F
:102E10000E94561E0E94861CEBE2F2E0A0E8BFE092
:102E20000E94D41E0E947E1C0E948D1C7091320252
:102E30007F77709332020C948F17009127020E3027
:102E400011F00C944B17E2ECFBE40E94561E0E941A
:102E5000861C0E948D1C82E080932B0282E080936E
:102E6000290282E080939602709132027F777093FC
:102E70003202ECE9FBE40E94561E0E94861CEBE243
:102E8000F2E0A0E8BFE00E94D41E0E947E1C0E94D7
:102E90008D1C0C948F17009127020D3011F00C94AB
:102EA0006917EEECFBE40E94561E0E94861C0E94ED
:102EB0008D1C709132027F777093320281E0809393
:102EC0002B0281E08093290281E0809396020C948A
:102ED0008F17009127020C3011F00C948717ECED3E
:102EE000FBE40E94561E0E94861C0E948D1C81E0FD
:102EF00080932B0281E0809329028BE080939602DD
:102F0000709132027068709332020C948F17EEEE5B
:102F1000FBE40E94561E0E94861C0E948D1C0C948D
:102F200098180091830240EF0423A0E0B1E00C93D5
:102F300000910001003F11F00C949018E2E1FCE4D4
:102F40000E94561E0E94861C0E948D1C40912702E2
:102F500000912202041711F00C948618009183024C
:102F60004FE00423AAEEB2E00C93E0E2FCE40E94FE
:102F7000561E0E94861CEAEEF2E0A0E8BFE00E9426
:102F8000D41E0E947E1C0E948D1C70919C02706257
:102F900070939C02E8E6FBE40E94561E0E94861C89
:102FA000E5E8F2E0A0E8BFE00E94D41E0E947E1C8B
:102FB0000E948D1C8091850280933302A3E2B2E0CF
:102FC000E4E1F5E40E94561E0E94A621E3E2F2E04D
:102FD0000E944A200E944B21EDE0F0E0A3E2B2E023
:102FE0000E94901FE5E0F0E0A3E2B2E094E07BE70E
:102FF0000E94AF1FE2E7FBE40E94561E0E94861C5F
:10300000E3E2F2E0A0E8BFE00E944A200E94CB1C6D
:103010000E947E1C0E948D1C0E94BC05EAE7FBE416
:103020000E94561E0E94861C0E948D1C81E0809387
:103030000A0100910A010F3018F011F00C943C18AD
:10304000EAE0F1E0A190BB24E9E3F2E0EA0DFB1D28
:10305000A0E8BFE00E94481F0E947E1CEAECF8E452
:103060000E94561E0E94861CAAE0B1E08C918F5FE0
:103070008C9310F40C9419180E948D1CE8EAFBE460
:103080000E94561E0E94861C0E948D1CEAE5F8E4F0
:103090000E94561E0E94861C81E080930A010091C6
:1030A0000A010E3118F011F00C947218EAECF8E4F1
:1030B0000E94561E0E94861CEAE0F1E0A190BB240B
:1030C000E9E4F2E0EA0DFB1DA0E8BFE00E94481F22
:1030D0000E947E1CAAE0B1E08C918F5F8C9310F46B
:1030E0000C944F180E948D1C88EC90E0D2018D93B7
:1030F0009C9382E00E94C41D0E944705229682E0B4
:103100000E94C01D0E94EF060C948E18E6E2FCE4BB
:103110000E94561E0E94861C0E948D1C0C949818BA
:10312000E0E4FCE40E94561E0E94861C0E948D1C56
:103130000C94A218EEE4FCE40E94561E0E94861C29
:103140000E948D1C0C94BF18ECE5FCE40E94561EF6
:103150000E94861CA2EEB2E00E94301CE7E1F0E083
:10316000A2EEB2E07BE70E94AE1FE2EEF2E0A0E842
:10317000BFE00E94C41E0E947E1C0E948D1C0E9403
:103180008D1C08954F4B00436F6D616E646F206E10
:103190006F207265636F6E6F6369646F004C6F6E52
:1031A000676974756420636F6D616E646F206E6F04
:1031B0002076616C696461004E756D65726F206484
:1031C00065207573756172696F206E6F2076616C12
:1031D00069646F004E756D65726F20646520706163
:1031E00072616D6574726F7320696E76616C69646B
:1031F0006F004572726F72206C6F6E6769747564D0
:1032000020706172616D6574726F20310045727259
:103210006F72206C6F6E6769747564207061726183
:103220006D6574726F203200506172616D657472E9
:103230006F206E6F2076616C69646F004552524F4B
:103240005238004552524F522053442E20496E743A
:10325000656E7465206465206E7565766F0000008C
:10326000000003000000330000003303000033338C
:1032700000003333030033C00C00FF0FFF0F555520
:10328000555533333333777777770000FFFFCC0022
:10329000FCFFCC0CFCFFCCCCFCFF0C00FCFFF0FFD7
:1032A000FFFF000001020300000000000101010116
:1032B00003040404060606060606070000000001D3
:1032C00001010103040404060606060606070000C1
:1032D00000000101010103040404060606060606B7
:1032E0000404060607070707070006060606060683
:1032F0000404060606060606040407060606060675
:103300000604040606060606060404060606060665
:103310000604040606060606060404070606060654
:10332000060604040606060606060600080808083F
:103330000808080808080808060606080808080813
:10334000080808080808080606060C0C0C0C0C0CEB
:103350000C0C0C0C0C0C0C0C0C0C0C0C0C0C0C0CAD
:103360000C0C0C0C0C0C0C0C0E946803ACE9B2E0C9
:103370008C9183FB16F00C94D01970919C02777F8E
:1033800070939C02E6E6FCE40E94561E0E94861C96
:10339000A0E8B6E00E94801C0E948D1C0E94920A48
:1033A000A2E3B2E08C9185FB16F00C94DE197091CB
:1033B00032027F7D709332020E94B9140E94760718
:1033C000A2E3B2E08C9184FB16F00C94F419709196
:1033D00032027F7E70933202ECE6FCE40E94561EBD
:1033E0000E94861C0E948D1CACE9B2E08C9186FB89
:1033F00016F00C94771A70919C027F7B70939C025C
:103400000E946109A2E3B2E08C9186FB16F00C9455
:10341000771A00913402043010F00C94361A00919F
:10342000340241E0040FA9EEB2E00C93E6E7FCE4BD
:103430000E94561E0E94861CE9EEF2E0A0E8BFE062
:103440000E94D41E0E947E1C0E948D1CE6E7FCE4B4
:103450000E94561E0E949C1CE9EEF2E0A0E8BFE02C
:103460000E94D41E0E94941C0E94A31CA4E3B2E0FC
:103470008C918F5F8C93A4E3B2E00C914AE00E94A0
:10348000C71F8C9300913402003011F00C94771A0E
:10349000E0E8FCE40E94561E0E94861CE5E3F2E090
:1034A000A0E8BFE00E94D41E0E947E1C0E948D1CDA
:1034B000A5E3B2E08C918F5F8C93A5E3B2E00C9111
:1034C00043E00E94C71F8C9300913502003011F039
:1034D0000C94771A709132027F7B70933202EEE87F
:1034E000FCE40E94561E0E94861C0E948D1C9A9B22
:1034F0000C94A21A0027A9E0B1E08C9184FB00F99A
:103500004427A3E3B0E08C9182FB40F9041711F447
:103510000C94A01AE0EAFCE40E94561E0E94861C4D
:103520000E948D1CA3E3B0E08C9182FBA9E0B1E086
:103530008C9184F98C93709109017B7F70930901C0
:103540000C94C81A0027A9E0B1E08C9184FB00F923
:103550004427A3E3B0E08C9182FB40F9041711F4F7
:103560000C94C81AE8EAFCE40E94561E0E94861CCD
:103570000E948D1CA3E3B0E08C9182FBA9E0B1E036
:103580008C9184F98C937091090174607093090196
:10359000A9E0B1E08C9186FB16F00C94341B70917D
:1035A00009017F7B70930901A9E0B1E08C9187FB51
:1035B00016F40C94341BE0EBFCE40E94561E0E94AF
:1035C000861CE9E2F2E0A0E8BFE00E94D41E0E945F
:1035D0007E1CEAECF8E40E94561E0E94861CE3E37F
:1035E000F2E0A0E8BFE00E94D41E0E947E1C0E9470
:1035F0008D1CE0EBFCE40E94561E0E949C1CE9E23C
:10360000F2E0A0E8BFE00E94D41E0E94941CEAEC05
:10361000F8E40E94561E0E949C1CE3E3F2E0A0E83E
:10362000BFE00E94D41E0E94941C0E94A31CA1E330
:10363000B2E08C918F5F8C93A1E3B2E00C914AE0F1
:103640000E94C71F8C9300913102003011F00C943E
:10365000341BEAEBFCE40E94561E0E94861C0E946A
:103660008D1C81E080932C02ACE9B2E08C9185FB4B
:1036700016F00C947C1B70919C027F7D70939C02D1
:10368000E2EDFCE40E94561E0E94861CEAEEF2E087
:10369000A0E8BFE00E94D41E0E947E1CEAECF8E481
:1036A0000E94561E0E94861CE3E3F2E0A0E8BFE001
:1036B0000E94D41E0E947E1C0E948D1CE2EDFCE440
:1036C0000E94561E0E949C1CEAEEF2E0A0E8BFE0B9
:1036D0000E94D41E0E94941CEAECF8E40E94561E3C
:1036E0000E949C1CE3E3F2E0A0E8BFE00E94D41E2D
:1036F0000E94941C0E94A31CA9E0B1E08C9180FB65
:1037000016F00C94201C709109017E7F70930901C2
:10371000AFE2B2E00E94301CAFE2B2E00D911C912A
:10372000AEE1B2E04D915C910E945D1CAFE2B2E06F
:103730000D931C93A2E3B2E08C9187FB16F40C94DA
:10374000D91B00912902013011F00C94B31BE8EA57
:10375000F2E30E94561EAFE2B2E08D919C91AEE280
:10376000B2E00E94091E00912902023011F00C946F
:10377000C51BECE2F3E30E94561EAFE2B2E08D916E
:103780009C91AEE2B2E00E94091E00912902033032
:1037900011F00C94D71BEAE4F3E30E94561EAFE24B
:1037A000B2E08D919C91AEE2B2E00E94091E0C94B1
:1037B000DC1B87E080932E0200911001013011F094
:1037C0000C94131CEFE2F2E0A0E8BFE00E94C41EDC
:1037D0000E947E1CEAECF8E40E94561E0E94861CA1
:1037E000EEE2F2E0A0E8BFE00E94D41E0E947E1C40
:1037F000EAECF8E40E94561E0E94861CECEDFCE404
:103800000E94561E0E94861CA2E3B2E08C9187FBA8
:10381000A0E8BFE00E94471E8D9388278C930E94EA
:103820007E1C0E948D1C80912E02D2018C9381E01F
:103830000E94C41D0E943C09229681E00E94C01D86
:10384000A9E0B1E08C9183FB16F00C942E1C7091D2
:103850000901777F709309010E9468030C94B619DF
:10386000ED91FC91EF5FFF4FFC93EE93089509D02B
:103870000E94CA1D00FC10D0089503D01ED001F88C
:10388000F9CF0024E89457FF02C009D0689400F8EB
:103890000BD010F80124089502D009D00895509556
:1038A00040954F5F5F4F0895E89417FF0895009586
:1038B00010950F5F1F4F68940895352F242FE894BB
:1038C000452B11F468940895512F402F002711279C
:1038D00080E1440F551F001F111F021B130B416095
:1038E00018F4020F131F4E7F8A9599F708958F934E
:1038F0008D918823E9F711978F910895A0E8BFE093
:103900008D91882311F00CD0FBCF08950E94F31DF8
:10391000802D11F005D0FACF08958DE001D08AE016
:103920005D9BFECF8CB90895A0E8BFE08D91882300
:1039300011F00CD0FBCF08950E94F31D802D11F0E3
:1039400005D0FACF08958DE001D08AE000909B0069
:1039500005FEFCCF80939C00089588EE93E00CD088
:103960003197D9F708953197F1F70895689462F87F
:103970000895E89462F80895EF93FF93EE27E82BFB
:10398000E92B31F0E0EAFFE03197F1F70197D1F749
:10399000FF91EF9108958DE207FD8D938F2D881F84
:1039A000802F881F8F57082F6894F7F8802F87FF84
:1039B00017C080958395082F80E38D938EE28D93B9
:1039C000802F815238F080E38D9399279C930E9439
:1039D0004B1E089544270A95802F09F19ED01FC0E1
:1039E000805230F09EE49D9381E48D939D93EDCFC2
:1039F0004427DF92EF92FF920F938FE1801B11F02B
:103A0000082F8BD091D09EE29D930F91FF90EF9065
:103A1000DF9044270395003209F4D5CF33D03F938C
:103A2000EAEBFAE30E94561E38E12F2D1E2D0D2DD4
:103A3000FF24EE24DD244427000F111F221FB8F4B9
:103A40002F923F920E94F31D102C0E94F31D202CF8
:103A50000E94F31D302C0E94F31D31970E941C1E02
:103A6000410DD21CE31CF01C3F902F9003C03396F5
:103A70000E94151E31960E94151E3A95E9F63F9157
:103A800007D0A5CFDD0CEE1CFF1C0A95D9F70895D1
:103A9000002719E058D08F93802B11F0039501C0B7
:103AA0008F911A95B9F7802F882309F48CCF8F91C5
:103AB000805D8D930A95D9F788CF0065CD1D80B2C2
:103AC000E60E40597307A0ACB90350D6DC01286B51
:103AD000EE0094357700CA9A3B0065CD1D00B2E632
:103AE0000E0059730700ACB90300D6DC01006BEE81
:103AF0000000357700009A3B0000CD1D0000E60E67
:103B0000000073070000B9030000DC010000EE00B4
:103B10000000770000003B000000F694E794D79483
:103B200047950A95D1F7089500270DD08F930395F7
:103B30008F2D8E298D29842BC1F78F91805D8D93D8
:103B40000A95D9F742CF1F930F93002710E2440F35
:103B5000DD1CEE1CFF1C001F802F9AE0890B10F06B
:103B6000082F43951A9599F7802F0F911F9108956B
:103B700001911191219130810895481A590A0895AF
:103B8000481A8827580A089599275A924A92480E47
:103B9000591E08950F92B801469F8001479F100D4E
:103BA000569F100D0F9008950E94F31D0D92002056
:103BB000D9F70895369A3699FECF369A3699FECFC0
:103BC00084B195B10895903029F08C91880F9A9521
:103BD000E9F78C930895903029F08C9186959A9509
:103BE000E9F78C930895D895319628F48F938BB785
:103BF00083958BBF8F910020089591E005C092E0DE
:103C000003C094E001C098E0EEDF0D929A95E1F7D1
:103C10000895E80FF91F09D0F0CF880F991F880F7A
:103C2000991FE80FF91F01D0ECCF28F48F938BB7C1
:103C300083958BBF8F91089528F48F938BB78A95C6
:103C40008BBF8F9108950196019721F00E94F31D7B
:103C5000E9F7FACF0895819104D08D938823D9F79D
:103C60000895813618F08B3708F48F7D089591E020
:103C7000882321F08894991F8A95E9F7892F9095D8
:103C80000895883018F011968850FBCF089580E38E
:103C90000EF4839508950F9200240BBE0F900895A3
:103CA0000F9301E00BBF0F91889408950F930027A5
:103CB000F9CF0F9302E0F6CF99278D919395882342
:103CC000E1F7939511968C9311978E919A95D1F770
:103CD0000895EA2FFB2F00244C918D9103948E328E
:103CE000E1F711248D9113948823E1F71A941016AB
:103CF00040F41197202F2119239580E38D932A9565
:103D0000E9F7113039F59927AE2FBF2FA00DB91F54
:103D1000A00FB91F8C919C93853308F421C031E02A
:103D20008E918E32E9F38D3241F0830F8A3319F48C
:103D300080E331E001C033278C93AE1789F733233A
:103D400041F0AE2FBF2FB8DF81E34D3209F4319639
:103D5000808308958827E00DF81FE00FF81F808307
:103D60000895040F151F261F371F0895000F111FF8
:103D7000221F331F089500951095209530950F5FF1
:103D80001F4F2F4F3F4F0895019110810FC00E9488
:103D9000B81D0EC00E94B81D10C00191108117FF00
:103DA00005C03FEF2FEF04C00081112722273327E2
:103DB00037FF03C0E0DF8DE28D93CF92DF92EF9269
:103DC000AA24BB24CC24DD24EE2440E2EAE0FF2731
:103DD00055E093E38081890F87FD9F7083FD907F7D
:103DE000891B81935A95A9F7C1DFAA1CBB1CCC1C67
:103DF000DD1CEE1C4A9551F7E894EFE0FF27829115
:103E00000BD0EB30E0F71EF068948A2D09D04D936B
:103E1000EF90DF90CF900895982F829501D0892F51
:103E20008F70805D26F0803309F4089568948D9337
:103E3000089500271127222733271DD08A3328F41D
:103E4000803318F005D015D0F9CF0EF494CF089533
:103E500080538F93402F512F622F732F87DF86DF80
:103E600080DF84DF8F919927080F191F291F391FC1
:103E700008958D910895E894FCDF8032E9F38B3248
:103E8000D9F38930C9F38D3211F46894F2CF0895D3
:103E900041E003C042E001C044E0E40F8827F81F7E
:103EA0008291982F829506D0892F04D04A95C1F728
:103EB0000C94881F8F708A3008F0895F805D8D9325
:103EC000089541E0E40F8827F81F829138E098E1D7
:103ED000880F991F9D933A95D1F74A95B1F70C94A5
:103EE000881F00271127222733278D91882379F0F7
:103EF0003DDF3CDF3BDF3ADFB4DE815408F4895F0D
:103F0000865F080F8827181F281F381FEECF0895D7
:103F100088278D93089581918D938823E1F70895E3
:103F200094E081918D939A95E1F70895099191918B
:103F3000992359F08A95D9F73197002331F081916F
:103F40008D930A958823C9F70895E2CFE199FECFB2
:103F5000EEBBFFBB3196089591E001C092E07B3744
:103F600051F47FB7F894F2DF8D918DBBE29AE19A1C
:103F70009A95C9F77FBF7727089591E001C092E035
:103F8000E5DFE09A8DB38D939A95D1F70895FF936D
:103F9000881BF9E0001FFA9511F4FF910895881F1E
:103FA000841B18F4840F8894F5CF0894F3CF8FEF17
:103FB00083959D919923E1F70895689401C0E89451
:103FC000AF93BF938D9116F0919103C00E94F31DA2
:103FD000902D891718F011F48823A1F7BF91AF91A4
:103FE000089500276CE8719198E00695779577FF22
:103FF00018F477FD08F006279A95B9F78A9599F78E
:1040000008950027112730E141E20D90102528E0A6
:104010008894001F111F10F4132704272A95C1F755
:10402000019799F70895689401C0E8942227102F0A
:10403000231709F4089526F40E94F31D802D01C072
:104040008191803081F0891741F070E08D931A954D
:1040500091F7239571E01D93EACF01D0E8CF70303E
:1040600011F077270895772331F423958827139546
:104070008D931A95E9F70895B7FE089590E8B9165B
:1040800011F4D0FE08959FEFD91AE90AF90A09F44C
:1040900003950895D190E190F190019108952191B7
:1040A0003191419151910895502F2D2D3E2D4F2D3D
:1040B000612F0895D094E094F09491E0D90E99275F
:1040C000E91EF91E10950895652F90E8440F551FBD
:1040D0005927990F47956078102F90E8FF0C001F23
:1040E0000927990FF794107800380895FF0C90E88D
:1040F0009027110F9795F794092F08951127BD2C3C
:10410000DE2CEF2CF02E0EE1FF2039F4FE2CED2CEE
:10411000DB2CBB240850C2F752C032F00A95BB0C0E
:10412000DD1CEE1CFF1CF9CFA7DFE0CF2DEC3CEC33
:104130004CEC5DE366270FC0ADDFB6DFDD24EE2477
:1041400090E8F92E0FE307C0AADF05C02227332726
:1041500040E251E46627552351F1002381F1B4DF99
:1041600071F11627005850580894050B18F407FDF4
:1041700003C025C007FD23C0469537952795F694C3
:10418000E794D79425D0FF202AF0DD0CEE1CFF1C0D
:10419000015073F09D2D969548F0DD203AF4EE2005
:1041A0002AF491E0D90E9927E91EF91E9FCF07C086
:1041B0009FE7092FF92A9FEFD92EE92E0895DD24D4
:1041C000EE24FF240027112708950FE79FEFF2CF79
:1041D0009F929924AA24BB2488E1D216E306F40610
:1041E00028F0D21AE30AF40A089401C08894991CB2
:1041F000AA1CBB1CDD0CEE1CFF1C8A9571F7D92C88
:10420000EA2CFB2C9F9008955FDFD9F05038C9F05D
:1042100016270058952F90580894091F12F418F487
:104220000EC008F00EC00FD0FF202AF0BB0CDD1C22
:10423000EE1CFF1C02C0039513F01EDF57CF0C9439
:10424000D8200C94DF209F92FF92EF928D2DFF24B7
:10425000EE24DD24BB2493E0849F1001829FB00CE8
:10426000D11CE21CF31C839FD00CE11C2224F21C05
:104270009A9531F0BD2CDE2CEF2CFF248F91ECCFE2
:104280009F9008950AF045D031CF5FE3222733276E
:10429000442701C004DF18DF5038B1F3003899F328
:1042A000902F951B8BF312F434D0FACF983118F07D
:1042B000222733274427983028F0232F342F4427F0
:1042C0009850F9CF992329F04695379527959A95D7
:1042D000D9F7912F962742F014D0B0F6F794E794CF
:1042E000D7940F5F8BF664CF10D051F008F4E2DE64
:1042F000FF2052F2DD0CEE1CFF1C0150CBF758CF13
:104300005ECFD20EE31EF41E0895D21AE30AF40A19
:104310000895DF92EF92FF920F931F93D22EE32E18
:10432000F42E052F162F6F915F914F913F912F9192
:1043300008950E94F31DD02C0E94F31DE02C0E94D2
:10434000F31DF02C0E94F31D002D08950E94F31D13
:10435000202D0E94F31D302D0E94F31D402D0E9440
:10436000F31D502D08950E94B91C88278A938A93C3
:1043700026DF11278D918B32E9F38032D9F3119723
:10438000BBD098F08D3229F4109511968C91B4D051
:1043900060F08E3229F411968C91AED008F446C0AC
:1043A00022960E94B61C81E008958C91A5D0D8F584
:1043B000119646D0D0F703958D919ED0E0F38E32C2
:1043C00029F48C9199D010F41196FBCF853419F013
:1043D000853609F055C011968C918ED060F08D32E3
:1043E00019F08B3221F0DCCF0880009408821196FE
:1043F0008C9182D0A8F68053898311968C917CD0C1
:1044000058F49981990F990F0980900D990F805355
:10441000890F8983873220F68981988199230AF44C
:104420008195080F2DC08E3289F611968C9164D03B
:1044300068F606D018F011960A95F8CF1196C1CFFC
:104440004F2D3E2D2D2DDD0CEE1CFF1CA8F0DD0C9C
:10445000EE1CFF1C88F0D20EE31EF41E68F0DD0C8B
:10446000EE1CFF1C48F0805309F06894D80E882792
:10447000E81EF81E08F00895F42EE32ED22E0895BB
:1044800034D019F116F5098308E921D0069588275B
:1044900087959F2D9F77980FF92E0150000F110FD0
:1044A00007958981882379F01AF48195898306C05C
:1044B0003DDE89818A958983D9F705C047DE8981E8
:1044C0008A958983D9F72296089579DEFCCF0DD09D
:1044D00041F0FF2032F00A9531F0DD0CEE1CFF1C9C
:1044E000D2F7889408950894089500240D280E2882
:1044F0000F28002A00200895803320F08A3310F41A
:104500000894089588940895FF0D613D000000000F
:10451000000000410000803F2A2A2A2A2A2A2A2A4B
:104520002A2A2A2A20524144494F425249444745A7
:10453000202A2A2A2A2A2A2A2A2A2A2A2A003038FB
:104540002D30382D323032342032303A33363A344E
:104550003900302E312E33323300524144494F421C
:1045600052494447455F564F4C2E424153004E75C9
:104570006D6573746163696F6E3D00004164636BC8
:104580002800293D0000436F6E7461646F722064DF
:1045900065207472616E736D6973696F6E657320E7
:1045A0003D0054616E693D00434E54524352434FA7
:1045B0004B3D0000434E54524352434241443D0060
:1045C000566F6C3D0000546F7049324300003D004F
:1045D0005472616D612054582044544D46004D6F13
:1045E000646F2074657374204C6F63616C004D6F51
:1045F000646F20416C65727461204E6172616E6AF5
:1046000061204C6F63616C0041204D6F646F204EE0
:104610006F726D616C206465736465204D6F646FAB
:104620002054657374204C6F63616C0041204D6FA2
:10463000646F204E6F726D616C20646573646520D9
:10464000412E204E6172616E6A61204C6F63616C15
:10465000000043616D62696F20646520537461746A
:1046600075733D004E7565766F2053746174757374
:1046700020526563696269646F20706F72205261B5
:1046800064696F3D0000414443004C454556465720
:10469000000056657273696F6E2046573A20466572
:1046A000636861203C003E2C204172636869766F2C
:1046B000203C00003E005345544C454400005365E7
:1046C00020636F6E666967757261207365746C65CF
:1046D0006420612000004C45454C45440000457372
:1046E0007461646F204C45443D0053455454585008
:1046F0000000536520636F6E66696775726F207482
:1047000069656D706F2064652074782070657269CA
:104710006F6469636173206120002073000053455A
:10472000545454450000536520636F6E6669677585
:10473000726F207469656D706F20646520747820D5
:10474000656E747265206573746163696F6E6573FD
:1047500020612000534554435458000053652063A2
:104760006F6E66696775726F20636F6E7461646FD8
:10477000722074783D004C454554585000005469EF
:10478000656D706F20646520747820706572696F44
:104790006469636173203D004C45455454450000F5
:1047A0005469656D706F20646520747820656E743F
:1047B0007265206573746163696F6E6573203D0077
:1047C0004C45454354580000436F6E7461646F72EA
:1047D0002064652074783D0054535444454C0000D7
:1047E000546573742044656C617920200000494E43
:1047F000490046494E00494E4954585000004E75F4
:1048000065766120747820506572696F64696361B0
:1048100000005345545354410000536520636F6EAC
:1048200066696775726F206E756D65726F2064655D
:10483000206573746163696F6E203D004C4545537C
:10484000544100006E756D65726F2064652065735C
:10485000746163696F6E203D0000525844544D46A8
:10486000000053696D756C6163696F6E206465202B
:10487000525820746F6E6F732044544D4600457338
:104880007461646F5F6C6564313D000045737461F1
:10489000646F5F6C6564323D00005345544144438E
:1048A0000000536520636F6E66696775726F204103
:1048B000444320004C4545414443000056616C6F21
:1048C000726573204144432000002C00534554443A
:1048D00042470000536520686162696C6974612019
:1048E000646973706C617920646562756700445215
:1048F00056415544000052657370756573746120AC
:1049000044525620415544494F3D000053455441BF
:104910004E490000536520636F6E6669677572616A
:104920002054616E693D00004C4545414E490000F0
:104930005345545054520000536520636F6E6669AE
:104940006775726120507472616E693D0000534555
:1049500054434F4B0000536520636F6E6669677563
:10496000726120434E54524352434F4B3D005345D6
:10497000544241440000536520636F6E6669677559
:10498000726120434E54524352434241443D000021
:104990004C454543524300004352434F4B3D0000BA
:1049A000202C204352434241443D00004C454542A7
:1049B00041540000564241543D00202C2056505393
:1049C0003D0052535456415200005265696E69636E
:1049D000696F20612076616C6F72657320706F72F1
:1049E000206465666563746F0000494E4956415204
:1049F0000000496E696369616C697A612076617251
:104A00006961626C657300005345544D4F4400006A
:104A1000536520636F6E66696775726F206D6F6492
:104A20006F204F46463D00004C45454D4F44000029
:104A30004D6F646F204F46463D00534554445350DC
:104A40000000534520636F6E66696775726120735D
:104A5000616C6964612064656C7320646973706C57
:104A600061792061200053455452454C0000726525
:104A70006C653D0046696E2072656C00534554427A
:104A800055470000536520636F6E66696720454E89
:104A9000414255473D004C45454255470000454E73
:104AA000414255473D004C4545564443000056623F
:104AB00061743D002C205670733D00002C2056641C
:104AC00063333D004C454549324300005365206344
:104AD0006F6E66204932430056414C493243000014
:104AE00056616C4932432000544F50493243000014
:104AF000536520636F6E66696720746F70206C6900
:104B00006D2049324300206120004C4545544F50F0
:104B10000000546F70206C696D2049324300544D81
:104B2000504932430000546D704932433D005258A1
:104B3000204E45572044544D4600686578206474E3
:104B40006D6600004352433D000043524363616C75
:104B50003D00435243204F4B3D005472616D612034
:104B600076616C6964610000566F6C756D656E3DB1
:104B70000000436E747274783D005472616D612060
:104B8000484558004D4F444F4F46463D302C00009D
:104B90004D4F444F4F46463D312C00005354415435
:104BA00055532052583D00005472616D61204454A9
:104BB0004D4600005472616D6120414C41524D419F
:104BC00000005472616D61205445535400005472CA
:104BD000616D61204E4F524D414C00004D6F646F2E
:104BE000204F4646206E6F637475726E6F004E4F95
:104BF0002065732054455354206E6920616C6172A6
:104C00006D61202E204E6F20726573706F6E64652B
:104C100000005472616D61204D53472076616C0035
:104C20004D53473D00004D5347206E6F2070617219
:104C3000612065737465206573636C61766F000035
:104C40005472616D61206E6F20696D706C00464119
:104C5000494C204944205472616D61004352432005
:104C60006661696C3D00534552313D005458204106
:104C70004C6572746100244C45454932432C000058
:104C8000436E7472747279693263413D0000464923
:104C90004E20636F6E73756C746120414443000055
:104CA0004142494552544F004345525241444F00FE
:104CB000244452564155442C000053696E207265BD
:104CC0007370756573746120445256415544494F61
:104CD0000000245345544D53472C00004F46463D99
:024CE0000000D2
:00000001FF
