:100000000C94460018950000189500001895000003
:10001000189500000C94D80218950000189500005F
:10002000189500001895000018950000189500001C
:10003000189500001895000018950000189500000C
:100040000C94D401189500000C94B0001895000091
:1000500018950000189500001895000018950000EC
:1000600018950000189500001895000018950000DC
:1000700018950000189500000C9442011895000096
:100080001895000018950000189500008FEF8DBF9F
:10009000C0E8E8E94E2E80E18EBFD0E1FFE05F2EA0
:1000A000A89584B7082E807E84BF88E1992781BDFA
:1000B00091BDEEEFFFE0A0E0B1E088278D9331978E
:1000C000E9F787E689B980E08093900088E18AB9F2
:1000D00080E08093980087E68093990088E1809380
:1000E0009A006624A59AA69AA79A709164007460F3
:1000F00070936400BB9ABC9ABD9ABE9ABF9A8C98C2
:100100008D988E988F981498949A959A969A979A13
:10011000A098A198A298A89AA99AAA9AD49AD59A8E
:10012000D69AD79AA49A87E083BF77B7716077BFD2
:1001300087E083BF579A70919A00706870939A0015
:1001400087E886B980E087B9339A379A79B77061C2
:1001500079BF8AB78C7F81608ABF78940C94241908
:100160000F921F922F923F924F925F927F92AF9287
:10017000BF920F931F932F933F934F935F936F9370
:100180007F938F939F93AF93BF93CF93DF93EF931F
:10019000FF938FB78F938BB78F9388278BBFAEE773
:1001A000B6E08CB18C9384E2482F00917E06041750
:1001B00011F00C94E60070919C02706270939C02A6
:1001C000A5EBB5E088278C930C9423010D3011F03A
:1001D0000C940B01ACE9B2E08C9185FB16F00C9409
:1001E000090170919C027F7D70939C0280E0A5EBD9
:1001F000B5E00E949F1B8D9388278C93E5EBF5E07B
:10020000AFE7B6E00E94B31E70919C0270617093DC
:100210009C020C9423010F3118F011F00C94120180
:100220000C942301ACE9B2E08C9185FB16F00C94A0
:100230002301AEE7B6E08C91A5EBB5E00E949F1BD1
:100240008D9388278C938F918BBF8F918FBFFF9158
:10025000EF91DF91CF91BF91AF919F918F917F915E
:100260006F915F914F913F912F911F910F91BF908F
:10027000AF907F905F904F903F902F901F900F9086
:10028000189508950F921F922F923F924F925F926E
:100290007F92AF92BF920F931F932F933F934F93F1
:1002A0005F936F937F938F939F93AF93BF93CF93FE
:1002B000DF93EF93FF938FB78F938BB78F9388273D
:1002C0008BBFAEE7B6E080919C008C9384E2482F10
:1002D00000917E06041711F00C94790170919C0234
:1002E000706270939C02A5EBB5E088278C930C9408
:1002F000B6010D3011F00C949E01ACE9B2E08C9186
:1003000085FB16F00C949C0170919C027F7D70938C
:100310009C0280E0A5EBB5E00E949F1B8D9388278F
:100320008C93E5EBF5E0AFE7B6E00E94B31E709169
:100330009C02706170939C020C94B6010F3118F00E
:1003400011F00C94A5010C94B601ACE9B2E08C91CB
:1003500085FB16F00C94B601AEE7B6E08C91A5EBE8
:10036000B5E00E949F1B8D9388278C938F918BBF44
:100370008F918FBFFF91EF91DF91CF91BF91AF919F
:100380009F918F917F916F915F914F913F912F91AD
:100390001F910F91BF90AF907F905F904F903F90D3
:1003A0002F901F900F9018950F921F922F923F92AF
:1003B0004F925F927F92AF92BF920F931F932F93B2
:1003C0003F934F935F936F937F938F939F93AF93DD
:1003D000BF93CF93DF93EF93FF938FB78F938BB739
:1003E0008F9388278BBF74E672BFA0E9B2E08C912F
:1003F0008F5F8C93A0E9B2E00C9148E00E94EF1E61
:100400008C9300919002003011F00C943A02A1E913
:10041000B2E00C9140E20E94EF1E8C93EEE3F1E318
:100420000E947E1DA6E9B2E08C919927A2E9B2E074
:100430000E94351D80919102A2E9B2E00E94691DDF
:100440000E945F1D0C900822689409F4E894A2E3CE
:10045000B2E08C9183F98C93A2E3B2E08C9183FBA0
:10046000A5E3B0E08C9185F98C93A1E9B2E08C9181
:100470008F5F8C93A7E9B2E08C918F5F8C93A7E993
:10048000B2E00C9144E60E94EF1E8C93009197021B
:10049000003011F00C946F0270919C0270647093A4
:1004A0009C0270910901706470930901ACE1B2E0A3
:1004B0008C918F5F8C9300911C0240911D020E94D1
:1004C000EF1EACE1B2E08C9300911C02003011F001
:1004D0000C946F0270910901716070930901A2E39D
:1004E000B2E08C9180FB16F00C949102AAE9B2E084
:1004F0000E94581BADE9B2E04D915C91AAE9B2E0CF
:100500000D911C910417150711F00C949102709134
:100510009C02706870939C02709132027E7F70938F
:100520003202A9E0B1E08C9185FB16F00C94BA027E
:10053000A2E1B1E00E94581BA2E1B1E00D911C9133
:1005400044EF51E00E94851BA2E1B1E00D931C93A2
:10055000A2E1B1E00D911C91003050E0150711F0BF
:100560000C94BA0280E080936B02709109017F7D48
:10057000709309018F918BBF8F918FBFFF91EF9186
:10058000DF91CF91BF91AF919F918F917F916F91AB
:100590005F914F913F912F911F910F91BF90AF901D
:1005A0007F905F904F903F902F901F900F901895E5
:1005B0000F921F922F923F924F925F927F92AF9233
:1005C000BF920F931F932F933F934F935F936F931C
:1005D0007F938F939F93AF93BF93CF93DF93EF93CB
:1005E000FF938FB78F938BB78F9388278BBFAEE81E
:1005F000B2E08C918F5F8C930C9B0C940203AF9AAA
:100600000C940303AF980C9B0C944A03AAE6B2E047
:1006100080B38C9394E0AAE6B2E00E94131DABE68F
:10062000B2E08C918F5F8C9380916A02ABE6B2E06E
:10063000AD90BB24ABE6B2E0AA0DBB1D8C93ABE63C
:10064000B2E00C9144E10E94EF1E8C9300916B028A
:10065000013011F00C9431037091090170627093B4
:10066000090100916B02003011F00C943C03709171
:10067000320270627093320200916B020E3018F0F9
:1006800011F00C9445030C944A037091320270628D
:10069000709332028F918BBF8F918FBFFF91EF913B
:1006A000DF91CF91BF91AF919F918F917F916F918A
:1006B0005F914F913F912F911F910F91BF90AF90FC
:1006C0007F905F904F903F902F901F900F901895C4
:1006D000AD98AC98C39AE8E6F3E40E947E1D0E94B0
:1006E000AE1B0E94B51BA0E8BFE0EEE8F3E40E9459
:1006F0007E1D0E94FC1C0E94A61B0E94B51BA0E848
:10070000BFE0E2EAF3E40E947E1D0E94FC1C0E940E
:10071000A61B0E94B51BA0E8BFE0EAEAF3E40E9432
:100720007E1D0E94FC1C0E94A61B0E94B51B81E03E
:100730008093960281E0809329028CE291E0AEE101
:10074000B2E08D939C9381E080932B0281E08093B3
:100750002C02E4E0F0E0A2E2B2E00E94E51EEEEB43
:10076000F3E40E947E1D0E94AE1BE2E2F2E0A0E8EC
:10077000BFE00E94FC1D0E94A61B0E94B51B81E0E9
:100780008093BA020091BA02033018F011F00C9471
:100790001604AAEBB2E0AD90BB24A8EBB2E0AA0C21
:1007A000BB1CAA0CBB1CAA0DBB1DEAEBF2E0A1907E
:1007B000BB24E5E0F0E0AA0CBB1CAA0CBB1CEA0DB4
:1007C000FB1D94E00E94E81EECECF3E40E947E1D09
:1007D0000E94AE1BEAEBF2E0A0E8BFE00E94FC1D25
:1007E0000E94A61BE2EDF3E40E947E1D0E94AE1B58
:1007F000EAEBF2E0A190BB24E8EBF2E0AA0CBB1C10
:10080000AA0CBB1CEA0DFB1DA0E8BFE00E94721FF2
:100810000E94F31B0E94A61B0E94B51BAAEBB2E02C
:100820008C918F5F8C9310F40C94C203A3E2B2E01E
:10083000E5E0F0E094E00E94E81EE6EDF3E40E94BB
:100840007E1D0E94AE1BE3E2F2E0A0E8BFE00E9442
:10085000721F0E94F31B0E94A61B0E94B51B709181
:1008600009017F77709309018AE080931D02E2EF0E
:10087000F3E40E947E1D0E94AE1BEDE1F2E0A0E8D1
:10088000BFE00E94FC1D0E94A61B0E94B51BE5E173
:10089000F0E0A0EEB2E00E94E71EE8EFF3E40E9471
:1008A0007E1D0E94AE1BE0EEF2E0A0E8BFE00E94D9
:1008B000EC1D0E94A61B0E94B51BE7E1F0E0A2EE32
:1008C000B2E00E94E71EE4E0F4E40E947E1D0E9474
:1008D000AE1BE2EEF2E0A0E8BFE00E94EC1D0E9439
:1008E000A61B0E94B51B84E180933302E0E1F4E48F
:1008F0000E947E1D0E94AE1BE3E3F2E0A0E8BFE091
:100900000E94FC1D0E94A61B0E94B51B81E08093E3
:10091000000100910001043018F011F00C94CE0495
:10092000E0E0F1E0A190BB24E8E1F0E0EA0DFB1D7E
:10093000A0E0B1E0AD90BB24A3EEB2E0AA0DBB1DD8
:100940000E94E51EE6E1F4E40E947E1D0E94AE1BBB
:10095000E0E0F1E0A0E8BFE00E94FC1D0E94A61BC1
:10096000EEE1F4E40E947E1D0E94AE1BE0E0F1E0A7
:10097000A190BB24E3EEF2E0EA0DFB1DA0E8BFE08E
:100980000E94FC1D0E94A61B0E94B51BA0E0B1E0C6
:100990008C918F5F8C9310F40C9489040895E8E592
:1009A000F3E40E947E1D0E94C120E9E0F0E0ADE08A
:1009B000BB2794E07BE70E94D71EE8E5F3E40E94A2
:1009C0007E1D0E94C120EDE0F0E0ADE0BB2794E089
:1009D0007BE70E94D71EE8E5F3E40E947E1D0E949B
:1009E000C120E1E1F0E0ADE0BB2794E07BE70E94AD
:1009F000D71EE4E0F0E0A0E1BB278EE08C937BE71C
:100A00000E94D41EECE5F3E40E947E1D0E94C120EA
:100A1000E5E0F0E0ADE0BB2794E07BE70E94D71E65
:100A2000E5E1F0E000E010E0A0E1BB277BE70E94F9
:100A3000D61EE7E1F0E000E010E0A0E1BB277BE795
:100A40000E94D61EE9E1F0E0A0E1BB2780E88C938C
:100A50007BE70E94D41EEAE1F0E0A0E1BB2780E83A
:100A60008C937BE70E94D41EEBE1F0E0A0E1BB2772
:100A700080E88C937BE70E94D41EECE1F0E0A0E1DB
:100A8000BB2780E88C937BE70E94D41E0895A88141
:100A9000B9818D919C91ADE9B2E08D939C9380E0FA
:100AA00090E0AAE9B2E08D939C9370919C027F77CD
:100AB00070939C0270913202716070933202ACE9C3
:100AC000B2E08C9187FB16F40C946905A8950C9400
:100AD0005F05089581E080930001009100010430DA
:100AE00018F011F00C94B1050091000141E0041BD5
:100AF000A2E0B1E00C93A0E0B1E0AD90BB24A3EE86
:100B0000B2E0AA0DBB1D4C91A0E0B1E0AD90BB24BA
:100B1000A5E3B2E0AA0DBB1D0C91041710F00C94D4
:100B20009E0580910201A8EEB2E00E94691D0E941C
:100B30005F1D8C9189238C930C94A90580910201EF
:100B4000A8EEB2E00E94691D0E945F1D9C91982B47
:100B50009C93A0E0B1E08C918F5F8C9310F40C9487
:100B60006D05D201E8EEF2E00E94891ED2010E94DA
:100B7000A81B0E94B51B0895E0E2F4E40E947E1DCC
:100B80000E94AE1B0E94B51BA2E2B2E08C9180FBDA
:100B9000AAE3B2E08C9180F98C93A2E2B2E08C914E
:100BA00081FBAAE3B2E08C9181F98C93A2E2B2E0DE
:100BB0008C9182FBAAE3B2E08C9182F98C93A2E241
:100BC000B2E08C9183FBAAE3B2E08C9183F98C9321
:100BD000A9E2B2E08C9180FBAAE3B2E08C9184F9A7
:100BE0008C93A9E2B2E08C9181FBAAE3B2E08C91F4
:100BF00085F98C93A9E2B2E08C9182FBAAE3B2E082
:100C00008C9186F98C93A9E2B2E08C9183FBAAE3E4
:100C1000B2E08C9187F98C93E3E2F2E0A5E0B1E0D9
:100C20000E94B81E8091050180933B0280910601CD
:100C300080933C028091070180933D0280910801DE
:100C400080933E02ACE2B2E08C9180FBAFE3B2E075
:100C50008C9180F98C93ACE2B2E08C9181FBAFE394
:100C6000B2E08C9181F98C93ACE2B2E08C9182FB82
:100C7000AFE3B2E08C9182F98C93ACE2B2E08C915C
:100C800083FBAFE3B2E08C9183F98C930E946A05F9
:100C9000A8EEB2E08C9180FBAFE3B2E08C9184F9D6
:100CA0008C93A8EEB2E08C9181FBAFE3B2E08C9123
:100CB00085F98C93A8EEB2E08C9182FBAFE3B2E0B1
:100CC0008C9186F98C93A8EEB2E08C9183FBAFE314
:100CD000B2E08C9187F98C938091D402809340028A
:100CE0008091D502809341028091D6028093420286
:100CF0008091D702809343028091D802809344026E
:100D00008091D902809345028091DA028093460255
:100D10008091DB0280934702EAE3F2E08EE00E94DA
:100D2000191FA0E0B1E00C9380910001809348026C
:100D30008091220280934A028091290280934B0283
:100D400083E08093040181E0809300010091000121
:100D50000E3018F011F00C94EE060091000141E005
:100D6000040FA2E0B1E00C93A2E0B1E0AD90BB248F
:100D7000A9E3B2E0AA0DBB1D8C9180930301009101
:100D800003014FE00423A4E0B1E0AD90BB24A9E44B
:100D9000B2E0AA0DBB1D0C93A4E0B1E08C918F5F73
:100DA0008C9394E0A3E0B1E00E94131D80910301B5
:100DB000A4E0B1E0AD90BB24A9E4B2E0AA0DBB1D54
:100DC0008C93A4E0B1E08C918F5F8C93A0E0B1E0B4
:100DD0008C918F5F8C9310F40C94A60608957091FB
:100DE000650074607093650084E690E0D2018D9395
:100DF0009C9382E00E94EC1C0E944705229682E0B0
:100E00000E94E81C81E080930A0100910A010E31E2
:100E100018F011F00C947007AAE0B1E0AD90BB247B
:100E2000A9E4B2E0AA0DBB1D8C9180FBA8E3B0E061
:100E30008C9184F98C93AAE0B1E0AD90BB24A9E435
:100E4000B2E0AA0DBB1D8C9181FBA8E3B0E08C91B0
:100E500085F98C93AAE0B1E0AD90BB24A9E4B2E09F
:100E6000AA0DBB1D8C9182FBA8E3B0E08C9186F9A2
:100E70008C93AAE0B1E0AD90BB24A9E4B2E0AA0D46
:100E8000BB1D8C9183FBA8E3B0E08C9187F98C9318
:100E9000AE9AC39888E090E0D2018D939C9382E053
:100EA0000E94EC1C0E944705229682E00E94E81CEA
:100EB000C39AAE9884E090E0D2018D939C9382E037
:100EC0000E94EC1C0E944705229682E00E94E81CCA
:100ED000AAE0B1E08C918F5F8C9310F40C9405071D
:100EE000709165007B7F7093650008950C9B0C9456
:100EF000E707AAE6B2E080B38C9394E0AAE6B2E0FA
:100F00000E94131DEEE2F4E40E947E1D0E94AE1BBF
:100F1000EAE6F2E0A0E8BFE00E94701E0E94A61B75
:100F20000E94B51BABE6B2E08C918F5F8C938091F1
:100F30006A02ABE6B2E0AD90BB24ABE6B2E0AA0D2C
:100F4000BB1D8C93ABE6B2E00C914CE00E94EF1E0F
:100F50008C9300916B02003011F00C94E707E2E3F0
:100F6000F4E40E947E1D0E94AE1B0E94B51B81E02E
:100F700080930A0100910A010C3018F011F00C94D2
:100F8000E707EAE0F1E0A0E8BFE00E94FC1D0E9454
:100F9000A61BE6E3F4E40E947E1D0E94AE1BEAE07D
:100FA000F1E0A190BB24EBE6F2E0EA0DFB1DA0E826
:100FB000BFE00E94701E0E94A61B0E94B51BAAE003
:100FC000B1E08C918F5F8C9310F40C94BA07089564
:100FD00000912B02013011F00C94180980E08093ED
:100FE0008F02A3E3B0E08C9180FBAFE8B2E08C917C
:100FF00080F98C93A3E3B0E08C9181FBAFE8B2E081
:101000008C9181F98C9300912902013011F00C949C
:101010006A08A2E3B2E08C9187FB16F40C941508E1
:1010200081E0809396020C9418088BE080939602DE
:1010300000918F02023011F00C943708E8E3F4E4D9
:101040000E947E1D0E94AE1B0E94B51B82E0809311
:101050002902709109017F777093090182E08093E2
:1010600096028EE190E0AEE1B2E08D939C93009108
:101070008F02003081E009F080E08F9300918F02B1
:10108000013081E009F080E09F91892B882311F4E1
:101090000C946808E8E4F4E40E947E1D0E94AE1BF4
:1010A0000E94B51B83E08093290283E0809396021F
:1010B000709109017F77709309017091320270611C
:1010C000709332028EE190E0AEE1B2E08D939C939A
:1010D0000C94C608023011F00C94990800918F020C
:1010E000033011F00C949708E2E6F4E40E947E1DB0
:1010F0000E94AE1B0E94B51B81E08093290281E013
:1011000080939602709109017F77709309018CE3B7
:1011100090E0AEE1B2E08D939C93A2E3B2E08C91BB
:1011200087FB16F00C9497088BE0809396020C9442
:10113000C608033011F00C94C60800918F020330EA
:1011400011F00C94C608E6E8F4E40E947E1D0E94AB
:10115000AE1B0E94B51B81E08093290281E0809341
:101160009602709109017F77709309018CE390E0FA
:10117000AEE1B2E08D939C93A2E3B2E08C9187FB49
:1011800016F00C94C6088BE08093960240912A02D8
:1011900000912902041711F40C94160970910901A9
:1011A0007F777093090170913202706470933202FC
:1011B0008091290280932A02ECEAF4E40E947E1DC9
:1011C0000E94AE1BE9E2F2E0A0E8BFE00E94FC1D35
:1011D0000E94A61B0E94B51B00912902013011F04C
:1011E0000C94FA088CE390E0AEE1B2E08D939C930E
:1011F0000C941009023011F00C9406098EE190E075
:10120000AEE1B2E08D939C930C941009033011F081
:101210000C9410098EE190E0AEE1B2E08D939C93C6
:1012200080E090E0AFE2B2E08D939C930C9487094C
:1012300080912B028093290280912902809396024B
:1012400000912902013081E009F080E08F93A2E350
:10125000B2E08C9187FB81E00EF080E09F918923C2
:10126000882311F40C9437098BE080939602409107
:101270002A0200912902041711F40C948709709135
:1012800009017F77709309018091290280932A02D6
:10129000EEEBF4E40E947E1D0E94AE1BE9E2F2E058
:1012A000A0E8BFE00E94FC1D0E94A61B0E94B51B87
:1012B0007091320270647093320200912902013001
:1012C00011F00C946B0988E592E0AEE1B2E08D93E9
:1012D0009C930C948109023011F00C9477098EE1F3
:1012E00090E0AEE1B2E08D939C930C9481090330C1
:1012F00011F00C9481098EE190E0AEE1B2E08D93A3
:101300009C9380E090E0AFE2B2E08D939C930091DB
:101310002902013011F00C948E09AC980091290239
:10132000023011F00C949509AC9A00912902033017
:1013300011F00C949C09AC9A00912902003011F034
:101340000C94A309AC9800912902033018F011F015
:101350000C94AC090C94AD09AC980895A881B9819E
:101360008C9180FBABE3B0E08C9184F98C93A881E5
:10137000B9818C9181FBABE3B0E08C9185F98C93C2
:10138000A881B9818C9182FBABE3B0E08C9186F9A6
:101390008C93A881B9818C9183FBABE3B0E08C91F5
:1013A00087F98C93089581E08093BA020091BA0284
:1013B000033018F011F00C94290AE2E8F1E30E94DE
:1013C0007E1DAAEBB2E08C919927ABEBB2E00E94B4
:1013D000311D07B1007E8091BB0290E0890F082784
:1013E00007B90E94021DA8EBB2E08D939C93E8EB35
:1013F000F2E0D190E080FF2400270E94A61F0E9407
:101400007C1FEAEBF2E0A190BB24EBE9F2E0AA0C2E
:10141000BB1CAA0CBB1CEA0DFB1D0E94721F0E9484
:101420007320EDE0F0E0AAEBB2E0AD90BB24ABE9B5
:10143000B2E0AA0CBB1CAA0CBB1CAA0DBB1D0E94CF
:10144000B81EAAEBB2E08C918F5F8C9310F40C94D1
:10145000D609ABEAB2E08C918F5F8C93ABEAB2E035
:101460000C9148E00E94EF1E8C930091AB0200307B
:1014700011F00C94030B81E08093BA020091BA0240
:10148000033018F011F00C94F10AE0E6F3E40E9446
:101490007E1D0E94CE20EAEBF2E0A190BB24EBE996
:1014A000F2E0AA0CBB1CAA0CBB1CEA0DFB1D0E949F
:1014B000721F0E94D31FEDE0F0E0AAEBB2E0AD9006
:1014C000BB24A8EAB2E0AA0CBB1CAA0CBB1CAA0D48
:1014D000BB1D0E94B81EAAEBB2E0AD90BB24ABE9E5
:1014E000B2E0AA0CBB1CAA0CBB1CAA0DBB1DECE5F0
:1014F000F3E40E947E1D0E94291DEAEBF2E0A19018
:10150000BB24E8EBF2E0AA0CBB1CAA0CBB1CEA0D46
:10151000FB1D0E94771FEAEBF2E0A190BB24E8EAF2
:10152000F2E0AA0CBB1CAA0CBB1CEA0DFB1D0E941E
:10153000721F0E942C20EDE0F0E0AAEBB2E0AD902B
:10154000BB24A4ECB2E0AA0CBB1CAA0CBB1CAA0DC9
:10155000BB1D0E94B81E00911101013011F00C94C6
:10156000E90AE0EEF4E40E947E1D0E94AE1BEAEB65
:10157000F2E0A0E8BFE00E94FC1D0E94A61BEEE185
:10158000F4E40E947E1D0E94AE1BA0E8BFE0AF9372
:10159000BF93EAEBF2E0A190BB24E4ECF2E0AA0CEA
:1015A000BB1CAA0CBB1CEA0DFB1D0E94721F0E94F3
:1015B000F31B11E001E0BF91AF910E94911DE0E8A3
:1015C000FFE0A0E8BFE00E94B31E0E94A61B0E949D
:1015D000B51BAAEBB2E08C918F5F8C9310F40C9446
:1015E0003E0AE8ECF2E0A4EDB2E00E94B81EECEC9A
:1015F000F2E0A8EDB2E00E94B81EE0EDF2E0ACED42
:10160000B2E00E94B81E0895AFE7B6E00E94A81BA2
:101610000E94B51B81E0EFE7F6E006E00A93A5EE35
:10162000B1E00E94BE1EEFE7F6E09CE204E132E288
:10163000ABEEB2E00E943D1FAAEEB2E02C93ABEEFF
:10164000B2E00E94FF1E082F063011F00C940A151C
:10165000EBEEF2E0A4E1B1E00E94B31EE4E1F1E0C0
:10166000A4E1B1E00E94531D8FEF8093E401A4E157
:10167000B1E0E4EEF4E40E947E1D0E94051F11F02B
:101680000C94830B80E08093E401ABE1B1E0ECEEDD
:10169000F4E40E947E1D0E94FC1CA5EEB1E0EEE881
:1016A000F3E40E947E1D0E94FC1CE5EEF1E0ABE13C
:1016B000B1E00E949F1B0E94B31EABE1B1E00E940B
:1016C0009F1BE0E0F5E40E947E1D0E94FC1CA5EE3D
:1016D000B1E0EAEAF3E40E947E1D0E94FC1CE5EE04
:1016E000F1E0ABE1B1E00E949F1B0E94B31EABE1B1
:1016F000B1E00E949F1BEEE0F5E40E947E1D0E9477
:10170000FC1C0C940815E0E1F5E40E947E1D0E948B
:10171000051F11F00C94C20B0091EA02023011F087
:101720000C94BD0BA0E0B3E00E94411EA0E0B1E02C
:101730000C9300910001013110F00C94B80B80E083
:101740008093E401ABE1B1E0E8E1F5E40E947E1DA5
:101750000E94FC1CE0E0F1E0ABE1B1E00E949F1BC5
:101760000E94FC1D80910001809396020C94BB0B9B
:1017700085E08093E4010C94C00B84E08093E40145
:101780000C940815E0E3F5E40E947E1D0E94051FFD
:1017900011F00C94E00B80E08093E401ABE1B1E048
:1017A000E8E3F5E40E947E1D0E94FC1CE6E9F2E0FD
:1017B000ABE1B1E00E949F1B0E94FC1D0C94081538
:1017C000E4E4F5E40E947E1D0E94051F11F00C94D4
:1017D0002A0C0091EA02023011F00C94250C80E0F2
:1017E0008093E401A0E0B3E00E94411EACE0B1E0D0
:1017F0000D931C93ACE0B1E08D919C91A0E2B2E01E
:101800008D939C93E2E0F0E0ACE0B1E07BE70E94D6
:10181000D61EABE1B1E0ECE4F5E40E947E1D0E942F
:10182000FC1CE0E2F2E0ABE1B1E00E949F1B0E94F1
:10183000EC1DABE1B1E00E949F1BE4E7F5E40E94E0
:101840007E1D0E94FC1C0C94280C84E08093E40113
:101850000C940815E8E7F5E40E947E1D0E94051F20
:1018600011F00C94740C0091EA02023011F00C9407
:101870006F0C80E08093E401A0E0B3E00E94411E81
:10188000ACE0B1E00D931C93ACE0B1E08D919C9184
:10189000AAE1B2E08D939C93E0E0F0E0ACE0B1E02F
:1018A0007BE70E94D61EABE1B1E0E0E8F5E40E94E0
:1018B0007E1D0E94FC1CEAE1F2E0ABE1B1E00E9477
:1018C0009F1B0E94EC1DABE1B1E00E949F1BE4E76F
:1018D000F5E40E947E1D0E94FC1C0C94720C84E0B6
:1018E0008093E4010C940815EEEAF5E40E947E1D55
:1018F0000E94051F11F00C94B70C0091EA0202300F
:1019000011F00C94B20C80E08093E401A0E0B3E00D
:101910000E94DB20EDE0F0E0A5E0B1E00E94B81EFF
:10192000E5E0F1E0A3E2B2E00E94B81EE5E0F0E0FD
:10193000A5E0B1E094E07BE70E94D71EABE1B1E007
:10194000E6EBF5E40E947E1D0E94FC1CE3E2F2E05F
:10195000ABE1B1E00E949F1B0E94721F0E94F31B2B
:101960000C94B50C84E08093E4010C940815E0ED30
:10197000F5E40E947E1D0E94051F11F00C94DF0CFF
:1019800080E08093E401ABE1B1E0E8EDF5E40E9492
:101990007E1D0E94FC1CE0E2F2E0ABE1B1E00E949F
:1019A0009F1B0E94EC1DABE1B1E00E949F1BE4E78E
:1019B000F5E40E947E1D0E94FC1C0C940815E2EFC9
:1019C000F5E40E947E1D0E94051F11F00C94070D86
:1019D00080E08093E401ABE1B1E0EAEFF5E40E943E
:1019E0007E1D0E94FC1CEAE1F2E0ABE1B1E00E9446
:1019F0009F1B0E94EC1DABE1B1E00E949F1BE4E73E
:101A0000F5E40E947E1D0E94FC1C0C940815EAE17E
:101A1000F6E40E947E1D0E94051F11F00C94270D14
:101A200080E08093E401ABE1B1E0E2E2F6E40E9401
:101A30007E1D0E94FC1CE3E2F2E0ABE1B1E00E94FB
:101A40009F1B0E94721F0E94F31B0C940815E2E377
:101A5000F6E40E947E1D0E94051F11F00C94780D83
:101A60000091EA02023011F00C94730D80E0809333
:101A7000E401A0E0B3E00E94411EACE0B1E00D93B0
:101A80001C93ABE1B1E0EAE3F6E40E947E1D0E9404
:101A9000FC1CECE0F1E0ABE1B1E00E949F1B0E9476
:101AA000EC1DE8E4F6E40E947E1D0E94AE1B0E943D
:101AB000B51BACE0B1E08D919C91D2018D939C93CC
:101AC00082E00E94EC1C0E944705229682E00E9460
:101AD000E81CECE4F6E40E947E1D0E94AE1B0E940E
:101AE000B51B0C94760D84E08093E4010C940815EA
:101AF000E0E5F6E40E947E1D0E94051F11F00C94A3
:101B0000930D80E08093E4017091320272607093D3
:101B10003202ABE1B1E0E8E5F6E40E947E1D0E94EE
:101B2000FC1C0C940815ECE6F6E40E947E1D0E9455
:101B3000051F11F00C94CA0D0091EA02023011F059
:101B40000C94C50D80E08093E401A0E0B3E00E9416
:101B5000411EA2E2B2E00C93E4E0F0E0A2E2B2E0C7
:101B60007BE70E94D41EABE1B1E0E4E7F6E40E941B
:101B70007E1D0E94FC1CE2E2F2E0ABE1B1E00E94BB
:101B80009F1B0E94FC1D0C94C80D84E08093E4010F
:101B90000C940815E6E9F6E40E947E1D0E94051FDC
:101BA00011F00C94E80D80E08093E401ABE1B1E02A
:101BB000EEE9F6E40E947E1D0E94FC1CE2E2F2E0E7
:101BC000ABE1B1E00E949F1B0E94FC1D0C94081524
:101BD000E4EBF6E40E947E1D0E94051F11F00C94B8
:101BE000640E0091EA02053111F00C945F0E80E062
:101BF0008093E401ABE1B1E0ECEBF6E40E947E1DE2
:101C00000E94FC1CE8EDF6E40E947E1D0E94AE1BC3
:101C1000E6E9F2E0A0E8BFE00E94FC1D0E94A61BDE
:101C20000E94B51B80E08093000182E080930A014E
:101C300000910A01053118F011F00C94480EA0E053
:101C4000B1E08C918F5F8C93AAE0B1E00D911127E8
:101C500045E150E00E94F21CA6EDB2E0A00FB11FDA
:101C60000E94991EA2E0B1E00C9380910201A0E0D5
:101C7000B1E0AD90BB24ABE6B2E0AA0DBB1D8C93E6
:101C8000AAE0B1E08C918F5F8C9310F40C94180E45
:101C900070913202706270933202E6EEF6E40E94B6
:101CA0007E1D0E94AE1BE6E9F2E0A0E8BFE00E94C4
:101CB000FC1D0E94A61B0E94B51B0C94620E84E0C2
:101CC0008093E4010C940815E4EFF6E40E947E1D75
:101CD0000E94051F11F00C94EA0E0091EA020330F5
:101CE00011F00C94E50EA0E0B3E00E94411EA0E0CC
:101CF000B1E00C9300910001033018F011F00C9446
:101D0000E00E80E08093E401A5E1B3E00E94DB20D7
:101D1000EDE0F0E0A5E0B1E00E94B81EE5E0F1E002
:101D2000A0E0B1E0AD90BB24A8EBB2E0AA0CBB1CD4
:101D3000AA0CBB1CAA0DBB1D0E94B81EE0E0F1E07E
:101D4000A190BB24E5E0F0E0AA0CBB1CAA0CBB1CD4
:101D5000EA0DFB1DA5E0B1E094E07BE70E94D71EF1
:101D6000ABE1B1E0ECEFF6E40E947E1D0E94FC1CAA
:101D7000E0E0F1E0ABE1B1E00E949F1B0E94FC1D9E
:101D8000ABE1B1E00E949F1BEEE1F4E40E947E1DF6
:101D90000E94FC1CE0E0F1E0A190BB24E8EBF2E043
:101DA000AA0CBB1CAA0CBB1CEA0DFB1DABE1B1E0ED
:101DB0000E949F1B0E94721F0E94F31B0C94E30E53
:101DC00085E08093E4010C94E80E84E08093E401C4
:101DD0000C940815EEE0F7E40E947E1D0E94051F9A
:101DE00011F00C94420F80E08093E401ABE1B1E08C
:101DF000E6E1F7E40E947E1D0E94FC1C81E08093D6
:101E00000B0100910B01033018F011F00C94400FFE
:101E1000EBE0F1E0ABE1B1E00E949F1B0E94FC1DF2
:101E2000ABE1B1E00E949F1BEEE1F4E40E947E1D55
:101E30000E94FC1CEBE0F1E0A190BB24E8EBF2E097
:101E4000AA0CBB1CAA0CBB1CEA0DFB1DABE1B1E04C
:101E50000E949F1B0E94721F0E94F31BABE1B1E026
:101E60000E949F1BE6E3F4E40E947E1D0E94FC1C7E
:101E7000ABE0B1E08C918F5F8C9310F40C94010F68
:101E80000C940815E4E2F7E40E947E1D0E94051FF1
:101E900011F00C945B0F80E08093E401ABE1B1E0C2
:101EA000ECE2F7E40E947E1D0E94FC1C81E080931E
:101EB00011010C940815E6E4F7E40E947E1D0E94CF
:101EC000051F11F00C94BF0F0091EA02023011F0CF
:101ED0000C94870F80E08093E401ABE1B1E0EEE485
:101EE000F7E40E947E1D0E94FC1CE0E0F3E0ABE101
:101EF000B1E00E949F1B0E94B31E7091090170689F
:101F00007093090180E080932C020C94BD0F033084
:101F100011F00C94BA0F80E08093E401ABE1B1E0E2
:101F2000EEE4F7E40E947E1D0E94FC1CE0E0F3E07A
:101F3000ABE1B1E00E949F1B0E94B31EABE1B1E098
:101F40000E949F1BE6E3F4E40E947E1D0E94FC1C9D
:101F5000E5E1F3E0ABE1B1E00E949F1B0E94B31EFC
:101F60007091090170687093090180E080932C02E0
:101F70000C94BD0F84E08093E4010C940815E4E612
:101F8000F7E40E947E1D0E94051F11F00C94EF0FD4
:101F90000091EA02023011F00C94EA0F80E0809385
:101FA000E401A0E0B3E00E94411EADE1B2E00C9379
:101FB000ABE1B1E0ECE6F7E40E947E1D0E94FC1C60
:101FC000EDE1F2E0ABE1B1E00E949F1B0E94FC1D3D
:101FD0000C94ED0F84E08093E4010C940815E0E884
:101FE000F7E40E947E1D0E94051F11F00C940D1055
:101FF00080E08093E401ABE1B1E0E2EFF3E40E9422
:102000007E1D0E94FC1CEDE1F2E0ABE1B1E00E941C
:102010009F1B0E94FC1D0C940815E8E8F7E40E9441
:102020007E1D0E94051F11F00C943E100091EA02E3
:10203000023011F00C94391080E08093E401A0E0AC
:10204000B3E00E94411EAFE2B2E00D931C93ABE1FE
:10205000B1E0E0E9F7E40E947E1D0E94FC1CEFE283
:10206000F2E0ABE1B1E00E949F1B0E94EC1D0C94DA
:102070003C1084E08093E4010C940815E6EAF7E450
:102080000E947E1D0E94051F11F00C947610009195
:10209000EA02023011F00C94711080E08093E401A8
:1020A000A0E0B3E00E94411EA0EEB2E00D931C93AD
:1020B000E5E1F0E0A0EEB2E07BE70E94D61EABE1E6
:1020C000B1E0EEEAF7E40E947E1D0E94FC1CE0EE07
:1020D000F2E0ABE1B1E00E949F1B0E94EC1D0C946A
:1020E000741084E08093E4010C940815E6ECF7E4A6
:1020F0000E947E1D0E94051F11F00C94AE100091ED
:10210000EA02023011F00C94A91080E08093E401FF
:10211000A0E0B3E00E94411EA2EEB2E00D931C933A
:10212000E7E1F0E0A2EEB2E07BE70E94D61EABE171
:10213000B1E0EEECF7E40E947E1D0E94FC1CE2EE92
:10214000F2E0ABE1B1E00E949F1B0E94EC1D0C94F9
:10215000AC1084E08093E4010C940815E8EEF7E4F9
:102160000E947E1D0E94051F11F00C94DE1080E07D
:102170008093E401ABE1B1E0E0EFF7E40E947E1D63
:102180000E94FC1CE0EEF2E0ABE1B1E00E949F1B7C
:102190000E94EC1DABE1B1E00E949F1BE8EFF7E469
:1021A0000E947E1D0E94FC1CE2EEF2E0ABE1B1E079
:1021B0000E949F1B0E94EC1D0C940815E4E0F8E4BB
:1021C0000E947E1D0E94051F11F00C942E1180E0CC
:1021D0008093E401ABE1B1E0ECE0F8E40E947E1D05
:1021E0000E94FC1CA0E8BFE0AF93BF93E4EDF2E0D7
:1021F0000E94721F0E94F31B11E002E0BF91AF9199
:102200000E94911DE0E8FFE0ABE1B1E00E949F1B5E
:102210000E94B31EABE1B1E00E949F1BE2E1F8E433
:102220000E947E1D0E94FC1CA0E8BFE0AF93BF93FC
:10223000E8EDF2E00E94721F0E94F31B11E002E041
:10224000BF91AF910E94911DE0E8FFE0ABE1B1E0EA
:102250000E949F1B0E94B31E0C940815EAE1F8E44B
:102260000E947E1D0E94051F11F00C944B1180E00E
:102270008093E4010E94CF04ABE1B1E0E2E2F8E434
:102280000E947E1D0E94FC1C709109017860709371
:1022900009010C940815E2E4F8E40E947E1D0E94F6
:1022A000051F11F00C94661180E08093E401709199
:1022B0000901786070930901ABE1B1E0EAE4F8E468
:1022C0000E947E1D0E94FC1C0C940815E0E6F8E4B8
:1022D0000E947E1D0E94051F11F00C94CD110091EB
:1022E000EA02023011F00C94C811A0E0B3E00E94A1
:1022F000411EA0E0B1E00C9300910001023010F00B
:102300000C94C31180E08093E4010091000101303E
:1023100011F00C94A7117091320270687093320220
:10232000ABE1B1E0E8E6F8E40E947E1D0E94FC1CEF
:10233000A2E3B2E08C9187FBABE1B1E00E949F1B6E
:102340000E946F1D8D9388278C930C94C1117091FE
:1023500032027F7770933202ABE1B1E0E8E6F8E455
:102360000E947E1D0E94FC1CA2E3B2E08C9187FBC0
:10237000ABE1B1E00E949F1B0E946F1D8D938827E7
:102380008C930C94C61185E08093E4010C94CB11DE
:1023900084E08093E4010C940815E0E8F8E40E94DE
:1023A0007E1D0E94051F11F00C94F01180E08093B7
:1023B000E401ABE1B1E0E8E8F8E40E947E1D0E9490
:1023C000FC1CA2E3B2E08C9187FBABE1B1E00E9480
:1023D0009F1B0E946F1D8D9388278C930C9408156A
:1023E000E2E9F8E40E947E1D0E94051F11F00C94A2
:1023F0002D120091EA02023011F00C942812A0E094
:10240000B3E00E94411EA0E0B1E00C938091000176
:10241000D2018C9381E00E94EC1C0E94AE092296AE
:1024200081E00E94E81CABE1B1E0EAE9F8E40E9437
:102430007E1D0E94FC1CE0E0F1E0ABE1B1E00E94F7
:102440009F1B0E94FC1D80E08093E4010C942B12E2
:1024500084E08093E4010C940815EEEBF8E40E940C
:102460007E1D0E94051F11F00C947E120091EA025D
:10247000023011F00C94791280E08093E401A0E026
:10248000B3E00E94411EA0E0B1E00C930091000176
:10249000023010F00C94741200910001013011F020
:1024A0000C945512AC9A0C945612AC98ABE1B1E076
:1024B000E6ECF8E40E947E1D0E94FC1CE0E0F1E0E6
:1024C000ABE1B1E00E949F1B0E94FC1DE3E0F0E045
:1024D0000E94D51BECECF8E40E947E1D0E94AE1B0E
:1024E0000E94B51B0C94771285E08093E4010C9454
:1024F0007C1284E08093E4010C940815E4EDF8E488
:102500000E947E1D0E94051F11F00C94AE120091D6
:10251000EA02023011F00C94A91280E08093E401E9
:10252000A0E0B3E00E94411EA0E1B1E00C93ABE15A
:10253000B1E0ECEDF8E40E947E1D0E94FC1CE0E19D
:10254000F1E0ABE1B1E00E949F1B0E94FC1D0C94E6
:10255000AC1284E08093E4010C940815EEEEF8E4EC
:102560000E947E1D0E94051F11F00C94CC1280E089
:102570008093E401ABE1B1E0E6EFF8E40E947E1D58
:102580000E94FC1CE0E1F1E0ABE1B1E00E949F1B86
:102590000E94FC1D0C940815EEEFF8E40E947E1DCD
:1025A0000E94051F11F00C943E1380E08093E4011B
:1025B000ABE1B1E0E6E0F9E40E947E1D0E94FC1C64
:1025C000A0E8BFE0AF93BF93E4EDF2E00E94721F7A
:1025D0000E94F31B11E001E0BF91AF910E94911D99
:1025E000E0E8FFE0ABE1B1E00E949F1B0E94B31E58
:1025F000ABE1B1E00E949F1BECE0F9E40E947E1D7C
:102600000E94FC1CA0E8BFE0AF93BF93E8EDF2E0AE
:102610000E94721F0E94F31B11E001E0BF91AF9175
:102620000E94911DE0E8FFE0ABE1B1E00E949F1B3A
:102630000E94B31EABE1B1E00E949F1BE4E1F9E40C
:102640000E947E1D0E94FC1CA0E8BFE0AF93BF93D8
:10265000ECEDF2E00E94721F0E94F31B11E001E01A
:10266000BF91AF910E94911DE0E8FFE0ABE1B1E0C6
:102670000E949F1B0E94B31E0C940815ECE1F9E424
:102680000E947E1D0E94051F11F00C94AB13009157
:10269000EA02033011F00C94A613A0E0B3E00E940C
:1026A000411EA0E0B1E00C9300910001003080E0F9
:1026B00010F009F081E08F9300910001053081E076
:1026C00008F080E09F918923882311F40C94A113D2
:1026D000A5E1B3E00E94411EA2E0B1E00C9380911D
:1026E0000201A0E0B1E0AD90BB24A5E3B2E0AA0DE9
:1026F000BB1D8C93ABE1B1E0E4E2F9E40E947E1DE6
:102700000E94FC1CE0E0F1E0ABE1B1E00E949F1B05
:102710000E94FC1DABE1B1E00E949F1BEEE1F4E4DE
:102720000E947E1D0E94FC1CE2E0F1E0ABE1B1E002
:102730000E949F1B0E94FC1D80E08093E4010C948A
:10274000A41385E08093E4010C94A91384E08093A2
:10275000E4010C940815E0E3F9E40E947E1D0E9458
:10276000051F11F00C940C140091EA02023011F0D4
:102770000C940714A0E0B3E00E94411EA0E0B1E079
:102780000C9300910001003080E010F009F081E02E
:102790008F9300910001053081E008F080E09F9167
:1027A0008923882311F40C94021480E08093E401BF
:1027B000ABE1B1E0E8E3F9E40E947E1D0E94FC1C5D
:1027C000E0E0F1E0ABE1B1E00E949F1B0E94FC1D44
:1027D000ABE1B1E00E949F1BEEE1F4E40E947E1D9C
:1027E0000E94FC1CE0E0F1E0A190BB24E5E3F2E0F4
:1027F000EA0DFB1DABE1B1E00E949F1B0E94FC1D96
:102800000C94051485E08093E4010C940A1484E090
:102810008093E4010C940815E0E4F9E40E947E1D25
:102820000E94051F11F00C948D140091EA020330F0
:1028300011F00C948814A0E0B3E00E94411EA0E0C7
:10284000B1E00C9300910001003080E010F009F03D
:1028500081E08F9300910001053081E008F080E075
:102860009F918923882311F40C94831480E0809332
:10287000E401A5E1B3E00E94411EA0E0B1E0AD900B
:10288000BB24A3EEB2E0AA0DBB1D0C93E0E0F1E087
:10289000A190BB24E8E1F0E0EA0DFB1DA0E0B1E06F
:1028A000AD90BB24A3EEB2E0AA0DBB1D7BE70E9456
:1028B000D41EABE1B1E0E8E4F9E40E947E1D0E9481
:1028C000FC1CE0E0F1E0ABE1B1E00E949F1B0E9444
:1028D000FC1DABE1B1E00E949F1BEEE5F9E40E9414
:1028E0007E1D0E94FC1CE0E0F1E0A190BB24E3EE21
:1028F000F2E0EA0DFB1DABE1B1E00E949F1B0E94DC
:10290000FC1D0C94861485E08093E4010C948B14D8
:1029100084E08093E4010C940815E2E6F9E40E9457
:102920007E1D0E94051F11F00C94E7140091EA022D
:10293000023011F00C94E21400910001003080E0AC
:1029400010F009F081E08F9300910001053081E0E3
:1029500008F080E09F918923882311F40C94DD1402
:1029600080E08093E401ABE1B1E0EAE6F9E40E94A3
:102970007E1D0E94FC1CE0E0F1E0ABE1B1E00E94B2
:102980009F1B0E94FC1DABE1B1E00E949F1BEEE18A
:10299000F4E40E947E1D0E94FC1CE0E0F1E0A190A6
:1029A000BB24E3EEF2E0EA0DFB1DABE1B1E00E94D7
:1029B0009F1B0E94FC1D0C94E01485E08093E401B1
:1029C0000C94E51484E08093E4010C940815E6E788
:1029D000F9E40E947E1D0E94051F11F00C9405155C
:1029E00080E08093E401ABE1B1E0EEE7F9E40E941E
:1029F0007E1D0E94FC1CABE1B1E00E949F1BE8EE33
:102A0000F2E00E94891E0C94081581E08093E40195
:102A10000C940D1582E08093E4010091E4010030F4
:102A200018F011F00C9416150C942415E4E6F0E35C
:102A30000E947E1DA4EEB1E08C9199270E944B1D4F
:102A4000ABE1B1E00E94FC1CABE1B1E00E94A81B2D
:102A50000E94B51B0895E6E8F9E40E947E1D0E94DD
:102A6000AE1B0E94B51B809170028093270280915B
:102A700071028093280280E08093030181E08093BB
:102A80000A0100910A01043118F011F00C949B1511
:102A9000EAE0F1E0A190BB24EBE6F2E0EA0DFB1DD9
:102AA000A0E8BFE00E94701E0E94A61BE6E3F4E4CB
:102AB0000E947E1D0E94AE1BAAE0B1E00C9100FBBB
:102AC00016F00C947015AAE0B1E0AD90BB24ABE613
:102AD000B2E0AA0DBB1D8C91809300010C9493155C
:102AE000AAE0B1E0AD90BB24ABE6B2E0AA0DBB1DFD
:102AF0008C918093020194E0A2E0B1E00E940B1D52
:102B0000A3E0B1E08C918F5F8C9300910001409124
:102B10000201042BA3E0B1E0AD90BB24A1E8B2E038
:102B2000AA0DBB1D0C93AAE0B1E08C918F5F8C9332
:102B300010F40C9441150E94B51BE2E9F9E40E94DF
:102B40007E1D0E94AE1B0E94B51B81E080930A018E
:102B500000910A010A3018F011F00C94CB15EAE04C
:102B6000F1E0A190BB24E1E8F2E0EA0DFB1DA0E852
:102B7000BFE00E94701E0E94A61BE6E3F4E40E94E0
:102B80007E1D0E94AE1BAAE0B1E08C918F5F8C93FA
:102B900010F40C94A8150E94B51B88E090E0A2E800
:102BA000B2E00E94291FACE0B1E00D931C93ECE968
:102BB000F9E40E947E1D0E94AE1BECE0F1E0A0E86B
:102BC000BFE00E94721E0E94A61B0E94B51B90913E
:102BD0008A0280918B02AEE0B1E08D939C93E2EA91
:102BE000F9E40E947E1D0E94AE1BEEE0F1E0A0E839
:102BF000BFE00E94721E0E94A61B0E94B51BAEE0A1
:102C0000B1E04D915C91ACE0B1E00D911C910417E5
:102C1000150711F00C941418EAEAF9E40E947E1DDD
:102C20000E94AE1BA0EEB2E00E94581BE5E1F0E06E
:102C3000A0EEB2E07BE70E94D61EE0EEF2E0A0E854
:102C4000BFE00E94EC1D0E94A61B0E94B51B0091D4
:102C50008202043281E009F080E08F9300918302C8
:102C6000053581E009F080E09F918923882311F4E4
:102C70000C940A18E2EBF9E40E947E1D0E94AE1B40
:102C80000E94B51BE0ECF9E40E947E1D0E94AE1B81
:102C9000E5E8F2E0A0E8BFE00E94FC1D0E94A61B50
:102CA0000E94B51B809185028093330240912702D8
:102CB00000912202041711F00C946817A3E2B2E00D
:102CC000E4E6F3E40E947E1D0E94CE20E3E2F2E0FF
:102CD0000E94721F0E947320EDE0F0E0A3E2B2E0D8
:102CE0000E94B81EE5E0F0E0A3E2B2E094E07BE7EA
:102CF0000E94D71EEAECF9E40E947E1D0E94AE1BE2
:102D0000E3E2F2E0A0E8BFE00E94721F0E94F31B22
:102D10000E94A61B0E94B51B0E94BC05E2EDF9E4CF
:102D20000E947E1D0E94AE1B0E94B51B81E0809315
:102D30000A0100910A010F3018F011F00C94BC1632
:102D4000EAE0F1E0A190BB24E9E3F2E0EA0DFB1D2B
:102D5000A0E8BFE00E94701E0E94A61BE6E3F4E418
:102D60000E947E1D0E94AE1BAAE0B1E08C918F5F95
:102D70008C9310F40C9499160E94B51BA8E2B2E053
:102D80000C9103FB16F40C94E416709132027F77D9
:102D900070933202ECEDF9E40E947E1D0E94AE1B9E
:102DA000A2E3B2E08C9187FBA0E8BFE00E946F1D18
:102DB0008D9388278C930E94A61B0E94B51B81E0EF
:102DC000809396020C940117709132027068709390
:102DD0003202E8EEF9E40E947E1D0E94AE1BA2E3DF
:102DE000B2E08C9187FBA0E8BFE00E946F1D8D933D
:102DF00088278C930E94A61B0E94B51B8BE08093B2
:102E0000960270912802777F7093280280912802A1
:102E100080932B02E4EFF9E40E947E1D0E94AE1B1A
:102E2000EBE2F2E0A0E8BFE00E94FC1D0E94A61BBE
:102E30000E94B51B80912B02809329020E94B51B32
:102E4000E0E0FAE40E947E1D0E94AE1B0E94B51BCA
:102E5000E4EBF6E40E947E1D0E94AE1B81E08093AD
:102E60000A0100910A010E3118F011F00C94541768
:102E7000E6E3F4E40E947E1D0E94AE1BEAE0F1E06E
:102E8000A190BB24E9E4F2E0EA0DFB1DA0E8BFE05D
:102E90000E94701E0E94A61BAAE0B1E08C918F5F79
:102EA0008C9310F40C9431170E94B51B88EC90E0C1
:102EB000D2018D939C9382E00E94EC1C0E944705F6
:102EC000229682E00E94E81C0E94EF060C940818EB
:102ED000009127020F3011F00C949617ECE0FAE401
:102EE0000E947E1D0E94AE1B0E94B51B83E0809352
:102EF0002B0283E08093290283E080939602E4EF23
:102F0000F9E40E947E1D0E94AE1BEBE2F2E0A0E815
:102F1000BFE00E94FC1D0E94A61B0E94B51B709181
:102F200032027F77709332020C94081800912702C6
:102F30000E3011F00C94C417EAE1FAE40E947E1DF1
:102F40000E94AE1B0E94B51B82E080932B0282E0A0
:102F50008093290282E080939602709132027F77FB
:102F600070933202E4EFF9E40E947E1D0E94AE1BD2
:102F7000EBE2F2E0A0E8BFE00E94FC1D0E94A61B6D
:102F80000E94B51B0C940818009127020D3011F017
:102F90000C94E217E6E2FAE40E947E1D0E94AE1B4A
:102FA0000E94B51B709132027F777093320281E0EC
:102FB00080932B0281E08093290281E08093960226
:102FC0000C940818009127020C3011F00C94001892
:102FD000E4E3FAE40E947E1D0E94AE1B0E94B51B32
:102FE00081E080932B0281E0809329028BE0809323
:102FF0009602709132027068709332020C94081835
:10300000E6E4FAE40E947E1D0E94AE1B0E94B51BFE
:103010000C941218EAE6FAE40E947E1D0E94AE1B90
:103020000E94B51B0C942F18E8E7FAE40E947E1D5D
:103030000E94AE1BA2EEB2E00E94581BE7E1F0E056
:10304000A2EEB2E07BE70E94D61EE2EEF2E0A0E83C
:10305000BFE00E94EC1D0E94A61B0E94B51B0E94AF
:10306000B51B08954F4B00436F6D616E646F206E0A
:103070006F207265636F6E6F6369646F004C6F6E73
:10308000676974756420636F6D616E646F206E6F25
:103090002076616C696461004E756D65726F2064A5
:1030A00065207573756172696F206E6F2076616C33
:1030B00069646F004E756D65726F20646520706184
:1030C00072616D6574726F7320696E76616C69648C
:1030D0006F004572726F72206C6F6E6769747564F1
:1030E00020706172616D6574726F2031004572727B
:1030F0006F72206C6F6E67697475642070617261A5
:103100006D6574726F203200506172616D6574720A
:103110006F206E6F2076616C69646F004552524F6C
:103120005238004552524F522053442E20496E745B
:10313000656E7465206465206E7565766F000000AD
:1031400000000300000033000000330300003333AD
:1031500000003333030033C00C00FF0FFF0F555541
:10316000555533333333777777770000FFFFCC0043
:10317000FCFFCC0CFCFFCCCCFCFF0C00FCFFF0FFF8
:10318000FFFF000001020300000000000101010137
:1031900003040404060606060606070000000001F4
:1031A00001010103040404060606060606070000E2
:1031B00000000101010103040404060606060606D8
:1031C00004040606070707070700060606060606A4
:1031D0000404060606060606040407060606060696
:1031E0000604040606060606060404060606060687
:1031F0000604040606060606060404070606060676
:103200000606040406060606060606000808080860
:103210000808080808080808060606080808080834
:10322000080808080808080606060C0C0C0C0C0C0C
:103230000C0C0C0C0C0C0C0C0C0C0C0C0C0C0C0CCE
:103240000C0C0C0C0C0C0C0C0E946803ACE9B2E0EA
:103250008C9184FB16F00C94401970919C027F7E37
:1032600070939C02E2E8FAE40E947E1D0E94AE1B6D
:10327000AFE7B6E00E94A81B0E94B51B0E94040B9A
:10328000A2E3B2E08C9185FB16F00C944E1970917C
:1032900032027F7D709332020E942B150E94E80754
:1032A000A2E3B2E08C9184FB16F00C946419709147
:1032B00032027F7E70933202E8E8FAE40E947E1DBB
:1032C0000E94AE1B0E94B51BACE9B2E08C9186FB5C
:1032D00016F00C94E71970919C027F7B70939C020E
:1032E0000E94D309A2E3B2E08C9186FB16F00C9405
:1032F000E71900913402043010F00C94A6190091E3
:10330000340241E0040FA9EEB2E00C93E2E9FAE4E2
:103310000E947E1D0E94AE1BE9EEF2E0A0E8BFE035
:103320000E94FC1D0E94A61B0E94B51BE2E9FAE464
:103330000E947E1D0E94C41BE9EEF2E0A0E8BFE0FF
:103340000E94FC1D0E94BC1B0E94CB1BA4E3B2E0A8
:103350008C918F5F8C93A4E3B2E00C914AE00E94C1
:10336000EF1E8C9300913402003011F00C94E71999
:10337000ECE9FAE40E947E1D0E94AE1BE5E3F2E058
:10338000A0E8BFE00E94FC1D0E94A61B0E94B51B86
:10339000A5E3B2E08C918F5F8C93A5E3B2E00C9132
:1033A00043E00E94EF1E8C9300913502003011F033
:1033B0000C94E719709132027F7B70933202EAEA33
:1033C000FAE40E947E1D0E94AE1B0E94B51B9A9BD0
:1033D0000C94121A0027A9E0B1E08C9184FB00F94B
:1033E0004427A3E3B0E08C9182FB40F9041711F469
:1033F0000C94101AECEBFAE40E947E1D0E94AE1BA6
:103400000E94B51BA3E3B0E08C9182FBA9E0B1E080
:103410008C9184F98C93709109017B7F70930901E1
:103420000C94381A0027A9E0B1E08C9184FB00F9D4
:103430004427A3E3B0E08C9182FB40F9041711F418
:103440000C94381AE4ECFAE40E947E1D0E94AE1B34
:103450000E94B51BA3E3B0E08C9182FBA9E0B1E030
:103460008C9184F98C9370910901746070930901B7
:10347000A9E0B1E08C9186FB16F00C94A41A70912F
:1034800009017F7B70930901A9E0B1E08C9187FB72
:1034900016F40C94A41AECECFAE40E947E1D0E942F
:1034A000AE1BE9E2F2E0A0E8BFE00E94FC1D0E9432
:1034B000A61BE6E3F4E40E947E1D0E94AE1BE3E33C
:1034C000F2E0A0E8BFE00E94FC1D0E94A61B0E9443
:1034D000B51BECECFAE40E947E1D0E94C41BE9E2DD
:1034E000F2E0A0E8BFE00E94FC1D0E94BC1BE6E3E6
:1034F000F4E40E947E1D0E94C41BE3E3F2E0A0E816
:10350000BFE00E94FC1D0E94BC1B0E94CB1BA1E3DC
:10351000B2E08C918F5F8C93A1E3B2E00C914AE012
:103520000E94EF1E8C9300913102003011F00C9438
:10353000A41AE6EDFAE40E947E1D0E94AE1B0E94D2
:10354000B51B81E080932C02A9E0B1E08C9180FB57
:1035500016F00C94481B709109017E7F709309014D
:10356000AFE2B2E00E94581BAFE2B2E00D911C91B5
:10357000AEE1B2E04D915C910E94851BAFE2B2E0FA
:103580000D931C93A2E3B2E08C9187FB16F40C948C
:10359000011B00912902013011F00C94DB1AE8E8BC
:1035A000F1E30E947E1DAFE2B2E08D919C91AEE20C
:1035B000B2E00E94311D00912902023011F00C94FA
:1035C000ED1AECE0F2E30E947E1DAFE2B2E08D91D5
:1035D0009C91AEE2B2E00E94311D009129020330BD
:1035E00011F00C94FF1AEAE2F2E30E947E1DAFE2B2
:1035F000B2E08D919C91AEE2B2E00E94311D0C943C
:10360000041B87E080932E0200911001013011F01D
:103610000C943B1BEFE2F2E0A0E8BFE00E94EC1D3F
:103620000E94A61BE6E3F4E40E947E1D0E94AE1BEE
:10363000EEE2F2E0A0E8BFE00E94FC1D0E94A61BA3
:10364000E6E3F4E40E947E1D0E94AE1BEEEEFAE477
:103650000E947E1D0E94AE1BA2E3B2E08C9187FB0C
:10366000A0E8BFE00E946F1D8D9388278C930E9475
:10367000A61B0E94B51B80912E02D2018C9381E083
:103680000E94EC1C0E94AE09229681E00E94E81C78
:10369000A9E0B1E08C9183FB16F00C94561B70915D
:1036A0000901777F709309010E9468030C94261921
:1036B000ED91FC91EF5FFF4FFC93EE93089509D0DD
:1036C0000E94F21C00FC10D0089503D01ED001F817
:1036D000F9CF0024E89457FF02C009D0689400F89D
:1036E0000BD010F80124089502D009D00895509508
:1036F00040954F5F5F4F0895E89417FF0895009538
:1037000010950F5F1F4F68940895352F242FE8946C
:10371000452B11F468940895512F402F002711274D
:1037200080E1440F551F001F111F021B130B416046
:1037300018F4020F131F4E7F8A9599F708958F93FF
:103740008D918823E9F711978F910895A0E8BFE044
:103750008D91882311F00CD0FBCF08950E941B1D82
:10376000802D11F005D0FACF08958DE001D08AE0C8
:103770005D9BFECF8CB90895A0E8BFE08D918823B2
:1037800011F00CD0FBCF08950E941B1D802D11F06D
:1037900005D0FACF08958DE001D08AE000909B001B
:1037A00005FEFCCF80939C00089588EE93E00CD03A
:1037B0003197D9F708953197F1F70895689462F831
:1037C0000895E89462F80895EF93FF93EE27E82BAD
:1037D000E92B31F0E0EAFFE03197F1F70197D1F7FB
:1037E000FF91EF9108958DE207FD8D938F2D881F36
:1037F000802F881F8F57082F6894F7F8802F87FF36
:1038000017C080958395082F80E38D938EE28D936A
:10381000802F815238F080E38D9399279C930E94EA
:10382000731D089544270A95802F09F19ED01FC06B
:10383000805230F09EE49D9381E48D939D93EDCF73
:103840004427DF92EF92FF920F938FE1801B11F0DC
:10385000082F8BD091D09EE29D930F91FF90EF9017
:10386000DF9044270395003209F4D5CF33D03F933E
:10387000EAE0F9E30E947E1D38E12F2D1E2D0D2D6B
:10388000FF24EE24DD244427000F111F221FB8F46B
:103890002F923F920E941B1D102C0E941B1D202C5A
:1038A0000E941B1D302C0E941B1D31970E94441D3D
:1038B000410DD21CE31CF01C3F902F9003C03396A7
:1038C0000E943D1D31960E943D1D3A95E9F63F91BB
:1038D00007D0A5CFDD0CEE1CFF1C0A95D9F7089583
:1038E000002719E058D08F93802B11F0039501C069
:1038F0008F911A95B9F7802F882309F48CCF8F9177
:10390000805D8D930A95D9F788CF0065CD1D80B273
:10391000E60E40597307A0ACB90350D6DC01286B02
:10392000EE0094357700CA9A3B0065CD1D00B2E6E3
:103930000E0059730700ACB90300D6DC01006BEE32
:103940000000357700009A3B0000CD1D0000E60E18
:10395000000073070000B9030000DC010000EE0066
:103960000000770000003B000000F694E794D79435
:1039700047950A95D1F7089500270DD08F930395A9
:103980008F2D8E298D29842BC1F78F91805D8D938A
:103990000A95D9F742CF1F930F93002710E2440FE7
:1039A000DD1CEE1CFF1C001F802F9AE0890B10F01D
:1039B000082F43951A9599F7802F0F911F9108951D
:1039C00001911191219130810895481A590A089561
:1039D000481A8827580A089599275A924A92480EF9
:1039E000591E08950F92B801469F8001479F100D00
:1039F000569F100D0F9008950E941B1D0D920020E0
:103A0000D9F70895369A3699FECF369A3699FECF71
:103A100084B195B10895903029F08C91880F9A95D2
:103A2000E9F78C930895903029F08C9186959A95BA
:103A3000E9F78C930895D895319628F48F938BB736
:103A400083958BBF8F910020089591E005C092E08F
:103A500003C094E001C098E0EEDF0D929A95E1F783
:103A60000895E80FF91F09D0F0CF880F991F880F2C
:103A7000991FE80FF91F01D0ECCF28F48F938BB773
:103A800083958BBF8F91089528F48F938BB78A9578
:103A90008BBF8F9108950196019721F00E941B1D05
:103AA000E9F7FACF0895819104D08D938823D9F74F
:103AB0000895813618F08B3708F48F7D089591E0D2
:103AC000882321F08894991F8A95E9F7892F90958A
:103AD0000895883018F011968850FBCF089580E340
:103AE0000EF4839508950F9200240BBE0F90089555
:103AF0000F9301E00BBF0F91889408950F93002757
:103B0000F9CF0F9302E0F6CF99278D9193958823F3
:103B1000E1F7939511968C9311978E919A95D1F721
:103B20000895EA2FFB2F00244C918D9103948E323F
:103B3000E1F711248D9113948823E1F71A9410165C
:103B400040F41197202F2119239580E38D932A9516
:103B5000E9F7113039F59927AE2FBF2FA00DB91F06
:103B6000A00FB91F8C919C93853308F421C031E0DC
:103B70008E918E32E9F38D3241F0830F8A3319F43E
:103B800080E331E001C033278C93AE1789F73323EC
:103B900041F0AE2FBF2FB8DF81E34D3209F43196EB
:103BA000808308958827E00DF81FE00FF81F8083B9
:103BB0000895040F151F261F371F0895000F111FAA
:103BC000221F331F089500951095209530950F5FA3
:103BD0001F4F2F4F3F4F0895019110810FC00E943A
:103BE000E01C0EC00E94E01C10C00191108117FF64
:103BF00005C03FEF2FEF04C0008111272227332794
:103C000037FF03C0E0DF8DE28D93CF92DF92EF921A
:103C1000AA24BB24CC24DD24EE2440E2EAE0FF27E2
:103C200055E093E38081890F87FD9F7083FD907F2E
:103C3000891B81935A95A9F7C1DFAA1CBB1CCC1C18
:103C4000DD1CEE1C4A9551F7E894EFE0FF278291C6
:103C50000BD0EB30E0F71EF068948A2D09D04D931D
:103C6000EF90DF90CF900895982F829501D0892F03
:103C70008F70805D26F0803309F4089568948D93E9
:103C8000089500271127222733271DD08A3328F4CF
:103C9000803318F005D015D0F9CF0EF494CF0895E5
:103CA00080538F93402F512F622F732F87DF86DF32
:103CB00080DF84DF8F919927080F191F291F391F73
:103CC00008958D910895E894FCDF8032E9F38B32FA
:103CD000D9F38930C9F38D3211F46894F2CF089585
:103CE00041E003C042E001C044E0E40F8827F81F30
:103CF0008291982F829506D0892F04D04A95C1F7DA
:103D00000C94B01E8F708A3008F0895F805D8D93AF
:103D1000089541E0E40F8827F81F829138E098E188
:103D2000880F991F9D933A95D1F74A95B1F70C9456
:103D3000B01E00271127222733278D91882379F081
:103D40003DDF3CDF3BDF3ADFB4DE815408F4895FBE
:103D5000865F080F8827181F281F381FEECF089589
:103D600088278D93089581918D938823E1F7089595
:103D700094E081918D939A95E1F70895099191913D
:103D8000992359F08A95D9F73197002331F0819121
:103D90008D930A958823C9F70895E2CFE199FECF64
:103DA000EEBBFFBB3196089591E001C092E07B37F6
:103DB00051F47FB7F894F2DF8D918DBBE29AE19ACE
:103DC0009A95C9F77FBF7727089591E001C092E0E7
:103DD000E5DFE09A8DB38D939A95D1F70895FF931F
:103DE000881BF9E0001FFA9511F4FF910895881FD0
:103DF000841B18F4840F8894F5CF0894F3CF8FEFC9
:103E000083959D919923E1F70895689401C0E89402
:103E1000AF93BF938D9116F0919103C00E941B1D2B
:103E2000902D891718F011F48823A1F7BF91AF9155
:103E3000089500276CE8719198E00695779577FFD3
:103E400018F477FD08F006279A95B9F78A9599F73F
:103E500008950027112730E141E20D90102528E058
:103E60008894001F111F10F4132704272A95C1F707
:103E7000019799F70895689401C0E8942227102FBC
:103E8000231709F4089526F40E941B1D802D01C0FC
:103E90008191803081F0891741F070E08D931A95FF
:103EA00091F7239571E01D93EACF01D0E8CF7030F0
:103EB00011F077270895772331F4239588271395F8
:103EC0008D931A95E9F70895B7FE089590E8B9160D
:103ED00011F4D0FE08959FEFD91AE90AF90A09F4FE
:103EE00003950895D190E190F19001910895219169
:103EF0003191419151910895502F2D2D3E2D4F2DEF
:103F0000612F0895D094E094F09491E0D90E992710
:103F1000E91EF91E10950895652F90E8440F551F6E
:103F20005927990F47956078102F90E8FF0C001FD4
:103F30000927990FF794107800380895FF0C90E83E
:103F40009027110F9795F794092F08951127BD2CED
:103F5000DE2CEF2CF02E0EE1FF2039F4FE2CED2CA0
:103F6000DB2CBB240850C2F752C032F00A95BB0CC0
:103F7000DD1CEE1CFF1CF9CFA7DFE0CF2DEC3CECE5
:103F80004CEC5DE366270FC0ADDFB6DFDD24EE2429
:103F900090E8F92E0FE307C0AADF05C022273327D8
:103FA00040E251E46627552351F1002381F1B4DF4B
:103FB00071F11627005850580894050B18F407FDA6
:103FC00003C025C007FD23C0469537952795F69475
:103FD000E794D79425D0FF202AF0DD0CEE1CFF1CBF
:103FE000015073F09D2D969548F0DD203AF4EE20B7
:103FF0002AF491E0D90E9927E91EF91E9FCF07C038
:104000009FE7092FF92A9FEFD92EE92E0895DD2485
:10401000EE24FF240027112708950FE79FEFF2CF2A
:104020009F929924AA24BB2488E1D216E306F406C1
:1040300028F0D21AE30AF40A089401C08894991C63
:10404000AA1CBB1CDD0CEE1CFF1C8A9571F7D92C39
:10405000EA2CFB2C9F9008955FDFD9F05038C9F00F
:1040600016270058952F90580894091F12F418F439
:104070000EC008F00EC00FD0FF202AF0BB0CDD1CD4
:10408000EE1CFF1C02C0039513F01EDF57CF0C94EB
:1040900000200C9407209F92FF92EF928D2DFF2419
:1040A000EE24DD24BB2493E0849F1001829FB00C9A
:1040B000D11CE21CF31C839FD00CE11C2224F21CB7
:1040C0009A9531F0BD2CDE2CEF2CFF248F91ECCF94
:1040D0009F9008950AF045D031CF5FE32227332720
:1040E000442701C004DF18DF5038B1F3003899F3DA
:1040F000902F951B8BF312F434D0FACF983118F02F
:10410000222733274427983028F0232F342F4427A1
:104110009850F9CF992329F04695379527959A9588
:10412000D9F7912F962742F014D0B0F6F794E79480
:10413000D7940F5F8BF664CF10D051F008F4E2DE15
:10414000FF2052F2DD0CEE1CFF1C0150CBF758CFC4
:104150005ECFD20EE31EF41E0895D21AE30AF40ACB
:104160000895DF92EF92FF920F931F93D22EE32ECA
:10417000F42E052F162F6F915F914F913F912F9144
:1041800008950E941B1DD02C0E941B1DE02C0E9434
:104190001B1DF02C0E941B1D002D08950E941B1D4D
:1041A000202D0E941B1D302D0E941B1D402D0E94A2
:1041B0001B1D502D08950E94E11B88278A938A9326
:1041C00026DF11278D918B32E9F38032D9F31197D5
:1041D000BBD098F08D3229F4109511968C91B4D003
:1041E00060F08E3229F411968C91AED008F446C05E
:1041F00022960E94DE1B81E008958C91A5D0D8F50F
:10420000119646D0D0F703958D919ED0E0F38E3273
:1042100029F48C9199D010F41196FBCF853419F0C4
:10422000853609F055C011968C918ED060F08D3294
:1042300019F08B3221F0DCCF0880009408821196AF
:104240008C9182D0A8F68053898311968C917CD072
:1042500058F49981990F990F0980900D990F805307
:10426000890F8983873220F68981988199230AF4FE
:104270008195080F2DC08E3289F611968C9164D0ED
:1042800068F606D018F011960A95F8CF1196C1CFAE
:104290004F2D3E2D2D2DDD0CEE1CFF1CA8F0DD0C4E
:1042A000EE1CFF1C88F0D20EE31EF41E68F0DD0C3D
:1042B000EE1CFF1C48F0805309F06894D80E882744
:1042C000E81EF81E08F00895F42EE32ED22E08956D
:1042D00034D019F116F5098308E921D0069588270D
:1042E00087959F2D9F77980FF92E0150000F110F82
:1042F00007958981882379F01AF48195898306C00E
:104300003DDE89818A958983D9F705C047DE898199
:104310008A958983D9F72296089579DEFCCF0DD04E
:1043200041F0FF2032F00A9531F0DD0CEE1CFF1C4D
:10433000D2F7889408950894089500240D280E2833
:104340000F28002A00200895803320F08A3310F4CB
:104350000894089588940895FF0D613D00000000C1
:10436000000000410000803F2A2A2A2A2A2A2A2AFD
:104370002A2A2A2A20524144494F42524944474559
:10438000202A2A2A2A2A2A2A2A2A2A2A2A003135AF
:104390002D30372D323032342031313A31303A3409
:1043A0003800302E312E33313700524144494F42CC
:1043B00052494447455F564F4C2E424153004E757B
:1043C0006D6573746163696F6E3D00004164636B7A
:1043D0002800293D0000436F6E7461646F72206491
:1043E00065207472616E736D6973696F6E65732099
:1043F0003D0054616E693D00434E54524352434F59
:104400004B3D0000434E54524352434241443D0011
:10441000566F6C3D0000546F7049324300003D0000
:104420005472616D612054582044544D4600543DEF
:10443000000072783D002C004D6F646F207465732E
:1044400074204C6F63616C004D6F646F20416C652C
:10445000727461204E6172616E6A61204C6F63619B
:104460006C0041204D6F646F204E6F726D616C2047
:104470006465736465204D6F646F205465737420A8
:104480004C6F63616C0041204D6F646F204E6F7202
:104490006D616C20646573646520412E204E6172ED
:1044A000616E6A61204C6F63616C000043616D62F4
:1044B000696F206465205374617475733D004E7597
:1044C00065766F20537461747573205265636962F9
:1044D00069646F20706F7220526164696F3D0000E3
:1044E000414443004C45455646570000566572739B
:1044F000696F6E2046573A204665636861203C002C
:104500003E2C204172636869766F203C00003E00BB
:104510005345544C45440000536520636F6E6669F3
:1045200067757261207365746C656420612000009A
:104530004C45454C4544000045737461646F204C04
:1045400045443D0053455454585000005365206382
:104550006F6E66696775726F207469656D706F2024
:10456000646520747820706572696F646963617333
:10457000206120002073000053455454544500002E
:10458000536520636F6E66696775726F2074696525
:104590006D706F20646520747820656E747265207C
:1045A0006573746163696F6E6573206120005345A4
:1045B000544354580000536520636F6E66696775F5
:1045C000726F20636F6E7461646F722074783D0047
:1045D0004C454554585000005469656D706F206417
:1045E0006520747820706572696F646963617320F7
:1045F0003D004C454554544500005469656D706F4D
:1046000020646520747820656E747265206573740B
:104610006163696F6E6573203D004C454543545896
:104620000000436F6E7461646F722064652074785B
:104630003D0054535444454C000054657374204469
:10464000656C617920200000494E490046494E00C2
:10465000494E4954585000004E7565766120747873
:1046600020506572696F646963610000534554535B
:1046700054410000536520636F6E66696775726F01
:10468000206E756D65726F2064652065737461635B
:10469000696F6E203D004C454553544100006E75D6
:1046A0006D65726F206465206573746163696F6EF8
:1046B000203D0000525844544D46000053696D752A
:1046C0006C6163696F6E20646520525820746F6E50
:1046D0006F732044544D460045737461646F5F6C82
:1046E0006564313D000045737461646F5F6C65649F
:1046F000323D00005345544144430000536520635C
:104700006F6E66696775726F2041444320004C45A7
:1047100045414443000056616C6F7265732041440B
:10472000432000005345544442470000536520682D
:104730006162696C69746120646973706C6179206D
:1047400064656275670044525641554400005265E5
:104750007370756573746120445256204155444905
:104760004F3D0000534554414E49000053652063BE
:104770006F6E6669677572612054616E693D0000F5
:104780004C4545414E490000534554505452000099
:10479000536520636F6E666967757261205074722D
:1047A000616E693D0000534554434F4B0000536513
:1047B00020636F6E66696775726120434E54524381
:1047C00052434F4B3D005345544241440000536512
:1047D00020636F6E66696775726120434E54524361
:1047E00052434241443D00004C4545435243000082
:1047F0004352434F4B3D0000202C20435243424143
:10480000443D00004C45454241540000564241544D
:104810003D00202C205650533D00525354564152D7
:1048200000005265696E6963696F20612076616C72
:104830006F72657320706F72206465666563746F54
:104840000000494E495641520000496E6963696152
:104850006C697A61207661726961626C65730000CF
:104860005345544D4F440000536520636F6E666995
:104870006775726F206D6F646F204F46463D000074
:104880004C45454D4F4400004D6F646F204F4646E8
:104890003D005345544453500000534520636F6E10
:1048A0006669677572612073616C69646120646513
:1048B0006C7320646973706C6179206120005345CA
:1048C0005452454C000072656C653D0046696E208F
:1048D00072656C0053455442554700005365206390
:1048E0006F6E66696720454E414255473D004C4515
:1048F000454255470000454E414255473D004C4515
:10490000455644430000566261743D002C205670A9
:10491000733D00002C20566463333D004C454549EF
:1049200032430000536520636F6E662049324300B6
:1049300056414C493243000056616C4932432000D5
:10494000544F504932430000536520636F6E6669CF
:104950006720746F70206C696D20493243002061BC
:1049600020004C4545544F500000546F70206C6936
:104970006D2049324300544D504932430000546D7C
:10498000704932433D005258204E45572044544D03
:1049900046006865782064746D6600004352433DAC
:1049A000000043524363616C3D00435243204F4B30
:1049B0003D005472616D612076616C696461000034
:1049C000566F6C756D656E3D0000436E7472747841
:1049D0003D005472616D6120484558004D4F444F71
:1049E0004F46463D302C00004D4F444F4F46463D0C
:1049F000312C00005354415455532052583D00006F
:104A00005472616D612044544D4600005472616DD2
:104A10006120414C41524D4100005472616D612052
:104A20005445535400005472616D61204E4F524DF5
:104A3000414C00004D6F646F204F4646206E6F63FF
:104A40007475726E6F004E4F206573205445535439
:104A5000206E6920616C61726D61202E204E6F2086
:104A6000726573706F6E646500004641494C204961
:104A700044205472616D6100435243206661696C49
:104A80003D00534552313D00545820414C657274ED
:104A90006100244C45454932432C0000436E74723A
:104AA000747279693263413D000046494E20636F5C
:104AB0006E73756C74612041444300004142494566
:104AC00052544F004345525241444F0024445256E1
:104AD0004155442C000053696E20726573707565F2
:104AE00073746120445256415544494F00004F466B
:044AF000463D00003F
:00000001FF
